:02000004000FEB
:10000000286B0020A1050F00A9050F00AB050F000C
:10001000AD050F00AF050F00B1050F000000000097
:10002000000000000000000000000000F1040F00CC
:10003000B5050F0000000000B7050F00B9050F005F
:1000400035070F00BB050F00990B0F00B1070F001C
:10005000BB050F00BB050F00BB050F00BB050F0064
:10006000BB050F00BB050F00BB050F00BB050F0054
:10007000BB050F00BB050F00BB050F00BB050F0044
:10008000BB050F008D070F00BB050F00BB050F0060
:10009000C1070F00BB050F00C5070F00BB050F0010
:1000A000BB050F00BB050F00BB050F00BB050F0014
:1000B000BB050F00BB050F000000000000000000A2
:1000C000BB050F00BB050F00BB050F00BB050F00F4
:1000D000BB050F00BB050F00BB050F00BB050F00E4
:1000E000BB050F00BB050F00BB050F0000000000A3
:1000F00000000000BB050F0000000000BB050F0062
:1001000000000000000000000000000000000000EF
:1001100000000000000000000000000000000000DF
:1001200000000000000000000000000000000000CF
:1001300000000000000000000000000000000000BF
:1001400000000000000000000000000000000000AF
:10015000000000000000000000000000000000009F
:10016000000000000000000000000000000000008F
:10017000000000000000000000000000000000007F
:10018000000000000000000000000000000000006F
:10019000000000000000000000000000000000005F
:1001A000000000000000000000000000000000004F
:1001B000000000000000000000000000000000003F
:1001C000000000000000000000000000000000002F
:1001D000000000000000000000000000000000001F
:1001E000000000000000000000000000000000000F
:1001F00000000000000000000000000000000000FF
:10020000DFF80CD000F016FA00480047CD1C0F00B4
:10021000286B0020056885F308884068FF2464B2D5
:10022000EFF30585002D07D1EFF3148102229143EE
:1002300081F31488A64600472546064621273FBA83
:10024000F0B40024002500260027F0B4F92040B2C5
:100250000047000030B450E8012F93B2C489234412
:100260008489A34228BF1B1B0489A34202BFBFF39A
:100270002F8F002007E0C3EA020340E80134002C7E
:10028000E9D14FF001000A6030BC704750E8012FFF
:10029000C2EA024240E801210029F7D1704730B498
:1002A00050E8022F1FFAA2F3C488A34202BFBFF393
:1002B0002F8F00200DE0C48923448489A34228BFE6
:1002C0001B1BC2EA034340E80234002CE8D14FF084
:1002D00001000A6030BC704750E8022FC2EA224297
:1002E00040E802210029F7D17047034653E8022F66
:1002F000D988B2EB324F4FF0000017BF92B241EAFB
:10030000014142EA014104E05A68B2EB324F08BFB2
:10031000012043E80212002AE8D1704730B40446B5
:1003200054E8000F0D4644E80053002BF8D1156047
:1003300030BC704730B4044654E8000F40EA010571
:1003400044E80053002BF7D1156030BC704730B43F
:10035000044654E8000F00EA010544E80053002B6E
:10036000F7D1156030BC704730B4044654E8000F34
:1003700080EA010544E80053002BF7D1156030BC3A
:10038000704730B4044654E8000F00EB010544E820
:100390000053002BF7D1156030BC704730B40446D1
:1003A00054E8000FA0EB010544E80053002BF7D1FF
:1003B000156030BC7047000030B4044654E8000FAC
:1003C0000D4644E80053002BF8D1156030BC70474F
:1003D00030B4044654E8000F40EA010544E80053F5
:1003E000002BF7D1156030BC704730B4044654E898
:1003F000000F00EA010544E80053002BF7D1156017
:1004000030BC704730B4044654E8000F80EA010560
:1004100044E80053002BF7D1156030BC704730B46E
:10042000044654E8000F00EB010544E80053002B9C
:10043000F7D1156030BC704730B4044654E8000F63
:10044000A0EB010544E80053002BF7D1156030BC48
:100450007047000030B4044654E8000F0D4644E8ED
:100460000053002BF8D1156030BC704730B40446FF
:1004700054E8000F40EA010544E80053002BF7D18F
:10048000156030BC704730B4044654E8000F00EAF1
:10049000010544E80053002BF7D1156030BC7047CC
:1004A00030B4044654E8000F80EA010544E80053E4
:1004B000002BF7D1156030BC704730B4044654E8C7
:1004C000000F00EB010544E80053002BF7D1156045
:1004D00030BC704730B4044654E8000FA0EB01056F
:1004E00044E80053002BF7D1156030BC7047000082
:1004F0001EF0040F0CBFEFF30880EFF3098004F047
:1005000099BA000030B4044654E8000F0D4644E8A0
:100510000053002BF8D1156030BC704730B404464E
:1005200054E8000F40EA010544E80053002BF7D1DE
:10053000156030BC704730B4044654E8000F00EA40
:10054000010544E80053002BF7D1156030BC70471B
:1005500030B4044654E8000F80EA010544E8005333
:10056000002BF7D1156030BC704730B4044654E816
:10057000000F00EB010544E80053002BF7D1156094
:1005800030BC704730B4044654E8000FA0EB0105BE
:1005900044E80053002BF7D1156030BC70470000D1
:1005A0000648804706480047FEE7FEE7FEE7FEE70D
:1005B000FEE7FEE7FEE7FEE7FEE7FEE7E5070F00E2
:1005C00001020F0000487047786D0F0040EA0103F8
:1005D0009B0703D009E008C9121F08C0042AFAD2F9
:1005E00003E011F8013B00F8013B521EF9D27047BD
:1005F000D2B201E000F8012B491EFBD27047002265
:10060000F6E710B513460A4604461946FFF7F0FF11
:10061000204610BD421C10F8011B0029FBD1801A96
:100620007047034611F8012B00F8012B002AF9D17D
:1006300018467047064C074D06E0E06840F001039D
:1006400094E8070098471034AC42F6D3FFF7DCFD7E
:1006500014720F0034720F0070B58C1810F8015B23
:1006600015F0070301D110F8013B2A1106D110F84B
:10067000012B03E010F8016B01F8016B5B1EF9D14F
:100680002B0705D40023521E0DD401F8013BFAE7D5
:1006900010F8013BCB1A921C03E013F8015B01F840
:1006A000015B521EF9D5A142D8D3002070BD00F0E5
:1006B0001F02012191404009800000F1E020C0F8B4
:1006C0008012704700F01F02012191404009800014
:1006D00000F1E020C0F80011704700F01F02012176
:1006E00091404009800000F1E020C0F800127047FE
:1006F0004907090E002806DA00F00F0000F1E0209B
:1007000080F8141D704700F1E02080F80014704755
:10071000BFF34F8F05480168054A01F4E0611143BA
:100720000160BFF34F8F00BFFDE700000CED00E05C
:100730000400FA052DE9F0414FF48077384601F0C6
:10074000E7FD0124104EA50748B1384601F0E7FD4A
:100750000120C5F808037470002000F049FD4FF433
:100760008277384601F0D4FD00280BD0384601F0DE
:10077000D6FD0220C5F80803B470BDE8F0410120A1
:1007800000F036BDBDE8F081543300200748002159
:10079000C0F84011C0F84411C0F84811C0F84C111D
:1007A000C0F80011C0F8041105F040BB0010014072
:1007B0000149024801F058B9683300200030004078
:1007C00005F0A6BA10B50021054A084600F03EFB28
:1007D000002803D0BDE8104000F01CBB10BD000095
:1007E00055110F0030B54FF080500022D0F8301175
:1007F0000123082902D1D0F8344114B1082909D0C5
:100800000BE04FF08041C1F80C21C1F8102168497C
:100810000A6005E0D0F8344114B1082957D059E0F6
:1008200064490968644C21606249091D0968241DF6
:100830002160604908310968241D21605D490C313F
:100840000968241D21605B4910310968241D21605D
:10085000584914310968241D216056491831096826
:10086000554C2034216053491C310968241D2160F6
:10087000504920310968241D21604E4924310968FE
:10088000241D21604B4928310968241D21604949F4
:100890002C310968241D2160464930310968464CD5
:1008A00040342160434934310968241D21604149A5
:1008B00038310968241D21603E493C310968241DF6
:1008C00021603C4940310968241D216005E0D0F8D1
:1008D000344114B1082904D006E0394C374921606D
:1008E00005E0D0F8344114B1082904D006E0354CB5
:1008F000FB21216005E0D0F8344114B1082908D06B
:100900000AE090F858423048016864F3030101603E
:1009100005E0D0F8344114B1082905D00EE02B4988
:100920004FF40070086002E0D0F8340130B9284874
:100930000168C90702D06FF0010101602548016814
:1009400041F470010160BFF34F8FBFF36F8F4FF021
:100950001021D1F80002002803DBD1F8040200289E
:1009600022DA1D4C23601D480368002BFCD01223A3
:10097000C1F800320568002DFCD0C1F804320168CE
:100980000029FCD0226001680029FCD0BFF34F8F02
:1009900010487C380168124A01F4E061114301609B
:1009A000BFF34F8F00BFFDE70F490E48086030BD11
:1009B000380500400404001020C5004048810300B1
:1009C0008C56004018F50040E40E0040409602406E
:1009D0000004004088ED00E004E5014000E401402F
:1009E0000400FA050090D00304290020F8B50E4653
:1009F000054600F093FF01234CF23872022128468D
:100A000004F08AFFC4B2AC420AD00C48042100882A
:100A100001EB00400AA103F027FD4FF0FF3408E08E
:100A20006A460A21204600F0CDFE9DF800002228EB
:100A3000F6D10B4846628460F8BD0000A029002072
:100A40005B6F70656E5F746674705F736F636B6508
:100A5000745D20736F636B6574206572726F7200D2
:100A60005C28002070B50D46044604F00FFF0A48CC
:100A700004212246008801EB004008A103F0F8FCA5
:100A80001149002001F1280208702846BDE8704095
:100A900001230EA104F08ABDA02900205B54465416
:100AA000505F726561645F726571756573745D2016
:100AB0005365742054667470205365727665722095
:100AC0003A202578000000005C2800206F637465E0
:100AD000740000003EB5214CA06908B36169E0696B
:100AE00088421DD3206906280FD2DFE800F00E03EC
:100AF0000E0B0E0B194A0123283219A11A4804F0D3
:100B000055FD02E0E08804F01BFD0020E061206A52
:100B1000401C2062052803D300F000FF0120207054
:100B200001A8009002AB40F2EA52616AA06804F0AA
:100B300097FA01B2002908DA0C480421008801EB79
:100B400000400BA103F090FC05E0BDF80430029AD0
:100B5000606A04F0C9F920783EBD00005C280020DE
:100B60006F63746574000000F4350020A029002034
:100B70005B726563765F7564705F7061636B6574EB
:100B80005D20726563765F7564705F7061636B652D
:100B900074206572726F72000448017F0448002956
:100BA000024901D005F057BA05F0C6B98C330020D0
:100BB00000200040F8B5144C0546A0688047206925
:100BC0008047216AC5F30740C5F3072699B1626AD9
:100BD0008AB18DF800008DF801608DF80250032174
:100BE00068469047A0698047054660698047E0688D
:100BF00080472846F8BDE1698847E1693046884763
:100C0000E169E8B28847EDE7242800202DE9F843A0
:100C10001A4C05461746A0688846804720698047D9
:100C2000216AC5F30740C5F30726A1B1626A92B1F4
:100C30008DF800008DF801608DF8025003216846A0
:100C40009047226A39464046904760698047E0688D
:100C50008047BDE8F883E1698847E1693046884705
:100C6000E169E8B28847002505E0A069804708F8F7
:100C700005006D1CADB2BD42F7D3E6E72428002085
:100C8000F8B5164C05460E46A06880472069804797
:100C9000626A45F004058AB1280C8DF80000280A24
:100CA0008DF801008DF802508DF80360042168462C
:100CB000904760698047E0688047F8BDE169C5F307
:100CC00007408847E169C5F307208847E169E8B232
:100CD0008847E16930468847EBE700002428002078
:100CE000F8B51A4C05461646A0680F46804720699D
:100CF0008047626A45F004059AB1280C8DF800001F
:100D0000280A8DF801008DF80250032168469047AB
:100D1000626A31463846904760698047E06880479C
:100D2000F8BDE169C5F307408847E169C5F30720CD
:100D30008847E169E8B28847002504E0E169785D09
:100D400088476D1CADB2B542F8D3E5E724280020F2
:100D500002E008C8121F08C1002AFAD17047704784
:100D6000002001E001C1121F002AFBD170470000E2
:100D70000121202803DA81400548014003E0402892
:100D800002DA2038814009B1012070470020704705
:100D9000FC06FFBD800701D000207047012070478E
:100DA000C3688B4206D811440069491E814201D8AC
:100DB000012070470020704708B5134602460648D8
:100DC00000930123008803EB00400B4603A103F0CE
:100DD0005EFBFFF79DFC0000AC29002052656365B7
:100DE000697665642061206661756C742120696490
:100DF0003A203078253038782C2070633A203078CB
:100E0000253038782C20696E666F3A20307825308E
:100E100038780000024605480121008801EB0040B7
:100E200003A103F025FBFFF773FC0000AC290020B1
:100E3000526563656976656420616E206572726FC4
:100E4000723A203078253038782100002DE9F84FAB
:100E5000254C8146924660880E46814241D8002743
:100E60004FF6FF788DF80070684600F0C1F82278E0
:100E70006078A188884201DA401C00E00020C0B2FE
:100E8000904204D19DF8000000F0D6F827E0657884
:100E90006078884201DA401C00E0002060709DF814
:100EA000000000F0C9F8454519D0A068B9F1000F5D
:100EB00040F835A00DD066B16188E068324605FB88
:100EC00001004946FFF782FBA06800EBC500868061
:100ED00002E000EBC50087800020BDE8F88F042009
:100EE000FBE70920F9E70000E8270020084B9B7882
:100EF00023B12AB120B10068037C1BB108207047E0
:100F000007207047002303744174426118467047FC
:100F1000AC33002070B504F077FA104800240B21A0
:100F2000047044700E4D817014206C602C706C70D5
:100F3000FFF7BDFB07211420FFF7DAFB1420FFF7B2
:100F4000C1FB0848046007211120FFF7D1FB0548C9
:100F5000001F0068A860002070BD0000AC330020B6
:100F6000F8270020081501402DE9FC47DFF87890AC
:100F700099F8023073B368B3052902D20720BDE89F
:100F8000FC87436933B3437C012B25D000270446FB
:100F90000025884616468DF80050684600F028F86F
:100FA00001A805F0FDF9C8B1012101700F494460A5
:100FB0000968C0E90218C0E904769DF8040089F8C0
:100FC00001009DF8000000F037F81420FFF785FBC2
:100FD0002846D4E70820D2E70F46D8E704259DF835
:100FE000000000F029F8F3E7AC33002004150140BD
:100FF00030B5EFF3108172B60D4A9468012324B125
:101000000370002900D162B630BD93604FF0E02339
:10101000D3F88051074C25401560C3F88041D3F8C0
:10102000844154605A17C3F8842100220270E8E713
:10103000B8340020FC06FFBD0B498A68002A11D095
:1010400000280FD1EFF3108072B60B684FF0E0224A
:10105000C2F800314B68C2F8043100228A600028CF
:1010600000D162B670470000B8340020084910B5BE
:101070000868C97800BA20F0FF00084305A1FFF70F
:10108000F1FC00BFFFF726FD0028FBD010BD0000DB
:10109000E427002065746865726E65745F6D657322
:1010A000685F6E6F64652E62696E000070B50546FC
:1010B00008680C46411C04D003F000F8206802F0D8
:1010C000A6FF6068411C02D0002102F08DFF287944
:1010D0001F4901EB40102968007F0028A069C1F872
:1010E000240523D0607D227D29681043C1F86C055A
:1010F000D4E900122868C0F80C15C0F8142522E0C5
:10110000A068411C02D0002102F06EFFE068411C83
:1011100004D002F0D3FFE06802F079FFD4E90212B4
:101120002868C0F80825C0F8101570BD607D217DC5
:101130002A680843C2F86C05D4E900122868C0F890
:101140001425C0F80C15207D0128D9D070BD0000F1
:101150008C33002003F0D8BBF8B5871C00208DF835
:1011600000000E4601256846FFF742FF124C20683A
:101170003060D4E90001401AA168091ABE1C06E0DB
:1011800000F05AFDD4E90001401AA168091A491C6F
:101190008E42F5D8A1682068084004EB8000C16841
:1011A00041F00301C1602068384420609DF80000D0
:1011B000FFF742FF2846F8BD0847002030B4826898
:1011C0000468531C8360A154D0E901128A4202D3FF
:1011D00030BC02F006BD30BC70470000034803C8B5
:1011E000814201D10120704700207047084700204C
:1011F00070B5084C050009D010342168002907D0CB
:1012000008682060496828468847F6E70834F4E70C
:1012100070BD00005433002070B50446082802D980
:101220004FF0FF3070BD4FF4847000EB4410054662
:101230001021FFF725FD2846FFF7BCFC0028FAD156
:101240004FF4027000EB44101F21FFF719FD0C480A
:101250000121A14082888A430A498280002021F826
:1012600014000749891D08554FF4427000EB4414DF
:101270002046FFF79FFC0028FAD1012070BD000036
:101280004C280020E43500202DE9F05F2648416815
:10129000F1B3DFF898B00E688146DBF8004087684C
:1012A0008078E11B21F07F45ED1CB0B9DFF880802C
:1012B0004FF48030C8F84403C8F804031120FFF746
:1012C000F6F91120FFF7FEF94FF0010AC8F800A067
:1012D0002F2001F02DF889F802A0B54200D2354642
:1012E000124BE8193C3320F07F401860DBF8001007
:1012F0005A46091B21F07F41001B20F07F40C91C8A
:1013000081420FD9106818602F2001F011F800E019
:1013100004E0BDE8F05F1120FFF7DFB9BDE8F05F42
:1013200004F072B8BDE8F09FF827002004150140D2
:1013300000100140F0B54FF0FF3622B11268D243E1
:1013400000230A4D0DE03246FAE7C45C62400824EF
:10135000D70700D037462F4087EA5202641EF7D1E4
:101360005B1C8B42F1D3D043F0BD00002083B8ED6D
:1013700010B50C4606281ED2DFE800F003070B105C
:101380001418204605F0A2F913E0204605F0E2F813
:101390000FE02078BDE8104005F0C4B905F006F96B
:1013A000207006E0204605F0CFF902E0204605F067
:1013B00000F9002010BD4FF0FF3010BD2DE9F041C5
:1013C0000C46002102464F1E08464FF498554FF434
:1013D000A056102A61D2DFE802F0080B17131A1E7C
:1013E000222C3643464A574E535A05F0C4F94BE077
:1013F00014B1204604F10801BDE8F04105F0EDB854
:10140000208805F06AF83FE005F086F805E02088BE
:1014100005F04EF938E005F08EF8208034E02088A1
:10142000010A2846FFF72CFC21783046FFF728FCFC
:101430002AE03046FFF7BEFB06462846FFF7BAFB18
:1014400006EB0020E9E7164882782270C2786270C5
:101450000279A2704279E27080792071617113E0A3
:1014600005F020FA10E0204605F031FA0CE02046A5
:1014700005F0DCF908E02078BDE8F04105F04CBA51
:1014800005F004FA05E020700020BDE8F08105F0C9
:10149000F4F9C0B241B2491CF5D13846F5E7000075
:1014A00024280020FEB51E490446086810B10868CB
:1014B000401E08601B4DD4E9017328880426227859
:1014C00006EB0040002F1CD0D1F800C0E168CDF839
:1014D00008C0CDE900313B46012A1DD012A214A15B
:1014E00002F0E8FF2269002A18D028881FA106EB25
:1014F000004002F0BDFF216903B02046BDE8F04086
:10150000084709680091012A04D007A224A102F02B
:10151000BEFFE7E72CA2F9E72BA2E0E7FEBD000043
:10152000E02700201C29002065726173650000001F
:10153000466C617368202573206661696C65642060
:101540002830782578293A20616464723D25702C12
:10155000206C656E3D307825782062797465732C37
:101560002070656E64696E67202564005468697335
:10157000206F7065726174696F6E206861642061AC
:101580002063616C6C6261636B2C2063616C6C69BD
:101590006E67206261636B20746F2025702E0000DF
:1015A000466C61736820257320737563636573737C
:1015B0003A20616464723D25702C2070656E646908
:1015C0006E67202564000000777269746500000072
:1015D0000E4910B50A784C780023A24212D0521C52
:1015E000D2B20A70022A00D10B70084A0B780C3272
:1015F00052F8232002608868104420F07F40886001
:10160000012010BD0360002010BD0000F82700205D
:101610002DE9F84380461F4615460E4600240D4826
:1016200000F015FD38B11120BDE8F88306EB043059
:1016300003F0C2F8641CAC42F8D1064800F0F9FC93
:101640002B46324602214046009700F02BF800203E
:10165000EAE700000C2800202DE9F843104D0F4662
:1016600080461E4691466946286800F0B6FC040094
:1016700014D01C21FEF7C3FF01202071C4F8149080
:10168000380BC4F80080C4E902606946286800F09D
:10169000C5FC03F0EFFA0020BDE8F8830420FBE767
:1016A000A46A0F002DE9F04186B004468068DDF899
:1016B00030801D4616460F4600280CD0142168467F
:1016C000FEF79DFFCDE902658DF80070CDF8108022
:1016D000A1686846884706B0BDE8F08130B5044689
:1016E000006885B00D46806800281CD0142168462B
:1016F000FEF785FF0195A0680490207910B10128BC
:101700000DD104E001208DF80000206904E00220E2
:101710008DF80000E0680003029060690390206883
:1017200081686846884705B030BD2DE9F04142F236
:10173000086101EB401542F20871002601EB4014EC
:101740002846FFF737FA07462046FFF733FA00EB43
:10175000072007043F0C09D02846FFF72BFA06465E
:101760002046FFF727FA00EB062086B2BE42E7D1FB
:101770003046BDE8F0812DE9F04142F2080101EB6D
:10178000401542F20811002601EB40142846FFF7ED
:1017900011FA07462046FFF70DFA00EB0720070471
:1017A0003F0C09D02846FFF705FA06462046FFF70A
:1017B00001FA00EB062086B2BE42E7D13046BDE812
:1017C000F081000070B515460446082802D94FF094
:1017D000FF3070BD600108306FF004060D2970D233
:1017E000DFE801F0070C1114242D6F3D4A4E5259C9
:1017F0006300FFF7DFF900F0F00002E041F208605B
:1018000044E028704FE041F208503FE041F20830D8
:1018100000EB4410FFF7CEF9064641F2082000EB3A
:101820004410FFF7C7F906EB0020EAE740F608404E
:1018300000EB441004222946FFF7E8F933E041F2B7
:10184000081000EB4410FFF7B5F9064641F2080016
:1018500000EB4410FFF7AEF906EB002022E0FFF7A3
:10186000A9F900F00F00012825D142F6087000EB1D
:101870004410FFF79FF915E02046FFF77CFF11E0C9
:101880002046FFF752FF0DE04FF4427000EB44108A
:10189000FFF790F9B5E7FFF78DF90128F0D00A4876
:1018A00030F814002880012070BDFFF783F900F0A4
:1018B0000F00012801D0304670BD0448005DA0E74C
:1018C000FFE76FF0010070BDE435002052280020D2
:1018D00004F0ECB904F0F6B901494160002070470A
:1018E000786A0F0038B504460A4801216A46FEF7B7
:1018F0006FFD68B90848606003F018F805491C23BB
:10190000FC2208740448FC39001F006800F052FBF8
:10191000002038BDC0350020A86A0F0010B5084867
:1019200000240470204603F0B1FF06484480848000
:101930000461C4808461C4610462047010BD00004D
:10194000F43500205C2800202DE9FC5F0E00834662
:10195000DDE90C47C6F1000098469246814600D466
:101960000846012503E000BF90FBFAF06D1C5045CE
:10197000FADAA84500D9454624B1002E01DB7807E4
:1019800000D5641EB80702D5B8F1000F0AD0F807D9
:1019900008D13CB1A54205D220215846641EFFF76C
:1019A0000DFCF6E7002E02DA4E462D2102E0780704
:1019B00003D52B215846FFF701FC07F0030002284E
:1019C0000BD1B8F1000F08D13CB1A54205D23021AE
:1019D0005846641EFFF7F2FBF6E7CDE900474346A1
:1019E00052463146584604F0C7FBBDE8FC9F000054
:1019F00070B50E460446007918494FF4A27501EB04
:101A00004010017F2068A1B14FF4887103F056F8AF
:101A10004FF49071206803F051F84FF492712068F0
:101A200003F04CF82946206803F048F80C49206878
:101A300009E04FF48E7103F030F82946206803F076
:101A40002CF808492068C0F80413206801F077FEDC
:101A50003146BDE8704001F056BE00008C330020D6
:101A60001003020080000200F8B50E4604464FF451
:101A70008C7102F0B4FF00281ED00025C4F8185164
:101A8000D4F818010090B07F3446FF2801D002F04E
:101A90000BFB65770948257203210088227E01EB44
:101AA000004007A102F0E4FCD4E9002101B004F1F8
:101AB0000800BDE8F0401047F8BD00004C290020A8
:101AC0005472616E7366657220636F6D706C6574BD
:101AD00065642072785F6C656E3A25642E000000A4
:101AE00002480068002800D0012070470C28002020
:101AF0000248007A002800D001207047C03500203D
:101B00000268134602E08A4204D01268002AFAD121
:101B10000B6001607047000006490120086006481C
:101B20000168C1F300410029FAD1044900208870FE
:101B3000704700000C00004018040040543300209F
:101B40002DE9F047394E002780463D46DFF8E0900A
:101B5000D6F804A057E003D00446D0F81C8035E046
:101B600099F8002002EB4201521CD2B289F8002001
:101B700009EBC10199F80230091D9A4201D189F897
:101B8000005048680A780446012A12D0022A02D07E
:101B9000032A3BD108E004F019F900B101272574AC
:101BA00034E00574C06900E070680028F9D1706005
:101BB0002CE0207C50BB88686060C868A060086921
:101BC000E0604869A061F07800B165606268B16862
:101BD000184B501A20F07F40984202D2A168084466
:101BE00006E0881AA16820F07F40814202D9081AD5
:101BF000206000E0256065600120A560207420461B
:101C0000E56104F0C5F8B8F10000A4D199F800101E
:101C100099F801008142A3D117B97168514502D0EA
:101C20000120BDE8F0870020FBE70000F827002036
:101C3000AC330020FFFF7F0070B588B0214800F072
:101C4000FFF92048001F064600F0FAF91E4DD5E9BD
:101C5000014105E0C0F3891202EB9050641C04447A
:101C600004EA010005EB8000C0688207F2D0002082
:101C70000DF1080204EA010305EB8303641CDB6831
:101C800042F82030401C0228F4D3029800F00300F0
:101C9000012808D002280AD10298032101EB9050B4
:101CA00004EB900403E00298C0F383100444304630
:101CB000002101AAFEF73FFC002800D06C6008B0AC
:101CC00070BD0000204B00200847002038B50020E0
:101CD00002F062FC02F0C2FA1F4D03241FA1288803
:101CE00004EB004002F0C0FB10200090684602F0B8
:101CF000A3F9009A1C4900EB8200C0F8001701F01C
:101D000089FCA8B9002001F0BFFCFFF703F9174ACE
:101D100000211748FFF7EAF850B9154800224FF4A0
:101D2000F0110068FFF720F910B900F0BBFA08B114
:101D3000FFF770F802F0A0FA0028FBD14FF44050F2
:101D4000806800F00BFA28880AA104EB004002F03A
:101D50008BFB002038BD0000AC290020496E736960
:101D60006465206D61696E000C000300015D0F0069
:101D7000046A0F004166746572206D61696E00002F
:101D80002DE9F047C7880446181D16468946B0FB62
:101D9000F7F1B0FBF7F207FB12009A193A44D21C94
:101DA000B2FBF7F2DDF820A001E02468491E00290B
:101DB000FBD13D1A8846B54216D818E0BAF1000F9B
:101DC00005D0211809EB08002A46091D04E020442B
:101DD00009EB08012A46001DFEF7F8FB00202468E5
:101DE000761BA844B74201D9354600E03D46002E97
:101DF000E4D1BDE8F087000030B5024669B102F0D9
:101E0000F9FB0021084C0BE001EB410304EB8303D9
:101E100015685B88AB4202D11160002030BD491CBF
:101E20008142F1D3052030BD1C29002070B586B059
:101E30002F490020FFF79CFA17212D48FEF7DFFB02
:101E40002B490120FFF794FA04A90820FFF7B6FAFE
:101E5000284D132604AA288827A146EA004002F04C
:101E600007FB234CA07863792279E1788DE80F0095
:101E700028886378227846EA004025A102F028FBF2
:101E8000617A207ACDE900012888E379A27946EACF
:101E9000004029A102F004FB617C207CCDE9000117
:101EA0002888E37BA27B46EA004028A102F0F8FAEA
:101EB000617B207BCDE900012888E37AA27A46EA9B
:101EC000004027A102F0ECFA617D207DCDE9000100
:101ED0002888E37CA27C46EA004026A102F0E0FAD2
:101EE000288829A146EA004002F0BEFA06B070BD7B
:101EF0008C280020AC2900200D0A3D3D3D20257393
:101F0000204E455420434F4E46203D3D3D0D0A0096
:101F10004D41433A20253032583A253032583A253F
:101F20003032583A253032583A253032583A253036
:101F300032580D0A000000005349503A2025642E03
:101F400025642E25642E25640D0A00004741523A6F
:101F50002025642E25642E25642E25640D0A00009C
:101F60005355423A2025642E25642E25642E25647F
:101F70000D0A0000444E533A2025642E25642E2578
:101F8000642E25640D0A00003D3D3D3D3D3D3D3D37
:101F90003D3D3D3D3D3D3D3D3D3D3D3D3D3D0D0AD4
:101FA0000000000010B5FEF7A0F908B1002010BD38
:101FB000112010BD10B531B1B2FBF3F403FB1424B2
:101FC0001CB1092010BD0E2010BD01600021416030
:101FD00081608281C381084610BD70B50C460546FC
:101FE000FEF738F9002802D021882868084470BD1F
:101FF00010B50A8849888A4203D1FEF76DF901209D
:1020000010BD002010BD70B50C460546FEF747F91F
:10201000002802D061882868084470BD10B50A887D
:1020200049888A4203D1FEF731F9012010BD002012
:1020300010BD08B500216A46FEF789F9009808BD71
:1020400008B501216A46FEF769FA009808BD08B58F
:1020500001216A46FEF76EF908BD38B50446002531
:102060008DF800506846FEF7C3FF21686268086873
:1020700090420ED9401E08600178238AE26801FB75
:102080000325227A2168101AC0B20A79824200D24E
:1020900008719DF80000FEF7CFFF284638BD38B51F
:1020A000054600208DF800000C466846FEF7A0FFAC
:1020B000E868298A201AB0FBF1F12A681068431CED
:1020C000136001709DF80000FEF7B6FF38BD0000F8
:1020D0007CB5040016D0207A21792246401AC5B278
:1020E000208A2B4600FB05F1CDE900010C480321B5
:1020F000008801EB00400BA102F0D2F9D4E9000105
:10210000016006E00E207CBD21680868421C0A6060
:1021100005706D1EEDB2F7D22168002008717CBDFC
:1021200070290020506F6F6C202730782530385888
:102130002720696E697469616C697A656420287307
:10214000697A653A2025752078202575203D20255F
:102150007520627974657329000000002DE9F04153
:102160001B4C0746042520883A4605EB004019A180
:1021700002F07EF900F04CFE01260028208803D0F2
:1021800006EB004021A11AE005EB004028A102F077
:102190006BF94FF0E0214FF0FF30C1F88001C1F83A
:1021A000800220883A4605EB004027A102F060F942
:1021B000384613DF38B120882DA106EB0040BDE87A
:1021C000F04102F051B93846BDE8F041FEF722B8BF
:1021D000AC29002052756E6E696E67206E72665F64
:1021E000626F6F746C6F616465725F6170705F7352
:1021F00074617274207769746820616464726573B5
:10220000733A203078253038780000004661696CD8
:1022100065642072756E6E696E67206E72665F64AB
:1022200066755F6D62725F696E69745F73640000EA
:1022300044697361626C696E6720696E746572725D
:10224000757074730000000053657474696E6720C4
:10225000534420766563746F72207461626C6520EC
:10226000626173653A2030782530387800000000CC
:102270004661696C65642072756E6E696E67207365
:10228000645F736F66746465766963655F766563C2
:10229000746F725F7461626C655F626173655F73B6
:1022A0006574000070B50C4D04260CA1288806EB5F
:1022B000004002F0D9F800F057FD00280AD100F0E4
:1022C000A7FC040006D128880AA106EB004002F012
:1022D000CBF8204670BD0000AC290020496E206E6E
:1022E00072665F626F6F746C6F616465725F696E56
:1022F000697400004166746572206E72665F626F79
:102300006F746C6F616465725F696E697400000060
:1023100000F180400068002800D00120704708B517
:1023200000F18040002101600068009008BD0000BD
:1023300000283ED01F49204A096800BF00BF00BFE7
:1023400000BF00BF00BF00BF00BF91422FD000BF41
:1023500000BF00BF00BF00BF00BF00BF00BF00BF85
:1023600000BF00BF00BF00BF00BF00BF00BF00BF75
:1023700000BF00BF00BF00BF00BF00BF00BF00BF65
:1023800000BF00BF00BF00BF00BF00BF00BF00BF55
:1023900000BF00BF00BF00BF00BF00BF00BF00BF45
:1023A00000BF00BF00BF00BF00BF00BF00BF0138BB
:1023B000C3D17047042900200024F40000283ED037
:1023C0001F49204A096800BF00BF00BF00BF00BF0F
:1023D00000BF00BF00BF91422FD000BF00BF00BFB1
:1023E00000BF00BF00BF00BF00BF00BF00BF00BFF5
:1023F00000BF00BF00BF00BF00BF00BF00BF00BFE5
:1024000000BF00BF00BF00BF00BF00BF00BF00BFD4
:1024100000BF00BF00BF00BF00BF00BF00BF00BFC4
:1024200000BF00BF00BF00BF00BF00BF00BF00BFB4
:1024300000BF00BF00BF00BF00BF0138C3D170475D
:10244000042900200024F4002DE9F14FDFF8F8A062
:1024500080464FF44050DAF83010806882B0DAF8E5
:1024600024603A4F0844751A00903988042000EB24
:10247000014054464FF4805B35A101F0F5FF216B1C
:1024800001EB08004FF0010802905C46A54200D81D
:102490002C4600220121009800F078FA002818D17B
:1024A000002322460299009800F04AFB002810D130
:1024B00022460299009800F07FFC5FEA00090AD0EA
:1024C0003988029B08EB014028A1009A01F0D7FF50
:1024D0004846BDE8FE8FDAF8301000202144CAF8E3
:1024E000301001F015F800982D1B20440090029840
:1024F00020440290C9D14FF44050002280683146F8
:10250000FEF718FFDAF82820044639885546A2421B
:102510000AD1042000EB014023A101F0A5FFC5F87A
:102520002080C5E9066405E008EB01402346244904
:1025300001F0A5FF0448243000F032FCBDE8FE4F56
:10254000002000F0E5BF00007C310020AC29002015
:10255000456E746572206E72665F6466755F617049
:10256000705F636F6E74696E75650000496E7661A9
:102570006C6964206461746120647572696E67209F
:10258000636F6D706172653A207461726765743A49
:10259000203078253038782C207372633A203078D8
:1025A000253038780000000053657474696E672028
:1025B0006170702061732076616C696400000000B6
:1025C0007C6D0F0070B5164C042516A1208805EB14
:1025D000004001F049FF1A4E306A012804D02088DB
:1025E00018A105EB00400FE0F06988B14FF44050AE
:1025F000B16980680022FEF79DFEF169814207D033
:10260000208818A105EB004001F02EFF002070BDCE
:10261000208819A105EB004001F026FF012070BDC4
:10262000AC290020456E746572206E72665F646628
:10263000755F6170705F69735F76616C69640000DB
:102640007C31002052657475726E2066616C736512
:1026500020696E2076616C69642061707020636807
:1026600065636B0052657475726E2066616C73658C
:1026700020696E204352430052657475726E207457
:102680007275652E20417070207761732076616CC1
:10269000696400002DE9F84380460F4608681F4929
:1026A0001F4C0425496B4346461A009620881D4A54
:1026B00005EB00401CA101F0EAFE324641461948F4
:1026C00000F07AFB0028208805EB004014D0334648
:1026D000424623A101F0D3FE3146404600F07AFB8A
:1026E000050006D02088012101EB00402BA101F05C
:1026F000BBFE2846BDE8F8832FA101F0B5FE3846A1
:1027000000F04EFB208832A105EB004001F0ACFE4A
:10271000394800F0FDFE0546EBE700007C31002063
:10272000AC29002000000F00566572696679696E59
:102730006720424C3A20416464723A203078253058
:1027400038782C205372633A203078253038782C32
:10275000204C656E3A203078253038780000000033
:10276000426F6F746C6F61646572206E6F74207657
:10277000657269666965642C20636F7079696E673C
:102780003A205372633A203078253038782C204C28
:10279000656E3A20307825303878000052657175C2
:1027A00065737420746F20636F707920424C2066CB
:1027B00061696C6564000000426F6F746C6F6164E6
:1027C0006572207761732076657269666965640059
:1027D00057726974696E672073657474696E677384
:1027E00020616E64207265736574696E672064652C
:1027F000766963652E00000091530F0070B50546A1
:102800004FF44050042184680D48008801EB0040DB
:102810000CA101F029FE114901F118000A69012AF1
:1028200008D04A6932B189690C3001F6FF716FF343
:102830000B010C442A462146BDE8704000F010B858
:10284000AC290020456E746572206E72665F646606
:10285000755F636F6E74696E756500007C31002072
:102860002DE9F04188462049164607468268042033
:102870000988002400EB0140012A0ED00125A52A79
:1028800017D0AA2A1DD0AC2A23D005EB014017A1EE
:1028900001F0EAFD2046BDE8F0811AA101F0E4FD57
:1028A0001B4840690128F5D14046FFF7CDFD04469D
:1028B000F0E718A101F0D8FD3946404600F040FB92
:1028C0000EE017A101F0D0FD39464046FFF7E2FEC9
:1028D000EDE716A101F0C8FD3946404600F0D4FAF4
:1028E00004463560D6E70000AC29002053696E67C6
:1028F0006C653A20496E76616C69642062616E6B2A
:102900000000000056616C69642041707000000096
:102910007C31002056616C69642053440000000043
:1029200056616C696420424C0000000056616C697D
:1029300064205344202B20424C000000114910B564
:102940000A680020AA2A07D00A68BB2A06D00E49C6
:102950008A6D012A0DD010BD086011E008604FF0AB
:10296000A04000BFD0F81015090C11F0010FF9D1EB
:1029700006E08865002000F0CBFD08B1FEF74AFABA
:10298000012010BD1C0500407C310020F8B5054633
:1029900011480C4617460168491C016000680F4E3B
:1029A000009004213088234601EB00402A460CA108
:1029B00001F06DFD3B4622462946194801F00AFA0E
:1029C000040007D03088022101EB0040224615A107
:1029D00001F04EFD2046F8BDE02700201C29002014
:1029E0006E72665F6673746F726167655F65726150
:1029F000736528616464723D307825702C206C65A5
:102A00006E3D2564207061676573292C20717565A2
:102A100075652075736167653A20256400000000C4
:102A2000082900206E72665F6673746F7261676555
:102A30005F65726173652829206661696C65642031
:102A400077697468206572726F7220307825782EED
:102A50000000000070B5060001D00FA200E010A237
:102A6000114C042511A1208805EB004001F000FD68
:102A7000208805EB004026B11AA101F0F5FC23499E
:102A800003E023A101F0F0FC2B49BDE870400022D7
:102A90002A4801F0C6B90000747275650000000094
:102AA00066616C73650000001C29002043616C6C3A
:102AB000696E67206E72665F6466755F666C6173CF
:102AC000685F696E69742873645F6972715F696EAB
:102AD000697469616C697A65643D2573292E2E2EAF
:102AE00000000000496E697469616C697A696E67FB
:102AF000206E72665F6673746F726167655F736480
:102B0000206261636B656E642E000000B46A0F0082
:102B1000496E697469616C697A696E67206E726664
:102B20005F6673746F726167655F6E766D63206256
:102B300061636B656E642E00846A0F0008290020B3
:102B40002DE9F8430446134888461E460168174697
:102B5000491C01600068104D00900421288813462C
:102B600001EB004022460DA101F091FC3B4642469C
:102B700021461A48009601F0C9F9040007D02888B8
:102B8000022101EB0040224615A101F071FC204614
:102B9000BDE8F883E02700201C2900206E72665FE4
:102BA0006673746F726167655F77726974652861B7
:102BB0006464723D25702C206C656E3D30782578FC
:102BC000206279746573292C20717565756520758F
:102BD000736167653A202564000000000829002021
:102BE0006E72665F6673746F726167655F77726934
:102BF00074652829206661696C656420776974684A
:102C0000206572726F7220307825782E00000000E7
:102C1000F8B52A4C002000902088032505EB0040E1
:102C200027A101F021FC002000F0BEFB6846FFF761
:102C3000E5FD012630B1208827A105EB004001F019
:102C400013FC0096FFF77AFE30B120882DA105EB2A
:102C5000004001F009FC00964FF440560099B0681E
:102C600011B90068401C0FD120882FA105EB00404E
:102C700001F0FAFB03F0DAFA2F490220FDF7B6FE65
:102C800002F022FEFEF7F2F9FFF79CFC68B1208803
:102C90002AA105EB0040B26801F0EAFB01F0ECFA72
:102CA0000028FBD1B068FFF759FA208828A105EB6E
:102CB000004001F0D9FB0020F8BD0000AC29002045
:102CC000496E207265616C206E72665F6466755F26
:102CD000696E697400000000436F756C64206E6F4C
:102CE0007420636F6E74696E756520444655206F5D
:102CF0007065726174696F6E3A203078253038786B
:102D0000000000004170706C69636174696F6E202F
:102D100073656E7420626F6F746C6F61646572208E
:102D20007265717565737400456E74657220426FCB
:102D30006F74204D6F646500D82900204A756D704E
:102D4000696E6720746F3A2030782530387800003B
:102D50004166746572207265616C206E72665F6494
:102D600066755F696E697400054810B500880421B6
:102D700001EB004003A101F077FB002010BD000033
:102D8000AC290020696E207765616B206E72665FEA
:102D90006466755F696E69745F75736572000000C3
:102DA000002101604160816002480163416301616B
:102DB000416170477C3100201FB5054B01AC920882
:102DC0001B6A009384E80700684618DF04B010BD52
:102DD000086A0F001FB58908002201AB009283E842
:102DE0000700684618DF04B010BD00001FB5920848
:102DF000930502D0092004B010BD044B1B6800935A
:102E00000392CDE90110684618DFF4E7086A0F0065
:102E10001FB5044B0FCB8DE80F00684618DF04B0D8
:102E200010BD0000186A0F000A480421008801EB59
:102E3000004009A101F018FBBFF34F8F1048016853
:102E4000104A01F4E06111430160BFF34F8F00BFEE
:102E5000FDE70000AC2900204446552072657365EB
:102E6000742064756520746F20696E61637469767F
:102E70006974792074696D656F75742E00000000A7
:102E80000CED00E00400FA052DE9F047164D04466C
:102E900089462888042101EB004014A101F0E4FADE
:102EA0001A4FB86C00B104464946204600F096F827
:102EB00006004FF0010808D0298808EB014014A152
:102EC00001F0D2FA3046BDE8F087786B49462044DD
:102ED000FFF7E0FB0400F6D0298808EB014012A1BF
:102EE00001F0C2FA2046EEE7AC290020456E746579
:102EF00072206E72665F6466755F73645F626C5F9A
:102F0000636F6E74696E7565000000007C3100208F
:102F100053442B424C3A20534420636F707920660F
:102F200061696C656400000053442B424C3A2042B6
:102F30004C20636F7079206661696C6564000000E5
:102F400070B50D461049896C01B10846294600F05C
:102F500045F80E4E040008D03088012101EB0040F6
:102F60000BA101F081FA204670BD2846FFF718FF3B
:102F70003088042101EB00400DA101F075FABDE895
:102F80007040154800F0C4BA7C310020AC29002004
:102F900053442075706461746520636F6E74696E4C
:102FA000756174696F6E206661696C65640000000C
:102FB00057726974696E672073657474696E67739C
:102FC00020616E64207265736574696E6720646544
:102FD000766963652E00000091530F002DE9FE4FC6
:102FE000DFF880810646DFF880A1D8F83000D8F8F5
:102FF000341000F58055081A00F6FF70070B3F03E8
:1030000040F6FF7000EB9700040BBAF800104FF089
:10301000040909EB0140240354A101F025FAD8F872
:103020003000D8F83410064459B1884209D1BAF8B2
:10303000001009EB014057A101F016FA0020BDE88D
:10304000FE8FE8B906F500500178142901D94169CD
:1030500000E000215448B1FBF0F34FF440510A78EE
:10306000142A01D9496900E00021B1FBF0F2BAF855
:10307000001009EB01404DA101F001FA39488664C6
:10308000D346BC4203D907F6FF70040B240305EBBB
:10309000040A0095CDE901A4BBF8001004203319FF
:1030A00000EB0140994632464BA101F003FA22465B
:1030B00031462846FFF79AFE5FEA000809D00094DF
:1030C000BBF80010012000EB014033462A4650A116
:1030D0001DE00095CDE901A4BBF80010042000EB31
:1030E00001404B463246594901F0E4F92246314647
:1030F0002846FFF761FE5FEA00080CD00094BBF899
:103100000010012000EB014033462A4650A101F097
:10311000BEF9404693E70095CDE901A4BBF8001045
:103120004FF0040808EB01404B46324658A101F02D
:10313000C1F955464E46BC4201D9002700E03F1B6D
:10314000BBF8001008EB01405FA101F08DF90548C4
:10315000416BC91B0163002000F0DAF9002F90D108
:103160006DE700007C310020AC290020456E7465BD
:1031700072206E72665F626F6F746C6F61646572ED
:103180005F6466755F73645F636F6E74696E7565A7
:1031900000000000534420616C7265616479206313
:1031A0006F70696564000000A0860100557064615D
:1031B00074696E672053442E204F6C642053442062
:1031C0007665723A2025642C204E657720766572EC
:1031D0003A20256400000000436F7079696E672013
:1031E0005B3078253038782D3078253038785D2080
:1031F000746F205B3078253038782D307825303862
:10320000785D3A204C656E3A203078253038780069
:103210004661696C656420746F20636F7079205318
:10322000443A207461726765743A203078253038EA
:10323000782C207372633A203078253038782C202F
:103240006C656E3A2030782530387800C46D0F00F8
:103250004661696C656420746F20436F6D706172A4
:10326000652053443A207461726765743A2030785F
:10327000253038782C207372633A20307825303826
:10328000782C206C656E3A20307825303878000034
:1032900056616C69646174656420307825303878D3
:1032A0002D30782530387820746F203078253038EC
:1032B000782D3078253038783A2053697A653A206D
:1032C000307825303878000046696E697368656427
:1032D0002077697468207468652053442075706491
:1032E0006174652E0000000038B105490160054990
:1032F000416001210172002070470E2070470000DC
:1033000009330F003B330F0030B40246112039B1AE
:103310000B78052B05D2DFE803F00E060C0E0E002D
:103320000E2030BC70470220087030BC104600F000
:1033300017B81120F5E70820F3E70246112041B144
:103340000B78022B04D1022A05D0032A00D10820D1
:1033500070470E207047002003220A70704700005B
:1033600070B50C4D0400D5F89C0105F5CE7503D061
:10337000401C03D0082070BD0E2070BD0022182113
:10338000201DFDF7D7FF206007222146284629DFB0
:1033900070BD000000F00F00002258210148FDF729
:1033A000C9BF0000803100202DE9F041050001D0A7
:1033B00024A200E025A2274C042727A1208807EBA0
:1033C000004001F055F82846FFF744FB05004FF098
:1033D000010609D020882A4606EB00402CA101F006
:1033E00047F82846FDF716FD4FF4DC78424633498E
:1033F0003348FDF7EBF8324D2868401C04D0FFF746
:10340000CBFF296881421BD020882EA107EB00400A
:1034100001F02AF841462A48FDF7F1F800206E60D5
:1034200000F076F805000BD020882A4606EB004015
:103430002CA101F01DF82846BDE8F041FDF7EABCDB
:10344000BDE8F081747275650000000066616C7300
:10345000650000003429002052756E6E696E672089
:103460006E72665F6466755F73657474696E6773A8
:103470005F696E69742873645F6972715F696E69F0
:103480007469616C697A65643D2573292E000000BA
:103490006E72665F6466755F666C6173685F696EA5
:1034A00069742829206661696C656420776974688D
:1034B000206572726F723A202578000000F00F00CC
:1034C0007C310020526573657474696E6720626F89
:1034D0006F746C6F616465722073657474696E6774
:1034E000732E00006E72665F6466755F666C617352
:1034F000685F77726974652829206661696C656404
:103500002077697468206572726F723A202578009E
:103510002DE9F0411B4C0546042620881AA106EB34
:10352000004000F0A1FF20881C4A06EB00401CA1CF
:1035300000F09EFF002201211848FFF727FA01261C
:1035400020B120881EA106EB004016E0FFF724FF03
:1035500024494FF4DC773A460860A1F5DC70FDF7AA
:1035600035F82B463A4620490C48FFF7E9FA00287F
:1035700006D020881DA106EB004000F075FF032057
:10358000BDE8F0813429002057726974696E6720A4
:1035900073657474696E67732E2E2E0000F00F0031
:1035A00045726173696E67206F6C64207365747413
:1035B000696E67732061743A20307825303878005E
:1035C000436F756C64206E6F742065726173652043
:1035D0007468652073657474696E677320706167C1
:1035E000652100007C310020C42F0020436F756CE2
:1035F00064206E6F7420777269746520746865202A
:103600004446552073657474696E677320706167F2
:103610006521000070B50F4C0025207808B1852584
:1036200016E00021A16061602161E1604FF0E020BF
:10363000D0F80001012610F0010F03D1072100206E
:1036400000F061F801F072F908B9034806602670CD
:10365000284670BD543300201805004008B50020EE
:103660008DF800006846FDF7C3FC0648C168491E96
:10367000C160C06808B9FEF74FFA9DF80000FDF779
:10368000DBFC08BD54330020F8B5174D0446A8787C
:10369000002648B114B16168012088478DF80060A8
:1036A0006846FDF7A5FC17E08DF800606846FDF759
:1036B0009FFC24B10C4821461030FEF721FAE8683F
:1036C00050B94FF48270FEF72AFE02204107C1F87C
:1036D0000403064901200860E868401CE8609DF882
:1036E0000000FDF7A9FCF8BD54330020080000409D
:1036F00000F01F02012191404009800000F1E0200C
:10370000C0F8801170474907090E002806DA00F05A
:103710000F0202F1E02282F8141D03E000F1E02222
:1037200082F8001400F01F0201219140400980003E
:1037300000F1E020C0F88012C0F800117047000BC3
:1037400040B270470121B1EB507F01D10120704799
:10375000002070470121B1EB507F01D1012070475B
:10376000002070472DE9FC5F074640790C46DFF8E2
:1037700044A100EBC0010AEB8106DFF83CB1307FC9
:1037800050B10824204601F04BF90346BBF8000075
:10379000022101EB004086E0C6E90023207B0128DE
:1037A000207802D800F03DFC01E000F07DFC4FF0F5
:1037B0000009CDF80090CDF8049020784B464A4699
:1037C000012100F0D6FB60784FF0FF35FF2806D0CE
:1037D000804600F026FC404600F00FFC00E0A846C2
:1037E000A078FF2809D0002205460123CDF80090DB
:1037F0001146CDF8049000F0BCFBE078FF2804D01F
:1038000000F052FCE07800F0F8FB7879E17800EB0A
:10381000C0020AEB8200817738682278C0F8082558
:10382000C0F80C85C0F81055A168C0F82415227B9B
:10383000617B01B10121012A04D0022A05D0032AAB
:1038400008D105E041F0020104E041F0040101E08B
:1038500041F00601C0F854156179C0F8C01531680F
:1038600011B14021C0F804130721C0F800153068D9
:1038700020B1217997F90400FFF745FF4C4686F8FF
:103880001D9001203077BBF8000003265D4606EB53
:1038900000400AA100F0E8FD204601F0C1F803460F
:1038A000288806EB0040074A07A100F0E8FD204603
:1038B000BDE8FC9F683300204C290020496E6974E4
:1038C000000000004C6A0F0046756E6374696F6EED
:1038D0003A2025732C206572726F7220636F6465C5
:1038E0003A2025732E0000007FB505460B48089C42
:1038F000029300918DF804208DF80C40008803217C
:1039000001EB0040234606A100F0B9FD0022694604
:10391000284600F015F804B070BD00004C290020C6
:103920005472616E736665722074785F6C656E3A6E
:1039300025642C2072785F6C656E3A25642E000039
:103940002DE9F04105460F4640791C4900EBC000C7
:1039500001EB80041646607F80B11124204601F0FF
:103960005FF8034616480221164A008801EB004022
:1039700015A100F084FD2046BDE8F081206820B14B
:1039800016F0140F01D10120607797E80F0004F1C1
:103990000C0888E80F0094F8210020F0070084F854
:1039A0002100A07FFF2801D000F03BFB33463A46C0
:1039B00021462868BDE8F04102F0ACB86833002029
:1039C0004C290020676A0F0046756E6374696F6E3C
:1039D0003A2025732C206572726F7220636F6465C4
:1039E0003A2025732E0000002DE9F04105460079AC
:1039F000164F904607EB40140E46E07E10B10820AB
:103A0000BDE8F081707F20772846FDF74FFB5FEA25
:103A1000080060603169216003D0317F2846FDF7DE
:103A2000E7FF287907EB4010007F0028286801D0C5
:103A3000082100E00421C0F800150020E075207680
:103A4000A0750121E176A076DAE700008C33002032
:103A50002DE9F047054600793F4E904606EB4014AD
:103A60000F46207F18B10846FFF774FE30B1284694
:103A700000F074F820B11120BDE8F0871020FBE7BA
:103A800084F81680A7600027A78228794FF00108E4
:103A900006EB40143E46207F0028286825D04FF4CE
:103AA0009079494601F00AF84FF4AC7A51462868FB
:103AB00001F004F82868A17DA268C0F84425C0F888
:103AC00048152868C0F808806068F0B94946286839
:103AD00000F0EFFF80465146286800F0EAFF58EA00
:103AE0000001F3D058BBA7750FE04FF48E7A514612
:103AF00000F0D3FF2868C0F808802146286802F04B
:103B0000CFF961684FF4807089B13046B4E751460F
:103B1000286800F0BDFF10B9A08A4845F7D1A08AF7
:103B2000484505D02146286802F0BAF900E08146F0
:103B3000A08AA17D8842EAD3A08A484501D10F26F8
:103B4000D1E75146286800F0A3FF0028F9D0286883
:103B5000C0F80C80C7E700008C33002000790449CE
:103B600001EB4010807D002800D00120704700004C
:103B70008C33002070B5044600791149002601EB12
:103B8000401520682A7FC0F80065686888B12079F0
:103B900001EB4010007F0028206801D0094901E0B6
:103BA00008498C39C0F808132068FFF7C8FDFFF7F3
:103BB0009FFD204600F08CFFEE766E6070BD000029
:103BC0008C330020100302000FB408B503990029BC
:103BD00004D004AA00926A4600F00FF801B05DF824
:103BE00014FB10B582680446002A05D0D4E904030A
:103BF000216898470020A06010BD2DE9FC47914640
:103C00000C00804676D014F8011B39B125290ED05E
:103C10004046FDF7D3FA20780028F4D198F80C003C
:103C2000002867D04046BDE8FC47FFF7DABF002018
:103C3000012221782B291BD02D2902D0302908D12F
:103C400002E040F0010001E040F00200641C002AA4
:103C5000EFD100252A290ED02178A1F130020A2ABD
:103C600011D205EB850201EB4205641C303DF1E702
:103C700040F00400EAE7D9F800100B1DC9F8003045
:103C80000968641C0D44217800232E290BD114F8F7
:103C9000011FA1F130020A2A05D203EB830201EBD6
:103CA0004203303BF3E76C290DD068290BD069291A
:103CB00021D00BDC252918D0582931D063290ED00A
:103CC000642915D117E014F8011FECE7702969D0B9
:103CD000732932D075291BD0782909D120E0D9F871
:103CE0000000011DC9F8001001784046FDF766FA92
:103CF000641C90E76CE0D9F800100A1DC9F8002098
:103D00000968CDE900500A224046FDF71DFEEFE7A5
:103D1000D9F800100A1DC9F8002009680A2206E037
:103D2000D9F800100A1DC9F8002009681022CDE951
:103D30000050404602F020FADAE7D9F800100027D8
:103D40000A1DC9F800200E68C00705D112E04046E0
:103D5000761C7F1CFDF732FA31780029F7D104E098
:103D6000202140466D1EFDF729FABD42C0D9002D25
:103D7000F6D1BDE74EB13046FCF74CFC074604E0F7
:103D8000202140466D1EFDF719FABD4206D9002DCF
:103D9000F6D103E04046761CFDF710FA3178002991
:103DA000F8D1A5E7D9F80000011DC9F80010056891
:103DB00030214046FDF702FA78214046FDF7FEF932
:103DC00008200021CDE90001034610222946B0E772
:103DD000BDE8FC872DE9F0411F46154604000E465C
:103DE00016D02068B8B1C5B160680268501E304274
:103DF00015D16A432046FCF7D3FF80B120683B46CB
:103E00002A46D0F810C031462046BDE8F041604750
:103E10000E20BDE8F0810820FBE70920F9E710201B
:103E2000F7E720B119B101600B68114618470E2061
:103E300070470000044801214174007A08B1002055
:103E40007047012070470000C0350020012801D0D4
:103E5000032808D10449002201284A7400D0002018
:103E6000087400F0BDBE7047C035002070B5244C0A
:103E70000246207A012835D002283FD1214800236C
:103E8000022A006802D0032A2CD119E0E3600179EC
:103E900011B1012926D10BE0D0E90565711B142968
:103EA00000D31421294481614569A9420ED019E04B
:103EB0000169491C01614269914213D1237217E0E3
:103EC000E168491CE16008290CD9E3602372022AE9
:103ED0000ED00D21FDF702FC0B480A49091D0068B0
:103EE000FEF786F8607C28B1BDE8704000F024BD84
:103EF0000021EFE7BDE8704000F072BE70BD000029
:103F0000C035002010280020A46A0F002DE9F843D6
:103F10001D46089F1646884604000DD066B12068ED
:103F200060B135B160684068B5FBF0F100FB11503D
:103F300030B10920BDE8F8830E20FBE70820F9E73F
:103F40004046FCF727FF90B13046FCF723FF70B1E5
:103F50002A4641462046FCF723FF40B100972068DF
:103F60002B463246C76841462046B847E2E7102054
:103F7000E0E72DE9FF411C46DDE90A7815460E46CB
:103F8000684600F067F846EA450141EA840141EAE3
:103F9000072242EA0841009A00EB8200C0F80017AD
:103FA000BDE8FF812DE9FF411C46DDE90A78154691
:103FB0000E46684600F05CF846EA450141EA840195
:103FC00041EA072242EA0841009A00EB8200C0F869
:103FD0000017BDE8FF811CB5002100910B460122AE
:103FE0000191FFF7DFFF1CBD1CB500220B460092BC
:103FF00011460192FFF7D6FF1CBD1CB500210091B0
:104000000B46012201911146FFF7B3FF1CBD1CB501
:10401000002100910B46012201911146FFF7C2FFDA
:104020001CBD01B5684600F015F8009A01219140C9
:10403000C0F80C1508BD00000168202902D24FF01D
:10404000A040704701F01F01016001487047000067
:10405000000300500168202902D24FF0A0407047B1
:1040600001F01F010160014870470000000300508B
:104070000168202902D24FF0A040704701F01F01D3
:1040800001600148704700000003005001682029CA
:1040900002D24FF0A040704701F01F0101600148BB
:1040A000704700000003005001B56846FFF7D2FFDB
:1040B000009A01219140C0F8081508BD01B5684675
:1040C000FFF7D6FF009A01219140C0F8081508BDFE
:1040D00030B5124B01460020D3F81044224609E0C7
:1040E000157A854205D1401C0A28F7DB4FF0FF30D6
:1040F00030BD5268002AF3D1421CF9D00872D3F8BF
:1041000010242AB152684A60D3F81024516030BD9F
:104110000022C3F810144A6030BD00000847002098
:10412000F0B595B01C4615460F4608461A9E00F09D
:104130001DFB182109A8FCF762FA0E96CDE9095477
:104140000023082203A9384600F02AFB05980690B0
:104150000498ADF81C0000208DF820000398082674
:1041600000F00300012802D002281DD03CE0039893
:104170003346850AC0F3C2008DF81E0003980FA9CC
:10418000C0F380008DF81F000398C0F38314A200D1
:10419000384600F005FB09A8009006AB22460FA99F
:1041A000284600F03FFA1FE00398840DC0F3C200D8
:1041B0008DF81E000398C0F380008DF81F00082CB6
:1041C00001D2254600E0082533462A460FA9384685
:1041D00000F0E6FA2E44641B09AB06AA29460FA894
:1041E00000F084F9002CEAD1384600F0C8FA15B086
:1041F000F0BD7047012001F077BE000010B5044803
:10420000FFF7B8FCBDE81040002001F06DBE0000D3
:10421000A828002008B5034A00924023024AFFF76D
:104220007FFF08BD65580F00084600200A4A012993
:1042300002EBC00007D0022907D0032907D00429C8
:1042400007D0002070470220704704207047007993
:10425000704740797047000034720F0010B5FFF7C7
:10426000C9FF04210348FFF733FF024901204872C8
:1042700010BD0000B02800202DE9F04F8DB0FCF7F4
:10428000ADFF18B100200DB0BDE8F08F74480021DB
:10429000C0F81814BFF34F8FD0E9014604EA0601B5
:1042A00000EB81014FF000090AE000BFC1F3891261
:1042B00002EB9151641C0C4404EA060100EB8101FD
:1042C000C9688A07F2D0002103AA804604EA0600E2
:1042D00008EB8000641CC06842F82100491C43467A
:1042E0000229F3D3039800F00300022806D0012826
:1042F00003984FD0C04380077ED0ACE00398502293
:10430000810D8A46B2EB905F00D850210D4665F3CF
:104310009F5003900831534800F0DFF907006CD03C
:1043200000F024FA4B46082203A9384600F03EFA72
:1043300004EA0601701A8000001D09F1080B85428D
:1043400021D9474E0C3630B1C2B208EB8101281A90
:1043500091460C3104E03146EAB2002691463046DF
:10436000C5B25B46384600F021FA0BEB09032EB1CB
:104370002A4631464FEA070000F018FA0AF1030016
:1043800004EB90043BE008EB81015B462A4638468B
:104390000C31F1E7C0F38310062800D306200399FF
:1043A00060F38911C1F38310801C039181002D48B3
:1043B00000F093F907004ED000F0D8F94B460822E0
:1043C00003A9384600F0F2F909F1080900250DE0CB
:1043D00004EA060008EB80014B46042238460C3103
:1043E000641C00F0E3F909F104096D1C0398C0F3A3
:1043F0008310A842ECD801E00BE02CE05FB3D8F8C2
:104400001054D8F81804464690B1384600F0B7F971
:1044100021E0D3F8180400283FF435AF1BE0687A98
:10442000012804D1296828460A68394690476D68F2
:10443000002DF4D1384600F0A2F900208DF80000DC
:104440006846FCF7D5FDD6F8180400B974609DF8ED
:104450000000FCF7F1FDFCF7C1FE80F0010012E75F
:1044600008470020E06C0F0000231A4601F0D6BB7D
:1044700008B5012300926A4601F0D0FB08BD1CB5C7
:10448000CDE9002302236A4601F0C8FB1CBD3EB5FE
:10449000069C8DE81C0003236A4601F0BFFB3EBD6D
:1044A0007FB5DDE908458DE83C0004236A4601F04C
:1044B000B5FB7FBD70B586B00DF1280C9CE870008F
:1044C0008DE87C0005236A4601F0A8FB06B070BDAC
:1044D000F0B587B00DF1300C9CE8F0008DE8FC00E1
:1044E00006236A4601F09AFB07B0F0BD2DE9F047BC
:1044F0000E4680461C46924608293ED894F80C90F9
:10450000002020731946104600F03CFB0025B54200
:1045100006D218F805201AA12046FFF755FB03E044
:1045200019A12046FFF750FB6D1C082DEFD317A1F2
:104530002046FFF749FB0025B54210D218F8057058
:10454000FCF740F80068C05D10F03E0F01D03A461D
:1045500000E02E220EA12046FFF736FB03E00DA15E
:104560002046FFF731FB6D1C082DE5D301222146C3
:10457000504600F0E9FA84F80C90BDE8F08700009E
:104580002025303278000000202020007C00000030
:104590002563000020000000114810B5FF21816054
:1045A000002101604160C0F81814C0F8141480F8AC
:1045B0001C140C4800F0E1F800280FD10A480B4900
:1045C0000B4B401AC108002005E000BF00EB400281
:1045D00023F82200401C8842F8D3002010BD0000C0
:1045E00008470020E06C0F009C720F0034720F002F
:1045F0001C29002002480349401AC00870470000E7
:104600009C720F0034720F0013B56846FDF7F4FB7F
:1046100008B100201CBD0248009950F831001CBDB3
:1046200034720F002DE9FF4781460C9D00200C4697
:104630002F7B2873984616462946184600F0A2FAA2
:10464000072E42D2DFE806F004090F161F2A3600B3
:1046500049462846FFF7B8FA37E049462846226817
:10466000FFF7B2FA31E0D4E9002349462846FFF7C4
:10467000ABFA2AE0A0680090D4E900234946284616
:10468000FFF7A2FA21E0D4E90201CDE90001D4E963
:10469000002349462846FFF797FA16E004F1080080
:1046A00007C88DE80700D4E9002349462846FFF7EC
:1046B0008BFA0AE004F108000FC88DE80F00D4E976
:1046C000002349462846FFF77FFA00222946404644
:1046D00000F03AFA2F73BDE8FF872DE9F041058A13
:1046E00080462D1F4819C01CB0FBF5F0C6B24046ED
:1046F000FDF7B3FC041E19D0002020710120607169
:10470000E58000272546761EC4F800800BE0404671
:10471000FDF7A3FC60B16179491C61712860054611
:104720007F1CC0F80080B742F1D32046BDE8F0817D
:10473000204600F002F80020F8E72DE9F041457925
:1047400001466B1E002201E00968521C9A42FBD30D
:104750000F680146002605E038460C68FDF79FFC0F
:104760002146761CAE42F7D3BDE8F08108B50121A1
:104770006A46001DFBF7A1FE08BDFDF7A9BC38B5D0
:104780000446001D01216A46FBF7A4FE009810F0C4
:10479000FF0F04D12046BDE83840FFF7CEBF38BD3B
:1047A00038B501240094FDF7EBFA38BD38B5002484
:1047B0000094FDF7E5FA38BD094902220A60BFF30B
:1047C0006F8FBFF34F8F0A1D106006480268002AE2
:1047D000FCD000200860BFF36F8FBFF34F8F70478E
:1047E00004E5014000E4014070B50E4C0123236054
:1047F000BFF36F8FBFF34F8F00230B4D08E000BF57
:1048000051F8236040F823602E68002EFCD05B1C1A
:104810009342F5D300202060BFF36F8FBFF34F8F1B
:1048200070BD000004E5014000E4014030B593B0E4
:104830005FF03805ADF8445011A903A861DF30B12D
:10484000052816D013B0BDE83040FCF7E3BA03AC3E
:104850000949684600F09CF807E000BFD0E9002154
:1048600020469047684600F0AAF802980028E1D058
:10487000F4E713B030BD0000646C0F0010B50D4CB0
:104880002078A0B10120A07000F02CFE11280CD0DF
:10489000022000F03FFE11DF002807D12070A07039
:1048A00001F0BCF8032000F035FE002010BD082008
:1048B00010BD00001828002038B5104C207808B131
:1048C000082038BD0125A570002000F00BFE11283E
:1048D00012D0002000F01EFE09480A49006800902E
:1048E000684610DF0028ECD12570A070607001F0E0
:1048F000B1F8012000F00EFE002038BD182800207D
:10490000F86B0F00B90D0F000EB50749684600F0AF
:104910003FF805E0D0E900108847684600F04FF8FE
:1049200002980028F6D10EBD146C0F0001480078E3
:1049300070470000182800200548817819B10078D8
:1049400018B1FFF79BBF08207047FFF7B5BF000005
:10495000182800201FB5684648DF30B1052814D05C
:1049600004B0BDE81040FCF755BA084901A800F0B2
:104970000FF806E0D0E900210098904701A800F068
:104980001EF803980028E6D0F4E71FBD806C0F00E6
:10499000016009684160AFF3008010B5D0E90021E3
:1049A0005368994201D1002104E0D1E90034A342C7
:1049B00002D01946816010BD08314160F0E781687E
:1049C00000290BD0026892680A44826041684B68F3
:1049D0009A4203D108314160FFF7DFBF704740586A
:1049E000002800D0012070470C4A10B502F1F003F6
:1049F0000EE0991AC91001EBD171491002EBC10107
:104A00000C68844201D90B4602E005D201F108028C
:104A10009A42EED3002010BD486810BDE86A0F002E
:104A200000B5FFF7E1FF002800D1014800BD0000FC
:104A3000D46A0F002DE9F04104461348134BC01A05
:104A40000C21B0FBF1F6A0694FF0FF3110F8022CF9
:104A500002B92169002011E000EB400503EB850558
:104A60002F68974209D14F1C02D06F688F4204D142
:104A700094E80F00AD68A84703E0401CB042EBD3B8
:104A800001202060BDE8F081E0720F00D4720F00B9
:104A90004058002800D00120704708B5002242503D
:104AA0004058009008BDD0F80403084000D0012011
:104AB00070474058002800D00120704708B50022F8
:104AC00042504058009008BD01F0F0B801F0FAB82B
:104AD00070B5034600791B4901EB40101968027F4D
:104AE0004FF0FF30002AD1F80C25D1F81465D1F829
:104AF0000855D1F8104504D0C1F80C05C1F81405CB
:104B000003E0C1F81405C1F80C051968C1F80805DF
:104B1000C1F81005501C02D01046FFF75CFA701C5B
:104B200002D03046FFF757FA601C02D02046FFF74C
:104B300052FA681C04D02846BDE87040FFF74BBA13
:104B400070BD00008C33002010B50C46C17949B10E
:104B50001AB109A12046FFF737F82046BDE81040FA
:104B6000FFF73FB8007A0028F3D0044804A1026898
:104B70002046FFF729F8ECE70D0A0000E0280020A6
:104B80002573000070B50446C0790D4600281CD17D
:104B9000207A50B1A179A088FFF748FB0B4951F862
:104BA00020200BA12846FFF70FF8A0880021FFF76F
:104BB0002BFD03460549A079143951F820202846D9
:104BC000BDE8704003A1FEF7FFBF70BDE0280020E4
:104BD000257300003C25733E2025733A2000000019
:104BE0002DE9F041204C0025204E207A012730B9D4
:104BF0001F48311D0068FDF706FA306038B1022009
:104C000020723168087928B101281CD114E0656050
:104C1000BDE8F081D1E90503C01A142800D314209F
:104C2000B7EB900F01D2820800E001220869C96841
:104C30001844194429DF03E0D1E90301084428DFBF
:104C400038B111280ED003213068FCF747FD2572DA
:104C5000DDE7207C0028DBD1BDE8F0410021022007
:104C6000FFF704B92772D3E7C035002010280020D1
:104C7000A46A0F0038B5084C0121201D6A46FBF7D5
:104C80009BFB0090002806D1607C002803D1BDE882
:104C90003840FFF7A5BF38BDC035002010B510461D
:104CA0001A46FBF793FC002010BD10B510461A46BB
:104CB000FBF78CFC002010BD2DE9F05F04460E468A
:104CC0000088FFF703FF20806088FFF7FFFEDFF812
:104CD000288183B26380B8F80000042101EB004012
:104CE000228846A1FFF7CBFB4F4DDFF840B1371FBD
:104CF00028694FF4405A4FF40079012803D0032863
:104D000039D0052835D16088012829D103212961AE
:104D1000E8804749DAF808006FF4A042091A114404
:104D2000090B0022FDF732FE48B1B8F80010BDE8CB
:104D3000F05F032000EB01403EA1FFF795BB6088C8
:104D4000321F401EC11700EB517121F00701411ABB
:104D50003E4800EB41200BF10401FBF737FC47E034
:104D6000608800F0EDFB4F4503D2FCF7D7FD022031
:104D70002870BDE8F09FE9886088491C8842EFD11F
:104D8000E880401EC11700EB517121F00701411A64
:104D90002E48321F00EB41200BF10401FBF716FCFB
:104DA000A078400701D04F4522D242F21070FDF7A3
:104DB00005FB6088DAF80810401EC21700EB52703D
:104DC000C01001EB00304FF48056002332461F49DB
:104DD000FDF7B6FE38B1B8F80010032000EB014033
:104DE0001BA1FFF741FBFF2231461848FBF700FCEF
:104DF00000F06EFFB4E70000A02900203C3C2054E6
:104E00004654505F44415441203A206F70636F64B0
:104E100065282564292C20626C6F636B5F6E756D4D
:104E200028256429000000005C280020D8290020E3
:104E300000000F004572617365206F7065726174C8
:104E4000696F6E206661696C656400000836002039
:104E50005752495445204552524F520070B50446AE
:104E60000088FFF733FE20806088FFF72FFE0C4D8F
:104E700082B262802888042606EB004009A163689C
:104E8000FFF7FDFA2888628806EB00400BA16368F3
:104E9000FFF7F5FAFCF742FD12490120087070BDDA
:104EA000A02900203C3C20544654505F4552524FAC
:104EB00052203A2025642028257329005B726563FF
:104EC000765F746674705F6572726F725D20457292
:104ED000726F7220436F6465203A20256420282574
:104EE000732900005C2800202DE9F84F324C8A46D7
:104EF000324DE16804261F46904681468A4210D012
:104F000028882FA106EB0040FFF7AEFAE368009770
:104F10002888424606EB004032A1FFF7B8FABDE808
:104F2000F88FB9F80000FFF7D1FD1FFA80F820696B
:104F3000022801D0012807D1678028883A4606EB6D
:104F4000004035A1FFF794FAB8F1070FE7D2DFE888
:104F500008F0040404050B2D1300E0E75146484611
:104F6000BDE8F84FFFF7A8BE288835A106EB004042
:104F7000BDE8F84FFFF778BA288835A106EB004066
:104F8000FFF772FA2069012807D00228C7D1042050
:104F90002061BDE8F84F00F09BBE0520206100F0C5
:104FA00097FEBDE8F84F002000F0CABA51464846C7
:104FB000BDE8F84FFFF752BF5C280020A029002071
:104FC0005B726563765F746674705F7061636B6556
:104FD000745D205365727665722049502066617554
:104FE0006C74730066726F6D204950203A20253032
:104FF00038782C20536572766572204950203A200B
:10500000253038782C2046726F6D20706F727420B6
:105010003A202578000000005B726563765F746655
:1050200074705F7061636B65745D205365742053A9
:10503000657276657220506F7274203A2025640084
:105040003C3C20544654505F41434B203A200000E2
:105050003C3C20544654505F4F41434B203A200083
:105060002DE9FE4F91468B4604461F46C0B202AA68
:105070000A21DDF830A0FCF7A5FB1E4D04264FF0F9
:10508000FF38012804D028881BA106EB00400EE061
:105090009DF8080022282BD1E0B201AA0921FCF7D3
:1050A00091FB012806D028881FA106EB0040FFF7DE
:1050B000DBF91DE0BDF80400D0B11FFA89F2E0B2BF
:1050C0003B465946CDF800A000F058F800B2ADF8C4
:1050D0000400002804DA28881FA106EB0040E6E758
:1050E0003868FFF7F1FC3860BDF90400BDE8FE8FB9
:1050F0004046FBE7A02900205B726563765F75641C
:10510000705F7061636B65745D20676574736F6356
:105110006B6F707420534F5F535441545553206547
:1051200072726F72000000005B726563765F756477
:10513000705F7061636B65745D20676574736F6326
:105140006B6F707420534F5F524543564255462053
:105150006572726F720000005B726563765F7564E2
:10516000705F7061636B65745D20726563766672F3
:105170006F6D206572726F72000000002DE9FF4FA5
:10518000002583B0984617460446082803D9681EB0
:1051900007B0BDE8F08F60014FF0010A0830FBF75F
:1051A00009FD834600F00F00022804D0042802D035
:1051B0006FF00400ECE72FB1DFF87C9139F81400B0
:1051C00018B11EE06FF00D00E2E74FF4427000EB03
:1051D00044160AFA04FA2046FCF7A7FA05463046B8
:1051E000FBF7E8FC30B1554949881AEA010F06D0AF
:1051F0001DB106E06FF00300CAE70020C8E7002DEC
:10520000E9D0DFF838A100210AF1060A4FF48470D2
:105210000AF804100BF007014FF0800B00EB441666
:10522000022920D004295AD02946204601F000F94D
:1052300029F8145030464021FBF722FD3046FBF799
:10524000B9FC0028FAD139F81410491B0904090CDB
:1052500029F8141005D01AF8041041F001010AF8D9
:105260000410284694E739F814004D4680BB082204
:105270006946204601F0ACF830464021FBF700FDBE
:105280003046FBF797FC0028FAD19DF8001088F80B
:1052900000109DF8011088F801109DF8021088F8A0
:1052A00002109DF8031088F8031010999DF804006F
:1052B00008809DF8051001EB0020109908809DF8EA
:1052C00006009DF8071001EB002025F814002BE0E4
:1052D0002CE02A462046049901F07AF8AAE739F82A
:1052E00014004D4610BB02226946204601F070F8BA
:1052F00030464021FBF7C4FC3046FBF75BFC00283E
:10530000FAD19DF800009DF8011001EB002080B259
:1053100040F2EA5125F81400884205D92046FBF7EF
:105320007BFF6FF47A7033E70AF804B035F8145055
:10533000BD42CED93D46CCE7E43500204C280020C4
:10534000054A18B111B1C2E9040170470348106160
:10535000034850617047000024280020FF640F00BC
:10536000FD640F00074A10B513889C05FDD518B1E0
:1053700011B1C2E9060110BD034890610348D06134
:1053800010BD00002428002071670F0075670F0012
:1053900010B5FDF717F900281CD00F48042100882C
:1053A00001EB00400DA1FFF75FF8134A00211348FD
:1053B000FBF79CFD08B1FBF72DFD104800224FF4D0
:1053C000A0210068FBF7D0FD002803D0BDE8104005
:1053D000FBF720BD10BD0000AC29002053746172A2
:1053E00074696E672072657365742064656C617999
:1053F0002074696D65720000292E0F00486A0F0045
:10540000084670470846704770B5012670044FF093
:10541000E0210025C1F88001084C4010C4F8480381
:10542000C4F8080366602F20FCF782FFA660044CD6
:105430002F20A560FCF77CFFA57070BD0010014017
:10544000F827002070B50546C87D0C4600284FF4AB
:10545000847128460AD0FFF720FBD5F81805627E34
:10546000E1688854607E401C607670BDFFF715FBD4
:10547000D5F8180570BD1FB501238DF800308DF8E3
:1054800008100192D0E90012684690471FBD000045
:1054900038B50021012558B101280ED003280BD1C1
:1054A00007210020FEF72FF9BDE83840FEF7D6B8F7
:1054B0004FF0E020C0F8805138BD8DF800106846EC
:1054C000FBF796FD064C207808B9FEF7A3F8E068D4
:1054D000401CE060A5709DF80000FBF7ADFD38BDF5
:1054E000543300203EB5044609496846FFF750FA98
:1054F00008E000BFD0E900212046904730B168465F
:10550000FFF75DFA02980028F4D13EBD11203EBDA0
:10551000FC6B0F003EB5044608496846FFF738FAB1
:1055200007E000BFD0E90021204690476846FFF71A
:1055300046FA02980028F5D13EBD0000086C0F0025
:105540007CB505460420FCF7C5F9ADF804002846F3
:10555000FCF7C0F90B4CADF8060004226088E36844
:10556000009001A9A06800F09BF800F0BDFB064880
:1055700004212A46008801EB004004A1FEF778FFD1
:105580007CBD00005C280020A02900203E3E205465
:105590004654502041434B203A20426C6F636B20AD
:1055A0004E756D6265722825642900002DE9F0476B
:1055B000ADF5BE6D8146984615468A4601AC012080
:1055C000FCF788F9ADF80400A41C49462046FBF717
:1055D00028F84846FBF71EF80444641C5146204650
:1055E000FBF71FF85046FBF715F80619002415E0E5
:1055F00055F834103046FBF714F855F83400FBF733
:1056000009F8064405EBC407761C30467968FBF7B9
:1056100008F87868FAF7FEFF0644641C761C4445D7
:10562000E6D3124C01A8321A4520E368009001A984
:10563000A06800F035F8012020614C462046FAF7BA
:10564000E9FF421C21460A48FAF7C0FF00F04CFB74
:1056500008480421534600884A4601EB004006A151
:10566000FEF70DFF0DF5BE6DBDE8F0875C2800204C
:10567000F4350020A02900203E3E205446545020FE
:10568000525251203A2046696C654E616D6528255D
:1056900073292C204D6F64652825732900000000B4
:1056A000FFB581B0054614460E460A9F0498FCF7E4
:1056B0000FF90490A2B20097E8B204AB314600F0B3
:1056C00021F8A04209D006480421008801EB0040DF
:1056D00004A1FEF7C9FE4FF0FF3005B0F0BD000099
:1056E000A02900205B73656E645F7564705F7061F4
:1056F000636B65745D2073656E64746F2065727290
:105700006F7200002DE9F0471E46DDF82080154637
:105710008A460446082803D94FF0FF30BDE8F087D9
:1057200060014FF001090830FBF744FA00F00F0068
:10573000022804D0042802D06FF00400EEE7DDB1A7
:105740003078717801EB0020B17801EB0020F1781E
:1057500011EB002013D0B8F1000F13D04FF44270BA
:1057600000EB44100746FBF725FA42280DD022280B
:105770000BD06FF00600D1E76FF00D00CEE76FF0B1
:105780000B00CBE76FF00A00C8E740F6084000EBDB
:10579000441004223146FBF7A3FA41F208004FEA15
:1057A000182100EB4410FBF76BFA41F2081008F0E7
:1057B000FF0100EB4410FBF763FA41F6087000EBC1
:1057C0004410FBF7F7F94FF6FF7101EA802085429C
:1057D00000D90546DFF8888009FA04F62046FBF771
:1057E000CAFF81463846FBF7E5F938B1B8F8020040
:1057F000064206D04D4504D900208FE76FF0030024
:105800008CE74D45EAD82A465146204600F031FE45
:105810004FF4847000EB441006462021FBF730FA69
:105820004FF4027000EB44143046FBF7C3F9002834
:10583000FAD12046FBF7BEF900F01F00C10605D5DE
:1058400020461021FBF71CFA284667E70007F0D531
:1058500020460821FBF714FA6FF00C005EE7000009
:105860004C28002010B5084C0020D2B22070201D1A
:10587000FEF7EEF808B1FBF7CDFA6078002802D009
:1058800021780029FAD010BDA4280020054904225F
:10589000C8600549098802EB0143024603A1184686
:1058A000FEF7E6BD5C280020A02900205B7365742C
:1058B0005F7365727665725F69705D2073657420D1
:1058C0006970203D2025780010B54FF47E2000211E
:1058D0004FF47F244FF4805302E0A04200D3FEE750
:1058E0000268521C0ED0491C89B2001D9942F4D3A3
:1058F000054900680870020A4A70020C8A70000E9E
:10590000C87010BD001FF3E7E4270020002801D174
:10591000FBF76EBC704700002DE9F0411D461746AD
:105920000E460446082803D94FF0FF30BDE8F08149
:10593000012E06D0022E04D0042E02D06FF00400F7
:10594000F4E715F0060F6FF00500EFD185B1012ED9
:1059500002D0022E0CD103E015F0210FE6D007E0B3
:10596000A90601D52906E1D5E90601D52906DDD527
:105970002046FBF751FC600105F0F0014FF00108F3
:1059800031430830FBF77CF9224E57B93788781C31
:1059900080B2A0F57F413080F03902D14FF4404011
:1059A00030804FF48160390A00EB4410FBF768F94E
:1059B0004FF4A160F9B200EB4410FBF761F94FF42A
:1059C000847000EB441007460121FBF759F9384673
:1059D000FBF7F0F80028FAD105F001007188A0402B
:1059E00008437080B18808FA04F08143B1800A4905
:1059F000002021F814000749891D08554FF4427012
:105A000000EB44152846FBF7D5F80028FAD060B221
:105A10008CE700004C280020E435002010B516204B
:105A2000FBF7A6F948B10A4882684FF4800152B1E9
:105A3000016821F48001016010BDBDE8104042F210
:105A40000100FBF7E7B94FF0E020C0F8801110BD6E
:105A5000B834002010B51620FBF78AF9B0B112480F
:105A600090F800044009082813D290B1012810D002
:105A700004280ED005280CD00C4882684FF4800111
:105A80006AB1016841F48001016010BD42F2010079
:105A900001E042F20200BDE81040FBF7BBB94FF055
:105AA000E020C0F8001110BD16E000E0B83400207E
:105AB00010B5174A86B00324D2E902015269CDE934
:105AC000000108208DF8000007208DF80100282033
:105AD0008DF80200FF208DF8030000208DF80500EE
