:02000004000FEB
:10800000F064002069840F0071840F0073840F00F6
:1080100075840F0077840F0079840F000000000042
:1080200000000000000000000000000055840F0068
:108030007D840F00000000007F840F0081840F000A
:10804000A1850F0083840F0083840F001D860F001D
:1080500083840F0083840F0083840F0083840F00C8
:1080600083840F0083840F0083840F0083840F00B8
:1080700083840F0083840F0083840F0083840F00A8
:1080800083840F00F9850F0083840F0083840F0021
:1080900069860F0083840F006D860F0083840F00B4
:1080A00083840F0083840F0083840F0083840F0078
:1080B00083840F0083840F00000000000000000094
:1080C00083840F0083840F0083840F0083840F0058
:1080D00083840F0083840F0083840F0083840F0048
:1080E00083840F0083840F0083840F00000000004E
:1080F0000000000083840F000000000083840F0054
:10810000000000000000000000000000000000006F
:10811000000000000000000000000000000000005F
:10812000000000000000000000000000000000004F
:10813000000000000000000000000000000000003F
:10814000000000000000000000000000000000002F
:10815000000000000000000000000000000000001F
:10816000000000000000000000000000000000000F
:1081700000000000000000000000000000000000FF
:1081800000000000000000000000000000000000EF
:1081900000000000000000000000000000000000DF
:1081A00000000000000000000000000000000000CF
:1081B00000000000000000000000000000000000BF
:1081C00000000000000000000000000000000000AF
:1081D000000000000000000000000000000000009F
:1081E000000000000000000000000000000000008F
:1081F000000000000000000000000000000000007F
:10820000DFF80CD000F076F9004800478D950F009C
:10821000F0640020056885F308884068FF2464B294
:10822000EFF30585002D07D1EFF31481022291436E
:1082300081F31488A64600472546064621273FBA03
:10824000F0B40024002500260027F0B4F92040B245
:108250000047000030B450E8012F93B2C489234492
:108260008489A34228BF1B1B0489A34202BFBFF31A
:108270002F8F002007E0C3EA020340E80134002CFE
:10828000E9D14FF001000A6030BC704750E8012F7F
:10829000C2EA024240E801210029F7D1704730B418
:1082A00050E8022F1FFAA2F3C488A34202BFBFF313
:1082B0002F8F00200DE0C48923448489A34228BF66
:1082C0001B1BC2EA034340E80234002CE8D14FF004
:1082D00001000A6030BC704750E8022FC2EA224217
:1082E00040E802210029F7D17047034653E8022FE6
:1082F000D988B2EB324F4FF0000017BF92B241EA7B
:10830000014142EA014104E05A68B2EB324F08BF32
:10831000012043E80212002AE8D1704730B4044635
:1083200054E8000F0D4644E80053002BF8D11560C7
:1083300030BC704730B4044654E8000F40EA0105F1
:1083400044E80053002BF7D1156030BC704730B4BF
:10835000044654E8000F00EA010544E80053002BEE
:10836000F7D1156030BC704730B4044654E8000FB4
:1083700080EA010544E80053002BF7D1156030BCBA
:10838000704730B4044654E8000F00EB010544E8A0
:108390000053002BF7D1156030BC704730B4044651
:1083A00054E8000FA0EB010544E80053002BF7D17F
:1083B000156030BC7047000030B4044654E8000F2C
:1083C0000D4644E80053002BF8D1156030BC7047CF
:1083D00030B4044654E8000F40EA010544E8005375
:1083E000002BF7D1156030BC704730B4044654E818
:1083F000000F00EA010544E80053002BF7D1156097
:1084000030BC704730B4044654E8000F80EA0105E0
:1084100044E80053002BF7D1156030BC704730B4EE
:10842000044654E8000F00EB010544E80053002B1C
:10843000F7D1156030BC704730B4044654E8000FE3
:10844000A0EB010544E80053002BF7D1156030BCC8
:10845000704700001EF0040F0CBFEFF30880EFF32D
:10846000098002F049B800000648804706480047E6
:10847000FEE7FEE7FEE7FEE7FEE7FEE7FEE7FEE7D4
:10848000FEE7FEE78D860F0001820F0040EA010340
:108490009B0703D009E008C9121F08C0042AFAD2BA
:1084A00003E011F8013B00F8013B521EF9D270477E
:1084B000D2B201E000F8012B491EFBD27047002226
:1084C000F6E710B513460A4604461946FFF7F0FFD3
:1084D000204610BD421C10F8011B0029FBD1801A58
:1084E0007047034611F8012B00F8012B002AF9D13F
:1084F00018467047064C074D06E0E06840F001035F
:1085000094E8070098471034AC42F6D3FFF77CFE9E
:1085100044BB0F0064BB0F0000F01F02012191401B
:108520004009800000F1E020C0F88012704700F0A0
:108530001F02012191404009800000F1E020C0F8B5
:108540000011704700F01F02012191404009800096
:1085500000F1E020C0F8001270474907090E00281A
:1085600006DA00F00F0000F1E02080F8141D7047DB
:1085700000F1E02080F8001470470000BFF34F8F37
:1085800005480168054A01F4E06111430160BFF349
:108590004F8F00BFFDE700000CED00E00400FA057E
:1085A0002DE9F0414FF48077384601F0AAF8012414
:1085B000104EA50748B1384601F0AAF80120C5F8C9
:1085C00008037470002000F015FC4FF482773846E1
:1085D00001F097F800280BD0384601F099F80220F6
:1085E000C5F80803B470BDE8F041012000F002BCFA
:1085F000BDE8F0815832002007480021C0F8401142
:10860000C0F84411C0F84811C0F84C11C0F800116E
:10861000C0F8041102F01CBE00100140F8B511486A
:108620000F4D04464FF48C7101F061FF002815D006
:108630000026C4F81861D4F818010090A87F2C46D1
:10864000FF2801D001F036FE66772672D4E90021BA
:1086500001B004F10800BDE8F0401047F8BD00008B
:108660006C3200200030004002F064BD10B50021E3
:10867000054A084600F08CFA002803D0BDE81040F7
:1086800000F084BA10BD0000F18D0F0030B54FF03E
:1086900080500022D0F830110123082902D1D0F8EF
:1086A000344114B1082909D00BE04FF08041C1F8E2
:1086B0000C21C1F8102168490A6005E0D0F8344166
:1086C00014B1082957D059E064490968644C216005
:1086D0006249091D0968241D216060490831096843
:1086E000241D21605D490C310968241D21605B490E
:1086F00010310968241D2160584914310968241D6E
:108700002160564918310968554C2034216053497D
:108710001C310968241D2160504920310968241D3D
:1087200021604E4924310968241D21604B492831BC
:108730000968241D216049492C310968241D2160E4
:10874000464930310968464C403421604349343150
:108750000968241D2160414938310968241D2160C0
:108760003E493C310968241D21603C49403109687B
:10877000241D216005E0D0F8344114B1082904D04B
:1087800006E0394C3749216005E0D0F8344114B196
:10879000082904D006E0354CFB21216005E0D0F823
:1087A000344114B1082908D00AE090F85842304802
:1087B000016864F30301016005E0D0F8344114B1AD
:1087C000082905D00EE02B494FF40070086002E044
:1087D000D0F8340130B928480168C90702D06FF0D9
:1087E000010101602548016841F470010160BFF397
:1087F0004F8FBFF36F8F4FF01021D1F80002002888
:1088000003DBD1F80402002822DA1D4C23601D4846
:108810000368002BFCD01223C1F800320568002D3C
:10882000FCD0C1F8043201680029FCD02260016844
:108830000029FCD0BFF34F8F10487C380168124AE2
:1088400001F4E06111430160BFF34F8F00BFFDE70A
:108850000F490E48086030BD380500400404001080
:1088600020C50040488103008C56004018F50040A8
:10887000E40E0040409602400004004088ED00E015
:1088800004E5014000E401400400FA050090D00333
:10889000A4280020F8B50E46054600F0B9FD0123D6
:1088A0004CF238720221284602F0BCFAC4B2AC4243
:1088B00002D04FF0FF3408E06A460A21204600F05B
:1088C000FBFC9DF800002228F6D102484662846035
:1088D000F8BD00005C28002030B4064A0C46012395
:1088E000D06000201070204630BC283202A102F077
:1088F00061B900005C2800206F637465740000009B
:108900003EB51C4CA06908B36169E06988421DD37B
:10891000206906280FD2DFE800F00E030E0B0E0BC5
:10892000144A0123283214A1154802F043F902E049
:10893000E08802F025F90020E061206A401C2062F6
:10894000052803D300F064FD0120207001A80090E9
:1089500002AB40F2EA52616AA06801F037FF01B24F
:10896000002905DBBDF80430029A606A01F0EAFED6
:1089700020783EBD5C2800206F63746574000000A1
:10898000D8340020F8B5144C0546A068804720690B
:108990008047216AC5F30740C5F3072699B1626A8B
:1089A0008AB18DF800008DF801608DF80250032126
:1089B00068469047A0698047054660698047E0683F
:1089C00080472846F8BDE1698847E1693046884715
:1089D000E169E8B28847EDE7242800202DE9F84353
:1089E0001A4C05461746A06888468047206980478C
:1089F000216AC5F30740C5F30726A1B1626A92B1A7
:108A00008DF800008DF801608DF802500321684652
:108A10009047226A39464046904760698047E0683F
:108A20008047BDE8F883E1698847E16930468847B7
:108A3000E169E8B28847002505E0A069804708F8A9
:108A400005006D1CADB2BD42F7D3E6E72428002037
:108A5000F8B5164C05460E46A06880472069804749
:108A6000626A45F004058AB1280C8DF80000280AD6
:108A70008DF801008DF802508DF8036004216846DE
:108A8000904760698047E0688047F8BDE169C5F3B9
:108A900007408847E169C5F307208847E169E8B2E4
:108AA0008847E16930468847EBE70000242800202A
:108AB000F8B51A4C05461646A0680F46804720694F
:108AC0008047626A45F004059AB1280C8DF80000D1
:108AD000280A8DF801008DF802500321684690475E
:108AE000626A31463846904760698047E06880474F
:108AF000F8BDE169C5F307408847E169C5F3072080
:108B00008847E169E8B28847002504E0E169785DBB
:108B100088476D1CADB2B542F8D3E5E724280020A4
:108B200002E008C8121F08C1002AFAD17047704736
:108B3000002001E001C1121F002AFBD17047000094
:108B40000121202803DA81400548014003E0402844
:108B500002DA2038814009B10120704700207047B7
:108B6000FC06FFBD800701D0002070470120704740
:108B7000C3688B4206D811440069491E814201D85E
:108B80000120704700207047FFF7F8FCFFF7F6FC64
:108B90002DE9F84F254C8146924660880E46814269
:108BA00041D800274FF6FF788DF80070684600F036
:108BB000C1F822786078A188884201DA401C00E080
:108BC0000020C0B2904204D19DF8000000F0D6F819
:108BD00027E065786078884201DA401C00E00020D8
:108BE00060709DF8000000F0C9F8454519D0A068F4
:108BF000B9F1000F40F835A00DD066B16188E0688A
:108C0000324605FB01004946FFF740FCA06800EB37
:108C1000C500868002E000EBC50087800020BDE82B
:108C2000F88F0420FBE70920F9E70000E82700207F
:108C3000084B9B7823B12AB120B10068037C1BB19B
:108C40000820704707207047002303744174426175
:108C5000184670479032002070B501F01BFF104895
:108C600000240B21047044700E4D817014206C6040
:108C70002C706C70FFF750FC07211420FFF76DFC7F
:108C80001420FFF754FC0848046007211120FFF767
:108C900064FC0548001F0068A860002070BD00004B
:108CA00090320020F8270020081501402DE9FC47EC
:108CB000DFF8789099F8023073B368B3052902D2CF
:108CC0000720BDE8FC87436933B3437C012B25D0E3
:108CD000002704460025884616468DF80050684651
:108CE00000F028F801A802F05FFBC8B10121017073
:108CF0000F4944600968C0E90218C0E904769DF88C
:108D0000040089F801009DF8000000F037F81420F5
:108D1000FFF718FC2846D4E70820D2E70F46D8E72B
:108D200004259DF8000000F029F8F3E790320020B8
:108D30000415014030B5EFF3108172B60D4A946806
:108D4000012324B10370002900D162B630BD9360C5
:108D50004FF0E023D3F88051074C25401560C3F84D
:108D60008041D3F8844154605A17C3F8842100220B
:108D70000270E8E79C330020FC06FFBD0B498A68BF
:108D8000002A11D000280FD1EFF3108072B60B68C3
:108D90004FF0E022C2F800314B68C2F804310022E3
:108DA0008A60002800D162B6704700009C33002022
:108DB000084910B50868C97800BA20F0FF000843D8
:108DC00005A1FFF789FD00BFFFF79AFD0028FBD042
:108DD00010BD0000E427002065746865726E65743C
:108DE0005F6D6573685F6E6F64652E62696E00000B
:108DF00001F012BB70B5084C050009D01034216891
:108E0000002907D008682060496828468847F6E7A7
:108E10000834F4E770BD00005832002070B50446F5
:108E2000082802D94FF0FF3070BD4FF4847000EB7A
:108E3000441005461021FFF70BFE2846FFF7A2FD60
:108E40000028FAD14FF4027000EB44101F21FFF705
:108E5000FFFD0C480121A14082888A430A49828093
:108E6000002021F814000749891D08554FF442706D
:108E700000EB44142046FFF785FD0028FAD10120BD
:108E800070BD00004C280020C83400202DE9F05FA0
:108E900026484168F1B3DFF898B00E688146DBF8E8
:108EA000004087688078E11B21F07F45ED1CB0B958
:108EB000DFF880804FF48030C8F84403C8F804031A
:108EC0001120FFF729FB1120FFF731FB4FF0010ABA
:108ED000C8F800A02F2000F023FC89F802A0B542BA
:108EE00000D23546124BE8193C3320F07F40186021
:108EF000DBF800105A46091B21F07F41001B20F0CF
:108F00007F40C91C81420FD9106818602F2000F0E3
:108F100007FC00E004E0BDE8F05F1120FFF712BBA2
:108F2000BDE8F05F01F0B6BDBDE8F09FF827002076
:108F30000415014000100140F0B54FF0FF3622B19A
:108F40001268D24300230A4D0DE03246FAE7C45CB2
:108F500062400824D70700D037462F4087EA5202E4
:108F6000641EF7D15B1C8B42F1D3D043F0BD0000EF
:108F70002083B8ED10B50C4606281ED2DFE800F0BD
:108F800003070B101418204602F094FB13E0204650
:108F900002F0E4FA0FE02078BDE8104002F0B6BB22
:108FA00002F008FB207006E0204602F0C1FB02E060
:108FB000204602F002FB002010BD4FF0FF3010BD34
:108FC0002DE9F0410C46002102464F1E08464FF4A1
:108FD00098554FF4A056102A61D2DFE802F0080B32
:108FE00017131A1E222C3643464A574E535A02F084
:108FF000B6FB4BE014B1204604F10801BDE8F04196
:1090000002F0EFBA208802F06CFA3FE002F088FA32
:1090100005E0208802F040FB38E002F090FA208062
:1090200034E02088010A2846FFF712FD21783046F7
:10903000FFF70EFD2AE03046FFF7A4FC064628465F
:10904000FFF7A0FC06EB0020E9E7164882782270C3
:10905000C27862700279A2704279E27080792071E0
:10906000617113E002F000FC10E0204602F011FCF8
:109070000CE0204602F0BCFB08E02078BDE8F0419F
:1090800002F02CBC02F0E4FB05E020700020BDE8FB
:10909000F08102F0D4FBC0B241B2491CF5D1384690
:1090A000F5E700002428002005490A6812B10A6883
:1090B000521E0A600169002900D00847704700006D
:1090C000E02700200E4910B50A784C780023A24210
:1090D00012D0521CD2B20A70022A00D10B70084A78
:1090E0000B780C3252F8232002608868104420F07C
:1090F0007F408860012010BD0360002010BD00008B
:10910000F82700202DE9F84380461F4615460E46F5
:1091100000240D4800F0D0FA38B11120BDE8F883E2
:1091200006EB043001F0D0F8641CAC42F8D10648DC
:1091300000F0BBFA2B46324602214046009700F071
:109140002BF80020EAE700000C2800202DE9F84366
:10915000104D0F4680461E4691466946286800F02D
:1091600078FA040014D01C21FFF7A9F9012020711E
:10917000C4F81490380BC4F80080C4E90260694652
:10918000286800F087FA01F033FA0020BDE8F88380
:109190000420FBE73CBA0F002DE9F04186B00446FD
:1091A0008068DDF830801D4616460F4600280CD03A
:1091B00014216846FFF783F9CDE902658DF8007048
:1091C000CDF81080A1686846884706B0BDE8F081F8
:1091D00030B50446006885B00D46806800281CD074
:1091E00014216846FFF76BF90195A0680490207977
:1091F00010B101280DD104E001208DF80000206994
:1092000004E002208DF80000E0680003029060692D
:109210000390206881686846884705B030BD2DE915
:10922000F04142F2086101EB401542F2087100265C
:1092300001EB40142846FFF7A5FB07462046FFF741
:10924000A1FB00EB072007043F0C09D02846FFF7DD
:1092500099FB06462046FFF795FB00EB062086B2F9
:10926000BE42E7D13046BDE8F0812DE9F04142F23F
:10927000080101EB401542F20811002601EB4014F1
:109280002846FFF77FFB07462046FFF77BFB00EBF6
:10929000072007043F0C09D02846FFF773FB06465A
:1092A0002046FFF76FFB00EB062086B2BE42E7D1F7
:1092B0003046BDE8F081000070B515460446082828
:1092C00002D94FF0FF3070BD600108306FF0040626
:1092D0000D2970D2DFE801F0070C1114242D6F3D29
:1092E0004A4E52596300FFF74DFB00F0F00002E0D8
:1092F00041F2086044E028704FE041F208503FE03E
:1093000041F2083000EB4410FFF73CFB064641F207
:10931000082000EB4410FFF735FB06EB0020EAE7DE
:1093200040F6084000EB441004222946FFF756FBA4
:1093300033E041F2081000EB4410FFF723FB064630
:1093400041F2080000EB4410FFF71CFB06EB002085
:1093500022E0FFF717FB00F00F00012825D142F6AD
:10936000087000EB4410FFF70DFB15E02046FFF7F7
:109370007CFF11E02046FFF752FF0DE04FF44270F2
:1093800000EB4410FFF7FEFAB5E7FFF7FBFA012800
:10939000F0D00A4830F814002880012070BDFFF793
:1093A000F1FA00F00F00012801D0304670BD0448EA
:1093B000005DA0E7FFE76FF0010070BDC83400203A
:1093C0005228002001F085BE01F08FBE01494160A6
:1093D0000020704710BA0F0038B504460A48012132
:1093E0006A46FEF7F5FF68B90848606001F026F8A4
:1093F00005491C23FC2208740448FC39001F00683E
:1094000000F014F9002038BDA434002040BA0F0049
:109410000648002101700648C160418081800161D9
:10942000C1808161C161016201707047D834002040
:109430005C28002002480068002800D00120704706
:109440000C2800200248007A002800D00120704734
:10945000A43400200268134602E08A4204D0126855
:10946000002AFAD10B600160704700000649012014
:10947000086006480168C1F300410029FAD1044997
:1094800000208870704700000C0000401804004065
:10949000583200202DE9F047394E002780463D46DE
:1094A000DFF8E090D6F804A057E003D00446D0F8E7
:1094B0001C8035E099F8002002EB4201521CD2B228
:1094C00089F8002009EBC10199F80230091D9A4280
:1094D00001D189F8005048680A780446012A12D060
:1094E000022A02D0032A3BD108E001F081FE00B13C
:1094F0000127257434E00574C06900E07068002815
:10950000F9D170602CE0207C50BB88686060C8682E
:10951000A0600869E0604869A061F07800B165600A
:109520006268B168184B501A20F07F40984202D20E
:10953000A168084406E0881AA16820F07F408142B3
:1095400002D9081A206000E0256065600120A5604E
:1095500020742046E56101F02DFEB8F10000A4D191
:1095600099F8001099F801008142A3D117B97168E8
:10957000514502D00120BDE8F0870020FBE7000044
:10958000F827002090320020FFFF7F0008B5102050
:109590000090684600F064FE009A134900EB8200D8
:1095A000C0F8001700F004FCA8B9002000F03AFC55
:1095B000FFF752FB0D4A00210D48FFF739FB50B968
:1095C0000B4800224FF470110068FFF76FFB10B9D1
:1095D00000F08FF808B1FEF7D1FF4FF440508068DB
:1095E00000F070F8002008BD0C00030025B10F004A
:1095F000C8B90F001CB508490020FFF7BBFC1721B4
:109600000548FEF75CFF04490120FFF7B3FC6946FB
:109610000820FFF7D5FC1CBD8C28002010B5FEF7F4
:1096200064FE08B1002010BD112010BD10B531B18D
:10963000B2FBF3F403FB14241CB1092010BD0E206F
:1096400010BD01600021416081608281C3810846B4
:1096500010BD70B50C460546FEF7FCFD002802D093
:1096600021882868084470BD10B50A8849888A4254
:1096700003D1FEF731FE012010BD002010BD70B5F2
:109680000C460546FEF70BFE002802D061882868CC
:10969000084470BD10B50A8849888A4203D1FEF794
:1096A000F5FD012010BD002010BD08B500216A465F
:1096B000FEF74DFE009808BD08B501216A46FEF789
:1096C00039FE08BD10B5044600F060FA00280FD13D
:1096D0004FF0E021401EC1F88001C1F88002204611
:1096E00013DF002804D12046BDE81040FEF792BDEC
:1096F00010BD10B500F010FA002801D100F0E0F91B
:1097000010BD00F180400068002800D001207047A3
:1097100008B500F18040002101600068009008BD9C
:1097200000283ED01F49204A096800BF00BF00BF83
:1097300000BF00BF00BF00BF00BF91422FD000BFDD
:1097400000BF00BF00BF00BF00BF00BF00BF00BF21
:1097500000BF00BF00BF00BF00BF00BF00BF00BF11
:1097600000BF00BF00BF00BF00BF00BF00BF00BF01
:1097700000BF00BF00BF00BF00BF00BF00BF00BFF1
:1097800000BF00BF00BF00BF00BF00BF00BF00BFE1
:1097900000BF00BF00BF00BF00BF00BF00BF013857
:1097A000C3D17047A42800200024F40000283ED034
:1097B0001F49204A096800BF00BF00BF00BF00BFAB
:1097C00000BF00BF00BF91422FD000BF00BF00BF4D
:1097D00000BF00BF00BF00BF00BF00BF00BF00BF91
:1097E00000BF00BF00BF00BF00BF00BF00BF00BF81
:1097F00000BF00BF00BF00BF00BF00BF00BF00BF71
:1098000000BF00BF00BF00BF00BF00BF00BF00BF60
:1098100000BF00BF00BF00BF00BF00BF00BF00BF50
:1098200000BF00BF00BF00BF00BF0138C3D17047F9
:10983000A42800200024F4002DE9F05F244C4FF40C
:1098400040594FF48058216B666AD9F80830771A6E
:1098500003EB010B01EB000A4546AF4200D83D4641
:1098600000220121584600F0FBF800282ED10023E9
:109870002A465146584600F011F9002826D12A46BA
:109880005146584600F056F900281FD1206B284455
:109890002063002000F068FAAB44AA447F1BDBD1B0
:1098A00000223146D9F80800FFF746FBA16A814241
:1098B00003D10121A661C4E907010548243000F065
:1098C0002DF9BDE8F05F002000F04EBABDE8F09F32
:1098D0008030002010B50A4C206A01280BD1E069C5
:1098E00058B14FF44050A16980680022FFF724FB73
:1098F000E169814201D0002010BD012010BD0000AF
:109900008030002070B506460D4608680B49496B4B
:10991000441A224631460A4800F00CF928B1214683
:109920003046BDE8704000F013B9284600F0F6F864
:10993000BDE87040034800F017BA000080300020F6
:1099400000800F004DAA0F0030B40B4B02464FF4BD
:1099500040501C69816803F11800012C08D05C6933
:1099600034B19B690C3003F6FF736FF30B0319449A
:1099700030BC00F003B80000803000202DE9F04139
:1099800016460C4682680021DFF87C800546012AD5
:1099900009D040460127806CA52A0CD0AA2A1BD0EA
:1099A000AC2A1ED120E0D8F81400012819D1204695
:1099B000FFF742FF14E000B104462946204600F0BC
:1099C00003F9010006D1284600F0A8F80F4800F07E
:1099D000CBF916E0376004E029462046FFF792FFF6
:1099E00001460846BDE8F08100B1044629462046FC
:1099F00000F0EAF828B9D8F8340029462044FFF7E7
:109A000081FF0146E6E70000803000204DAA0F00EC
:109A1000114910B50A680020AA2A07D00A68BB2A93
:109A200006D00E498A6D012A0DD010BD086011E0E4
:109A300008604FF0A04000BFD0F81015090C11F0DD
:109A4000010FF9D106E08865002000F08DF908B11A
:109A5000FFF79CF8012010BD1C050040803000205D
:109A6000054B30B41C68641C1C6013460A46014652
:109A700030BC024800F0F8BAE0270020A8280020F7
:109A800008B1034900E003490022034800F013BB7A
:109A90004CBA0F001CBA0F00A828002038B5064C9D
:109AA00025686D1C2560009313460A46014603484D
:109AB00000F076FB38BD0000E0270020A828002039
:109AC00038B50020009000F025F96846FFF73CFF0C
:109AD000012400B10094FFF79BFF00B100944FF404
:109AE00040540099A06811B90068401C09D101F0E8
:109AF00001FC08490220FEF7CDFE01F07DF9FFF7D9
:109B000057F9FFF7E7FE10B1A068FFF7DBFD002073
:109B100038BD0000DC2800200020704700210160D3
:109B200041608160024801634163016141617047A6
:109B3000803000201FB5054B01AC92081B6A0093D2
:109B400084E80700684618DF04B010BDCCB90F00E8
:109B50001FB58908002201AB009283E80700684620
:109B600018DF04B010BD00001FB59208930502D0A5
:109B7000092004B010BD044B1B6800930392CDE98B
:109B80000110684618DFF4E7CCB90F001FB5044B8D
:109B90000FCB8DE80F00684618DF04B010BD000041
:109BA000DCB90F00BFF34F8F05480168054A01F487
:109BB000E06111430160BFF34F8F00BFFDE700007C
:109BC0000CED00E00400FA052DE9F041204A0346BF
:109BD00040F6FF76106B516B00F580550C1A04F6B9
:109BE000FF746FF30B0406EB94066FF30B06C718B4
:109BF00021B1884202D10020BDE8F081904608B929
:109C0000C8F84870A64203D904F6FF70060B360365
:109C1000324639462846FFF7A7FF0028ECD13246E6
:109C200039462846FFF786FF0028E5D135443744FA
:109C3000A64201D9002400E0A41BD8F8341000206B
:109C4000091BC8F8301000F08FF8002CDAD1D3E7E8
:109C50008030002038B1054901600549416001218B
:109C60000172002070470E2070470000759C0F00A5
:109C7000A79C0F0030B40246112039B10B78052B98
:109C800005D2DFE803F00E060C0E0E000E2030BCED
:109C900070470220087030BC104600F017B8112041
:109CA000F5E70820F3E70246112041B10B78022BBB
:109CB00004D1022A05D0032A00D1082070470E20C3
:109CC0007047002003220A707047000070B50C4DE9
:109CD0000400D5F89C0105F5CE7503D0401C03D0D7
:109CE000082070BD0E2070BD00221821201DFFF736
:109CF00023F9206007222146284629DF70BD000095
:109D000000F00F00002258210148FFF715B90000AC
:109D10008430002070B5FFF7B3FE08B1FEF736FFC0
:109D20004FF4DC752A460E490E48FEF7AFFB0D4C8A
:109D30002068401C04D0FFF7E5FF216881420ED067
:109D400029460848FEF7BBFB01206060002000F0B8
:109D50000BF8002803D0BDE87040FEF717BF70BDB8
:109D600000F00F008030002070B504460022012171
:109D70000C48FFF775FE90B9FFF7C4FF0A494FF48E
:109D8000DC752A460860A1F5DC70FEF77FFB2346F0
:109D90002A4606490348FFF781FE002800D0032029
:109DA00070BD000000F00F0080300020C82E0020A1
:109DB00070B50F4C0025207808B1852516E00021EC
:109DC000A16061602161E1604FF0E020D0F8000106
:109DD000012610F0010F03D10721002000F056F8F2
:109DE00000F02CFB08B9034806602670284670BDB9
:109DF000583200201805004008B500208DF80000FA
:109E00006846FEF797FF0648C168491EC160C068F2
:109E100008B9FFF72BFB9DF80000FEF7AFFF08BD68
:109E200058320020F8B5174D0446A878002648B1EE
:109E300014B16168012088478DF800606846FEF71C
:109E400079FF17E08DF800606846FEF773FF24B1D4
:109E50000C4821461030FFF7FDFAE86850B94FF47E
:109E60008270FFF755FC02204107C1F80403064940
:109E700001200860E868401CE8609DF80000FEF7DB
:109E80007DFFF8BD58320020080000404907090E48
:109E9000002806DA00F00F0202F1E02282F8141D19
:109EA00003E000F1E02282F8001400F01F0201211B
:109EB00091404009800000F1E020C0F88012C0F815
:109EC000001170470121B1EB507F01D10120704793
:109ED000002070472DE9FC47074640790C46DFF823
:109EE00004A100EBC0010AEB8106307F10B108200D
:109EF000BDE8FC87C6E90023207B0128207802D832
:109F000000F0A4F901E000F0D5F94FF00009CDF818
:109F10000090CDF8049020784B464A46012100F08D
:109F200072F960784FF0FF35FF2806D0804600F0C8
:109F30008DF9404600F080F900E0A846A078FF289F
:109F400009D0002205460123CDF800901146CDF836
:109F5000049000F058F9E078FF2804D000F0AAF946
:109F6000E07800F069F97879E17800EBC0020AEB5B
:109F70008200817738682278C0F80825C0F80C85FF
:109F8000C0F81055A168C0F82415227B617B01B18F
:109F90000121012A04D0022A05D0032A08D105E0B4
:109FA00041F0020104E041F0040101E041F006014A
:109FB000C0F854156179C0F8C015316811B140215D
:109FC000C0F804130721C0F80015306820B12179CA
:109FD00097F90400FFF75AFF484686F81D900121C3
:109FE000317785E76C3200201FB5069C00918DF813
:109FF000042002938DF80C400022694600F002F81C
:10A0000004B010BD2DE9F04105460F4640791549D1
:10A0100000EBC00001EB80041646607F10B11120F8
:10A02000BDE8F081206820B116F0140F01D10120A5
:10A03000607797E80F0004F10C0888E80F0094F8A7
:10A04000210020F0070084F82100A07FFF2801D024
:10A0500000F0FCF833463A4621462868BDE8F04156
:10A0600000F0DEBF6C3200202DE9F0411F4615469E
:10A0700004000E4616D02068B8B1C5B16068026809
:10A08000501E304215D16A432046FEF771FD80B163
:10A0900020683B462A46D0F810C031462046BDE82D
:10A0A000F04160470E20BDE8F0810820FBE7092061
:10A0B000F9E71020F7E720B119B101600B681146EC
:10A0C00018470E2070470000044801214174007AAF
:10A0D00008B100207047012070470000A434002020
:10A0E000012801D0032808D10449002201284A741C
:10A0F00000D00020087400F031BA7047A43400206A
:10A1000070B5244C0246207A012835D002283FD170
:10A1100021480023022A006802D0032A2CD119E02A
:10A12000E360017911B1012926D10BE0D0E9056581
:10A13000711B142900D31421294481614569A94266
:10A140000ED019E00169491C01614269914213D1A5
:10A15000237217E0E168491CE16008290CD9E3602B
:10A160002372022A0ED00D21FFF732F80B480A495C
:10A17000091D0068FFF778FA607C28B1BDE87040DF
:10A1800000F062B90021EFE7BDE8704000F0E6B9E9
:10A1900070BD0000A4340020102800203CBA0F003D
:10A1A0002DE9F8431D46089F1646884604000DD049
:10A1B00066B1206860B135B160684068B5FBF0F108
:10A1C00000FB115030B10920BDE8F8830E20FBE7F9
:10A1D0000820F9E74046FEF7C5FC90B13046FEF78F
:10A1E000C1FC70B12A4641462046FEF7C1FC40B191
:10A1F000009720682B463246C76841462046B8473C
:10A20000E2E71020E0E72DE9FF411C46DDE90A788E
:10A2100015460E46684600F031F846EA450141EA27
:10A22000840141EA072242EA0841009A00EB8200D9
:10A23000C0F80017BDE8FF811CB5002100910B4656
:10A24000012201911146FFF7DEFF1CBD01B56846F2
:10A2500000F014F8009A01219140C0F80C1508BDD7
:10A260000168202902D24FF0A040704701F01F0181
:10A270000160014870470000000300500168202978
:10A2800002D24FF0A040704701F01F010160014869
:10A2900070470000000300500168202902D24FF0EF
:10A2A000A040704701F01F010160014870470000A5
:10A2B0000003005001B56846FFF7E0FF009A012156
:10A2C0009140C0F8081508BD094902220A60BFF391
:10A2D0006F8FBFF34F8F0A1D106006480268002A77
:10A2E000FCD000200860BFF36F8FBFF34F8F704723
:10A2F00004E5014000E4014070B50E4C01232360E9
:10A30000BFF36F8FBFF34F8F00230B4D08E000BFEB
:10A3100051F8236040F823602E68002EFCD05B1CAF
:10A320009342F5D300202060BFF36F8FBFF34F8FB0
:10A3300070BD000004E5014000E4014030B593B079
:10A340005FF03805ADF8445011A903A861DF30B1C2
:10A35000052816D013B0BDE83040FEF717BC03AC9B
:10A360000949684600F09CF807E000BFD0E90021E9
:10A3700020469047684600F0AAF802980028E1D0ED
:10A38000F4E713B030BD0000E8BA0F0010B50D4C73
:10A390002078A0B10120A07000F0C4FB11280CD0DF
:10A3A000022000F0D7FB11DF002807D12070A07039
:10A3B00000F0BAFD032000F0CDFB002010BD082006
:10A3C00010BD00001828002038B5104C207808B1C6
:10A3D000082038BD0125A570002000F0A3FB11283E
:10A3E00012D0002000F0B6FB09480A49006800902E
:10A3F000684610DF0028ECD12570A070607000F076
:10A40000AFFD012000F0A6FB002038BD1828002079
:10A410007CBA0F00898B0F000EB50749684600F023
:10A420003FF805E0D0E900108847684600F04FF893
:10A4300002980028F6D10EBD98BA0F0001480078A6
:10A4400070470000182800200548817819B100786D
:10A4500018B1FFF79BBF08207047FFF7B5BF00009A
:10A46000182800201FB5684648DF30B1052814D0F1
:10A4700004B0BDE81040FEF789BB084901A800F010
:10A480000FF806E0D0E900210098904701A800F0FD
:10A490001EF803980028E6D0F4E71FBD04BB0F00A8
:10A4A000016009684160AFF3008010B5D0E9002178
:10A4B0005368994201D1002104E0D1E90034A3425C
:10A4C00002D01946816010BD08314160F0E7816813
:10A4D00000290BD0026892680A44826041684B6888
:10A4E0009A4203D108314160FFF7DFBF70474058FF
:10A4F000002800D0012070472DE9F04104461348A0
:10A50000134BC01A0C21B0FBF1F6A0694FF0FF31DC
:10A5100010F8022C02B92169002011E000EB40057F
:10A5200003EB85052F68974209D14F1C02D06F6855
:10A530008F4204D194E80F00AD68A84703E0401CA7
:10A54000B042EBD301202060BDE8F081A8BB0F0032
:10A550009CBB0F0000F0BDBD00F0C7BD2DE9F04170
:10A56000204C0025204E207A012730B91F48311D8C
:10A570000068FFF784F8306038B10220207231683B
:10A58000087928B101281CD114E06560BDE8F0818C
:10A59000D1E90503C01A142800D31420B7EB900F9B
:10A5A00001D2820800E001220869C96818441944F0
:10A5B00029DF03E0D1E90301084428DF38B111287D
:10A5C0000ED003213068FEF703FE2572DDE7207C04
:10A5D0000028DBD1BDE8F04100210220FFF790BD4B
:10A5E0002772D3E7A4340020102800203CBA0F00C3
:10A5F00038B5084C0121201D6A46FDF7DDFE0090AC
:10A60000002806D1607C002803D1BDE83840FFF760
:10A61000A5BF38BDA434002010B510461A46FDF77A
:10A6200035FF002010BD10B510461A46FDF72EFF6D
:10A63000002010BD2DE9F05F04460E460088FFF7AC
:10A640008BFF20806088FFF787FF3A4D81B26180E1
:10A650002869DFF8E4B0DFF8E4A0371F4FF4405971
:10A660004FF40078012803D003282DD0052829D1E4
:10A6700001291ED103202861E9803149D9F8080059
:10A680000022091A01F6FF71090BFFF7E9F900280A
:10A6900018D16088321F401EC11700EB517121F0A4
:10A6A0000701411A0BEB41200AF10401FDF7EEFE10
:10A6B0003CE0608800F064FA474503D2FEF7A8FE4C
:10A6C00002202870BDE8F09FEA88521C9142F0D128
:10A6D000E980491EC81701EB507020F00700091AE5
:10A6E0000BEB4120321F0AF10401FDF7CFFEA078E9
:10A6F000400701D0474519D242F21070FFF756F8D3
:10A700006088D9F80810401EC21700EB5270C010C4
:10A7100001EB00304FF48056002332460649FFF724
:10A72000BDF9FF2231460448FDF7C2FE00F0E2FC0D
:10A73000BFE700005C280020EC340020DC2800206B
:10A7400000800F002DE9F0411F4D04461E46E868C9
:10A750000F46824236D12088FFF7FEFE296980B27B
:10A76000022901D0012900D16E8007282AD2DFE812
:10A7700000F029292904291D0A0039462046BDE890
:10A78000F041FFF757BF012907D002291AD1042051
:10A790002861BDE8F04100F0ADBC0520286100F063
:10A7A000A9FCBDE8F041002000F0EAB92088FFF7DD
:10A7B000D3FE20806088FFF7CFFE6080FEF728FE82
:10A7C00001202870BDE8F0815C2800202DE9FE43BF
:10A7D0001646894604461D46C0B202AA0A21DDF883
:10A7E0002880FEF769FD4FF0FF37012822D19DF840
:10A7F000080022281ED1E0B201AA0921FEF75CFD63
:10A80000012817D1BDF80400A0B1B2B2E0B22B46C6
:10A810004946CDF8008000F00FF800B2ADF8040012
:10A82000002807DB2868FFF795FE2860BDF90400C3
:10A83000BDE8FE833846FBE72DE9FF4F002583B0D6
:10A84000984617460446082803D9681E07B0BDE895
:10A85000F08F60014FF0010A0830FEF793F883464D
:10A8600000F00F00022804D0042802D06FF004008A
:10A87000ECE72FB1DFF87C9139F8140018B11EE035
:10A880006FF00D00E2E74FF4427000EB44160AFA55
:10A8900004FA2046FEF7C3FC05463046FEF772F880
:10A8A00030B1554949881AEA010F06D01DB106E0BA
:10A8B0006FF00300CAE70020C8E7002DE9D0DFF8F9
:10A8C00038A100210AF1060A4FF484700AF8041036
:10A8D0000BF007014FF0800B00EB4416022920D04B
:10A8E00004295AD02946204600F0A6FD29F8145024
:10A8F00030464021FEF7ACF83046FEF743F800281A
:10A90000FAD139F81410491B0904090C29F814105C
:10A9100005D01AF8041041F001010AF80410284685
:10A9200094E739F814004D4680BB0822694620465A
:10A9300000F052FD30464021FEF78AF83046FEF71F
:10A9400021F80028FAD19DF8001088F800109DF831
:10A95000011088F801109DF8021088F802109DF887
:10A96000031088F8031010999DF8040008809DF8E2
:10A97000051001EB0020109908809DF806009DF855
:10A98000071001EB002025F814002BE02CE02A46EC
:10A990002046049900F020FDAAE739F814004D463E
:10A9A00010BB02226946204600F016FD30464021C9
:10A9B000FEF74EF83046FDF7E5FF0028FAD19DF886
:10A9C00000009DF8011001EB002080B240F2EA5136
:10A9D00025F81400884205D92046FEF71FFA6FF4C7
:10A9E0007A7033E70AF804B035F81450BD42CED976
:10A9F0003D46CCE7C83400204C280020054A18B159
:10AA000011B1C2E904017047034810610348506165
:10AA1000704700002428002007B50F0005B50F007F
:10AA2000074A10B513889C05FDD518B111B1C2E9CC
:10AA3000060110BD034890610348D06110BD0000BD
:10AA40002428002059B70F005DB70F0010B5FEF79E
:10AA500041FF002814D00B4A00210B48FEF7E8F80C
:10AA600008B1FEF793F8084800224FF4A0210068CF
:10AA7000FEF71CF9002803D0BDE81040FEF786B8A9
:10AA800010BD0000A59B0F000CBA0F0008467047D0
:10AA90000846704770B5012670044FF0E02100258C
:10AAA000C1F88001084C4010C4F84803C4F80803FA
:10AAB00066602F20FEF734FEA660044C2F20A560B0
:10AAC000FEF72EFEA57070BD00100140F827002093
:10AAD00038B50021012558B101280ED003280BD12B
:10AAE00007210020FFF7D2F9BDE83840FFF784B90D
:10AAF0004FF0E020C0F8805138BD8DF80010684656
:10AB0000FEF718F9064C207808B9FFF751F9E0680C
:10AB1000401CE060A5709DF80000FEF72FF938BDDD
:10AB2000583200203EB5044609496846FFF7B8FC94
:10AB300008E000BFD0E900212046904730B16846C8
:10AB4000FFF7C5FC02980028F4D13EBD11203EBDA0
:10AB500080BA0F003EB5044608496846FFF7A0FCDE
:10AB600007E000BFD0E90021204690476846FFF784
:10AB7000AEFC02980028F5D13EBD00008CBA0F0053
:10AB80001CB504460420FEF71FFCADF80400204667
:10AB9000FEF71AFCADF80600054804224188C36898
:10ABA000009101A9806800F05FF800F0AFFA1CBDC9
:10ABB0005C2800202DE9F043ADF2F45D8146984613
:10ABC00015460E4601AC0120FEF7FEFBADF8040071
:10ABD000A41C49462046FDF784FC4846FDF77AFC54
:10ABE0000444641C31462046FDF77BFC3046FDF7EB
:10ABF00071FC0619002415E055F834103046FDF7B5
:10AC000070FC55F83400FDF765FC064405EBC407FD
:10AC1000761C30467968FDF764FC7868FDF75AFCCD
:10AC20000644641C761C4445E6D30D4C01A8321A38
:10AC30004520E368009001A9A06800F015F8012004
:10AC400020614C462046FDF745FC421C2146054844
:10AC5000FDF71CFC00F05AFA0DF2F45DBDE8F0833C
:10AC60005C280020D8340020FFB581B0054614468A
:10AC70000E460A9F0498FEF7A5FB0490A2B2009727
:10AC8000E8B204AB314600F007F8A04201D04FF023
:10AC9000FF3005B0F0BD00002DE9F0471E46DDF89D
:10ACA000208015468A460446082803D94FF0FF3015
:10ACB000BDE8F08760014FF001090830FDF762FE42
:10ACC00000F00F00022804D0042802D06FF0040026
:10ACD000EEE7DDB13078717801EB0020B17801EB5F
:10ACE0000020F17811EB002013D0B8F1000F13D041
:10ACF0004FF4427000EB44100746FDF743FE422834
:10AD00000DD022280BD06FF00600D1E76FF00D00B8
:10AD1000CEE76FF00B00CBE76FF00A00C8E740F614
:10AD2000084000EB441004223146FDF7C1FE41F219
:10AD300008004FEA182100EB4410FDF789FE41F2AC
:10AD4000081008F0FF0100EB4410FDF781FE41F60A
:10AD5000087000EB4410FDF715FE4FF6FF7101EA95
:10AD60008020854200D90546DFF8888009FA04F67C
:10AD70002046FEF77AFA81463846FDF703FE38B1E1
:10AD8000B8F80200064206D04D4504D900208FE7EE
:10AD90006FF003008CE74D45EAD82A46514620461D
:10ADA00000F06BFB4FF4847000EB4410064620214A
:10ADB000FDF74EFE4FF4027000EB44143046FDF7F1
:10ADC000E1FD0028FAD12046FDF7DCFD00F01F0070
:10ADD000C10605D520461021FDF73AFE284667E753
:10ADE0000007F0D520460821FDF732FE6FF00C0079
:10ADF0005EE700004C2800204FF47E200549027DCC
:10AE00000A70027E4A70027F8A7090F82000C87033
:10AE100070470000E4270020002801D1FDF7EABFB9
:10AE2000704700002DE9F0411D4617460E460446C6
:10AE3000082803D94FF0FF30BDE8F081012E06D07D
:10AE4000022E04D0042E02D06FF00400F4E715F0B7
:10AE5000060F6FF00500EFD185B1012E02D0022E52
:10AE60000CD103E015F0210FE6D007E0A90601D5CB
:10AE70002906E1D5E90601D52906DDD52046FDF7ED
:10AE8000CDFF600105F0F0014FF0010831430830BB
:10AE9000FDF7DEFD224E57B93788781C80B2A0F549
:10AEA0007F413080F03902D14FF4404030804FF480
:10AEB0008160390A00EB4410FDF7CAFD4FF4A16030
:10AEC000F9B200EB4410FDF7C3FD4FF4847000EBC2
:10AED000441007460121FDF7BBFD3846FDF752FD42
:10AEE0000028FAD105F001007188A0400843708065
:10AEF000B18808FA04F08143B1800A49002021F8A2
:10AF000014000749891D08554FF4427000EB4415A1
:10AF10002846FDF737FD0028FAD060B28CE7000024
:10AF20004C280020C834002010B51620FDF708FE7C
:10AF300048B10A4882684FF4800152B1016821F497
:10AF40008001016010BDBDE8104042F20100FDF734
:10AF50001DBE4FF0E020C0F8801110BD9C330020D2
:10AF600010B51620FDF7ECFDB0B1124890F80004C2
:10AF70004009082813D290B1012810D004280ED01F
:10AF800005280CD00C4882684FF480016AB1016832
:10AF900041F48001016010BD42F2010001E042F283
:10AFA0000200BDE81040FDF7F1BD4FF0E020C0F811
:10AFB000001110BD16E000E09C33002010B5174AC8
:10AFC00086B00324D2E902015269CDE900010820CC
:10AFD0008DF8000007208DF8010028208DF8020070
:10AFE000FF208DF8030000208DF805004FF0804011
:10AFF00002902920039204908DF80C4004A8FFF7DA
:10B000004BF9049900EB8100C0F8004700231A4671
:10B0100069460248FEF75EFF06B010BD10BB0F0088
:10B020002DE9F843044610681E4615460F464FF0BA
:10B03000000810B1FEF746FFF8B1A86810B1FEF79E
:10B0400041FFD0B128792968C4F84415C4F84805EF
:10B05000287BA968C4F83415C4F838054FF48C75FA
:10B060004046C4F81881D4F818110091F2074FF047
:10B07000010107D0C4F8501506E087F81D801020A4
:10B08000BDE8F883C4F85005B20702D5C4F84015EE
:10B0900001E0C4F84005300700D42161386848B1A8
:10B0A00046F38000401C4FF040000FD0C4F804036A
:10B0B0000020E5E729462046FFF719FA0028F9D0D5
:10B0C000B87FFF28F4D0FFF7F5F8F1E7C4F80803DC
:10B0D000EEE70106C0F3072241EA0241C0F307424E
:10B0E00041EA022141EA106070470106090C41EA79
:10B0F0001020704704488169002903D00021816134
:10B10000C1610162704700005C2800200448816929
:10B11000002904D1012181610021C16101627047D0
:10B120005C280020024900200860FDF727FA000093
:10B130001C0500402DE9F84F1D4C00256846D4E958
:10B1400001A6FDF7BFFF002738B30023009A61680E
:10B150001CE0D1F800C00846944503D9ACEB0202CC
:10B160000A6015E0A2EB0C0263440760D0F80CC043
:10B17000C1698146BCF1000F08D006EB030828F036
:10B180007F48C0E9018CC9F81C5005460029E0D170
:10B1900028466160FEF77EF903E02846FEF77AF95B
:10B1A00010B15046FDF772FEE770BDE8F88F000061
:10B1B000F82700200D4B10B5596831B102680C68B2
:10B1C000A24204D8A21A0A60C161586010BD0B46A1
:10B1D00003E00B46C969121B21B10C689442F8D3F5
:10B1E000A41A0C600260C161D86110BDF82700206C
:10B1F0002DE9F041144E77683D462C4603E0844229
:10B2000004D02546E469002CF9D11BE0D4B1A54255
:10B210000BD1F869706040B90C49012088600021A9
:10B22000B160F0702F20FEF77BFA2168E069E861D9
:10B2300010B10268114401607068874202D0012099
:10B24000BDE8F0810020FBE7F82700200010014056
:10B250002DE9F041194D6C68002C2CD018480027BE
:10B260000068A968B846401A20F07F462068B042BE
:10B270000CD82146361A0744E469087C20B181F8CD
:10B280001080886949698847002CEFD1297868784F
:10B29000814206D1401CC0B26870022801D185F8F5
:10B2A0000180064869780C3040F82170BDE8F04113
:10B2B0001420FDF747B9BDE8F0810000F827002011
:10B2C0000415014010B50248FEF7EFF9002010BD4B
:10B2D0000C28002010B514210448FDF7F0F80448AC
:10B2E0000068FEF79BF9002010BD0000A434002088
:10B2F0003CBA0F0000B5264B87B00DF1040C0FCB04
:10B300008CE80F002348B02101704FF0805151F8B4
:10B31000A42F120A42700A68120C82700A68120E78
:10B32000C2704A6802714968090A41714FF47E216E
:10B330000A7982710A7AC2710A7B0272097C4172AF
:10B34000FFF73CFE14491548FFF758FB1449154810
:10B35000FFF766FB01A90120FDF732FE401C15D066
:10B3600069460F20FDF72CFE9DF800000028F7D05D
:10B3700001208DF814004FF47A70ADF8160005A87E
:10B3800000F0D6F9FEF736F907B000BDFEE7000081
:10B3900028BB0F008C28002009B50F0081B60F00D4
:10B3A000D5B70F005DB60F000A494A788B78521C5A
:10B3B000D2B2934200D100220B78934201D10020F7
:10B3C00070470270487800EB400001EBC000001DA0
:10B3D00070470000903200202DE9F0475FEA020834
:10B3E0008946064626D042F6081000EB4615284648
:10B3F000FDF7C8FA074642F6080000EB461420465F
:10B40000FDF7C0FA07EB002087B2380200EB4610C8
:10B41000424649461830FDF7E1FA07EB080086B2CC
:10B42000310A2046FDF714FBF1B22846BDE8F0478B
:10B43000FDF70EBBBDE8F0872DE9F041044642F66A
:10B44000081000EB44150E462846FDF79BFA074608
:10B4500042F6080000EB44142046FDF793FA07EB90
:10B460000020304486B2310A2046FDF7F1FAF1B2ED
:10B470002846BDE8F041FDF7EBBA2DE9F0475FEA59
:10B4800002088946064626D042F2085000EB4615CF
:10B490002846FDF777FA074642F2084000EB4614CB
:10B4A0002046FDF76FFA07EB002087B2380200EB69
:10B4B0004610424649461030FDF7FAFA07EB0800FD
:10B4C00086B2310A2046FDF7C3FAF1B22846BDE83C
:10B4D000F047FDF7BDBABDE8F0870078704701700E
:10B4E000704710B5040A00F0F0014FF4A850FDF7C2
:10B4F000AFFA2146BDE810404FF4B850FDF7A8BAA6
:10B50000704770477047704708B52920009068461B
:10B51000FEF7C2FE009A01219140C0F8081508BD4F
:10B5200010B54FF4A850FDF72DFA00F0F0044FF4D9
:10B53000B850FDF727FA04EB002080B210BD10B51B
:10B540004FF4B050FDF71EFA04464FF4C050FDF71B
:10B5500019FA04EB002080B210BD000010B50446BB
:10B56000014606224FF41060FDF738FA042204F178
:10B570000E019001FDF732FA042204F10A014FF4A2
:10B58000A060FDF72BFA0422A11D4FF47060FDF7B7
:10B5900025FA07480178A1744178E1748178217512
:10B5A000C07860750248401E0078A07510BD00008C
:10B5B0001D2800200020FDF7E5B970B504464FF4C2
:10B5C000D850FDF7DFF920704FF4D050FDF7DAF9CD
:10B5D00005464FF4C850FDF7D5F905EB0020608013
:10B5E00070BD2DE9F0410D460646002400F0B7F885
:10B5F0004FF0FF38AEB10022B05C521C204452B272
:10B6000044B2082AF8DB102C17DC002441F6087736
:10B61000315D07EB4410FDF71BFA641C64B2082C83
:10B62000F6DBCDB1002108462A5C401C114440B233
:10B6300049B20828F8DB102902DD4046BDE8F08158
:10B64000002441F60866295D06EB4410FDF700FA78
:10B65000641C64B2082CF6DB0020EFE71CB5002068
:10B660008DF8040001200022009001AB1146034830
:10B67000FEF7BAFC9DF804001CBD000010BB0F00D3
:10B6800008B5292000906846FEF706FE009A0121C1
:10B690009140C0F80C1508BD10B5C1B2040A4FF4B2
:10B6A000B050FDF7D5F92146BDE810404FF4C05029
:10B6B000FDF7CEB910B50446014606224FF41060DE
:10B6C000FDF7F6F9042204F10E019001FDF7F0F9FF
:10B6D000042204F10A014FF4A060FDF7E9F9042205
:10B6E000A11D4FF47060FDF7E3F90748A17C0170DC
:10B6F000E17C4170217D8170617DC1700249A07D36
:10B70000491E087010BD00001D28002010B5044619
:10B7100030F03A0002D04FF0FF3010BD0020FDF7AE
:10B7200031F940EA04010020FDF792F9002010BD34
:10B7300010B5044601784FF4D850FDF789F96088B8
:10B74000010A4FF4C850FDF783F9A178BDE8104015
:10B750004FF4D050FDF77CB9002070477047F0B52A
:10B7600085B04FF41064062269462046FDF736F98D
:10B770000422950102A92846FDF730F94FF4A0668E
:10B78000042203A93046FDF729F94FF4706704221B
:10B7900004A93846FDF722F980210020FDF758F969
:10B7A0000020FDF7EFF8062269462046FDF780F9F4
:10B7B000042202A92846FDF77BF9042203A930469A
:10B7C000FDF776F9042204A93846FDF771F905B0B2
:10B7D000F0BD000001B582B00020034600900122B8
:10B7E00002A90248FEF700FC0EBD000010BB0F00CE
:10B7F00010B504464FF43850FDF7C4F8C0F380117B
:10B80000217000F0380001220021202811D03828B2
:10B810000FD0617010280ED018280CD020280AD024
:10B82000A170082809D0182807D0202805D0E17079
:10B8300010BD6270EEE7A270F3E7E27010BD10B5C4
:10B840004FF43850FDF79EF8C00700D0012010BD1E
:10B8500010B500244FF43850FDF794F810F0300F75
:10B8600000D00124204610BD10B54FF438542046B6
:10B87000FDF788F820F080012046FDF7E9F8204622
:10B88000FDF780F840F080012046BDE81040FDF74C
:10B89000DFB810B502780021012A00D1402142789A
:10B8A000012A06D0C2788078012A05D001280BD061
:10B8B0000CE041F0380109E0012802D041F0080114
:10B8C00004E041F0180101E041F010014FF438505C
:10B8D000FDF7BEF8BDE81040FFF7C6BF70B50446DF
:10B8E0004FF438563046FDF74DF841064FF0FF351E
:10B8F0001AD520F03800012C10D040F03801304625
:10B90000FDF7A6F8FFF7B0FF3046FDF73BF8012C36
:10B9100007D000F0380038B1002070BD40F0300191
:10B92000EDE700F03000F6E7284670BD00207047D4
:10B93000002070472DE9F84380461C4617460E4606
:10B940000C48089DFDF7B8FE10B11120BDE8F88342
:10B95000A20839463046FEF7CFFC0648FDF7A5FEA3
:10B9600023463246012140460095FDF715FC002094
:10B97000ECE700000C2800202DE9F84F114D884617
:10B9800081461E4617466946DDF828A02868FDF75F
:10B9900060FE040013D01C21FCF791FD00202071F3
:10B9A000C4F80090C4E90486C4E902A7694628687F
:10B9B000FDF770FEFEF71CFE0020BDE8F88F0420A6
:10B9C000FBE700003CBA0F00BC280020010000008B
:10B9D0000000000000000000000000000200000065
:10B9E0000000000000000000000000000300000054
:10B9F0000000000000000000000000000400000043
:10BA000000000000000000000000000038320020AC
:10BA1000001000000400000001000000CD930F00A2
:10BA2000C5B20F0019A60F0035B90F0005910F0020
:10BA30008DAA0F002DB90F0035940F00B8340020E7
:10BA4000001000000400000001000000D9930F0066
:10BA5000D5B20F0027A60F0079B90F004D910F0046
:10BA600091AA0F0031B90F0045940F0064BB0F007D
:10BA70006CBB0F0000000000000000000100000788
:10BA80006CBA0F007CBA0F0008000000A4BA0F00C7
:10BA9000B4BA0F0008000000B4BA0F00C4BA0F0017
:10BAA000080000008CBB0F009CBB0F0000000000D2
:10BAB000000000007CBB0F008CBB0F0000000000EA
:10BAC0000000000000000000000000000000000076
:10BAD0000000000000000000000000000000000066
:10BAE00000000000E0270020C4BA0F00E4BA0F00F5
:10BAF000080000006CBB0F007CBB0F0000000000C2
:10BB000000000000F4BA0F0004BB0F0008000000A2
:10BB10000030004003000100FFFFFFFF07FF0000AF
:10BB200000000040000000000202020202020202C5
:10BB300002020202020202023500000074696D6511
:10BB40006F757400A8BB0F00E0270020DC00000028
:10BB5000208B0F0084BC0F00BC280020343C000068
:10BB6000308B0F00C9A00F000000000019AE0F00BD
:10BB70000000000001A10F00000000003DA30F0025
:10BB80000000000065A40F0000000000D1AA0F0013
:10BB900000000000E1A00F00000000000000000015
:10BBA00003000000559C0F0000000000010101018E
:10BBB0000000000000000000000000000000000085
:10BBC0000000000000000000000000000000000075
:10BBD0000000000000000000000000000000000065
:10BBE00000000000000000000000000001025735C6
:10BBF0003530300001B50F0003B50F0007B50F0059
:10BC000005B50F00DBB40F00DFB40F00000000002B
:10BC10000000000000C00000000000000000000064
:10BC2000000000000000000000000000FFFFFFFF18
:10BC300000000000000000000500000000000000FF
:10BC40000000000000000000000000003CBB0F00EE
:10BC500038BB0F000008DC00ABFE01010101FFFF53
:10BC6000FF000A0000010808080801000090D00346
:10BC70000000000000000000A9900F00001000006C
:04BC800000001000B0
:020000041000EA
:0410140000800F0049
:020000041000EA
:0410180000E00F00E5
:04000005000F820165
:00000001FF
