:02000004000FEB
:10000000887B0020A1050F00A9050F00AB050F009C
:10001000AD050F00AF050F00B1050F000000000097
:10002000000000000000000000000000F1040F00CC
:10003000B5050F0000000000B7050F00B9050F005F
:1000400061070F00BB050F00BB050F0071080F0013
:10005000BB050F00BB050F00BB050F00BB050F0064
:10006000BB050F00BB050F00BB050F00BB050F0054
:10007000BB050F00BB050F00BB050F00BB050F0044
:10008000BB050F00B1070F00BB050F00BB050F003C
:1000900089080F00BB050F0091080F00BB050F007A
:1000A000BB050F00BB050F00BB050F00BB050F0014
:1000B000BB050F00BB050F000000000000000000A2
:1000C000BB050F00BB050F00BB050F00BB050F00F4
:1000D000BB050F00BB050F00BB050F00BB050F00E4
:1000E000BB050F00BB050F00BB050F0000000000A3
:1000F00000000000BB050F0000000000BB050F0062
:1001000000000000000000000000000000000000EF
:1001100000000000000000000000000000000000DF
:1001200000000000000000000000000000000000CF
:1001300000000000000000000000000000000000BF
:1001400000000000000000000000000000000000AF
:10015000000000000000000000000000000000009F
:10016000000000000000000000000000000000008F
:10017000000000000000000000000000000000007F
:10018000000000000000000000000000000000006F
:10019000000000000000000000000000000000005F
:1001A000000000000000000000000000000000004F
:1001B000000000000000000000000000000000003F
:1001C000000000000000000000000000000000002F
:1001D000000000000000000000000000000000001F
:1001E000000000000000000000000000000000000F
:1001F00000000000000000000000000000000000FF
:10020000DFF80CD000F016FA0048004709230F0071
:10021000887B0020056885F308884068FF2464B265
:10022000EFF30585002D07D1EFF3148102229143EE
:1002300081F31488A64600472546064621273FBA83
:10024000F0B40024002500260027F0B4F92040B2C5
:100250000047000030B450E8012F93B2C489234412
:100260008489A34228BF1B1B0489A34202BFBFF39A
:100270002F8F002007E0C3EA020340E80134002C7E
:10028000E9D14FF001000A6030BC704750E8012FFF
:10029000C2EA024240E801210029F7D1704730B498
:1002A00050E8022F1FFAA2F3C488A34202BFBFF393
:1002B0002F8F00200DE0C48923448489A34228BFE6
:1002C0001B1BC2EA034340E80234002CE8D14FF084
:1002D00001000A6030BC704750E8022FC2EA224297
:1002E00040E802210029F7D17047034653E8022F66
:1002F000D988B2EB324F4FF0000017BF92B241EAFB
:10030000014142EA014104E05A68B2EB324F08BFB2
:10031000012043E80212002AE8D1704730B40446B5
:1003200054E8000F0D4644E80053002BF8D1156047
:1003300030BC704730B4044654E8000F40EA010571
:1003400044E80053002BF7D1156030BC704730B43F
:10035000044654E8000F00EA010544E80053002B6E
:10036000F7D1156030BC704730B4044654E8000F34
:1003700080EA010544E80053002BF7D1156030BC3A
:10038000704730B4044654E8000F00EB010544E820
:100390000053002BF7D1156030BC704730B40446D1
:1003A00054E8000FA0EB010544E80053002BF7D1FF
:1003B000156030BC7047000030B4044654E8000FAC
:1003C0000D4644E80053002BF8D1156030BC70474F
:1003D00030B4044654E8000F40EA010544E80053F5
:1003E000002BF7D1156030BC704730B4044654E898
:1003F000000F00EA010544E80053002BF7D1156017
:1004000030BC704730B4044654E8000F80EA010560
:1004100044E80053002BF7D1156030BC704730B46E
:10042000044654E8000F00EB010544E80053002B9C
:10043000F7D1156030BC704730B4044654E8000F63
:10044000A0EB010544E80053002BF7D1156030BC48
:100450007047000030B4044654E8000F0D4644E8ED
:100460000053002BF8D1156030BC704730B40446FF
:1004700054E8000F40EA010544E80053002BF7D18F
:10048000156030BC704730B4044654E8000F00EAF1
:10049000010544E80053002BF7D1156030BC7047CC
:1004A00030B4044654E8000F80EA010544E80053E4
:1004B000002BF7D1156030BC704730B4044654E8C7
:1004C000000F00EB010544E80053002BF7D1156045
:1004D00030BC704730B4044654E8000FA0EB01056F
:1004E00044E80053002BF7D1156030BC7047000082
:1004F0001EF0040F0CBFEFF30880EFF3098005F046
:100500006BB8000030B4044654E8000F0D4644E8D0
:100510000053002BF8D1156030BC704730B404464E
:1005200054E8000F40EA010544E80053002BF7D1DE
:10053000156030BC704730B4044654E8000F00EA40
:10054000010544E80053002BF7D1156030BC70471B
:1005500030B4044654E8000F80EA010544E8005333
:10056000002BF7D1156030BC704730B4044654E816
:10057000000F00EB010544E80053002BF7D1156094
:1005800030BC704730B4044654E8000FA0EB0105BE
:1005900044E80053002BF7D1156030BC70470000D1
:1005A0000648804706480047FEE7FEE7FEE7FEE70D
:1005B000FEE7FEE7FEE7FEE7FEE7FEE7C9080F00FD
:1005C00001020F000048704754800F0040EA010309
:1005D0009B0703D009E008C9121F08C0042AFAD2F9
:1005E00003E011F8013B00F8013B521EF9D27047BD
:1005F000D2B201E000F8012B491EFBD27047002265
:10060000F6E710B513460A4604461946FFF7F0FF11
:10061000204610BD421C10F8011B0029FBD1801A96
:100620007047034611F8012B00F8012B002AF9D17D
:1006300018467047064C074D06E0E06840F001039D
:1006400094E8070098471034AC42F6D3FFF7DCFD7E
:10065000F4840F0014850F0070B58C1810F8015B3E
:1006600015F0070301D110F8013B2A1106D110F84B
:10067000012B03E010F8016B01F8016B5B1EF9D14F
:100680002B0705D40023521E0DD401F8013BFAE7D5
:1006900010F8013BCB1A921C03E013F8015B01F840
:1006A000015B521EF9D5A142D8D3002070BD0000D5
:1006B00000F01F0201219140024A430942F8231031
:1006C0007047000080E200E000F01F02012191402D
:1006D0004209920002F1E022C2F8001170470000C6
:1006E00000F01F0201219140024A430942F8231001
:1006F0007047000000E200E010B5002807DA4A0762
:10070000140E054A00F00F031B1FD45403E04A07E0
:10071000130E024A135410BD18ED00E000E400E08F
:1007200000BF00BF00BFBFF34F8F00BF00BF00BFBF
:100730000948006800F4E06008490843001D0649C4
:10074000086000BF00BF00BFBFF34F8F00BF00BFF6
:1007500000BF00BF00BFFDE70CED00E00000FA05A0
:1007600010B54FF4807002F071F960B14FF48070F1
:1007700002F075F9012002F07BF901200B49487065
:10078000002000F09FFE4FF4827002F05FF958B134
:100790004FF4827002F063F9022002F069F901203F
:1007A0000249887000F08EFE10BD00004C3300201E
:1007B00010B500200949086000210948C0F844111B
:1007C000C0F84811C0F84C1100200549C1F80001DB
:1007D00002493C39086006F0F5FC10BD40110140AB
:1007E0000010014010B500F061FB10BD2DE9F0478D
:1007F000074688461646C24607EB47011B4800EBF2
:10080000C109D9F8140020B1012811D0022826D13D
:100810001EE0484600F082FB0546B54201D20024A6
:1008200005E0344632465146484600F0BEFB18E02B
:10083000484600F073FB0546B54201D2284600E069
:100840003046044622465146484600F0AEFB08E0DA
:1008500032465146484600F06FFB044601E0002452
:1008600000BF00BF2046BDE8F0870000184B002005
:1008700010B5034C2146034801F0D9FB10BD000020
:10088000603300200030004010B506F0C5FB10BDFD
:1008900070B5084A0021084600F046FC044600BF37
:1008A000254625B100BF284600F022FC00BF00BF4E
:1008B00070BD00007D130F000148024908607047B9
:1008C0000090D0030829002010B501F0DFF840B1F6
:1008D0000020794908604FF08041C1F81001774944
:1008E000086001F0E1F8002855D0754800687549A6
:1008F00008607348001D0068091D086070480830D2
:100900000068091D08606E480C300068091D086009
:100910006B4810300068091D086069481430006891
:10092000091D086066481830006866492031086073
:1009300063481C300068091D086061482030006869
:10094000091D08605E4824300068091D08605C4885
:1009500028300068091D086059482C300068091DBE
:1009600008605748303000685649403108605448A4
:1009700034300068091D0860514838300068091D8E
:1009800008604F483C300068091D08604C48403002
:100990000068091D086001F095F810B14A484B49FC
:1009A000086001F03BF810B1FB204949086001F0F4
:1009B00043F838B1474801784748006861F30300BD
:1009C0004549086001F046F818B14FF400704349FA
:1009D000086001F04DF840B14148006800F00100A6
:1009E00018B16FF001003E4908603E48006840F4CD
:1009F00070003C49086000BF00BF00BFBFF34F8FCD
:100A000000BF00BF00BF00BF00BF00BFBFF36F8FBC
:100A100000BF00BF00BF3448006800F0004030B99C
:100A20003148001D006800F00040002840D001203F
:100A30002E49086000BF2E4800680028FBD0122015
:100A40002949086000BF2A4800680028FBD012210D
:100A50002548001D016000BF254800680028FBD024
:100A600000202249086000BF214800680028FBD010
:100A700000BF00BF00BF00BF00BFBFF34F8F00BF6C
:100A800000BF00BF17487C38006800F4E0601949D7
:100A90000843001D13497C39086000BF00BF00BF38
:100AA000BFF34F8F00BF00BF00BF00BF00BFFDE717
:100AB000FFF702FF10BD00000C01004038050040A8
:100AC0000404001020C50040488103008C560040FB
:100AD00018F5004058020010E40E00404096024015
:100AE0000004004088ED00E00012001004E5014021
:100AF00000E401400000FA0570B505460C4601F01F
:100B00000FFA284604F0F2FD02490860024804602A
:100B100070BD0000602800208428002070B50446C5
:100B20000D46204605F026FF09490988042242EABD
:100B30000140224607A104F02BF90020104908705B
:100B40000123104A10A1284605F03AFD70BD0000AF
:100B5000982900205B544654505F726561645F724F
:100B60006571756573745D20536574205466747087
:100B700020536572766572203A2025780D0A0000B0
:100B800090280020882800206F637465740000009E
:100B90003EB52E480068002833D02D4800682D4906
:100BA000096888422DD300BF2B480068062815D25B
:100BB000DFE800F01404030C130B10E00123274AB4
:100BC00027A1294805F0FCFC09E000BF00BF274829
:100BD0000088054605F0B0FC01E000E000BF00BF62
:100BE00000201B49086022480068401C204908601A
:100BF00008460068052804D301F092F901201D4938
:100C0000087002A801AB40F2EA5200901A4801684D
:100C10001A48006805F0F2F804B2002C0ADA184904
:100C20000988042242EA014016A104F0A7F81148FD
:100C300000783EBDBDF8083021460F48019A006893
:100C400005F028F80B480078F3E70000782800202A
:100C50007C280020742800206C2800208828002090
:100C60006F63746574000000CC350020702800208C
:100C70008028002090280020842800206028002060
:100C8000982900205B726563765F7564705F7061A0
:100C9000636B65745D20726563765F7564705F7009
:100CA00061636B6574206572726F720D0A000000DB
:100CB00038B504461A498868804719490869804749
:100CC00000BF1748006A10B11548406A70B914484F
:100CD000C169C4F3074088471148C169C4F30720BC
:100CE0008847E0B20E4AD16988470DE0200C8DF8A4
:100CF0000000200A8DF80100E0B28DF802000848DB
:100D00000321426A6846904705498869804705463D
:100D10000349486980470249C8688047284638BD6A
:100D200024280020F8B504460E4617461F49886857
:100D300080471E490869804700BF1C48006A10B1FF
:100D40001A48406AC0B91948C169C4F307408847C6
:100D50001648C169C4F307208847E0B2134AD16935
:100D60008847002505E01149886980477055681C4F
:100D700085B2BD42F7DB12E0200C8DF80000200A9E
:100D80008DF80100E0B28DF8020008480321426AA4
:100D90006846904705483946026A304690470349FD
:100DA000486980470149C8688047F8BD2428002069
:100DB00038B504460D461A498868804718490869BD
:100DC000804744F004041648406A90B91448C16949
:100DD000C4F3074088471248C169C4F30720884715
:100DE000E0B20F4AD16988470D48C1692846884753
:100DF0000FE0200C8DF80000200A8DF80100E0B211
:100E00008DF802008DF8035005480421426A6846B7
:100E100090470349486980470149C868804738BD01
:100E200024280020F8B504460E4617461E49886857
:100E300080471D490869804744F004041A48406A05
:100E4000C0B91948C169C4F3074088471648C16949
:100E5000C4F307208847E0B2134AD16988470025C8
:100E600005E0705D104AD1698847681C85B2BD42B3
:100E7000F7DB12E0200C8DF80000200A8DF801004D
:100E8000E0B28DF8020008480321426A68469047A4
:100E900005483946426A30469047034948698047C9
:100EA0000149C8688047F8BD2428002010B5124CBD
:100EB00002202061606111A0A0611349E1614FF43B
:100EC000805121620021A1626162E1620BA0A064F5
:100ED0000E49E164102121650021A1656165E1658C
:100EE0000BA1E01DFFF79DFB0AA12046FFF799FB30
:100EF0002020A07110BD0000004B00205465726DD1
:100F0000696E616C00000000784B0020785B002067
:100F100052545400534547474552000010B501460E
:100F20000A69CB689A4204D88C68641EE41AA01837
:100F300001E0D41A601E10BD2DE9F0470446894631
:100F400017464FF0000AE56800BFD4F81080A845A6
:100F500003D9A8EB0500461E04E0A5EB0800401CE1
:100F6000A1680E1AA068401BB04201D9304601E0CA
:100F7000A068401B0646BE4201D2304600E038461B
:100F800006466168481932464946FFF71FFBB244DE
:100F9000B144BF1B3544A068A84200D10025E560DC
:100FA000002FD2D15046BDE8F0872DE9F047044626
:100FB00089461546E668A068871BAF4208D9616874
:100FC00088192A464946FFF701FB7019E06010E0D6
:100FD000B8466168881942464946FFF7F7FAA5EB1B
:100FE000070809EB070142466068FFF7EFFAC4F80B
:100FF0000C80BDE8F08702E008C8121F08C1002A73
:10100000FAD170477047002001E001C1121F002A89
:10101000FBD170470146202908DA012088400A4A9E
:10102000104008B1012070470020FCE7402909DA90
:10103000A1F12000012202FA00F008B10120F2E73C
:101040000020F0E70120EEE7FC06FFBD00BFEFF354
:101050001081084672B67047014601F0030008B9D6
:10106000012070470020FCE710B50346D86888428D
:1010700006D88818401E1C69A04201D8012010BD66
:101080000020FCE7014601F6FF706FF30B0070478C
:1010900008B504460D461646064900960988012201
:1010A00042EA01402B46224603A103F08DFEFFF7E2
:1010B00037FB0000A42900205265636569766564EA
:1010C0002061206661756C74212069643A20307853
:1010D000253038782C2070633A20307825303878E5
:1010E0002C20696E666F3A20307825303878000001
:1010F000044605490988012242EA0140224603A12B
:1011000003F046FEFFF70CFBA4290020526563653F
:101110006976656420616E206572726F723A203064
:1011200078253038782100002DE9F84307460C4631
:10113000904626480088844244DC4FF6FF75002024
:101140000090684600F0C2F800BF214890F8009077
:101150002048007801F06EFA484501D1012000E0F6
:10116000002030B91B480578007801F063FA19496E
:1011700008709DF8000000F0AFF84FF6FF70854250
:101180001ED01548006840F835808FB1002C0FDD67
:10119000124909680D4A128805FB02102246394699
:1011A000FFF714FA0C48006800EBC500848005E0E6
:1011B00000200949096801EBC5018880002600E08C
:1011C000042600E009263046BDE8F883FA2700200F
:1011D000F8270020F9270020F0270020F42700201E
:1011E00010B503460C4600BF0B48807808B90820AC
:1011F00010BD00BF0AB90720FAE70BB90720F7E7CF
:101200001868007C08B10820F2E71968002008740B
:101210004C744A6100BFEBE78433002010B505F041
:101220006DF800200F49087048700B20887000206E
:101230000D4908600D4908700D4908701420FFF72A
:1012400037FA07211420FFF757FA1420FFF73CFA6A
:10125000002005F029F805F021F806490860002073
:1012600010BD00008433002000280020102800203A
:1012700011280020042800202DE9F04104460E46E4
:101280001746254600BF1048807810B90820BDE8F1
:10129000F08100BF0CB90820F9E7052E01D2072024
:1012A000F5E7686908B90820F1E7687C012801D1F1
:1012B000304600E0002080463B4642463146284604
:1012C00005F050FFE3E700008433002010B504462A
:1012D000204605F08FF810BD70B5044625460E482F
:1012E0008068B0B1ADB9FFF7B1FE06460A480068A4
:1012F0000A490860084840684FF0E021C1F804013D
:101300000020054988601EB900BF62B600BF00BF5B
:1013100000BF00BF70BD00009034002000E100E07D
:1013200070B50F48007800060D49497840EA014041
:101330000B49897840EA01200949C97840EA01054A
:1013400008A631462846FFF7E9FB04E0FFF720FC3A
:10135000044604B100E0F9E700BF204670BD00007C
:10136000EC27002065746865726E65745F6D657347
:10137000685F6E6F64652E62696E000070B504462A
:101380000D4604F04DF870BD002112E00B48D0F876
:101390001024012306E000BF107A884201D1002307
:1013A00002E05268002AF6D100BF0BB10846704730
:1013B000491C0A29EADB4FF0FF30F8E7E04600203D
:1013C0002DE9F84F05460E46AF1C4FF002084FF0CE
:1013D0000109002000906846FFF778FF1B4800686D
:1013E00030601A48006819494968411A17488068EE
:1013F000401CA0EB010A07EB080B0BE000F01EFFFE
:101400001248006811494968411A10488068401C18
:10141000A0EB010AD345F1D80C4800680B49896854
:1014200008400A490C3101EB8004206820F00300D9
:10143000C01C20600548006838440C3908609DF8DD
:101440000000FFF749FF4846BDE8F88FE04600205E
:1014500070B504460D46A168481CA060206845543C
:10146000D4E90110884202D3204602F0F6FF70BD95
:101470000448406803490968884201D10120704747
:101480000020FCE7E04600202DE9F84F1026032558
:101490002C460027B846B9460096684603F0E8F99E
:1014A000824647EA480040EA850040EA092040EACF
:1014B00004410AF5E060009A40F8221000BF00BF26
:1014C000BDE8F88F70B505460DB9094C01E0084C30
:1014D000083409E0204600F0D1FD064606B904E0D4
:1014E00028467168884700BFF4E700BF70BD000060
:1014F0005433002010B5044600BF082C02DD4FF025
:10150000FF3010BD00BFA100491C4FF4807202EBF8
:10151000C1001021FFF74CFC00BFA100491C4FF493
:10152000807202EBC100FFF7C3FB0028F5D1A100D8
:10153000491C4FF4007202EBC1001F21FFF738FC79
:101540000120A0400B49098881430A4801800020FE
:10155000094921F814000949085500BFA100491C98
:101560004FF4407202EBC100FFF7A2FB0028F5D157
:101570000120C6E756280020BC350020582800204E
:101580002DE9F04782461F480068002836D01D48E4
:101590000068056804F082FE07461B48046821467F
:1015A000384605F0F9FCC61C1848007808B904F064
:1015B00087FEAE4201D2284600E03046044424F0C3
:1015C0007F44204604F064FE04F068FE80463946FD
:1015D000404605F0E1FC00F103093946204605F0DC
:1015E000DBFC814509D904F059FE814604F050FE28
:1015F0002F2001F055FA05F031FE01E004F07EFEE7
:10160000BDE8F087002800200428002012280020D0
:10161000F0B503460C4612B94FF0FF3001E01068F8
:10162000C0430146002012E01D5C694008250BE024
:1016300001F0010616B14FF0FF3600E00026064F1C
:101640003E4086EA51016D1E002DF1D1401CA042A2
:10165000EAD3C843F0BD00002083B8ED70B505465D
:101660000C46062D1CD2DFE805F003070B0F1317FD
:10167000204606F043F916E0204606F06BF812E02B
:10168000207806F067F970BD06F092F820700AE045
:10169000204606F072F906E0204606F08EF802E0D9
:1016A0004FF0FF30EFE700BF0020ECE72DE9FC41F1
:1016B00006460C460025002000900190102E79D29D
:1016C000DFE806F0080B1A161E2226323F51545846
:1016D0005C5D616C06F067F96FE01CB100940098E6
:1016E00008300190DDE9000106F07BF8BDE8FC81DF
:1016F000208805F0E1FF60E006F002F820805CE061
:10170000208806F0EBF858E006F00FF8208054E04F
:10171000208801124FF49850FFF74AFB21784FF4CC
:10172000A050FFF745FB48E04FF4A050FFF7C0FA88
:1017300007464FF49850FFF7BBFA07EB00202080D4
:101740003BE01F48807820701D48C07860701C48BE
:101750000079A0701A484079E070194880792071AA
:101760000020607129E006F0CEF926E0204606F060
:10177000E4F922E0204606F06FF91EE01DE0207833
:1017800006F007FAB2E706F0B0F9C5B268B2401C3D
:1017900010B94FF0FF30A9E725700EE006F098F978
:1017A000C5B268B2401C18B94FF0FF309EE701E0A7
:1017B000257002E04FF0FF3098E700BF002095E76A
:1017C000242800203EB504462148006820B1204866
:1017D0000068401E1E490860606898B91C4800688F
:1017E00000902178A368012901D11AA100E01BA172
:1017F0000A461C490988042545EA01401AA103F05C
:10180000E3FA15E012480268D4E902018DE8070006
:1018100021786368012901D10EA100E00FA10A46D9
:1018200010490988042545EA014019A103F0F6FA98
:10183000206958B10B490988042343EA014023A1D8
:10184000226903F0A5FA2046216988473EBD0000C1
:10185000E02700207772697465000000657261738B
:101860006500000020290020466C61736820257304
:1018700020737563636573733A20616464723D25F8
:10188000702C2070656E64696E672025640000000E
:10189000466C617368202573206661696C656420FD
:1018A0002830782578293A20616464723D25702CAF
:1018B000206C656E3D307825782062797465732CD4
:1018C0002070656E64696E672025640054686973D2
:1018D000206F7065726174696F6E20686164206149
:1018E0002063616C6C6261636B2C2063616C6C695A
:1018F0006E67206261636B20746F2025702E00007C
:10190000014614480078144A127890421DD01148BC
:101910000078401C0F4A107010460078022801D150
:10192000002010700D480B4A127850F82200086011
:101930000B4A086812681044094A10601046006893
:1019400020F07F401060012070470020086000BF39
:10195000FAE70000102800201128002008280020A5
:10196000042800202DE9F84380460C4615461F4602
:1019700000260E4800F0D7FE10B11120BDE8F88314
:1019800006E00B49096806FB014003F051FC761C98
:10199000AE42F6D1054800F0B0FE2B4622460221A9
:1019A0004046009700F09CF80020E7E7142800204C
:1019B000747D0F002DE9F84305460E4617469846FC
:1019C00069461048006800F060FE044614B904201F
:1019D000BDE8F8831C212046FEF711FE012020718E
:1019E0002560C4F8088008480068B6FBF0F0E060A5
:1019F000676169460348006800F071FE03F068FF04
:101A00000020E5E7AC7D0F00A07D0F0010B5044677
:101A1000D4E90321501828DF10BD000005480068F4
:101A2000082805D10348001D006808B90120704747
:101A30000020FCE73001001005480068082805D1A7
:101A40000348001D006808B9012070470020FCE72A
:101A50003001001005480068082805D10348001D22
:101A6000006808B9012070470020FCE73001001031
:101A700005480068082805D10348001D006808B91A
:101A8000012070470020FCE7300100100548006885
:101A9000082805D10348001D006808B901207047D7
:101AA0000020FCE73001001005480068082805D137
:101AB0000348001D006808B9012070470020FCE7BA
:101AC0003001001005480068082805D10348001DB2
:101AD000006808B9012070470020FCE730010010C1
:101AE0002DE9F04186B004460D4616461F46DDF846
:101AF0003080A06810B906B0BDE8F081142101A8BB
:101B0000FEF77DFD8DF8045003960497CDF8148000
:101B100001A8A168884700BFEDE7000030B585B097
:101B200004460D462068806808B905B030BD142110
:101B30006846FEF764FD0195A0680490207910B115
:101B4000012813D107E001208DF8000020690290E0
:101B5000606903900BE002208DF800000749E068FF
:101B60000968484302906069039000E000BF00BF2D
:101B7000206881686846884700BFD6E7A07D0F00CF
:101B8000F0B5034600241FE0124E306806689E42FE
:101B900003D90668F61A06601AE006689B1B0668F9
:101BA0003444002606600B4E35680A4FC6693E6015
:101BB000C66846B10E1926F07F464660C668866044
:101BC0001668C661156000BF024800680028DBD1B6
:101BD00000BFF0BD0028002010B50446A07FFF28FC
:101BE00002D0A07F02F074FE002060772072227E77
:101BF00006490988032343EA014005A103F0C8F818
:101C000004F10800D4E90021904710BD50290020BC
:101C10005472616E7366657220636F6D706C65746B
:101C200065642072785F6C656E3A25642E00000052
:101C300070B504460025002600BFA100491C4FF4E2
:101C4000185202EBC100FFF733F80646A100491C09
:101C50004FF4185202EBC10101F58070FFF728F82C
:101C600000EB062086B2AEB1A100491C4FF4185219
:101C700002EBC100FFF71CF80546A100491C4FF418
:101C8000185202EBC10101F58070FFF711F800EB6B
:101C9000052085B2B542D0D1284670BD70B5044646
:101CA0000025002600BFA100491C4FF4005202EBA2
:101CB000C100FEF7FDFF0646A100491C4FF400528B
:101CC00002EBC10101F58070FEF7F2FF00EB062088
:101CD00086B2AEB1A100491C4FF4005202EBC10024
:101CE000FEF7E6FF0546A100491C4FF4005202EB47
:101CF000C10101F58070FEF7DBFF00EB052085B226
:101D0000B542D0D1284670BD2DE9F04104460E46BB
:101D1000154600BF082C03DD4FF0FF30BDE8F08111
:101D200000BF0D2E6FD2DFE806F007121C263D48DB
:101D3000B55F7A7F848EA100A100491C002202EBCE
:101D4000C100FEF7B5FF00F0F0002870A5E0A1008B
:101D5000491C4FF4B05202EBC100FEF7A9FF2870F6
:101D60009BE0A100491C4FF4A85202EBC100FEF712
:101D70009FFF287091E0A100491C4FF4905202EBA4
:101D8000C10101F58070FEF793FF0746A100491CD1
:101D90004FF4905202EBC100FEF78AFF07EB0020E0
:101DA00028707AE0A100491C4FF4406202EBC100A8
:101DB00004222946FEF7B6FF6FE0A100491C4FF44C
:101DC000805202EBC10101F58070FEF771FF0746FA
:101DD000A100491C4FF4805202EBC100FEF768FFDE
:101DE00007EB0020288058E000BFA100491C00221A
:101DF00002EBC100FEF75CFF00F00F00012803D0EA
:101E00006FF004008AE745E000BFA100491C4FF4D1
:101E10003C5202EBC100FEF74BFF28803DE020461C
:101E2000FFF73CFF288038E02046FFF701FF2880BD
:101E300033E0A100491C4FF4407202EBC100FEF7F1
:101E400037FF287029E0A100491C002202EBC100E5
:101E5000FEF72EFF012804D12046FFF7E9FE288077
:101E600003E00F4830F81400288016E000BFA100FE
:101E7000491C002202EBC100FEF71AFF00F00F0020
:101E8000012802D06FF0040048E700BF0548005D5C
:101E9000287002E06FF0010040E700BF01203DE73D
:101EA000BC3500205828002000B50346184605F030
:101EB00039F800BD00B50346184605F041F800BDED
:101EC000024602485060002070470000747D0F00F9
:101ED0002DE9F843054688460D4C01266A463146F1
:101EE0002046FEF775FA074600BF00BF67B90948EC
:101EF000686003F0ADFA214608741C23FC220649F1
:101F00000648006800F0ADFB0020BDE8F883000043
:101F1000A8350020A07D0F009C340020AC7D0F0070
:101F200010B500200C49087004F024FD002004F0D6
:101F300043FD00200949088000BF04F059FD00203E
:101F400004F006FD002006490860064908600649BD
:101F500008600649087010BDCC3500206A280020B2
:101F6000782800207C28002080280020902800204D
:101F70002DE9FC5F83460E4691461F46DDE90C4580
:101F8000002E01DA704200E0304682464FF0010830
:101F900003E09AFBF9FA08F10108CA45F9DA474566
:101FA00000D9B84634B1002E03DB05F00400042844
:101FB00000D1641E05F0020000B167B105F0010018
:101FC00048B944B104E0641E20215846FFF740FAA6
:101FD0000CB1A045F7D3002E05DA76422D215846E4
:101FE000FFF736FA07E005F00400042803D12B219F
:101FF0005846FFF72DFA05F0020002280DD105F032
:10200000010050B94FB944B104E0641E3021584674
:10201000FFF71EFA0CB1A045F7D33B464A463146BE
:102020005846CDE9004505F03BF9BDE8FC9F70B589
:1020300005460C464FF48C71284603F088FA38B1F7
:102040004FF48C71284603F089FA2046FFF7C4FD4F
:1020500070BD000001460348006808B101207047C8
:102060000020FCE71428002001460348007A08B14C
:10207000012070470020FCE7A835002001460868D1
:1020800008B102680A607047026803E08A4200D122
:1020900070471268002AF9D103680BB1036800E0A9
:1020A00000230B60016000BFF2E770B501F08AFF0A
:1020B000044600BF25461DB100BF2846FFF718F8AB
:1020C00000BF002001F0CAFF70BD10B54FF4827050
:1020D00000F0C5FC022000F0D1FC082000F0DCFC80
:1020E00010BD000010B50C2000F0D6FC00BF00F0C1
:1020F000CBFC0028FBD10149887010BD4C33002077
:102100002DE9F041064600274748D0F8008078E0E6
:1021100016B13446E66947E04448007800EB4001D8
:102120004248001D00EBC105001F0078401C3F49DC
:102130000870084600788978884202D100203B491F
:1021400008706C68287801281AD0022802D0032869
:1021500017D107E0686804F0C1FF00B10127002033
:1021600020744EE007E030490868002101742E4ACF
:10217000C169116000BF2C4800680028F3D140E01D
:1021800000E03EE000BF207C00B13AE0A86860605B
:10219000E868A0602869E0606869A0612448007868
:1021A00008B10020606000BF224960680968401AD9
:1021B00020F07F402049884208D21E4960680968A3
:1021C00004F0EAFEA168084420600FE01948616845
:1021D000006804F0E1FE0546A068A84203D9A068A3
:1021E000401B206001E00020206000BF00206060F4
:1021F000A060012020740020E061204604F03AFF36
:1022000000BF002E84D109480078084949788842E7
:10221000F8D11FB904480068404502D00120BDE84C
:10222000F0810020FBE7000000280020843300201C
:102230001328002004280020FFFF7F002DE9FF5F06
:102240002F4800F065FA2E48001F00F061FA2D4873
:102250004468D0F8088004EA08002A490C3101EBF0
:1022600080090FE0641CB9F80000C0F38910D9F8A8
:10227000001000EB9150044404EA080021490C319D
:1022800001EB800999F8000000F003000028E9D074
:1022900000250BE02046641C00EA080019490C31B7
:1022A00051F8200001A941F825006D1C022DF1D341
:1022B000019800F00300012809D002280CD1042164
:1022C000019801EB9050401E04EB900405E001984A
:1022D000C0F38310044400E000BF00BF084F3F1F5D
:1022E0004FF0000B6A4659463846FEF724F98246FD
:1022F00000BF00BF56460EB102484460BDE8FF9FD4
:10230000F84A0020E046002070B5002002F01CFED4
:1023100002F0C2FB1A490988032242EA014019A1CE
:1023200002F02CFD02F0CAFBFFF7AEF804F05CFEF1
:1023300004F046FE00F04EFB044600BF25461DB1EA
:1023400000BF2846FEF7D4FE00BF00BF02F04CFEDF
:1023500000BF00BF02F0B2FB0028FBD100BF00BFEE
:102360004FF44051886800F085FA05490988032236
:1023700042EA014006A102F001FD002070BD00000C
:10238000A4290020496E73696465206D61696E003F
:102390004166746572206D61696E00002DE9FF5F12
:1023A00007468B46144698460397039FFD88B94617
:1023B00008F10400B0FBF5F0029008F10400B0FB56
:1023C000F5F105FB1100019008F1040020442844B8
:1023D000401EB0FBF5F0C0B2009004E0D9F80090C8
:1023E0000298401E029002980028F7D18246019878
:1023F0002E1AA64201D9204600E03046064620E0CB
:102400000E9848B109F10402019BD1180BEB0A00A8
:102410003246FEF7DBF808E00BEB0A0109F1040293
:10242000019BD0183246FEF7D1F800200190D9F870
:102430000090A41BB244A54201D9204600E02846E2
:102440000646002CDCD1BDE8FF9F000070B50346B6
:102450000C46ACB102F0ACFD054600220CE002EBEC
:102460004200084E06EB800148881E68B04202D147
:102470001A60002070BD521CAA42F0D30520F9E773
:102480000020F7E72029002010B586B03C49002045
:10249000FFF7E4F817213A48FEF7B1F83849012070
:1024A000FFF7DCF804A90820FFF700F9354909888F
:1024B000132242EA014004AA33A102F069FC304829
:1024C00040792F4909792E4AD2782D4B9B78CDE956
:1024D0000032CDE902102A494B780A782949098847
:1024E000132444EA01402EA102F0B4FC2448407AAF
:1024F0002349097ACDE900102149CB798A7921490C
:10250000098844EA014030A102F072FC1C48407C7A
:102510001B49097CCDE900101949CB7B8A7B1949FD
:10252000098844EA01402DA102F062FC1448407B76
:102530001349097BCDE900101149CB7A8A7A1149F8
:10254000098844EA01402AA102F052FC0C48407D6F
:102550000B49097DCDE900100949CB7C8A7C0949EA
:10256000098844EA014027A102F042FC0549098894
:10257000132242EA014028A102F000FC06B010BD7F
:1025800098280020A42900200D0A3D3D3D202573F8
:10259000204E455420434F4E46203D3D3D0D0A0000
:1025A0004D41433A20253032583A253032583A25A9
:1025B0003032583A253032583A253032583A2530A0
:1025C00032580D0A000000005349503A2025642E6D
:1025D00025642E25642E25640D0A00004741523AD9
:1025E0002025642E25642E25642E25640D0A000006
:1025F0005355423A2025642E25642E25642E2564E9
:102600000D0A0000444E533A2025642E25642E25E1
:10261000642E25640D0A00003D3D3D3D3D3D3D3DA0
:102620003D3D3D3D3D3D3D3D3D3D3D3D3D3D0D0A3D
:1026300000000000014604480088814201DA481C7D
:1026400000E00020C0B27047FC27002070B50446AF
:102650002046FDF74AFE05460DB1002070BD112051
:10266000FCE710B5044609B90E2010BD92FBF3F04B
:1026700003FB102008B10920F7E72160002060600B
:10268000A060A281E38100BFEFE770B504460D466C
:1026900029462046FDF7DEFD18B129882068084448
:1026A00070BD0020FCE770B505460C4620886188A7
:1026B000884204D12846FDF70FFE012070BD00209E
:1026C000FCE770B504460D4629462046FDF7E7FDB8
:1026D00018B169882068084470BD0020FCE770B517
:1026E00005460C4620886188884204D12846FDF7BB
:1026F000CDFD012070BD0020FCE7F8B504460025A3
:102700006A4629462046FDF722FE06460098F8BD97
:10271000F8B5044601256A4629462046FDF7FEFE27
:1027200006460098F8BDF8B5044601256A462946D4
:102730002046FDF7FFFD06463046F8BDF8B50446D5
:102740000026002000906846FEF7C0FD2068006863
:102750006168884215D920680068401E22681060B0
:102760000178204600F033F80646207A216809787F
:10277000401AC5B220680079A84201DA20680571C4
:1027800000BF9DF80000FEF7A7FD3046F8BD0246E9
:10279000D068081A138AB0FBF3F0C0B27047F8B5DE
:1027A00004460D462E46002000906846FEF78EFD3A
:1027B00031462046FFF7EBFF21680A68511C236869
:1027C000196010709DF80000FEF786FDF8BD024606
:1027D000138AD06801FB0300704700007CB50446F3
:1027E00000BF0CB90E207CBD00BF207A2179401AB1
:1027F000C5B2208A6843218ACDE900100E490988B4
:10280000032242EA01402B4622460CA102F0F0FAD4
:10281000D4E90010086005E020680168481C2268BF
:1028200010600D70281EA5F10101CDB2F4D1216810
:10283000087100BFD7E7000068290020506F6F6C57
:1028400020273078253038582720696E69746961EF
:102850006C697A6564202873697A653A2025752049
:1028600078202575203D20257520627974657329AF
:102870000000000070B5044620490988042242EA9D
:10288000014022461EA102F083FA00F03DFF0546FA
:1028900045B11A490988012242EA014026A102F005
:1028A0006DFA70BD15490988042242EA01402BA146
:1028B00002F064FA4FF0FF302E4908604FF0E0213B
:1028C000C1F880020D490988042242EA01402246EB
:1028D00029A102F05DFA204613DF054645B10749FC
:1028E0000988012242EA01402DA102F047FAD8E707
:1028F0002046FDF78FFC00BFD3E70000A42900208D
:1029000052756E6E696E67206E72665F626F6F746D
:102910006C6F616465725F6170705F737461727413
:10292000207769746820616464726573733A20303B
:1029300078253038780000004661696C6564207243
:10294000756E6E696E67206E72665F6466755F6D28
:1029500062725F696E69745F7364000044697361D9
:10296000626C696E6720696E7465727275707473DB
:102970000000000080E100E053657474696E672018
:10298000534420766563746F72207461626C6520B5
:10299000626173653A203078253038780000000095
:1029A0004661696C65642072756E6E696E6720732E
:1029B000645F736F66746465766963655F7665638B
:1029C000746F725F7461626C655F626173655F737F
:1029D0006574000010B50F490988042242EA0140DD
:1029E0000DA102F0CBF9002400F01EFE04460CB14C
:1029F000204610BD00F050FD04460CB12046F8E71B
:102A000004490988042242EA014009A102F0B6F90A
:102A10002046EEE7A4290020496E206E72665F62B0
:102A20006F6F746C6F616465725F696E69740000CA
:102A30004166746572206E72665F626F6F746C6F50
:102A4000616465725F696E697400000001464FF051
:102A50008040405808B1012070470020FCE708B5CD
:102A600000224FF080410A500958009100BF08BD74
:102A700001490860704700000803004001490860F0
:102A8000704700000403004002480068C0F30040A3
:102A90007047000018040040012291070A50704757
:102AA00000B9704700BF00BF00BF00BF00BF00BF3C
:102AB00000BF00BF00BF1F4909681F4A914200D1F3
:102AC00030E000BF00BF00BF00BF00BF00BF00BFBD
:102AD00000BF00BF00BF00BF00BF00BF00BF00BFFE
:102AE00000BF00BF00BF00BF00BF00BF00BF00BFEE
:102AF00000BF00BF00BF00BF00BF00BF00BF00BFDE
:102B000000BF00BF00BF00BF00BF00BF00BF00BFCD
:102B100000BF00BF00BF00BF00BF00BF00BF00BFBD
:102B200000BF00BF01460139084600D0BBE700BF27
:102B3000B7E70000082900200024F40000B970471E
:102B400000BF00BF00BF00BF00BF00BF00BF00BF8D
:102B500000BF1F4909681F4A914200D130E000BF01
:102B600000BF00BF00BF00BF00BF00BF00BF00BF6D
:102B700000BF00BF00BF00BF00BF00BF00BF00BF5D
:102B800000BF00BF00BF00BF00BF00BF00BF00BF4D
:102B900000BF00BF00BF00BF00BF00BF00BF00BF3D
:102BA00000BF00BF00BF00BF00BF00BF00BF00BF2D
:102BB00000BF00BF00BF00BF00BF00BF00BF00BF1D
:102BC00001460139084600D0BBE700BFB7E7000067
:102BD000082900200024F4002DE9F05F044646484F
:102BE000D0F824804FF4805B00274FF44050806879
:102BF0004149096B00EB01093F48006BA8EB000A53
:102C00003E490988042242EA01403DA102F0B6F89B
:102C10003948006B044400BFBAF5805F02D94FF415
:102C2000805000E05046054600220121484600F051
:102C3000E1FA074617B13846BDE8F09F00232A465F
:102C40002146484600F0BCFB07460FB13846F3E783
:102C50002A462146484600F00FFD07465FB1274946
:102C60000988012242EA014023464A462BA102F08C
:102C70009BF83846E0E72048006B28441E4908636B
:102C8000002001F015F90746A9442C44AAEB050AD7
:102C9000BAF1000FC0D14FF440510022886841467C
:102CA000FEF7B6FC06461448816AB1420ED11349BC
:102CB0000988042242EA014027A102F05FF80121BD
:102CC0000D480162C661C0F818800AE00A498A6AA4
:102CD0000A490988012343EA01403346244902F0A6
:102CE00063F80548243000F0BBFC002001F0E0F858
:102CF00007463846A0E70000BC2F0020A42900208A
:102D0000456E746572206E72665F6466755F617091
:102D1000705F636F6E74696E75650000496E7661F1
:102D20006C6964206461746120647572696E6720E7
:102D3000636F6D706172653A207461726765743A91
:102D4000203078253038782C207372633A20307820
:102D5000253038780000000053657474696E672070
:102D60006170702061732076616C696400000000FE
:102D700058800F0010B51D490988042242EA01401D
:102D80001BA101F0FBFF2148006A012809D0174967
:102D90000988042242EA01401DA101F0EFFF002052
:102DA00010BD1A48C069B8B1184A91694FF4405231
:102DB00090680022FEF72CFC04461448C069A0422B
:102DC00009D00A490988042242EA014018A101F009
:102DD000D5FF0020E4E700BF04490988042242EA45
:102DE000014018A101F0CAFF0120D9E7A429002061
:102DF000456E746572206E72665F6466755F6170A1
:102E0000705F69735F76616C69640000BC2F00209D
:102E100052657475726E2066616C736520696E20F0
:102E200076616C69642061707020636865636B0013
:102E300052657475726E2066616C736520696E20D0
:102E40004352430052657475726E20747275652E1C
:102E500020417070207761732076616C6964000096
:102E6000F8B504460F460E2524493868496B461AC2
:102E7000234900960988042242EA01402346214A58
:102E800021A101F0A1FF2DB1324621461D4800F0DD
:102E9000F3FB0546BDB91A490988042242EA0140FC
:102EA00027A101F06BFF384600F0DAFB14490988CE
:102EB000042242EA014028A101F060FF304800F0FE
:102EC000F7FF054617E00E490988042242EA01404F
:102ED000334622462BA101F067FF3146204600F021
:102EE000E3FB05463DB106490988012242EA01405B
:102EF00033A101F043FF2846F8BD0000BC2F00209D
:102F0000A429002000000F00566572696679696E79
:102F10006720424C3A20416464723A203078253070
:102F200038782C205372633A203078253038782C4A
:102F3000204C656E3A20307825303878000000004B
:102F4000426F6F746C6F6164657220776173207675
:102F5000657269666965640057726974696E672095
:102F600073657474696E677320616E642072657333
:102F70006574696E67206465766963652E0000007C
:102F8000FD610F00426F6F746C6F61646572206E3B
:102F90006F742076657269666965642C20636F7052
:102FA00079696E673A205372633A20307825303859
:102FB000782C204C656E3A20307825303878000027
:102FC0005265717565737420746F20636F7079201A
:102FD000424C206661696C65640000002DE9F04197
:102FE00005464FF44050866812490988042242EA97
:102FF000014011A101F0C2FE15480069012802D16B
:10300000134C18340CE01248406910B9104C1834B5
:1030100006E00F4C24340E498869FEF733F8064465
:103020002A463146204600F015F807463846BDE8E6
:10303000F0810000A4290020456E746572206E7234
:10304000665F6466755F636F6E74696E75650000B8
:10305000BC2F00202DE9F04104460E4615460027FE
:10306000A068A5281BD004DC002847D0012844D143
:1030700004E0AA2823D0AC283FD12EE026490988B5
:10308000042242EA014025A101F078FE2648406969
:10309000012803D13046FFF79FFD074637E01E4960
:1030A0000988042242EA014020A101F067FE21467E
:1030B000304600F0D9FB07460120286027E016497A
:1030C0000988042242EA01401BA101F057FE214673
:1030D0003046FFF7C5FE074619E00F49098804226C
:1030E00042EA014017A101F049FE2146304600F0B6
:1030F00059FB07460120286009E000BF06490988FE
:10310000012242EA014013A101F038FE00BF00BFD6
:103110003846BDE8F0810000A429002056616C69A2
:103120006420417070000000BC2F002056616C6963
:10313000642053440000000056616C696420424CD6
:103140000000000056616C6964205344202B20422B
:103150004C00000053696E676C653A20496E7661D9
:103160006C69642062616E6B0000000010B51E483F
:103170000068AA2804D100201B490860012010BD66
:1031800019480068BB2818D100201749086000BF03
:10319000102000BF202802D24FF0A04202E000F031
:1031A0001F00124A114600BFD1F81025C24002F09C
:1031B0000102002AECD10120E1E70D48806D0128D1
:1031C0000FD100200A49886500BF00F071FE044657
:1031D00024B100BF2046FDF78BFF00BF00BF0120D8
:1031E000CDE70020CBE700001C05004000030050A5
:1031F000BC2F0020F8B504460D461746124800685B
:10320000401C114908600846006810490090098870
:10321000042242EA01402B4622460DA101F0D4FDD2
:103220003B462A4621461A4801F01DFA064646B199
:1032300006490988022242EA0140324615A101F0FE
:10324000A7FD3046F8BD0000E0270020202900201F
:103250006E72665F6673746F726167655F657261D7
:10326000736528616464723D307825702C206C652C
:103270006E3D2564207061676573292C207175652A
:1032800075652075736167653A202564000000004C
:103290000C2900206E72665F6673746F72616765D9
:1032A0005F65726173652829206661696C656420B9
:1032B00077697468206572726F7220307825782E75
:1032C0000000000070B504460CB113A100E014A189
:1032D0000A4615490988042343EA014013A101F075
:1032E00057FD4CB110490988042242EA01401DA152
:1032F00001F044FD254D08E00B490988042242EA0B
:10330000014023A101F03AFD2B4D002229462B4814
:1033100001F0D3F970BD0000747275650000000003
:1033200066616C73650000002029002043616C6CAD
:10333000696E67206E72665F6466755F666C617346
:10334000685F696E69742873645F6972715F696E22
:10335000697469616C697A65643D2573292E2E2E26
:1033600000000000496E697469616C697A696E6772
:10337000206E72665F6673746F726167655F7364F7
:10338000206261636B656E642E000000B07D0F00EB
:10339000496E697469616C697A696E67206E7266DC
:1033A0005F6673746F726167655F6E766D632062CE
:1033B00061636B656E642E00807D0F000C29002018
:1033C0002DE9F84304460E46174698461348006810
:1033D000401C12490860084600681149009009889D
:1033E000042242EA01403B4622460EA101F0ECFCD9
:1033F0003B46324621461B48CDF8008001F0CEF90D
:10340000054645B106490988022242EA01402A469A
:1034100015A101F0BDFC2846BDE8F883E027002097
:10342000202900206E72665F6673746F7261676533
:103430005F777269746528616464723D25702C2021
:103440006C656E3D30782578206279746573292C1F
:103450002071756575652075736167653A2025640F
:10346000000000000C2900206E72665F6673746FA6
:10347000726167655F777269746528292066616982
:103480006C65642077697468206572726F72203091
:103490007825782E0000000038B500250020009027
:1034A00032490988032242EA014031A101F066FC59
:1034B000002000F03DFC6846FFF790FD05464DB149
:1034C0002A490988032242EA01402FA101F056FC53
:1034D00001200090FFF74AFE48B1244909880322E1
:1034E00042EA014033A101F049FC012000904FF471
:1034F00040508468009810B92068401C88B91B4966
:103500000988032242EA014034A101F037FC03F0AC
:1035100023FF37490220FDF7EFFA03F053FAFDF7D6
:10352000FFFEFFF727FCB0B14FF440518A680F4906
:103530000988032343EA01402EA101F029FC00BFC2
:1035400000BF01F0BBFA0028FBD100BF4FF440518F
:103550008868FFF78FF905490988032242EA01408C
:103560002AA101F00BFC002038BD0000A429002096
:10357000496E207265616C206E72665F6466755F6D
:10358000696E69740D0A0000436F756C64206E6F7C
:103590007420636F6E74696E756520444655206FA4
:1035A0007065726174696F6E3A20307825303878B2
:1035B0000D0A00004170706C69636174696F6E2060
:1035C00073656E7420626F6F746C6F6164657220D6
:1035D000726571756573740A00000000456E74654C
:1035E0007220426F6F74204D6F64650D0A000000F9
:1035F000D02900204A756D70696E6720746F3A207B
:103600003078253038780D0A000000004166746576
:1036100072207265616C206E72665F6466755F69A8
:103620006E69740D0A00000010B50549098804226E
:1036300042EA014003A101F0A1FB002010BD0000FF
:10364000A4290020696E207765616B206E72665F29
:103650006466755F696E69745F75736572000000FA
:103660000021016041608160024A11635163116170
:1036700051617047BC2F00202DE9FF4104460D46E3
:1036800016464FEA9608074B0FCB8DE80F000194C2
:103690000295CDF80C80684618DF0746384604B01E
:1036A000BDE8F081247D0F002DE9FF4104460D4661
:1036B000AF080020009001900290039001940297BF
:1036C000684618DF0646304604B0BDE8F0810000C9
:1036D0002DE9FF4104460D461646B708C7F3090019
:1036E00018B1092004B0BDE8F081064B0FCB8DE87E
:1036F0000F00019502940397684618DF8046404604
:10370000F0E70000047D0F001FB5054B0FCB8DE8DF
:103710000F00684618DF0446204604B010BD0000C4
:10372000147D0F0012490988042242EA014011A1C8
:1037300001F024FB00BF00BF00BF00BF00BFBFF30C
:103740004F8F00BF00BF00BF1448006800F4E06066
:1037500013490843001D1149086000BF00BF00BFA6
:10376000BFF34F8F00BF00BF00BF00BF00BFFDE72A
:10377000A429002044465520726573657420647541
:103780006520746F20696E6163746976697479204D
:1037900074696D656F75742E000000000CED00E01B
:1037A0000000FA0570B505460E4600241849098840
:1037B000042242EA014017A101F0E0FA1D48806CA2
:1037C00008B11C48856C3146284600F0A1F8044633
:1037D0004CB10F490988012242EA014016A101F0CB
:1037E000CDFA204670BD1348406B0544314628464B
:1037F000FFF736FB04464CB105490988012242EA2D
:10380000014013A101F0BAFA2046EBE72046E9E7B0
:10381000A4290020456E746572206E72665F64662E
:10382000755F73645F626C5F636F6E74696E7565FC
:1038300000000000BC2F002053442B424C3A205380
:103840004420636F7079206661696C6564000000D4
:1038500053442B424C3A20424C20636F70792066CF
:1038600061696C656400000070B506460D4613483A
:10387000806C08B11148866C2946304600F048F843
:1038800004464CB10E490988012242EA01400DA1CB
:1038900001F074FA204670BD2846FFF7E1FE0849A2
:1038A0000988042242EA01400EA101F067FA174894
:1038B00000F0FEFA04462046EDE70000BC2F002091
:1038C000A429002053442075706461746520636FDF
:1038D0006E74696E756174696F6E206661696C657E
:1038E0006400000057726974696E672073657474B0
:1038F000696E677320616E64207265736574696EAA
:1039000067206465766963652E000000FD610F0025
:103910002DE9FE4F05468B464FF000086848006BC6
:1039200000F580566649496B654A126B881AFDF7A7
:10393000A9FB0746B808FDF7A5FB044661490988BD
:10394000042242EA014060A101F018FA5C48006BD1
:1039500005445B48406B80B15948006B5849496B3E
:1039600088420AD157490988042242EA014060A1ED
:1039700001F004FA0020BDE8FE8F5148006B28BB1F
:103980004FF40050405D142803DD42F2140040590A
:1039900000E000205B49B0FBF1F94FF440500078A3
:1039A000142803DD4FF44050406900E000205549E1
:1039B000B0FBF1FA43490988042242EA01404B4630
:1039C000524651A101F0F0F93D48856400BFBC4268
:1039D00003D93846FDF756FB044630192B193949EF
:1039E000CDE9006002940988042242EA01402A4697
:1039F00050A101F013FA224629463046FFF768FE2F
:103A00008046B8F1000F0CD02E490094098801229D
:103A100042EA01402B46324654A101F0D5F9404616
:103A2000A9E730192B192749CDE9006002940988CC
:103A3000042242EA01402A465B4901F0EFF922469E
:103A400029463046FFF718FE8046B8F1000F0CD02B
:103A50001C4900940988012242EA01402B46324663
:103A600052A101F0B1F9404685E730192B191549EB
:103A7000CDE9006002940988042242EA01402A4606
:103A80005AA101F0CBF926442544BC4201D90027B4
:103A900000E03F1B0B490988042242EA014061A172
:103AA00001F06CF90648406BC01B05490863002013
:103AB00000F0FEF98046002F89D140465BE7000008
:103AC000BC2F0020A4290020456E746572206E7200
:103AD000665F626F6F746C6F616465725F64667558
:103AE0005F73645F636F6E74696E756500000000DC
:103AF000534420616C726561647920636F706965FD
:103B000064000000A08601005570646174696E67EE
:103B10002053442E204F6C64205344207665723A23
:103B20002025642C204E6577207665723A20256426
:103B300000000000436F7079696E67205B30782564
:103B40003038782D3078253038785D20746F205BE0
:103B50003078253038782D3078253038785D3A2027
:103B60004C656E3A20307825303878004661696CB3
:103B7000656420746F20636F70792053443A207419
:103B800061726765743A203078253038782C20735C
:103B900072633A203078253038782C206C656E3A84
:103BA0002030782530387800A0800F004661696C9D
:103BB000656420746F20436F6D706172652053449B
:103BC0003A207461726765743A203078253038780D
:103BD0002C207372633A203078253038782C206C92
:103BE000656E3A20307825303878000056616C696F
:103BF0006461746564203078253038782D307825FC
:103C000030387820746F203078253038782D30782F
:103C1000253038783A2053697A653A203078253053
:103C20003878000046696E69736865642077697446
:103C30006820746865205344207570646174652E33
:103C400000000000014600BF09B90E20704700BF08
:103C50000348086003484860012008720020F5E727
:103C6000693C0F00AF3C0F0070B505460C461126AD
:103C700000BF0CB90E2070BD00BF2078052813D2FC
:103C8000DFE800F003050C0E10000820F3E7022027
:103C90002070284600F024F8064605E01120EAE7E7
:103CA0000820E8E70820E6E700BF3046E3E70246E1
:103CB000112300BF09B90E20704700BF0878022801
:103CC0000BD1022A03D0032A05D10820F4E70023F0
:103CD0000320087000E000BF00BF1846ECE70000BA
:103CE0002DE9F04104460C4D2E6800BF14B90E209A
:103CF000BDE8F08100BF701C08B10820F8E7002281
:103D00001821201DFDF784FC20600722214628464B
:103D100029DF07463846EBE79CF10F0010B500227B
:103D200058210248FDF774FC10BD0000C02F002090
:103D300070B505460DB12BA100E02CA10A462D4916
:103D40000988042343EA01402BA101F021F8284609
:103D5000FFF7B8FA04466CB126490988012242EA05
:103D60000140224632A101F013F800BF2046FDF7C2
:103D7000BFF900BF4FF4DC7238493948FCF726FC24
:103D800037480068401C40B1FFF7C8FF064634487A
:103D90000068B04200D170BD00BF164909880422F6
:103DA00042EA01402FA100F0E9FF4FF4DC712C48FA
:103DB000FCF725FC01202A494860002000F078F833
:103DC00004466CB10B490988012242EA01402246AF
:103DD0002CA100F0DDFF00BF2046FDF789F900BFF0
:103DE00000BFD8E7747275650000000066616C73EF
:103DF000650000003829002052756E6E696E6720DC
:103E00006E72665F6466755F73657474696E6773FE
:103E10005F696E69742873645F6972715F696E6946
:103E20007469616C697A65643D2573292E00000010
:103E30006E72665F6466755F666C6173685F696EFB
:103E400069742829206661696C65642077697468E3
:103E5000206572726F723A202578000000F00F0022
:103E6000BC2F0020526573657474696E6720626FA1
:103E70006F746C6F616465722073657474696E67CA
:103E8000732E00006E72665F6466755F666C6173A8
:103E9000685F77726974652829206661696C65645A
:103EA0002077697468206572726F723A20257800F5
:103EB00070B504461F490988042242EA01401EA148
:103EC00000F05CFF1B490988042242EA01401F4AB6
:103ED0001FA100F05DFF002201211C48FFF78AF9B5
:103EE00005464DB113490988012242EA014020A14B
:103EF00000F044FF032070BDFFF710FF2549086064
:103F00004FF4DC722448FCF761FB23464FF4DC726B
:103F100021490E48FFF754FA05464DB10549098875
:103F2000012242EA01401DA100F028FF0320E2E740
:103F30000020E0E73829002057726974696E672015
:103F400073657474696E67732E2E2E0000F00F0077
:103F500045726173696E67206F6C64207365747459
:103F6000696E67732061743A2030782530387800A4
:103F7000436F756C64206E6F742065726173652089
:103F80007468652073657474696E67732070616707
:103F900065210000BC2F002074310020436F756C38
:103FA00064206E6F74207772697465207468652070
:103FB0004446552073657474696E67732070616739
:103FC0006521000010B500241648007808B185244A
:103FD00025E000201349886048600861C86000BF80
:103FE00000BF4109890001F1E021D1F8001101224F
:103FF0008240114009B1012100E0002119B90721D7
:10400000002000F061F800BF01F022FA20B9012081
:104010000549086000BF00BF012002490870204622
:1040200010BD00004C3300201805004008B50020EA
:1040300000906846FDF74AF90748C068401E0649E7
:10404000C8600846C06808B9FEF74CF89DF8000043
:10405000FDF742F908BD00004C33002038B5044696
:104060001848807890B114B1012061688847002019
:1040700000906846FDF72AF91248C068401C1149B3
:10408000C8609DF80000FDF727F919E000200090B6
:104090006846FDF71BF924B121460A481030FDF7A8
:1040A000F3FF0848C06808B9FEF70FF80548C06874
:1040B000401C0449C8609DF80000FDF70DF900BFE1
:1040C00038BD00004C33002070B50B4601461A463F
:1040D000002907DA5407260E104C01F00F052D1F9A
:1040E000665503E05407250E0D4C655400BF00BF14
:1040F00000F01F02012191400A4A440942F82410AD
:1041000000BF00BF00F01F02012191404209920050
:1041100002F1E022C2F8001100BF70BD18ED00E00E
:1041200000E400E080E200E0014601F06040B0F110
:10413000005F01D1012070470020FCE72DE9FF4F0F
:1041400083B081460C46934699F8050000EBC00009
:10415000614901EB8006307F98B14FF0080A504664
:1041600001F02CFA05465D490988022242EA014025
:104170002B465B4A5BA100F017FE504607B0BDE836
:10418000F08FC6F800B006987060207B012803DC31
:10419000207800F05FFB02E0207800F099FB00201F
:1041A00000900190207800231A46012100F02CFB9A
:1041B0006078FF2808D094F80180404600F04AFB60
:1041C000404600F03BFB01E04FF0FF38A078FF28AD
:1041D0000CD0A7780125002000902B46024601460E
:1041E0000190384600F010FB00BF01E04FF0FF37B0
:1041F000E078FF2805D0E07800F06AFBE07800F076
:104200001DFBE07899F8051001EBC101324A02EB81
:1042100081018877D9F8005028462178C0F8081520
:10422000C0F80C854FF4A262175000BFA068C5F813
:10423000240500BF217B627B0AB1012300E000233B
:10424000184631B1012906D0022907D0032908D028
:1042500000BF00BF08E040F0020005E040F00400AD
:1042600002E040F0060000BF00BFC5F8540500BFE3
:104270006079C5F8C00500BF306818B140212846F4
:1042800001F076F900BF0720C5F8000500BF3068CF
:1042900020B1217999F90400FFF716FF002070770B
:1042A000012030770D490988032242EA014015A117
:1042B00000F064FD4FF0000A504601F07FF905461A
:1042C00006490988032242EA01402B46044A05A117
:1042D00000F06AFD504651E760330020502900206D
:1042E000487D0F0046756E6374696F6E3A202573C2
:1042F0002C206572726F7220636F64653A2025739B
:104300002E000000496E6974000000002DE9FF4195
:1043100080460C4615461E460A9F009402968DF86C
:1043200004508DF80C7009490988032242EA0140C3
:104330003B462A4606A100F037FD0022694640466A
:1043400000F016F804B0BDE8F0810000502900200C
:104350005472616E736665722074785F6C656E3A34
:1043600025642C2072785F6C656E3A25642E0000FF
:104370002DE9F04705460E461746687900EBC00068
:10438000204901EB80044FF00008607F90B14FF0AE
:104390001108404601F012F981461B4909880222A2
:1043A00042EA01404B46194A19A100F0FDFC404683
:1043B000BDE8F087206820B107F0140008B901209B
:1043C000607796E80E10C4E9053CC4E903121E3478
:1043D000E07820F00100E070E07820F00200E0706A
:1043E000E07820F00400E07014F81E09FF2802D0E5
:1043F000A07F00F02FFA3B4632462146286802F0A3
:1044000047FCD5E76033002050290020637D0F0072
:1044100046756E6374696F6E3A2025732C20657241
:10442000726F7220636F64653A2025732E0000005E
:104430000FB438B50446059810B938BC5DF814FBC4
:104440000020009006A800906A462046059900F0DA
:1044500012F80020009000BFEFE770B50446A06896
:1044600000B970BDD4E90403A26821689847002010
:10447000A06000BFF5E72DE9FC5F82460D461446BB
:104480000DB9BDE8FC9F00BF2E786D1C06B9E1E0B8
:10449000252E70D100274FF0010900BF2E782B2E5A
:1044A0000CD02D2E02D0302E0CD103E047F00107A6
:1044B0006D1C0AE047F002076D1C06E047F0040798
:1044C0006D1C02E04FF0000900BF00BFB9F1000F02
:1044D000E4D14FF0000800BF2A2E06D12168081D44
:1044E0002060086880446D1C0DE02E78302E01DBC2
:1044F000392E00DD07E06D1CA6F1300008EB8801C5
:1045000000EB4108E8E700BF4FF0000B2E782E2E9D
:1045100010D16D1C00BF2E78302E01DB392E00DD4E
:1045200007E06D1CA6F130000BEB8B0100EB410B9B
:10453000F1E700BF2E7800BF6C2E01D0682E02D1AB
:104540006D1C2E7800E000E0F6E700BF692E21D058
:1045500008DC252E6DD0582E39D0632E0CD0642E59
:104560006CD116E0702E4CD0732E3ED0752E1FD01D
:10457000782E63D12AE065E02168081D2060D1F81B
:10458000009009F0FF00019050460199FCF760FF90
:1045900055E000BF2168081D2060D1F800905B46FF
:1045A0000A2249465046CDE90087FDF7E1FC46E086
:1045B0002168081D2060D1F800905B460A22494618
:1045C0005046CDE9008702F06BFE38E000BF21685D
:1045D000081D2060D1F800905B46102249465046E5
:1045E000CDE9008702F05CFE29E02168081D20600B
:1045F000086801903B4642465046019902F058FC3B
:104600001DE02168081D2060D1F80090302150463F
:10461000FCF71EFF78215046FCF71AFF0020082106
:104620000B461022CDE900104946504602F038FEF4
:1046300005E025215046FCF70BFF00E000BF00BF5E
:104640006D1C03E031465046FCF702FF2878002835
:104650007FF41AAF00BF9AF80C0010B15046FFF774
:10466000FCFE00BF0DE72DE9F04104460E4615465D
:104670001F4614B90E20BDE8F081206808B9082053
:10468000F9E70DB90920F6E760680068401E304080
:1046900040B96068006800FB05F231462046FCF72F
:1046A000E3FC08B91020E6E720683B462A4631467D
:1046B000D0F810C02046E047DDE770B504460D464F
:1046C000164604B10DB90E2070BD25602068314634
:1046D000026820469047F7E702460120044B5874D1
:1046E0001846007A08B9012070470020FCE7000056
:1046F000A835002070B504460D46012C01D0032CCE
:104700000BD1002005494874012C01D1012000E0A3
:1047100000200249087401F095F870BDA83500200A
:1047200070B504460E461B48007A012825D00228A1
:1047300024D10025022C02D0032C0CD105E0164810
:10474000006800F0A5FF054606E01348006800F089
:104750008DFF054600E000BF00BF6DB100200D4990
:104760000872022C00D100E00D2001460A480068C2
:10477000FDF7D4F901F044F801E000E070BD00BF9E
:104780000448407C10B901F05DF801E000F066FEDD
:1047900000BFF3E7A8350020182800202DE9F843D2
:1047A00004460F4616461D46DDF8208004B116B9B2
:1047B0000E20BDE8F883206808B90820F9E735B174
:1047C00060684068B5FBF0F100FB115008B10920AA
:1047D000EFE73846FCF740FC48B13046FCF73CFCBC
:1047E00028B12A4639462046FCF73EFC08B910207D
:1047F000DFE7CDF8008020682B4632463946D0F8F6
:104800000CC02046E047D4E72DE9FF470C4615468B
:104810001E46DDE90C78684600F03AF8814644EA25
:10482000450040EA860040EA072040EA084109F5D1
:10483000E060009A40F82210BDE8FF871CB50446EE
:104840000020009003460122114601902046FFF708
:10485000DBFF1CBD31B5684600F01AF804460121A3
:10486000009A01FA02F0C4F80C0500BF38BD000040
:1048700001460868202802D24FF0A040704708780F
:1048800000F01F0008600148F8E700000003005036
:1048900001460868202802D24FF0A04070470878EF
:1048A00000F01F0008600148F8E700000003005016
:1048B00001460868202802D24FF0A04070470878CF
:1048C00000F01F0008600148F8E7000000030050F6
:1048D00031B56846FFF7DCFF04460121009A01FA72
:1048E00002F0C4F8080500BF38BD000070B50446EA
:1048F0000E46FCF749FD0546681C08B9284670BD00
:10490000E8B2207200BF0A48D0F8100428B908485D
:10491000C0F810440020606008E00548D0F810049A
:10492000406860600248D0F8100444602846E6E71A
:10493000E0460020704710B5FBF754FF10BD7047EC
:1049400038B504460D4604484023044A29460090E1
:10495000204600F005F838BD11690F00E045002041
:104960002DE9F04F93B082460E4617469846DDF883
:104970007090304600F013FC18210DA8FBF73FFEA5
:104980000D97CDF83880CDF8489000252B460822A9
:1049900007A9304600F030FC082509980A900898CD
:1049A00080B2ADF82C0000208DF83000079800F0A0
:1049B0000300012820D107984FEA902B0798C0F3F5
:1049C000C2008DF82E000798C0F380008DF82F00EC
:1049D0000798C0F38314A2002B4601A9304600F0CB
:1049E0000BFC05EB84050DA80AAB224601A900903B
:1049F000584600F013FB2CE0079800F00300022853
:104A000027D107984FEA905B0798C0F3C2008DF852
:104A10002E000798C0F380008DF82F0000BFBBF177
:104A2000080F01D2584600E0082004462B462246D3
:104A300005A9304600F0E0FB2544ABEB040B0DABC1
:104A40000AAA214605A800F023FABBF1000FE6D11F
:104A500000BF304600F0B8FB13B0BDE8F08F000097
:104A600010B502460B4C04EBC203012906D0022903
:104A700006D0032906D0042908D105E0022007E06A
:104A8000042005E0187903E0587901E0002000BF18
:104A900000BF10BD14850F0010B54FF0FF34FFF7B5
:104AA0004AFF04210448FFF721FF044600BF01200C
:104AB0000149487200BF10BDB02800202DE9F04F19
:104AC0008BB0FCF7D5FC18B100200BB0BDE8F08F1F
:104AD0000020A849C1F8180400BF00BF00BFBFF301
:104AE0004F8F00BF00BF00BF08464468856804EAD6
:104AF00005000C3101EB800A0026002700200790FA
:104B00000FE0641CBAF80000C0F38910DAF8001056
:104B100000EB9150044404EA050096490C3101EB86
:104B2000800A9AF8000000F003000028E9D04FF056
:104B300000080BE02046641C28408E490C3151F8D7
:104B4000200008A941F8280008F10108B8F1020F77
:104B5000F0D3089800F0030002287CD10898800D5B
:104B6000069050210898B1EB905F02DD0898800D07
:104B700000E05020834608986BF39F5008900BF19B
:104B8000080005900898C0F3C20007907A4805997C
:104B900000F0A8FA0646002E5BD0304600F0FFFA7F
:104BA0003B46082208A9304600F034FB083704EAE7
:104BB0000500691C081A4FEA8009CB4536D9B9F1BE
:104BC000000F06D004EA05006A490C3101EB8000B1
:104BD00001E068480C300490B9F1000F01D048465C
:104BE00000E05846C0B20390B9F1000F02D061480E
:104BF0000C3000E000200290B9F1000F02D0ABEBC6
:104C0000090000E00020C0B201903B463046DDE9DB
:104C1000032100F0FFFA03980744029828B13B46AD
:104C20003046DDE9012100F0F5FA0DE004EA050067
:104C300050490C3101EB800004903B465A46304607
:104C4000049900F0E7FA00BF0698C01C04EB90043A
:104C500000BF50E0FFE7089800F0030001283FD1B3
:104C60000898C0F38310062803DA0898C0F383106D
:104C700000E00620089960F3891108910898C0F3B4
:104C8000831000F102090898C0F3C20007904FEAB0
:104C90008901394800F026FA064606B3304600F08E
:104CA0007EFA3B46082208A9304600F0B3FA0837DE
:104CB0004FF000080EE02046641C28402D4A0C32BC
:104CC00002EB80013B460422304600F0A3FA3F1D70
:104CD00008F101080898C0F383104045EBD80AE0BA
:104CE000089800F00300032805D12248D0F81804E2
:104CF00008B90020E9E6C6B31E48D0F81094D0F8F1
:104D0000180418B1304600F05FFA2DE016E04FF0BD
:104D1000000B00BF99F80900012800D18346BBF1C0
:104D2000000F08D000BFD9F800003146026848469D
:104D3000904700BF00BFD9F8049000BFB9F1000F41
:104D4000E5D1304600F040FA0020069006A8FCF7B6
:104D5000BDFA0848D0F8180408B9064844609DF820
:104D60001800FCF7B9FA00BF00BFFCF781FB80F028
:104D70000100AAE6E0460020BC7F0F0070B50446A3
:104D80000D4600231A462946204602F05BF870BD06
:104D9000F8B505460E461446009401236A4631468E
:104DA000284602F04FF8F8BD2DE9FC4106460F46B3
:104DB00014461D460094019502236A463946304642
:104DC00002F040F8BDE8FC812DE9FE4306460F469F
:104DD00014461D46DDF8288000940195CDF8088022
:104DE00003236A463946304602F02CF8BDE8FE83BC
:104DF0002DE9FF4706460F4614461D46DDE90C899E
:104E000000940195CDF80880CDF80C9004236A46F3
:104E10003946304602F016F8BDE8FF872DE9F04725
:104E200086B006460F4614461D46DDE90F9ADDF8AA
:104E3000388001940295CDF80C80CDF81090CDF813
:104E400014A0052301AA3946304601F0FBFF06B045
:104E5000BDE8F0872DE9F04F87B006460F461446AF
:104E60001D46DDE912ABDDE9108901940295CDF80C
:104E70000C80CDF81090CDF814A0CDF818B0062312
:104E800001AA3946304601F0DDFF07B0BDE8F08FDA
:104E90002DE9F05F07460E4690461D46082E01D9C3
:104EA000BDE8F09F95F80C900020287329464046F5
:104EB00000F076FC00240CE0B44205D23A5D1CA15F
:104EC0002846FFF7B5FA03E01BA12846FFF7B0FA22
:104ED000641C082CF0D319A12846FFF7A9FA002476
:104EE0001AE0B44213D217F804A0FBF76BFB00687A
:104EF00010F80A0000F03E0008B1504600E02E20F5
:104F000083465A460EA12846FFF792FA03E00DA108
:104F10002846FFF78DFA641C082CE2D301222946AB
:104F2000404600F01BFC85F80C9000BFB8E700007D
:104F30002025303278000000202020007C00000076
:104F400025630000200000002DE9F041074600BF66
:104F5000FF2012498860002008604860C1F81804EA
:104F6000C1F8140481F81C040D4800F027F9054627
:104F700015B12846BDE8F0810A480B49401AC60819
:104F8000002406E004EB4401084A02EB810004809F
:104F9000641CB442F6D30020ECE70000E046002099
:104FA000BC7F0F0074850F0014850F00202900209E
:104FB00002480349401AC0087047000074850F007A
:104FC00014850F0013B50C4621466846FDF73EFADE
:104FD00028B90448009A00EBC20108681CBD0020F3
:104FE000FCE7000014850F0070B50B48D0F81044A2
:104FF0000120094981F81C040AE000BF0120607209
:1050000000BF2546286841682846884700BF646875
:10501000002CF2D170BD0000E04600202DE9FF47D2
:1050200007460C46164698460C9D95F80C900020B5
:1050300028732946404600F0B3FB072E47D2DFE82D
:1050400006F004090F161F2A370039462846FFF7D5
:10505000EFF93DE0394628462268FFF7E9F937E0E5
:1050600039462846D4E90023FFF7E2F930E0A0688A
:10507000009039462846D4E90023FFF7D9F927E004
:10508000D4E90201CDE9000139462846D4E90023DC
:10509000FFF7CEF91CE0D4E902122069CDE9001235
:1050A000029039462846D4E90023FFF7C1F90FE002
:1050B000D4E90223D4E90410CDE90023CDE902109C
:1050C00039462846D4E90023FFF7B2F900E000BFD3
:1050D00000BF00222946404600F040FB85F80C90B6
:1050E000BDE8FF872DE9F84F07468A46388AA0F1C8
:1050F00004080AF104004044401EB0FBF8F0C0B2BE
:1051000000903846FDF71AFB044614B90020BDE8AC
:10511000F88F0020207101216171A4F806802546D6
:105120000098A0F1010B2C462F604FF0000912E00F
:105130003846FDF703FB064636B16079401C6071C6
:105140002E603760354604E0204600F008F8002065
:10515000DDE709F10109D945EAD32046D7E72DE972
:10516000F05F0446274697F805802646A8F1010B14
:10517000002501E036686D1C5D45FBD3D6F800A024
:105180002646002507E0D6F8009031465046FDF748
:1051900006FB4E466D1C4545F5D3BDE8F09F2DE955
:1051A000F843044627463D1D01266A4631462846F7
:1051B000FBF783F9804600BFBDE8F88310B50446CD
:1051C0002046FDF70BFB10BD2DE9FC4704462746A2
:1051D0003D1D01266A4631462846FBF77BF981468C
:1051E000009801900DF1040898F8000010B92046CD
:1051F000FFF7B5FFBDE8FC87F8B504460D46164637
:105200001F4601203B463246294600902046FDF7C6
:10521000C5F8F8BDF8B504460D4616461F460020F1
:105220003B463246294600902046FDF7B7F8F8BDC8
:1052300010B5044602201549086000BF00BF00BF3A
:10524000BFF36F8F00BF00BF00BF00BF00BF00BF34
:10525000BFF34F8F00BF00BF00BF081D046002F006
:1052600067F900200949086000BF00BF00BFBFF315
:105270006F8F00BF00BF00BF00BF00BF00BFBFF304
:105280004F8F00BF00BF00BF10BD000004E501400C
:105290002DE9F04105460E461746012018490860E1
:1052A00000BF00BF00BFBFF36F8F00BF00BF00BFD4
:1052B00000BF00BF00BFBFF34F8F00BF00BF00BFE4
:1052C000002406E056F8240045F8240002F030F9E6
:1052D000641CBC42F6D300200949086000BF00BF2F
:1052E00000BFBFF36F8F00BF00BF00BF00BF00BF94
:1052F00000BFBFF34F8F00BF00BF00BFBDE8F0810C
:1053000004E501402DE9F04192B080461CE03820D0
:10531000039003A904A861DF044604B115E004ADBD
:105320000F49684600F0DBF809E000BF0298064626
:10533000376828467168B847684600F0F1F800BF42
:1053400002980028F1D100BFE1E700BF052C04D08E
:1053500000BF2046FBF7CCFE00BF12B0BDE8F081D5
:105360005C7F0F0010B51148007808B9082010BD07
:1053700001200F49087001F0A7F8112801D1002081
:10538000F5E7022001F0BEF811DF04460CB120461B
:10539000EDE70020054908700549087001F0EEFBB3
:1053A000032001F0AFF80020E1E7000020280020F2
:1053B0002228002038B51548007808B1082038BDEB
:1053C000012013490870002001F07EF8112801D156
:1053D0000020F4E7002001F095F80E4800680090E6
:1053E0000D49684610DF04460CB12046E7E701206E
:1053F000064908700020064908700849087001F045
:10540000F3FB012001F07EF80020D8E720280020DF
:1054100022280020387F0F0091100F002128002043
:105420003EB50A49684600F05AF809E0684600F0BF
:1054300053F8044625686068A847684600F070F88D
:10544000684600F049F80028F0D13EBD2C7F0F00DF
:1054500001480078704700002028002010B5074858
:10546000007808B9082010BD0548007810B1FFF792
:1054700079FFF8E7FFF79EFFF5E7000022280020FC
:10548000202800202DE9FF41074618E003A848DF47
:10549000044604B114E00F49684600F020F809E022
:1054A00000BF029805462E6869680398B0476846B1
:1054B00000F036F800BF02980028F1D100BFE5E700
:1054C00000BF052C04D000BF2046FBF711FE00BF33
:1054D000BDE8FF817C7F0F0001468868704770B58A
:1054E00004460D46256028686060204600F001F8FB
:1054F00070BD14E0D0E900215268914202D1002130
:10550000816070474168096842685268914203D0DF
:10551000416809688160F4E7416808314160E9E762
:1055200010B50446A06800B910BD2168A06889685C
:105530000844A060D4E901104968884205D1606838
:10554000083060602046FFF7D4FF00BFECE702465A
:10555000505808B1012070470020FCE708B5002230
:1055600042504258009200BF08BDC0F8081370476F
:10557000C0F80413704701224250704770B50246CC
:105580000D4B03F1F00413E0E61AF01000EBD076B7
:10559000761003EBC6010D68954201D90C4606E072
:1055A000954202D201F1080301E0486870BD00BFD6
:1055B000A342E9D30020F9E7E47D0F0030B50446AB
:1055C0002046FFF7DBFF05460DB9024830BD2846EF
:1055D000FCE70000D07D0F002DE9F05F04461B487A
:1055E0001B49401A0C21B0FBF1F94FF0000AA069E9
:1055F00010F8027C4FF0FF380FB9D4F81080002566
:1056000019E005EB4500124901EB80063068B8420D
:1056100000D00FE008F1010018B17068404500D0DB
:1056200008E094E80F00D6F808C0E04720604FF08B
:10563000010A02E06D1C4D45E3D300BFBAF1000F33
:1056400001D101202060BDE8F09F0000B8850F0067
:10565000AC850F0000B50346184601F063FC00BDA1
:1056600010B504462046FCF725FC10BD014607484E
:10567000C068401C054AD0601046C068082803D99D
:105680000020D060012070470020FCE7A8350020F2
:1056900001460020144AD060087910B101281FD1BA
:1056A00014E0D1E90530181A142803D2D1E90530E5
:1056B000181A00E014200246886983188B61D1E92A
:1056C0000503834201D1012070470AE00869401CAC
:1056D0000861D1E90420824201D10120F4E700E011
:1056E00000BF00BF0020EFE7A835002038B5044612
:1056F00001234CF238720221204601F087F9C5B22D
:10570000A5420AD00B490988042242EA01400AA1B5
:10571000FFF734FB4FF0FF3038BD00BF6A460A2167
:105720002846FCF7F1FA9DF800002228F6D1284619
:10573000F2E70000982900205B6F70656E5F746669
:1057400074705F736F636B65745D20736F636B65FB
:1057500074206572726F720D0A00000070B5044605
:105760000D461646E07960B9207A28B109480AA1A9
:1057700002682846FEF75CFE08A12846FEF758FEA0
:1057800004E01EB105A12846FEF752FE2846FEF7AA
:1057900064FE70BDE4280020257300000D0A00009F
:1057A00070B504460D46E079D8B9207A58B1A17990
:1057B000A088FFF755F90B4951F8206032460AA13D
:1057C0002846FEF735FEA0880021FFF7FBFB0646C2
:1057D000A079064951F82020334605A12846FEF756
:1057E00027FE70BDE428002025730000D02800208B
:1057F0003C25733E2025733A2000000070470000CE
:1058000010B5034903480068FCF74DFF10BD0000C8
:105810001C280020AC7D0F0010B507490748006820
:10582000FCF74FFF064908600846006808B10120F0
:1058300010BD0020FCE700001C280020AC7D0F00FC
:105840001828002010B52048007A30B9FFF7E4FF8F
:1058500018B900201C49486010BD02201A4908727E
:105860001A480068007910B101280CD105E01748EA
:10587000006802F01BFA044607E014480068FCF7D1
:10588000C5F8044601E0032400BF00BF14B1112C89
:105890000CD107E00C48007C18B900210220FEF76B
:1058A0003FFF0DE001200849087209E00321074885
:1058B0000068FCF733F9002003490872486000BF14
:1058C00000BF00BFC8E70000A8350020182800204E
:1058D0007CB5094C01256A4629462046FAF76CFD3D
:1058E000064600BF0196019820B9201F407C08B9E8
:1058F000FFF7A8FF7CBD0000AC3500202DE9F0418A
:1059000007460E4614461D462A4631462046FAF7FB
:105910005DFE0020BDE8F0812DE9F04107460E460E
:1059200014461D462A4631462046FAF74FFE00200F
:10593000BDE8F08170B504460D460A490988042285
:1059400042EA014008A1FFF719FA00BF0B480068BE
:10595000022802D0042802D100E001E000E000BFEC
:1059600000BF70BD982900203C3C20544654505F35
:1059700041434B203A200D0A000000006C28002013
:105980002DE9F04105460E462C462088FFF768FEBB
:1059900020806088FFF764FE6080638822885A490F
:1059A0000988042747EA014058A1FFF7FDF900BF25
:1059B00061480068012804D0032842D005287DD121
:1059C00000E000BF608801282ED1032001F010F80C
:1059D000608800F0BDFF4FF440529268574B9A1A0E
:1059E00002F6FF72110B4FF4405290680022FDF74F
:1059F00001FC40B144490988032242EA014050A118
:105A0000FFF7BCF97CE061884F1EF91707EB517175
:105A1000C910A7EBC101514B03EB4120321F504984
:105A2000FAF7D4FD01F094FA608800F085FD301F8C
:105A3000B0F5007F04D2FCF773FA022049490870E0
:105A40005EE000BF48480088401C6188884249D118
:105A5000608800F07DFF61884F1EF91707EB5171D8
:105A6000C910A7EBC1013D4B03EB4120321F3C495C
:105A7000FAF7ACFD6088C11700EB5171C910A0EBBB
:105A8000C10119B1311FB1F5007F29D20A274FF4A6
:105A90007A7117FB01F0FDF751F800BF61884F1EC6
:105AA000F91707EB5171C9104FF44052926802EB9D
:105AB000013000234FF48052284900E01FE0FDF739
:105AC0007FFC38B110490988032242EA014027A12E
:105AD000FFF754F9FF224FF480512048FAF788FD70
