:020000022000DC
:1060000000F000206D630200556302005763020038
:10601000596302005B6302005D6302000000000040
:106020000000000000000000000000005F630200AC
:106030006163020000000000636302006563020008
:106040006763020067630200676302006763020020
:1060500067630200676302007D70020067630200ED
:106060006763020067630200017303006763020055
:1060700067630200676302006763020067630200F0
:10608000676302006D09040005BD0200676302003A
:10609000D109040067630200E1A203006763020004
:1060A00067630200676302006763020067630200C0
:1060B0006763020067630200000000000000000048
:1060C00067630200676302006763020067630200A0
:1060D000676302006763020067630200000000005C
:1060E00000000000000000000000000000000000B0
:1060F00000000000000000000000000000000000A0
:10610000000000000000000000000000000000008F
:10611000000000000000000000000000000000007F
:10612000000000000000000000000000000000006F
:10613000000000000000000000000000000000005F
:10614000000000000000000000000000000000004F
:10615000000000000000000000000000000000003F
:10616000000000000000000000000000000000002F
:10617000000000000000000000000000000000001F
:10618000000000000000000000000000000000000F
:1061900000000000000000000000000000000000FF
:1061A00000000000000000000000000000000000EF
:1061B00000000000000000000000000000000000DF
:1061C00000000000000000000000000000000000CF
:1061D00000000000000000000000000000000000BF
:1061E00000000000000000000000000000000000AF
:1061F000000000000000000000000000000000009F
:10620000344935480A1A02D0072291438D46334952
:1062100033480A1A06D00722914381F309880222E3
:1062200082F314882F483049304A00F042F8304851
:106230003049314A00F03DF830483149314A00F0E8
:1062400038F831483149324A00F033F831483249A0
:10625000324A00F02EF832483249334A00F029F829
:1062600032483349334A00F024F833483349002296
:1062700000F02AF832483349002200F025F832486D
:106280003249091A082902DB0022026041601F48D6
:106290001F49884205D00268043003B4904703BC0C
:1062A000F7E700208646EC4600200021284A904768
:1062B000FEE7884207D0521A05D0037801300B70F0
:1062C0000131013AF9D17047884202D002700130A1
:1062D000FAE7704700F0002000E8002000F00020FE
:1062E00000F00020182A0400A02D0020082F002014
:1062F000A4630200A4630200A60E0400182A04008E
:10630000A02D0020A02D0020B40F0400B40F040025
:10631000B40F0400B40F0400B40F0400B40F040061
:10632000B40F0400B40F0400162A0400802B0400EC
:10633000082F0020082F0020082F00200C570020D5
:106340000C5700200C5700200C5700200C5B00203D
:1063500039680200FEE7FEE7FEE7FEE7FEE7FEE73C
:10636000FEE7FEE7FEE7FEE7704700BF094880470B
:1063700009484FF007018843854608488047084888
:10638000016841F470010160BFF34F8FBFF36F8F5D
:10639000FFF736BF6963020000F000200DA903007B
:0463A00088ED00E0A4
:1063A40041DF704710B50C46112000F0ABFD2070A2
:1063B40010BD000010B582B00C460D4B1B6813F4E1
:1063C400804F03D00B4B1B68032B05DC21461120A7
:1063D40000F0A4FD02B010BD074BD3F804350191C1
:1063E400064A009260220649042006F08BFCEDE781
:1063F4006C2E0020682E0020001001405C10040068
:106404005410040000B583B00F4B1B6813F4804F85
:1064140003D00E4B1B68032B0ADC0322C8214FF464
:10642400F01000F095FD09F035FE03B05DF804FBB3
:10643400074BD3F80435074A009278220649042012
:1064440006F060FCE9E700BF6C2E0020682E0020F7
:1064540000100140241104005410040010B582B04F
:1064640004462C4B1B6813F4804F03D02A4B1B6843
:10647400032B04DC7CB1032C2ED002B010BD274BBF
:10648400D3F804350190264A009288222549042035
:1064940006F038FCEEE71F4B1B6813F4804F03D063
:1064A4001D4B1B68032B0CDC112000F02BFD80F02E
:1064B4000101C9B2112000F031FD1B4800F02EFB90
:1064C400DBE7164BD3F80435184A0092902215499D
:1064D400042006F017FCE7E709F085FD98B90D4B99
:1064E4001B6813F4804FC8D00B4B1B68032BC4DD0F
:1064F4000A4BD3F804350E4A0092A4220949042019
:1065040006F000FCB9E70BF083F909F062FDFFF730
:1065140079FFB2E76C2E0020682E002000100140A5
:106524007410040054100400A02D002088100400EE
:10653400981004003038042800D9704708B5FFF7D4
:106544008DFF08BD08B503781C2B00D008BDFFF7EC
:1065540059FFFBE700B58BB02022002101A81AF0F7
:106564003BFC01238DF8043007238DF80730062304
:106574008DF80C30084B0593084B0993084901A882
:1065840009F03EFD10B90BB05DF804FB054AE821A3
:1065940014F0E4FAF7E700BF49650200A9660200B7
:1065A400082F0020E80F040000B583B01B4A042123
:1065B40046F2010006F08AFB194B1B6813F4804F66
:1065C40003D0184B1B68032B13DC1AF003FAD8B959
:1065D40000F006FD144800F023FDD0B900F0F2FEEF
:1065E40000F00CFF00F038FFFFF7B4FF03B05DF8D4
:1065F40004FB0E4BD3F804350D4A0092EE220D49EC
:10660400042006F07FFBE0E70B4AF02114F0A6FA21
:10661400DEE7094AF42114F0A1FADFE7A5CC020071
:106624006C2E0020682E00206164020000100140DE
:10663400D010040054100400E80F040000B583B027
:106644000021114800F08CFA58B9104B1B6813F460
:10665400804F03D00E4B1B68032B07DC03B05DF89F
:1066640004FB0C4A702114F079FAEEE70A4BD3F8D4
:106674000435054A12880192084A00927122084999
:10668400042006F03FFBE9E7A02D00206C2E00203B
:10669400682E0020E80F040000100140CC0F040015
:1066A4005410040000B583B00C4B1B6813F4804FE6
:1066B40003D00B4B1B68032B04DCFFF7BFFF03B0B5
:1066C4005DF804FB074BD3F80435074A0092DA223D
:1066D4000649042006F016FBEFE700BF6C2E0020ED
:1066E400682E00200010014004110400541004001E
:1066F40030B587B06421194800F0A4FB184B1B780F
:106704009BB100F0C7FF00F0EDFC09F0B5FCF8B94F
:1067140000214FF4F01000F010FC0222C8214FF4C5
:10672400F01000F015FC07B030BD6C460D4D0FCDD8
:106734000FC495E8030084E80300684600F018FBE2
:106744000028DED0084A40F2111114F007FAD8E705
:10675400054A4FF48B7114F001FAD9E73965020048
:10676400082F0020B40F0400E80F040010B50446FD
:1067740000214FF4F01000F0E0FB04EB840462000D
:1067840032214FF4C01000F0E3FB10BD08B500F057
:1067940019FC08BD00B585B0204B1B6813F4804F6D
:1067A40003D01F4B1B68032B1FDC00F027FE00F0F7
:1067B40053FE03A80FF02AF8184B1B6813F4804FFC
:1067C40003D0174B1B68032B1ADC00F0FBFB0021E2
:1067D4004FF4F01000F0B1FB0422C8214FF4F01084
:1067E40000F0B6FB05B05DF804FB0E4BD3F804359E
:1067F4000D4A0092C6220D49042006F083FAD4E71C
:10680400084BD3F80435BDF80C200192084A0092D5
:10681400D1220649042006F075FAD6E76C2E002032
:10682400682E0020001001404011040054100400A0
:106834005C11040008B5FFF7B7FEFFF759FFFFF737
:10684400AFFDFCE730B583B0044615461D4B1B680D
:1068540013F4804F03D01C4B1B68032B11DCA36B78
:1068640004F13C012046984794F83C302B7094F88E
:106874003D306B70236C0BB1626C6AB16B6003B01A
:1068840030BD124BD3F80435114A0092AA221149A3
:10689400042006F037FAE2E71AF01EF9A16C1AF0A8
:1068A40021F94FF47A7303FB00F0C20B236C93427B
:1068B40005D3B0F5004F02D39B1A6B60DFE70023CA
:1068C4006B60DCE76C2E0020682E00200010014075
:1068D4000C120400FF11040010B588B00446436C88
:1068E400E3B9036C13B190F83D20BAB194F83D209C
:1068F40084F83C208DF818208DF81920079306A9F8
:10690400204619F0C9FC94F84C303BB9636B94F8F9
:106914003C1020469847012384F84C300F4B1B68E9
:1069240013F4804F03D00E4B1B68042B01DC08B01A
:1069340010BD0C4BD3F8043594F83C2094F83D106A
:10694400206C0490606C039002910192064A0092BC
:1069540085220649052006F0D5F9E8E76C2E0020CB
:10696400682E00200010014050120400FF110400A2
:1069740030B583B00446036B18681AF097F8636C5B
:106984003BBB236C1BB3590CD8034FF47A7200231E
:1069940010F5FA7041F100011AF0AEF8B0F1807F01
:1069A4002AD2042831D9236B2246014618681AF0EA
:1069B4005FF805461AF090F8A06445B11C4B1B68BB
:1069C40013F4804F03D01B4B1B68002B25DC03B052
:1069D40030BD256B590CD8034FF47A72002310F59F
:1069E400FA7041F100011AF087F82246014628683E
:1069F4001AF03EF80546E0E7236B22466FF07F412C
:106A040018681AF035F80546D4E7236B22460521A9
:106A140018681AF02DF80546CCE7074BD3F804356F
:106A2400064A009268220649012006F06BF9CEE777
:106A34006C2E0020682E002000100140301204004B
:106A4400FF110400F0B583B0044617461E46089DA6
:106A54001A4B1B6813F4804F03D0194B1B68032B8C
:106A64001BDC002384F84C303B7884F83D300EB3B3
:106A740073686364336823642046FFF72DFF204660
:106A8400FFF776FF3DB194F83C302B7094F83D301D
:106A94006B70236C6B6003B0F0BD0A4BD3F8043504
:106AA40012780192084A0092CC220849042006F088
:106AB40029F9D6E7002363642364DDE76C2E002004
:106AC400682E00200010014018120400FF11040079
:106AD40038B50446436C9BB9056CADB1690CE80349
:106AE4004FF47A72002310F5FA7041F100011AF0A4
:106AF40003F8B0F1807F0BD3A5F2FF15256403E002
:106B040000234364FFF7E8FE2046FFF731FF38BD5A
:106B1400002323642046FFF7DFFEF5E710B582B0BB
:106B24000446836B00F13C01984794F83C3084F8A8
:106B34003D30002363642364236B186819F0B6FFA7
:106B440094F83C308DF8003094F83D308DF80130E5
:106B5400236C01936946204619F09EFB02B010BDD8
:106B6400A0B110B504460D4AC262426B8AB1826B71
:106B74008AB119F05BFB034608B1184610BD084AF8
:106B84000021206B19F05EFF0346F6E70E2318463A
:106B940070470E23F1E70E23EFE700BF281204002D
:106BA400D56A02002B4B1B78002B52D000B585B060
:106BB400012804D0032845D005B05DF804FB002368
:106BC400029302A9012013F037FA40BB02A813F084
:106BD40085FA38BB0123039303A90DF106000FF0D6
:106BE40041FB10BBBDF806000EF0D8FF0DF1050106
:106BF4000FF02EF9E0B90AF0E7FC9DF8051000202B
:106C04000AF01EFEB8B903F04DFEC0B9114B0022C4
:106C14001A70114B1B68002BCED09847CCE713F0A9
:106C24008FFFD3E713F08CFFD4E713F089FFD9E784
:106C340013F086FFDFE7784600F0EEFCE3E713F09D
:106C44007FFFE3E713F0C0FA0028B5D013F078FF14
:106C5400B2E770472E2F0020302F002008B5064BD6
:106C640001221A70054803F087FE03F067FE00B99D
:106C740008BD13F065FFFBE72E2F0020F02D002048
:106C840008B503781B2B00D008BD074B1B78002BDD
:106C9400FAD013F0DDFA18B9044803F071FEF3E7F3
:106CA40013F04EFFF8E700BF2E2F0020F02D002038
:106CB40008B50323002203490969034814F0DEFBE5
:106CC40008BD00BF302F00208031002008B50378B4
:106CD400023B082B3FD8DFE803F01C05113E3E2C95
:106CE4003E3E36001E4B5B68002B34D0007A0028F1
:106CF40031D01C4A0121117098472CE0184B9B6835
:106D04004BB3184A127832B3164A002111709847CF
:106D140021E0154B1B784BB9114BDB681BB1114AB1
:106D2400002111709847FFF7C3FF14E0FFF796FFA7
:106D340011E010220A4B59690C4814F02FFC50B191
:106D440013F0FEFE07E08168C06809F007F918B97E
:106D5400054B01221A7008BD13F0F2FEF8E700BFDC
:106D6400302F00202C2F00202D2F002080310020D8
:106D740070B586B00446234A03AB07CA03C323F89D
:106D8400022B120C1A70204E35460FCC0FC594E816
:106D9400030085E803007369002B31D01B491C48AC
:106DA40014F050FB034610B1184606B070BD194BE1
:106DB400009303AB154A1649174814F0FFFA03462B
:106DC4000028F1D1154815F095FF0146124814F03A
:106DD40021FB03460028E7D1114816F04DF903467C
:106DE4000028E1D10E4816F07DF901460A4814F056
:106DF40011FB03460028D7D1FFF75AFF0346D3E718
:106E04000723D1E790120400302F0020482F0020E0
:106E1400B4320020D16C020080310020682F0020A1
:106E24003031002008B5064B1B683BB111F09CFBC8
:106E3400002803DB024B1B689847F7E708BD00BF37
:106E4400F432002010B50C46144B1860144A01218A
:106E5400144819F0F7FD78B9610CE00341F26F7240
:106E640000238B4208BF82420BD24FF47A72002374
:106E740019F042FE014605E00B4A4A2113F06EFE6A
:106E8400EAE705210022094819F0F2FD00B910BD16
:106E9400054A4B2113F062FEF9E700BFF4320020EB
:106EA400296E02009C120400A0120400F832002093
:106EB40008B5104B1B6873B14FF0A042D2F80435EB
:106EC4000D4909684B40C2F804350A4A1368013B6E
:106ED400136023B108BD002013F032FEECE707482D
:106EE40019F0E4FD064B1A684FF0A043C3F80425DB
:106EF400F0E700BF183300201C33002020330020AB
:106F0400483300204FF0A043D3F80425012303FAAB
:106F140000F002420CBF18460020704731B1012333
:106F240083404FF0A042C2F80C35704701238340E0
:106F34004FF0A042C2F80835704721B14FF0A0438A
:106F4400C3F80C0570474FF0A043C3F80805704719
:106F540072B338B51346132900D838BD154A1060EA
:106F64005B00013B144A13604FF0A043D3F804259F
:106F7400124B1A6000254C0CC8034FF47A7200239C
:106F840010F5FA7044EB050119F0B6FD2A460146E6
:106F94000B4819F06DFD0028DFD14FF0A042D2F864
:106FA40004350449096823EA0103C2F80435D4E727
:106FB400704700BF1C3300201833002048330020E2
:106FC4002033002008B5044819F070FD0021034B5C
:106FD4001868FFF7B2FF08BD203300201C330020DF
:106FE40008B511230BE04FF0A04103F5E072032034
:106FF40041F8220001229A40C1F808250133142BDC
:10700400F1D9054A0121054819F01CFD00B908BD54
:1070140013F096FDFBE700BFB56E02000C130400ED
:10702400F0B1104A1060002309E00F4AD25C02F567
:10703400E0724FF0A0410D4841F822000133032BC8
:10704400F3D90B4B4FF00042C3F804230020C3F8DC
:107054007C01084BC02283F8062340221A60704743
:107064000E20704740330020101304000C0003006E
:107074000060004000E100E010B50024144BC3F8A8
:107084007C4103E0D11A14E00134E4B2032C1ED88D
:107094004FF0A043D3F810250E4B195D01238B400C
:1070A4009343F1D00C4B1B680C4AD2F80425991A6F
:1070B400E8D443F233339942E6D9084BD3F8042594
:1070C400054B1A60064B1B6820469847DCE710BD49
:1070D40000600040101304004433002000100140FD
:1070E40040330020002869D02DE9F043CFB0064694
:1070F400334B1B6813F4804F03D0324B1B68032BB4
:107104000BDC2F4B1B6813F4804F03D02D4B1B68F3
:10711400032B2ADC4FB0BDE8F08300230F2B0FD8DC
:10712400F25C29490D6810095900285C0DAC04F87B
:10713400130002F00F020131AA5C62540133EDE73F
:107144000DAA00238DF8543003F1804303F58833EE
:10715400D3F8043502921D4A01921D4A009241223D
:107164001C49042005F0CEFDCBE71B4BD3F80435B6
:10717400B288F188307A747AB57AF77A96F80CC0C6
:1071840096F80DE096F80E8096F80F90CDF82C90B6
:10719400CDF82880CDF824E0CDF820C007970695D7
:1071A4000594049003910292326801920B4A009272
:1071B40046220849042005F0A5FDABE7704700BF4F
:1071C4006C2E0020682E0020702E002084130400F2
:1071D400981304007313040000100140A01304006A
:1071E40072DF704773DF704774DF70472DE9F04733
:1071F400A2B0074688469146314C0026C4F8066082
:10720400E68130490B78C3EB43102F4D05442560CC
:107214002E4A0244A2601F22A280A281013303F0FD
:1072240001030B704FF03C0A5246314613A819F083
:10723400D3FD06238DF84F30ADF8487001238DF847
:107244004A30ADF85C3012AA1892ADF83C70ADF833
:107254004090CDF844800DEB0A021D928DF87830F1
:1072640052463146684619F0B7FD02238DF80030C6
:10727400221D294613A812F0D3FD90B9104B03F137
:107284000C029968684612F0CBFD68B9104A0C49A3
:107294001048FFF7A5FF082809D070B922B0BDE84F
:1072A400F08713F04DFCE9E713F04AFCEEE7002207
:1072B40003490848FFF794FFEFE713F041FCEDE7BB
:1072C400903300204C33002050330020A0330020A2
:1072D400002E0020FC2D002088B1B0F5202F06D20E
:1072E400094AA2FB0023DB0803D1012302E04FF685
:1072F400FF739BB2054A9381044B99607047034B1B
:1073040000229A81F8E700BFCDCCCCCC002E00201F
:1073140008B50121054B1878FFF764FF18B9002060
:1073240004F0F6F908BD13F00BFCF8E7FC2D00207F
:1073340008B5044B1878FFF757FF00B908BD13F0E0
:10734400FFFBFBE7FC2D002076DF70477ADF7047F8
:107354007CDF704708B513F0F3FB08BD08B503F0F4
:1073640013FB08BD00B583B0037823B1012B0BD008
:1073740003B05DF804FB3B214088FFF7E5FF0028DC
:10738400F6D013F0DDFBF3E7094B1B6813F4804FD1
:10739400EED0084B1B68032BEADD074BD3F804350A
:1073A400064A009268220649042005F0ABFCDFE798
:1073B4006C2E0020682E0020001001406C14040084
:1073C4005314040000B583B012F0FEFE68B9002324
:1073D400019301A9012012F02FFE48B901A812F06F
:1073E4007DFE40B903B05DF804FB13F0A9FBEEE7A2
:1073F40013F0A6FBF2E713F0A3FBF3E700B585B0A7
:107404009DF80C30012262F3030362F307138DF835
:107414000C3010220F4903A8FFF79AFF98B90023F4
:10742400ADF808307823ADF80430C823ADF8063041
:107434004FF4C873ADF80A3001A8FFF787FF28B9E5
:1074440005B05DF804FB13F07BFBE8E713F078FB71
:10745400F6E700BFE013040000B58BB00023ADF8DD
:1074640008307822ADF80420C822ADF806204FF485
:10747400C872ADF80A200693079301AB039340F654
:10748400CD4304934FF48033059303238DF81830D0
:10749400064B0893064B099303A813F07BF810B925
:1074A4000BB05DF804FB13F04BFBF9E769730200C2
:1074B400597302000620704700B587B041F20103FA
:1074C40098424CD020D944F2010398425DD044F252
:1074D4000203984274D1464B1B6813F4804F1ED0AC
:1074E400444B1B68002B1ADD434BD3F8043510883A
:1074F4000390526802920191404A00926C224049E2
:10750400012005F0FFFB0AE0012859D1384B1B6824
:1075140013F4804F03D0374B1B68002B12DC4FF061
:10752400A0434FF4F012C3F81825C3F80C25EFF369
:10753400108372B64DF6AD6C324B1B78002B54D0D1
:1075440030BFF9E72C4BD3F80435029201912E4A4F
:10755400009260222A49012005F0D4FBDFE7244B86
:107564001B6813F4804FDAD0224B1B68002BD6DD46
:10757400214BD3F8043502920191244A00926322EC
:107584001F49012005F0BEFBC9E7194B1B6813F422
:10759400804FC4D0174B1B68002BC0DD164BD3F8AB
:1075A4000435106804905068039002919268019227
:1075B400174A009277221249012005F0A3FBAEE797
:1075C4000B4B1B6813F4804FA9D00A4B1B68002B8C
:1075D400A5DD094BD3F8043501910E4A00927B22B4
:1075E4000749012005F08EFB99E707B05DF804FB1D
:1075F4006C2E0020682E0020001001404815040065
:10760400F7140400182E00200815040024150400A3
:10761400681504008C15040000B583B00023ADF890
:107624000030054B01936A46014644F20200FFF71D
:1076340043FF03B05DF804FB8815040010B403464F
:10764400044C006859689A68DB680FC45DF8044B01
:10765400704700BFE03300200B4B0C4A92E8030054
:1076640083E8030003F10802094903C982E803001F
:10767400DA79042161F30712DA711A7A022161F3CB
:1076840087121A72704700BFE033002060000010B8
:10769400A400001000487047E033002000231F2B93
:1076A40009D8074901EBC30000224280426001F877
:1076B40033200133F3E7034B00221A60704700BF05
:1076C400F0330020F034002030B405460F4B1B6823
:1076D40000240AE01F230E4A12F83300A0B102EB83
:1076E400C3025288AA4207D001341F2C0BD85A1E59
:1076F400002BEFD01346EEE7054A02EBC3025268B3
:107704008A42F1D100E0002030BC7047F034002000
:10771400F033002030B40A4A13680A4C04EBC30562
:1077240068806960012104F833100B441360202B36
:1077340001D030BC7047134600221A60F9E700BF3D
:10774400F0340020F0330020C0F30C038B4204D249
:10775400C91A0144A1F500507047C91A084470477A
:10776400C37D002B42D083780A7802F0800203F0B4
:107774007F0313430B7002780B7803F07F0343EA13
:10778400C2130B700378002B41D030B44378082B1C
:1077940014BF002201224B7803F07F0343EAC21393
:1077A4004B70858803F08003C5F3861423434B7024
:1077B4008A7802F0030242EA8502D2B28A7085799D
:1077C40002F0FC02C5F3C10422438A70CB7803F0B3
:1077D4001F0343EA4513DBB2CB70C27903F0E00325
:1077E40002F01F021343CB7030BC704783780A78D1
:1077F40002F0BF029B0103F0400313430B70C278F5
:1078040003F0C00302F03F0213430B70B3E7704769
:107814000023032B22D810B402E00133032B19D820
:10782400C3EBC30214010E4A224492F84820012AF1
:10783400F3D10B4A2244948AC2899442EDD1C3EB1A
:10784400C3021401064A224492888A42E5D10448BC
:10785400204400E000205DF8044B7047002070478E
:1078640060350020002300E00133032B14D8C3EB60
:10787400C3021101094A0A4492F84820022AF3D1AA
:10788400064A0A44918A828A9142EDD1C3EBC3032A
:107894001A010248104470470020704760350020E8
:1078A40008B90420704708207047000038B5054621
:1078B4000C46CB695B78C370CB691B7883F00103FA
:1078C4008370CB694362087B022814D0FFF7E8FF7A
:1078D4006870E27A32B9A18AC0F10F03994201DCDF
:1078E400082833D0A18A0346C0F10F00814207DC87
:1078F40052B3012205E0164B987DFFF7D1FFE7E76D
:1079040001222A7062B1A28A13440B33114A82FB0A
:107914000312DB17C3EB6203013BEB710023AB7172
:107924000023EB7505F10C0294E8030082E80300E0
:10793400A2692A622289AA82A27AAA75226AAA6202
:1079440085F82C30184638BD0022DAE70720FAE71C
:1079540048350020ABAAAA2A30B403460C4609785D
:10796400817000214162A1680B2903D8217B09B3EE
:10797400012100E0012119700020587029B1A1688B
:107984000731C9080139D97198710121D97503F1F9
:107994000C0504F1100103C985E80300E18999820B
:1079A400A1691962217F9975617F83F82C109A620D
:1079B40030BC70470021DEE70021174B1B688B4267
:1079C40027D90023154A02EBC10252689A421ED9F4
:1079D40010B40FE060685DF8044B704701310E4B42
:1079E4001B688B4211D900230C4A02EBC102526876
:1079F4009A42F3D9094A52F8312002EBC30412F82F
:107A040033208242E6D00133EEE70020E3E7013180
:107A1400D3E70020704700BFF4340020F83400207E
:107A240070B58CB006460D4614462C22002101A8E0
:107A340019F0D2F90F238DF80430ADF808604FF037
:107A4400000365F300038DF80A308DF80B4001A89C
:107A540001F0E6F80CB070BD30B58DB005460C46AB
:107A64002C22002101A819F0B7F910238DF8043055
:107A740002958DF80C4001A801F0D2F80DB030BD8C
:107A840000B58DB010B913F1020F06D1074B186879
:107A940004F066F80DB05DF804FB01228DF80420B3
:107AA400029301A801F0BCF8F0E700BF0035002004
:107AB4002DE9F041054688460378BBB10D4B1C689F
:107AC400621C1A6004F00704AB8A0B4F07EBC40670
:107AD4007380A988A869FFF737FE7060EB6903F02B
:107AE4000103737007F83480BDE8F0817846FFF72E
:107AF40093FDE3E7443500200435002070B50646C5
:107B040003784BB1B58A347F04F00104B188B069BD
:107B1400FFF71AFE002304E07846FFF77DFDF1E746
:107B24000133072B15D80C4A02EBC3025268824278
:107B3400F6D1094A02EBC3025288AA42F0D1064A9E
:107B440002EBC3025278A242EAD1034800EBC3001D
:107B540000E0002070BD00BF04350020F8B51546D4
:107B64001C460E684A68D1F808C0CF68E6602261F6
:107B7400C4F814C0A7610E694A69E66122620378F9
:107B8400DB092370E27D2AB3027802F07F02A2703F
:107B9400002262709BB143789B0103F4FE53827808
:107BA40043EA9203A3808378DB0003F01803C278CE
:107BB40043EA5213A371C37803F01F03E371002354
:107BC40063622B78052B1AD82B780F4AD35C84F880
:107BD4002C30F8BD0278C2F38012A270027802F051
:107BE4003F02E27043B190F90120002A02DB042233
:107BF4006270CFE70822FBE704226270CAE7784686
:107C0400FFF70AFDE0E700BFA815040070B50C46B5
:107C14001E460378B3B104252A44A26000F10C0384
:107C24002360836A636090F82C30237300236373AA
:107C3400204604F0F9FA034610B922691544356068
:107C4400184670BD0125E7E72DE9F0418EB00D46D9
:107C540016461C46804600282DD0002D2FD0002C1F
:107C640031D0636A0233059304F10C00A378002B2E
:107C74002DD00121627801AF3B46082A14BF0022AF
:107C8400012204F0B2F80697CDF81C80B2B2ADF828
:107C940020200B9515440C9563788DF83430237BA4
:107CA400022B16D00023ADF8283005A804F095F86F
:107CB4000EB0BDE8F0817846FFF7AEFCCDE778461C
:107CC400FFF7AAFCCBE77846FFF7A6FCC9E7022139
:107CD400D0E723692BB1236909931023ADF8283029
:107CE400E3E77846FFF798FCF5E72DE9F04186B025
:107CF40004460D46C37D002B3CD0082605FB06F840
:107D0400E379AB4238D0A5716B46324601A92046CF
:107D1400FFF77CFF074648BB4DB994F8533033B99D
:107D2400A369C3F30C03A380012384F85330E37DD8
:107D34007BB994F8523063B91DBBB4F84A10627829
:107D440023468A1AE16E0846FFF77EFF012384F872
:107D5400523005992046FFF703FDE16E3246414457
:107D6400009819F010F801A804F07DFA384606B01E
:107D7400BDE8F0810C26C1E7B4F84A60A6EB08061A
:107D8400C1E77846FFF748FCD7E770B505460E46CD
:107D940009B100230B6095F85040002104E0631CF6
:107DA40085F850300134E4B2EB79A34210D3EA6C85
:107DB4000123A3401A42F5D121462846FFF795FF37
:107DC400014628B9002EEAD0336801333360E6E770
:107DD400084670BDF0B587B045781544C37D7BB1C6
:107DE4000B239D4224D816460F4604466B462A466A
:107DF40001A9FFF70BFF054620B1284607B0F0BDE7
:107E04000F23EEE705992046FFF7AAFCE37D43B173
:107E140032463946009818F0B6FF01A804F023FA58
:107E2400EBE72346324600993846FFF70DFFF4E7A7
:107E34000925E2E710B5044690F84830012B0CD12F
:107E440003F082F8237B012B0BD0094BD968014442
:107E540004F1300003F040F810BD7846FFF7DCFB76
:107E6400EEE7A37D024AD168126902FB0311EEE733
:107E74004835002030B583B0002403E02846FFF7DE
:107E8400D9FF0134032C19D8C4EBC4031A010C4BD9
:107E9400134493F84830012BF3D100230193C4EB2E
:107EA400C4021301064D1D4401A92846FFF76DFFC6
:107EB4000428E3D0019B002BE3D0DFE703B030BDFF
:107EC4006035002038B5044690F84830022B09D1BB
:107ED400064B1D6803F038F8411904F1300002F034
:107EE400FBFF38BD7846FFF797FBF1E748350020E4
:107EF40038B5044690F84830022B10D10A4B5D7D0A
:107F04005A689B6803FB052503F01EF8411904F128
:107F1400500002F0E1FF012384F8683038BD784650
:107F2400FFF77AFBEAE700BF4835002038B504467E
:107F3400C06E08F002F804F13005284602F0E9FFAB
:107F440070B994F84830022B0ED0702200212046DC
:107F540018F042FF002084F8480002F02DF838BDE4
:107F6400284602F0A1FFECE704F15005284602F090
:107F7400D0FF0028E9D0284602F096FFE5E710B5C7
:107F840004460121FFF794FD2046FFF7CFFF10BD03
:107F940010B58CB0044690F84830012B0CD1012365
:107FA4008DF80430636D029301A800F039FE204679
:107FB400FFF7BCFF0CB010BD7846FFF72DFBEEE7D2
:107FC40030B585B00D460446A8B100212046FFF720
:107FD4006FFD2946606DFFF73FFD2046FFF7A6FFC2
:107FE4000F4B1B6813F0040F03D00E4B1B68032BBD
:107FF40005DC05B030BD7846FFF70EFBE5E70A4B1C
:10800400D3F8043594F8482002950192074A009267
:1080140040F2EF120649042004F074FEE9E700BFC1
:108024006C2E0020682E0020001001401816040059
:108034000916040008B508460021FFF7C1FF08BD72
:1080440008B5037B012B02D0FFF7A2FF08BD012175
:10805400FFF7B6FFFAE7000008B590F8513053B1C6
:10806400013B80F85130002380F85030034B1868EE
:1080740003F076FD08BDFFF7E3FFFBE700350020C2
:1080840010B50C4691F84830012B03D12046FFF778
:10809400E3FF10BD7846FFF7BFFAF7E7062951D191
:1080A40070B582B003460178890101F4FE5140782D
:1080B4009D78DC78240444EA05641D7944EA0524A7
:1080C4005B791C4341EA90011046FFF7A1FB05468A
:1080D400B8B1C66C2643C66444B3037853B3EB7992
:1080E4005A1C01239340013B9E4227D0002185F86E
:1080F40050102846FFF749FE2846FFF79BFE02B0C2
:1081040070BD114B1B6813F0040FF8D00F4B1B68A4
:10811400012BF4DD0E4BD3F804350E4A009240F2E5
:10812400A7520D49022004F0EDFDE8E70321FFF713
:1081340047FFE4E77846FFF76FFAD0E72846FFF7F2
:1081440027FFDCE7704700BF6C2E0020682E00205C
:10815400001001403C160400091604002DE9F04308
:1081640089B080460F4614461E46957825B9FFF718
:1081740095FF09B0BDE8F0832846FFF71DFC814652
:108184000028F6D08DF80050236A0693A38AADF830
:108194000E3004AB04F10C0292E8030083E8030000
:1081A400A37D8DF81C30CDF80480029723788DF8D8
:1081B4000C3094F82C308DF81D3031466846C84791
:1081C400D7E700002DE9F04706460F4690464B1EC0
:1081D400DBB2012B0FD8B8F5C07F10D80024032CD4
:1081E4001AD8C4EBC4031A01314B134493F8483032
:1081F4004BB10134F3E77846FFF70EFAEBE7784624
:10820400FFF70AFAEAE7DFF8A8A015465544404606
:1082140007F08FFEE86600E0002585B3EB6E002BC7
:1082240044D033462A4606F1300ED3F800C05C68C9
:108234009868D968C2F800C054609060D160103367
:1082440010327345F1D10023EB64A5F84A80B1885C
:10825400B069FFF779FAA861012F13D06FF0010319
:10826400AB62002385F86830124BAB652D66124B68
:10827400AB632D64012001F09FFE85F84870284609
:10828400BDE8F0870D4B1B7D85F85130002385F840
:10829400523085F8533085F85030B36A6B656FF00F
:1082A4000103AB62064BAB632D64E3E70025E6E70D
:1082B40060350020698B02003980020048350020B7
:1082C40085800200F0B5C7B046781644C37D2BB153
:1082D4004FF48073B3427ED3002303E04FF4C073A2
:1082E400F8E70133032B19D8C3EBC30425013C4C35
:1082F4002C4494F84840012CF3D1394C2C44A58AE1
:10830400848AA542EDD1C3EBC3042501344C2C442B
:10831400E589C489A542E4D1082455E014460F46F2
:1083240032460121FFF74EFF0546002855D022466C
:108334003946C06E18F027FD0023459345A9284609
:10834400FFF723FD044608B1042840D1459B7BB9BF
:10835400244B1B6813F0040F35D0234B1B68032BED
:1083640031DDB5F84A70802F28BF8027002313E041
:108374002846FFF75FFDEBE7EA6ED25C1B490C6809
:1083840010095900265C04A800F8136002F00F02DB
:108394000131A25C42540133BB42EDD304AA002351
:1083A40002F8173003F1804303F58833D3F804351A
:1083B40002920F4A01920F4A009240F2D1420E49B2
:1083C400042004F09FFC0024204647B0F0BD28465A
:1083D400FFF7ACFDF8E70924F6E70424F4E700BF4F
:1083E400603500206C2E0020682E0020702E0020A6
:1083F4006C160400981304000916040000B585B037
:1084040000238DF80F3098B10346084602330B6001
:108414000DF10F0103F0E5FC9DF80F3043B10D4B56
:108424001B6813F0040F03D00B4B1B68032B04DCF5
:108434009DF80F0005B05DF804FB084BD3F8043534
:10844400074A009240F2A6320649042004F05AFC7E
:10845400EEE700BF6C2E0020682E002000100140C3
:108464007C160400091604002DE9F0438FB004467D
:108474000E4615461F46D0F81890037823B181881C
:108484004846FFF761F9A06104F10C00A378002BC2
:108494003AD0012162780DF128084346082A14BF16
:1084A4000022012203F0A1FCC4F81890CDF8088042
:1084B40003966378EA1A92B2ADF810203244089217
:1084C40007978DF824300023ADF81830237B022B56
:1084D4001CD0A3786BB3237B022B1BD0254600232F
:1084E40045F8243F2A46E178206A0EF063F9606A71
:1084F40098B101A9FFF782FF00283AD12A46E17812
:10850400206A0EF057F9F2E70221C3E71023ADF811
:108514001830DEE723690593E0E7237B022B2CD197
:1085240004F10C01E0890EF0F3F90028D3D1052001
:1085340020E000236362237B012B0DD0214600231E
:1085440041F8243FA08A0EF052F901A9606AFFF7AE
:1085540055FFA0B905200DE004F12401E0890EF0D7
:1085640046F901A9606AFFF749FF0028E6D0002018
:1085740000E000200FB0BDE8F0830520FAE70020FA
:10858400F8E7000070B5F0B00D4614461E4610AB77
:108594000A4601462046FFF767FFA0B11F4B1B6840
:1085A40013F0040F37D01E4B1B68052B33DD1D4B16
:1085B400D3F804351C4A009240F219621B49062084
:1085C40004F0A0FB27E003AB01228DF80C20A28A63
:1085D400ADF80E20002204928DF8142010AA069201
:1085E4006278AD1AADF81C5008AA93E8030082E83B
:1085F40003000AAB04F10C0292E8030083E80300D1
:10860400A37D8DF83830236A0C93636A0D930F961B
:1086140005A800F005FB70B070BD00BF6C2E0020F3
:10862400682E002000100140B4160400091604004E
:1086340010B5D47D14B1FFF791FD10BDFFF7A2FF73
:10864400FBE770B504460D461646808A01F0D4FF58
:1086540001281AD1237BD3B1022B0BD094F9163005
:10866400002B16DB237853B1324629462046FFF708
:1086740029FE0BE02369002BF0D1102006E03246DE
:1086840029462046FFF7A6FB00E0102070BD10200D
:10869400FCE70720FAE7000010B54FF4E072002170
:1086A400134818F099FB05F08DFD0024114B1C6054
:1086B40040222146104818F08FFB104B104A1A60D4
:1086C400104A5A604CF250329A600F49D9601A61CC
:1086D40004221A759C7508225A750C4803F020FA76
:1086E4000B4B18600B4B1C600B4805F06FFE10BD64
:1086F4006035002044350020043500204835002032
:1087040080969800F049020020A10700BD8802006D
:1087140000350020F4340020857A020008B505F005
:10872400C9FC08BDC0B110B58CB004460369B3B12F
:10873400C369B3B18369B3B101466846FFF7B6F8BC
:10874400034610B118460CB010BDA28A21696846D0
:10875400FFF777FF0346F5E70E23184670470E230D
:10876400F0E70E23EEE70E23ECE7D0B110B58CB0A2
:1087740004464268BAB18269BAB1027C022A16D0B0
:10878400BAB190F90020002A15DB0A460146684672
:10879400FFF7E2F8A26861686846FFF752FF0CB081
:1087A40010BD0E2070470E20F9E70E20F7E71020C9
:1087B400F5E71020F3E70720F1E70000037B012B26
:1087C40001D00020704730B58DB001AC0023029376
:1087D400CDF80B308288C2F386158DF804509200D0
:1087E4008DF805200A0E8DF806200A0C8DF8072056
:1087F4000A0A8DF808208DF8091006220692012233
:108804008DF82020828AADF8222009938DF810304B
:108814000594026A0A928DF81C30C389ADF81E30A3
:1088240090F82C308DF82D30837D43B98DF82C30A1
:108834006FF0010104A8FFF798FF0DB030BD024BA3
:108844005B7D8DF82C30F3E74835002038B590F87F
:108854004830022B00D038BD90F86830022BFAD192
:108864000446C16CFFF7AAFF0028F4D1002384F862
:108874006830E56C237853B1E3795A1C01239340A3
:10888400013B9D42E7D12046FFF779FBE3E77846B9
:10889400FEF7C2FEF0E7000010B5002407E0C4EBC9
:1088A400C402130103481844FFF7D0FF0134032C1A
:1088B400F5D910BD6035002008B5FFF7DBFAFFF7E6
:1088C400EBFF012008BD00002DE9F04182B007460E
:1088D4000E46144698461046FEF7C4FF054620B1DE
:1088E400A28883889A4210D312D82046FFF706F94B
:1088F400B8B103784BB123787BB1E1794B1C0121EA
:10890400994001392046FFF759FF02B0BDE8F081D4
:108914000521FFF755FB0025E7E77846FEF77CFEC7
:10892400EBE7002D56D05F4B1B6813F0040F04D007
:108934005D4B1B68032B00F385802846FFF7C2FAC2
:108944002B7B012B00F08C80EA6CA17901238B40F6
:108954001A42DAD11343EB64A279EB799A4200F01C
:108964008880E37D002B00F08F800823B34240F021
:108974008D80EB6EA079E27D002A00F08C800824C3
:108984003246394604FB003018F0FDF9EC6C2B78C4
:10899400002B00F08280EB795A1C01239340013BA9
:1089A4009C42B2D1022385F86830E96C2846FFF76F
:1089B40005FF044643462A46B5F84A10E86EFFF719
:1089C40037FE002CA1D1002385F868302846FFF734
:1089D400D6FA9AE7E279531CE17DE9B1082202FB59
:1089E40003F2D9B14FF4807393421AD22D4B1B6812
:1089F40013F0040F89D02C4B1B68002B85DD2B4B07
:108A0400D3F8043501922A4A009240F236322949B9
:108A1400012004F077F978E70C22E0E74FF4C07303
:108A2400E2E702212046FFF7CDFB054600287FF44C
:108A34007AAF00212046FFF7C1FE02210020FFF794
:108A44000BF862E7194BD3F80435A27901921A4A5C
:108A5400009240F251321749042004F053F96CE7B4
:108A640095F86830002B7FF46FAF2846FFF740FA83
:108A74006AE79BB2E27D2AB1082203FB0263A5F8F0
:108A84004A3076E70C22F8E70C236FE704212846E6
:108A9400FFF796FA39E70C2472E77846FEF7BCFD37
:108AA40079E700BF6C2E0020682E002000100140E2
:108AB4009016040009160400A41604002DE9F041E0
:108AC4008EB000284AD00546002A49D0984614465C
:108AD4000E4600220C920D920CA960880DF018FF2E
:108AE40020B9002738460EB0BDE8F0812269E1685C
:108AF400208905F013FB08B10027F3E72269E16838
:108B0400208905F0DFFA0746C8B96B46424621467C
:108B14002846FFF723F803AB0EAA12E9030083E803
:108B2400030002F085FF9DF8003083B143466A4696
:108B3400311F281DFFF7C8FE02F0BEFFD2E72169EE
:108B4400002201F001012089FEF76AFFCAE74346CB
:108B54006A46711E681CFFF76BFDEDE70E27C1E73F
:108B64000E27BFE710B50C4691F84830022B0BD105
:108B7400022384F86830E16C2046FFF71FFE10B929
:108B8400002384F8683010BD7846FEF745FDEFE712
:108B9400F8B500B30546164B1F68F7B90E463C46B8
:108BA400B4420ED205EBC4035B68CBB115F83400B4
:108BB40010F0800F16D1B8B1FEF7FEFEB0B9013443
:108BC400EEE70C4B43F8375003EBC7035E607B1CA6
:108BD400074A136002E00E2700E004273846F8BD78
:108BE4000E27FBE70B27F9E70F27F7E70F27F5E732
:108BF400F4340020F8340020084B196861B110B532
:108C040004E0064803F0E7FF214624B10C680B7921
:108C1400002BF9D0F5E710BD704700BF24370020C2
:108C240038B5054630B1104B1C68ACB10F4B01226E
:108C34001A7004E07846FEF7EFFCF4E724683CB1D0
:108C44002379002BFAD154F8043C28469847F5E7D9
:108C5400064B1B78022B00D038BDFFF7CDFF034B2A
:108C640000221A70F8E700BF2437002020370020C4
:108C740010B5044630B100232372211D034803F0CC
:108C84007FFF10BD7846FEF7C7FCF4E724370020C9
:108C940010B5044658B10A4B1B78013BDBB2012BDB
:108CA40009D8074B02221A700123237210BD78469B
:108CB400FEF7B2FCEFE7211D024803F08CFFF5E755
:108CC40020370020243700200A8883689B5A073302
:108CD4009BB223F0030313449BB20288043A9342E9
:108CE40000D900230B80704710B582B00446836816
:108CF400C91AADF806100DF10601FFF7E5FFBDF83E
:108D04000630A068184402B010BD0088043880B250
:108D1400704743888268D018D1520123837070470A
:108D2400826800239370438083807047073189B23F
:108D340021F0030189B2428883889A4204D29B1AA3
:108D440099421EDC0020704710B59A420FD904885E
:108D5400A41AA14217D98B4217D3032C03D98368D1
:108D6400134404229A7000234380184604E0826866
:108D740013449B780BB1042010BDFFF7D1FF0020F2
:108D8400FAE7042070470020F6E70420F4E738B53A
:108D940004460D468368828813448B4202D0784689
:108DA400FEF73AFC0023AB70211D2046FFF78CFF31
:108DB400A288A36813449B78042B00D038BD0023F9
:108DC400A380FBE710B50C468368428813448B42AA
:108DD40002D07846FEF720FC0023A37010BD70B5C6
:108DE400064615460C46002944D0002E46D0B4F160
:108DF400005F08D94FF08053D3F80C3103F50023FA
:108E0400B4EB832F0ED3B4F5000F08D94FF0805381
:108E1400D3F80C3103F50053B4EB832F02D3784617
:108E2400FEF7FAFB6B1E2344B3F1005F08D94FF041
:108E34008052D2F80C2102F50022B3EB822F0ED31C
:108E4400B3F5000F08D94FF08052D2F80C2102F587
:108E54000052B3EB822F02D37846FEF7DDFB042DDC
:108E640010D9358000237380B380B460043D25801D
:108E7400A37070BD7846FEF7CFFBB6E77846FEF7E1
:108E8400CBFBB4E77846FEF7C7FBEAE738B5044600
:108E9400A0B16288A36813449B78012B12D0EFF32E
:108EA400108572B6A388A16819448B78032B0DD062
:108EB4002046FFF735FF05B962B638BD7846FEF7A0
:108EC400ABFBE6E77846FEF7A7FBE8E72046FFF7AB
:108ED4000BFFA368C31A638000238370EBE72DE9BB
:108EE400F0410E4615460446D0B1EEB16288A3683F
:108EF40013449B78012B1BD025B32046FFF705FFB5
:108F0400A84221D3EFF3108872B629462046FFF712
:108F14000DFF074680B1B8F1000F16D162B614E018
:108F24007846FEF779FBE0E77846FEF775FBDDE768
:108F34007846FEF771FBDFE729462046FFF7E9FE96
:108F44003060E8E7092700E009273846BDE8F081EA
:108F5400F8B50C4616460546E0B1FCB1A378012BE2
:108F640020D12388B34221D326B3EFF3108772B6FE
:108F740026800223A370E9182846FFF7A5FE6B8814
:108F8400AA88934203D0AA68134400229A7007B9AE
:108F940062B6F8BD7846FEF73FFBDEE77846FEF79B
:108FA4003BFBDBE77846FEF737FBDAE77846FEF76C
:108FB40033FBD9E77846FEF72FFBD6E770B50D46AD
:108FC400044690B1ADB1EFF3108672B6A288A368DF
:108FD40013449A78042A10D09A78022A15D0032AC6
:108FE40018D0052006B962B670BD7846FEF714FBAA
:108FF400E8E77846FEF710FBE5E7211D2046FFF77A
:1090040063FEA288A3681344E6E703229A702B60E8
:109014000020E7E77846FEF7FFFA0020E2E738B5DC
:10902400044680B1EFF3108572B6A088A1680144AC
:109034008B78042B0BD08878022814BF00200120E1
:1090440005B962B638BD7846FEF7E6FAEAE7204687
:10905400FFF74AFE0146EEE738B5044678B1EFF370
:10906400108572B6A088A16801448878C31EDBB25B
:10907400012B08D82046FFF737FE0146F5E778466E
:10908400FEF7CAFAEBE7022814BF0020012005B955
:1090940062B638BD70B50C46064678B194B1EFF3AC
:1090A400108572B6A378012B10D0032B13D121465F
:1090B4003046FFF76CFE05B962B670BD7846FEF720
:1090C400ABFAEBE77846FEF7A7FAE8E72146304625
:1090D400FFF778FEEFE77846FEF79EFAEBE710B568
:1090E400EFF3108472B68388816819448B78042B5B
:1090F40006D08878B0FA80F0400904B962B610BD91
:10910400FFF7F2FD0146F4E708B5064B9868002224
:109114001A605A609A60DA601A615A619A6104F0BE
:10912400D9FD08BD2837002000B585B00A4BDB689F
:1091340002228DF8002001934FF480530293074AD2
:109144006946012001F06EF918B9012005B05DF8F7
:1091540004FB0020FAE700BF283700204437002032
:1091640000B585B00A4B1B6802228DF800200193DC
:109174004FF480530293074A6946012001F052F9E3
:1091840018B9012005B05DF804FB0020FAE700BF20
:109194004837002044370020164BDA681379517998
:1091A4005B1A03F57F2303F6FF7302EB03339A4242
:1091B40005D002F580520F4BDA600320704700B5EA
:1091C40085B00D4B1B6801208DF8000001930B4BFB
:1091D4000393042302930A4A694601F023F918B160
:1091E400002005B05DF804FB024B01221A76022030
:1091F400F7E700BF28370020483700204C3700200D
:109204004437002000B585B00C4BDA680C4B1B6862
:10921400043301208DF800000192039340F6FC739F
:109224000293084A694601F0FDF818B90120034B7E
:10923400187600E0002005B05DF804FB2837002014
:10924400483700204437002000B585B00A4B1B681E
:1092540001208DF800000193084B0393042302932B
:10926400074A694601F0DEF818B9012005B05DF837
:1092740004FB0020FAE700BF483700203437002001
:109284004437002010B584B0104BDA681478104BC2
:109294001B68043301208DF80000019303920294AB
:1092A4000C4A694601F0BEF868B9094B1B6804F022
:1092B400FC041C440434054B5C61D9680A780A44F4
:1092C4001A61012000E0002004B010BD28370020FE
:1092D400483700204437002008B50023092B09D85B
:1092E400064A52F82320824201D00133F6E7044AA9
:1092F400536002E07846FEF78FF908BDE0160400DB
:109304002837002010B5214BDB6853B11F4B1B7E5F
:109314005BB91E4B5B68092B26D97846FEF77CF9AE
:1093240022E07846FEF778F9F0E77846FEF774F91C
:10933400EFE7164A536801335360092B21D9784665
:10934400FEF76AF91DE0114B00225A6019E00F4B39
:109354001B7E1BB10D4B02221A7012E0FFF7D4FEE4
:109364000FE00A4B1B7E83B9084B5A68084B53F82D
:109374002230984704460228E9D00328E3D0012884
:10938400D7D0012CEDD0032CEBD010BD2837002012
:10939400E0160400104B1B681B685A1E12F1030FE1
:1093A40018D8C3F30B020AB10020704710B50B4A5A
:1093B400D360002313765376012414709360084815
:1093C400FFF78AFF0749204601F01AF8FFF79AFFD2
:1093D400204610BD00207047483700202837002061
:1093E4002D910200ED93020008B50B78032B06D0F3
:1093F4000B4B1B78012B06D0022B0BD008BD084B5E
:1094040000221A76F4E7064B1B7E002BF6D1FFF7F9
:1094140079FFF3E70B78032BF0D1FFF775FEEDE747
:109424002837002000B585B0174BDB6818784FF655
:10943400FF7203F58051184404F07EFFF0B1024638
:10944400114BD9680B780B44984219D00E4B5B7EB4
:1094540093B10E4B01208DF8000001920393042375
:1094640002930B4A694600F0DDFF58B90120064B10
:10947400187605B05DF804FB064BEBE70120F8E72E
:109484000120F6E70020F4E72837002064190400DF
:10949400443700206019040008B5104BDB681878C5
:1094A400002203F58051184404F046FF08B101205E
:1094B40008BD0A4BDA68137951795B1A03F57F23E7
:1094C40003F6FF7302EB03339A4205D002F5805290
:1094D400024BDA600320EBE70220E9E7283700209B
:1094E400F0B585B0514BDD686A792B79591E8A42F3
:1094F40014D005F580510C780C444D490968081DB9
:109504000E7906449B1A05EB03356388013B9BB235
:1095140047F6FE62934260D927461BE00120434B85
:1095240058767EE07846FEF777F816E027F47F63F6
:1095340023F00F0303F580531A7813449D4247D94F
:109544009C4247D25A88013A92B21F4647F6FE61BE
:109554008A4210D93B88002BE4D03B8807EB830375
:1095640023F47F6222F00F029342DFD07A88B2F5AF
:10957400FE4FE3D1DAE71C462FE07846FEF74CF8BD
:1095840016E027F47F6323F00F0303F580531A7862
:1095940013449D4220D99C423BD25A88013A92B24C
:1095A4001F4647F6FE618A4210D93B88002BE4D05F
:1095B4003B8807EB830323F47F6222F00F0293427C
:1095C400DFD07A88B2F5FE4FE3D1DAE71C4604E037
:1095D400002402E0002400E00024E4B1144B1968E4
:1095E400628801F58051304604F0A6FE064690B12B
:1095F40001200E4B18768DF8000001940D4B039357
:10960400042302930C4A694600F00CFF58B927461C
:10961400CBE70024E1E7B4FA84F46409034B5C76F5
:10962400012005B0F0BD0020FBE700BF2837002073
:10963400483700205C190400443700202DE9F0412C
:1096440086B0644B1B6923B1624B5B692BB1002765
:1096540048E07846FDF7E0FFF6E77846FDF7DCFFE3
:10966400F5E77846FDF7D8FF17E028F47F6323F089
:109674000F0303F580531A7813449E421FD99C426A
:1096840021D25A88013A92B2984647F6FE618A423C
:1096940013D9B8F80030002BE3D0B8F8003008EB49
:1096A400830323F47F6222F00F029342DDD0B8F8E3
:1096B4000220B2F5FE4FE0D1D7E71C4600E00024BB
:1096C4001CB1009438E00024FAE700230093019BC6
:1096D400002B5AD10127002C76D0628847F6FF73FD
:1096E4009A4271D0002F73D13A4B5A6922F47F65A4
:1096F40025F00F05AD1A05F580551C69DE68337930
:1097040072799B1A06EB0336002301936388013BAD
:109714009BB247F6FE629342D3D9A046B9E7784696
:10972400FDF77AFF23E024F47F6424F00F0404F5AA
:109734008054237823441C46A642C8D92388019A1E
:1097440002EB83029542C2D9009B634023F47F63FA
:1097540023F00F03002BBAD16388013B9BB247F679
:10976400FE618B42B3D801922388002BD7D0238883
:1097740004EB830323F47F6222F00F029342D2D0DE
:109784006288B2F5FE4FD6D1CDE7124A5269012064
:109794008DF808000392009A059204930E4A02A9D8
:1097A40000F040FE70B90B49019B23F003024B69A2
:1097B40013444B6114B1074B1C618CE77846FDF7E9
:1097C4002BFFF8E7002000E0012006B0BDE8F0819F
:1097D4000120FAE7283700204437002008B54FF06D
:1097E40010235B69B3F1FF3F09D04FF010235B698D
:1097F4002BB14FF010235B69A3F5805305E04FF0C4
:1098040080525169136903FB01F3A3F58053024AA3
:109814001360FFF7BFFD08BD4837002010B50446AC
:10982400B0B1104B1B78BBB10E4BD968E3685879C3
:10983400A3EB0032914211D31A79121A02F57F2256
:1098440002F6FF7203EB0233994209D8012004E0C7
:109854007846FDF7E1FEE4E7002010BD0020FCE7B8
:109864000020FAE728370020024B1878003018BF90
:10987400012070472837002010B504460E4B1B7892
:1098840093B92378032B13D10B4B9C60E268DA6005
:1098940000225A601A76012018705A76074900F09F
:1098A400AFFDFFF72FFD10BD7846FDF7B5FEE8E7E5
:1098B4007846FDF7B1FEE7E728370020ED93020074
:1098C400014B1868704700BF4837002010B50446A4
:1098D40080B163681BB123680BB1A36813B97846E0
:1098E400FDF79AFEA3685A1E134207D10023E360D2
:1098F400236110BD7846FDF78FFEEAE77846FDF751
:109904008BFEF3E770B5F0B104468368EBB1EFF377
:10991400108572B60369C068834210D00846216876
:109924006268A668013E334003FB021108B117F0D8
:109934002AFA2369013323614DB962B608E005B9F7
:1099440062B6052504E00E2502E0092500E00025A5
:10995400284670BDC0F30B033BBB41B301F6FF7156
:10996400090B144B0222C3F80425124BD3F800341C
:10997400002BFAD0002202E000F5805001328A4226
:1099840008D20C4BC3F808050A4BD3F80034002B5B
:10999400FAD0F1E7074B0022C3F80425054BD3F8AE
:1099A4000034002BFAD000207047102070470920A3
:1099B400704700BF00E0014010F0030F2FD111F0F9
:1099C400030F2FD182B312F0030F2FD110B49208DA
:1099D400174B0124C3F80445154BD3F80034002B6E
:1099E400FAD002E0043004312246541E52B10B680E
:1099F400B3F1FF3FF6D003600D4BD3F80034002BD6
:109A0400FAD0EFE70A4B0021C3F80415084BD3F84A
:109A14000034002BFAD010465DF8044B7047102236
:109A2400104670471022FBE70922F9E70922F7E7FD
:109A340000E001404388012B05D0022B01D1043002
:109A440008600120704704304860FAE708B508222E
:109A54000221084803F0AFFF38B1074A916841601A
:109A6400127B027203F0E0FF08BD044804F00AF917
:109A7400FAE700BF58370020A43700202C2E00201E
:109A84000E4B1B78CBB910B50D4B5C6804F5005434
:109A9400B4F1807F00D910BD04220121094803F0EC
:109AA4008AFF30B14460054A0121117003F0BCFF04
:109AB400F1E7054804F0E6F8EDE77047B837002011
:109AC400A4370020583700201C2E002010B504466F
:109AD40008B1A04710BD7846FDF79EFDF9E70000E8
:109AE40008B501210C4803F0C7FF20B902210A4838
:109AF40003F0C2FF28B1094804F0C4F8FFF7C0FF1F
:109B040008BD074A0023136053609360D360136158
:109B1400044A1370F2E700BF583700204C2E00208F
:109B2400A43700207C37002000B58DB00B4B1B7B85
:109B3400012B0ED0094A926804928DF808300390E4
:109B440002238DF8043001A8FFF76AF80DB05DF820
:109B540004FB024A9268013A0492EEE7A43700201B
:109B640010B58CB00C4682B94B88012B20D1134B15
:109B74001B7833B16268124B5A60104B00221A7082
:109B840016E07846FDF748FDF4E7032A12D12C22AB
:109B9400002101A817F020F911238DF80430039453
:109BA400084BDA6805921B69069301A8FFF738F899
:109BB4000CB010BD7846FDF72FFDE8E7B83700205C
:109BC400A43700205837002000B583B001F030FFDF
:109BD4000021009101916B46134A144803F0E0FD03
:109BE400009B63B1019A52B11868114988601879D1
:109BF400087393420BD950B900220A600AE00C4B57
:109C040000221A609A601A73FFF720FF02E01268BC
:109C1400074B1A60064B1A685A60FFF731FF01F0D0
:109C24004BFF03B05DF804FB399A0200583700205B
:109C3400A437002008B504F079F8A0F5805008BDD9
:109C440000B587B000230093019302930393049318
:109C54000593FFF7EFFF009001230193064B039355
:109C64006946064803F0BFFF10B907B05DF804FB6E
:109C7400034804F007F8F8E7659B02005837002012
:109C84003C2E002010B50B4B00241C605C609C60D3
:109C9400DC601C6101F058F9074B5860074A9A6070
:109CA400074ADA601C615C61064B1C70FFF7C8FF51
:109CB40010BD00BFA437002080370020F99D0200AA
:109CC40000879303B937002008B5084B1B7803B10C
:109CD40008BD0748074B036000F04EFE064801F03C
:109CE400BDF8024B01221A70F2E700BF543700207E
:109CF40098370020219F02008037002010B501F022
:109D040097FE164B1B7B0BBB144B9B7B1BBB134B54
:109D14001A8A41F282639A4204D8114B1B782BB100
:109D2400012300E001231BB9082410E00023FAE713
:109D34000A4B01221A7300241C829A6801329A6029
:109D4400FFF784FE2046FFF7EFFE00E0082401F051
:109D5400B3FE204610BD0824F9E700BFA437002055
:109D6400B937002010B501F063FE204B5B7B9BB13B
:109D74001E4B9B7BF3B91D4B1A8A41F282639A42B4
:109D840004D81B4B1B782BB1012300E001239BB1AA
:109D9400012302E00023FAE700231C460BB3134B14
:109DA40000225A731B7B4BB1012B0ED07846FDF772
:109DB40033FC16E00023F0E70023EEE7FFF79EFFF5
:109DC40078B17846FDF728FC0BE0084B00201860BA
:109DD400586018731882FFF7A7FEFFF737FEFFF7E6
:109DE4004FFE01F069FE204610BD00BFA4370020DD
:109DF400B937002008B5214B1B7B7BB1012B20D048
:109E04007846FDF709FC1D4A138A013313821B4B64
:109E14005B8A13B1013B194A538208BD174B1A8A56
:109E240041F282639A4204D8154B1B783BB101235B
:109E340000E00123002BE6D0FFF794FFE7E70023BF
:109E4400F8E70E4B1B8A41F28262934204D80C4A13
:109E5400127872B1012200E00122002AD3D042F22A
:109E6400B012934207D9054B01225A73FFF77AFFC8
:109E7400CDE70022F1E7FFF775FFC4E7A437002020
:109E8400B937002010B5244B1B7B002B35D1044679
:109E9400214B5B8A2BBB1AB91F4B9B688B4205D3A2
:109EA400FAB11D4B9B6801338B421AD21A4B9B6843
:109EB4002A338B4223D3184B9B7B03BB164B9960ED
:109EC40000221A605A601A8242F6065159825A7365
:109ED4001A73FFF7BBFDFFF7D3FD2046FFF724FEFF
:109EE4000DE062B10C4B9B6801338B4207D10A4BE6
:109EF40001225A73FFF736FF01E0012B00D010BD99
:109F0400002AFCD1044B9B688B42F8D1024B0122FE
:109F14005A73FFF727FFF2E7A43700200378042BD6
:109F240000D0704743681B78002BFAD010B58468C2
:109F3400027E437E012A14BF00220122416904F1FA
:109F44001000FFF79FFF10BD10B5184B1A685B682F
:109F54009A4226D20446154B1B7B012B14D0144B7A
:109F64009A4213D2114B1A685B68403B9A4215D24D
:109F7400EFF3108172B60D4A1368581C1060236009
:109F840001B962B6002010BD0A4BE9E7074B012274
:109F94005A73FFF7E7FE0028EAD1E3E7FFF770FD05
:109FA400E6E7FFF76DFD0F20EDE700BFA4370020C3
:109FB400FFFF7F0000E0FF0008B538B10D4B012220
:109FC4009A730D4A13680133136008BD0A4B1B686A
:109FD4005BB1094A1368013B1360002BF5D1054BB3
:109FE40000229A73FFF7BEFEEFE77846FDF714FBF5
:109FF400EFE700BFA43700205037002000B58DB034
:10A00400ADF808008DF81020039103238DF8043077
:10A0140001A8FEF705FE0DB05DF804FB014B98683E
:10A02400704700BFA4370020054B1B7B012B02D0D7
:10A03400034B98687047024B98680138704700BF1B
:10A04400A4370020044B9B68584010F0010F00D047
:10A05400013B1846704700BFA4370020014B187B12
:10A06400704700BFA437002038B50B4B1B780BB1E9
:10A07400082038BD084B01221A70084DA8602973C6
:10A08400FFF7E4FC0020FFF74FFD00242C606C6018
:10A09400FFF7F6FC2046ECE77C370020A4370020CD
:10A0A4002DE9F041002722E02449BC2303FB04F3FB
:10A0B400CA5A0132CA520221404602F0D2FB01368A
:10A0C4000221404602F09DFB70B11C4ABC2303FBF5
:10A0D40004239D68002DE7D0BC2303FB04F3D25A6C
:10A0E40001463846A847DFE796B90137FFB2022F89
:10A0F40020D83C46BC2303FB07F308330F4D1D4413
:10A1040005F104080221404602F07BFB0026DBE750
:10A114000021404602F00DFC0828E6D1074BBC2282
:10A1240002FB0434A368002BDFD000220449384624
:10A134009847DAE70120BDE8F08100BFC43700206A
:10A144000817040008B5082383731023437300F130
:10A154001C0343610323037300F1180303610C30F0
:10A1640002F0B9FB08BD000008B50378012B06D046
:10A17400022B07D07846FDF74FFA002003E04FF496
:10A18400A97000E0004808BD645E010008B50278CB
:10A19400012A07D0022A13D07846FDF73DFA4FF47E
:10A1A400FA7308E083685B1A98084FF4A97303FBF9
:10A1B40000F303F5FA730748984228BF184608BD10
:10A1C40083685B1A180B044B03FB00F303F5FA7363
:10A1D400F1E700BF60850100645E010038B5044604
:10A1E40001210C3002F00DFB054678B1084BC4F890
:10A1F4009C300023C4F8A0306168FFF7C7FFC4F89F
:10A20400A800C4F8AC40012384F8B830284638BD0F
:10A2140035A3020010B50446FFF7E0FF20B104F1B6
:10A224009C000DF00FF900B910BD7846FDF7F4F964
:10A23400FAE70000F8B506460C4617461568037899
:10A24400012B18D11249A1FB0431C9098900B46852
:10A25400641B8C4200D30C468CB1706825F0030556
:10A26400F168224629442844FFF7A6FB58B93B6805
:10A274001C443C60F8BD7846FDF7CEF9E2E7784629
:10A28400FDF7CAF9E9E77846FDF7C6F9EFE700BF3D
:10A29400EB5DF260F8B507460C4616461568037880
:10A2A400022B16D1114BA3FB04231B0C1B03BC680C
:10A2B400641B9C4200D31C467CB1786825F00305DE
:10A2C40021462844FFF746FB58B933681C443460E0
:10A2D400F8BD7846FDF7A0F9E4E77846FDF79CF968
:10A2E400EBE77846FDF798F9EFE700BFB77609BBCF
:10A2F40038B505460C4611462378012B06D0022BAF
:10A304000FD07846FDF788F9002304E0021D2046AB
:10A31400FFF790FFA3686868984214BF00200120EB
:10A3240038BD021D2046FFF7B5FFA368F3E7000020
:10A334002DE9F8438846D1F8A860234B1B7863B90C
:10A344000546A6F5FA7601F10C090121484602F00A
:10A3540058FA074640B1002424E00DF0AFF800237A
:10A3640088F8B830BDE8F8837846FDF755F9F2E788
:10A374000DF0A4F80121484602F073FA0023C8F84E
:10A38400043088F8B830114B186801F0E9FB4046F6
:10A39400FFF740FFE6E72C1A3846FFF7E5FE2044B6
:10A3A400B0420BD8321B39464046FFF7A1FF0028C4
:10A3B400DED101F015FA441BEED5ECE70DF07EF882
:10A3C4004046FFF727FFCDE7C0370020BC37002009
:10A3D40010B5084801F0A4FB074B18600024022CB8
:10A3E40007D8064BBC2000FB0430FFF7ABFE01345A
:10A3F400F5E710BDA5A00200BC370020C43700203B
:10A4040038B504460D46022805D8054BBC2202FB8C
:10A414000434A56038BD7846FDF7FEF8F5E700BFC3
:10A42400C43700202DE9F84306460C461746022897
:10A4340016D8CCB12378012B1AD0022B3ED16368F5
:10A44400C3F30B03002B31D1A368C3F30B03002B1D
:10A4540030D1A368002B34D17846FDF7DDF830E025
:10A464007846FDF7D9F8E4E77846FDF7D5F8E1E753
:10A47400636813F0030F0DD1E36813F0030F0DD1DC
:10A48400A36813F0030F0DD1A368D3B97846FDF781
:10A49400C3F816E07846FDF7BFF8EDE77846FDF718
:10A4A400BBF8EDE77846FDF7B7F8EDE77846FDF73A
:10A4B400B3F8C9E77846FDF7AFF8CAE77846FDF781
:10A4C400ABF8EFF3108872B6BC2505FB06F505F171
:10A4D40008032A4D1D4404350021284602F091F951
:10A4E400814678B30021284602F0BBF920686168F0
:10A4F400A268E368C9F80000C9F80410C9F8082084
:10A50400C9F80C302FB11D4ABC2303FB06235B881A
:10A514003B801A4ABC2303FB06235A8801325A8023
:10A5240093F8B83083B9164B1B7813B10024A146B5
:10A534000CE0124BBC2000FB0630FFF74FFE8146B7
:10A54400002403E0042401E00024A146B8F1000F34
:10A5540000D162B6B9F1000F09D0BC2000FB06F6A9
:10A5640098360648304404300CF06CFF10B920468D
:10A57400BDE8F8837846FDF74FF8F8E7C4370020C4
:10A58400C037002038B50446EFF3108572B610B911
:10A59400164B1B6873B18CB1144A136801331360F2
:10A5A400124B1B68003318BF0123114A137005B9FD
:10A5B40062B638BD7846FDF72FF8ECE70B4B1C6804
:10A5C400013C1C6034B1EBE7BC2000FB0420FFF726
:10A5D40021FE0134022CE3D8064ABC2303FB0423E6
:10A5E40093F8B830002BF4D1EEE700BFF83900201F
:10A5F400C0370020C437002018B1830B024AD05C56
:10A6040070470020704700BF1817040012DF70471E
:10A6140000B583B01378A3B1042B14D0002110F833
:10A62400013C163B152B31D8DFE803F059303030AC
:10A634003030303030303030303030303030302E18
:10A644000F3A517DEBE70721E9E7022901D00729F9
:10A654001CD110F8021C013901F06EFEB0B1264B7A
:10A664001B6813F0400F11D0244B1B68012B0DDD28
:10A67400234BD3F804350190224A009291222249B7
:10A68400022002F03FFB01E0022902D003B05DF892
:10A6940004FB10F8021C0139C9B212F04DFBF5E7B6
:10A6A4000229F3D110F8021C0139C9B203F0C2FD2A
:10A6B4000028EBD0104B1B6813F0400FE6D00F4B73
:10A6C4001B68012BE2DD0E4BD3F8043501900F4AD1
:10A6D4000092A4220C49022002F014FBD6E7018860
:10A6E4004FF6E4639942D1D110F8021C03390230C9
:10A6F400FCF7E0FECAE700BF6C2E0020682E0020A5
:10A7040000100140A81704009D170400D41704008A
:10A7140070B58AB00DF016FC48B3064600238DF8D8
:10A72400103005AC05460FCD0FC42B682360727D35
:10A73400052A04D9337D03F00F03072B1ED1174BD1
:10A744001A688AB104AB0393337DC3F303038DF812
:10A754000430737D062B1BD9063B8DF8053006F1BA
:10A764001D03029301A8904730460DF0CBFB0DF07A
:10A7740003FC80F00100C0B20AB070BD307D04ABB0
:10A78400063A06F11D0100F00F000CF063F9D6E75C
:10A7940000238DF805300293E4E700BF003A00205F
:10A7A4000B4B1B78032B00D0704700B58DB0084BC2
:10A7B40004221A702C22002101A816F00DFB1B2381
:10A7C4008DF8043001A8FEF72BFA0DB05DF804FBF8
:10A7D400FC39002070B582B02E4B1B78002B4FD172
:10A7E400002851D0067A0F2E01D0062E4ED10446F1
:10A7F40005F09EFBE06870B1FCF720FF0DF1070047
:10A80400FFF704FF054600283BD19DF80730012BD4
:10A8140004D0022535E0FCF71FFFEFE7FCF73EFF0D
:10A8240000F008FB304601F0B1F8E07800F02CF9B4
:10A8340000F0A8FE0CF090FD17480DF039FC0CF068
:10A84400A9FAFFF7C5FD04F05DFD00F0FBFC05F07F
:10A854002FFB204601F0D0FC2046FDF71DFF04F03D
:10A86400D3F8FCF727FE08B1062811D10B480CF0E9
:10A87400D3F80B4B00221A60064B01221A7000E039
:10A884000825284602B070BD0E25FAE70725F8E72B
:10A894000546F6E7FC39002015A702005C2E0020CF
:10A8A400003A002010B582B01E4B1B78012B0DD04E
:10A8B4005AB282B3033BDBB2012B2ED80CF0B2FDAB
:10A8C400044658BB174B02221A7027E00DF0F8FA21
:10A8D40001F0A4FCFDF722FFFCF7ECFD0446B8B13F
:10A8E400062815D0104B1B6813F4804F16D00F4B5D
:10A8F4001B68012B12DD0E4BD3F8043501900D4A71
:10A90400009240F297120C49022002F0FBF905E094
:10A9140001F068F8D2E7082400E00824204602B0D9
:10A9240010BD00BFFC3900206C2E0020682E0020D2
:10A93400001001401C1704009D17040008B50A4BC1
:10A944001B78022B02D00823184608BD064B0322AD
:10A954001A7006480CF022FD03460028F4D078460D
:10A96400FCF75AFE0023EFE7FC390020A5A70200FC
:10A9740008B5FDF7D7FE08BD08B5FEF779F908BD9F
:10A9840008B5FEF785F908BD08B500F0C1FD002043
:10A9940008BD08B506F07AFE08BD0000064A136833
:10A9A40001331360B3F1704F02D0034B1868704742
:10A9B400134601221A60F8E7043A002010B5044651
:10A9C40018B100232360636010BD7846FCF724FEB1
:10A9D400F7E738B50C46054668B184B100236360D7
:10A9E400EFF3108372B62A686AB16A6854606C60C7
:10A9F40003B962B638BD7846FCF70EFEEDE778463B
:10AA0400FCF70AFEEAE72C60F1E710B5044658B1FA
:10AA1400EFF3108372B6206808B14268226022689E
:10AA240032B103B962B610BD7846FCF7F5FDEFE725
:10AA34006260F6E710B5044608B1206810BD784698
:10AA4400FCF7EAFDF9E735DF70473CDF70470000AB
:10AA540010B504464FF0FF30FFF7F5FF4FF0FF311C
:10AA64002046FFF7F2FFBFF34F8F0549CA6802F48F
:10AA7400E062044B1343CB60BFF34F8F00BFFDE78D
:10AA840000ED00E00400FA05072814D8DFE800F020
:10AA9400080C1504110F0A0664207047142070472F
:10AAA400FA2070471E2070474FF4FA707047322026
:10AAB40070474B207047FA2070479620704700007B
:10AAC400024B5868103840B2704700BF00ED00E0F8
:10AAD400034600280FDB5B11084A52F82330424238
:10AAE40000F01F0002F01F0258BF504223FA00F08A
:10AAF40000F00100704700F11F03ECE700E100E003
:10AB040046DF7047F8B504460D464B1EDBB2012BF9
:10AB140009D8002222616261A261E2612046FFF746
:10AB2400EFFF01200AE07846FCF776FDF1E7CB7BE6
:10AB34005B00CB73002F14DB0130C0B2A84217D8DE
:10AB4400214611F9207F00230E2BF0D8CA5CCE18C1
:10AB54005200D2B2767842EAD612CA5401339BB27A
:10AB6400F2E794F82F3083F0870384F82F30E3E77B
:10AB7400F8BD2DE9F04190B084460C4696461F4638
:10AB840002F10F0636111FFA86F804AD0068DCF8EE
:10AB94000410DCF80820DCF80C300FC50EF00F05AB
:10ABA400B8F1000F02D07DB1002300E000239846E5
:10ABB40063B1012104A8FFF7A5FFB8F1000F1AD073
:10ABC400701E000110230EE00123F0E70221F1E7DB
:10ABD400013B9BB22218D25C10A9194411F8101C35
:10ABE4004A400DF80320002BF2D100250C950D9559
:10ABF4000E950F9526E0711EADB22A4604EB0111A5
:10AC0400684616F0C0F880230DF805306B1C03E08D
:10AC140000220DF8032001330F2BF9DD10230AE085
:10AC2400013B9BB21DF8032010A9194411F8101C14
:10AC34004A400DF80320002BF2D1D6E704A8FFF711
:10AC44005FFF0135731EAB420FDD28011023002B7B
:10AC5400F4D0013B9BB210AA1A4412F8102C21180C
:10AC6400C95C4A4008A9CA54F1E710230AE0013B31
:10AC74009BB210AAD11811F8402C11F8101C4A40AC
:10AC840008A9CA54002BF2D104A8FFF739FF0CAC71
:10AC94000FCC38607960BA60FB6010B0BDE8F08119
:10ACA40010B50446134B1B684BB14068114B1B682D
:10ACB4005B68C31A002B02DB0E4B19680DE00D4BC9
:10ACC4001A6862611C600B4A938801339BB29380BB
:10ACD40063B10123237010BD19464B691BB15A6837
:10ACE400121A002AF8DB63614C61ECE77846FCF742
:10ACF40093FCEEE70C3A002038B505461CE0784694
:10AD0400FCF78AFC6369204A13600023636193881B
:10AD14009BB2591E89B29180F3B1A36803B3022395
:10AD24002370A36821692846984700F00DF9054669
:10AD34002378DBB2022B17D0134B1B681BB3124BC7
:10AD44001B685B685B1B642B1DD50F4B1C68237849
:10AD5400DBB2012BD6D0D2E77846FCF75DFCDCE70A
:10AD64007846FCF759FCDAE7E26812B9002323704D
:10AD7400E2E76368134463605B1B642BF9D42046E9
:10AD8400FFF78EFFD8E738BD0C3A002010B5044613
:10AD9400144B1B68834207D0124B1B68D3B15A690A
:10ADA400A2420ED01346F9E743690E4A1360938812
:10ADB4009BB2591E89B2918063B97846FCF72CFC8A
:10ADC40008E062695A6107498B889BB25A1E92B2A5
:10ADD4008A8013B10023237010BD7846FCF71CFC55
:10ADE400F8E700BF0C3A002008B5064B1B6833B1E6
:10ADF400044B1B680449586800F054F908BD00F07E
:10AE0400AFF9FBE70C3A002029AE020008B500F0C8
:10AE14009BF8FFF771FF00F097F8FFF7E5FF0120BB
:10AE240008BD000008B5024B186800F099FE08BD83
:10AE3400083A002008B5064B00221A605A600548FB
:10AE440000F06EFE044B186000F071F808BD00BFFE
:10AE54000C3A002011AE0200083A002010B5044656
:10AE640000F052FF80B19CB1A368ABB12378DBB290
:10AE7400012B15D0002363612046FFF711FF00F07A
:10AE840063F8FFF7B1FF10BD7846FCF7C5FBEAE7AE
:10AE94007846FCF7C1FBE7E77846FCF7BDFBE5E73E
:10AEA4007846FCF7B9FBE5E710B5044600F02CFF43
:10AEB40050B16CB12046FFF769FF0023636100F0D5
:10AEC40043F8FFF791FF10BD7846FCF7A5FBF0E7C8
:10AED4007846FCF7A1FBEDE738B504460D4600F0D3
:10AEE40013FF70B18CB12046FFF750FF002363615C
:10AEF40065602046FFF7D4FE00F026F8FFF774FFE4
:10AF040038BD7846FCF788FBECE77846FCF784FB11
:10AF1400E9E70378DBB2012B07D00378DBB2022B1D
:10AF240001D000207047012070470120704708B508
:10AF340015F0DCFD00B108BD15F04CFD0028FAD079
:10AF44007846FCF769FBF6E770B4EFF3108172B64C
:10AF5400184B1A68184BD3F80455D3F80431012B55
:10AF640022D001B962B645EA026500266B01EA0EF9
:10AF74005B1B62EB0602510241EAD35158024319AA
:10AF840041EB0600810141EA93619A01D31A61EB16
:10AF940000005B1946EB000013F580437041DB0BA6
:10AFA40043EA404070BC7047034BD3F80455013268
:10AFB400D7E700BF143A00200010014010B50A4B37
:10AFC4004FF40032C3F84823C3F80823074B1B6827
:10AFD4002BB1064B1C68FFF7B7FFA04710BD78469E
:10AFE400FCF71AFBF5E700BF00100140203A0020EF
:10AFF400EFF3108172B6264B0022C3F80421254AD0
:10B0040013680133136001B962B6234B1B68002B2C
:10B014003DD0214B1A68013A1A601B68002B36D1C7
:10B0240003F1804303F58833D3F804251B4B1B68D5
:10B034009A421ED2EFF3108272B6154BD3F8043540
:10B044000133164909688B4210D3114BD3F80435E8
:10B0540002330F49C1F8443502B962B60C4B4FF4C0
:10B064000032C3F84423C3F8042370470B4B1B6816
:10B07400EFE710B50A4B1B682BB1094B1C68FFF7AF
:10B0840063FFA04710BD7846FCF7C6FAF5E77047A2
:10B0940000100140143A0020183A00201C3A002005
:10B0A400203A002030B583B00446002301930D46B6
:10B0B400002936D0244B1D60FFF746FF031B002BED
:10B0C40033DB0023590CD803204C214A00230019F8
:10B0D4004FF0000444EB010115F00EFDEFF3108373
:10B0E400019372B61B4BD3F80435022838BF0220F3
:10B0F400C3F1FF1202F57F42824218D30344154A7A
:10B10400C2F844354FF40033C2F84433C2F8043370
:10B11400114A1460114A1460019B03B962B603B06A
:10B1240030BD7846FCF778FAC4E7231ACAE703442B
:10B1340003F17F4301331A0E013207490A6023F0F9
:10B144007F43064A1360E7E7203A002020A1070066
:10B1540040420F0000100140183A00201C3A002021
:10B16400074B4FF40032C3F84823C3F808230023E5
:10B17400044A1360044A1360044A1360704700BF12
:10B1840000100140183A00201C3A0020203A002008
:10B1940030DF704731DF704710B402684368A2EBB8
:10B1A4007312846883EAF4330360C1680C44446016
:10B1B400114481601344C36018465DF8044B704722
:10B1C40070B582B00D46064608B100240BE07846FF
:10B1D400FCF722FAF9E79DF807103019FFF7DAFFB8
:10B1E4009DF807301C44A5420DD90DF10700FFF767
:10B1F400CFFF9DF80730002BF7D02A1B9342EAD9E2
:10B204008DF80720E7E702B070BD000030B583B0C9
:10B2140005460024019404210DEB0100FFF7D0FF43
:10B22400074B2B60019B6B60AB60EB6003E028462F
:10B23400FFF7B2FF0134132CF9D903B030BD00BFBE
:10B24400ED5EEAF1704748DF704749DF70474ADF37
:10B2540070470000044B01225A7143F2B0629A60B5
:10B2640043F69822DA607047703A0020094B0322B3
:10B274001A74094A5A611A6840F6D8639A4204D982
:10B28400054B43F2B0629A607047034B40F6D862B4
:10B294009A607047503A0020703A002008B50F4B6E
:10B2A4001B78022B12D0032B08D0012B03D0784635
:10B2B400FCF7B2F90EE0022303740BE0084B002202
:10B2C4005A71084999600849D9608271032303744B
:10B2D400034B4361014B00221A7008BD813A0020E0
:10B2E400703A0020A0860100FF1FA10738B504466C
:10B2F40000250574012343710E4A1368013313605A
:10B3040000F0CCFA0CF04CF923680B4A1168283190
:10B3140001FB03F1094AA2FB0121A3EB9141084A75
:10B324007839284600F036FA00B938BD7846FCF77B
:10B3340073F9FAE7843A00206C3A002083DE1B4359
:10B3440071B2020010B5044600238360C360036831
:10B354000D4A92680260817991B10121017403B9A7
:10B364000A4B991A6161B1F57A7F01D39A4202D9E5
:10B374004FF47A736361FFF76DFF0123A37110BD6E
:10B38400FFF7B4FFF7E700BF703A002080969800FB
:10B3940010B50C4631B1C3680133C3604269036818
:10B3A4001344036083680133836001220274426999
:10B3B40052084261012B0DD0022B19D04269036857
:10B3C400134417498B4222D840F6D7639A4221D8B6
:10B3D40000231DE0B2F5FA7F05D040F6D8639A4207
:10B3E400ECD84361EAE7002CF7D100234361E5E799
:10B3F400C368022B06D0012BE0D1002CDED1002340
:10B404004361DBE70268064B9B1A4361D6E70023DE
:10B4140013B110BD0123FBE7FFF768FFF9E700BF95
:10B424008096980043791BB90D4B00221A7070471F
:10B4340010B504460CF0D0F820680A4B1B6828337A
:10B4440000FB03F3084AA2FB0323A0EB93407838E4
:10B4540000F054FA00236371014B00221A7010BDEE
:10B46400803A00206C3A002083DE1B4308B5254B4C
:10B4740001221A71244B1B7813B1244B1B781BB384
:10B48400204B00221A7404281AD8DFE800F00314B1
:10B49400110C07001B48FFF755FF1CE00121194858
:10B4A400FFF776FF17E000211648FFF771FF12E05F
:10B4B4000CF02AF80FE000F0B3F90CF05FF80AE0A2
:10B4C4007846FCF7A9F806E000F08AF90D4B1860FD
:10B4D4001846FFF7E3FE0B4B1B7C023BDBB2012B50
:10B4E40008D9084B1B7C022B08D0064800230371A3
:10B4F400103008BD0348FFF795FFF2E7014B012226
:10B504001A76F2E7503A0020813A0020803A00206F
:10B5140008B50438042814D8DFE800F0182614030A
:10B524000E00164B1B7E012B0BD1FFF78EFE40B194
:10B534007846FCF771F804E0104B00221A760CF000
:10B544006FF808BD7846FCF767F8FAE7FFF782FE64
:10B554000B4840F6D8638360FFF779FE0028F0D0EB
:10B564007846FCF759F8ECE70548FFF770FE002829
:10B57400E7D07846FCF750F8E3E700BF503A0020E4
:10B58400703A002010B40E4A002313701371012185
:10B59400517143F2B064946043F69824D460094A2C
:10B5A4001060094A1370094A1370094A1360094A62
:10B5B400137153711360137691715DF8044B7047E6
:10B5C400703A00206C3A0020803A0020813A002032
:10B5D400843A0020503A002008B5104B1B7E012B02
:10B5E40009D05AB21AB1022B16D0002008BD0C485B
:10B5F400FFF729FE40B90B48FFF729FE40B9074B76
:10B6040002221A760020F1E77846FCF705F8F2E703
:10B614007846FCF701F8F2E71120E7E7503A0020FA
:10B6240071B40200703A00200B4B1B7C023BDBB26E
:10B63400012B0BD9094B1B78012B09D0022B09D004
:10B64400032B01D000207047012070470120704770
:10B654000120704701207047503A0020813A0020B1
:10B66400014B1868704700BF503A00200D4B5B79BE
:10B674000BB90020704710B50A4B1C680A4B1B68B5
:10B68400283303FB04F3094AA2FB0323A4EB9344EA
:10B69400783C00F0A5F80346201A00D410BD181B0E
:10B6A400FCE700BF503A00206C3A002083DE1B43C5
:10B6B400014B1879704700BF503A0020024B187EA6
:10B6C400003018BF01207047503A0020EFF3108378
:10B6D40072B6054A527922B1044A4FF48071C2F815
:10B6E400001103B962B67047503A002000E100E04F
:10B6F40008B5054B1B7E022B00D008BD034B01226D
:10B704001A70FFF7E3FFF8E7503A0020813A00206F
:10B7140008B5074B1B7E022B00D008BD012805D0BD
:10B724000222044B1A70FFF7D1FFF6E70322F8E771
:10B73400503A0020813A002008B5094B1B782BB100
:10B7440048B9084B1B7813B1012300E00023044AD5
:10B75400107013B908BD0023F9E7FFF7B7FFF9E745
:10B76400803A0020813A002010B4094B00F15002C5
:10B77400002443F8224000F110040122A240C3F83F
:10B78400042300F5A87043F820105DF8044B7047BB
:10B7940000800040022817D810B5EFF310840C4B3A
:10B7A4001C6072B60B4B43F820200B4B002243F86D
:10B7B40020200A4B1B7823B9054B186830B962B6B0
:10B7C40010BDFFF7D1FFF7E7072070470020F7E728
:10B7D400983A0020883A0020A43A0020943A0020A5
:10B7E400EFF310820A4B1A6072B60A4B1B7863B1EE
:10B7F400094B0022C3F84C210122DA64D3F84C052A
:10B80400034B1B6803B962B67047044B1868F7E72B
:10B81400983A0020943A0020008000409C3A00208E
:10B824002DE9F041002411E00027174B43F8247060
:10B83400012303FA05F5154EC6F80853FFF7D0FFA8
:10B84400C04704F1500346F823700134022C18D881
:10B8540004F150030D4A52F82330002BF5D0D2F8EE
:10B86400043304F11005EB4013F0010FEDD0064B47
:10B8740053F82480B8F1000FD6D17846FBF7CCFEFC
:10B88400D2E7BDE8F08100BF883A00200080004084
:10B89400014B1B6818447047A03A002010B50023E0
:10B8A400022B0DD8104A03F5A871002042F821009C
:10B8B40003F1500142F8210052F821200133EFE74F
:10B8C4000A4B1B681BB90A4B4FF480721A60094B70
:10B8D40001221A70FFF738FB0446FFF781FF201A94
:10B8E400054B186010BD00BF00800040983A00204E
:10B8F40000E100E0943A0020A03A00200023022B4B
:10B9040008D800220B4941F823200B4941F8232091
:10B914000133F4E7094B1860094B00221A70094BF4
:10B924004FF0FF32C3F80823074B4FF48072C3F87B
:10B9340080217047883A0020A43A00209C3A0020D5
:10B94400943A00200080004000E100E008B503784C
:10B954003BB1012B04D1436813B1C1688068984797
:10B9640008BD4368002BFBD080689847F8E70000C7
:10B97400044B1B780F2B04D0034B4FF48022C3F8E5
:10B9840000217047F83B002000E100E010B5104CA6
:10B9940020701048104B0360102343608360FDF750
:10B9A40095FF0E48FFF70AF823780F2B0FD0072BCB
:10B9B4000AD8EC221A4112F0010F05D05B01DBB268
:10B9C400074A82F8123302E07846FBF725FE10BDE1
:10B9D400F83B0020B03A0020C43A0020FC3B002091
:10B9E40000E100E008B50F4B1B780F2B19D00E4B6C
:10B9F40093F812335A09EC23134113F0010F0DD0BD
:10BA04000A4B9B682BB1094A136843F480231360E3
:10BA140007E0054B4FF480221A6002E07846FBF7FA
:10BA2400FBFD08BDF83B002000E100E03855002094
:10BA340038B5EFF3108472B6194A1368591C1160B3
:10BA440003BB184B1B780F2B1CD0EFF3108272B67C
:10BA5400154B9B68E3B9144901238B60134BD3F84E
:10BA64008000134D28400860C3F88050D3F8840048
:10BA740048604FF0FF31C3F884100E4B0021197059
:10BA840002B962B6064B1B6833B104B962B638BD5D
:10BA9400084B01211970F3E77846FBF7BDFDF4E785
:10BAA400C43B0020F83B00203855002000E100E0B2
:10BAB400FC06FFBDF93B002010B5EFF3108472B60D
:10BAC400124B1B68F3B1114A1368013B1360B3B9FD
