:020000022000DC
:1060000000F000206D630200556302005763020038
:10601000596302005B6302005D6302000000000040
:106020000000000000000000000000005F630200AC
:106030006163020000000000636302006563020008
:106040006763020067630200676302002DE10300DB
:106050006763020067630200FD930200676302004A
:1060600067630200676302005DA4030067630200C8
:1060700067630200676302006763020067630200F0
:10608000676302001140040005EE0200676302002E
:10609000754004006763020061D303006763020078
:1060A00067630200676302006763020051810200B8
:1060B0006763020067630200000000000000000048
:1060C00067630200676302006763020067630200A0
:1060D000676302006763020067630200000000005C
:1060E00000000000000000000000000000000000B0
:1060F00000000000000000000000000000000000A0
:10610000000000000000000000000000000000008F
:10611000000000000000000000000000000000007F
:10612000000000000000000000000000000000006F
:10613000000000000000000000000000000000005F
:10614000000000000000000000000000000000004F
:10615000000000000000000000000000000000003F
:10616000000000000000000000000000000000002F
:10617000000000000000000000000000000000001F
:10618000000000000000000000000000000000000F
:1061900000000000000000000000000000000000FF
:1061A00000000000000000000000000000000000EF
:1061B00000000000000000000000000000000000DF
:1061C00000000000000000000000000000000000CF
:1061D00000000000000000000000000000000000BF
:1061E00000000000000000000000000000000000AF
:1061F000000000000000000000000000000000009F
:10620000344935480A1A02D0072291438D46334952
:1062100033480A1A06D00722914381F309880222E3
:1062200082F314882F483049304A00F042F8304851
:106230003049314A00F03DF830483149314A00F0E8
:1062400038F831483149324A00F033F831483249A0
:10625000324A00F02EF832483249334A00F029F829
:1062600032483349334A00F024F833483349002296
:1062700000F02AF832483349002200F025F832486D
:106280003249091A082902DB0022026041601F48D6
:106290001F49884205D00268043003B4904703BC0C
:1062A000F7E700208646EC4600200021284A904768
:1062B000FEE7884207D0521A05D0037801300B70F0
:1062C0000131013AF9D17047884202D002700130A1
:1062D000FAE7704700F0002000E8002000F00020FE
:1062E00000F0002050720400A02D0020302F00206C
:1062F000A4630200A4630200705104005072040001
:10630000A02D0020A02D00207C5204007C5204000F
:106310007C5204007C5204007C5204007C52040035
:106320007C5204007C52040050720400E0730400AC
:10633000302F0020302F0020302F0020C863002095
:10634000C8630020C8630020C8630020C86700201D
:10635000016A0200FEE7FEE7FEE7FEE7FEE7FEE772
:10636000FEE7FEE7FEE7FEE7704700BF094880470B
:1063700009484FF007018843854608488047084888
:10638000016841F470010160BFF34F8FBFF36F8F5D
:10639000FFF736BF6963020000F000208DD90300CB
:0463A00088ED00E0A4
:1063A40041DF704730B591B04FF0A0430322C3F8EA
:1063B40034274FF40052C3F80C2500F01DFD00F003
:1063C400ABFE00F0C5FE00F0F1FE2022002107A87C
:1063D4001EF0D4FA01238DF81C3007238DF81F30EA
:1063E40006238DF824301F4B0B931F4B0F931F492B
:1063F40007A80CF085FEB0B91C4B1B78CBB10CF090
:10640400BBFE48BB04F0DCF800F016FD00214FF49D
:10641400C05000F09DFC0222C8214FF4C05000F08F
:10642400A3FC11B030BD124A40F20F1117F0D6FB95
:10643400E2E701AC0F4D0FCD0FC495E8030084E8EB
:10644400030001A800F000FC0028D8D0084A40F25C
:106454001D1117F0C3FBD2E7054A40F21F1117F0D4
:10646400BDFBCFE7E569020029680200362F002052
:10647400245304007C52040010B5044600214FF458
:10648400C05000F065FC04EB8404620032214FF438
:10649400C05000F069FC10BD08B500F09FFC08BDB9
:1064A40010B584B0B24B1B6813F4804F04D0B14BC9
:1064B4001B68032B00F3F68000F04AFE00F076FE22
:1064C40003A812F051FAAA4B1B6813F4804F04D0AE
:1064D400A84B1B68032B00F3F08000F07FFC002125
:1064E4004FF4C05000F034FC0422C8214FF4C050D3
:1064F40000F03AFC002012F0FFFB9F4B18809C4BED
:106504001B6813F4804F04D09A4B1B68032B00F3D1
:10651400E2809A4B9A4A98490988002012F0A4FF15
:10652400002840F0E4800CF043FE044695494CF208
:10653400050012F0B7FA002840F0DE8092494CF2D0
:10654400050012F01FFA002840F0DB808F494CF25E
:10655400040012F0A7FA002840F0D8808C494CF2CD
:10656400040012F00FFA002840F0D5808949012078
:1065740012F008FA002840F0D380804B1988208854
:1065840010F006F9002840F0D0807C4B1988208850
:1065940010F0C0F9002840F0CD807B4B198820888A
:1065A4000FF0BAFE002840F0CA800122114620886C
:1065B4000FF056FF002840F0C780704B1988764BC7
:1065C400188810F0E5F8002840F0C3806B4B198858
:1065D400714B188810F09EF9002840F0BF806E4B74
:1065E40018880FF0B9FF002840F0BD80654B19886A
:1065F400694B18880FF0EAFF002840F0DF805F4BFA
:106604001988664B188810F0C3F8002840F0DB8026
:106614005A4B1988614B188810F07CF9002840F017
:10662400D7805E4B18880FF097FF002840F0D58084
:10663400564B1988594B18880FF0C8FF002840F0B2
:10664400D180534B1988554B18880FF065FE0028EC
:1066540040F0CD80494B1988514B188810F098F8B8
:10666400002840F0C980454B19884D4B188810F01C
:1066740051F9002840F0C580464B1988484B1888CA
:106684000FF04AFE002840F0C1800A220121444B49
:1066940018880FF0E5FE002840F0BD800FF078F870
:1066A40004B010BD3F4BD3F804353F4A0092B322E7
:1066B4003E49042009F0A6FBFEE63A4BD3F8043524
:1066C400BDF80C2001923A4A0092BE2237490420B8
:1066D40009F098FB01E7334BD3F804350190354AB0
:1066E4000092C5223149042009F08CFB11E7324A9B
:1066F400C72117F073FA16E72F4ACC2117F06EFA68
:106704001CE72D4ACD2117F069FA1FE72A4ACE214A
:1067140017F064FA22E7284ACF2117F05FFA25E739
:10672400254AD02117F05AFA27E7234AD22117F035
:1067340055FA2AE7204AD32117F050FA2DE71E4ACA
:10674400D42117F04BFA30E71B4AD52117F046FA4B
:1067540033E7194AD82117F041FA37E7164AD92105
:1067640017F03CFA3BE7144ADA2117F037FA3DE711
:10677400942E0020902E0020482F0020342F00203B
:1067840014530400322F0020302F00205A2F0020F1
:10679400582F0020562F0020382F0020542F00207F
:1067A4004C2F002000100140985304006F53040044
:1067B400B4530400CC53040024530400184ADB21CE
:1067C40017F00CFA1BE7164ADD2117F007FA1FE74A
:1067D400134ADE2117F002FA23E7114ADF2117F0EA
:1067E400FDF925E70E4AE02117F0F8F929E70C4AEC
:1067F400E12117F0F3F92DE7094AE32117F0EEF947
:1068040031E7074AE42117F0E9F935E7044AE521BD
:1068140017F0E4F939E7024AE62117F0DFF93DE71A
:106824002453040000B583B0244B1B6813F4804F39
:1068340003D0234B1B68032B1CDC224A0021224873
:106844001DF00CF908BB21481DF072F810BB1F4B5A
:1068540018880FF081FE10BB1D4A00211D481CF052
:106864000FFF08BB1B4B18880FF076FE08BB03B064
:106874005DF804FB184BD3F80435184A0092EE2255
:106884001749042009F0BEFAD7E7164AEF2117F09A
:10689400A5F9D8E7134AF12117F0A0F9D7E7114A6F
:1068A400F22117F09BF9D7E70E4AF42117F096F975
:1068B400D8E70C4AF52117F091F9D8E7942E002077
:1068C400902E0020216902004C2F0020542F00201C
:1068D400ED680200382F00200010014078530400B6
:1068E4006F530400245304004B685B691A7802B1A7
:1068F400704710B582B00C4601AA03F10F01064897
:106904001CF0C4FF63685B6993F90D10BDF80400C3
:106914001DF060F802B010BD542F002070B5BEB059
:106924000446284B1B6813F4804F03D0264B1B6886
:10693400032B0EDC00230A93ADF82C300AA803F0D5
:1069440039F8224B9B69099303F016F860B13EB005
:1069540070BD1F4BD3F804351E4A00927A221E499B
:10696400042009F04FFAE5E7012003F00BF89DF845
:106974002A309DF82B209DF82C109DF82D00258899
:1069840094F90260E47806940596049503900291C4
:10699400019200939DF829309DF828200F490CA8F6
:1069A4001DF061FF0CA81EF01CF842F6F9230093B9
:1069B40009ABC2B20CA9032001F024FD002002F0AF
:1069C400E1FFC4E7942E0020902E00207C520400A6
:1069D40000100140985204006F530400B0520400A8
:1069E40008B503781C2B00D008BD0322C8214FF43E
:1069F400C05000F0B9F90CF0CDFBF5E708B502F092
:106A0400B1FC1C4A042146F2010009F0DFF91DF033
:106A140033FBC8B902F000FD02F010FD02F090FD56
:106A240002F0C6FC02F018FD01F0A2FB01F0BCF973
:106A340002F034FF02F07AFE012002F0AFFF02F010
:106A44008DFEFFF7AFFC0BE00B4A40F22B1117F061
:106A5400C5F8DFE702F004FE02F0FCFFFFF7A0FC3C
:106A640002F084FF0028F9D002F092FF0028F3D04E
:106A7400F0E700BFA5FD0200245304002B4B1B7854
:106A8400002B52D000B585B0012804D0032845D08E
:106A940005B05DF804FB0023029302A9012016F05F
:106AA4000BFB40BB02A816F059FB38BB0123039330
:106AB40003A90DF1060012F083FC10BBBDF806001B
:106AC40012F01AF90DF1050112F070FAE0B90DF0A7
:106AD400FFFD9DF8051000200DF036FFB8B906F053
:106AE40077FEC0B9114B00221A70114B1B68002BA2
:106AF400CED09847CCE717F063F8D3E717F060F8E7
:106B0400D4E717F05DF8D9E717F05AF8DFE77846CD
:106B140000F02CFCE3E717F053F8E3E716F094FBDE
:106B24000028B5D017F04CF8B2E770475E2F00206C
:106B3400602F002008B5064B01221A70054806F0A4
:106B4400B1FE06F091FE00B908BD17F039F8FBE775
:106B54005E2F0020A02D002008B503781B2B00D049
:106B640008BD074B1B78002BFAD016F0B1FB18B9FF
:106B7400044806F09BFEF3E717F022F8F8E700BF9D
:106B84005E2F0020A02D002008B503230022034916
:106B94000969034817F054FF08BD00BF602F0020A7
:106BA400B031002008B50378023B082B3FD8DFE85A
:106BB40003F01C05113E3E2C3E3E36001E4B5B6826
:106BC400002B34D0007A002831D01C4A01211170E6
:106BD40098472CE0184B9B684BB3184A127832B391
:106BE400164A00211170984721E0154B1B784BB9C8
:106BF400114BDB681BB1114A002111709847FFF754
:106C0400C3FF14E0FFF796FF11E010220A4B596905
:106C14000C4817F0A5FF50B116F0D2FF07E08168C9
:106C2400C0680CF01BFA18B9054B01221A7008BD94
:106C340016F0C6FFF8E700BF602F00205C2F00208D
:106C44005D2F0020B031002070B586B00446234A81
:106C540003AB07CA03C323F8022B120C1A70204E8D
:106C640035460FCC0FC594E8030085E8030073692B
:106C7400002B31D01B491C4817F0C6FE034610B147
:106C8400184606B070BD194B009303AB154A16495C
:106C9400174817F075FE03460028F1D1154819F07E
:106CA4000BFB0146124817F097FE03460028E7D174
:106CB400114819F0C3FC03460028E1D10E4819F02D
:106CC400F3FC01460A4817F087FE03460028D7D193
:106CD400FFF75AFF0346D3E70723D1E70C54040018
:106CE400602F0020782F0020E4320020A96B0200DE
:106CF400B0310020982F00206031002008B5104BDF
:106D04001B6873B14FF0A042D2F804350D490968ED
:106D14004B40C2F804350A4A1368013B136023B19F
:106D240008BD002016F04CFFECE707481DF010FAF0
:106D3400064B1A684FF0A043C3F80425F0E700BFE0
:106D440024330020283300202C3300204C3300202F
:106D540021B14FF0A043C3F80C0570474FF0A04396
:106D6400C3F808057047000072B338B513461329F9
:106D740000D838BD154A10605B00013B144A13600B
:106D84004FF0A043D3F80425124B1A6000254C0C95
:106D9400C8034FF47A72002310F5FA7044EB05012E
:106DA4001DF0E4FB2A4601460B481DF0B3F9002808
:106DB400DFD14FF0A042D2F804350449096823EA30
:106DC4000103C2F80435D4E7704700BF283300201C
:106DD400243300204C3300202C33002008B5044811
:106DE4001DF0B6F90021034B1868FFF7B1FF08BD89
:106DF4002C3300202833002008B50B230BE04FF080
:106E0400A04103F5E072032041F8220001229A40D8
:106E1400C1F8082501330C2BF1D9054A0121054895
:106E24001DF062F900B908BD16F0CAFEFBE700BF09
:106E3400016D020018540400002869D02DE9F043C4
:106E4400CFB00646334B1B6813F4804F03D0324B4C
:106E54001B68032B0BDC2F4B1B6813F4804F03D0F0
:106E64002D4B1B68032B2ADC4FB0BDE8F0830023B5
:106E74000F2B0FD8F25C29490D6810095900285CC2
:106E84000DAC04F8130002F00F020131AA5C625445
:106E94000133EDE70DAA00238DF8543003F180434C
:106EA40003F58833D3F8043502921D4A01921D4A32
:106EB400009241221C49042008F0A4FFCBE71B4B9D
:106EC400D3F80435B288F188307A747AB57AF77ACF
:106ED40096F80CC096F80DE096F80E8096F80F9090
:106EE400CDF82C90CDF82880CDF824E0CDF820C042
:106EF40007970695059404900391029232680192D3
:106F04000B4A009246220849042008F07BFFABE7B5
:106F1400704700BF942E0020902E0020982E002051
:106F2400785404008C54040065540400001001409B
:106F34009454040072DF704773DF704774DF704746
:106F44002DE9F047A2B0074688469146314C002609
:106F5400C4F80660E68130490B78C3EB43102F4D2B
:106F6400054425602E4A0244A2601F22A280A28109
:106F7400013303F001030B704FF03C0A52463146D3
:106F840013A81DF0FBFC06238DF84F30ADF84870B4
:106F940001238DF84A30ADF85C3012AA1892ADF88E
:106FA4003C70ADF84090CDF844800DEB0A021D9280
:106FB4008DF878305246314668461DF0DFFC0223D6
:106FC4008DF80030221D294613A815F069FF90B9E9
:106FD400104B03F10C029968684615F061FF68B91B
:106FE400104A0C491048FFF7A5FF082809D070B9CA
:106FF40022B0BDE8F08716F0E3FDE9E716F0E0FD06
:10700400EEE7002203490848FFF794FFEFE716F084
:10701400D7FDEDE794330020503300205433002093
:10702400A4330020B02D0020AC2D002088B1B0F591
:10703400202F06D2094AA2FB0023DB0803D1012337
:1070440002E04FF6FF739BB2054A9381044B9960AB
:107054007047034B00229A81F8E700BFCDCCCCCC1B
:10706400B02D002008B50121054B1878FFF764FF07
:1070740018B9002007F0CCFB08BD16F0A1FDF8E715
:10708400AC2D002008B5044B1878FFF757FF00B962
:1070940008BD16F095FDFBE7AC2D002076DF7047A8
:1070A4007ADF70477CDF704708B516F089FD08BDAC
:1070B40008B506F0FFFB08BD00B583B0037823B123
:1070C400012B0BD003B05DF804FB3B214088FFF794
:1070D400E5FF0028F6D016F073FDF3E7094B1B68B3
:1070E40013F4804FEED0084B1B68032BEADD074BEB
:1070F400D3F80435064A009268220649042008F0B1
:1071040081FEDFE7942E0020902E00200010014025
:107114004C5504003155040000B583B016F094F8C2
:1071240068B90023019301A9012015F0C5FF48B9EE
:1071340001A816F013F840B903B05DF804FB16F08B
:107144003FFDEEE716F03CFDF2E716F039FDF3E7FC
:1071540000B585B09DF80C30012262F3030362F39D
:1071640007138DF80C3010220F4903A8FFF79AFF7C
:1071740098B90023ADF808307823ADF80430C8235B
:10718400ADF806304FF4C873ADF80A3001A8FFF724
:1071940087FF28B905B05DF804FB16F011FDE8E798
:1071A40016F00EFDF6E700BFD454040000B58BB012
:1071B4000023ADF808307822ADF80420C822ADF8D9
:1071C40006204FF4C872ADF80A200693079301AB6A
:1071D400039340F6CD4304934FF480330593032384
:1071E4008DF81830064B0893064B099303A816F044
:1071F40011FA10B90BB05DF804FB16F0E1FCF9E7E5
:10720400BD700200AD7002000620704700B587B063
:1072140041F2010398424CD020D944F20103984230
:107224005DD044F20203984274D1464B1B6813F4B8
:10723400804F1ED0444B1B68002B1ADD434BD3F800
:10724400043510880390526802920191404A0092DA
:107254006C224049012008F0D5FD0AE0012859D1EB
:10726400384B1B6813F4804F03D0374B1B68002B3B
:1072740012DC4FF0A0434FF4C052C3F81825C3F8F2
:107284000C25EFF3108372B64DF6AD6C324B1B78C0
:10729400002B54D030BFF9E72C4BD3F804350292BD
:1072A40001912E4A009260222A49012008F0AAFD89
:1072B400DFE7244B1B6813F4804FDAD0224B1B68A2
:1072C400002BD6DD214BD3F8043502920191244AD8
:1072D400009263221F49012008F094FDC9E7194B6D
:1072E4001B6813F4804FC4D0174B1B68002BC0DD00
:1072F400164BD3F80435106804905068039002913B
:1073040092680192174A009277221249012008F0EC
:1073140079FDAEE70B4B1B6813F4804FA9D00A4BE1
:107324001B68002BA5DD094BD3F8043501910E4AE7
:1073340000927B220749012008F064FD99E707B019
:107344005DF804FB942E0020902E002000100140D4
:1073540014560400C1550400C82D0020D45504005F
:10736400F0550400345604005856040000B583B0A8
:107374000023ADF80030054B01936A46014644F200
:107384000200FFF743FF03B05DF804FB345D040023
:1073940030B583B00446164DAB6898472B699847BF
:1073A4002B6A6BB16B6A5BB1220C8DF80420220A44
:1073B4008DF805208DF80640032101A898470BE0BD
:1073C4000B4DEB69C4F307409847EB69C4F30720FE
:1073D4009847EB69E0B29847054CA369984705467E
:1073E40063699847E3689847284603B030BD00BFF7
:1073F400CC2D002070B582B004460E46164DAB6805
:1074040098472B69984744F004046B6AA3B1220C93
:107414008DF80420220A8DF805208DF806408DF899
:10742400076004210DEB010098470B4C63699847F2
:10743400E368984702B070BDEB69C4F3074098470E
:10744400EB69C4F307209847EB69E0B29847EB690E
:1074540030469847E9E700BFCC2D0020F0B583B053
:1074640004460E4615461B4FBB6898473B69984730
:107474003B6AC3B17B6AB3B1220C8DF80420220AA3
:107484008DF805208DF80640032101A89847114B7B
:107494001B6A2946304698470E4C63699847E3684F
:1074A400984703B0F0BD0B4FFB69C4F307409847FE
:1074B400FB69C4F307209847FB69E0B298470024AE
:1074C400AC42E9D2034B9B69984730550134A4B2CE
:1074D400F6E700BFCC2D0020F0B583B004460E467D
:1074E40015461A4FBB6898473B69984744F0040413
:1074F4007B6AB3B1220C8DF80420220A8DF8052092
:107504008DF80640032101A89847104B5B6A294671
:10751400304698470D4C63699847E368984703B031
:10752400F0BDFB69C4F307409847FB69C4F3072027
:107534009847FB69E0B298470024AC42EAD2034B77
:10754400DB69305D98470134A4B2F6E7CC2D002006
:107554002DE9F041074600250DE03046FFF718FFFE
:1075640085B22D02ADB24046FFF712FF15FA80F541
:10757400ADB2A54218D04FEA870808F101084FEAD6
:10758400C80808F500563046FFF702FF84B224020B
:10759400A4B208F504584046FFF7FAFE14FA80F442
:1075A400A4B2002CE5D0D8E72846BDE8F0812DE947
:1075B400F041074600250DE03046FFF7E9FE85B2AD
:1075C4002D02ADB24046FFF7E3FE15FA80F5ADB2E9
:1075D400A54218D04FEA870808F101084FEAC80805
:1075E40008F518563046FFF7D3FE84B22402A4B23D
:1075F40008F51C584046FFF7CBFE14FA80F4A4B2F9
:10760400002CE5D0D8E72846BDE8F08102B97047E0
:107614002DE9F84315460F46840004F101094FEAA9
:10762400C90909F510584046FFF7B2FE86B2360282
:10763400B6B209F514594846FFF7AAFE16FA80F6C1
:10764400B6B2A01CC0002A46394600EB0620FFF75C
:1076540043FF3544ADB2290A4046FFF7CBFEE9B2F9
:107664004846FFF7C7FEBDE8F88302B970472DE925
:10767400F84315460F46840004F101094FEAC9098D
:1076840009F520584046FFF783FE86B23602B6B2AB
:1076940009F524594846FFF77BFE16FA80F6B6B280
:1076A400E01CC0002A46394600EB0620FFF7D6FE50
:1076B4003544ADB2290A4046FFF79CFEE9B248467C
:1076C400FFF798FEBDE8F8832DE9F041884686006F
:1076D4000136F60006F520573846FFF759FE85B205
:1076E4002D02ADB206F524563046FFF751FE15FAC9
:1076F40080F418FA84F4A4B2210A3846FFF77AFE1B
:10770400E1B23046FFF776FEBDE8F081704770477E
:1077140070477047007870470170704700207047C9
:107724007047000020B119B1044A106151617047DB
:10773400024B034A1A61034A5A617047CC2D002058
:107744001577020017770200084B1B8813F4007F9B
:10775400FAD020B119B1054B9861D9617047034B38
:10776400034A9A61034ADA61704700BFCC2D0020B6
:10777400217702002577020000B587B0062201A90F
:107784004FF41060FFF76AFE042205A94FF48070DD
:10779400FFF764FE042204A94FF4A060FFF75EFE25
:1077A400042203A94FF47060FFF758FE80210020E3
:1077B400FFF720FE0020FFF7EBFD062201A94FF49E
:1077C4001060FFF789FE042205A94FF48070FFF7CB
:1077D40083FE042204A94FF4A060FFF77DFE042277
:1077E40003A94FF47060FFF777FE07B05DF804FB60
:1077F40070B505460E46FFF7BFFFCDB10022134614
:10780400072B07DCE95C0A4452B2102A2FDC01334F
:107814005BB2F5E7002409E0A0000130C000295D57
:1078240000F5F850FFF7E6FD013464B2072CF3DDF0
:107834005EB100221346072B09DCF15C0A4452B204
:10784400102A17DC01335BB2F5E700200EE00024B8
:1078540009E0A0000130C000315D00F5F050FFF7F1
:10786400C9FD013464B2072CF3DD002070BD4FF074
:10787400FF30FBE74FF0FF30F8E710B5040A00F0E3
:10788400F0014FF4A850FFF7B5FD21464FF4B8506E
:10789400FFF7B0FD10BD10B54FF4A850FFF778FD09
:1078A40000F0F0044FF4B850FFF772FD80B200020C
:1078B40080B2204480B210BD10B5040AC1B24FF4A6
:1078C400B050FFF797FD21464FF4C050FFF792FDEB
:1078D40010BD10B54FF4B050FFF75AFD04464FF4F5
:1078E400C050FFF755FD80B2000280B210FA84F058
:1078F40080B210BD08B54FF43850FFF749FD10F0C1
:10790400010F01D0012008BD0020FCE708B54FF4A9
:107914003850FFF73DFD10F0300F01D0012008BDB5
:107924000020FCE708B54FF43850FFF731FD00F0B4
:107934007F014FF43850FFF75DFD4FF43850FFF7E7
:1079440027FD60F07F01C9B24FF43850FFF752FDB4
:1079540008BD08B50378012B0CD000214378012B16
:107964000AD0C378012B10D08378012B06D141F0C3
:10797400100103E04021F1E741F038014FF43850A1
:10798400FFF738FDFFF7CEFF08BD8378012B02D047
:1079940041F00801F2E741F01801EFE710B50446A1
:1079A4004FF43850FFF7F4FCC0F38013237000F059
:1079B4003800202804D0382802D00023637001E066
:1079C40001236370182806D0202804D0102802D080
:1079D4000023A37001E00123A370182806D02028F7
:1079E40004D0082802D00023E37001E00123E370EF
:1079F40010BD10B504464FF43850FFF7C9FC10F021
:107A0400400F24D000F0C700012C12D040F0380100
:107A14004FF43850FFF7EEFCFFF784FF4FF4385073
:107A2400FFF7B6FC012C07D010F0380F0CD0002063
:107A340010BD40F03001EBE710F0300F01D0002012
:107A4400F6E74FF0FF30F3E74FF0FF30F0E74FF089
:107A5400FF30EDE730B583B00C460023009301936B
:107A64000F2809D8DFE800F00B0F1D1822272C3946
:107A740049575B60796569714FF0FF306EE0FFF73D
:107A84007BFE00206AE011B1009108340194019951
:107A94000098FFF7ADFE61E00888FFF7EEFE0020D6
:107AA4005CE0FFF7F8FE2080002057E00888FFF72D
:107AB40003FF002052E0FFF70CFF208000204DE080
:107AC4000988090A4FF49850FFF794FC21784FF481
:107AD400A050FFF78FFC002040E04FF49850FFF7D0
:107AE40057FC85B22D02ADB24FF4A050FFF750FC05
:107AF40015FA80F02080002030E01C4B9A780A7040
:107B0400DA784A701A798A705A79CA709B790B713B
:107B14000020487122E0FFF705FF00201EE0084620
:107B2400FFF717FF002019E00846FFF737FF002092
:107B340014E00878FFF75DFF10E0FFF7E7FEC0B23E
:107B4400FF280DD02070002008E0FFF7D3FEC0B25C
:107B5400FF2808D02070002000E0002003B030BDD2
:107B64004FF0FF30FAE74FF0FF30F7E7CC2D00205D
:107B740010B50446062201464FF41060FFF7ACFC32
:107B8400042204F10E014FF48070FFF7A5FC0422D7
:107B940004F10A014FF4A060FFF79EFC0422A11D2A
:107BA4004FF47060FFF798FCA27C064B1A70E27CDD
:107BB4005A70227D9A70627DDA70A27D024B1A702F
:107BC40010BD00BFE4330020E233002010B50446AA
:107BD400062201464FF41060FFF740FC042204F132
:107BE4000E014FF48070FFF739FC042204F10A01FE
:107BF4004FF4A060FFF732FC0422A11D4FF4706023
:107C0400FFF72CFC064B1A78A2745A78E2749A781F
:107C14002275DB786375034B1B78A37510BD00BF19
:107C2400E4330020E233002030F03A030BD110B5E6
:107C340004460020FFF7ACFB2043C1B20020FFF74D
:107C4400D9FB002010BD4FF0FF30704708B500206D
:107C5400FFF79EFB08BD10B5044601784FF4D850D9
:107C6400FFF7C8FB6188090A4FF4C850FFF7C2FB4D
:107C7400A1784FF4D050FFF7BDFB10BD38B50546D1
:107C84004FF4D850FFF784FB28704FF4C850FFF727
:107C94007FFB84B22402A4B24FF4D050FFF778FBE8
:107CA40014FA80F0688038BD10B50C46052821D838
:107CB400DFE800F003080D11161B0846FFF758FF14
:107CC400002010BD0846FFF781FF0020F9E708787F
:107CD400FFF7AAFFF5E7FFF7B9FF20700020F0E7F0
:107CE4000846FFF7B8FF0020EBE70846FFF7C6FF9A
:107CF4000020E6E74FF0FF30E3E70000024B4FF4CB
:107D04000072C3F80C25704700030050024B4FF477
:107D14000072C3F8082570470003005000B583B013
:107D24000DF107020121002000F06CFA9DF8070014
:107D340003B05DF804FB00B583B08DF807000DF1C6
:107D440007020121002000F045FA03B05DF804FBAE
:107D540010B582B00E4C21460020FFF7A5FFA37D8D
:107D6400022B01D002B010BD0A4B1B6813F4804FE4
:107D7400F8D0094B1B68032BF4DD084BD3F804350A
:107D8400074A009240220749042008F03BF8E9E73B
:107D9400F42D0020942E0020902E0020001001408D
:107DA400D8560400C856040010B588B0644B03AC20
:107DB4000FCB84E80F00634BB0221A704FF080524F
:107DC400D2F8A410090A5970D2F8A410090C9970B9
:107DD400D2F8A410090ED970D2F8A8101971D2F8EB
:107DE400A820120A5A7158495848FFF79BFC584971
:107DF4005848FFF7A9FC584B1B6813F4804F03D075
:107E0400564B1B68032B1ADC03A90120FFF722FE43
:107E1400B0F1FF3F1ED0504B1B6813F4804F4ED07F
:107E24004E4B1B68032B4ADD4D4BD3F804354D4AAA
:107E3400009264224C49042007F0E4FF3FE0484BE1
:107E4400D3F80435494A00925B224749042007F0DD
:107E5400D9FFD9E7404B1B6813F4804F03D03F4B45
:107E64001B68032B00DCFEE73D4BD3F80435404A86
:107E740000925F223C49042007F0C4FFF3E7364B2D
:107E84001B6813F4804F22D0344B1B68032B1EDD78
:107E9400334BD3F80435374A009268223249042020
:107EA40007F0B0FF13E032244FF47A40324B43F032
:107EB40001039847013CF7D19DF81F30F3B90DF148
:107EC4001F010F20FFF7C6FDB0F1FF3FD7D0224BB3
:107ED4001B6813F4804FE6D0204B1B68032BE2DDB4
:107EE4001F4BD3F804359DF81F200192234A0092BA
:107EF40069221D49042007F085FFD4E701238DF88A
:107F040008304FF47A73ADF80A3002A8FFF7A3FEE5
:107F1400114B1B6813F4804F03D0104B1B68032BC9
:107F240003DCFFF715FF08B010BD0D4BD3F8043583
:107F3400134A009272220C49042007F063FFF0E711
:107F440074560400F42D0020117D0200017D02000E
:107F54003B7D0200217D0200942E0020902E002003
:107F640000100140E0570400C8560400B057040054
:107F7400C457040000580400905604001C58040020
:107F84002C58040070B58AB064490120FFF78CFEB8
:107F940008A90820FFF75EFD614B1B6813F4804FAE
:107FA40003D0604B1B68032B37DC5D4B1B6813F459
:107FB400804F03D05B4B1B68032B3BDC584B1B6887
:107FC40013F4804F03D0574B1B68032B4ADC544BEC
:107FD4001B6813F4804F03D0524B1B68032B55DCF2
:107FE4004F4B1B6813F4804F03D04E4B1B68032B7D
:107FF40060DC4B4B1B6813F4804F03D0494B1B6868
:10800400032B6BDC464B1B6813F4804F03D0454BAA
:108014001B68032B76DC0AB070BD434BD3F80435E0
:1080240008AA0192414A009281224149042007F0A2
:10803400E9FEBAE73C4BD3F80435384A1178507856
:108044009478D57816795279069205960495039416
:1080540002900191374A009283223549042007F0A7
:10806400D1FEABE7304BD3F804352C4A9179D07963
:10807400147A527A04920394029001912E4A009247
:1080840084222B49042007F0BDFEA0E7264BD3F839
:108094000435224A917BD07B147C527C0492039455
:1080A40002900191254A009285222149042007F07B
:1080B400A9FE95E71C4BD3F80435184A917AD07A77
:1080C400147B527B04920394029001911C4A009207
:1080D40086221749042007F095FE8AE7124BD3F84D
:1080E40004350E4A917CD07C147D527D0492039415
:1080F40002900191134A009287220D49042007F04F
:1081040081FE7FE7084BD3F804350F4A009288229A
:108114000749042007F076FE7DE700BFF42D002018
:10812400942E0020902E00200010014004570400DB
:10813400C85604001C570400445704005857040050
:108144006C5704008057040094570400054B002228
:10815400C3F840210122044B1A70044B19781A7099
:108164001B78704700B00140E8330020E933002059
:1081740010B584B0144B6C460FCB84E80F00082371
:108184008DF8003007238DF8013028238DF8023054
:1081940000228DF8052003218DF80C104FF0805338
:1081A40002930A4BC3F824174FF40071C3F80C155B
:1081B40013462146064815F03DFD08B904B010BD2C
:1081C40015F0FEFCFAE700BF4C5804000003005011
:1081D4005C58040082B100B585B00092012301937C
:1081E4000022029203926946054815F047FF28B918
:1081F400012005B05DF804FB002070470020F8E77B
:10820400605804008AB100B585B01346002200927C
:1082140001920293012303936946064815F02EFF49
:1082240028B9012005B05DF804FB00207047002048
:10823400F8E700BF60580400082802D94FF0FF3067
:10824400704770B5064684000134E40004F5807577
:1082540010212846FFF7CEF82846FFF799F80028A2
:10826400FAD11F2104F50070FFF7C4F80123B340CD
:10827400DB431BB20A490A881A400A80094A11885A
:108284000B4013800023084A22F81630074A9355FE
:1082940004F54070FFF77CF80028F9D1012070BD87
:1082A400EA330020EC330020F8330020F0330020C0
:1082B400082800F293802DE9F04182B005460E466D
:1082C40090461F46022910D004290ED0012902D05D
:1082D4006FF0040062E004220DEB02014FF47060C1
:1082E400FFF7BCF8019B002B5BD017F0040F78D18B
:1082F4001FB1012E58D0022E5CD02846FFF79CFFF8
:10830400AC000134E40027F00F0149B23143C9B293
:108314002046FFF76FF8B8F1000F0AD1344AB2F8DB
:10832400008008F101039BB213804FF6F072934270
:108334004FD04FEA182104F58060FFF75BF85FFA2D
:1083440088F104F5A060FFF755F804F58076012163
:108354003046FFF74FF83046FFF71AF80028FAD1F5
:108364000122AA40D24312B222490B8813401BB205
:1083740007F00107AF401F430F801F4B19880A40C5
:108384001A8000231D4A22F815301D4A535504F55E
:108394004070FEF7FDFF0028F9D068B202B0BDE8D6
:1083A400F0816FF00200F9E717F0210FA5D16FF00B
:1083B4000500F3E717F0200F02D017F0800F13D059
:1083C40017F0100F99D017F0800F96D16FF00500B9
:1083D400E4E7074B4FF440421A80AAE74FF0FF301E
:1083E40070476FF00500D9E76FF00500D6E700BFCE
:1083F4000C2E0020EA330020EC330020F833002058
:10840400F03300202DE9F84FBDF82850082800F279
:1084140084801C4693468A46064681468700013777
:10842400FF003846FEF7B4FF00F00F00022801D029
:10843400042875D1BBF1000F75D02378627802EB64
:108444000322A37803EB0222E37803EB0223002B3D
:108454006CD0002D6DD007F540784046FEF798FFAC
:10846400422801D0222867D10422214607F5406022
:10847400FFF732F8290A07F58050FEF7BBFFE9B28F
:1084840007F58850FEF7B6FF07F5F850FEF780FFB2
:1084940085B2AD02ADB2AB4503D85D4601E0AC4256
:1084A40013D23046FFF754F804464046FEF770FFF7
:1084B400002844D0244B1B8843FA09F313F0010F1E
:1084C400EDD0AC42EBD200203BE02A465146304688
:1084D400FFF79CF807F5807420212046FEF78AFFF9
:1084E4002046FEF755FF0028FAD107F50074204610
:1084F400FEF74EFF10F0100F09D110F0080FF4D062
:1085040008212046FEF776FF6FF00C0019E01021D9
:108514002046FEF76FFF284613E04FF0FF3010E0CF
:108524006FF004000DE06FF00D000AE06FF00B0037
:1085340007E06FF00A0004E06FF0060001E06FF05E
:108544000300BDE8F88F00BFEA330020082800F2DA
:10855400E3802DE9F04F83B09B4691468A46064658
:10856400074684000134E4002046FEF711FF8046EC
:1085740000F00F03022B02D0042B40F0D080B9F19D
:10858400000F00F0CF806A4B33F8163093B100250A
:1085940008F00708B8F1020F21D0B8F1040F7FD01A
:1085A40029463046FFF790F8614B23F8165025E032
:1085B400002DEDD13046FEF7FAFF054604F5407074
:1085C400FEF7E6FE002800F0B0805A4B1B883B41C2
:1085D40013F0010FECD0002DEAD1002028E0544B19
:1085E40033F816303BB3524B33F816504D4500D98F
:1085F4004D462A4651463046FFF737F804F5807455
:1086040040212046FEF7F6FE2046FEF7C1FE002874
:10861400FAD1474A32F816305B1B9BB222F8163067
:10862400002B75D0444A935D43F0010393552846CB
:1086340003B0BDE8F08F082269463046FFF715F80D
:1086440004F5807540212846FEF7D4FE2846FEF73F
:108654009FFE0028FAD19DF800308BF800309DF879
:1086640001308BF801309DF802308BF802309DF810
:1086740003308BF803309DF804209DF8053003EB9C
:1086840002230C9A13809DF806209DF8073003EB13
:108694000223274A22F81630274B80229A55A2E754
:1086A400234B33F816305BB1214B33F816504D454C
:1086B40000D94D462A4651463046FEF7D6FF9DE77F
:1086C400022269463046FEF7D0FF04F5807540214A
:1086D4002846FEF78FFE2846FEF75AFE0028FAD1F8
:1086E4009DF800209DF8013003EB02239BB2104A51
:1086F40022F8163040F2EA52934203D80E4B8022FD
:108704009A55D1E73046FFF797FD6FF47A708FE7FB
:10871400094B00229A558AE74FF0FF3070476FF0FB
:10872400040085E76FF00D0082E76FF003007FE738
:10873400F8330020EA330020F033002010B58CB069
:1087440006AC21460120FFF7AFFA94E8030000903D
:10875400ADF804100DF1060000F0D4FD0DF10E008B
:1087640000F0DCFD0DF10A0000F0E4FD0DF1120053
:1087740000F0ECFD02238DF8163069460020FFF767
:1087840093FA0CB010BD704708B5042208494FF4A1
:108794007060FEF7A1FE042206494FF4A060FEF7C4
:1087A4009BFE042204494FF48070FEF795FE08BD39
:1087B40024340020283400202034002008B58021EF
:1087C4000020FEF717FE0020FEF7E2FDFFF7DCFFB6
:1087D400062203494FF41060FEF77EFE08BD00BF79
:1087E4000834002008B580210020FEF703FE002095
:1087F400FEF7CEFD062203494FF41060FEF76CFE2F
:1088040008BD00BF0834002010B40B4B0B4C1C6097
:108814000B4B0C4C1C600C4B0C4C1C6010B10346F5
:108824000548036009B1064B19600AB1064B1A608A
:108834005DF8044B704700BF182E00208D8702009E
:10884400202E0020C18702001C2E0020E987020090
:1088540010B582B0062269464FF41060FEF7FEFDA3
:10886400324A116801230B7011684B70116806239A
:108874008B7010680021C17012682D480068040EC6
:108884001471C0F307445471C0F307249471D07178
:10889400118180209072D172117351739173D173CD
:1088A400117451749174D174117551759175D17598
:1088B400117651769176D1761E49087810774878EA
:1088C400507788789077C878D077087982F8200034
:1088D400497982F821100F2B05D8D1180020087788
:1088E4000133DBB2F7E7002305E0D118002081F85B
:1088F4002C000133DBB23F2BF7D9002313F0800F98
:1089040006D1D118002081F86C000133DBB2F5E701
:10891400632382F8EC30822182F8ED10532182F82F
:10892400EE1082F8EF3002B010BD00BF38340020E2
:108934001834002008340020F0B585B0FFF788FF14
:10894400534B1968352381F8F030012381F8F13055
:1089540081F8F2303D2281F8F320072281F8F420D7
:1089640081F8F5304B4B1A7881F8F6205A7881F863
:10897400F7209A7881F8F820DF7881F8F9701E7969
:1089840081F8FA605D7981F8FB500C2381F8FC30A2
:10899400002281F8FD20122314463F48805C48B130
:1089A400581C3D4CA45C0B4483F8EC40013292B259
:1089B40083B2F1E7581C01EB030C8CF8EC709F1C9C
:1089C40011FA80F080F8EC60D81C80B211FA87F6B6
:1089D40086F8EC500434041B03320C4484F8EC2075
:1089E4001C1D0844372280F8EC205A1D11FA84F02B
:1089F400062480F8EC40181911FA82F2012582F855
:108A0400EC50DA1D11FA80F0032580F8EC5003F1E4
:108A1400080011FA82F282F8EC4003F1090211FA1B
:108A240080F00F2480F8EC4003F10A0011FA82F27E
:108A34003A2482F8EC4003F10B0211FA80F03B2453
:108A440080F8EC400C339BB211FA82F2FF2082F8DA
:108A5400EC0005E0CA18002082F8EC0001339BB258
:108A6400B3F59C7FF6D3FF238DF80C308DF80D30D1
:108A74008DF80E308DF80F304323009303AB4FF481
:108A8400097206480078FFF7BDFC05B0F0BD00BFD1
:108A94003834002008340020102E00201434002024
:108AA400F0B585B0FFF7D4FE814B1B78033BDBB2F6
:108AB400012B3ED9FF238DF80C308DF80D308DF845
:108AC4000E308DF80F307B4B1968352381F8F03068
:108AD400012381F8F130032281F8F2203D2281F84C
:108AE400F320072281F8F42081F8F530724B1A78CC
:108AF40081F8F6205A7881F8F7209A7881F8F820DE
:108B0400DF7881F8F9701E7981F8FA605D7981F86F
:108B1400FB509DF80F30FF2B27D01023581CCA1888
:108B24000C2482F8EC4002330844002280F8EC2044
:108B340048E0604B1B6800229A72DA725F4A11782F
:108B440019735178597391789973D278DA735C4BAD
:108B54001A788DF80C205A788DF80D209A788DF8B3
:108B64000E20DB788DF80F30ADE7322381F8FC302E
:108B7400042281F8FD20514B187881F8FE005878C2
:108B840081F8FF00987881F80001DB7881F80131E1
:108B9400362381F8023181F80321494B1A7881F890
:108BA40004215A7881F805219A7881F80621DB7826
:108BB40081F807311C23B1E75C1C0B4483F8EC00FB
:108BC4000132A3B23F48805C0028F5D1581CCC1870
:108BD40084F8EC709C1C11FA80F080F8EC60D81CCE
:108BE40080B211FA84F484F8EC50141D041B03328F
:108BF4000C4484F8EC201C1D0844372280F8EC2037
:108C04005A1D11FA84F0082480F8EC40981D11FADA
:108C140082F2012482F8EC40DA1D11FA80F0032478
:108C240080F8EC4003F1080011FA82F2062482F87D
:108C3400EC4003F1090211FA80F00F2480F8EC40B3
:108C440003F10A0011FA82F23A2482F8EC4003F1AB
:108C54000B0211FA80F03B2480F8EC4003F10C0085
:108C640011FA82F21F2482F8EC4003F10D0211FA8A
:108C740080F0212480F8EC400E3311FA82F2FF20B8
:108C840082F8EC009BB2B3F59C7F05DACA18002089
:108C940082F8EC000133F6E74323009303AB4FF46F
:108CA400097209480078FFF7ADFB05B0F0BD00BFBD
:108CB40031340020383400200834002024340020CB
:108CC40010340020102E00201434002000B585B08C
:108CD400FFF7BEFD374B196800238B72CB72352327
:108CE40081F8F030012381F8F130042281F8F22078
:108CF4003D2081F8F300072081F8F40081F8F53075
:108D04002D4B187881F8F600587881F8F700987898
:108D140081F8F800D87881F8F900187981F8FA0018
:108D24005B7981F8FB30322381F8FC3081F8FD2037
:108D3400224B187881F8FE00587881F8FF00987863
:108D440081F80001DB7881F80131362381F80231A2
:108D540081F803211A4B1A7881F804215A7881F892
:108D640005219A7881F80621DB7881F80731FF2301
:108D740081F808311D23B3F59C7F05DACA18002059
:108D840082F8EC000133F6E7FF238DF80C308DF800
:108D94000D308DF80E308DF80F304323009303AB64
:108DA4004FF4097207480078FFF72CFB05B05DF813
:108DB40004FB00BF38340020083400202434002091
:108DC400103400201434002030B587B0574B187885
:108DD400FEF7EDFB10B9002007B030BD00240246B9
:108DE4000DF10E03009304AB514909684F48007814
:108DF400FFF7ACFBBDF80E30432B01D060B2EBE7BC
:108E04004B4B1B68197F4B4A1278914240F081808A
:108E1400597F484A527891427DD1997F454A927848
:108E240091427AD1D97F434AD278914277D193F84B
:108E34002010404A1279914273D193F821103D4A8F
:108E4400527991426FD1F03381B2F039194428E05C
:108E5400012A41D050B2002839D0032A55D158787C
:108E64009D78354A1570DD7855701D7995709D1D76
:108E74005B79D370031F2B4413E0332A45D19A78CE
:108E84002E4D2A60D87800EB02201A7902EB0020DC
:108E94005A7902EB00222A60063302E0FF2A34D119
:108EA4000B468B42AAD21A78062A20D0D0D9352A6A
:108EB4000FD0E2D9362AF1D19878214A1070D878A7
:108EC4005070187990705879D0700633E9E70133FF
:108ED400E7E79C780333E4E798781A4A1070D87867
:108EE4005070187990705879D0700633D9E7587853
:108EF4009D78154A1570DD7855701D7995709D1D06
:108F04005B79D370031F2B44CBE79A1C5B78134423
:108F1400C7E7002060E700205EE700205CE7002050
:108F24005AE7002058E7002056E700BF1434002019
:108F3400383400200834002020340020242E00205F
:108F440010340020283400201C34002030B583B0B5
:108F54004FF4D850FEF71CFA054603214FF4D850BD
:108F6400FEF748FA41F2883300930F4B11220F4960
:108F74000F480078FFF746FA044629464FF4D850C4
:108F8400FEF738FA14F10D0F02D1012003B030BD01
:108F9400FFF79CFE074B1A68064B1B689B1A012BB4
:108FA400FAD90020F2E700BF243400206C580400F2
:108FB40014340020343400200023044A1360044A8B
:108FC4000A211160034A1370704700BF3434002033
:108FD400282E00203034002010B5224B93F90030A5
:108FE400042B24DC204B1A68204B1B689A4236D28F
:108FF4001F4B93F90030022B13D0042B14D0012BF8
:109004000CD01A4B00221A601B680A33164A1360EC
:10901400144A137801331370012414E0FFF78CFC15
:10902400EFE7FFF73DFDECE7FFF73AFDE9E7104B0B
:1090340093F90030022B0CD0042B0AD0012B04D05E
:109044000124FFF7B9FF204610BD0024084B1C7013
:10905400F7E7FFF771FC0124054B1C70F1E70124CD
:10906400F1E700BF30340020282E002034340020E3
:109074003134002010B5674B93F90030062B00F013
:10908400C280654B187880000130C00000F5407044
:10909400FEF77EF922280DD1FFF796FEC0B25D4B94
:1090A40093F90030042B00F2B180DFE803F00B17D2
:1090B4002F54760000234422022157480078FFF7FA
:1090C400F7F8E9E7554B00221A705A709A70DA7073
:1090D400FFF732FC01244F4B1C7095E0022803D0AB
:1090E400FFF77AFF04468FE04D4B1A68117C4B4B17
:1090F4001970517C5970917C9970D27CDA70FFF7A9
:10910400CFFC444B02221A7001247DE0052805D0CF
:1091140006281AD0FFF760FF044675E0FFF716FF34
:1091240048B1404B1B689847FFF746FF394B032271
:109134001A70012468E0FFF73FFF3B4B1B68984718
:10914400344B00221A7001245EE0FFF735FF01243E
:10915400304B1C7058E0354B1B68B3F1FF3F57D0C0
:10916400334A1268B2EB530F01D804244CE02B4A63
:109174001178304B19705178597091789970D27870
:10918400DA702D4A136801331360FFF789FCFFF787
:1091940013FF04241F4B1C7036E0052805D0062855
:1091A4002AD0FFF719FF04462EE0244B00221A7040
:1091B400204B1A78194B1B789A4209D0204B1B6814
:1091C40098470324FFF7F8FE124B03221A701BE0A2
:1091D400184B5A78114B5B789A42EFD1154B9A7819
:1091E4000E4B9B789A42E9D1124BDA780B4BDB7821
:1091F4009A42E3D10424E5E7FFF7DEFE054B0122A2
:109204001A70042400E00524204610BD0124FBE765
:109214000424F9E7313400201434002024340020DD
:1092240038340020182E00201C2E0020242E00206C
:10923400343400202C340020183400203034002032
:10924400202E0020F0B583B006460D46002301937E
:10925400224C062221464FF41060FEF7FFF82078D6
:109264006778A178E27823796479384301430A4323
:109274001343234322D01A4B1E701A4B1D601A4B02
:109284001A4A1A6004220DEB02014FF47060FEF7D3
:1092940023F904220DEB02014FF47060FEF71CF970
:1092A40004220DEB02014FF48070FEF715F9FFF76D
:1092B40083FE0F4B00221A7003B0F0BD0749002350
:1092C4000B7008224A70DC228A70CB700B714B71D0
:1092D40006224FF41060FEF7FFF8CCE708340020B4
:1092E4001434002038340020183400207856341206
:1092F40031340020024A136801331360704700BF01
:1093040034340020044B1A7802705A7842709A78E8
:109314008270DB78C370704724340020044B1A78C1
:1093240002705A7842709A788270DB78C370704702
:1093340020340020044B1A7802705A7842709A78CC
:109344008270DB78C370704728340020044B1A788D
:1093540002705A7842709A788270DB78C3707047D2
:109364001C3400204FF08043D3F8003163B94FF030
:1093740080430022C3F8002101221A604FF0804389
:10938400D3F80031002BF9D04FF08043D3F80431E7
:1093940063B94FF080430022C3F8042101229A608C
:1093A4004FF08043D3F80431002BF9D0704700000C
:1093B400064B074AC3F81025064AC3F81825064A7F
:1093C400402111600122C3F804237047006000406B
:1093D400010F0100030B130000E100E04FF0A04374
:1093E4000322C3F83C27024B024AC3F814257047F2
:1093F40000600040030F030008B5064BD3F80031AA
:1094040003B908BD034B0022C3F8002100F002F9A0
:10941400F7E700BF006000404FF0A0430322C3F809
:109424002C27C3F83027C3F834274FF48052C3F8ED
:109434000C254FF40052C3F80C2570474FF0A0439D
:109444000022C3F83C270322C3F838274FF4804294
:10945400C3F80C25704700000A4B0B4AC3F81025CB
:109464000A49C3F81019C3F8202502F59F3202F502
:10947400A272C3F82425443AC3F818290522C3F874
:109484000425704700F0014000610040086000407E
:10949400064B074AC3F81825A2F5A832A2F59E7216
:1094A400C3F81C250222C3F80425704700F00140CC
:1094B40040B1014038B5054610EE100A1AF07AFEA4
:1094C4001BA3D3E900231AF091FE0022154B1AF0D6
:1094D40043FF1AF059FE6FEA40406FEA504080B2F1
:1094E400114C2080114BC3F860550121C3F80015BD
:1094F4000022C3F804250420C3F80C054FF47A7045
:10950400C3F80805C3F81425C3F81025C3F820458B
:10951400C3F82415C3F82825C3F82C25996038BD51
:10952400AFF3008000408F403C3400200010024024
:10953400000000000088C34008B5FFF7DBFE08BD4B
:10954400084B0022C3F804250322C3F8082504228B
:10955400C3F81025044AC3F840250122C3F80022A9
:10956400704700BF00A0014040420F00024B01229F
:109574005A60DA60704700BF00A001400A4B012125
:1095840059600022C3F804250322C3F808250422E5
:10959400C3F810254FF47A7202FB00F0C3F84005BB
:1095A400C3F80012704700BF00B0014008B50C4A70
:1095B40001210C481AF098FD38B900224FF40041FB
:1095C40009481AF0A7FD28B908BD084A332114F048
:1095D40005FBF2E7054A342114F000FBF4E700BF71
:1095E4003D95020080580400403400208458040053
:1095F400064B1B68181A064B984206DA0028B8BFB7
:109604004042C0F5742000F51070704764340020A7
:10961400E05EF8FF70B50C4E34680C4DD5F8440587
:10962400FFF7E6FF201A0A4A10600A490B68013363
:109634000B6013683360084B01221A70D5F8442577
:10964400064B1A6070BD00BF6834002000A00140C2
:10965400603400206C340020703400206434002016
:10966400224B1B7803B9704730B5BDB00023089373
:10967400ADF8243008A800F09DF91D4B1B68079332
:1096840000F07AF920B1194B00221A703DB030BDB8
:10969400012000F077F99DF822309DF823209DF8F1
:1096A40024109DF82500134C2468134D2D6805954E
:1096B400049403900291019200939DF821309DF847
:1096C40020200E490AA81BF0CEF80AA81BF089F93D
:1096D40042F6F923009307ABC2B20AA90320FEF7AE
:1096E40091FE002000F04EF9CDE700BF7034002059
:1096F400C8580400603400206C340020CC580400A6
:109704000023054A1360054A1360054A1360054A9D
:109714001360054A137070476434002068340020D5
:10972400603400206C3400207034002008B501231C
:1097340042F2107202210620FEF7BAFD08BD0000B5
:1097440008B5044B01221A709FED030A0D20FFF7A0
:10975400B1FE08BD743C0020CDCCCC3D08B500233F
:1097640044F2894202210320FEF7A2FDFFF7E8FF3D
:1097740008BD00002DE9F0438DB006AF06468846CB
:109784003C1D3C4D0FCD0FC42B6823803A4C112255
:10979400314620461BF09CF81122391D20461BF04F
:1097A40077F840B218B11C37BD46BDE8F0836D466A
:1097B400324B01221A70A8F10A0323F00703ADEB20
:1097C400030D06A84FF00009C7F800900446A8F15D
:1097D400110206F111011BF0A8F84B4649460BE0B3
:1097E40001EB8101480080B2024492B2303A91B256
:1097F40001E00133DBB20134042B15D82278A2F145
:1098040030000928F5D8032BEAD807F1180000EB3B
:10981400030C1CF8186C06EB86067000C0B20244F8
:10982400303A0CF8182CE6E73A68154B1A60154BD9
:109834001960154B1B6813F4804F03D0134B1B683E
:10984400032B01DCAD46AEE7114BD3F8043505918B
:10985400110E0491C2F307410391C2F3072102914F
:10986400D2B201920B4A009280220B49042006F0E6
:10987400C9FAE7E79C590400843C0020763C0020A8
:109884002C2E0020302E0020942E0020902E00201C
:10989400001001407C59040068590400284B1B78CF
:1098A40003B1704710B586B0254B01221A70FFF73B
:1098B4007DFE24490220FFF7C5FC2348234A0146C4
:1098C400FEF7A2FF002431E01D4B00221A7006228D
:1098D4001F494FF41060FDF7C1FD1E48FFF712FD4C
:1098E4001D4B1B6813F4804F03D01C4B1B68032BC8
:1098F40006DCFEF747FB124B00221A7006B010BDBF
:10990400174BD3F80435134A117850789478D278E9
:109914000492039402900191124A00929B221249EC
:10992400042006F06FFAE4E70A2CE4D8FFF7A2FB60
:109934000428C9D00028F7D10134E4B2F4E700BF09
:10994400753C002074340020418702008B8702009C
:109954007C3C0020783C0020942E0020902E002097
:10996400001001401859040068590400014B18788C
:10997400704700BF743C0020014B1878704700BF4B
:10998400753C0020014B1870704700BF753C0020E7
:10999400014B1878704700BF763C0020014B1870CB
:1099A400704700BF763C0020014B1B680360704782
:1099B400783C00200346034A1068186092889A8015
:1099C400704700BF7C3C0020014B01221A70704795
:1099D400382E0020014B00221A707047382E0020C8
:1099E40008B500F06BFD024B01221A7008BD00BFE0
:1099F400953C0020014B00221A707047953C0020D2
:109A040008B5FFF7BBFDFFF7E9FCFFF741FD0123B4
:109A1400024A1360024A137008BD00BF00B001403F
:109A2400963C0020034B01225A60034B00221A701B
:109A3400704700BF00B00140963C002008B5642385
:109A440003FB00F0024B18601868FFF7D9FF08BD4C
:109A54003C2E002030B5C3B00620FDF7A8FD002839
:109A640000F0F984994B5B68059342F21073ADF8EA
:109A740012300023069306A8FFF796FF0DF1120398
:109A8400009305ABC82210A90620FEF75FFD00284D
:109A9400E2DD0BAC8E4D0FCD0FC42B68237010226A
:109AA40010A907A81AF014FF10220BA907A81AF08E
:109AB400EFFE40B20028CFD19DF850209DF85140D0
:109AC400531E472B00F2AE84DFE813F04800600019
:109AD400AC04AC04AC04AC04AC04AC04AC0478003A
:109AE400850089009F00B800CF00AC04AC04AC042E
:109AF400AC04AC04AC04AC04AC04AC04AC04AC04E2
:109B0400AC04AC04AC04AC04AC04AC04AC04AC04D1
:109B1400AC04AC04AC04AC04AC04E6001C01360197
:109B240051018301AC04AC04AC04AC04AC04C10129
:109B34000C025702C802AC04AC04AC04AC04AC0480
:109B4400AC042C037903AC04AC04AC04AC04AC0446
:109B5400AC04AC04AC04C7033A048F045D4B1B682B
:109B640013F4804F03D05C4B1B68032B03DC5B4B6B
:109B740001221A7070E75A4BD3F80435594A0092FF
:109B84009B225949042006F03DF9F0E7514B1B682C
:109B940013F4804F03D0504B1B68032B03DC4F4B53
:109BA40000221A7058E74E4BD3F804354F4A0092FE
:109BB400A0224D49042006F025F9F0E7FFF7E8FE5E
:109BC40018B10120FFF7EAFE46E721460DF15200E5
:109BD400FFF7D0FDF5E70020FFF7E0FE3CE73D4B43
:109BE4001B6813F4804F3FF437AF3B4B1B68032BC8
:109BF4007FF732AF3A4BD3F804353D4A0092B12295
:109C04003949042006F0FEF826E7324B1B6813F4AA
:109C1400804F03D0304B1B68032B04DCDDF852006B
:109C240000F096FC18E72E4BD3F80435314A009225
:109C3400B5222D49042006F0E5F8EFE7254B1B6813
:109C440013F4804F03D0244B1B68032B02DCFFF773
:109C5400C7FE01E7224BD3F80435274A0092BA2203
:109C64002149042006F0CEF8F1E71A4B1B6813F4DF
:109C7400804F03D0184B1B68032B02DCFFF7BAFE9E
:109C8400EAE6174BD3F804351C4A0092BF22164962
:109C9400042006F0B7F8F1E70E4B1B6813F4804F6D
:109CA40003D00D4B1B68032B05DCB7EE000A0D2017
:109CB400FFF700FCD0E60A4BD3F80435104A0092B3
:109CC400C4220949042006F09DF8EEE7B0590400C7
:109CD400405E0400942E0020902E0020973C00202B
:109CE40000100140FC590400E8590400145A04000F
:109CF4002C5A04004C5A04006C5A0400885A04007C
:109D0400A05A0400B64B1B6813F4804F03D0B54B24
:109D14001B68032B05DC9FEDB40A0D20FFF7CAFB7B
:109D24009AE6B24BD3F80435B14A0092C922B1493C
:109D3400042006F067F8EEE7A94B1B6813F4804F84
:109D440003D0A84B1B68032B06DCAB4B93ED000A36
:109D54000D20FFF7AFFB7FE6A44BD3F80435A74AE9
:109D64000092CE22A349042006F04CF8EDE79C4B68
:109D74001B6813F4804F03D09A4B1B68032B1ADC27
:109D84009DF8523007EE903A9DF8533007EE103AA2
:109D9400B8EEC77AB2EE046AC7EE066AF8EEE77A5E
:109DA40077EEA67A944BC3ED007A93ED000A0D206A
:109DB400FFF780FB50E68D4BD3F804359DF8522015
:109DC40001928F4A0092D3228A49042006F01AF89D
:109DD400D6E7834B1B6813F4804F03D0814B1B6879
:109DE400032B15DC9DF8523007EE903AF8EEE77A33
:109DF4009DF8533007EE103AB8EEC77AF2EE046AD3
:109E040087EE260A37EE800A0D20FFF753FB23E680
:109E1400764BD3F804459DF852509DF8533007EE25
:109E2400903AF8EEE77AB2EE047AC7EE877A17EE44
:109E3400900A1AF0BFF9CDE902010195714B009324
:109E44002346D9226B49042005F0DCFFCAE7644BA2
:109E54001B6813F4804F03D0624B1B68032B1BDC7D
:109E640006A90DF1520000F022FB00BB5C4B1B68FD
:109E740013F4804F3FF4F0AD5A4B1B68032B7FF76C
:109E8400EBAD5A4BD3F804355F4A0092E8225949A6
:109E9400042005F0B7FFDFE5544BD3F804355B4AE3
:109EA4000092DF225349042005F0ACFFD8E7B7EE57
:109EB400000A0D20FFF7FEFA494B1B6813F4804F8C
:109EC4003FF4CAAD474B1B68032B7FF7C5AD474B27
:109ED400D3F804354E4A0092E4224649042005F0A2
:109EE40091FFB9E53E4B1B6813F4804F03D03D4B03
:109EF4001B68032B1BDC06A90DF1520000F0D7FAF6
:109F040000BB374B1B6813F4804F3FF4A5AD354BB2
:109F14001B68032B7FF7A0AD344BD3F804353D4ABF
:109F24000092F5223349042005F06CFF94E52F4B91
:109F3400D3F80435384A0092ED222E49042005F066
:109F440061FFD8E79FED280A0D20FFF7B3FA244BF1
:109F54001B6813F4804F3FF47FAD224B1B68032B27
:109F64007FF77AAD214BD3F804352C4A0092F122C5
:109F74002049042005F046FF6EE5194B1B6813F4D5
:109F8400804F03D0174B1B68032B1DDC06A90DF172
:109F9400520000F08CFA002844D1114B1B6813F4D2
:109FA400804F3FF459AD0F4B1B68032B7FF754AD23
:109FB4000E4BD3F80435144A00924FF481720D49C4
:109FC400042005F01FFF47E5084BD3F80435144A75
:109FD4000092FA220749042005F014FFD6E700BFD7
:109FE400942E0020902E002000000000001001405C
:109FF400B85A0400E8590400342E0020D05A040052
:10A00400FC5A0400285B04008C5B0400505B0400D1
:10A014006C5B0400E85B0400A85B0400C45B040000
:10A02400045C0400B54B93ED000A0D20FFF742FADF
:10A03400B34B1B6813F4804F3FF40EADB14B1B6858
:10A04400032B7FF709ADB04BD3F80435AF4A009228
:10A05400FE22AF49042005F0D5FEFDE4A84B1B68A1
:10A0640013F4804F03D0A74B1B68032B1CDC06A9F9
:10A074000DF1520000F01BFA10BBA14B1B6813F446
:10A08400804F3FF4E9AC9F4B1B68032B7FF7E4AC94
:10A094009D4BD3F804359F4A00924FF488729C4933
:10A0A400042005F0AFFED7E4974BD3F804359A4A61
:10A0B400009240F207129649042005F0A3FED6E769
:10A0C4009DF8563007EE903AF8EEE77A9DF857304F
:10A0D40007EE103AB8EEC77AF2EE046A87EE260A63
:10A0E40037EE800A0D20FFF7E5F9854B1B6813F462
:10A0F400804F3FF4B1AC834B1B68032B7FF7ACACB0
:10A10400814BD3F804359DF856209DF857100291E1
:10A114000192824A00924FF486727D49042005F030
:10A1240071FE99E4764B1B6813F4804F03D0754B92
:10A134001B68032B1CDC06A90DF1520000F0B7F9D3
:10A1440010BB6F4B1B6813F4804F3FF485AC6D4B11
:10A154001B68032B7FF780AC6B4BD3F804356D4A37
:10A1640000924FF48F726A49042005F04BFE73E4A9
:10A17400654BD3F804356A4A009240F215126449DB
:10A18400042005F03FFED6E7FFF724FCFFF728FC88
:10A194005B4B1B6813F4804F3FF45EAC594B1B6858
:10A1A400032B7FF759AC584BD3F804355D4A009222
:10A1B4004FF48D725649042005F024FE4CE4504BB4
:10A1C4001B6813F4804F03D04E4B1B68032B1CDC1D
:10A1D40006A90DF1520000F06AF910BB484B1B6848
:10A1E40013F4804F3FF438AC464B1B68032B7FF7C6
:10A1F40033AC454BD3F80435464A00924FF496727B
:10A204004349042005F0FEFD26E43F4BD3F8043512
:10A21400454A009240F223123D49042005F0F2FD24
:10A22400D6E7FFF7E7FBFFF7CFFB354B1B6813F4CB
:10A23400804F3FF411AC334B1B68032B7FF70CACFE
:10A24400314BD3F80435394A00924FF494723049B3
:10A25400042005F0D7FDFFF7FFBB294B1B6813F45F
:10A26400804F03D0274B1B68032B21DC06A90DF17B
:10A27400520000F01CF938B32D4B1868FFF7C0FBEF
:10A284001F4B1B6813F4804F3FF4E6AB1D4B1B6858
:10A29400032B7FF7E1AB1C4BD3F80435254A00921E
:10A2A40040F235121A49042005F0ACFDFFF7D4BB87
:10A2B400154BD3F80435204A009240F23112144968
:10A2C400042005F09FFDD1E7FFF7ACFB0C4B1B68A6
:10A2D40013F4804F3FF4C0AB0A4B1B68032B7FF78A
:10A2E400BBAB094BD3F80435144A00924FF49D726A
:10A2F4000749042005F086FDFFF7AEBB342E00208D
:10A30400942E0020902E002000100140245C0400B4
:10A31400E85904008C5B0400545C0400785C04007D
:10A32400AC5C0400CC5C0400F05C0400105D040030
:10A334003C2E0020505D0400385D04007C5D040068
:10A34400464B1B6813F4804F03D0454B1B68032B0B
:10A354001DDC06A90DF1520000F0A9F818BB3F4B13
:10A364001B6813F4804F3FF477AB3D4B1B68032B02
:10A374007FF772AB3B4BD3F804353B4A009240F273
:10A3840047123A49042005F03DFDFFF765BB354B04
:10A39400D3F80435364A009240F23F123349042080
:10A3A40005F030FDD5E79DF85600FFF747FB2B4B32
:10A3B4001B6813F4804F3FF44FAB294B1B68032BEE
:10A3C4007FF74AAB274BD3F804359DF85610642227
:10A3D40002FB01F20192274A009240F24312234900
:10A3E400042005F00FFDFFF737BB1C4B1B6813F46B
:10A3F400804F03D01A4B1B68032B07DCFFF712FBBB
:10A40400FFF7B4F8FFF77CF9FFF726BB154BD3F839
:10A414000435194A00924FF4A6721449042005F039
:10A42400F1FCEBE70D4B1B6813F4804F3FF414ABC6
:10A434000B4B1B68032B7FF70FAB0A4BD3F8043588
:10A4440001920E4A00924FF4AA720849042005F0C2
:10A45400D9FCFFF701BB43B030BD00BF942E0020F0
:10A46400902E0020001001408C5B0400E859040089
:10A47400B85D0400D45D0400045E0400185E0400AA
:10A484009A420ED1002393420FD230B4C55CCC5C07
:10A49400A54208D10133DBB29342F7D3012030BC8B
:10A4A4007047002070470020F9E70120704708B585
:10A4B40004231A46FFF7E4FF08BD000008B5214B4A
:10A4C40042221A7000225A709A704FF08053D3F8C7
:10A4D400A430B3F1FF3F22D04FF08052D2F8A41041
:10A4E400184BD970D2F8A410090A1971D2F8A41023
:10A4F400090C5971D2F8A410090E9971D2F8A81058
:10A50400D971D2F8A820120A1A720F4B1B680D4891
:10A51400C0F809300A23437000F020F808BD4FF05A
:10A524008053D3F8A8309BB24FF6FF729342D3D135
:10A53400044B064A1068C3F803009288A3F8072066
:10A54400E3E700BF983C0020545E0400585E04001A
:10A55400014B1860704700BF402E0020014BC3F828
:10A56400040570470010004010B40346044C006812
:10A5740059689A68DB680FC45DF8044B704700BFE4
:10A58400A83C00200B4B0C4A92E8030083E803002C
:10A5940003F10802094903C982E80300DA790421B6
:10A5A40061F30712DA711A7A022161F387121A72BF
:10A5B400704700BFA83C002060000010A4000010F9
:10A5C40000487047A83C002000231F2B09D80749E6
:10A5D40001EBC30000224280426001F833200133C2
:10A5E400F3E7034B00221A60704700BFB83C002019
:10A5F400B83D002030B405460F4B1B6800240AE028
:10A604001F230E4A12F83300A0B102EBC302528892
:10A61400AA4207D001341F2C0BD85A1E002BEFD0AE
:10A624001346EEE7054A02EBC30252688A42F1D1AF
:10A6340000E0002030BC7047B83D0020B83C00204A
:10A6440030B40A4A13680A4C04EBC3056880696095
:10A65400012104F833100B441360202B01D030BCCB
:10A664007047134600221A60F9E700BFB83D002086
:10A67400B83C0020C0F30C038B4204D2C91A014435
:10A68400A1F500507047C91A08447047C37D002BD8
:10A6940042D083780A7802F0800203F07F031343E8
:10A6A4000B7002780B7803F07F0343EAC2130B703C
:10A6B4000378002B41D030B44378082B14BF002218
:10A6C40001224B7803F07F0343EAC2134B70858861
:10A6D40003F08003C5F3861423434B708A7802F099
:10A6E400030242EA8502D2B28A70857902F0FC0242
:10A6F400C5F3C10422438A70CB7803F01F0343EAF5
:10A704004513DBB2CB70C27903F0E00302F01F0201
:10A714001343CB7030BC704783780A7802F0BF02D1
:10A724009B0103F0400313430B70C27803F0C00392
:10A7340002F03F0213430B70B3E770470023032B6F
:10A7440022D810B402E00133032B19D8C3EBC3029F
:10A7540014010E4A224492F84820012AF3D10B4AEC
:10A764002244948AC2899442EDD1C3EBC3021401FA
:10A77400064A224492888A42E5D10448204400E0F3
:10A7840000205DF8044B704700207047283E0020ED
:10A79400002300E00133032B14D8C3EBC3021101DF
:10A7A400094A0A4492F84820022AF3D1064A0A4484
:10A7B400918A828A9142EDD1C3EBC3031A01024804
:10A7C4001044704700207047283E002008B9042038
:10A7D400704708207047000038B505460C46CB6921
:10A7E4005B78C370CB691B7883F001038370CB69FA
:10A7F4004362087B022814D0FFF7E8FF6870E27A0E
:10A8040032B9A18AC0F10F03994201DC082833D080
:10A81400A18A0346C0F10F00814207DC52B3012232
:10A8240005E0164B987DFFF7D1FFE7E701222A7078
:10A8340062B1A28A13440B33114A82FB0312DB1761
:10A84400C3EB6203013BEB710023AB710023EB7597
:10A8540005F10C0294E8030082E80300A2692A626D
:10A864002289AA82A27AAA75226AAA6285F82C3061
:10A87400184638BD0022DAE70720FAE7103E002028
:10A88400ABAAAA2A30B403460C4609788170002189
:10A894004162A1680B2903D8217B09B3012100E09F
:10A8A400012119700020587029B1A1680731C90825
:10A8B4000139D97198710121D97503F10C0504F19D
:10A8C400100103C985E80300E1899982A16919622D
:10A8D400217F9975617F83F82C109A6230BC704790
:10A8E4000021DEE70021174B1B688B4227D9002388
:10A8F400154A02EBC10252689A421ED910B40FE005
:10A9040060685DF8044B704701310E4B1B688B4245
:10A9140011D900230C4A02EBC10252689A42F3D9BE
:10A92400094A52F8312002EBC30412F83320824260
:10A93400E6D00133EEE70020E3E70131D3E700205E
:10A94400704700BFBC3D0020C03D002070B58CB0F6
:10A9540006460D4614462C22002101A81AF00EF8D2
:10A964000F238DF80430ADF808604FF0000365F351
:10A9740000038DF80A308DF80B4001A801F0E6F8C9
:10A984000CB070BD30B58DB005460C462C220021AC
:10A9940001A819F0F3FF10238DF8043002958DF807
:10A9A4000C4001A801F0D2F80DB030BD00B58DB057
:10A9B40010B913F1020F06D1074B186804F050F9CF
:10A9C4000DB05DF804FB01228DF80420029301A868
:10A9D40001F0BCF8F0E700BFC83D00202DE9F041CC
:10A9E400054688460378BBB10D4B1C68621C1A608F
:10A9F40004F00704AB8A0B4F07EBC4067380A988E5
:10AA0400A869FFF737FE7060EB6903F00103737008
:10AA140007F83480BDE8F0817846FCF7A7FCE3E74B
:10AA24000C3E0020CC3D002070B5064603784BB1A7
:10AA3400B58A347F04F00104B188B069FFF71AFEC7
:10AA4400002304E07846FCF791FCF1E70133072B7F
:10AA540015D80C4A02EBC30252688242F6D1094A65
:10AA640002EBC3025288AA42F0D1064A02EBC302A7
:10AA74005278A242EAD1034800EBC30000E0002070
:10AA840070BD00BFCC3D0020F8B515461C460E68CD
:10AA94004A68D1F808C0CF68E6602261C4F814C0DF
:10AAA400A7610E694A69E66122620378DB092370B3
:10AAB400E27D2AB3027802F07F02A2700022627063
:10AAC4009BB143789B0103F4FE53827843EA9203DB
:10AAD400A3808378DB0003F01803C27843EA52139F
:10AAE400A371C37803F01F03E371002363622B781F
:10AAF400052B1AD82B780F4AD35C84F82C30F8BD78
:10AB04000278C2F38012A270027802F03F02E2706F
:10AB140043B190F90120002A02DB04226270CFE7DE
:10AB24000822FBE704226270CAE77846FCF71EFCA1
:10AB3400E0E700BF605E040070B50C461E46037873
:10AB4400B3B104252A44A26000F10C032360836A94
:10AB5400636090F82C30237300236373204604F061
:10AB6400E3FB034610B9226915443560184670BDED
:10AB74000125E7E72DE9F0418EB00D4616461C4647
:10AB8400804600282DD0002D2FD0002C31D0636AB0
:10AB94000233059304F10C00A378002B2DD001217E
:10ABA400627801AF3B46082A14BF0022012204F058
:10ABB4009CF90697CDF81C80B2B2ADF820200B9515
:10ABC40015440C9563788DF83430237B022B16D012
:10ABD4000023ADF8283005A804F07FF90EB0BDE8D5
:10ABE400F0817846FCF7C2FBCDE77846FCF7BEFB64
:10ABF400CBE77846FCF7BAFBC9E70221D0E7236923
:10AC04002BB1236909931023ADF82830E3E7784684
:10AC1400FCF7ACFBF5E72DE9F04186B004460D46A0
:10AC2400C37D002B3CD0082605FB06F8E379AB4234
:10AC340038D0A5716B46324601A92046FFF77CFF48
:10AC4400074648BB4DB994F8533033B9A369C3F3ED
:10AC54000C03A380012384F85330E37D7BB994F87B
:10AC6400523063B91DBBB4F84A10627823468A1A7D
:10AC7400E16E0846FFF77EFF012384F85230059900
:10AC84002046FFF703FDE16E32464144009819F077
:10AC94004CFE01A804F067FB384606B0BDE8F0811D
:10ACA4000C26C1E7B4F84A60A6EB0806C1E778466B
:10ACB400FCF75CFBD7E770B505460E4609B10023E7
:10ACC4000B6095F85040002104E0631C85F8503077
:10ACD4000134E4B2EB79A34210D3EA6C0123A3401C
:10ACE4001A42F5D121462846FFF795FF014628B9B7
:10ACF400002EEAD0336801333360E6E7084670BDBE
:10AD0400F0B587B045781544C37D7BB10B239D42D4
:10AD140024D816460F4604466B462A4601A9FFF777
:10AD24000BFF054620B1284607B0F0BD0F23EEE720
:10AD340005992046FFF7AAFCE37D43B13246394624
:10AD4400009819F0F2FD01A804F00DFBEBE723468F
:10AD5400324600993846FFF70DFFF4E70925E2E78C
:10AD640010B5044690F84830012B0CD103F082F85A
:10AD7400237B012B0BD0094BD968014404F130002B
:10AD840003F040F810BD7846FCF7F0FAEEE7A37D37
:10AD9400024AD168126902FB0311EEE7103E00205B
:10ADA40030B583B0002403E02846FFF7D9FF01340F
:10ADB400032C19D8C4EBC4031A010C4B134493F8A5
:10ADC4004830012BF3D100230193C4EBC4021301D7
:10ADD400064D1D4401A92846FFF76DFF0428E3D062
:10ADE400019B002BE3D0DFE703B030BD283E0020F9
:10ADF40038B5044690F84830022B09D1064B1D683B
:10AE040003F038F8411904F1300002F0FBFF38BDBB
:10AE14007846FCF7ABFAF1E7103E002038B504465B
:10AE240090F84830022B10D10A4B5D7D5A689B681C
:10AE340003FB052503F01EF8411904F1500002F04C
:10AE4400E1FF012384F8683038BD7846FCF78EFAB8
:10AE5400EAE700BF103E002038B50446C06E08F093
:10AE6400ECF804F13005284602F0E9FF70B994F8D3
:10AE74004830022B0ED070220021204619F07EFDAE
:10AE8400002084F8480002F02DF838BD284602F06E
:10AE9400A1FFECE704F15005284602F0D0FF00289A
:10AEA400E9D0284602F096FFE5E710B504460121F3
:10AEB400FFF794FD2046FFF7CFFF10BD10B58CB00F
:10AEC400044690F84830012B0CD101238DF804304E
:10AED400636D029301A800F039FE2046FFF7BCFF22
:10AEE4000CB010BD7846FCF741FAEEE730B585B0FA
:10AEF4000D460446A8B100212046FFF76FFD294600
:10AF0400606DFFF73FFD2046FFF7A6FF0F4B1B6860
:10AF140013F0040F03D00E4B1B68032B05DC05B0A4
:10AF240030BD7846FCF722FAE5E70A4BD3F804353E
:10AF340094F8482002950192074A009240F2EF12D9
:10AF44000649042004F05EFFE9E700BF942E0020C8
:10AF5400902E002000100140B85E0400AB5E040097
:10AF640008B508460021FFF7C1FF08BD08B5037BFB
:10AF7400012B02D0FFF7A2FF08BD0121FFF7B6FFA6
:10AF8400FAE7000008B590F8513053B1013B80F85E
:10AF94005130002380F85030034B186803F060FEF2
:10AFA40008BDFFF7E3FFFBE7C83D002010B50C46E2
:10AFB40091F84830012B03D12046FFF7E3FF10BD81
:10AFC4007846FCF7D3F9F7E7062951D170B582B07A
:10AFD40003460178890101F4FE5140789D78DC78BC
:10AFE400240444EA05641D7944EA05245B791C437E
:10AFF40041EA90011046FFF7A1FB0546B8B1C66CC3
:10B004002643C66444B3037853B3EB795A1C012333
:10B014009340013B9E4227D0002185F850102846DA
:10B02400FFF749FE2846FFF79BFE02B070BD114BA7
:10B034001B6813F0040FF8D00F4B1B68012BF4DDD1
:10B044000E4BD3F804350E4A009240F2A7520D4934
:10B05400022004F0D7FEE8E70321FFF747FFE4E707
:10B064007846FCF783F9D0E72846FFF727FFDCE7AB
:10B07400704700BF942E0020902E00200010014045
:10B08400DC5E0400AB5E04002DE9F04389B0804629
:10B094000F4614461E46957825B9FFF795FF09B06B
:10B0A400BDE8F0832846FFF71DFC81460028F6D052
:10B0B4008DF80050236A0693A38AADF80E3004ABD2
:10B0C40004F10C0292E8030083E80300A37D8DF8E9
:10B0D4001C30CDF80480029723788DF80C3094F856
:10B0E4002C308DF81D3031466846C847D7E700003C
:10B0F4002DE9F04706460F4690464B1EDBB2012B66
:10B104000FD8B8F5C07F10D80024032C1AD8C4EB8C
:10B11400C4031A01314B134493F848304BB1013442
:10B12400F3E77846FCF722F9EBE77846FCF71EF9DB
:10B13400EAE7DFF8A8A015465544404607F079FF32
:10B14400E86600E0002585B3EB6E002B44D033465F
:10B154002A4606F1300ED3F800C05C689868D968B6
:10B16400C2F800C054609060D1601033103273454F
:10B17400F1D10023EB64A5F84A80B188B069FFF7E8
:10B1840079FAA861012F13D06FF00103AB62002399
:10B1940085F86830124BAB652D66124BAB632D649A
:10B1A400012001F09FFE85F848702846BDE8F0872D
:10B1B4000D4B1B7D85F85130002385F8523085F8FE
:10B1C400533085F85030B36A6B656FF00103AB629E
:10B1D400064BAB632D64E3E70025E6E7283E002039
:10B1E40095BA020065AF0200103E0020B1AF020024
:10B1F400F0B5C7B046781644C37D2BB14FF48073C5
:10B20400B3427ED3002303E04FF4C073F8E7013365
:10B21400032B19D8C3EBC30425013C4C2C4494F8EC
:10B224004840012CF3D1394C2C44A58A848AA54288
:10B23400EDD1C3EBC3042501344C2C44E589C48906
:10B24400A542E4D1082455E014460F4632460121B4
:10B25400FFF74EFF0546002855D022463946C06EFA
:10B2640019F063FB0023459345A92846FFF723FD06
:10B27400044608B1042840D1459B7BB9244B1B6884
:10B2840013F0040F35D0234B1B68032B31DDB5F8C5
:10B294004A70802F28BF8027002313E02846FFF739
:10B2A4005FFDEBE7EA6ED25C1B490C68100959009C
:10B2B400265C04A800F8136002F00F020131A25CBE
:10B2C40042540133BB42EDD304AA002302F81730E1
:10B2D40003F1804303F58833D3F8043502920F4A0F
:10B2E40001920F4A009240F2D1420E49042004F028
:10B2F40089FD0024204647B0F0BD2846FFF7ACFD89
:10B30400F8E70924F6E70424F4E700BF283E002008
:10B31400942E0020902E0020982E00200C5F040014
:10B324008C540400AB5E040000B585B000238DF896
:10B334000F3098B10346084602330B600DF10F013C
:10B3440003F0CFFD9DF80F3043B10D4B1B6813F094
:10B35400040F03D00B4B1B68032B04DC9DF80F0078
:10B3640005B05DF804FB084BD3F80435074A009296
:10B3740040F2A6320649042004F044FDEEE700BF83
:10B38400942E0020902E0020001001401C5F040029
:10B39400AB5E04002DE9F0438FB004460E4615461B
:10B3A4001F46D0F81890037823B181884846FFF7E8
:10B3B40061F9A06104F10C00A378002B3AD00121BB
:10B3C40062780DF128084346082A14BF002201229E
:10B3D40003F08BFDC4F81890CDF8088003966378C9
:10B3E400EA1A92B2ADF810203244089207978DF809
:10B3F40024300023ADF81830237B022B1CD0A37813
:10B404006BB3237B022B1BD02546002345F8243F36
:10B414002A46E178206A0EF07BFA606A98B101A9A5
:10B42400FFF782FF00283AD12A46E178206A0EF01D
:10B434006FFAF2E70221C3E71023ADF81830DEE714
:10B4440023690593E0E7237B022B2CD104F10C0143
:10B45400E0890EF00BFB0028D3D1052020E0002367
:10B464006362237B012B0DD02146002341F8243F46
:10B47400A08A0EF06AFA01A9606AFFF755FFA0B925
:10B4840005200DE004F12401E0890EF05EFA01A923
:10B49400606AFFF749FF0028E6D0002000E00020A2
:10B4A4000FB0BDE8F0830520FAE70020F8E70000BC
:10B4B40070B5F0B00D4614461E4610AB0A46014660
:10B4C4002046FFF767FFA0B11F4B1B6813F0040F62
:10B4D40037D01E4B1B68052B33DD1D4BD3F80435C9
:10B4E4001C4A009240F219621B49062004F08AFCAF
:10B4F40027E003AB01228DF80C20A28AADF80E20C0
:10B50400002204928DF8142010AA06926278AD1AD3
:10B51400ADF81C5008AA93E8030082E803000AABC4
:10B5240004F10C0292E8030083E80300A37D8DF884
:10B534003830236A0C93636A0D930F9605A800F0C4
:10B5440005FB70B070BD00BF942E0020902E00202B
:10B5540000100140545F0400AB5E040010B5D47DBC
:10B5640014B1FFF791FD10BDFFF7A2FFFBE770B523
:10B5740004460D461646808A01F0D4FF01281AD1EC
:10B58400237BD3B1022B0BD094F91630002B16DB9E
:10B59400237853B1324629462046FFF729FE0BE0B3
:10B5A4002369002BF0D1102006E0324629462046BC
:10B5B400FFF7A6FB00E0102070BD1020FCE7072079
:10B5C400FAE7000010B54FF4E0720021134819F0B7
:10B5D400D5F905F077FE0024114B1C60402221466A
:10B5E400104819F0CBF9104B104A1A60104A5A60EF
:10B5F4004CF250329A600F49D9601A6104221A75CC
:10B604009C7508225A750C4803F00AFB0B4B186012
:10B614000B4B1C600B4805F059FF10BD283E002061
:10B624000C3E0020CC3D0020103E00208096980067
:10B63400F049020020A10700E9B70200C83D00203C
:10B64400BC3D0020B1A9020008B505F0B3FD08BD5A
:10B65400C0B110B58CB004460369B3B1C369B3B1CA
:10B664008369B3B101466846FFF7B6F8034610B1E3
:10B6740018460CB010BDA28A21696846FFF777FF0F
:10B684000346F5E70E23184670470E23F0E70E2312
:10B69400EEE70E23ECE7D0B110B58CB00446426857
:10B6A400BAB18269BAB1027C022A16D0BAB190F951
:10B6B4000020002A15DB0A4601466846FFF7E2F837
:10B6C400A26861686846FFF752FF0CB010BD0E20F7
:10B6D40070470E20F9E70E20F7E71020F5E7102059
:10B6E400F3E70720F1E70000037B012B01D00020E2
:10B6F400704730B58DB001AC00230293CDF80B3008
:10B704008288C2F386158DF8045092008DF80520C6
:10B714000A0E8DF806200A0C8DF807200A0A8DF807
:10B7240008208DF809100622069201228DF82020A7
:10B73400828AADF8222009938DF810300594026AAC
:10B744000A928DF81C30C389ADF81E3090F82C3065
:10B754008DF82D30837D43B98DF82C306FF00101C5
:10B7640004A8FFF798FF0DB030BD024B5B7D8DF848
:10B774002C30F3E7103E002038B590F84830022B07
:10B7840000D038BD90F86830022BFAD10446C16C61
:10B79400FFF7AAFF0028F4D1002384F86830E56C91
:10B7A400237853B1E3795A1C01239340013B9D4212
:10B7B400E7D12046FFF779FBE3E77846FBF7D6FDB0
:10B7C400F0E7000010B5002407E0C4EBC402130145
:10B7D40003481844FFF7D0FF0134032CF5D910BDFA
:10B7E400283E002008B5FFF7DBFAFFF7EBFF012046
:10B7F40008BD00002DE9F04182B007460E4614460C
:10B8040098461046FEF7C4FF054620B1A2888388F7
:10B814009A4210D312D82046FFF706F9B8B103783C
:10B824004BB123787BB1E1794B1C0121994001395B
:10B834002046FFF759FF02B0BDE8F0810521FFF76C
:10B8440055FB0025E7E77846FBF790FDEBE7002D75
:10B8540056D05F4B1B6813F0040F04D05D4B1B687C
:10B86400032B00F385802846FFF7C2FA2B7B012BBC
:10B8740000F08C80EA6CA17901238B401A42DAD162
:10B884001343EB64A279EB799A4200F08880E37D5C
:10B89400002B00F08F800823B34240F08D80EB6EC4
:10B8A400A079E27D002A00F08C80082432463946D3
:10B8B40004FB003019F039F8EC6C2B78002B00F005
:10B8C4008280EB795A1C01239340013B9C42B2D104
:10B8D400022385F86830E96C2846FFF705FF044623
:10B8E40043462A46B5F84A10E86EFFF737FE002CA7
:10B8F400A1D1002385F868302846FFF7D6FA9AE7E5
:10B90400E279531CE17DE9B1082202FB03F2D9B1CB
:10B914004FF4807393421AD22D4B1B6813F0040F1B
:10B9240089D02C4B1B68002B85DD2B4BD3F80435B9
:10B9340001922A4A009240F236322949012004F049
:10B9440061FA78E70C22E0E74FF4C073E2E70221E2
:10B954002046FFF7CDFB054600287FF47AAF00218F
:10B964002046FFF7C1FE02210020FFF70BF862E733
:10B97400194BD3F80435A27901921A4A009240F285
:10B9840051321749042004F03DFA6CE795F8683009
:10B99400002B7FF46FAF2846FFF740FA6AE79BB2AB
:10B9A400E27D2AB1082203FB0263A5F84A3076E758
:10B9B4000C22F8E70C236FE704212846FFF796FAD8
:10B9C40039E70C2472E77846FBF7D0FC79E700BF2F
:10B9D400942E0020902E002000100140305F0400BF
:10B9E400AB5E0400445F04002DE9F0418EB00028F2
:10B9F4004AD00546002A49D0984614460E460022ED
:10BA04000C920D920CA960880EF030F820B9002732
:10BA140038460EB0BDE8F0812269E168208905F05E
:10BA2400FDFB08B10027F3E72269E168208905F0EE
:10BA3400C9FB0746C8B96B46424621462846FFF76C
:10BA440023F803AB0EAA12E9030083E8030003F012
:10BA54006FF89DF8003083B143466A46311F281DB4
:10BA6400FFF7C8FE03F0A8F8D2E72169002201F02D
:10BA740001012089FEF76AFFCAE743466A46711E40
:10BA8400681CFFF76BFDEDE70E27C1E70E27BFE744
:10BA940010B50C4691F84830022B0BD1022384F8E0
:10BAA4006830E16C2046FFF71FFE10B9002384F8CC
:10BAB400683010BD7846FBF759FCEFE7F8B500B3E2
:10BAC4000546164B1F68F7B90E463C46B4420ED2E3
