:020000022000DC
:1060000000F000206D630200556302005763020038
:10601000596302005B6302005D6302000000000040
:106020000000000000000000000000005F630200AC
:106030006163020000000000636302006563020008
:106040006763020067630200676302009DD7030075
:106050006763020067630200019102006763020048
:1060600067630200D1920200CD9A030067630200C9
:1060700067630200676302006763020067630200F0
:1060800067630200F135040029E202006763020041
:106090005536040067630200D1C90300676302003C
:1060A000676302006763020067630200557E0200B7
:1060B0006763020067630200000000000000000048
:1060C00067630200676302006763020067630200A0
:1060D000676302006763020067630200000000005C
:1060E00000000000000000000000000000000000B0
:1060F00000000000000000000000000000000000A0
:10610000000000000000000000000000000000008F
:10611000000000000000000000000000000000007F
:10612000000000000000000000000000000000006F
:10613000000000000000000000000000000000005F
:10614000000000000000000000000000000000004F
:10615000000000000000000000000000000000003F
:10616000000000000000000000000000000000002F
:10617000000000000000000000000000000000001F
:10618000000000000000000000000000000000000F
:1061900000000000000000000000000000000000FF
:1061A00000000000000000000000000000000000EF
:1061B00000000000000000000000000000000000DF
:1061C00000000000000000000000000000000000CF
:1061D00000000000000000000000000000000000BF
:1061E00000000000000000000000000000000000AF
:1061F000000000000000000000000000000000009F
:10620000344935480A1A02D0072291438D46334952
:1062100033480A1A06D00722914381F309880222E3
:1062200082F314882F483049304A00F042F8304851
:106230003049314A00F03DF830483149314A00F0E8
:1062400038F831483149324A00F033F831483249A0
:10625000324A00F02EF832483249334A00F029F829
:1062600032483349334A00F024F833483349002296
:1062700000F02AF832483349002200F025F832486D
:106280003249091A082902DB0022026041601F48D6
:106290001F49884205D00268043003B4904703BC0C
:1062A000F7E700208646EC4600200021284A904768
:1062B000FEE7884207D0521A05D0037801300B70F0
:1062C0000131013AF9D17047884202D002700130A1
:1062D000FAE7704700F0002000E8002000F00020FE
:1062E00000F0002000690400A02D0020302F0020C5
:1062F000A4630200A4630200F047040000690400E4
:10630000A02D0020A02D0020FC480400FC48040023
:10631000FC480400FC480400FC480400FC4804005D
:10632000FC480400FC48040000690400906A040072
:10633000302F0020302F0020302F0020B0630020AD
:10634000B0630020B0630020B0630020B06700207D
:1063500075690200FEE7FEE7FEE7FEE7FEE7FEE7FF
:10636000FEE7FEE7FEE7FEE7704700BF094880470B
:1063700009484FF007018843854608488047084888
:10638000016841F470010160BFF34F8FBFF36F8F5D
:10639000FFF736BF6963020000F00020FDCF030065
:0463A00088ED00E0A4
:1063A40041DF704730B591B04FF0A0430322C3F8EA
:1063B40034274FF40052C3F80C25304A042146F226
:1063C400010008F015FF1DF047F9A8BB00F0AEFC72
:1063D40000F03CFE00F056FE00F082FE2022002178
:1063E40007A81DF0E3FD01238DF81C3007238DF869
:1063F4001F3006238DF82430214B0B93214B0F9330
:10640400214907A80CF08EF8D8B91F4B1B78EBB1C3
:106414000CF0C4F860BB03F0CFFB00F0A7FC002134
:106424004FF4C05000F02EFC0222C8214FF4C0509B
:1064340000F034FC11B030BD144AD32116F006FF2D
:10644400C4E7124AE42116F001FFDEE701AC104D67
:106454000FCD0FC495E8030084E8030001A800F001
:106464008DFB0028D4D0094AF22116F0EFFECFE7C5
:10647400064AF42116F0EAFECDE700BFC9F1020096
:106484005969020099680200362F0020404904002F
:10649400FC48040010B5044600214FF4C05000F03D
:1064A400F1FB04EB8404620032214FF4C05000F08D
:1064B400F5FB10BD08B500F02BFC08BD0F4B1B68A5
:1064C40013F4804F03D00E4B1B68032B00DC704782
:1064D40000B585B00B4BD3F804354A68526911787E
:1064E400526802920191084A00926C2207490420E2
:1064F40008F09AFE05B05DF804FB00BF942E00205E
:10650400902E00200010014014490400A04904000A
:1065140010B584B0B24B1B6813F4804F04D0B14B58
:106524001B68032B00F3F68000F0ACFD00F0D8FDEF
:1065340003A811F051FDAA4B1B6813F4804F04D03B
:10654400A84B1B68032B00F3F08000F0E1FB002153
:106554004FF4C05000F096FB0422C8214FF4C05001
:1065640000F09CFB002011F0FFFE9F4B18809C4B19
:106574001B6813F4804F04D09A4B1B68032B00F361
:10658400E2809A4B9A4A98490988002012F0A4FAAA
:10659400002840F0E4800CF01DF8044695494CF2C4
:1065A400050011F0B7FD002840F0DE8092494CF25E
:1065B400050011F01FFD002840F0DB808F494CF2EC
:1065C400040011F0A7FD002840F0D8808C494CF25B
:1065D400040011F00FFD002840F0D5808949012006
:1065E40011F008FD002840F0D380804B19882088E2
:1065F4000FF0E2FA002840F0D0807C4B1988208804
:106604000FF09CFB002840F0CD807B4B198820883C
:106614000FF096F8002840F0CA8001221146208825
:106624000FF032F9002840F0C780704B1988764B80
:1066340018880FF0C1FA002840F0C3806B4B19880A
:10664400714B18880FF07AFB002840F0BF806E4B26
:1066540018880FF095F9002840F0BD80654B198823
:10666400694B18880FF0C6F9002840F0DF805F4BB3
:106674001988664B18880FF09FFA002840F0DB80D9
:106684005A4B1988614B18880FF058FB002840F0CA
:10669400D7805E4B18880FF073F9002840F0D5803E
:1066A400564B1988594B18880FF0A4F9002840F06C
:1066B400D180534B1988554B18880FF041F80028A6
:1066C40040F0CD80494B1988514B18880FF074FA6B
:1066D400002840F0C980454B19884D4B18880FF0AD
:1066E4002DFB002840F0C580464B1988484B18887C
:1066F4000FF026F8002840F0C1800A220121444B03
:1067040018880FF0C1F8002840F0BD800EF054FA4C
:1067140004B010BD3F4BD3F804353F4A00928622A3
:106724003E49042008F080FDFEE63A4BD3F80435D8
:10673400BDF80C2001923A4A009291223749042074
:1067440008F072FD01E7334BD3F804350190354A64
:10675400009298223149042008F066FD11E7324A7C
:106764009A2116F073FD16E72F4A9F2116F06EFD4D
:106774001CE72D4AA02116F069FD1FE72A4AA12132
:1067840016F064FD22E7284AA22116F05FFD25E7F2
:10679400254AA32116F05AFD27E7234AA52116F01E
:1067A40055FD2AE7204AA62116F050FD2DE71E4A82
:1067B400A72116F04BFD30E71B4AA82116F046FD31
:1067C40033E7194AAB2116F041FD37E7164AAC21ED
:1067D40016F03CFD3BE7144AAD2116F037FD3DE7CA
:1067E400942E0020902E0020482F0020342F0020CB
:1067F40030490400322F0020302F0020562F002073
:10680400542F0020522F0020382F0020502F00201A
:106814004C2F002000100140C8490400A049040086
:10682400E4490400FC49040040490400184AAE212C
:1068340016F00CFD1BE7164AB02116F007FD1FE702
:10684400134AB12116F002FD23E7114AB22116F0D2
:10685400FDFC25E70E4AB32116F0F8FC29E70C4AA3
:10686400B42116F0F3FC2DE7094AB62116F0EEFC2C
:1068740031E7074AB72116F0E9FC35E7044AB821A5
:1068840016F0E4FC39E7024AB92116F0DFFC3DE7D3
:106894004049040000B583B0244B1B6813F4804FB7
:1068A40003D0234B1B68032B1BDC002121481CF065
:1068B400C5FB08BB20481CF001FB10BB1E4B18880D
:1068C4000FF05EF810BB1D4A00211D481CF010FAA1
:1068D40008BB1B4B18880FF053F808BB03B05DF8D6
:1068E40004FB184BD3F80435174A0092C122174908
:1068F400042008F099FCD8E7154AC22116F0A6FC3A
:10690400D8E7134AC42116F0A1FCD7E7104AC521E1
:1069140016F09CFCD7E70E4AC72116F097FCD8E77F
:106924000B4AC82116F092FCD8E700BF942E002031
:10693400902E00204C2F0020502F0020C164020014
:10694400382F002000100140A8490400A049040089
:106954004049040008B503781C2B00D008BD03226D
:10696400C8214FF4C05000F099F90BF025FEF5E76B
:1069740008B502F079FB02F0D1FB02F0E1FB02F072
:1069840099FB02F0EBFB01F075FA01F0DFF902F07C
:1069940083FD02F0FFFC01E002F022FE02F0C8FDDC
:1069A4000028F9D0FFF7FEFCFFF7FAFCFCE7000033
:1069B4002B4B1B78002B52D000B585B0012804D096
:1069C400032845D005B05DF804FB0023029302A917
:1069D400012015F0A9FE40BB02A815F0F7FE38BB54
:1069E4000123039303A90DF1060012F021F810BB53
:1069F400BDF8060011F0B8FC0DF1050111F00EFE12
:106A0400E0B90DF077F89DF8051000200DF0AEF90F
:106A1400B8B906F0D9F9C0B9114B00221A70114B5C
:106A24001B68002BCED09847CCE716F001FCD3E7C7
:106A340016F0FEFBD4E716F0FBFBD9E716F0F8FBE3
:106A4400DFE7784600F02CFCE3E716F0F1FBE3E720
:106A540015F032FF0028B5D016F0EAFBB2E7704714
:106A64005A2F00205C2F002008B5064B01221A7013
:106A7400054806F013FA06F0F3F900B908BD16F05C
:106A8400D7FBFBE75A2F0020A02D002008B5037880
:106A94001B2B00D008BD074B1B78002BFAD015F038
:106AA4004FFF18B9044806F0FDF9F3E716F0C0FBF0
:106AB400F8E700BF5A2F0020A02D002008B50323BB
:106AC400002203490969034817F0F2FA08BD00BF20
:106AD4005C2F0020AC31002008B50378023B082B62
:106AE4003FD8DFE803F01C05113E3E2C3E3E360045
:106AF4001E4B5B68002B34D0007A002831D01C4A2E
:106B04000121117098472CE0184B9B684BB3184A2D
:106B1400127832B3164A00211170984721E0154BC0
:106B24001B784BB9114BDB681BB1114A0021117062
:106B34009847FFF7C3FF14E0FFF796FF11E0102218
:106B44000A4B59690C4817F043FB50B116F070FB1F
:106B540007E08168C0680BF093FC18B9054B01226B
:106B64001A7008BD16F064FBF8E700BF5C2F002024
:106B7400582F0020592F0020AC31002070B586B06A
:106B84000446234A03AB07CA03C323F8022B120C9F
:106B94001A70204E35460FCC0FC594E8030085E8E3
:106BA40003007369002B31D01B491C4817F064FAA9
:106BB400034610B1184606B070BD194B009303ABE1
:106BC400154A1649174817F013FA03460028F1D15D
:106BD400154818F0A9FE0146124817F035FA034685
:106BE4000028E7D1114819F061F803460028E1D1E3
:106BF4000E4819F091F801460A4817F025FA0346A1
:106C04000028D7D1FFF75AFF0346D3E70723D1E77C
:106C14003C4A04005C2F0020742F0020E032002046
:106C2400DD6A0200AC310020942F00205C3100208A
:106C340008B5104B1B6873B14FF0A042D2F804356D
:106C44000D4909684B40C2F804350A4A1368013BF0
:106C5400136023B108BD002016F0EAFAECE70748F8
:106C64001CF066FD064B1A684FF0A043C3F80425D8
:106C7400F0E700BF20330020243300202833002015
:106C84004833002021B14FF0A043C3F80C057047EE
:106C94004FF0A043C3F808057047000072B338B53D
:106CA4001346132900D838BD154A10605B00013B18
:106CB400144A13604FF0A043D3F80425124B1A6012
:106CC40000254C0CC8034FF47A72002310F5FA70B7
:106CD40044EB05011CF03AFF2A4601460B481CF020
:106CE40009FD0028DFD14FF0A042D2F80435044951
:106CF400096823EA0103C2F80435D4E7704700BFEA
:106D0400243300202033002048330020283300207F
:106D140008B504481CF00CFD0021034B1868FFF76C
:106D2400B1FF08BD283300202433002008B50B230D
:106D34000BE04FF0A04103F5E072032041F822007C
:106D440001229A40C1F8082501330C2BF1D9054AD8
:106D5400012105481CF0B8FC00B908BD16F068FA1A
:106D6400FBE700BF356C0200484A0400002869D0E4
:106D74002DE9F043CFB00646334B1B6813F4804F24
:106D840003D0324B1B68032B0BDC2F4B1B6813F413
:106D9400804F03D02D4B1B68032B2ADC4FB0BDE87A
:106DA400F08300230F2B0FD8F25C29490D681009DA
:106DB4005900285C0DAC04F8130002F00F020131F5
:106DC400AA5C62540133EDE70DAA00238DF8543018
:106DD40003F1804303F58833D3F8043502921D4A46
:106DE40001921D4A009241221C49042008F01CFA19
:106DF400CBE71B4BD3F80435B288F188307A747A28
:106E0400B57AF77A96F80CC096F80DE096F80E80ED
:106E140096F80F90CDF82C90CDF82880CDF824E08A
:106E2400CDF820C00797069505940490039102922B
:106E3400326801920B4A009246220849042008F065
:106E4400F3F9ABE7704700BF942E0020902E00208A
:106E5400982E0020BC4A0400D04A0400AA4A040028
:106E640000100140D84A040072DF704773DF704796
:106E740074DF70472DE9F047A2B007468846914673
:106E8400314C0026C4F80660E68130490B78C3EB28
:106E940043102F4D054425602E4A0244A2601F2250
:106EA400A280A281013303F001030B704FF03C0A6E
:106EB4005246314613A81DF079F806238DF84F3059
:106EC400ADF8487001238DF84A30ADF85C3012AA51
:106ED4001892ADF83C70ADF84090CDF844800DEBBD
:106EE4000A021D928DF878305246314668461DF0EC
:106EF4005DF802238DF80030221D294613A815F0F1
:106F040007FB90B9104B03F10C029968684615F021
:106F1400FFFA68B9104A0C491048FFF7A5FF082882
:106F240009D070B922B0BDE8F08716F081F9E9E71D
:106F340016F07EF9EEE7002203490848FFF794FFB4
:106F4400EFE716F075F9EDE7903300204C3300209D
:106F540050330020A0330020B02D0020AC2D0020A1
:106F640088B1B0F5202F06D2094AA2FB0023DB0822
:106F740003D1012302E04FF6FF739BB2054A9381CC
:106F8400044B99607047034B00229A81F8E700BFD5
:106F9400CDCCCCCCB02D002008B50121054B187800
:106FA400FFF764FF18B9002006F044FE08BD16F090
:106FB4003FF9F8E7AC2D002008B5044B1878FFF72B
:106FC40057FF00B908BD16F033F9FBE7AC2D0020DC
:106FD40076DF70477ADF70477CDF704708B516F0BC
:106FE40027F908BD08B505F061FF08BD00B583B0F9
:106FF400037823B1012B0BD003B05DF804FB3B21D4
:107004004088FFF7E5FF0028F6D016F011F9F3E702
:10701400094B1B6813F4804FEED0084B1B68032BFD
:10702400EADD074BD3F80435064A00926822064984
:10703400042008F0F9F8DFE7942E0020902E0020B9
:1070440000100140A44B04008A4B040000B583B037
:1070540015F032FC68B90023019301A9012015F051
:1070640063FB48B901A815F0B1FB40B903B05DF862
:1070740004FB16F0DDF8EEE716F0DAF8F2E716F0A6
:10708400D7F8F3E700B585B09DF80C30012262F320
:10709400030362F307138DF80C3010220F4903A881
:1070A400FFF79AFF98B90023ADF808307823ADF8BC
:1070B4000430C823ADF806304FF4C873ADF80A3075
:1070C40001A8FFF787FF28B905B05DF804FB16F0A7
:1070D400AFF8E8E716F0ACF8F6E700BF184B040089
:1070E40000B58BB00023ADF808307822ADF8042049
:1070F400C822ADF806204FF4C872ADF80A200693F2
:10710400079301AB039340F6CD4304934FF48033CC
:10711400059303238DF81830064B0893064B099307
:1071240003A815F0AFFD10B90BB05DF804FB16F021
:107134007FF8F9E7F16F0200E16F02000620704763
:1071440000B587B041F2010398424CD020D944F2F3
:10715400010398425DD044F20203984274D1464B35
:107164001B6813F4804F1ED0444B1B68002B1ADDA0
:10717400434BD3F80435108803905268029201916E
:10718400404A00926C224049012008F04DF80AE080
:10719400012859D1384B1B6813F4804F03D0374B67
:1071A4001B68002B12DC4FF0A0434FF4C052C3F80D
:1071B4001825C3F80C25EFF3108372B64DF6AD6CA9
:1071C400324B1B78002B54D030BFF9E72C4BD3F84B
:1071D4000435029201912E4A009260222A4901202C
:1071E40008F022F8DFE7244B1B6813F4804FDAD051
:1071F400224B1B68002BD6DD214BD3F804350292B9
:107204000191244A009263221F49012008F00CF8DE
:10721400C9E7194B1B6813F4804FC4D0174B1B6884
:10722400002BC0DD164BD3F8043510680490506869
:107234000390029192680192174A009277221249B0
:10724400012007F0F1FFAEE70B4B1B6813F4804FEE
:10725400A9D00A4B1B68002BA5DD094BD3F80435D4
:1072640001910E4A00927B220749012007F0DCFFBE
:1072740099E707B05DF804FB942E0020902E0020BF
:1072840000100140804C04002E4C0400C82D002046
:10729400404C04005C4C0400A04C0400C44C0400AA
:1072A40000B583B00023ADF80030054B01936A4666
:1072B400014644F20200FFF743FF03B05DF804FB0C
:1072C4007850040030B583B00446164DAB68984737
:1072D4002B6998472B6A6BB16B6A5BB1220C8DF8F2
:1072E4000420220A8DF805208DF80640032101A808
:1072F40098470BE00B4DEB69C4F307409847EB69E3
:10730400C4F307209847EB69E0B29847054CA3699A
:107314009847054663699847E3689847284603B049
:1073240030BD00BFCC2D002070B582B004460E469F
:10733400164DAB6898472B69984744F004046B6A70
:10734400A3B1220C8DF80420220A8DF805208DF8B3
:1073540006408DF8076004210DEB010098470B4CA3
:1073640063699847E368984702B070BDEB69C4F35A
:1073740007409847EB69C4F307209847EB69E0B2EC
:107384009847EB6930469847E9E700BFCC2D0020C9
:10739400F0B583B004460E4615461B4FBB689847AC
:1073A4003B6998473B6AC3B17B6AB3B1220C8DF841
:1073B4000420220A8DF805208DF80640032101A837
:1073C4009847114B1B6A2946304698470E4C63690F
:1073D4009847E368984703B0F0BD0B4FFB69C4F3CB
:1073E40007409847FB69C4F307209847FB69E0B25C
:1073F40098470024AC42E9D2034B9B699847305527
:107404000134A4B2F6E700BFCC2D0020F0B583B060
:1074140004460E4615461A4FBB6898473B69984781
:1074240044F004047B6AB3B1220C8DF80420220AD0
:107434008DF805208DF80640032101A89847104BCC
:107444005B6A2946304698470D4C63699847E36860
:10745400984703B0F0BDFB69C4F307409847FB6944
:10746400C4F307209847FB69E0B298470024AC4274
:10747400EAD2034BDB69305D98470134A4B2F6E7E6
:10748400CC2D00202DE9F041074600250DE03046C3
:10749400FFF718FF85B22D02ADB24046FFF712FF89
:1074A40015FA80F5ADB2A54218D04FEA870808F165
:1074B40001084FEAC80808F500563046FFF702FFF6
:1074C40084B22402A4B208F504584046FFF7FAFE39
:1074D40014FA80F4A4B2002CE5D0D8E72846BDE81D
:1074E400F0812DE9F041074600250DE03046FFF715
:1074F400E9FE85B22D02ADB24046FFF7E3FE15FA70
:1075040080F5ADB2A54218D04FEA870808F101080A
:107514004FEAC80808F518563046FFF7D3FE84B280
:107524002402A4B208F51C584046FFF7CBFE14FA17
:1075340080F4A4B2002CE5D0D8E72846BDE8F08159
:1075440002B970472DE9F84315460F46840004F14B
:1075540001094FEAC90909F510584046FFF7B2FE80
:1075640086B23602B6B209F514594846FFF7AAFEA8
:1075740016FA80F6B6B2A01CC0002A46394600EBC3
:107584000620FFF743FF3544ADB2290A4046FFF712
:10759400CBFEE9B24846FFF7C7FEBDE8F88302B95F
:1075A40070472DE9F84315460F46840004F101099C
:1075B4004FEAC90909F520584046FFF783FE86B211
:1075C4003602B6B209F524594846FFF77BFE16FA8F
:1075D40080F6B6B2E01CC0002A46394600EB06200D
:1075E400FFF7D6FE3544ADB2290A4046FFF79CFEAC
:1075F400E9B24846FFF798FEBDE8F8832DE9F0416B
:10760400884686000136F60006F520573846FFF70F
:1076140059FE85B22D02ADB206F524563046FFF769
:1076240051FE15FA80F418FA84F4A4B2210A3846FB
:10763400FFF77AFEE1B23046FFF776FEBDE8F0814F
:107644007047704770477047007870470170704703
:10765400002070477047000020B119B1044A10613E
:1076640051617047024B034A1A61034A5A617047D9
:10767400CC2D0020497602004B760200084B1B8873
:1076840013F4007FFAD020B119B1054B9861D96188
:107694007047034B034A9A61034ADA61704700BF9B
:1076A400CC2D0020557602005976020000B587B033
:1076B400062201A94FF41060FFF76AFE042205A90F
:1076C4004FF48070FFF764FE042204A94FF4A06015
:1076D400FFF75EFE042203A94FF47060FFF758FE23
:1076E40080210020FFF720FE0020FFF7EBFD06229B
:1076F40001A94FF41060FFF789FE042205A94FF495
:107704008070FFF783FE042204A94FF4A060FFF702
:107714007DFE042203A94FF47060FFF777FE07B0E3
:107724005DF804FB70B505460E46FFF7BFFFCDB10B
:1077340000221346072B07DCE95C0A4452B2102AE4
:107744002FDC01335BB2F5E7002409E0A00001302F
:10775400C000295D00F5F850FFF7E6FD013464B27E
:10776400072CF3DD5EB100221346072B09DCF15C24
:107774000A4452B2102A17DC01335BB2F5E7002049
:107784000EE0002409E0A0000130C000315D00F5E6
:10779400F050FFF7C9FD013464B2072CF3DD00207B
:1077A40070BD4FF0FF30FBE74FF0FF30F8E710B546
:1077B400040A00F0F0014FF4A850FFF7B5FD21468C
:1077C4004FF4B850FFF7B0FD10BD10B54FF4A850FA
:1077D400FFF778FD00F0F0044FF4B850FFF772FDA6
:1077E40080B2000280B2204480B210BD10B5040AF9
:1077F400C1B24FF4B050FFF797FD21464FF4C0508B
:10780400FFF792FD10BD10B54FF4B050FFF75AFDCD
:1078140004464FF4C050FFF755FD80B2000280B219
:1078240010FA84F080B210BD08B54FF43850FFF759
:1078340049FD10F0010F01D0012008BD0020FCE734
:1078440008B54FF43850FFF73DFD10F0300F01D06C
:10785400012008BD0020FCE708B54FF43850FFF7BD
:1078640031FD00F07F014FF43850FFF75DFD4FF418
:107874003850FFF727FD60F07F01C9B24FF438504C
:10788400FFF752FD08BD08B50378012B0CD0002189
:107894004378012B0AD0C378012B10D08378012BB5
:1078A40006D141F0100103E04021F1E741F0380135
:1078B4004FF43850FFF738FDFFF7CEFF08BD83784B
:1078C400012B02D041F00801F2E741F01801EFE783
:1078D40010B504464FF43850FFF7F4FCC0F380139E
:1078E400237000F03800202804D0382802D0002368
:1078F400637001E001236370182806D0202804D0A7
:10790400102802D00023A37001E00123A3701828DB
:1079140006D0202804D0082802D00023E37001E018
:107924000123E37010BD10B504464FF43850FFF73F
:10793400C9FC10F0400F24D000F0C700012C12D075
:1079440040F038014FF43850FFF7EEFCFFF784FFA6
:107954004FF43850FFF7B6FC012C07D010F0380F65
:107964000CD0002010BD40F03001EBE710F0300FD8
:1079740001D00020F6E74FF0FF30F3E74FF0FF307F
:10798400F0E74FF0FF30EDE730B583B00C4600234D
:10799400009301930F2809D8DFE800F00B0F1D189E
:1079A40022272C3949575B60796569714FF0FF30A4
:1079B4006EE0FFF77BFE00206AE011B1009108340D
:1079C400019401990098FFF7ADFE61E00888FFF784
:1079D400EEFE00205CE0FFF7F8FE2080002057E078
:1079E4000888FFF703FF002052E0FFF70CFF208018
:1079F40000204DE00988090A4FF49850FFF794FCE1
:107A040021784FF4A050FFF78FFC002040E04FF4A2
:107A14009850FFF757FC85B22D02ADB24FF4A05039
:107A2400FFF750FC15FA80F02080002030E01C4B5A
:107A34009A780A70DA784A701A798A705A79CA7010
:107A44009B790B710020487122E0FFF705FF0020AD
:107A54001EE00846FFF717FF002019E00846FFF76D
:107A640037FF002014E00878FFF75DFF10E0FFF710
:107A7400E7FEC0B2FF280DD02070002008E0FFF719
:107A8400D3FEC0B2FF2808D02070002000E0002000
:107A940003B030BD4FF0FF30FAE74FF0FF30F7E7A7
:107AA400CC2D002010B50446062201464FF4106088
:107AB400FFF7ACFC042204F10E014FF48070FFF7D1
:107AC400A5FC042204F10A014FF4A060FFF79EFC18
:107AD4000422A11D4FF47060FFF798FCA27C064BB2
:107AE4001A70E27C5A70227D9A70627DDA70A27DEF
:107AF400024B1A7010BD00BFE0330020DE330020BB
:107B040010B50446062201464FF41060FFF740FC0E
:107B1400042204F10E014FF48070FFF739FC0422B3
:107B240004F10A014FF4A060FFF732FC0422A11D06
:107B34004FF47060FFF72CFC064B1A78A2745A7845
:107B4400E2749A782275DB786375034B1B78A3750E
:107B540010BD00BFE0330020DE33002030F03A03D4
:107B64000BD110B504460020FFF7ACFB2043C1B293
:107B74000020FFF7D9FB002010BD4FF0FF30704705
:107B840008B50020FFF79EFB08BD10B50446017838
:107B94004FF4D850FFF7C8FB6188090A4FF4C85066
:107BA400FFF7C2FBA1784FF4D050FFF7BDFB10BD27
:107BB40038B505464FF4D850FFF784FB28704FF4CE
:107BC400C850FFF77FFB84B22402A4B24FF4D05014
:107BD400FFF778FB14FA80F0688038BD10B50C46C6
:107BE400052821D8DFE800F003080D11161B08460C
:107BF400FFF758FF002010BD0846FFF781FF002063
:107C0400F9E70878FFF7AAFFF5E7FFF7B9FF207057
:107C14000020F0E70846FFF7B8FF0020EBE708462E
:107C2400FFF7C6FF0020E6E74FF0FF30E3E7000070
:107C3400024B4FF40072C3F80C2570470003005048
:107C4400024B4FF40072C3F808257047000300503C
:107C540000B583B00DF107020121002000F054F9B2
:107C64009DF8070003B05DF804FB00B583B08DF800
:107C740007000DF107020121002000F02DF903B0E7
:107C84005DF804FB10B586B01E4C21460120FFF7B9
:107C9400A5FF04A90820FFF777FE04A91A481CF0E1
:107CA400D3F8E37822796179029101920093A37861
:107CB4006278217815481CF0C7F8637A0093237A18
:107CC400E279A17912481CF0BFF8637C0093237C0D
:107CD400E27BA17B0F481CF0B7F8637B0093237B06
:107CE400E27AA17A0C481CF0AFF8637D0093237DFF
:107CF400E27CA17C09481CF0A7F809481CF0C4F8F0
:107D040006B010BDF42D0020244D04003C4D0400A9
:107D1400644D0400784D04008C4D0400A04D040013
:107D2400B44D040010B5074C21460020FFF756FF60
:107D3400A37D022B02D0FFF7A5FF10BD02481CF063
:107D440083F8FAE7F42D0020F84C040010B586B04F
:107D5400324B01AC0FCB84E80F00314BB0221A70C8
:107D64004FF08052D2F8A410090A5970D2F8A41026
:107D7400090C9970D2F8A410090ED970D2F8A81081
:107D84001971D2F8A820120A5A7126492648FFF719
:107D940063FC26492648FFF771FC26481CF074F85A
:107DA40021460120FFF7F0FDB0F1FF3F03D0224848
:107DB4001CF06AF814E021481CF066F8FEE79DF810
:107DC40017101F481CF040F832244FF47A401D4B22
:107DD40043F001039847013CF7D19DF817305BB994
:107DE4000DF117010F20FFF7CFFDB0F1FF3FE6D1F2
:107DF40015481CF049F8E2E701238DF800304FF4F0
:107E04007A73ADF802306846FFF7BFFE0F481CF0E6
:107E14003BF8FFF787FF06B010BD00BFE04C04003D
:107E2400F42D0020457C0200357C02006F7C0200AA
:107E3400557C0200CC4D0400FC4D0400E04D0400D0
:107E4400384E0400F04C04001C4E0400484E04005C
:107E5400054B0022C3F840210122044B1A70044B45
:107E640019781A701B78704700B00140E433002081
:107E7400E533002010B584B0144B6C460FCB84E876
:107E84000F0008238DF8003007238DF801302823D4
:107E94008DF8023000228DF8052003218DF80C1096
:107EA4004FF0805302930A4BC3F824174FF4007128
:107EB400C3F80C1513462146064815F0F3F908B922
:107EC40004B010BD15F0B4F9FAE700BF684E040021
:107ED40000030050784E040082B100B585B00092D2
:107EE400012301930022029203926946054815F08A
:107EF400FDFB28B9012005B05DF804FB00207047A4
:107F04000020F8E77C4E04008AB100B585B0134622
:107F140000220092019202930123039369460648CA
:107F240015F0E4FB28B9012005B05DF804FB00203E
:107F340070470020F8E700BF7C4E0400082802D9EF
:107F44004FF0FF30704770B5064684000134E400FA
:107F540004F5807510212846FFF7E6F92846FFF757
:107F6400B1F90028FAD11F2104F50070FFF7DCF9FC
:107F74000123B340DB431BB20A490A881A400A8032
:107F8400094A11880B4013800023084A22F816304E
:107F9400074A935504F54070FFF794F90028F9D186
:107FA400012070BDE6330020E8330020F4330020C4
:107FB400EC330020082800F293802DE9F04182B0D0
:107FC40005460E4690461F46022910D004290ED0BD
:107FD400012902D06FF0040062E004220DEB0201DB
:107FE4004FF47060FFF7D4F9019B002B5BD017F0BE
:107FF400040F78D11FB1012E58D0022E5CD0284630
:10800400FFF79CFFAC000134E40027F00F0149B2F4
:108014003143C9B22046FFF787F9B8F1000F0AD1FE
:10802400344AB2F8008008F101039BB213804FF682
:10803400F07293424FD04FEA182104F58060FFF7A5
:1080440073F95FFA88F104F5A060FFF76DF904F5A0
:10805400807601213046FFF767F93046FFF732F9A1
:108064000028FAD10122AA40D24312B222490B8835
:1080740013401BB207F00107AF401F430F801F4B93
:1080840019880A401A8000231D4A22F815301D4A17
:10809400535504F54070FFF715F90028F9D068B27C
:1080A40002B0BDE8F0816FF00200F9E717F0210F8C
:1080B400A5D16FF00500F3E717F0200F02D017F0F9
:1080C400800F13D017F0100F99D017F0800F96D1AE
:1080D4006FF00500E4E7074B4FF440421A80AAE72B
:1080E4004FF0FF3070476FF00500D9E76FF00500DF
:1080F400D6E700BF0C2E0020E6330020E833002032
:10810400F4330020EC3300202DE9F84FBDF828505B
:10811400082800F284801C4693468A460646814617
:1081240087000137FF003846FFF7CCF800F00F0056
:10813400022801D0042875D1BBF1000F75D0237833
:10814400627802EB0322A37803EB0222E37803EBC9
:108154000223002B6CD0002D6DD007F540784046EB
:10816400FFF7B0F8422801D0222867D10422214623
:1081740007F54060FFF74AF9290A07F58050FFF731
:10818400D3F8E9B207F58850FFF7CEF807F5F850B1
:10819400FFF798F885B2AD02ADB2AB4503D85D46A2
:1081A40001E0AC4213D23046FFF76CF90446404676
:1081B400FFF788F8002844D0244B1B8843FA09F3BE
:1081C40013F0010FEDD0AC42EBD200203BE02A4685
:1081D40051463046FFF7B4F907F580742021204654
:1081E400FFF7A2F82046FFF76DF80028FAD107F54B
:1081F40000742046FFF766F810F0100F09D110F054
:10820400080FF4D008212046FFF78EF86FF00C0019
:1082140019E010212046FFF787F8284613E04FF0B5
:10822400FF3010E06FF004000DE06FF00D000AE085
:108234006FF00B0007E06FF00A0004E06FF0060037
:1082440001E06FF00300BDE8F88F00BFE6330020C3
:10825400082800F2E3802DE9F04F83B09B46914655
:108264008A460646074684000134E4002046FFF7A8
:1082740029F8804600F00F03022B02D0042B40F0B3
:10828400D080B9F1000F00F0CF806A4B33F816307C
:1082940093B1002508F00708B8F1020F21D0B8F116
:1082A400040F7FD029463046FFF7A8F9614B23F825
:1082B400165025E0002DEDD13046FFF712F90546A2
:1082C40004F54070FEF7FEFF002800F0B0805A4B22
:1082D4001B883B4113F0010FECD0002DEAD10020A4
:1082E40028E0544B33F816303BB3524B33F8165056
:1082F4004D4500D94D462A4651463046FFF74FF9C1
:1083040004F5807440212046FFF70EF82046FEF75E
:10831400D9FF0028FAD1474A32F816305B1B9BB2CA
:1083240022F81630002B75D0444A935D43F00103C4
:108334009355284603B0BDE8F08F082269463046BD
:10834400FFF72DF904F5807540212846FEF7ECFF70
:108354002846FEF7B7FF0028FAD19DF800308BF8C5
:1083640000309DF801308BF801309DF802308BF815
:1083740002309DF803308BF803309DF804209DF8FB
:10838400053003EB02230C9A13809DF806209DF818
:10839400073003EB0223274A22F81630274B8022AA
:1083A4009A55A2E7234B33F816305BB1214B33F8CF
:1083B40016504D4500D94D462A4651463046FFF7E2
:1083C400EEF89DE7022269463046FFF7E8F804F527
:1083D400807540212846FEF7A7FF2846FEF772FF66
:1083E4000028FAD19DF800209DF8013003EB022308
:1083F4009BB2104A22F8163040F2EA52934203D854
:108404000E4B80229A55D1E73046FFF797FD6FF463
:108414007A708FE7094B00229A558AE74FF0FF30B4
:1084240070476FF0040085E76FF00D0082E76FF08E
:1084340003007FE7F4330020E6330020EC33002010
:1084440010B58CB006AC21460120FFF7C7FB94E8B9
:1084540003000090ADF804100DF1060000F0D4FD07
:108464000DF10E0000F0DCFD0DF10A0000F0E4FD5A
:108474000DF1120000F0ECFD02238DF81630694670
:108484000020FFF7ABFB0CB010BD704708B5042209
:1084940008494FF47060FEF7B9FF042206494FF40F
:1084A400A060FEF7B3FF042204494FF48070FEF786
:1084B400ADFF08BD20340020243400201C340020EB
:1084C40008B580210020FEF72FFF0020FEF7FAFEFA
:1084D400FFF7DCFF062203494FF41060FEF796FF16
:1084E40008BD00BF0434002008B580210020FEF739
:1084F4001BFF0020FEF7E6FE062203494FF410603E
:10850400FEF784FF08BD00BF0434002010B40B4BF9
:108514000B4C1C600B4B0C4C1C600C4B0C4C1C602F
:1085240010B103460548036009B1064B19600AB14E
:10853400064B1A605DF8044B704700BF182E0020EC
:1085440091840200202E0020C58402001C2E0020ED
:10855400ED84020010B582B0062269464FF4106023
:10856400FEF716FF324A116801230B7011684B7035
:10857400116806238B7010680021C17012682D48A1
:108584000068040E1471C0F307445471C0F3072447
:108594009471D071118180209072D17211735173D2
:1085A4009173D173117451749174D174117551759F
:1085B4009175D175117651769176D1761E490878E8
:1085C40010774878507788789077C878D07708798A
:1085D40082F82000497982F821100F2B05D8D11890
:1085E400002008770133DBB2F7E7002305E0D11858
:1085F400002081F82C000133DBB23F2BF7D9002394
:1086040013F0800F06D1D118002081F86C000133DB
:10861400DBB2F5E7632382F8EC30822182F8ED10B7
:10862400532182F8EE1082F8EF3002B010BD00BF83
:10863400343400201434002004340020F0B585B014
:10864400FFF788FF534B1968352381F8F030012375
:1086540081F8F13081F8F2303D2281F8F3200722CD
:1086640081F8F42081F8F5304B4B1A7881F8F62024
:108674005A7881F8F7209A7881F8F820DF7881F821
:10868400F9701E7981F8FA605D7981F8FB500C234A
:1086940081F8FC30002281F8FD20122314463F4863
:1086A400805C48B1581C3D4CA45C0B4483F8EC40FE
:1086B400013292B283B2F1E7581C01EB030C8CF83F
:1086C400EC709F1C11FA80F080F8EC60D81C80B22A
:1086D40011FA87F686F8EC500434041B03320C4478
:1086E40084F8EC201C1D0844372280F8EC205A1D25
:1086F40011FA84F0062480F8EC40181911FA82F279
:10870400012582F8EC50DA1D11FA80F0032580F877
:10871400EC5003F1080011FA82F282F8EC4003F104
:10872400090211FA80F00F2480F8EC4003F10A00EA
:1087340011FA82F23A2482F8EC4003F10B0211FAA6
:1087440080F03B2480F8EC400C339BB211FA82F2A7
:10875400FF2082F8EC0005E0CA18002082F8EC0043
:1087640001339BB2B3F59C7FF6D3FF238DF80C3015
:108774008DF80D308DF80E308DF80F3043230093B3
:1087840003AB4FF4097206480078FFF7BDFC05B04F
:10879400F0BD00BF3434002004340020102E00202B
:1087A40010340020F0B585B0FFF7D4FE814B1B7860
:1087B400033BDBB2012B3ED9FF238DF80C308DF83F
:1087C4000D308DF80E308DF80F307B4B1968352342
:1087D40081F8F030012381F8F130032281F8F2208E
:1087E4003D2281F8F320072281F8F42081F8F53046
:1087F400724B1A7881F8F6205A7881F8F7209A7823
:1088040081F8F820DF7881F8F9701E7981F8FA6030
:108814005D7981F8FB509DF80F30FF2B27D0102392
:10882400581CCA180C2482F8EC4002330844002275
:1088340080F8EC2048E0604B1B6800229A72DA72E0
:108844005F4A117819735178597391789973D27872
:10885400DA735C4B1A788DF80C205A788DF80D2059
:108864009A788DF80E20DB788DF80F30ADE732233F
:1088740081F8FC30042281F8FD20514B187881F8EE
:10888400FE00587881F8FF00987881F80001DB78C1
:1088940081F80131362381F8023181F80321494BF3
:1088A4001A7881F804215A7881F805219A7881F898
:1088B4000621DB7881F807311C23B1E75C1C0B44EB
:1088C40083F8EC000132A3B23F48805C0028F5D164
:1088D400581CCC1884F8EC709C1C11FA80F080F8B9
:1088E400EC60D81C80B211FA84F484F8EC50141DA6
:1088F400041B03320C4484F8EC201C1D084437226A
:1089040080F8EC205A1D11FA84F0082480F8EC4019
:10891400981D11FA82F2012482F8EC40DA1D11FA52
:1089240080F0032480F8EC4003F1080011FA82F28D
:10893400062482F8EC4003F1090211FA80F00F24B6
:1089440080F8EC4003F10A0011FA82F23A2482F82A
:10895400EC4003F10B0211FA80F03B2480F8EC4068
:1089640003F10C0011FA82F21F2482F8EC4003F1A7
:108974000D0211FA80F0212480F8EC400E3311FA34
:1089840082F2FF2082F8EC009BB2B3F59C7F05DAFB
:10899400CA18002082F8EC000133F6E74323009361
:1089A40003AB4FF4097209480078FFF7ADFB05B03B
:1089B400F0BD00BF2D3400203434002004340020E6
:1089C400203400200C340020102E0020103400200D
:1089D40000B585B0FFF7BEFD374B196800238B72D5
:1089E400CB72352381F8F030012381F8F130042271
:1089F40081F8F2203D2081F8F300072081F8F4008B
:108A040081F8F5302D4B187881F8F600587881F804
:108A1400F700987881F8F800D87881F8F900187987
:108A240081F8FA005B7981F8FB30322381F8FC305D
:108A340081F8FD20224B187881F8FE00587881F8DF
:108A4400FF00987881F80001DB7881F80131362342
:108A540081F8023181F803211A4B1A7881F8042134
:108A64005A7881F805219A7881F80621DB7881F813
:108A74000731FF2381F808311D23B3F59C7F05DA04
:108A8400CA18002082F8EC000133F6E7FF238DF8C2
:108A94000C308DF80D308DF80E308DF80F304323E7
:108AA400009303AB4FF4097207480078FFF72CFBDF
:108AB40005B05DF804FB00BF34340020043400200A
:108AC400203400200C3400201034002030B587B04E
:108AD400574B1878FEF705FD10B9002007B030BDDC
:108AE400002402460DF10E03009304AB51490968BA
:108AF4004F480078FFF7ACFBBDF80E30432B01D094
:108B040060B2EBE74B4B1B68197F4B4A12789142DA
:108B140040F08180597F484A527891427DD1997FB3
:108B2400454A927891427AD1D97F434AD278914288
:108B340077D193F82010404A1279914273D193F877
:108B440021103D4A527991426FD1F03381B2F0390C
:108B5400194428E0012A41D050B2002839D0032A10
:108B640055D158789D78354A1570DD7855701D7942
:108B740095709D1D5B79D370031F2B4413E0332A3A
:108B840045D19A782E4D2A60D87800EB02201A79C4
:108B940002EB00205A7902EB00222A60063302E03D
:108BA400FF2A34D10B468B42AAD21A78062A20D047
:108BB400D0D9352A0FD0E2D9362AF1D19878214A72
:108BC4001070D8785070187990705879D070063336
:108BD400E9E70133E7E79C780333E4E798781A4A36
:108BE4001070D8785070187990705879D070063316
:108BF400D9E758789D78154A1570DD7855701D7938
:108C040095709D1D5B79D370031F2B44CBE79A1C91
:108C14005B781344C7E7002060E700205EE700208C
:108C24005CE700205AE7002058E7002056E700BF21
:108C34001034002034340020043400201C3400207C
:108C4400242E00200C34002024340020183400206A
:108C540030B583B04FF4D850FEF734FB05460321FA
:108C64004FF4D850FEF760FB41F2883300930F4B6A
:108C740011220F490F480078FFF746FA04462946A7
:108C84004FF4D850FEF750FB14F10D0F02D1012020
:108C940003B030BDFFF79CFE074B1A68064B1B68F8
:108CA4009B1A012BFAD90020F2E700BF20340020E0
:108CB400884E040010340020303400200023044A7D
:108CC4001360044A0A211160034A1370704700BFFD
:108CD40030340020282E00202C34002010B5224BE4
:108CE40093F90030042B24DC204B1A68204B1B68BA
:108CF4009A4236D21F4B93F90030022B13D0042B27
:108D040014D0012B0CD01A4B00221A601B680A33B2
:108D1400164A1360144A137801331370012414E0C3
:108D2400FFF78CFCEFE7FFF73DFDECE7FFF73AFDBB
:108D3400E9E7104B93F90030022B0CD0042B0AD036
:108D4400012B04D00124FFF7B9FF204610BD0024F5
:108D5400084B1C70F7E7FFF771FC0124054B1C70EE
:108D6400F1E70124F1E700BF2C340020282E002075
:108D7400303400202D34002010B5674B93F90030B7
:108D8400062B00F0C280654B187880000130C000CB
:108D940000F54070FEF796FA22280DD1FFF796FEF3
:108DA400C0B25D4B93F90030042B00F2B180DFE8D0
:108DB40003F00B172F547600002344220221574856
:108DC4000078FFF7F7F8E9E7554B00221A705A705C
:108DD4009A70DA70FFF732FC01244F4B1C7095E057
:108DE400022803D0FFF77AFF04468FE04D4B1A6840
:108DF400117C4B4B1970517C5970917C9970D27CC9
:108E0400DA70FFF7CFFC444B02221A7001247DE094
:108E1400052805D006281AD0FFF760FF044675E040
:108E2400FFF716FF48B1404B1B689847FFF746FF12
:108E3400394B03221A70012468E0FFF73FFF3B4BD4
:108E44001B689847344B00221A7001245EE0FFF738
:108E540035FF0124304B1C7058E0354B1B68B3F1CF
:108E6400FF3F57D0334A1268B2EB530F01D80424A2
:108E74004CE02B4A1178304B197051785970917825
:108E84009970D278DA702D4A136801331360FFF7B2
:108E940089FCFFF713FF04241F4B1C7036E00528E0
:108EA40005D006282AD0FFF719FF04462EE0244BEC
:108EB40000221A70204B1A78194B1B789A4209D059
:108EC400204B1B6898470324FFF7F8FE124B03223C
:108ED4001A701BE0184B5A78114B5B789A42EFD109
:108EE400154B9A780E4B9B789A42E9D1124BDA785B
:108EF4000B4BDB789A42E3D10424E5E7FFF7DEFE6F
:108F0400054B01221A70042400E00524204610BDFC
:108F14000124FBE70424F9E72D3400201034002059
:108F24002034002034340020182E00201C2E002071
:108F3400242E002030340020283400201434002053
:108F44002C340020202E0020F0B583B006460D46B8
:108F540000230193224C062221464FF41060FEF7B1
:108F640017FA20786778A178E2782379647938430E
:108F740001430A431343234322D01A4B1E701A4B56
:108F84001D601A4B1A4A1A6004220DEB02014FF4B9
:108F94007060FEF73BFA04220DEB02014FF470609F
:108FA400FEF734FA04220DEB02014FF48070FEF751
:108FB4002DFAFFF783FE0F4B00221A7003B0F0BDA9
:108FC400074900230B7008224A70DC228A70CB7098
:108FD4000B714B7106224FF41060FEF717FACCE7C1
:108FE40004340020103400203434002014340020D1
:108FF400785634122D340020024A1368013313606A
:10900400704700BF30340020044B1A7802705A783D
:1090140042709A788270DB78C370704720340020E5
:10902400044B1A7802705A7842709A788270DB780E
:10903400C37070471C340020044B1A7802705A78AD
:1090440042709A788270DB78C370704724340020B1
:10905400044B1A7802705A7842709A788270DB78DE
:10906400C3707047183400204FF08043D3F80031A8
:1090740063B94FF080430022C3F8002101221A6033
:109084004FF08043D3F80031002BF9D04FF08043E8
:10909400D3F8043163B94FF080430022C3F80421AC
:1090A40001229A604FF08043D3F80431002BF9D0A9
:1090B40070470000064B074AC3F81025064AC3F858
:1090C4001825064A402111600122C3F80423704781
:1090D40000600040010F0100030B130000E100E0F9
:1090E4004FF0A0430322C3F83C27024B024AC3F8C3
:1090F4001425704700600040030F030008B5064BB9
:10910400D3F8003103B908BD034B0022C3F8002192
:1091140000F0F8F8F7E700BF006000404FF0A0430C
:109124000322C3F82C27C3F83027C3F834274FF49D
:109134008052C3F80C254FF40052C3F80C25704735
:109144004FF0A0430022C3F83C270322C3F838277A
:109154004FF48042C3F80C25704700000C4B0D4AB5
:10916400C3F810250C49C3F81415A1F5804104393E
:10917400C3F81019C3F8202502F5FA520432C3F8D3
:109184002425443AC3F818290522C3F80425704756
:1091940000F00140006100400CA00040064B074A6B
:1091A400C3F81825A2F5A832A2F59E72C3F81C25AF
:1091B4000222C3F80425704700F0014040B1014089
:1091C4000000000038B5054610EE100A1AF0E2FA65
:1091D4001BA3D3E900231AF0F9FA0022154B1AF065
:1091E400ABFB1AF0C1FA6FEA40406FEA504080B21C
:1091F400114C2080114BC3F860550121C3F80015B0
:109204000022C3F804250420C3F80C054FF47A7037
:10921400C3F80805C3F81425C3F81025C3F820457E
:10922400C3F82415C3F82825C3F82C25996038BD44
:10923400AFF3008000408F4038340020001002401B
:10924400000000000088C3400D4B0022C3F8042531
:109254000322C3F808250422C3F81025094AC3F8D9
:1092640040250122C3F800224FF48031C3F80413CF
:1092740005494FF40070C1F8800108601A60704716
:109284000090004040420F0000E100E0024B012248
:109294005A60DA60704700BF008000400A4B012129
:1092A40059600022C3F804250322C3F808250422C8
:1092B400C3F810254FF47A7202FB00F0C3F840059E
:1092C400C3F80012704700BF00B0014008B5034B5B
:1092D4000022C3F84021FFF78FFE08BD0090004034
:1092E400064B1B68181A064B984206DA0028B8BFCA
:1092F4004042C0F5F41000F59060704740340020FF
:10930400C0BDF0FF70B5104E3568104CD4F844055C
:10931400FFF7E6FF281A0E4D2860D4F844150D48CF
:109324001AF092FD29680C481AF08EFD0B4A136856
:10933400013313602B683360094B01221A70D4F88F
:109344004425084B1A6070BD44340020008000405E
:109354003C3400209C4E0400B44E040048340020E9
:109364004C340020403400200023054A1360054A91
:109374001360054A1360054A1360054A1370704769
:1093840040340020443400203C3400204834002081
:109394004C34002008B5012342F210720221062049
:1093A400FEF708FE08BD00002DE9F04389B002AFC6
:1093B400064688463C1D324D0FCD0FC42B682380D2
:1093C400304C1122314620461AF09AFD1122391DE3
:1093D40020461AF075FD40B218B11C37BD46BDE8F1
:1093E400F0836D46284B01221A70A8F10A0323F07A
:1093F4000703ADEB030D02A84FF00009C7F8009076
:109404000446A8F1110206F111011AF0A6FD4B461B
:1094140048460BE000EB8000410089B20A4492B256
:10942400303A90B201E00133DBB20134042B15D899
:109434002278A2F130010929F5D8032BEAD807F1E3
:10944400180101EB030C1CF8186C06EB860671007E
:10945400C9B20A44303A0CF8182CE6E739680B4BC9
:1094640019600B4B186001900B0E0093C1F3074376
:10947400C1F30722C9B207481AF0E6FCAD46ACE7CF
:109484003C4F0400603C0020513C00202C2E002066
:10949400302E00201C4F04001E4B1B7803B1704774
:1094A40010B582B01B4B01221A70FFF7CDFE1A498A
:1094B4000220FFF749FD1948194A0146FFF726F82B
:1094C40000241DE0134B00221A70062215494FF4A4
:1094D4001060FDF75DFF144C2046FFF795FDE3781F
:1094E4000093A3786278217810481AF0ADFCFEF757
:1094F400C9FB084B00221A7002B010BD0A2CF8D820
:10950400FFF73AFC0428DDD00028F7D10134E4B297
:10951400F4E700BF503C0020503400204584020092
:109524008F840200583C0020543C0020F84E040074
:10953400014B1878704700BF513C0020014B187054
:10954400704700BF513C0020014B1B68036070470B
:10955400543C0020014B01221A707047382E002021
:10956400014B00221A707047382E002008B500F015
:10957400A1FA024B01221A7008BD00BF713C002001
:10958400014B00221A707047713C002008B5FFF7A8
:1095940085FEFFF7A5FDFFF701FE0123024A1360D4
:1095A400024A137008BD00BF00B00140723C0020A5
:1095B400034B01225A60034B00221A70704700BF0C
:1095C40000B00140723C002008B5642303FB00F0A6
:1095D400024B18601868FFF7D9FF08BD3C2E002025
:1095E40030B52DED028BC1B00620FDF77AFF0028BF
:1095F40000F01F82AD4B5B68039342F21073ADF829
:109604000A300023049304A8FFF79EFF0DF10A0318
:10961400009303ABC8220EA90620FEF719FE00280A
:10962400E2DD09ACA24D0FCD0FC42B6823701022CC
:109634000EA905A81AF064FC102209A905A81AF0BD
:109644003FFC40B20028CFD19DF848109DF8494016
:109654004B1E472B00F2E981DFE813F048004F006E
:10966400E701E701E701E701E701E701E701560048
:10967400630067006B0073007900E701E701E7010D
:10968400E701E701E701E701E701E701E701E70196
:10969400E701E701E701E701E701E701E701E70186
:1096A400E701E701E701E701E7017F008800910096
:1096B4009B00BB00E701E701E701E701E701E500E3
:1096C400FB0011015801E701E701E701E701E701A8
:1096D400E70182019701E701E701E701E701E701FB
:1096E400E701E701E701AC01C301DD0171481AF0AC
:1096F400CBFB714B01221A7076E770481AF0C4FB59
:109704006D4B00221A706FE7FFF712FF18B10120AA
:10971400FFF714FF68E721460DF14A00FFF744FE06
:10972400F5E70020FFF70AFF5EE765481AF0ACFB97
:109734005AE764481AF0A8FBDDF84A0000F004FA7E
:1097440052E761481AF0A0FBFFF710FF4CE75F48AF
:109754001AF09AFBFFF714FF46E75D481AF094FBF2
:10976400B7EE000A0D20FFF72DFD3DE759481AF02A
:109774008BFB9FED590A0D20FFF724FD34E7574872
:109784001AF082FB564B93ED000A0D20FFF71AFDE9
:109794002AE79DF84A1053481AF056FB9DF84A30C0
:1097A40007EE903A9DF84B3007EE103AB8EEC77AC0
:1097B400B2EE046AC7EE066AF8EEE77A77EEA67AA6
:1097C400474BC3ED007A93ED000A0D20FFF7FAFC36
:1097D4000AE79DF84A409DF84B3007EE903AF8EEC0
:1097E400E77AB2EE048AC7EE887A17EE900A19F087
:1097F400D1FF02460B4621463B481AF025FB9DF853
:109804004A3007EE903AF8EEE77A9DF84B3007EECF
:10981400103AB8EEC77A87EE080A37EE800A0D20B0
:10982400FFF7D0FCE0E631481AF00EFB04A90DF175
:109834004A0000F038F940B1B7EE000A0D20FFF7F6
:10984400C1FC2B481AF020FBCEE62A481AF01CFB78
:10985400CAE629481AF0F8FA04A90DF14A0000F002
:1098640022F940B19FED1C0A0D20FFF7ABFC234801
:109874001AF00AFBB8E622481AF006FBB4E62148BF
:109884001AF0E2FA04A90DF14A0000F00CF948B10B
:10989400134B93ED000A0D20FFF794FC1A481AF0BD
:1098A400F3FAA1E613481AF0EFFA9DE6504F0400CC
:1098B40084530400584F0400733C0020704F04008C
:1098C400844F0400A44F0400C44F0400DC4F040080
:1098D400F44F04000C500400000000002450040065
:1098E400342E0020505004007C500400A450040086
:1098F400BC500400DC500400F8500400145104006F
:109904003451040050510400705104004B481AF0C3
:109914009BFA04A90DF14A0000F0C5F8E0B19DF8E6
:109924004E3007EE903AF8EEE77A9DF84F3007EEA6
:10993400103AB8EEC77AF2EE046A87EE260A37EEDA
:10994400800A0D20FFF73EFC9DF84F209DF84E1035
:109954003B481AF079FA47E63A481AF095FA43E692
:1099640039481AF071FA04A90DF14A0000F09BF885
:1099740038B1FFF7F5FDFFF7F9FD34481AF084FA22
:1099840032E630481AF080FA2EE631481AF05CFAD2
:1099940004A90DF14A0000F086F838B1FFF7F0FD94
:1099A400FFF7D8FD2B481AF06FFA1DE625481AF088
:1099B4006BFA19E628481AF047FA04A90DF14A008F
:1099C40000F071F838B1254B1868FFF7DFFD244823
:1099D4001AF05AFA08E6FFF7EBFD22481AF054FA97
:1099E40002E621481AF030FA04A90DF14A0000F009
:1099F4005AF860B19DF84E00FFF7E6FD9DF84E3031
:109A0400642101FB03F119481AF01EFAECE50D4834
:109A14001AF03AFAE8E516481AF036FAFFF7C8FDE4
:109A2400FFF734FCFFF7A0FCDEE512481AF00CFA4D
:109A3400DAE541B0BDEC028B30BD00BFA05104009B
:109A4400C4510400DC500400F8510400185204000E
:109A54003C5204005C520400805204003C2E00205E
:109A640098520400C4520400005304001C53040020
:109A74004C5304005C5304009A420ED100239342D9
:109A84000FD230B4C55CCC5CA54208D10133DBB243
:109A94009342F7D3012030BC704700207047002068
:109AA400F9E70120704708B504231A46FFF7E4FFDD
:109AB40008BD000008B5214B42221A7000225A70DA
:109AC4009A704FF08053D3F8A430B3F1FF3F22D003
:109AD4004FF08052D2F8A410184BD970D2F8A410C9
:109AE400090A1971D2F8A410090C5971D2F8A410FA
:109AF400090E9971D2F8A810D971D2F8A820120AC7
:109B04001A720F4B1B680D48C0F809300A234370C2
:109B140000F020F808BD4FF08053D3F8A8309BB272
:109B24004FF6FF729342D3D1044B064A1068C3F830
:109B340003009288A3F80720E3E700BF743C0020E9
:109B4400985304009C530400014B1860704700BFF5
:109B5400402E0020014BC3F804057047001000405C
:109B640010B40346044C006859689A68DB680FC453
:109B74005DF8044B704700BF843C00200B4B0C4A3B
:109B840092E8030083E8030003F10802094903C9CA
:109B940082E80300DA79042161F30712DA711A7A90
:109BA400022161F387121A72704700BF843C0020BF
:109BB40060000010A400001000487047843C00209E
:109BC40000231F2B09D8074901EBC3000022428060
:109BD400426001F833200133F3E7034B00221A609B
:109BE400704700BF943C0020943D002030B40546EB
:109BF4000F4B1B6800240AE01F230E4A12F833009F
:109C0400A0B102EBC3025288AA4207D001341F2C30
:109C14000BD85A1E002BEFD01346EEE7054A02EB91
:109C2400C30252688A42F1D100E0002030BC704780
:109C3400943D0020943C002030B40A4A13680A4C36
:109C440004EBC30568806960012104F833100B44F8
:109C54001360202B01D030BC7047134600221A60D9
:109C6400F9E700BF943D0020943C0020C0F30C03AE
:109C74008B4204D2C91A0144A1F500507047C91A95
:109C840008447047C37D002B42D083780A7802F0E1
:109C9400800203F07F0313430B7002780B7803F008
:109CA4007F0343EAC2130B700378002B41D030B416
:109CB4004378082B14BF002201224B7803F07F0362
:109CC40043EAC2134B70858803F08003C5F38614FE
:109CD40023434B708A7802F0030242EA8502D2B22F
:109CE4008A70857902F0FC02C5F3C10422438A70AC
:109CF400CB7803F01F0343EA4513DBB2CB70C27980
:109D040003F0E00302F01F021343CB7030BC704732
:109D140083780A7802F0BF029B0103F040031343E7
:109D24000B70C27803F0C00302F03F0213430B70C0
:109D3400B3E770470023032B22D810B402E00133A9
:109D4400032B19D8C3EBC30214010E4A224492F820
:109D54004820012AF3D10B4A2244948AC2899442AE
:109D6400EDD1C3EBC3021401064A224492888A420D
:109D7400E5D10448204400E000205DF8044B70471E
:109D840000207047043E0020002300E00133032B31
:109D940014D8C3EBC3021101094A0A4492F84820BB
:109DA400022AF3D1064A0A44918A828A9142EDD169
:109DB400C3EBC3031A0102481044704700207047E4
:109DC400043E002008B904207047082070470000B2
:109DD40038B505460C46CB695B78C370CB691B78F4
:109DE40083F001038370CB694362087B022814D09B
:109DF400FFF7E8FF6870E27A32B9A18AC0F10F0375
:109E0400994201DC082833D0A18A0346C0F10F002F
:109E1400814207DC52B3012205E0164B987DFFF71F
:109E2400D1FFE7E701222A7062B1A28A13440B33FF
:109E3400114A82FB0312DB17C3EB6203013BEB7194
:109E44000023AB710023EB7505F10C0294E80300C9
:109E540082E80300A2692A622289AA82A27AAA75E8
:109E6400226AAA6285F82C30184638BD0022DAE747
:109E74000720FAE7EC3D0020ABAAAA2A30B4034637
:109E84000C460978817000214162A1680B2903D82E
:109E9400217B09B3012100E00121197000205870D1
:109EA40029B1A1680731C9080139D9719871012113
:109EB400D97503F10C0504F1100103C985E8030009
:109EC400E1899982A1691962217F9975617F83F87B
:109ED4002C109A6230BC70470021DEE70021174B3A
:109EE4001B688B4227D90023154A02EBC102526832
:109EF4009A421ED910B40FE060685DF8044B7047B5
:109F040001310E4B1B688B4211D900230C4A02EB22
:109F1400C10252689A42F3D9094A52F8312002EB3D
:109F2400C30412F833208242E6D00133EEE7002066
:109F3400E3E70131D3E70020704700BF983D0020DC
:109F44009C3D002070B58CB006460D4614462C226C
:109F5400002101A81AF02AF80F238DF80430ADF877
:109F640008604FF0000365F300038DF80A308DF8A4
:109F74000B4001A801F0E6F80CB070BD30B58DB00F
:109F840005460C462C22002101A81AF00FF81023D4
:109F94008DF8043002958DF80C4001A801F0D2F838
:109FA4000DB030BD00B58DB010B913F1020F06D15C
:109FB400074B186804F066F80DB05DF804FB012245
:109FC4008DF80420029301A801F0BCF8F0E700BF6B
:109FD400A43D00202DE9F041054688460378BBB135
:109FE4000D4B1C68621C1A6004F00704AB8A0B4F0B
:109FF40007EBC4067380A988A869FFF737FE706071
:10A00400EB6903F00103737007F83480BDE8F08155
:10A014007846FDF745F9E3E7E83D0020A83D002038
:10A0240070B5064603784BB1B58A347F04F0010459
:10A03400B188B069FFF71AFE002304E07846FDF703
:10A044002FF9F1E70133072B15D80C4A02EBC302B1
:10A0540052688242F6D1094A02EBC3025288AA42EC
:10A06400F0D1064A02EBC3025278A242EAD1034875
:10A0740000EBC30000E0002070BD00BFA83D00203D
:10A08400F8B515461C460E684A68D1F808C0CF6872
:10A09400E6602261C4F814C0A7610E694A69E661EA
:10A0A40022620378DB092370E27D2AB3027802F08E
:10A0B4007F02A270002262709BB143789B0103F47B
:10A0C400FE53827843EA9203A3808378DB0003F093
:10A0D4001803C27843EA5213A371C37803F01F0331
:10A0E400E371002363622B78052B1AD82B780F4A6F
:10A0F400D35C84F82C30F8BD0278C2F38012A270CD
:10A10400027802F03F02E27043B190F90120002A84
:10A1140002DB04226270CFE70822FBE704226270AC
:10A12400CAE77846FDF7BCF8E0E700BFA453040093
:10A1340070B50C461E460378B3B104252A44A260C8
:10A1440000F10C032360836A636090F82C3023735E
:10A1540000236373204604F0F9FA034610B9226918
:10A1640015443560184670BD0125E7E72DE9F04137
:10A174008EB00D4616461C46804600282DD0002D74
:10A184002FD0002C31D0636A0233059304F10C0004
:10A19400A378002B2DD00121627801AF3B46082A19
:10A1A40014BF0022012204F0B2F80697CDF81C80F7
:10A1B400B2B2ADF820200B9515440C9563788DF858
:10A1C4003430237B022B16D00023ADF8283005A8A9
:10A1D40004F095F80EB0BDE8F0817846FDF760F81C
:10A1E400CDE77846FDF75CF8CBE77846FDF758F8FD
:10A1F400C9E70221D0E723692BB12369099310230E
:10A20400ADF82830E3E77846FDF74AF8F5E72DE99D
:10A21400F04186B004460D46C37D002B3CD0082691
:10A2240005FB06F8E379AB4238D0A5716B4632469C
:10A2340001A92046FFF77CFF074648BB4DB994F8B7
:10A24400533033B9A369C3F30C03A380012384F807
:10A254005330E37D7BB994F8523063B91DBBB4F835
:10A264004A10627823468A1AE16E0846FFF77EFF99
:10A27400012384F8523005992046FFF703FDE16E6F
:10A2840032464144009819F068FE01A804F07DFAB2
:10A29400384606B0BDE8F0810C26C1E7B4F84A6040
:10A2A400A6EB0806C1E77846FCF7FAFFD7E770B5D6
:10A2B40005460E4609B100230B6095F85040002175
:10A2C40004E0631C85F850300134E4B2EB79A34216
:10A2D40010D3EA6C0123A3401A42F5D12146284643
:10A2E400FFF795FF014628B9002EEAD03368013301
:10A2F4003360E6E7084670BDF0B587B0457815448D
:10A30400C37D7BB10B239D4224D816460F460446D9
:10A314006B462A4601A9FFF70BFF054620B12846E4
:10A3240007B0F0BD0F23EEE705992046FFF7AAFC1E
:10A33400E37D43B132463946009819F00EFE01A878
:10A3440004F023FAEBE72346324600993846FFF738
:10A354000DFFF4E70925E2E710B5044690F848300C
:10A36400012B0CD103F082F8237B012B0BD0094B7A
:10A37400D968014404F1300003F040F810BD784678
:10A38400FCF78EFFEEE7A37D024AD168126902FB57
:10A394000311EEE7EC3D002030B583B0002403E068
:10A3A4002846FFF7D9FF0134032C19D8C4EBC403A2
:10A3B4001A010C4B134493F84830012BF3D10023BA
:10A3C4000193C4EBC4021301064D1D4401A92846A0
:10A3D400FFF76DFF0428E3D0019B002BE3D0DFE7F8
:10A3E40003B030BD043E002038B5044690F8483030
:10A3F400022B09D1064B1D6803F038F8411904F10A
:10A40400300002F0FBFF38BD7846FCF749FFF1E766
:10A41400EC3D002038B5044690F84830022B10D1AA
:10A424000A4B5D7D5A689B6803FB052503F01EF803
:10A43400411904F1500002F0E1FF012384F868306F
:10A4440038BD7846FCF72CFFEAE700BFEC3D00205E
:10A4540038B50446C06E08F002F804F13005284609
:10A4640002F0E9FF70B994F84830022B0ED0702244
:10A474000021204619F09AFD002084F8480002F0DB
:10A484002DF838BD284602F0A1FFECE704F1500591
:10A49400284602F0D0FF0028E9D0284602F096FFB3
:10A4A400E5E710B504460121FFF794FD2046FFF7C8
:10A4B400CFFF10BD10B58CB0044690F84830012B86
:10A4C4000CD101238DF80430636D029301A800F0D0
:10A4D40039FE2046FFF7BCFF0CB010BD7846FCF7F0
:10A4E400DFFEEEE730B585B00D460446A8B1002185
:10A4F4002046FFF76FFD2946606DFFF73FFD2046BC
:10A50400FFF7A6FF0F4B1B6813F0040F03D00E4B8D
:10A514001B68032B05DC05B030BD7846FCF7C0FE94
:10A52400E5E70A4BD3F8043594F8482002950192E4
:10A53400074A009240F2EF120649042004F074FE28
:10A54400E9E700BF942E0020902E00200010014067
:10A55400105404000454040008B508460021FFF711
:10A56400C1FF08BD08B5037B012B02D0FFF7A2FF92
:10A5740008BD0121FFF7B6FFFAE7000008B590F81F
:10A58400513053B1013B80F85130002380F85030F2
:10A59400034B186803F076FD08BDFFF7E3FFFBE704
:10A5A400A43D002010B50C4691F84830012B03D18E
:10A5B4002046FFF7E3FF10BD7846FCF771FEF7E78E
:10A5C400062951D170B582B003460178890101F49E
:10A5D400FE5140789D78DC78240444EA05641D79B2
:10A5E40044EA05245B791C4341EA90011046FFF7D5
:10A5F400A1FB0546B8B1C66C2643C66444B30378D0
:10A6040053B3EB795A1C01239340013B9E4227D05C
:10A61400002185F850102846FFF749FE2846FFF729
:10A624009BFE02B070BD114B1B6813F0040FF8D0F1
:10A634000F4B1B68012BF4DD0E4BD3F804350E4A87
:10A64400009240F2A7520D49022004F0EDFDE8E724
:10A654000321FFF747FFE4E77846FCF721FED0E744
:10A664002846FFF727FFDCE7704700BF942E002041
:10A67400902E0020001001403454040004540400BF
:10A684002DE9F04389B080460F4614461E4695785E
:10A6940025B9FFF795FF09B0BDE8F0832846FFF719
:10A6A4001DFC81460028F6D08DF80050236A0693DD
:10A6B400A38AADF80E3004AB04F10C0292E8030057
:10A6C40083E80300A37D8DF81C30CDF80480029745
:10A6D40023788DF80C3094F82C308DF81D303146E9
:10A6E4006846C847D7E700002DE9F04706460F46FD
:10A6F40090464B1EDBB2012B0FD8B8F5C07F10D8A3
:10A704000024032C1AD8C4EBC4031A01314B13449C
:10A7140093F848304BB10134F3E77846FCF7C0FDB9
:10A72400EBE77846FCF7BCFDEAE7DFF8A8A015469E
:10A734005544404607F08FFEE86600E0002585B3E7
:10A74400EB6E002B44D033462A4606F1300ED3F884
:10A7540000C05C689868D968C2F800C05460906012
:10A76400D160103310327345F1D10023EB64A5F8A6
:10A774004A80B188B069FFF779FAA861012F13D034
:10A784006FF00103AB62002385F86830124BAB65B0
:10A794002D66124BAB632D64012001F09FFE85F8FA
:10A7A40048702846BDE8F0870D4B1B7D85F8513075
:10A7B400002385F8523085F8533085F85030B36A59
:10A7C4006B656FF00103AB62064BAB632D64E3E78B
:10A7D4000025E6E7043E00208DB002005DA50200DE
:10A7E400EC3D0020A9A50200F0B5C7B04678164498
:10A7F400C37D2BB14FF48073B3427ED3002303E0B7
:10A804004FF4C073F8E70133032B19D8C3EBC30427
:10A8140025013C4C2C4494F84840012CF3D1394C8C
:10A824002C44A58A848AA542EDD1C3EBC304250137
:10A83400344C2C44E589C489A542E4D1082455E06C
:10A8440014460F4632460121FFF74EFF0546002805
:10A8540055D022463946C06E19F07FFB002345933C
:10A8640045A92846FFF723FD044608B1042840D132
:10A87400459B7BB9244B1B6813F0040F35D0234B45
:10A884001B68032B31DDB5F84A70802F28BF802761
:10A89400002313E02846FFF75FFDEBE7EA6ED25C86
:10A8A4001B490C6810095900265C04A800F81360C1
:10A8B40002F00F020131A25C42540133BB42EDD3DA
:10A8C40004AA002302F8173003F1804303F5883308
:10A8D400D3F8043502920F4A01920F4A009240F2D3
:10A8E400D1420E49042004F09FFC0024204647B0C6
:10A8F400F0BD2846FFF7ACFDF8E70924F6E7042489
:10A90400F4E700BF043E0020942E0020902E002087
:10A91400982E002064540400D04A04000454040017
:10A9240000B585B000238DF80F3098B10346084672
:10A9340002330B600DF10F0103F0E5FC9DF80F30BD
:10A9440043B10D4B1B6813F0040F03D00B4B1B6872
:10A95400032B04DC9DF80F0005B05DF804FB084BE5
:10A96400D3F80435074A009240F2A632064904207F
:10A9740004F05AFCEEE700BF942E0020902E002035
:10A984000010014074540400045404002DE9F04301
:10A994008FB004460E4615461F46D0F8189003782B
:10A9A40023B181884846FFF761F9A06104F10C00E6
:10A9B400A378002B3AD0012162780DF12808434690
:10A9C400082A14BF0022012203F0A1FCC4F8189045
:10A9D400CDF8088003966378EA1A92B2ADF8102095
:10A9E4003244089207978DF824300023ADF81830CC
:10A9F400237B022B1CD0A3786BB3237B022B1BD0AD
:10AA04002546002345F8243F2A46E178206A0EF0C3
:10AA1400B7FA606A98B101A9FFF782FF00283AD11A
:10AA24002A46E178206A0EF0ABFAF2E70221C3E786
:10AA34001023ADF81830DEE723690593E0E7237BA4
:10AA4400022B2CD104F10C01E0890EF047FB002805
:10AA5400D3D1052020E000236362237B012B0DD09A
:10AA64002146002341F8243FA08A0EF0A6FA01A94A
:10AA7400606AFFF755FFA0B905200DE004F1240139
:10AA8400E0890EF09AFA01A9606AFFF749FF0028ED
:10AA9400E6D0002000E000200FB0BDE8F0830520E0
:10AAA400FAE70020F8E7000070B5F0B00D46144650
:10AAB4001E4610AB0A4601462046FFF767FFA0B1C9
:10AAC4001F4B1B6813F0040F37D01E4B1B68052B5C
:10AAD40033DD1D4BD3F804351C4A009240F2196251
:10AAE4001B49062004F0A0FB27E003AB01228DF8EC
:10AAF4000C20A28AADF80E20002204928DF81420B6
:10AB040010AA06926278AD1AADF81C5008AA93E810
:10AB1400030082E803000AAB04F10C0292E803008C
:10AB240083E80300A37D8DF83830236A0C93636AAD
:10AB34000D930F9605A800F005FB70B070BD00BF23
:10AB4400942E0020902E002000100140AC540400EC
:10AB54000454040010B5D47D14B1FFF791FD10BD69
:10AB6400FFF7A2FFFBE770B504460D461646808A40
:10AB740001F0D4FF01281AD1237BD3B1022B0BD0CF
:10AB840094F91630002B16DB237853B1324629464C
:10AB94002046FFF729FE0BE02369002BF0D110209B
:10ABA40006E0324629462046FFF7A6FB00E01020C7
:10ABB40070BD1020FCE70720FAE7000010B54FF441
:10ABC400E0720021134819F0F1F905F08DFD00241D
:10ABD400114B1C6040222146104819F0E7F9104B34
:10ABE400104A1A60104A5A604CF250329A600F4967
:10ABF400D9601A6104221A759C7508225A750C488A
:10AC040003F020FA0B4B18600B4B1C600B4805F04B
:10AC14006FFE10BD043E0020E83D0020A83D00204A
:10AC2400EC3D002080969800F049020020A1070026
:10AC3400E1AD0200A43D0020983D0020A99F020040
:10AC440008B505F0C9FC08BDC0B110B58CB0044608
:10AC54000369B3B1C369B3B18369B3B1014668464B
:10AC6400FFF7B6F8034610B118460CB010BDA28A1F
:10AC740021696846FFF777FF0346F5E70E23184678
:10AC840070470E23F0E70E23EEE70E23ECE7D0B176
:10AC940010B58CB004464268BAB18269BAB1027C7C
:10ACA400022A16D0BAB190F90020002A15DB0A4610
:10ACB40001466846FFF7E2F8A26861686846FFF754
:10ACC40052FF0CB010BD0E2070470E20F9E70E2085
:10ACD400F7E71020F5E71020F3E70720F1E700007D
:10ACE400037B012B01D00020704730B58DB001AC3F
:10ACF40000230293CDF80B308288C2F386158DF8B9
:10AD0400045092008DF805200A0E8DF806200A0CD6
:10AD14008DF807200A0A8DF808208DF809100622FC
:10AD2400069201228DF82020828AADF82220099310
:10AD34008DF810300594026A0A928DF81C30C3898C
:10AD4400ADF81E3090F82C308DF82D30837D43B94A
:10AD54008DF82C306FF0010104A8FFF798FF0DB0B7
:10AD640030BD024B5B7D8DF82C30F3E7EC3D0020C9
:10AD740038B590F84830022B00D038BD90F86830D0
:10AD8400022BFAD10446C16CFFF7AAFF0028F4D1C4
:10AD9400002384F86830E56C237853B1E3795A1CB6
:10ADA40001239340013B9D42E7D12046FFF779FB05
:10ADB400E3E77846FCF774FAF0E7000010B50024E6
:10ADC40007E0C4EBC402130103481844FFF7D0FFA3
:10ADD4000134032CF5D910BD043E002008B5FFF75B
:10ADE400DBFAFFF7EBFF012008BD00002DE9F0417D
:10ADF40082B007460E46144698461046FEF7C4FF36
:10AE0400054620B1A28883889A4210D312D82046DE
:10AE1400FFF706F9B8B103784BB123787BB1E17938
:10AE24004B1C0121994001392046FFF759FF02B01C
:10AE3400BDE8F0810521FFF755FB0025E7E77846DB
:10AE4400FCF72EFAEBE7002D56D05F4B1B6813F08E
:10AE5400040F04D05D4B1B68032B00F38580284648
:10AE6400FFF7C2FA2B7B012B00F08C80EA6CA179EE
:10AE740001238B401A42DAD11343EB64A279EB79B4
:10AE84009A4200F08880E37D002B00F08F80082335
:10AE9400B34240F08D80EB6EA079E27D002A00F091
:10AEA4008C8008243246394604FB003019F055F8EA
:10AEB400EC6C2B78002B00F08280EB795A1C012378
:10AEC4009340013B9C42B2D1022385F86830E96C7F
:10AED4002846FFF705FF044643462A46B5F84A10BC
:10AEE400E86EFFF737FE002CA1D1002385F8683007
:10AEF4002846FFF7D6FA9AE7E279531CE17DE9B1D7
:10AF0400082202FB03F2D9B14FF4807393421AD2A0
:10AF14002D4B1B6813F0040F89D02C4B1B68002B9E
:10AF240085DD2B4BD3F8043501922A4A009240F276
:10AF340036322949012004F077F978E70C22E0E75A
:10AF44004FF4C073E2E702212046FFF7CDFB05462C
:10AF540000287FF47AAF00212046FFF7C1FE0221CA
:10AF64000020FFF70BF862E7194BD3F80435A279F8
:10AF740001921A4A009240F251321749042004F017
:10AF840053F96CE795F86830002B7FF46FAF2846CF
:10AF9400FFF740FA6AE79BB2E27D2AB1082203FB7D
:10AFA4000263A5F84A3076E70C22F8E70C236FE732
:10AFB40004212846FFF796FA39E70C2472E778460D
:10AFC400FCF76EF979E700BF942E0020902E002044
:10AFD4000010014088540400045404009C540400EC
:10AFE4002DE9F0418EB000284AD00546002A49D008
:10AFF400984614460E4600220C920D920CA96088C5
:10B004000EF06CF820B9002738460EB0BDE8F08188
:10B014002269E168208905F013FB08B10027F3E7F2
:10B024002269E168208905F0DFFA0746C8B96B4652
:10B03400424621462846FFF723F803AB0EAA12E93D
:10B04400030083E8030002F085FF9DF8003083B11C
:10B0540043466A46311F281DFFF7C8FE02F0BEFFB3
:10B06400D2E72169002201F001012089FEF76AFF7D
:10B07400CAE743466A46711E681CFFF76BFDEDE79D
:10B084000E27C1E70E27BFE710B50C4691F84830EC
:10B09400022B0BD1022384F86830E16C2046FFF7C1
:10B0A4001FFE10B9002384F8683010BD7846FCF701
:10B0B400F7F8EFE7F8B500B30546164B1F68F7B984
:10B0C4000E463C46B4420ED205EBC4035B68CBB1DA
:10B0D40015F8340010F0800F16D1B8B1FEF7FEFE5B
:10B0E400B0B90134EEE70C4B43F8375003EBC70318
:10B0F4005E607B1C074A136002E00E2700E0042711
:10B104003846F8BD0E27FBE70B27F9E70F27F7E7CB
:10B114000F27F5E7983D00209C3D0020084B196857
:10B1240061B110B504E0064803F0E7FF214624B1FD
:10B134000C680B79002BF9D0F5E710BD704700BF00
:10B14400C83F002038B5054630B1104B1C68ACB17F
:10B154000F4B01221A7004E07846FCF7A1F8F4E7DB
:10B1640024683CB12379002BFAD154F8043C2846D6
:10B174009847F5E7064B1B78022B00D038BDFFF744
:10B18400CDFF034B00221A70F8E700BFC83F002030
:10B19400C43F002010B5044630B100232372211DA2
:10B1A400034803F07FFF10BD7846FCF779F8F4E715
:10B1B400C83F002010B5044658B10A4B1B78013B28
:10B1C400DBB2012B09D8074B02221A700123237228
:10B1D40010BD7846FCF764F8EFE7211D024803F040
:10B1E4008CFFF5E7C43F0020C83F00200A8883682D
:10B1F4009B5A07339BB223F0030313449BB2028888
:10B20400043A934200D900230B80704710B582B0F2
:10B2140004468368C91AADF806100DF10601FFF75C
:10B22400E5FFBDF80630A068184402B010BD0088E0
:10B23400043880B2704743888268D018D152012301
:10B2440083707047826800239370438083807047C3
:10B25400073189B221F0030189B2428883889A4276
:10B2640004D29B1A99421EDC0020704710B59A4202
:10B274000FD90488A41AA14217D98B4217D3032CDF
:10B2840003D98368134404229A7000234380184628
:10B2940004E0826813449B780BB1042010BDFFF7CF
:10B2A400D1FF0020FAE7042070470020F6E70420CD
:10B2B400F4E738B504460D468368828813448B420C
:10B2C40002D07846FBF7ECFF0023AB70211D20462B
:10B2D400FFF78CFFA288A36813449B78042B00D04B
:10B2E40038BD0023A380FBE710B50C468368428871
:10B2F40013448B4202D07846FBF7D2FF0023A3709D
:10B3040010BD70B5064615460C46002944D0002EE3
:10B3140046D0B4F1005F08D94FF08053D3F80C3114
:10B3240003F50023B4EB832F0ED3B4F5000F08D933
:10B334004FF08053D3F80C3103F50053B4EB832F53
:10B3440002D37846FBF7ACFF6B1E2344B3F1005FD6
:10B3540008D94FF08052D2F80C2102F50022B3EB49
:10B36400822F0ED3B3F5000F08D94FF08052D2F8D4
:10B374000C2102F50052B3EB822F02D37846FBF77F
:10B384008FFF042D10D9358000237380B380B460FF
:10B39400043D2580A37070BD7846FBF781FFB6E7B6
:10B3A4007846FBF77DFFB4E77846FBF779FFEAE7D9
:10B3B40038B50446A0B16288A36813449B78012B76
:10B3C40012D0EFF3108572B6A388A16819448B7864
:10B3D400032B0DD02046FFF735FF05B962B638BD03
:10B3E4007846FBF75DFFE6E77846FBF759FFE8E7A9
:10B3F4002046FFF70BFFA368C31A63800023837002
:10B40400EBE72DE9F0410E4615460446D0B1EEB106
:10B414006288A36813449B78012B1BD025B3204674
:10B42400FFF705FFA84221D3EFF3108872B629462F
:10B434002046FFF70DFF074680B1B8F1000F16D183
:10B4440062B614E07846FBF72BFFE0E77846FBF79B
:10B4540027FFDDE77846FBF723FFDFE72946204691
:10B46400FFF7E9FE3060E8E7092700E009273846DE
:10B47400BDE8F081F8B50C4616460546E0B1FCB1CE
:10B48400A378012B20D12388B34221D326B3EFF331
:10B49400108772B626800223A370E9182846FFF7A6
:10B4A400A5FE6B88AA88934203D0AA68134400229D
:10B4B4009A7007B962B6F8BD7846FBF7F1FEDEE78D
:10B4C4007846FBF7EDFEDBE77846FBF7E9FEDAE7C3
:10B4D4007846FBF7E5FED9E77846FBF7E1FED6E7C9
:10B4E40070B50D46044690B1ADB1EFF3108672B657
:10B4F400A288A36813449A78042A10D09A78022A5E
:10B5040015D0032A18D0052006B962B670BD784656
:10B51400FBF7C6FEE8E77846FBF7C2FEE5E7211D28
:10B524002046FFF763FEA288A3681344E6E70322DC
:10B534009A702B600020E7E77846FBF7B1FE002005
:10B54400E2E738B5044680B1EFF3108572B6A088FF
:10B55400A16801448B78042B0BD08878022814BF8F
:10B564000020012005B962B638BD7846FBF798FE85
:10B57400EAE72046FFF74AFE0146EEE738B50446FF
:10B5840078B1EFF3108572B6A088A1680144887879
:10B59400C31EDBB2012B08D82046FFF737FE014655
:10B5A400F5E77846FBF77CFEEBE7022814BF0020A2
:10B5B400012005B962B638BD70B50C46064678B1AF
:10B5C40094B1EFF3108572B6A378012B10D0032B3E
:10B5D40013D121463046FFF76CFE05B962B670BD43
:10B5E4007846FBF75DFEEBE77846FBF759FEE8E7A4
:10B5F40021463046FFF778FEEFE77846FBF750FE2A
:10B60400EBE710B5EFF3108472B6838881681944B0
:10B614008B78042B06D08878B0FA80F0400904B9FE
:10B6240062B610BDFFF7F2FD0146F4E708B5064B1C
:10B63400986800221A605A609A60DA601A615A6146
:10B644009A6104F0D9FD08BDCC3F002000B585B057
:10B654000A4BDB6802228DF8002001934FF48053DB
:10B664000293074A6946012001F06EF918B90120D6
:10B6740005B05DF804FB0020FAE700BFCC3F0020D2
:10B68400E83F002000B585B00A4B1B6802228DF804
:10B69400002001934FF480530293074A6946012026
:10B6A40001F052F918B9012005B05DF804FB00203F
:10B6B400FAE700BFEC3F0020E83F0020164BDA68B1
:10B6C400137951795B1A03F57F2303F6FF7302EBB9
:10B6D40003339A4205D002F580520F4BDA600320FF
:10B6E400704700B585B00D4B1B6801208DF8000034
:10B6F40001930B4B0393042302930A4A694601F016
:10B7040023F918B1002005B05DF804FB024B0122B7
:10B714001A760220F7E700BFCC3F0020EC3F002060
:10B72400F03F0020E83F002000B585B00C4BDA68FC
:10B734000C4B1B68043301208DF800000192039325
:10B7440040F6FC730293084A694601F0FDF818B903
:10B754000120034B187600E0002005B05DF804FBDF
:10B76400CC3F0020EC3F0020E83F002000B585B02E
:10B774000A4B1B6801208DF800000193084B0393CA
:10B7840004230293074A694601F0DEF818B9012040
:10B7940005B05DF804FB0020FAE700BFEC3F002091
:10B7A400D83F0020E83F002010B584B0104BDA6881
:10B7B4001478104B1B68043301208DF800000193AA
:10B7C400039202940C4A694601F0BEF868B9094B29
:10B7D4001B6804F0FC041C440434054B5C61D96808
:10B7E4000A780A441A61012000E0002004B010BD68
:10B7F400CC3F0020EC3F0020E83F002008B50023A8
:10B80400092B09D8064A52F82320824201D0013379
:10B81400F6E7044A536002E07846FBF741FD08BDB1
:10B82400D8540400CC3F002010B5214BDB6853B141
:10B834001F4B1B7E5BB91E4B5B68092B26D97846D0
:10B84400FBF72EFD22E07846FBF72AFDF0E7784669
:10B85400FBF726FDEFE7164A536801335360092BC3
:10B8640021D97846FBF71CFD1DE0114B00225A60DC
:10B8740019E00F4B1B7E1BB10D4B02221A7012E014
:10B88400FFF7D4FE0FE00A4B1B7E83B9084B5A68BE
:10B89400084B53F82230984704460228E9D003287D
:10B8A400E3D00128D7D0012CEDD0032CEBD010BD70
:10B8B400CC3F0020D8540400104B1B681B685A1E50
:10B8C40012F1030F18D8C3F30B020AB1002070471A
:10B8D40010B50B4AD36000231376537601241470F9
:10B8E40093600848FFF78AFF0749204601F01AF8D9
:10B8F400FFF79AFF204610BD00207047EC3F002060
:10B90400CC3F002051B6020011B9020008B50B78F3
:10B91400032B06D00B4B1B78012B06D0022B0BD02C
:10B9240008BD084B00221A76F4E7064B1B7E002B59
:10B93400F6D1FFF779FFF3E70B78032BF0D1FFF78C
:10B9440075FEEDE7CC3F002000B585B0174BDB68F2
:10B9540018784FF6FF7203F58051184404F07EFF07
:10B96400F0B10246114BD9680B780B44984219D0B8
:10B974000E4B5B7E93B10E4B01208DF800000192BB
:10B984000393042302930B4A694600F0DDFF58B980
:10B994000120064B187605B05DF804FB064BEBE777
:10B9A4000120F8E70120F6E70020F4E7CC3F00206F
:10B9B4005C570400E83F00205857040008B5104BBA
:10B9C400DB681878002203F58051184404F046FF20
:10B9D40008B1012008BD0A4BDA68137951795B1A62
:10B9E40003F57F2303F6FF7302EB03339A4205D07A
:10B9F40002F58052024BDA600320EBE70220E9E70C
:10BA0400CC3F0020F0B585B0514BDD686A792B79C5
:10BA1400591E8A4214D005F580510C780C444D49C6
:10BA24000968081D0E7906449B1A05EB03356388E3
:10BA3400013B9BB247F6FE62934260D927461BE066
:10BA44000120434B58767EE07846FBF729FC16E04C
:10BA540027F47F6323F00F0303F580531A7813440C
:10BA64009D4247D99C4247D25A88013A92B21F4616
:10BA740047F6FE618A4210D93B88002BE4D03B880C
:10BA840007EB830323F47F6222F00F029342DFD09B
:10BA94007A88B2F5FE4FE3D1DAE71C462FE0784608
:10BAA400FBF7FEFB16E027F47F6323F00F0303F597
:10BAB40080531A7813449D4220D99C423BD25A8821
:10BAC400013A92B21F4647F6FE618A4210D93B887A
