:020000022000DC
:1060000000F000206D630200556302005763020038
:10601000596302005B6302005D6302000000000040
:106020000000000000000000000000005F630200AC
:106030006163020000000000636302006563020008
:1060400067630200676302006763020019BB030015
:106050006763020067630200A57D020067630200B8
:1060600067630200457E0200497E03006763020009
:1060700067630200676302006763020067630200F0
:10608000676302006D190400A5C502006763020082
:10609000D1190400676302004DAD0300676302007D
:1060A0006763020067630200676302007D7C020091
:1060B0006763020067630200000000000000000048
:1060C00067630200676302006763020067630200A0
:1060D000676302006763020067630200000000005C
:1060E00000000000000000000000000000000000B0
:1060F00000000000000000000000000000000000A0
:10610000000000000000000000000000000000008F
:10611000000000000000000000000000000000007F
:10612000000000000000000000000000000000006F
:10613000000000000000000000000000000000005F
:10614000000000000000000000000000000000004F
:10615000000000000000000000000000000000003F
:10616000000000000000000000000000000000002F
:10617000000000000000000000000000000000001F
:10618000000000000000000000000000000000000F
:1061900000000000000000000000000000000000FF
:1061A00000000000000000000000000000000000EF
:1061B00000000000000000000000000000000000DF
:1061C00000000000000000000000000000000000CF
:1061D00000000000000000000000000000000000BF
:1061E00000000000000000000000000000000000AF
:1061F000000000000000000000000000000000009F
:10620000344935480A1A02D0072291438D46334952
:1062100033480A1A06D00722914381F309880222E3
:1062200082F314882F483049304A00F042F8304851
:106230003049314A00F03DF830483149314A00F0E8
:1062400038F831483149324A00F033F831483249A0
:10625000324A00F02EF832483249334A00F029F829
:1062600032483349334A00F024F833483349002296
:1062700000F02AF832483349002200F025F832486D
:106280003249091A082902DB0022026041601F48D6
:106290001F49884205D00268043003B4904703BC0C
:1062A000F7E700208646EC4600200021284A904768
:1062B000FEE7884207D0521A05D0037801300B70F0
:1062C0000131013AF9D17047884202D002700130A1
:1062D000FAE7704700F0002000E8002000F00020FE
:1062E00000F0002060430400A02D0020F82E0020C4
:1062F000A4630200A46302001027040060430400AA
:10630000A02D0020A02D00201C2804001C28040023
:106310001C2804001C2804001C2804001C2804005D
:106320001C2804001C28040060430400B844040036
:10633000F82E0020F82E0020F82E0020F45A00201D
:10634000F45A0020F45A0020F45A0020F45E002091
:1063500075690200FEE7FEE7FEE7FEE7FEE7FEE7FF
:10636000FEE7FEE7FEE7FEE7704700BF094880470B
:1063700009484FF007018843854608488047084888
:10638000016841F470010160BFF34F8FBFF36F8F5D
:10639000FFF736BF6963020000F0002079B3030005
:0463A00088ED00E0A4
:1063A40041DF704730B591B04FF0A0430322C3F8EA
:1063B40034274FF40052C3F80C25304A042146F226
:1063C400010007F0D3F81BF005FBA8BB00F0A0FC0C
:1063D40000F02EFE00F048FE00F074FE20220021A2
:1063E40007A81BF073FD01238DF81C3007238DF8DB
:1063F4001F3006238DF82430214B0B93214B0F9330
:10640400214907A80AF04CFAD8B91F4B1B78EBB105
:106414000AF082FA60BB01F08DFD00F099FC0021C6
:106424004FF4C05000F020FC0222C8214FF4C050A9
:1064340000F026FC11B030BD144AD02115F0C4F888
:10644400C4E7124AE12115F0BFF8DEE701AC104DB4
:106454000FCD0FC495E8030084E8030001A800F001
:106464007FFB0028D4D0094AEF2115F0ADF8CFE71F
:10647400064AF12115F0A8F8CDE700BF45D5020082
:106484005969020099680200FE2E00206028040069
:106494001C28040010B5044600214FF4C05000F03D
:1064A400E3FB04EB8404620032214FF4C05000F09B
:1064B400E7FB10BD08B500F01DFC08BD0F4B1B68C1
:1064C40013F4804F03D00E4B1B68032B00DC704782
:1064D40000B585B00B4BD3F804354A68526911787E
:1064E400526802920191084A0092692207490420E5
:1064F40007F058F805B05DF804FB00BF5C2E0020DF
:10650400582E00200010014034280400C028040044
:1065140010B584B0B24B1B6813F4804F04D0B14B58
:106524001B68032B00F3F68000F09EFD00F0CAFD0B
:1065340003A80FF00FFFAA4B1B6813F4804F04D07D
:10654400A84B1B68032B00F3F08000F0D3FB002161
:106554004FF4C05000F088FB0422C8214FF4C0500F
:1065640000F08EFB002010F0BDF89F4B18809C4B70
:106574001B6813F4804F04D09A4B1B68032B00F361
:10658400E2809A4B9A4A98490988002010F062FCEC
:10659400002840F0E4800AF0DBF9044695494CF207
:1065A40005000FF075FF002840F0DE8092494CF2A0
:1065B40005000FF0DDFE002840F0DB808F494CF22F
:1065C40004000FF065FF002840F0D8808C494CF29D
:1065D40004000FF0CDFE002840F0D5808949012049
:1065E4000FF0C6FE002840F0D380804B1988208825
:1065F4000DF0A0FC002840F0D0807C4B1988208846
:106604000DF05AFD002840F0CD807B4B198820887E
:106614000DF054FA002840F0CA8001221146208867
:106624000DF0F0FA002840F0C780704B1988764BC3
:1066340018880DF07FFC002840F0C3806B4B19884C
:10664400714B18880DF038FD002840F0BF806E4B68
:1066540018880DF053FB002840F0BD80654B198865
:10666400694B18880DF084FB002840F0DF805F4BF5
:106674001988664B18880DF05DFC002840F0DB801B
:106684005A4B1988614B18880DF016FD002840F00C
:10669400D7805E4B18880DF031FB002840F0D58080
:1066A400564B1988594B18880DF062FB002840F0AE
:1066B400D180534B1988554B18880DF0FFF90028E9
:1066C40040F0CD80494B1988514B18880DF032FCAD
:1066D400002840F0C980454B19884D4B18880DF0AF
:1066E400EBFC002840F0C580464B1988484B1888BD
:1066F4000DF0E4F9002840F0C1800A220121444B46
:1067040018880DF07FFA002840F0BD800CF012FCD0
:1067140004B010BD3F4BD3F804353F4A00928322A6
:106724003E49042006F03EFFFEE63A4BD3F804351A
:10673400BDF80C2001923A4A00928E223749042077
:1067440006F030FF01E7334BD3F804350190354AA6
:10675400009295223149042006F024FF11E7324AC1
:10676400972114F031FF16E72F4A9C2114F02CFFD7
:106774001CE72D4A9D2114F027FF1FE72A4A9E217A
:1067840014F022FF22E7284A9F2114F01DFF25E779
:10679400254AA02114F018FF27E7234AA22114F068
:1067A40013FF2AE7204AA32114F00EFF2DE71E4A07
:1067B400A42114F009FF30E71B4AA52114F004FFBB
:1067C40033E7194AA82114F0FFFE37E7164AA92136
:1067D40014F0FAFE3BE7144AAA2114F0F5FE3DE753
:1067E4005C2E0020582E0020102F0020FC2E0020AC
:1067F40050280400FA2E0020F82E00201E2F00201E
:106804001C2F00201A2F0020002F0020182F0020FA
:10681400142F002000100140E8280400C0280400C0
:10682400042904001C29040060280400184AAB2130
:1068340014F0CAFE1BE7164AAD2114F0C5FE1FE78B
:10684400134AAE2114F0C0FE23E7114AAF2114F01D
:10685400BBFE25E70E4AB02114F0B6FE29E70C4A28
:10686400B12114F0B1FE2DE7094AB32114F0ACFEB6
:1068740031E7074AB42114F0A7FE35E7044AB521ED
:1068840014F0A2FE39E7024AB62114F09DFE3DE75A
:106894006028040000B583B0244B1B6813F4804FB8
:1068A40003D0234B1B68032B1BDC002121481AF067
:1068B40083FD08BB20481AF0BFFC10BB1E4B188890
:1068C4000DF01CFA10BB1D4A00211D481AF0CEFB26
:1068D40008BB1B4B18880DF011FA08BB03B05DF818
:1068E40004FB184BD3F80435174A0092BE2217490B
:1068F400042006F057FED8E7154ABF2114F064FEC1
:10690400D8E7134AC12114F05FFED7E7104AC22129
:1069140014F05AFED7E70E4AC42114F055FED8E706
:106924000B4AC52114F050FED8E700BF5C2E0020AE
:10693400582E0020142F0020182F0020C1640200BC
:10694400002F002000100140C8280400C0280400C3
:106954006028040008B503781C2B00D008BD03226E
:10696400C8214FF4C05000F08BF909F0E3FFF5E7BC
:1069740008B5FFF717FD01F023FA01F033FA01F02F
:10698400F9F901F03DFA01F089F901F0F3F8FFF7A4
:1069940007FDFCE72B4B1B78002B52D000B585B0CC
:1069A400012804D0032845D005B05DF804FB00237A
:1069B400029302A9012014F075F840BB02A814F058
:1069C400C3F838BB0123039303A90DF1060010F0AB
:1069D400EDF910BBBDF806000FF084FE0DF10501C2
:1069E4000FF0DAFFE0B90BF043FA9DF80510002030
:1069F4000BF07AFBB8B904F0A5FBC0B9114B002227
:106A04001A70114B1B68002BCED09847CCE714F0BA
:106A1400CDFDD3E714F0CAFDD4E714F0C7FDD9E7E0
:106A240014F0C4FDDFE7784600F02CFCE3E714F033
:106A3400BDFDE3E714F0FEF80028B5D014F0B6FD70
:106A4400B2E77047222F0020242F002008B5064B00
:106A540001221A70054804F0DFFB04F0BFFB00B903
:106A640008BD14F0A3FDFBE7222F0020A02D002079
:106A740008B503781B2B00D008BD074B1B78002BEF
:106A8400FAD014F01BF918B9044804F0C9FBF3E771
:106A940014F08CFDF8E700BF222F0020A02D002069
:106AA40008B50323002203490969034815F0BEFC15
:106AB40008BD00BF242F00207431002008B50378DE
:106AC400023B082B3FD8DFE803F01C05113E3E2CA7
:106AD4003E3E36001E4B5B68002B34D0007A002803
:106AE40031D01C4A0121117098472CE0184B9B6847
:106AF4004BB3184A127832B3164A002111709847E2
:106B040021E0154B1B784BB9114BDB681BB1114AC3
:106B1400002111709847FFF7C3FF14E0FFF796FFB9
:106B240011E010220A4B59690C4815F00FFD50B1C1
:106B340014F03CFD07E08168C06809F05FFE18B9F5
:106B4400054B01221A7008BD14F030FDF8E700BFB0
:106B5400242F0020202F0020212F0020743100201A
:106B640070B586B00446234A03AB07CA03C323F8AF
:106B7400022B120C1A70204E35460FCC0FC594E828
:106B8400030085E803007369002B31D01B491C48BE
:106B940015F030FC034610B1184606B070BD194B11
:106BA400009303AB154A1649174815F0DFFB03465B
:106BB4000028F1D1154817F075F80146124815F070
:106BC40001FC03460028E7D1114817F02DFA0346CB
:106BD4000028E1D10E4817F05DFA01460A4815F085
:106BE400F1FB03460028D7D1FFF75AFF0346D3E74A
:106BF4000723D1E75C290400242F00203C2F002028
:106C0400A8320020C16A0200743100205C2F0020E9
:106C14002431002008B5104B1B6873B14FF0A0421B
:106C2400D2F804350D4909684B40C2F804350A4AC4
:106C34001368013B136023B108BD002014F0B6FCB7
:106C4400ECE707481AF032FF064B1A684FF0A043EE
:106C5400C3F80425F0E700BFE8320020EC3200203E
:106C6400F03200201033002021B14FF0A043C3F8CC
:106C74000C0570474FF0A043C3F8080570470000A7
:106C840072B338B51346132900D838BD154A1060BD
:106C94005B00013B144A13604FF0A043D3F8042572
:106CA400124B1A6000254C0CC8034FF47A7200236F
:106CB40010F5FA7044EB05011AF014FF2A46014658
:106CC4000B481AF0D5FE0028DFD14FF0A042D2F8CD
:106CD40004350449096823EA0103C2F80435D4E7FA
:106CE400704700BFEC320020E8320020103300204F
:106CF400F032002008B504481AF0D8FE0021034BF6
:106D04001868FFF7B1FF08BDF0320020EC32002014
:106D140008B50B230BE04FF0A04103F5E07203200C
:106D240041F8220001229A40C1F8082501330C2BB6
:106D3400F1D9054A012105481AF084FE00B908BDBD
:106D440014F034FCFBE700BF196C0200682904004E
:106D5400002869D02DE9F043CFB00646334B1B68B9
:106D640013F4804F03D0324B1B68032B0BDC2F4BE7
:106D74001B6813F4804F03D02D4B1B68032B2ADCB4
:106D84004FB0BDE8F08300230F2B0FD8F25C2949E4
:106D94000D6810095900285C0DAC04F8130002F0CA
:106DA4000F020131AA5C62540133EDE70DAA0023FE
:106DB4008DF8543003F1804303F58833D3F8043558
:106DC40002921D4A01921D4A009241221C4904204C
:106DD40006F0E8FBCBE71B4BD3F80435B288F18807
:106DE400307A747AB57AF77A96F80CC096F80DE092
:106DF40096F80E8096F80F90CDF82C90CDF8288058
:106E0400CDF824E0CDF820C00797069505940490AA
:106E140003910292326801920B4A00924622084979
:106E2400042006F0BFFBABE7704700BF5C2E0020D8
:106E3400582E0020602E0020DC290400F0290400D4
:106E4400CA29040000100140F829040072DF7047C9
:106E540073DF704774DF70472DE9F047A2B007462F
:106E640088469146314C0026C4F80660E6813049D4
:106E74000B78C3EB43102F4D054425602E4A024482
:106E8400A2601F22A280A281013303F001030B70D0
:106E94004FF03C0A5246314613A81BF017F806235C
:106EA4008DF84F30ADF8487001238DF84A30ADF8B5
:106EB4005C3012AA1892ADF83C70ADF84090CDF851
:106EC40044800DEB0A021D928DF87830524631460B
:106ED40068461AF0FBFF02238DF80030221D294674
:106EE40013A813F0D3FC90B9104B03F10C0299686A
:106EF400684613F0CBFC68B9104A0C491048FFF7F8
:106F0400A5FF082809D070B922B0BDE8F08714F0B5
:106F14004DFBE9E714F04AFBEEE700220349084879
:106F2400FFF794FFEFE714F041FBEDE7583300203F
:106F3400143300201833002068330020B02D0020C3
:106F4400AC2D002088B1B0F5202F06D2094AA2FB4F
:106F54000023DB0803D1012302E04FF6FF739BB249
:106F6400054A9381044B99607047034B00229A8130
:106F7400F8E700BFCDCCCCCCB02D002008B5012162
:106F8400054B1878FFF764FF18B9002005F010F8D6
:106F940008BD14F00BFBF8E7AC2D002008B5044B3A
:106FA4001878FFF757FF00B908BD14F0FFFAFBE7A4
:106FB400AC2D002076DF70477ADF70477CDF7047A6
:106FC40008B514F0F3FA08BD08B504F02DF908BDAE
:106FD40000B583B0037823B1012B0BD003B05DF867
:106FE40004FB3B214088FFF7E5FF0028F6D014F0AE
:106FF400DDFAF3E7094B1B6813F4804FEED0084B1E
:107004001B68032BEADD074BD3F80435064A0092CC
:1070140068220649042006F0C5FADFE75C2E00204A
:10702400582E002000100140C42A0400AA2A04009B
:1070340000B583B013F0FEFD68B90023019301A9E4
:10704400012013F02FFD48B901A813F07DFD40B9CC
:1070540003B05DF804FB14F0A9FAEEE714F0A6FA05
:10706400F2E714F0A3FAF3E700B585B09DF80C300D
:10707400012262F3030362F307138DF80C3010222C
:107084000F4903A8FFF79AFF98B90023ADF8083019
:107094007823ADF80430C823ADF806304FF4C87334
:1070A400ADF80A3001A8FFF787FF28B905B05DF8ED
:1070B40004FB14F07BFAE8E714F078FAF6E700BF73
:1070C400382A040000B58BB00023ADF808307822CC
:1070D400ADF80420C822ADF806204FF4C872ADF80C
:1070E4000A200693079301AB039340F6CD43049320
:1070F4004FF48033059303238DF81830064B08931F
:10710400064B099303A813F07BFF10B90BB05DF88D
:1071140004FB14F04BFAF9E7D56F0200C56F0200C7
:107124000620704700B587B041F2010398424CD065
:1071340020D944F2010398425DD044F202039842FC
:1071440074D1464B1B6813F4804F1ED0444B1B680C
:10715400002B1ADD434BD3F8043510880390526892
:1071640002920191404A00926C224049012006F0AB
:1071740019FA0AE0012859D1384B1B6813F4804FDF
:1071840003D0374B1B68002B12DC4FF0A0434FF4A5
:10719400C052C3F81825C3F80C25EFF3108372B658
:1071A4004DF6AD6C324B1B78002B54D030BFF9E751
:1071B4002C4BD3F80435029201912E4A009260229E
:1071C4002A49012006F0EEF9DFE7244B1B6813F48B
:1071D400804FDAD0224B1B68002BD6DD214BD3F82D
:1071E400043502920191244A009263221F4901202E
:1071F40006F0D8F9C9E7194B1B6813F4804FC4D0C3
:10720400174B1B68002BC0DD164BD3F804351068F0
:10721400049050680390029192680192174A009278
:1072240077221249012006F0BDF9AEE70B4B1B682B
:1072340013F4804FA9D00A4B1B68002BA5DD094B22
:10724400D3F8043501910E4A00927B2207490120AC
:1072540006F0A8F999E707B05DF804FB5C2E00205E
:10726400582E002000100140A02B04004E2B0400D7
:10727400C82D0020602B04007C2B0400C02B0400CC
:10728400E42B040000B583B00023ADF80030054BB7
:1072940001936A46014644F20200FFF743FF03B03C
:1072A4005DF804FB642D040030B583B00446164D2C
:1072B400AB6898472B6998472B6A6BB16B6A5BB1D3
:1072C400220C8DF80420220A8DF805208DF8064042
:1072D400032101A898470BE00B4DEB69C4F3074069
:1072E4009847EB69C4F307209847EB69E0B29847E5
:1072F400054CA3699847054663699847E36898472E
:10730400284603B030BD00BFCC2D002070B582B03C
:1073140004460E46164DAB6898472B69984744F0CF
:1073240004046B6AA3B1220C8DF80420220A8DF8A0
:1073340005208DF806408DF8076004210DEB01004F
:1073440098470B4C63699847E368984702B070BD4F
:10735400EB69C4F307409847EB69C4F307209847E7
:10736400EB69E0B29847EB6930469847E9E700BF1C
:10737400CC2D0020F0B583B004460E4615461B4FB5
:10738400BB6898473B6998473B6AC3B17B6AB3B112
:10739400220C8DF80420220A8DF805208DF8064071
:1073A400032101A89847114B1B6A29463046984788
:1073B4000E4C63699847E368984703B0F0BD0B4FE0
:1073C400FB69C4F307409847FB69C4F30720984757
:1073D400FB69E0B298470024AC42E9D2034B9B69B5
:1073E400984730550134A4B2F6E700BFCC2D0020F5
:1073F400F0B583B004460E4615461A4FBB6898474D
:107404003B69984744F004047B6AB3B1220C8DF8BD
:107414000420220A8DF805208DF80640032101A8D6
:107424009847104B5B6A2946304698470D4C636970
:107434009847E368984703B0F0BDFB69C4F307407D
:107444009847FB69C4F307209847FB69E0B2984763
:107454000024AC42EAD2034BDB69305D9847013427
:10746400A4B2F6E7CC2D00207047704770477047F0
:107474000078704701707047002070477047000023
:1074840020B119B1044A106151617047024B034A9B
:107494001A61034A5A617047CC2D002071740200AE
:1074A40073740200084B1B8813F4007FFAD020B1D8
:1074B40019B1054B9861D9617047034B034A9A612E
:1074C400034ADA61704700BFCC2D00207D740200AE
:1074D4008174020000B587B0062201A94FF4106040
:1074E400FFF748FF042205A94FF48070FFF742FF1D
:1074F400042204A94FF4A060FFF73CFF042203A96F
:107504004FF47060FFF736FF80210020FFF7FEFE86
:107514000020FFF7C9FE062201A94FF41060FFF70F
:1075240067FF042205A94FF48070FFF761FF04226E
:1075340004A94FF4A060FFF75BFF042203A94FF4F2
:107544007060FFF755FF07B05DF804FB70B50546A2
:107554000E46FFF7BFFFCDB100221346072B07DC11
:10756400E95C0A4452B2102A2FDC01335BB2F5E71E
:10757400002409E0A0000130C000295D00F5F850A6
:10758400FFF7C4FE013464B2072CF3DD5EB10022C0
:107594001346072B09DCF15C0A4452B2102A17DCAB
:1075A40001335BB2F5E700200EE0002409E0A000FF
:1075B4000130C000315D00F5F050FFF7A7FE013443
:1075C40064B2072CF3DD002070BD4FF0FF30FBE701
:1075D4004FF0FF30F8E710B5040A00F0F0014FF463
:1075E400A850FFF793FE21464FF4B850FFF78EFEE4
:1075F40010BD10B54FF4A850FFF756FE00F0F0048C
:107604004FF4B850FFF750FE80B2000280B220441D
:1076140080B210BD10B5040AC1B24FF4B050FFF7E8
:1076240075FE21464FF4C050FFF770FE10BD10B533
:107634004FF4B050FFF738FE04464FF4C050FFF744
:1076440033FE80B2000280B210FA84F080B210BD22
:1076540008B54FF43850FFF727FE10F0010F01D0A2
:10766400012008BD0020FCE708B54FF43850FFF7AF
:107674001BFE10F0300F01D0012008BD0020FCE7F4
:1076840008B54FF43850FFF70FFE00F07F014FF4B8
:107694003850FFF73BFE4FF43850FFF705FE60F01B
:1076A4007F01C9B24FF43850FFF730FE08BD08B56A
:1076B4000378012B0CD000214378012B0AD0C37826
:1076C400012B10D08378012B06D141F0100103E087
:1076D4004021F1E741F038014FF43850FFF716FE2E
:1076E400FFF7CEFF08BD8378012B02D041F00801DB
:1076F400F2E741F01801EFE710B504464FF43850B3
:10770400FFF7D2FDC0F38013237000F03800202867
:1077140004D0382802D00023637001E00123637091
:10772400182806D0202804D0102802D00023A370E3
:1077340001E00123A370182806D0202804D00828CB
:1077440002D00023E37001E00123E37010BD10B503
:1077540004464FF43850FFF7A7FD10F0400F24D033
:1077640000F0C700012C12D040F038014FF438501B
:10777400FFF7CCFDFFF784FF4FF43850FFF794FD7B
:10778400012C07D010F0380F0CD0002010BD40F0B1
:107794003001EBE710F0300F01D00020F6E74FF096
:1077A400FF30F3E74FF0FF30F0E74FF0FF30EDE745
:1077B40030B583B00C460023009301930F2809D8F9
:1077C400DFE800F00B0F1D1822272C3949575B60A6
:1077D400796569714FF0FF306EE0FFF77BFE0020A2
:1077E4006AE011B100910834019401990098FFF7FF
:1077F400ADFE61E00888FFF7EEFE00205CE0FFF7D5
:10780400F8FE2080002057E00888FFF703FF0020DF
:1078140052E0FFF70CFF208000204DE00988090AA0
:107824004FF49850FFF772FD21784FF4A050FFF702
:107834006DFD002040E04FF49850FFF735FD85B210
:107844002D02ADB24FF4A050FFF72EFD15FA80F0D3
:107854002080002030E01C4B9A780A70DA784A7055
:107864001A798A705A79CA709B790B710020487111
:1078740022E0FFF705FF00201EE00846FFF717FF90
:10788400002019E00846FFF737FF002014E00878CD
:10789400FFF75DFF10E0FFF7E7FEC0B2FF280DD051
:1078A4002070002008E0FFF7D3FEC0B2FF2808D004
:1078B4002070002000E0002003B030BD4FF0FF3006
:1078C400FAE74FF0FF30F7E7CC2D002010B504465F
:1078D400062201464FF41060FFF78AFD042204F1EA
:1078E4000E014FF48070FFF783FD042204F10A01B6
:1078F4004FF4A060FFF77CFD0422A11D4FF47060DB
:10790400FFF776FDA27C064B1A70E27C5A70227D4A
:107914009A70627DDA70A27D024B1A7010BD00BFAE
:10792400A8330020A633002010B5044606220146E1
:107934004FF41060FFF71EFD042204F10E014FF412
:107944008070FFF717FD042204F10A014FF4A060D0
:10795400FFF710FD0422A11D4FF47060FFF70AFD2C
:10796400064B1A78A2745A78E2749A782275DB78F6
:107974006375034B1B78A37510BD00BFA8330020AB
:10798400A633002030F03A030BD110B50446002092
:10799400FFF78AFC2043C1B20020FFF7B7FC0020A8
:1079A40010BD4FF0FF30704708B50020FFF77CFC96
:1079B40008BD10B5044601784FF4D850FFF7A6FC73
:1079C4006188090A4FF4C850FFF7A0FCA1784FF46E
:1079D400D050FFF79BFC10BD38B505464FF4D85086
:1079E400FFF762FC28704FF4C850FFF75DFC84B2C7
:1079F4002402A4B24FF4D050FFF756FC14FA80F0DE
:107A0400688038BD10B50C46052821D8DFE800F0A1
:107A140003080D11161B0846FFF758FF002010BD80
:107A24000846FFF781FF0020F9E70878FFF7AAFF6F
:107A3400F5E7FFF7B9FF20700020F0E70846FFF7ED
:107A4400B8FF0020EBE70846FFF7C6FF0020E6E793
:107A54004FF0FF30E3E70000024B4FF40072C3F82D
:107A64000C25704700030050024B4FF40072C3F81A
:107A7400082570470003005000B583B00DF10702DC
:107A84000121002000F054F99DF8070003B05DF8CF
:107A940004FB00B583B08DF807000DF10702012146
:107AA400002000F02DF903B05DF804FB10B586B09A
:107AB4001E4C21460120FFF7A5FF04A90820FFF76B
:107AC40077FE04A91A481AF08BF9E37822796179D0
:107AD400029101920093A3786278217815481AF0F4
:107AE4007FF9637A0093237AE279A17912481AF034
:107AF40077F9637C0093237CE27BA17B0F481AF027
:107B04006FF9637B0093237BE27AA17A0C481AF025
:107B140067F9637D0093237DE27CA17C09481AF018
:107B24005FF909481AF07CF906B010BDF42D002065
:107B3400442C04005C2C0400842C0400982C0400C5
:107B4400AC2C0400C02C0400D42C040010B5074C49
:107B540021460020FFF756FFA37D022B02D0FFF73A
:107B6400A5FF10BD02481AF03BF9FAE7F42D0020F6
:107B7400182C040010B586B0324B01AC0FCB84E84E
:107B84000F00314BB0221A704FF08052D2F8A4107B
:107B9400090A5970D2F8A410090C9970D2F8A410EB
:107BA400090ED970D2F8A8101971D2F8A820120AB7
:107BB4005A7126492648FFF763FC26492648FFF7F1
:107BC40071FC26481AF02CF921460120FFF7F0FD3C
:107BD400B0F1FF3F03D022481AF022F914E0214803
:107BE4001AF01EF9FEE79DF817101F481AF0F8F86E
:107BF40032244FF47A401D4B43F001039847013C73
:107C0400F7D19DF817305BB90DF117010F20FFF77D
:107C1400CFFDB0F1FF3FE6D115481AF001F9E2E7D4
:107C240001238DF800304FF47A73ADF802306846C2
:107C3400FFF7BFFE0F481AF0F3F8FFF787FF06B00F
:107C440010BD00BF002C0400F42D00206D7A02004A
:107C54005D7A0200977A02007D7A0200EC2C04001F
:107C64001C2D0400002D0400582D0400102C0400C9
:107C74003C2D0400682D0400054B0022C3F840216C
:107C84000122044B1A70044B19781A701B78704740
:107C940000B00140AC330020AD33002010B584B0F7
:107CA400144B6C460FCB84E80F0008238DF800308A
:107CB40007238DF8013028238DF8023000228DF837
:107CC400052003218DF80C104FF0805302930A4BCA
:107CD400C3F824174FF40071C3F80C15134621465A
:107CE400064813F09DFC08B904B010BD13F05EFC07
:107CF400FAE700BF882D040000030050982D04000B
:107D040082B100B585B00092012301930022029252
:107D140003926946054813F0A7FE28B9012005B06F
:107D24005DF804FB002070470020F8E79C2D040058
:107D34008AB100B585B013460022009201920293E5
:107D4400012303936946064813F08EFE28B90120E7
:107D540005B05DF804FB002070470020F8E700BF81
:107D64009C2D0400024A136801331360704700BF5E
:107D7400B0330020064B074AC3F81025064AC3F85F
:107D84001825064A402111600122C3F804237047D4
:107D940000600040010F0100030B130000E100E04C
:107DA40008B5064BD3F8003103B908BD034B0022D4
:107DB400C3F8002100F060F8F7E700BF006000405E
:107DC4004FF0A0430322C3F82C27C3F83027C3F88D
:107DD40034274FF48052C3F80C254FF40052C3F8F3
:107DE4000C2570474FF0A0430022C3F83C27032220
:107DF400C3F838274FF48042C3F80C2570470000BD
:107E04000C4B0D4AC3F810250C49C3F81415A1F501
:107E140080410439C3F81019C3F8202502F5FA5239
:107E24000432C3F82425443AC3F818290522C3F8B8
:107E34000425704700F00140006100400CA00040A0
:107E440008B5034B0022C3F84021FFF78BFF08BDA0
:107E540000900040064B1B68181A064B984206DA3D
:107E64000028B8BF4042C0F5F41000F59060704798
:107E7400B8330020C0BDF0FF70B5104E3568104C0B
:107E8400D4F84405FFF7E6FF281A0E4D2860D4F80D
:107E940044150D4819F0A4FF29680C4819F0A0FFF7
:107EA4000B4A1368013313602B683360094B0122BA
:107EB4001A70D4F84425084B1A6070BDBC330020F6
:107EC40000800040B4330020A82D0400C02D04001D
:107ED400C0330020C4330020B833002010B403465C
:107EE400044C006859689A68DB680FC45DF8044B59
:107EF400704700BFC83300200B4B0C4A92E80300C4
:107F040083E8030003F10802094903C982E8030076
:107F1400DA79042161F30712DA711A7A022161F322
:107F240087121A72704700BFC83300206000001027
:107F3400A400001000487047C833002000231F2B02
:107F440009D8074901EBC30000224280426001F8CE
:107F540033200133F3E7034B00221A60704700BF5C
:107F6400D8330020D834002030B405460F4B1B68AA
:107F740000240AE01F230E4A12F83300A0B102EBDA
:107F8400C3025288AA4207D001341F2C0BD85A1EB0
:107F9400002BEFD01346EEE7054A02EBC30252680A
:107FA4008A42F1D100E0002030BC7047D834002070
:107FB400D833002030B40A4A13680A4C04EBC305D2
:107FC40068806960012104F833100B441360202B8E
:107FD40001D030BC7047134600221A60F9E700BF95
:107FE400D8340020D8330020C0F30C038B4204D2D1
:107FF400C91A0144A1F500507047C91A08447047D2
:10800400C37D002B42D083780A7802F0800203F00B
:108014007F0313430B7002780B7803F07F0343EA6A
:10802400C2130B700378002B41D030B44378082B73
:1080340014BF002201224B7803F07F0343EAC213EA
:108044004B70858803F08003C5F3861423434B707B
:108054008A7802F0030242EA8502D2B28A708579F4
:1080640002F0FC02C5F3C10422438A70CB7803F00A
:108074001F0343EA4513DBB2CB70C27903F0E0037C
:1080840002F01F021343CB7030BC704783780A7828
:1080940002F0BF029B0103F0400313430B70C2784C
:1080A40003F0C00302F03F0213430B70B3E77047C1
:1080B4000023032B22D810B402E00133032B19D878
:1080C400C3EBC30214010E4A224492F84820012A49
:1080D400F3D10B4A2244948AC2899442EDD1C3EB72
:1080E400C3021401064A224492888A42E5D1044814
:1080F400204400E000205DF8044B704700207047E6
:1081040048350020002300E00133032B14D8C3EBCF
:10811400C3021101094A0A4492F84820022AF3D101
:10812400064A0A44918A828A9142EDD1C3EBC30381
:108134001A01024810447047002070474835002057
:1081440008B90420704708207047000038B5054678
:108154000C46CB695B78C370CB691B7883F0010351
:108164008370CB694362087B022814D0FFF7E8FFD1
:108174006870E27A32B9A18AC0F10F03994201DC36
:10818400082833D0A18A0346C0F10F00814207DCDE
:1081940052B3012205E0164B987DFFF7D1FFE7E7C4
:1081A40001222A7062B1A28A13440B33114A82FB62
:1081B4000312DB17C3EB6203013BEB710023AB71CA
:1081C4000023EB7505F10C0294E8030082E8030038
:1081D400A2692A622289AA82A27AAA75226AAA625A
:1081E40085F82C30184638BD0022DAE70720FAE774
:1081F40030350020ABAAAA2A30B403460C460978CD
:10820400817000214162A1680B2903D8217B09B345
:10821400012100E0012119700020587029B1A168E2
:108224000731C9080139D97198710121D97503F150
:108234000C0504F1100103C985E80300E189998262
:10824400A1691962217F9975617F83F82C109A6264
:1082540030BC70470021DEE70021174B1B688B42BE
:1082640027D90023154A02EBC10252689A421ED94B
:1082740010B40FE060685DF8044B704701310E4B99
:108284001B688B4211D900230C4A02EBC1025268CD
:108294009A42F3D9094A52F8312002EBC30412F886
:1082A40033208242E6D00133EEE70020E3E70131D8
:1082B400D3E70020704700BFDC340020E034002006
:1082C40070B58CB006460D4614462C22002101A838
:1082D40019F0FCFD0F238DF80430ADF808604FF061
:1082E400000365F300038DF80A308DF80B4001A8F4
:1082F40001F0E6F80CB070BD30B58DB005460C4603
:108304002C22002101A819F0E1FD10238DF804307E
:1083140002958DF80C4001A801F0D2F80DB030BDE3
:1083240000B58DB010B913F1020F06D1074B1868D0
:1083340004F066F80DB05DF804FB01228DF804200A
:10834400029301A801F0BCF8F0E700BFE834002074
:108354002DE9F041054688460378BBB10D4B1C68F6
:10836400621C1A6004F00704AB8A0B4F07EBC406C7
:108374007380A988A869FFF737FE7060EB6903F082
:108384000103737007F83480BDE8F0817846FEF786
:1083940079FFE3E72C350020EC34002070B5064665
:1083A40003784BB1B58A347F04F00104B188B06915
:1083B400FFF71AFE002304E07846FEF763FFF1E7B7
:1083C4000133072B15D80C4A02EBC30252688242D0
:1083D400F6D1094A02EBC3025288AA42F0D1064AF6
:1083E40002EBC3025278A242EAD1034800EBC30075
:1083F40000E0002070BD00BFEC340020F8B5154645
:108404001C460E684A68D1F808C0CF68E66022614D
:10841400C4F814C0A7610E694A69E6612262037850
:10842400DB092370E27D2AB3027802F07F02A27096
:10843400002262709BB143789B0103F4FE5382785F
:1084440043EA9203A3808378DB0003F01803C27825
:1084540043EA5213A371C37803F01F03E3710023AB
:1084640063622B78052B1AD82B780F4AD35C84F8D7
:108474002C30F8BD0278C2F38012A270027802F0A8
:108484003F02E27043B190F90120002A02DB04228A
:108494006270CFE70822FBE704226270CAE77846DD
:1084A400FEF7F0FEE0E700BF042E040070B50C46B2
:1084B4001E460378B3B104252A44A26000F10C03DC
:1084C4002360836A636090F82C3023730023637302
:1084D400204604F0F9FA034610B9226915443560C0
:1084E400184670BD0125E7E72DE9F0418EB00D4631
:1084F40016461C46804600282DD0002D2FD0002C77
:1085040031D0636A0233059304F10C00A378002B85
:108514002DD00121627801AF3B46082A14BF002206
:10852400012204F0B2F80697CDF81C80B2B2ADF87F
:1085340020200B9515440C9563788DF83430237BFB
:10854400022B16D00023ADF8283005A804F095F8C6
:108554000EB0BDE8F0817846FEF794FECDE778468C
:10856400FEF790FECBE77846FEF78CFEC9E70221C2
:10857400D0E723692BB1236909931023ADF8283080
:10858400E3E77846FEF77EFEF5E72DE9F04186B095
:1085940004460D46C37D002B3CD0082605FB06F897
:1085A400E379AB4238D0A5716B46324601A9204627
:1085B400FFF77CFF074648BB4DB994F8533033B9F5
:1085C400A369C3F30C03A380012384F85330E37D30
:1085D4007BB994F8523063B91DBBB4F84A10627881
:1085E40023468A1AE16E0846FFF77EFF012384F8CA
:1085F400523005992046FFF703FDE16E32464144AF
:10860400009819F03AFC01A804F07DFA384606B047
:10861400BDE8F0810C26C1E7B4F84A60A6EB080671
:10862400C1E77846FEF72EFED7E770B505460E463D
:1086340009B100230B6095F85040002104E0631C4D
:1086440085F850300134E4B2EB79A34210D3EA6CDC
:108654000123A3401A42F5D121462846FFF795FF8E
:10866400014628B9002EEAD0336801333360E6E7C7
:10867400084670BDF0B587B045781544C37D7BB11D
:108684000B239D4224D816460F4604466B462A46C1
:1086940001A9FFF70BFF054620B1284607B0F0BD3E
:1086A4000F23EEE705992046FFF7AAFCE37D43B1CB
:1086B40032463946009819F0E0FB01A804F023FA89
:1086C400EBE72346324600993846FFF70DFFF4E7FF
:1086D4000925E2E710B5044690F84830012B0CD187
:1086E40003F082F8237B012B0BD0094BD96801449A
:1086F40004F1300003F040F810BD7846FEF7C2FDE7
:10870400EEE7A37D024AD168126902FB0311EEE78A
:108714003035002030B583B0002403E02846FFF74D
:10872400D9FF0134032C19D8C4EBC4031A010C4B30
:10873400134493F84830012BF3D100230193C4EB85
:10874400C4021301064D1D4401A92846FFF76DFF1D
:108754000428E3D0019B002BE3D0DFE703B030BD56
:108764004835002038B5044690F84830022B09D12A
:10877400064B1D6803F038F8411904F1300002F08B
:10878400FBFF38BD7846FEF77DFDF1E7303500206C
:1087940038B5044690F84830022B10D10A4B5D7D61
:1087A4005A689B6803FB052503F01EF8411904F180
:1087B400500002F0E1FF012384F8683038BD7846A8
:1087C400FEF760FDEAE700BF3035002038B5044607
:1087D400C06E08F002F804F13005284602F0E9FF03
:1087E40070B994F84830022B0ED070220021204634
:1087F40019F06CFB002084F8480002F02DF838BD15
:10880400284602F0A1FFECE704F15005284602F0E7
:10881400D0FF0028E9D0284602F096FFE5E710B51E
:1088240004460121FFF794FD2046FFF7CFFF10BD5A
:1088340010B58CB0044690F84830012B0CD10123BC
:108844008DF80430636D029301A800F039FE2046D0
:10885400FFF7BCFF0CB010BD7846FEF713FDEEE742
:1088640030B585B00D460446A8B100212046FFF777
:108874006FFD2946606DFFF73FFD2046FFF7A6FF19
:108884000F4B1B6813F0040F03D00E4B1B68032B14
:1088940005DC05B030BD7846FEF7F4FCE5E70A4B8D
:1088A400D3F8043594F8482002950192074A0092BF
:1088B40040F2EF120649042004F074FEE9E700BF19
:1088C4005C2E0020582E002000100140702E040061
:1088D400642E040008B508460021FFF7C1FF08BD57
:1088E40008B5037B012B02D0FFF7A2FF08BD0121CD
:1088F400FFF7B6FFFAE7000008B590F8513053B11E
:10890400013B80F85130002380F85030034B186845
:1089140003F076FD08BDFFF7E3FFFBE7E834002032
:1089240010B50C4691F84830012B03D12046FFF7CF
:10893400E3FF10BD7846FEF7A5FCF7E7062951D101
:1089440070B582B003460178890101F4FE51407884
:108954009D78DC78240444EA05641D7944EA0524FE
:108964005B791C4341EA90011046FFF7A1FB0546E1
:10897400B8B1C66C2643C66444B3037853B3EB79E9
:108984005A1C01239340013B9E4227D0002185F8C5
:1089940050102846FFF749FE2846FFF79BFE02B019
:1089A40070BD114B1B6813F0040FF8D00F4B1B68FC
:1089B400012BF4DD0E4BD3F804350E4A009240F23D
:1089C400A7520D49022004F0EDFDE8E70321FFF76B
:1089D40047FFE4E77846FEF755FCD0E72846FFF763
:1089E40027FFDCE7704700BF5C2E0020582E0020D4
:1089F40000100140942E0400642E04002DE9F0437D
:108A040089B080460F4614461E46957825B9FFF76F
:108A140095FF09B0BDE8F0832846FFF71DFC8146A9
:108A24000028F6D08DF80050236A0693A38AADF887
:108A34000E3004AB04F10C0292E8030083E8030057
:108A4400A37D8DF81C30CDF80480029723788DF82F
:108A54000C3094F82C308DF81D3031466846C847E8
:108A6400D7E700002DE9F04706460F4690464B1E17
:108A7400DBB2012B0FD8B8F5C07F10D80024032C2B
:108A84001AD8C4EBC4031A01314B134493F8483089
:108A94004BB10134F3E77846FEF7F4FBEBE7784695
:108AA400FEF7F0FBEAE7DFF8A8A015465544404678
:108AB40007F08FFEE86600E0002585B3EB6E002B1F
:108AC40044D033462A4606F1300ED3F800C05C6821
:108AD4009868D968C2F800C054609060D1601033BF
:108AE40010327345F1D10023EB64A5F84A80B188B4
:108AF400B069FFF779FAA861012F13D06FF0010371
:108B0400AB62002385F86830124BAB652D66124BBF
:108B1400AB632D64012001F09FFE85F84870284660
:108B2400BDE8F0870D4B1B7D85F85130002385F897
:108B3400523085F8533085F85030B36A6B656FF066
:108B44000103AB62064BAB632D64E3E70025E6E764
:108B54004835002009940200D988020030350020ED
:108B640025890200F0B5C7B046781644C37D2BB101
:108B74004FF48073B3427ED3002303E04FF4C073F9
:108B8400F8E70133032B19D8C3EBC30425013C4C8C
:108B94002C4494F84840012CF3D1394C2C44A58A38
:108BA400848AA542EDD1C3EBC3042501344C2C4483
:108BB400E589C489A542E4D1082455E014460F464A
:108BC40032460121FFF74EFF0546002855D02246C4
:108BD4003946C06E19F051F90023459345A928463A
:108BE400FFF723FD044608B1042840D1459B7BB917
:108BF400244B1B6813F0040F35D0234B1B68032B45
:108C040031DDB5F84A70802F28BF8027002313E098
:108C14002846FFF75FFDEBE7EA6ED25C1B490C6860
:108C240010095900265C04A800F8136002F00F0232
:108C34000131A25C42540133BB42EDD304AA0023A8
:108C440002F8173003F1804303F58833D3F8043571
:108C540002920F4A01920F4A009240F2D1420E4909
:108C6400042004F09FFC0024204647B0F0BD2846B1
:108C7400FFF7ACFDF8E70924F6E70424F4E700BFA6
:108C8400483500205C2E0020582E0020602E002045
:108C9400C42E0400F0290400642E040000B585B03D
:108CA40000238DF80F3098B10346084602330B6059
:108CB4000DF10F0103F0E5FC9DF80F3043B10D4BAE
:108CC4001B6813F0040F03D00B4B1B68032B04DC4D
:108CD4009DF80F0005B05DF804FB084BD3F804358C
:108CE400074A009240F2A6320649042004F05AFCD6
:108CF400EEE700BF5C2E0020582E0020001001403B
:108D0400D42E0400642E04002DE9F0438FB00446F1
:108D14000E4615461F46D0F81890037823B1818873
:108D24004846FFF761F9A06104F10C00A378002B19
:108D34003AD0012162780DF128084346082A14BF6D
:108D44000022012203F0A1FCC4F81890CDF8088099
:108D540003966378EA1A92B2ADF81020324408926E
:108D640007978DF824300023ADF81830237B022BAD
:108D74001CD0A3786BB3237B022B1BD02546002386
:108D840045F8243F2A46E178206A0EF0B7FA606A73
:108D940098B101A9FFF782FF00283AD12A46E17869
:108DA400206A0EF0ABFAF2E70221C3E71023ADF814
:108DB4001830DEE723690593E0E7237B022B2CD1EF
:108DC40004F10C01E0890EF047FB0028D3D1052003
:108DD40020E000236362237B012B0DD02146002376
:108DE40041F8243FA08A0EF0A6FA01A9606AFFF7B1
:108DF40055FFA0B905200DE004F12401E0890EF02F
:108E04009AFA01A9606AFFF749FF0028E6D000201A
:108E140000E000200FB0BDE8F0830520FAE7002051
:108E2400F8E7000070B5F0B00D4614461E4610ABCE
:108E34000A4601462046FFF767FFA0B11F4B1B6897
:108E440013F0040F37D01E4B1B68052B33DD1D4B6D
:108E5400D3F804351C4A009240F219621B490620DB
:108E640004F0A0FB27E003AB01228DF80C20A28ABA
:108E7400ADF80E20002204928DF8142010AA069258
:108E84006278AD1AADF81C5008AA93E8030082E892
:108E940003000AAB04F10C0292E8030083E8030028
:108EA400A37D8DF83830236A0C93636A0D930F9673
:108EB40005A800F005FB70B070BD00BF5C2E00205B
:108EC400582E0020001001400C2F0400642E0400D2
:108ED40010B5D47D14B1FFF791FD10BDFFF7A2FFCB
:108EE400FBE770B504460D461646808A01F0D4FFB0
:108EF40001281AD1237BD3B1022B0BD094F916305D
:108F0400002B16DB237853B1324629462046FFF75F
:108F140029FE0BE02369002BF0D1102006E0324635
:108F240029462046FFF7A6FB00E0102070BD102064
:108F3400FCE70720FAE7000010B54FF4E0720021C7
:108F4400134818F0C3FF05F08DFD0024114B1C607D
:108F540040222146104818F0B9FF104B104A1A60FD
:108F6400104A5A604CF250329A600F49D9601A6123
:108F740004221A759C7508225A750C4803F020FACD
:108F84000B4B18600B4B1C600B4805F06FFE10BDBB
:108F9400483500202C350020EC34002030350020EA
:108FA40080969800F049020020A107005D9102001C
:108FB400E8340020DC3400202583020008B505F0E5
:108FC400C9FC08BDC0B110B58CB004460369B3B187
:108FD400C369B3B18369B3B101466846FFF7B6F814
:108FE400034610B118460CB010BDA28A2169684628
:108FF400FFF777FF0346F5E70E23184670470E2365
:10900400F0E70E23EEE70E23ECE7D0B110B58CB0F9
:1090140004464268BAB18269BAB1027C022A16D007
:10902400BAB190F90020002A15DB0A4601466846C9
:10903400FFF7E2F8A26861686846FFF752FF0CB0D8
:1090440010BD0E2070470E20F9E70E20F7E7102020
:10905400F5E71020F3E70720F1E70000037B012B7D
:1090640001D00020704730B58DB001AC00230293CD
:10907400CDF80B308288C2F386158DF80450920027
:109084008DF805200A0E8DF806200A0C8DF80720AD
:109094000A0A8DF808208DF809100622069201228A
:1090A4008DF82020828AADF8222009938DF81030A3
:1090B4000594026A0A928DF81C30C389ADF81E30FB
:1090C40090F82C308DF82D30837D43B98DF82C30F9
:1090D4006FF0010104A8FFF798FF0DB030BD024BFB
:1090E4005B7D8DF82C30F3E73035002038B590F8EF
:1090F4004830022B00D038BD90F86830022BFAD1EA
:109104000446C16CFFF7AAFF0028F4D1002384F8B9
:109114006830E56C237853B1E3795A1C01239340FA
:10912400013B9D42E7D12046FFF779FBE3E7784610
:10913400FEF7A8F8F0E7000010B5002407E0C4EB40
:10914400C402130103481844FFF7D0FF0134032C71
:10915400F5D910BD4835002008B5FFF7DBFAFFF755
:10916400EBFF012008BD00002DE9F04182B0074665
:109174000E46144698461046FEF7C4FF054620B135
:10918400A28883889A4210D312D82046FFF706F9A2
:10919400B8B103784BB123787BB1E1794B1C012141
:1091A400994001392046FFF759FF02B0BDE8F0812C
:1091B4000521FFF755FB0025E7E77846FEF762F83F
:1091C400EBE7002D56D05F4B1B6813F0040F04D05F
:1091D4005D4B1B68032B00F385802846FFF7C2FA1A
:1091E4002B7B012B00F08C80EA6CA17901238B404E
:1091F4001A42DAD11343EB64A279EB799A4200F074
:109204008880E37D002B00F08F800823B34240F078
:109214008D80EB6EA079E27D002A00F08C8008241A
:109224003246394604FB003018F027FEEC6C2B78EC
:10923400002B00F08280EB795A1C01239340013B00
:109244009C42B2D1022385F86830E96C2846FFF7C6
:1092540005FF044643462A46B5F84A10E86EFFF770
:1092640037FE002CA1D1002385F868302846FFF78B
:10927400D6FA9AE7E279531CE17DE9B1082202FBB0
:1092840003F2D9B14FF4807393421AD22D4B1B6869
:1092940013F0040F89D02C4B1B68002B85DD2B4B5E
:1092A400D3F8043501922A4A009240F23632294911
:1092B400012004F077F978E70C22E0E74FF4C0735B
:1092C400E2E702212046FFF7CDFB054600287FF4A4
:1092D4007AAF00212046FFF7C1FE02210020FFF7EC
:1092E4000BF862E7194BD3F80435A27901921A4AB4
:1092F400009240F251321749042004F053F96CE70C
:1093040095F86830002B7FF46FAF2846FFF740FADA
:109314006AE79BB2E27D2AB1082203FB0263A5F847
:109324004A3076E70C22F8E70C236FE7042128463D
:10933400FFF796FA39E70C2472E77846FDF7A2FFA7
:1093440079E700BF5C2E0020582E00200010014059
:10935400E82E0400642E0400FC2E04002DE9F041E4
:109364008EB000284AD00546002A49D098461446B3
:109374000E4600220C920D920CA960880EF06CF837
:1093840020B9002738460EB0BDE8F0812269E168B3
:10939400208905F013FB08B10027F3E72269E1688F
:1093A400208905F0DFFA0746C8B96B4642462146D4
:1093B4002846FFF723F803AB0EAA12E9030083E85B
:1093C400030002F085FF9DF8003083B143466A46EE
:1093D400311F281DFFF7C8FE02F0BEFFD2E7216946
:1093E400002201F001012089FEF76AFFCAE7434623
:1093F4006A46711E681CFFF76BFDEDE70E27C1E797
:109404000E27BFE710B50C4691F84830022B0BD15C
:10941400022384F86830E16C2046FFF71FFE10B980
:10942400002384F8683010BD7846FDF72BFFEFE782
:10943400F8B500B30546164B1F68F7B90E463C460F
:10944400B4420ED205EBC4035B68CBB115F834000B
:1094540010F0800F16D1B8B1FEF7FEFEB0B901349A
:10946400EEE70C4B43F8375003EBC7035E607B1CFD
:10947400074A136002E00E2700E004273846F8BDCF
:109484000E27FBE70B27F9E70F27F7E70F27F5E789
:10949400DC340020E0340020084B196861B110B5B9
:1094A40004E0064803F0E7FF214624B10C680B7979
:1094B400002BF9D0F5E710BD704700BF0C37002032
:1094C40038B5054630B1104B1C68ACB10F4B0122C6
:1094D4001A7004E07846FDF7D5FEF4E724683CB141
:1094E4002379002BFAD154F8043C28469847F5E731
:1094F400064B1B78022B00D038BDFFF7CDFF034B82
:1095040000221A70F8E700BF0C370020083700204B
:1095140010B5044630B100232372211D034803F023
:109524007FFF10BD7846FDF7ADFEF4E70C37002051
:1095340010B5044658B10A4B1B78013BDBB2012B32
:1095440009D8074B02221A700123237210BD7846F2
:10955400FDF798FEEFE7211D024803F08CFFF5E7C5
:10956400083700200C3700200A8883689B5A073389
:109574009BB223F0030313449BB20288043A934240
:1095840000D900230B80704710B582B0044683686D
:10959400C91AADF806100DF10601FFF7E5FFBDF895
:1095A4000630A068184402B010BD0088043880B2A8
:1095B400704743888268D018D15201238370704762
:1095C400826800239370438083807047073189B297
:1095D40021F0030189B2428883889A4204D29B1AFB
:1095E40099421EDC0020704710B59A420FD90488B6
:1095F400A41AA14217D98B4217D3032C03D9836829
:10960400134404229A7000234380184604E08268BD
:1096140013449B780BB1042010BDFFF7D1FF002049
:10962400FAE7042070470020F6E70420F4E738B591
:1096340004460D468368828813448B4202D07846E0
:10964400FDF720FE0023AB70211D2046FFF78CFFA1
:10965400A288A36813449B78042B00D038BD002350
:10966400A380FBE710B50C468368428813448B4201
:1096740002D07846FDF706FE0023A37010BD70B536
:10968400064615460C46002944D0002E46D0B4F1B7
:10969400005F08D94FF08053D3F80C3103F5002351
:1096A400B4EB832F0ED3B4F5000F08D94FF08053D9
:1096B400D3F80C3103F50053B4EB832F02D378466F
:1096C400FDF7E0FD6B1E2344B3F1005F08D94FF0B2
:1096D4008052D2F80C2102F50022B3EB822F0ED374
:1096E400B3F5000F08D94FF08052D2F80C2102F5DF
:1096F4000052B3EB822F02D37846FDF7C3FD042D4D
:1097040010D9358000237380B380B460043D258074
:10971400A37070BD7846FDF7B5FDB6E77846FDF752
:10972400B1FDB4E77846FDF7ADFDEAE738B5044688
:10973400A0B16288A36813449B78012B12D0EFF385
:10974400108572B6A388A16819448B78032B0DD0B9
:109754002046FFF735FF05B962B638BD7846FDF7F8
:1097640091FDE6E77846FDF78DFDE8E72046FFF733
:109774000BFFA368C31A638000238370EBE72DE912
:10978400F0410E4615460446D0B1EEB16288A36896
:1097940013449B78012B1BD025B32046FFF705FF0C
:1097A400A84221D3EFF3108872B629462046FFF76A
:1097B4000DFF074680B1B8F1000F16D162B614E070
:1097C4007846FDF75FFDE0E77846FDF75BFDDDE7F2
:1097D4007846FDF757FDDFE729462046FFF7E9FE07
:1097E4003060E8E7092700E009273846BDE8F08142
:1097F400F8B50C4616460546E0B1FCB1A378012B3A
:1098040020D12388B34221D326B3EFF3108772B655
:1098140026800223A370E9182846FFF7A5FE6B886B
:10982400AA88934203D0AA68134400229A7007B905
:1098340062B6F8BD7846FDF725FDDEE77846FDF70C
:1098440021FDDBE77846FDF71DFDDAE77846FDF7F5
:1098540019FDD9E77846FDF715FDD6E770B50D4635
:10986400044690B1ADB1EFF3108672B6A288A36836
:1098740013449A78042A10D09A78022A15D0032A1D
:1098840018D0052006B962B670BD7846FDF7FAFC1B
:10989400E8E77846FDF7F6FCE5E7211D2046FFF7EB
:1098A40063FEA288A3681344E6E703229A702B6040
:1098B4000020E7E77846FDF7E5FC0020E2E738B54D
:1098C400044680B1EFF3108572B6A088A168014404
:1098D4008B78042B0BD08878022814BF0020012039
:1098E40005B962B638BD7846FDF7CCFCEAE72046F8
:1098F400FFF74AFE0146EEE738B5044678B1EFF3C8
:10990400108572B6A088A16801448878C31EDBB2B2
:10991400012B08D82046FFF737FE0146F5E77846C5
:10992400FDF7B0FCEBE7022814BF0020012005B9C5
:1099340062B638BD70B50C46064678B194B1EFF303
:10994400108572B6A378012B10D0032B13D12146B6
:109954003046FFF76CFE05B962B670BD7846FDF778
:1099640091FCEBE77846FDF78DFCE8E721463046AD
:10997400FFF778FEEFE77846FDF784FCEBE710B5D8
:10998400EFF3108472B68388816819448B78042BB2
:1099940006D08878B0FA80F0400904B962B610BDE8
:1099A400FFF7F2FD0146F4E708B5064B986800227C
:1099B4001A605A609A60DA601A615A619A6104F016
:1099C400D9FD08BD1037002000B585B00A4BDB680F
:1099D40002228DF8002001934FF480530293074A2A
:1099E4006946012001F06EF918B9012005B05DF84F
:1099F40004FB0020FAE700BF103700202C370020BA
:109A040000B585B00A4B1B6802228DF80020019333
:109A14004FF480530293074A6946012001F052F93A
:109A240018B9012005B05DF804FB0020FAE700BF77
:109A3400303700202C370020164BDA68137951791F
:109A44005B1A03F57F2303F6FF7302EB03339A4299
:109A540005D002F580520F4BDA600320704700B541
:109A640085B00D4B1B6801208DF8000001930B4B52
:109A74000393042302930A4A694601F023F918B1B7
:109A8400002005B05DF804FB024B01221A76022087
:109A9400F7E700BF103700203037002034370020AC
:109AA4002C37002000B585B00C4BDA680C4B1B68D2
:109AB400043301208DF800000192039340F6FC73F7
:109AC4000293084A694601F0FDF818B90120034BD6
:109AD400187600E0002005B05DF804FB1037002084
:109AE400303700202C37002000B585B00A4B1B68A6
:109AF40001208DF800000193084B03930423029383
:109B0400074A694601F0DEF818B9012005B05DF88E
:109B140004FB0020FAE700BF303700201C37002088
:109B24002C37002010B584B0104BDA681478104B31
:109B34001B68043301208DF8000001930392029402
:109B44000C4A694601F0BEF868B9094B1B6804F079
:109B5400FC041C440434054B5C61D9680A780A444B
:109B64001A61012000E0002004B010BD103700206D
:109B7400303700202C37002008B50023092B09D8E2
:109B8400064A52F82320824201D00133F6E7044A00
:109B9400536002E07846FDF775FB08BD382F0400DA
:109BA4001037002010B5214BDB6853B11F4B1B7ECF
:109BB4005BB91E4B5B68092B26D97846FDF762FB1F
:109BC40022E07846FDF75EFBF0E77846FDF75AFBA6
:109BD400EFE7164A536801335360092B21D97846BD
:109BE400FDF750FB1DE0114B00225A6019E00F4BAA
:109BF4001B7E1BB10D4B02221A7012E0FFF7D4FE3C
:109C04000FE00A4B1B7E83B9084B5A68084B53F884
:109C14002230984704460228E9D00328E3D00128DB
:109C2400D7D0012CEDD0032CEBD010BD1037002081
:109C3400382F0400104B1B681B685A1E12F1030FC7
:109C440018D8C3F30B020AB10020704710B50B4AB1
:109C5400D36000231376537601241470936008486C
:109C6400FFF78AFF0749204601F01AF8FFF79AFF29
:109C7400204610BD002070473037002010370020E8
:109C8400CD9902008D9C020008B50B78032B06D0F9
:109C94000B4B1B78012B06D0022B0BD008BD084BB5
:109CA40000221A76F4E7064B1B7E002BF6D1FFF751
:109CB40079FFF3E70B78032BF0D1FFF775FEEDE79F
:109CC4001037002000B585B0174BDB6818784FF6C5
:109CD400FF7203F58051184404F07EFFF0B1024690
:109CE400114BD9680B780B44984219D00E4B5B7E0C
:109CF40093B10E4B01208DF80000019203930423CD
:109D040002930B4A694600F0DDFF58B90120064B67
:109D1400187605B05DF804FB064BEBE70120F8E785
:109D24000120F6E70020F4E710370020BC310400DE
:109D34002C370020B831040008B5104BDB681878C4
:109D4400002203F58051184404F046FF08B10120B5
:109D540008BD0A4BDA68137951795B1A03F57F233E
:109D640003F6FF7302EB03339A4205D002F58052E7
:109D7400024BDA600320EBE70220E9E7103700200A
:109D8400F0B585B0514BDD686A792B79591E8A424A
:109D940014D005F580510C780C444D490968081D10
:109DA4000E7906449B1A05EB03356388013B9BB28D
:109DB40047F6FE62934260D927461BE00120434BDD
:109DC40058767EE07846FDF75DFA16E027F47F6367
:109DD40023F00F0303F580531A7813449D4247D9A7
:109DE4009C4247D25A88013A92B21F4647F6FE6116
:109DF4008A4210D93B88002BE4D03B8807EB8303CD
:109E040023F47F6222F00F029342DFD07A88B2F506
:109E1400FE4FE3D1DAE71C462FE07846FDF732FA2D
:109E240016E027F47F6323F00F0303F580531A78B9
:109E340013449D4220D99C423BD25A88013A92B2A3
:109E44001F4647F6FE618A4210D93B88002BE4D0B6
:109E54003B8807EB830323F47F6222F00F029342D3
:109E6400DFD07A88B2F5FE4FE3D1DAE71C4604E08E
:109E7400002402E0002400E00024E4B1144B19683B
:109E8400628801F58051304604F0A6FE064690B182
:109E940001200E4B18768DF8000001940D4B0393AE
:109EA400042302930C4A694600F00CFF58B9274674
:109EB400CBE70024E1E7B4FA84F46409034B5C764D
:109EC400012005B0F0BD0020FBE700BF10370020E3
:109ED40030370020B43104002C3700202DE9F04144
:109EE40086B0644B1B6923B1624B5B692BB10027BD
:109EF40048E07846FDF7C6F9F6E77846FDF7C2F97B
:109F0400F5E77846FDF7BEF917E028F47F6323F000
:109F14000F0303F580531A7813449E421FD99C42C1
:109F240021D25A88013A92B2984647F6FE618A4293
:109F340013D9B8F80030002BE3D0B8F8003008EBA0
:109F4400830323F47F6222F00F029342DDD0B8F83A
:109F54000220B2F5FE4FE0D1D7E71C4600E0002412
:109F64001CB1009438E00024FAE700230093019B1D
:109F7400002B5AD10127002C76D0628847F6FF7354
:109F84009A4271D0002F73D13A4B5A6922F47F65FB
:109F940025F00F05AD1A05F580551C69DE68337987
:109FA40072799B1A06EB0336002301936388013B05
:109FB4009BB247F6FE629342D3D9A046B9E77846EE
:109FC400FDF760F923E024F47F6424F00F0404F522
:109FD4008054237823441C46A642C8D92388019A76
:109FE40002EB83029542C2D9009B634023F47F6352
:109FF40023F00F03002BBAD16388013B9BB247F6D1
:10A00400FE618B42B3D801922388002BD7D02388DA
:10A0140004EB830323F47F6222F00F029342D2D035
:10A024006288B2F5FE4FD6D1CDE7124A52690120BB
:10A034008DF808000392009A059204930E4A02A92F
:10A0440000F040FE70B90B49019B23F003024B69F9
:10A0540013444B6114B1074B1C618CE77846FDF740
:10A0640011F9F8E7002000E0012006B0BDE8F08116
:10A074000120FAE7103700202C37002008B54FF0F4
:10A0840010235B69B3F1FF3F09D04FF010235B69E4
:10A094002BB14FF010235B69A3F5805305E04FF01B
:10A0A40080525169136903FB01F3A3F58053024AFB
:10A0B4001360FFF7BFFD08BD3037002010B504461C
:10A0C400B0B1104B1B78BBB10E4BD968E36858791B
:10A0D400A3EB0032914211D31A79121A02F57F22AE
:10A0E40002F6FF7203EB0233994209D8012004E01F
:10A0F4007846FDF7C7F8E4E7002010BD0020FCE730
:10A104000020FAE710370020024B1878003018BFFF
:10A11400012070471037002010B504460E4B1B7801
:10A1240093B92378032B13D10B4B9C60E268DA605C
:10A1340000225A601A76012018705A76074900F0F6
:10A14400AFFDFFF72FFD10BD7846FDF79BF8E8E75C
:10A154007846FDF797F8E7E7103700208D9C02005A
:10A16400014B1868704700BF3037002010B5044613
:10A1740080B163681BB123680BB1A36813B9784637
:10A18400FDF780F8A3685A1E134207D10023E36049
:10A19400236110BD7846FDF775F8EAE77846FDF7C8
:10A1A40071F8F3E770B5F0B104468368EBB1EFF3EF
:10A1B400108572B60369C068834210D008462168CE
:10A1C4006268A668013E334003FB021108B117F030
:10A1D40054FE2369013323614DB962B608E005B921
:10A1E40062B6052504E00E2502E0092500E00025FD
:10A1F400284670BDC0F30B033BBB41B301F6FF71AE
:10A20400090B144B0222C3F80425124BD3F8003473
:10A21400002BFAD0002202E000F5805001328A427D
:10A2240008D20C4BC3F808050A4BD3F80034002BB2
:10A23400FAD0F1E7074B0022C3F80425054BD3F805
:10A244000034002BFAD000207047102070470920FA
:10A25400704700BF00E0014010F0030F2FD111F050
:10A26400030F2FD182B312F0030F2FD110B4920831
:10A27400174B0124C3F80445154BD3F80034002BC5
:10A28400FAD002E0043004312246541E52B10B6865
:10A29400B3F1FF3FF6D003600D4BD3F80034002B2D
:10A2A400FAD0EFE70A4B0021C3F80415084BD3F8A2
:10A2B4000034002BFAD010465DF8044B704710228E
:10A2C400104670471022FBE70922F9E70922F7E755
:10A2D40000E001404388012B05D0022B01D104305A
:10A2E40008600120704704304860FAE708B5082286
:10A2F4000221084803F0AFFF38B1074A9168416072
:10A30400127B027203F0E0FF08BD044804F00AF96E
:10A31400FAE700BF403700208C3700201C2E0020B5
:10A324000E4B1B78CBB910B50D4B5C6804F500548B
:10A33400B4F1807F00D910BD04220121094803F043
:10A344008AFF30B14460054A0121117003F0BCFF5B
:10A35400F1E7054804F0E6F8EDE77047A037002080
:10A364008C370020403700200C2E002010B5044606
:10A3740008B1A04710BD7846FCF784FFF9E7000058
:10A3840008B501210C4803F0C7FF20B902210A488F
:10A3940003F0C2FF28B1094804F0C4F8FFF7C0FF76
:10A3A40008BD074A0023136053609360D3601361B0
:10A3B400044A1370F2E700BF403700203C2E00200F
:10A3C4008C3700206437002000B58DB00B4B1B7B0D
:10A3D400012B0ED0094A926804928DF8083003903C
:10A3E40002238DF8043001A8FFF76AF80DB05DF878
:10A3F40004FB024A9268013A0492EEE78C3700208B
:10A4040010B58CB00C4682B94B88012B20D1134B6C
:10A414001B7833B16268124B5A60104B00221A70D9
:10A4240016E07846FCF72EFFF4E7032A12D12C221B
:10A43400002101A817F04AFD11238DF8043003947C
:10A44400084BDA6805921B69069301A8FFF738F8F0
:10A454000CB010BD7846FCF715FFE8E7A0370020E4
:10A464008C3700204037002000B583B001F030FF66
:10A474000021009101916B46134A144803F0E0FD5A
:10A48400009B63B1019A52B1186811498860187928
:10A49400087393420BD950B900220A600AE00C4BAE
:10A4A40000221A609A601A73FFF720FF02E0126814
:10A4B400074B1A60064B1A685A60FFF731FF01F028
:10A4C4004BFF03B05DF804FBD9A202004037002023
:10A4D4008C37002008B504F079F8A0F5805008BD49
:10A4E40000B587B000230093019302930393049370
:10A4F4000593FFF7EFFF009001230193064B0393AD
:10A504006946064803F0BFFF10B907B05DF804FBC5
:10A51400034804F007F8F8E705A4020040370020D8
:10A524002C2E002010B50B4B00241C605C609C603A
:10A53400DC601C6101F058F9074B5860074A9A60C7
:10A54400074ADA601C615C61064B1C70FFF7C8FFA8
:10A5540010BD00BF8C3700206837002099A6020088
:10A5640000879303A137002008B5084B1B7803B17B
:10A5740008BD0748074B036000F04EFE064801F093
:10A58400BDF8024B01221A70F2E700BF3C370020ED
:10A5940080370020C1A702006837002010B501F001
:10A5A40097FE164B1B7B0BBB144B9B7B1BBB134BAC
:10A5B4001A8A41F282639A4204D8114B1B782BB158
:10A5C400012300E001231BB9082410E00023FAE76B
:10A5D4000A4B01221A7300241C829A6801329A6081
:10A5E400FFF784FE2046FFF7EFFE00E0082401F0A9
:10A5F400B3FE204610BD0824F9E700BF8C370020C5
:10A60400A137002010B501F063FE204B5B7B9BB1AA
:10A614001E4B9B7BF3B91D4B1A8A41F282639A420B
:10A6240004D81B4B1B782BB1012300E001239BB101
:10A63400012302E00023FAE700231C460BB3134B6B
:10A6440000225A731B7B4BB1012B0ED07846FCF7CA
:10A6540019FE16E00023F0E70023EEE7FFF79EFF64
:10A6640078B17846FCF70EFE0BE0084B002018602A
:10A67400586018731882FFF7A7FEFFF737FEFFF73D
:10A684004FFE01F069FE204610BD00BF8C3700204C
:10A69400A137002008B5214B1B7B7BB1012B20D0B7
:10A6A4007846FCF7EFFD1D4A138A013313821B4BD6
:10A6B4005B8A13B1013B194A538208BD174B1A8AAE
:10A6C40041F282639A4204D8154B1B783BB10123B3
:10A6D40000E00123002BE6D0FFF794FFE7E7002317
:10A6E400F8E70E4B1B8A41F28262934204D80C4A6B
:10A6F400127872B1012200E00122002AD3D042F282
:10A70400B012934207D9054B01225A73FFF77AFF1F
:10A71400CDE70022F1E7FFF775FFC4E78C3700208F
:10A72400A137002010B5244B1B7B002B35D10446E8
:10A73400214B5B8A2BBB1AB91F4B9B688B4205D3F9
:10A74400FAB11D4B9B6801338B421AD21A4B9B689A
:10A754002A338B4223D3184B9B7B03BB164B996044
:10A7640000221A605A601A8242F6065159825A73BC
:10A774001A73FFF7BBFDFFF7D3FD2046FFF724FE56
:10A784000DE062B10C4B9B6801338B4207D10A4B3D
:10A7940001225A73FFF736FF01E0012B00D010BDF0
:10A7A400002AFCD1044B9B688B42F8D1024B012256
:10A7B4005A73FFF727FFF2E78C3700200378042B46
:10A7C40000D0704743681B78002BFAD010B584681A
:10A7D400027E437E012A14BF00220122416904F152
:10A7E4001000FFF79FFF10BD10B5184B1A685B6887
:10A7F4009A4226D20446154B1B7B012B14D0144BD2
:10A804009A4213D2114B1A685B68403B9A4215D2A4
:10A81400EFF3108172B60D4A1368581C1060236060
:10A8240001B962B6002010BD0A4BE9E7074B0122CB
:10A834005A73FFF7E7FE0028EAD1E3E7FFF770FD5C
:10A84400E6E7FFF76DFD0F20EDE700BF8C37002032
:10A85400FFFF7F0000E0FF0008B538B10D4B012277
:10A864009A730D4A13680133136008BD0A4B1B68C1
:10A874005BB1094A1368013B1360002BF5D1054B0A
:10A8840000229A73FFF7BEFEEFE77846FCF7FAFC66
:10A89400EFE700BF8C3700203837002000B58DB0BB
:10A8A400ADF808008DF81020039103238DF80430CF
:10A8B40001A8FEF705FE0DB05DF804FB014B986896
:10A8C400704700BF8C370020054B1B7B012B02D047
:10A8D400034B98687047024B98680138704700BF73
:10A8E4008C370020044B9B68584010F0010F00D0B7
:10A8F400013B1846704700BF8C370020014B187B82
:10A90400704700BF8C37002038B50B4B1B780BB158
:10A91400082038BD084B01221A70084DA86029731D
:10A92400FFF7E4FC0020FFF74FFD00242C606C606F
:10A93400FFF7F6FC2046ECE7643700208C37002054
:10A944002DE9F041002722E02449BC2303FB04F352
:10A95400CA5A0132CA520221404602F0D2FB0136E1
:10A964000221404602F09DFB70B11C4ABC2303FB4C
:10A9740004239D68002DE7D0BC2303FB04F3D25AC3
:10A9840001463846A847DFE796B90137FFB2022FE0
:10A9940020D83C46BC2303FB07F308330F4D1D446A
:10A9A40005F104080221404602F07BFB0026DBE7A8
:10A9B4000021404602F00DFC0828E6D1074BBC22DA
:10A9C40002FB0434A368002BDFD00022044938467C
:10A9D4009847DAE70120BDE8F08100BFAC370020DA
:10A9E400602F040008B5082383731023437300F118
:10A9F4001C0343610323037300F1180303610C3048
:10AA040002F0B9FB08BD000008B50378012B06D09D
:10AA1400022B06D07846FCF735FC002002E0292002
:10AA240000E0014808BD00BF084C010008B50278E9
:10AA3400012A07D0022A13D07846FCF723FC4FF4EE
:10AA4400FA7308E083685B1A9B0803EB830003EB4B
:10AA5400C00303F5FA730748984228BF184608BD97
:10AA640083685B1A180B044B03FB00F303F5FA73BA
:10AA7400F1E700BF60850100084C010038B50446C9
:10AA840001210C3002F00DFB054678B1084BC4F8E7
:10AA94009C300023C4F8A0306168FFF7C7FFC4F8F6
:10AAA400A800C4F8AC40012384F8B830284638BD67
:10AAB400D5AB020010B50446FFF7E0FF20B104F166
:10AAC4009C000DF063FA00B910BD7846FCF7DAFB80
:10AAD400FAE70000F8B506460C46174615680378F1
:10AAE400012B18D11249A1FB043149098900B4682A
:10AAF400641B8C4200D30C468CB1706825F00305AE
:10AB0400F168224629442844FFF7A6FB58B93B685C
:10AB14001C443C60F8BD7846FCF7B4FBE2E7784699
:10AB2400FCF7B0FBE9E77846FCF7ACFBEFE700BFC6
:10AB34007D0CCEC7F8B507460C4616461568037853
:10AB4400022B16D1114BA3FB04231B0C1B03BC6863
:10AB5400641B9C4200D31C467CB1786825F0030535
:10AB640021462844FFF746FB58B933681C44346037
:10AB7400F8BD7846FCF786FBE4E77846FCF782FBF1
:10AB8400EBE77846FCF77EFBEFE700BFEB0661C519
:10AB940038B505460C4611462378012B06D0022B06
:10ABA4000FD07846FCF76EFB002304E0021D20461C
:10ABB400FFF790FFA3686868984214BF0020012043
:10ABC40038BD021D2046FFF7B5FFA368F3E7000078
:10ABD4002DE9F8438846D1F8A860234B1B7863B964
:10ABE4000546A6F5FA7601F10C090121484602F062
:10ABF40058FA074640B1002424E00DF003FA00237C
:10AC040088F8B830BDE8F8837846FCF73BFBF2E7F8
:10AC14000DF0F8F90121484602F073FA0023C8F850
:10AC2400043088F8B830114B186801F0E9FB40464D
:10AC3400FFF740FFE6E72C1A3846FFF7E5FE20440D
:10AC4400B0420BD8321B39464046FFF7A1FF00281B
:10AC5400DED101F015FA441BEED5ECE70DF0D2F984
:10AC64004046FFF727FFCDE7A8370020A437002090
:10AC740010B5084801F0A4FB074B18600024022C0F
:10AC840007D8064BBC2000FB0430FFF7ABFE0134B1
:10AC9400F5E710BD45A90200A4370020AC37002019
:10ACA40038B504460D46022805D8054BBC2202FBE4
:10ACB4000434A56038BD7846FCF7E4FAF5E700BF34
:10ACC400AC3700202DE9F84306460C461746022807
:10ACD40016D8CCB12378012B1AD0022B3ED163684D
:10ACE400C3F30B03002B31D1A368C3F30B03002B75
:10ACF40030D1A368002B34D17846FCF7C3FA30E096
:10AD04007846FCF7BFFAE4E77846FCF7BBFAE1E7DC
:10AD1400636813F0030F0DD1E36813F0030F0DD133
:10AD2400A36813F0030F0DD1A368D3B97846FCF7D9
:10AD3400A9FA16E07846FCF7A5FAEDE77846FCF7A1
:10AD4400A1FAEDE77846FCF79DFAEDE77846FCF7C3
:10AD540099FAC9E77846FCF795FACAE77846FCF70A
:10AD640091FAEFF3108872B6BC2505FB06F505F1E0
:10AD740008032A4D1D4404350021284602F091F9A8
:10AD8400814678B30021284602F0BBF92068616847
:10AD9400A268E368C9F80000C9F80410C9F80820DB
:10ADA400C9F80C302FB11D4ABC2303FB06235B8872
:10ADB4003B801A4ABC2303FB06235A8801325A807B
:10ADC40093F8B83083B9164B1B7813B10024A1460D
:10ADD4000CE0124BBC2000FB0630FFF74FFE81460F
:10ADE400002403E0042401E00024A146B8F1000F8C
:10ADF40000D162B6B9F1000F09D0BC2000FB06F601
:10AE040098360648304404300DF0C0F810B9204696
:10AE1400BDE8F8837846FCF735FAF8E7AC3700204C
:10AE2400A837002038B50446EFF3108572B610B980
:10AE3400164B1B6873B18CB1144A13680133136049
:10AE4400124B1B68003318BF0123114A137005B954
:10AE540062B638BD7846FCF715FAECE70B4B1C6874
:10AE6400013C1C6034B1EBE7BC2000FB0420FFF77D
:10AE740021FE0134022CE3D8064ABC2303FB04233D
:10AE840093F8B830002BF4D1EEE700BFE03900208E
:10AE9400A8370020AC37002018B1830B024AD05CDD
:10AEA40070470020704700BF702F040012DF704706
:10AEB40000B583B01378A3B1042B14D0002110F88B
:10AEC400013C163B152B31D8DFE803F05930303004
:10AED4003030303030303030303030303030302E70
:10AEE4000F3A517DEBE70721E9E7022901D0072951
:10AEF4001CD110F8021C013901F06EFEB0B1264BD2
:10AF04001B6813F0400F11D0244B1B68012B0DDD7F
:10AF1400234BD3F804350190224A0092912222490E
:10AF2400022002F03FFB01E0022902D003B05DF8E9
:10AF340004FB10F8021C0139C9B212F0D5FEF5E782
:10AF44000229F3D110F8021C0139C9B203F0C2FD81
:10AF54000028EBD0104B1B6813F0400FE6D00F4BCA
:10AF64001B68012BE2DD0E4BD3F8043501900F4A28
:10AF74000092A4220C49022002F014FBD6E70188B7
:10AF84004FF6E4639942D1D110F8021C0339023020
:10AF9400FCF7C6F8CAE700BF5C2E0020582E00203C
:10AFA4000010014000300400F42F04002C30040091
:10AFB40070B58AB00DF06AFD48B3064600238DF8DB
:10AFC400103005AC05460FCD0FC42B682360727D8D
:10AFD400052A04D9337D03F00F03072B1ED1174B29
:10AFE4001A688AB104AB0393337DC3F303038DF86A
:10AFF4000430737D062B1BD9063B8DF8053006F112
:10B004001D03029301A8904730460DF01FFD0DF07B
:10B0140057FD80F00100C0B20AB070BD307D04ABB2
:10B02400063A06F11D0100F00F000CF0B7FAD6E75E
:10B0340000238DF805300293E4E700BFE8390020CF
:10B044000B4B1B78032B00D0704700B58DB0084B19
:10B0540004221A702C22002101A816F037FF1B23AA
:10B064008DF8043001A8FEF72BFA0DB05DF804FB4F
:10B07400E439002070B582B02E4B1B78002B4FD1E1
:10B08400002851D0067A0F2E01D0062E4ED1044648
:10B0940005F09EFBE06870B1FCF720FF0DF107009E
:10B0A400FFF704FF054600283BD19DF80730012B2C
:10B0B40004D0022535E0FCF71FFFEFE7FCF73EFF65
:10B0C40000F008FB304601F0B1F8E07800F02CF90C
:10B0D40000F0A8FE0CF0E4FE17480DF08DFD0CF016
:10B0E400FDFBFFF7C5FD04F05DFD00F0FBFC05F082
:10B0F4002FFB204601F0D0FC2046FDF71DFF04F095
:10B10400D3F8FCF70DF808B1062811D10B480CF060
:10B1140027FA0B4B00221A60064B01221A7000E03A
:10B124000825284602B070BD0E25FAE70725F8E782
:10B134000546F6E7E4390020B5AF02004C2E0020A6
:10B14400E839002010B582B01E4B1B78012B0DD0BE
:10B154005AB282B3033BDBB2012B2ED80CF006FFAC
:10B16400044658BB174B02221A7027E00DF04CFC22
:10B1740001F0A4FCFDF722FFFBF7D2FF0446B8B1AF
:10B18400062815D0104B1B6813F4804F16D00F4BB4
:10B194001B68012B12DD0E4BD3F8043501900D4AC8
:10B1A400009240F297120C49022002F0FBF905E0EC
:10B1B40001F068F8D2E7082400E00824204602B031
:10B1C40010BD00BFE43900205C2E0020582E002062
:10B1D40000100140742F0400F42F040008B50A4B3A
:10B1E4001B78022B02D00823184608BD064B032205
:10B1F4001A7006480CF076FE03460028F4D0784610
:10B20400FCF740F80023EFE7E439002045B00200E2
:10B2140008B5FDF7D7FE08BD08B5FEF779F908BDF6
:10B2240008B5FEF785F908BD08B500F0C1FD00209A
:10B2340008BD08B506F07EFE08BD0000064A136886
:10B2440001331360B3F1704F02D0034B1868704799
:10B25400134601221A60F8E7EC39002010B50446C1
:10B2640018B100232360636010BD7846FCF70AF828
:10B27400F7E738B50C46054668B184B1002363602E
:10B28400EFF3108372B62A686AB16A6854606C601E
:10B2940003B962B638BD7846FBF7F4FFEDE77846AC
:10B2A400FBF7F0FFEAE72C60F1E710B5044658B16C
:10B2B400EFF3108372B6206808B1426822602268F6
:10B2C40032B103B962B610BD7846FBF7DBFFEFE796
:10B2D4006260F6E710B5044608B1206810BD7846F0
:10B2E400FBF7D0FFF9E735DF70473CDF704700001C
:10B2F40010B504464FF0FF30FFF7F5FF4FF0FF3174
:10B304002046FFF7F2FFBFF34F8F0549CA6802F4E6
:10B31400E062044B1343CB60BFF34F8F00BFFDE7E4
:10B3240000ED00E00400FA05072814D8DFE800F077
:10B33400080C1504110F0A06642070471420704786
:10B34400FA2070471E2070474FF4FA70704732207D
:10B3540070474B207047FA207047962070470000D2
:10B36400024B5868103840B2704700BF00ED00E04F
:10B37400034600280FDB5B11084A52F8233042428F
:10B3840000F01F0002F01F0258BF504223FA00F0E1
:10B3940000F00100704700F11F03ECE700E100E05A
:10B3A40046DF7047F8B504460D464B1EDBB2012B51
:10B3B40009D8002222616261A261E2612046FFF79E
:10B3C400EFFF01200AE07846FBF75CFFF1E7CB7B57
:10B3D4005B00CB73002F14DB0130C0B2A84217D836
:10B3E400214611F9207F00230E2BF0D8CA5CCE1819
:10B3F4005200D2B2767842EAD612CA5401339BB2D2
:10B40400F2E794F82F3083F0870384F82F30E3E7D2
:10B41400F8BD2DE9F04190B084460C4696461F468F
:10B4240002F10F0636111FFA86F804AD0068DCF845
:10B434000410DCF80820DCF80C300FC50EF00F0502
:10B44400B8F1000F02D07DB1002300E0002398463C
:10B4540063B1012104A8FFF7A5FFB8F1000F1AD0CA
:10B46400701E000110230EE00123F0E70221F1E732
:10B47400013B9BB22218D25C10A9194411F8101C8C
:10B484004A400DF80320002BF2D100250C950D95B0
:10B494000E950F9526E0711EADB22A4604EB0111FC
:10B4A400684616F0EAFC80230DF805306B1C03E0B7
:10B4B40000220DF8032001330F2BF9DD10230AE0DD
:10B4C400013B9BB21DF8032010A9194411F8101C6C
:10B4D4004A400DF80320002BF2D1D6E704A8FFF769
:10B4E4005FFF0135731EAB420FDD28011023002BD3
:10B4F400F4D0013B9BB210AA1A4412F8102C211864
:10B50400C95C4A4008A9CA54F1E710230AE0013B88
:10B514009BB210AAD11811F8402C11F8101C4A4003
:10B5240008A9CA54002BF2D104A8FFF739FF0CACC8
:10B534000FCC38607960BA60FB6010B0BDE8F08170
:10B5440010B50446134B1B684BB14068114B1B6884
:10B554005B68C31A002B02DB0E4B19680DE00D4B20
:10B564001A6862611C600B4A938801339BB2938012
:10B5740063B10123237010BD19464B691BB15A688E
:10B58400121A002AF8DB63614C61ECE77846FBF79A
:10B5940079FEEEE7F439002038B505461CE078461C
:10B5A400FBF770FE6369204A13600023636193888C
:10B5B4009BB2591E89B29180F3B1A36803B30223ED
:10B5C4002370A36821692846984700F00DF90546C1
:10B5D4002378DBB2022B17D0134B1B681BB3124B1F
:10B5E4001B685B685B1B642B1DD50F4B1C682378A1
:10B5F400DBB2012BD6D0D2E77846FBF743FEDCE77B
:10B604007846FBF73FFEDAE7E26812B900232370BD
:10B61400E2E76368134463605B1B642BF9D4204640
:10B62400FFF78EFFD8E738BDF439002010B5044683
:10B63400144B1B68834207D0124B1B68D3B15A6961
:10B64400A2420ED01346F9E743690E4A1360938869
:10B654009BB2591E89B2918063B97846FBF712FEFA
:10B6640008E062695A6107498B889BB25A1E92B2FC
:10B674008A8013B10023237010BD7846FBF702FEC5
:10B68400F8E700BFF439002008B5064B1B6833B156
:10B69400044B1B680449586800F054F908BD00F0D5
:10B6A400AFF9FBE7F4390020C9B6020008B500F091
:10B6B4009BF8FFF771FF00F097F8FFF7E5FF012013
:10B6C40008BD000008B5024B186800F099FE08BDDB
:10B6D400F039002008B5064B00221A605A6005486C
:10B6E40000F06EFE044B186000F071F808BD00BF56
:10B6F400F4390020B1B60200F039002010B5044638
:10B7040000F052FF80B19CB1A368ABB12378DBB2E7
:10B71400012B15D0002363612046FFF711FF00F0D1
:10B7240063F8FFF7B1FF10BD7846FBF7ABFDEAE71E
:10B734007846FBF7A7FDE7E77846FBF7A3FDE5E7C7
:10B744007846FBF79FFDE5E710B5044600F02CFFB3
:10B7540050B16CB12046FFF769FF0023636100F02C
:10B7640043F8FFF791FF10BD7846FBF78BFDF0E738
:10B774007846FBF787FDEDE738B504460D4600F043
:10B7840013FF70B18CB12046FFF750FF00236361B3
:10B7940065602046FFF7D4FE00F026F8FFF774FF3B
:10B7A40038BD7846FBF76EFDECE77846FBF76AFD9B
:10B7B400E9E70378DBB2012B07D00378DBB2022B75
:10B7C40001D000207047012070470120704708B560
:10B7D40016F082F900B108BD16F0FCF80028FAD082
:10B7E4007846FBF74FFDF6E770B4EFF3108172B6BD
:10B7F400184B1A68184BD3F80455D3F80431012BAD
:10B8040022D001B962B645EA026500266B01EA0E50
:10B814005B1B62EB0602510241EAD3515802431901
:10B8240041EB0600810141EA93619A01D31A61EB6D
:10B8340000005B1946EB000013F580437041DB0BFD
:10B8440043EA404070BC7047034BD3F804550132BF
:10B85400D7E700BFFC3900200010014010B50A4BA7
:10B864004FF40032C3F84823C3F80823074B1B687E
:10B874002BB1064B1C68FFF7B7FFA04710BD7846F5
:10B88400FBF700FDF5E700BF00100140083A002077
:10B89400EFF3108172B6264B0022C3F80421254A27
:10B8A40013680133136001B962B6234B1B68002B84
:10B8B4003DD0214B1A68013A1A601B68002B36D11F
:10B8C40003F1804303F58833D3F804251B4B1B682D
:10B8D4009A421ED2EFF3108272B6154BD3F8043598
:10B8E4000133164909688B4210D3114BD3F8043540
:10B8F40002330F49C1F8443502B962B60C4B4FF418
:10B904000032C3F84423C3F8042370470B4B1B686D
:10B91400EFE710B50A4B1B682BB1094B1C68FFF706
:10B9240063FFA04710BD7846FBF7ACFCF5E7704712
:10B9340000100140FC390020003A0020043A0020A5
:10B94400083A002030B583B00446002301930D4625
:10B95400002936D0244B1D60FFF746FF031B002B44
:10B9640033DB0023590CD803204C214A002300194F
:10B974004FF0000444EB010116F0B4F8EFF3108328
:10B98400019372B61B4BD3F80435022838BF02204A
:10B99400C3F1FF1202F57F42824218D30344154AD1
:10B9A400C2F844354FF40033C2F84433C2F80433C8
:10B9B400114A1460114A1460019B03B962B603B0C2
:10B9C40030BD7846FBF75EFCC4E7231ACAE703449C
:10B9D40003F17F4301331A0E013207490A6023F051
:10B9E4007F43064A1360E7E7083A002020A10700D6
:10B9F40040420F0000100140003A0020043A0020A9
:10BA0400074B4FF40032C3F84823C3F8082300233C
:10BA1400044A1360044A1360044A1360704700BF69
:10BA240000100140003A0020043A0020083A0020A7
:10BA340030DF704731DF704710B402684368A2EB0F
:10BA44007312846883EAF4330360C1680C4444606D
:10BA5400114481601344C36018465DF8044B704779
:10BA640070B582B00D46064608B100240BE0784656
:10BA7400FBF708FCF9E79DF807103019FFF7DAFF28
:10BA84009DF807301C44A5420DD90DF10700FFF7BE
:10BA9400CFFF9DF80730002BF7D02A1B9342EAD939
:10BAA4008DF80720E7E702B070BD000030B583B021
:10BAB40005460024019404210DEB0100FFF7D0FF9B
:10BAC400074B2B60019B6B60AB60EB6003E0284687
