:020000022000DC
:1060000000F000206D630200556302005763020038
:10601000596302005B6302005D6302000000000040
:106020000000000000000000000000005F630200AC
:106030006163020000000000636302006563020008
:1060400067630200676302006763020049DF0300C1
:106050006763020067630200299002006763020021
:10606000676302003192020079A2030067630200B5
:1060700067630200676302006763020067630200F0
:10608000676302009D3D0400D9E9020067630200D6
:10609000013E0400676302007DD1030067630200D4
:1060A0006763020067630200676302007D7D020090
:1060B0006763020067630200000000000000000048
:1060C00067630200676302006763020067630200A0
:1060D000676302006763020067630200000000005C
:1060E00000000000000000000000000000000000B0
:1060F00000000000000000000000000000000000A0
:10610000000000000000000000000000000000008F
:10611000000000000000000000000000000000007F
:10612000000000000000000000000000000000006F
:10613000000000000000000000000000000000005F
:10614000000000000000000000000000000000004F
:10615000000000000000000000000000000000003F
:10616000000000000000000000000000000000002F
:10617000000000000000000000000000000000001F
:10618000000000000000000000000000000000000F
:1061900000000000000000000000000000000000FF
:1061A00000000000000000000000000000000000EF
:1061B00000000000000000000000000000000000DF
:1061C00000000000000000000000000000000000CF
:1061D00000000000000000000000000000000000BF
:1061E00000000000000000000000000000000000AF
:1061F000000000000000000000000000000000009F
:10620000344935480A1A02D0072291438D46334952
:1062100033480A1A06D00722914381F309880222E3
:1062200082F314882F483049304A00F042F8304851
:106230003049314A00F03DF830483149314A00F0E8
:1062400038F831483149324A00F033F831483249A0
:10625000324A00F02EF832483249334A00F029F829
:1062600032483349334A00F024F833483349002296
:1062700000F02AF832483349002200F025F832486D
:106280003249091A082902DB0022026041601F48D6
:106290001F49884205D00268043003B4904703BC0C
:1062A000F7E700208646EC4600200021284A904768
:1062B000FEE7884207D0521A05D0037801300B70F0
:1062C0000131013AF9D17047884202D002700130A1
:1062D000FAE7704700F0002000E8002000F00020FE
:1062E00000F00020306D0400A02D0020302F002091
:1062F000A4630200A4630200FC4E0400306D04009D
:10630000A02D0020A02D00200850040008500400FB
:10631000085004000850040008500400085004000D
:106320000850040008500400306D0400C06E0400E2
:10633000302F0020302F0020302F0020A8630020B5
:10634000A8630020A8630020A8630020A86700209D
:1063500069690200FEE7FEE7FEE7FEE7FEE7FEE70B
:10636000FEE7FEE7FEE7FEE7704700BF094880470B
:1063700009484FF007018843854608488047084888
:10638000016841F470010160BFF34F8FBFF36F8F5D
:10639000FFF736BF6963020000F00020A9D70300B1
:0463A00088ED00E0A4
:1063A40041DF704730B591B04FF0A0430322C3F8EA
:1063B40034274FF40052C3F80C251DF023FDA8BB6D
:1063C40000F0C6FC00F054FE00F06EFE00F09AFEF1
:1063D4002022002107A81EF097F901238DF81C3014
:1063E40007238DF81F3006238DF82430204B0B93A0
:1063F400204B0F93204907A80CF06CFCD8B91E4B16
:106404001B78EBB10CF0A2FC60BB03F0C3FE00F000
:10641400BFFC00214FF4C05000F046FC0222C8210A
:106424004FF4C05000F04CFC11B030BD134AD621DB
:1064340017F0E2FAC4E7114AE72117F0DDFADEE7C4
:1064440001AC0F4D0FCD0FC495E8030084E80300A1
:1064540001A800F0A5FB0028D4D0084AF52117F0C4
:10646400CBFACFE7054AF72117F0C6FACDE700BF0C
:106474004D6902008D680200362F0020545004003C
:106484000850040010B5044600214FF4C05000F039
:106494000BFC04EB8404620032214FF4C05000F082
:1064A4000FFC10BD08B500F045FC08BD49684A69F9
:1064B400137843B90E4B1B6813F4804F03D00D4B74
:1064C4001B68032B00DC704700B585B00A4BD3F87A
:1064D4000435498892F90D2002920191074A0092ED
:1064E4006E220749042009F077FA05B05DF804FB31
:1064F400942E0020902E0020001001402050040013
:106504009F50040010B584B0B24B1B6813F4804F45
:1065140004D0B14B1B68032B00F3F68000F0C4FDDC
:1065240000F0F0FD03A812F02DF9AA4B1B6813F438
:10653400804F04D0A84B1B68032B00F3F08000F0BD
:10654400F9FB00214FF4C05000F0AEFB0422C82137
:106554004FF4C05000F0B4FB002012F0DBFA9F4B64
:1065640018809C4B1B6813F4804F04D09A4B1B6813
:10657400032B00F3E2809A4B9A4A98490988002039
:1065840012F080FE002840F0E4800CF0FBFB04468F
:1065940095494CF2050012F093F9002840F0DE8092
:1065A40092494CF2050012F0FBF8002840F0DB8021
:1065B4008F494CF2040012F083F9002840F0D8808F
:1065C4008C494CF2040012F0EBF8002840F0D5801E
:1065D4008949012012F0E4F8002840F0D380804B70
:1065E400198820880FF0BEFE002840F0D0807C4B34
:1065F400198820880FF078FF002840F0CD807B4B6D
:10660400198820880FF072FC002840F0CA8001220B
:10661400114620880FF00EFD002840F0C780704B13
:106624001988764B18880FF09DFE002840F0C3802F
:106634006B4B1988714B18880FF056FF002840F0F7
:10664400BF806E4B18880FF071FD002840F0BD80AC
:10665400654B1988694B18880FF0A2FD002840F09B
:10666400DF805F4B1988664B18880FF07BFE00288B
:1066740040F0DB805A4B1988614B18880FF034FFC7
:10668400002840F0D7805E4B18880FF04FFD00289B
:1066940040F0D580564B1988594B18880FF080FD6F
:1066A400002840F0D180534B1988554B18880FF0BF
:1066B4001DFC002840F0CD80494B1988514B1888A7
:1066C4000FF050FE002840F0C980454B19884D4B0F
:1066D40018880FF009FF002840F0C580464B198840
:1066E400484B18880FF002FC002840F0C1800A22B1
:1066F4000121444B18880FF09DFC002840F0BD8018
:106704000EF030FE04B010BD3F4BD3F804353F4AC1
:1067140000928A223E49042009F05EF9FEE63A4BD3
:10672400D3F80435BDF80C2001923A4A0092952220
:106734003749042009F050F901E7334BD3F8043505
:106744000190354A00929C223149042009F044F911
:1067540011E7324A9E2117F04FF916E72F4AA32179
:1067640017F04AF91CE72D4AA42117F045F91FE751
:106774002A4AA52117F040F922E7284AA62117F052
:106784003BF925E7254AA72117F036F927E7234ADD
:10679400A92117F031F92AE7204AAA2117F02CF988
:1067A4002DE71E4AAB2117F027F930E71B4AAC212D
:1067B40017F022F933E7194AAF2117F01DF937E72B
:1067C400164AB02117F018F93BE7144AB12117F023
:1067D40013F93DE7942E0020902E0020482F00202E
:1067E400342F002044500400322F0020302F00208A
:1067F400562F0020542F0020522F0020382F002025
:10680400502F00204C2F002000100140C8500400DD
:106814009F500400E4500400FC5004005450040051
:10682400184AB22117F0E8F81BE7164AB42117F00A
:10683400E3F81FE7134AB52117F0DEF823E7114AFE
:10684400B62117F0D9F825E70E4AB72117F0D4F886
:1068540029E70C4AB82117F0CFF82DE7094ABA21E5
:1068640017F0CAF831E7074ABB2117F0C5F835E736
:10687400044ABC2117F0C0F839E7024ABD2117F0D9
:10688400BBF83DE75450040000B583B0244B1B68AB
:1068940013F4804F03D0234B1B68032B1BDC002114
:1068A40021481CF0A1FF08BB20481CF0DDFE10BBF2
:1068B4001E4B18880FF03AFC10BB1D4A00211D48DE
:1068C4001CF0ECFD08BB1B4B18880FF02FFC08BB19
:1068D40003B05DF804FB184BD3F80435174A009253
:1068E400C5221749042009F077F8D8E7154AC621CC
:1068F40017F082F8D8E7134AC82117F07DF8D7E7D4
:10690400104AC92117F078F8D7E70E4ACB2117F0BF
:1069140073F8D8E70B4ACC2117F06EF8D8E700BF1C
:10692400942E0020902E00204C2F0020502F002069
:10693400B1640200382F002000100140A850040068
:106944009F5004005450040008B503781C2B00D059
:1069540008BD0322C8214FF4C05000F0B1F90CF077
:1069640003FAF5E708B502F013FB194A042146F2CD
:10697400010009F015F802F065FB02F075FB02F066
:1069840015FC02F02BFB02F07DFB01F007FA01F08D
:1069940093F902F089FD02F0F7FC01E002F040FEF9
:1069A40002F0D0FD0028F9D002F006FDFFF7FAFC52
:1069B40005E002F07DFC02F033FEFFF7F1FC02F08B
:1069C400AFFD0028F9D002F0BDFD0028F3D0F0E7B8
:1069D40079F902002B4B1B78002B52D000B585B0FF
:1069E400012804D0032845D005B05DF804FB00233A
:1069F400029302A9012016F06DFA40BB02A816F01A
:106A0400BBFA38BB0123039303A90DF1060012F06E
:106A1400E5FB10BBBDF8060012F07CF80DF1050192
:106A240012F0D2F9E0B90DF03DFC9DF805100020FC
:106A34000DF074FDB8B906F0B5FCC0B9114B0022D5
:106A44001A70114B1B68002BCED09847CCE716F078
:106A5400C5FFD3E716F0C2FFD4E716F0BFFFD9E7AE
:106A640016F0BCFFDFE7784600F02CFCE3E716F0F5
:106A7400B5FFE3E716F0F6FA0028B5D016F0AEFF3E
:106A8400B2E770475A2F00205C2F002008B5064B50
:106A940001221A70054806F0EFFC06F0CFFC00B99D
:106AA40008BD16F09BFFFBE75A2F0020A02D002005
:106AB40008B503781B2B00D008BD074B1B78002BAF
:106AC400FAD016F013FB18B9044806F0D9FCF3E722
:106AD40016F084FFF8E700BF5A2F0020A02D0020F5
:106AE40008B50323002203490969034817F0B6FED9
:106AF40008BD00BF5C2F0020AC31002008B503782E
:106B0400023B082B3FD8DFE803F01C05113E3E2C66
:106B14003E3E36001E4B5B68002B34D0007A0028C2
:106B240031D01C4A0121117098472CE0184B9B6806
:106B34004BB3184A127832B3164A002111709847A1
:106B440021E0154B1B784BB9114BDB681BB1114A83
:106B5400002111709847FFF7C3FF14E0FFF796FF79
:106B640011E010220A4B59690C4817F007FF50B185
:106B740016F034FF07E08168C0680CF059F818B9C2
:106B8400054B01221A7008BD16F028FFF8E700BF74
:106B94005C2F0020582F0020592F0020AC310020FA
:106BA40070B586B00446234A03AB07CA03C323F86F
:106BB400022B120C1A70204E35460FCC0FC594E8E8
:106BC400030085E803007369002B31D01B491C487E
:106BD40017F028FE034610B1184606B070BD194BD5
:106BE400009303AB154A1649174817F0D7FD03461F
:106BF4000028F1D1154819F06DFA0146124817F032
:106C0400F9FD03460028E7D1114819F025FC034695
:106C14000028E1D10E4819F055FC01460A4817F046
:106C2400E9FD03460028D7D1FFF75AFF0346D3E70F
:106C34000723D1E73C5104005C2F0020742F00206F
:106C4400E0320020016B0200AC310020942F0020C0
:106C54005C31002008B5104B1B6873B14FF0A042A3
:106C6400D2F804350D4909684B40C2F804350A4A84
:106C74001368013B136023B108BD002016F0AEFE7B
:106C8400ECE707481DF02AF9064B1A684FF0A043B9
:106C9400C3F80425F0E700BF20330020243300208C
:106CA400283300204833002021B14FF0A043C3F81B
:106CB4000C0570474FF0A043C3F808057047000067
:106CC40072B338B51346132900D838BD154A10607D
:106CD4005B00013B144A13604FF0A043D3F8042532
:106CE400124B1A6000254C0CC8034FF47A7200232F
:106CF40010F5FA7044EB05011DF0FEFA2A46014630
:106D04000B481DF0CDF80028DFD14FF0A042D2F897
:106D140004350449096823EA0103C2F80435D4E7B9
:106D2400704700BF24330020203300204833002064
:106D34002833002008B504481DF0D0F80021034B87
:106D44001868FFF7B1FF08BD283300202433002062
:106D540008B50B230BE04FF0A04103F5E0720320CC
:106D640041F8220001229A40C1F8082501330C2B76
:106D7400F1D9054A012105481DF07CF800B908BD88
:106D840016F02CFEFBE700BF596C020048510400CA
:106D9400002869D02DE9F043CFB00646334B1B6879
:106DA40013F4804F03D0324B1B68032B0BDC2F4BA7
:106DB4001B6813F4804F03D02D4B1B68032B2ADC74
:106DC4004FB0BDE8F08300230F2B0FD8F25C2949A4
:106DD4000D6810095900285C0DAC04F8130002F08A
:106DE4000F020131AA5C62540133EDE70DAA0023BE
:106DF4008DF8543003F1804303F58833D3F8043518
:106E040002921D4A01921D4A009241221C4904200B
:106E140008F0E2FDCBE71B4BD3F80435B288F188C8
:106E2400307A747AB57AF77A96F80CC096F80DE051
:106E340096F80E8096F80F90CDF82C90CDF8288017
:106E4400CDF824E0CDF820C007970695059404906A
:106E540003910292326801920B4A00924622084939
:106E6400042008F0B9FDABE7704700BF942E002062
:106E7400902E0020982E0020A8510400BC5104003C
:106E84009551040000100140C451040072DF7047A2
:106E940073DF704774DF70472DE9F047A2B00746EF
:106EA40088469146314C0026C4F80660E681304994
:106EB4000B78C3EB43102F4D054425602E4A024442
:106EC400A2601F22A280A281013303F001030B7090
:106ED4004FF03C0A5246314613A81DF015FC062318
:106EE4008DF84F30ADF8487001238DF84A30ADF875
:106EF4005C3012AA1892ADF83C70ADF84090CDF811
:106F040044800DEB0A021D928DF8783052463146CA
:106F140068461DF0F9FB02238DF80030221D294636
:106F240013A815F0CBFE90B9104B03F10C0299682D
:106F3400684615F0C3FE68B9104A0C491048FFF7BB
:106F4400A5FF082809D070B922B0BDE8F08716F073
:106F540045FDE9E716F042FDEEE700220349084843
:106F6400FFF794FFEFE716F039FDEDE790330020CB
:106F74004C33002050330020A0330020B02D0020DB
:106F8400AC2D002088B1B0F5202F06D2094AA2FB0F
:106F94000023DB0803D1012302E04FF6FF739BB209
:106FA400054A9381044B99607047034B00229A81F0
:106FB400F8E700BFCDCCCCCCB02D002008B5012122
:106FC400054B1878FFF764FF18B9002007F00AFA98
:106FD40008BD16F003FDF8E7AC2D002008B5044BFE
:106FE4001878FFF757FF00B908BD16F0F7FCFBE768
:106FF400AC2D002076DF70477ADF70477CDF704766
:1070040008B516F0EBFC08BD08B506F03DFA08BD5E
:1070140000B583B0037823B1012B0BD003B05DF826
:1070240004FB3B214088FFF7E5FF0028F6D016F06B
:10703400D5FCF3E7094B1B6813F4804FEED0084BE3
:107044001B68032BEADD074BD3F80435064A00928C
:1070540068220649042008F0BFFCDFE7942E0020D4
:10706400902E0020001001407C5204006152040064
:1070740000B583B015F0F6FF68B90023019301A9A8
:10708400012015F027FF48B901A815F075FF40B994
:1070940003B05DF804FB16F0A1FCEEE716F09EFCCD
:1070A400F2E716F09BFCF3E700B585B09DF80C30D1
:1070B400012262F3030362F307138DF80C301022EC
:1070C4000F4903A8FFF79AFF98B90023ADF80830D9
:1070D4007823ADF80430C823ADF806304FF4C873F4
:1070E400ADF80A3001A8FFF787FF28B905B05DF8AD
:1070F40004FB16F073FCE8E716F070FCF6E700BF3B
:107104000452040000B58BB00023ADF80830782297
:10711400ADF80420C822ADF806204FF4C872ADF8CB
:107124000A200693079301AB039340F6CD430493DF
:107134004FF48033059303238DF81830064B0893DE
:10714400064B099303A816F073F910B90BB05DF858
:1071540004FB16F043FCF9E7157002000570020009
:107164000620704700B587B041F2010398424CD025
:1071740020D944F2010398425DD044F202039842BC
:1071840074D1464B1B6813F4804F1ED0444B1B68CC
:10719400002B1ADD434BD3F8043510880390526852
:1071A40002920191404A00926C224049012008F069
:1071B40013FC0AE0012859D1384B1B6813F4804FA3
:1071C40003D0374B1B68002B12DC4FF0A0434FF465
:1071D400C052C3F81825C3F80C25EFF3108372B618
:1071E4004DF6AD6C324B1B78002B54D030BFF9E711
:1071F4002C4BD3F80435029201912E4A009260225E
:107204002A49012008F0E8FBDFE7244B1B6813F44C
:10721400804FDAD0224B1B68002BD6DD214BD3F8EC
:10722400043502920191244A009263221F490120ED
:1072340008F0D2FBC9E7194B1B6813F4804FC4D084
:10724400174B1B68002BC0DD164BD3F804351068B0
:10725400049050680390029192680192174A009238
:1072640077221249012008F0B7FBAEE70B4B1B68ED
:1072740013F4804FA9D00A4B1B68002BA5DD094BE2
:10728400D3F8043501910E4A00927B22074901206C
:1072940008F0A2FB99E707B05DF804FB942E0020E8
:1072A400902E00200010014044530400F1520400C9
:1072B400C82D002004530400205304006453040028
:1072C4008853040000B583B00023ADF80030054BAB
:1072D40001936A46014644F20200FFF743FF03B0FC
:1072E4005DF804FBE457040030B583B00446164D42
:1072F400AB6898472B6998472B6A6BB16B6A5BB193
:10730400220C8DF80420220A8DF805208DF8064001
:10731400032101A898470BE00B4DEB69C4F3074028
:107324009847EB69C4F307209847EB69E0B29847A4
:10733400054CA3699847054663699847E3689847ED
:10734400284603B030BD00BFCC2D002070B582B0FC
:1073540004460E46164DAB6898472B69984744F08F
:1073640004046B6AA3B1220C8DF80420220A8DF860
:1073740005208DF806408DF8076004210DEB01000F
:1073840098470B4C63699847E368984702B070BD0F
:10739400EB69C4F307409847EB69C4F307209847A7
:1073A400EB69E0B29847EB6930469847E9E700BFDC
:1073B400CC2D0020F0B583B004460E4615461B4F75
:1073C400BB6898473B6998473B6AC3B17B6AB3B1D2
:1073D400220C8DF80420220A8DF805208DF8064031
:1073E400032101A89847114B1B6A29463046984748
:1073F4000E4C63699847E368984703B0F0BD0B4FA0
:10740400FB69C4F307409847FB69C4F30720984716
:10741400FB69E0B298470024AC42E9D2034B9B6974
:10742400984730550134A4B2F6E700BFCC2D0020B4
:10743400F0B583B004460E4615461A4FBB6898470C
:107444003B69984744F004047B6AB3B1220C8DF87D
:107454000420220A8DF805208DF80640032101A896
:107464009847104B5B6A2946304698470D4C636930
:107474009847E368984703B0F0BDFB69C4F307403D
:107484009847FB69C4F307209847FB69E0B2984723
:107494000024AC42EAD2034BDB69305D98470134E7
:1074A400A4B2F6E7CC2D00202DE9F04107460025D3
:1074B4000DE03046FFF718FF85B22D02ADB240460D
:1074C400FFF712FF15FA80F5ADB2A54218D04FEAC6
:1074D400870808F101084FEAC80808F50056304645
:1074E400FFF702FF84B22402A4B208F50458404610
:1074F400FFF7FAFE14FA80F4A4B2002CE5D0D8E722
:107504002846BDE8F0812DE9F041074600250DE04D
:107514003046FFF7E9FE85B22D02ADB24046FFF7D3
:10752400E3FE15FA80F5ADB2A54218D04FEA8708FC
:1075340008F101084FEAC80808F518563046FFF765
:10754400D3FE84B22402A4B208F51C584046FFF7C7
:10755400CBFE14FA80F4A4B2002CE5D0D8E7284678
:10756400BDE8F08102B970472DE9F84315460F468E
:10757400840004F101094FEAC90909F5105840468D
:10758400FFF7B2FE86B23602B6B209F51459484680
:10759400FFF7AAFE16FA80F6B6B2A01CC0002A466F
:1075A400394600EB0620FFF743FF3544ADB2290A04
:1075B4004046FFF7CBFEE9B24846FFF7C7FEBDE8F9
:1075C400F88302B970472DE9F84315460F46840045
:1075D40004F101094FEAC90909F520584046FFF7AB
:1075E40083FE86B23602B6B209F524594846FFF73F
:1075F4007BFE16FA80F6B6B2E01CC0002A46394675
:1076040000EB0620FFF7D6FE3544ADB2290A40460A
:10761400FFF79CFEE9B24846FFF798FEBDE8F88301
:107624002DE9F041884686000136F60006F520571C
:107634003846FFF759FE85B22D02ADB206F5245641
:107644003046FFF751FE15FA80F418FA84F4A4B218
:10765400210A3846FFF77AFEE1B23046FFF776FE9C
:10766400BDE8F081704770477047704700787047F5
:1076740001707047002070477047000020B119B1B5
:10768400044A106151617047024B034A1A61034A6C
:107694005A617047CC2D00206D7602006F7602008F
:1076A400084B1B8813F4007FFAD020B119B1054BA5
:1076B4009861D9617047034B034A9A61034ADA61BE
:1076C400704700BFCC2D0020797602007D76020041
:1076D40000B587B0062201A94FF41060FFF76AFED7
:1076E400042205A94FF48070FFF764FE042204A964
:1076F4004FF4A060FFF75EFE042203A94FF470600C
:10770400FFF758FE80210020FFF720FE0020FFF73E
:10771400EBFD062201A94FF41060FFF789FE042255
:1077240005A94FF48070FFF783FE042204A94FF4E7
:10773400A060FFF77DFE042203A94FF47060FFF7F9
:1077440077FE07B05DF804FB70B505460E46FFF7FB
:10775400BFFFCDB100221346072B07DCE95C0A44C6
:1077640052B2102A2FDC01335BB2F5E7002409E0A2
:10777400A0000130C000295D00F5F850FFF7E6FDD8
:10778400013464B2072CF3DD5EB100221346072BEB
:1077940009DCF15C0A4452B2102A17DC01335BB2F3
:1077A400F5E700200EE0002409E0A0000130C0004D
:1077B400315D00F5F050FFF7C9FD013464B2072CC8
:1077C400F3DD002070BD4FF0FF30FBE74FF0FF30DA
:1077D400F8E710B5040A00F0F0014FF4A850FFF7E1
:1077E400B5FD21464FF4B850FFF7B0FD10BD10B5FC
:1077F4004FF4A850FFF778FD00F0F0044FF4B850B0
:10780400FFF772FD80B2000280B2204480B210BD46
:1078140010B5040AC1B24FF4B050FFF797FD2146EA
:107824004FF4C050FFF792FD10BD10B54FF4B050A7
:10783400FFF75AFD04464FF4C050FFF755FD80B2E0
:10784400000280B210FA84F080B210BD08B54FF483
:107854003850FFF749FD10F0010F01D0012008BD99
:107864000020FCE708B54FF43850FFF73DFD10F059
:10787400300F01D0012008BD0020FCE708B54FF40B
:107884003850FFF731FD00F07F014FF43850FFF717
:107894005DFD4FF43850FFF727FD60F07F01C9B25A
:1078A4004FF43850FFF752FD08BD08B50378012B9B
:1078B4000CD000214378012B0AD0C378012B10D0BF
:1078C4008378012B06D141F0100103E04021F1E758
:1078D40041F038014FF43850FFF738FDFFF7CEFF81
:1078E40008BD8378012B02D041F00801F2E741F092
:1078F4001801EFE710B504464FF43850FFF7F4FCD5
:10790400C0F38013237000F03800202804D03828F6
:1079140002D00023637001E001236370182806D0AD
:10792400202804D0102802D00023A37001E00123F2
:10793400A370182806D0202804D0082802D00023D9
:10794400E37001E00123E37010BD10B504464FF469
:107954003850FFF7C9FC10F0400F24D000F0C700E6
:10796400012C12D040F038014FF43850FFF7EEFCF0
:10797400FFF784FF4FF43850FFF7B6FC012C07D013
:1079840010F0380F0CD0002010BD40F03001EBE7B0
:1079940010F0300F01D00020F6E74FF0FF30F3E78E
:1079A4004FF0FF30F0E74FF0FF30EDE730B583B034
:1079B4000C460023009301930F2809D8DFE800F058
:1079C4000B0F1D1822272C3949575B6079656971A3
:1079D4004FF0FF306EE0FFF77BFE00206AE011B14C
:1079E40000910834019401990098FFF7ADFE61E01D
:1079F4000888FFF7EEFE00205CE0FFF7F8FE208029
:107A0400002057E00888FFF703FF002052E0FFF74B
:107A14000CFF208000204DE00988090A4FF498509B
:107A2400FFF794FC21784FF4A050FFF78FFC00205F
:107A340040E04FF49850FFF757FC85B22D02ADB2E9
:107A44004FF4A050FFF750FC15FA80F0208000207E
:107A540030E01C4B9A780A70DA784A701A798A7086
:107A64005A79CA709B790B710020487122E0FFF7A4
:107A740005FF00201EE00846FFF717FF002019E06D
:107A84000846FFF737FF002014E00878FFF75DFF92
:107A940010E0FFF7E7FEC0B2FF280DD020700020F1
:107AA40008E0FFF7D3FEC0B2FF2808D02070002002
:107AB40000E0002003B030BD4FF0FF30FAE74FF094
:107AC400FF30F7E7CC2D002010B50446062201460E
:107AD4004FF41060FFF7ACFC042204F10E014FF4E4
:107AE4008070FFF7A5FC042204F10A014FF4A060A2
:107AF400FFF79EFC0422A11D4FF47060FFF798FC71
:107B0400A27C064B1A70E27C5A70227D9A70627DC8
:107B1400DA70A27D024B1A7010BD00BFE033002062
:107B2400DE33002010B50446062201464FF41060EF
:107B3400FFF740FC042204F10E014FF48070FFF7BC
:107B440039FC042204F10A014FF4A060FFF732FC6F
:107B54000422A11D4FF47060FFF72CFC064B1A7829
:107B6400A2745A78E2749A782275DB786375034BB1
:107B74001B78A37510BD00BFE0330020DE33002066
:107B840030F03A030BD110B504460020FFF7ACFBEC
:107B94002043C1B20020FFF7D9FB002010BD4FF0F5
:107BA400FF30704708B50020FFF79EFB08BD10B5F5
:107BB400044601784FF4D850FFF7C8FB6188090ADE
:107BC4004FF4C850FFF7C2FBA1784FF4D050FFF731
:107BD400BDFB10BD38B505464FF4D850FFF784FB04
:107BE40028704FF4C850FFF77FFB84B22402A4B27C
:107BF4004FF4D050FFF778FB14FA80F0688038BD5A
:107C040010B50C46052821D8DFE800F003080D1153
:107C1400161B0846FFF758FF002010BD0846FFF763
:107C240081FF0020F9E70878FFF7AAFFF5E7FFF7DF
:107C3400B9FF20700020F0E70846FFF7B8FF0020E6
:107C4400EBE70846FFF7C6FF0020E6E74FF0FF30FA
:107C5400E3E70000024B4FF40072C3F80C257047B1
:107C640000030050024B4FF40072C3F8082570471C
:107C74000003005000B583B00DF10702012100207C
:107C840000F0D6F89DF8070003B05DF804FB00B5DA
:107C940083B08DF807000DF107020121002000F0E8
:107CA400AFF803B05DF804FB08B502490020FFF704
:107CB400A7FF08BDF42D002010B586B0274B01ACFA
:107CC4000FCB84E80F00264BB0221A704FF080527D
:107CD400D2F8A410090A5970D2F8A410090C9970AA
:107CE400D2F8A410090ED970D2F8A8101971D2F8DC
:107CF400A820120A5A711B491B48FFF7BFFC1B49F5
:107D04001B48FFF7CDFC21460120FFF74FFEB0F1E1
:107D1400FF3F03D1FEE79DF817308BB90DF1170132
:107D24000F20FFF743FEB0F1FF3FF4D132244FF4AC
:107D34007A40104B43F001039847013CF7D1EAE73E
:107D440001238DF800304FF47A73ADF802306846A1
:107D5400FFF72DFFFFF7A8FF06B010BDA4530400E2
:107D6400F42D0020697C0200597C0200937C0200FF
:107D7400797C0200C0530400054B0022C3F8402163
:107D84000122044B1A70044B19781A701B7870473F
:107D940000B00140E4330020E533002010B584B086
:107DA400144B6C460FCB84E80F0008238DF8003089
:107DB40007238DF8013028238DF8023000228DF836
:107DC400052003218DF80C104FF0805302930A4BC9
:107DD400C3F824174FF40071C3F80C151346214659
:107DE400064815F035FE08B904B010BD15F0F6FDCF
:107DF400FAE700BFC853040000030050D85304003E
:107E040082B100B585B00092012301930022029251
:107E140003926946054816F03FF828B9012005B0D9
:107E24005DF804FB002070470020F8E7DC530400F1
:107E34008AB100B585B013460022009201920293E4
:107E4400012303936946064816F026F828B9012051
:107E540005B05DF804FB002070470020F8E700BF80
:107E6400DC530400082802D94FF0FF30704770B586
:107E7400064684000134E40004F580751021284688
:107E8400FFF764FA2846FFF72FFA0028FAD11F21DA
:107E940004F50070FFF75AFA0123B340DB431BB229
:107EA4000A490A881A400A80094A11880B4013803B
:107EB4000023084A22F81630074A935504F5407007
:107EC400FFF712FA0028F9D1012070BDE633002033
:107ED400E8330020F4330020EC330020082800F2BB
:107EE40093802DE9F04182B005460E4690461F4628
:107EF400022910D004290ED0012902D06FF0040009
:107F040062E004220DEB02014FF47060FFF752FAB5
:107F1400019B002B5BD017F0040F78D11FB1012E09
:107F240058D0022E5CD02846FFF79CFFAC000134E9
:107F3400E40027F00F0149B23143C9B22046FFF7EC
:107F440005FAB8F1000F0AD1344AB2F8008008F1FA
:107F540001039BB213804FF6F07293424FD04FEA65
:107F6400182104F58060FFF7F1F95FFA88F104F550
:107F7400A060FFF7EBF904F5807601213046FFF7A6
:107F8400E5F93046FFF7B0F90028FAD10122AA40FA
:107F9400D24312B222490B8813401BB207F00107E7
:107FA400AF401F430F801F4B19880A401A800023DB
:107FB4001D4A22F815301D4A535504F54070FFF749
:107FC40093F90028F9D068B202B0BDE8F0816FF0EF
:107FD4000200F9E717F0210FA5D16FF00500F3E7D0
:107FE40017F0200F02D017F0800F13D017F0100FE6
:107FF40099D017F0800F96D16FF00500E4E7074B96
:108004004FF440421A80AAE74FF0FF3070476FF0F8
:108014000500D9E76FF00500D6E700BF0C2E00205D
:10802400E6330020E8330020F4330020EC33002052
:108034002DE9F84FBDF82850082800F284801C462A
:1080440093468A460646814687000137FF00384634
:10805400FFF74AF900F00F00022801D0042875D177
:10806400BBF1000F75D02378627802EB0322A3786A
:1080740003EB0222E37803EB0223002B6CD0002DE8
:108084006DD007F540784046FFF72EF9422801D01D
:10809400222867D10422214607F54060FFF7C8F97A
:1080A400290A07F58050FFF751F9E9B207F588501E
:1080B400FFF74CF907F5F850FFF716F985B2AD0252
:1080C400ADB2AB4503D85D4601E0AC4213D23046B5
:1080D400FFF7EAF904464046FFF706F9002844D0C2
:1080E400244B1B8843FA09F313F0010FEDD0AC4283
:1080F400EBD200203BE02A4651463046FFF732FAE5
:1081040007F5807420212046FFF720F92046FFF769
:10811400EBF80028FAD107F500742046FFF7E4F8DD
:1081240010F0100F09D110F0080FF4D008212046E8
:10813400FFF70CF96FF00C0019E010212046FFF74F
:1081440005F9284613E04FF0FF3010E06FF004000B
:108154000DE06FF00D000AE06FF00B0007E06FF028
:108164000A0004E06FF0060001E06FF00300BDE8D0
:10817400F88F00BFE6330020082800F2E3802DE9E1
:10818400F04F83B09B4691468A46064607468400D4
:108194000134E4002046FFF7A7F8804600F00F03FF
:1081A400022B02D0042B40F0D080B9F1000F00F074
:1081B400CF806A4B33F8163093B1002508F00708D6
:1081C400B8F1020F21D0B8F1040F7FD02946304610
:1081D400FFF726FA614B23F8165025E0002DEDD168
:1081E4003046FFF790F9054604F54070FFF77CF838
:1081F400002800F0B0805A4B1B883B4113F0010F5C
:10820400ECD0002DEAD1002028E0544B33F816308E
:108214003BB3524B33F816504D4500D94D462A46D0
:1082240051463046FFF7CDF904F5807440212046CD
:10823400FFF78CF82046FFF757F80028FAD1474A91
:1082440032F816305B1B9BB222F81630002B75D027
:10825400444A935D43F001039355284603B0BDE8B7
:10826400F08F082269463046FFF7ABF904F58075B4
:1082740040212846FFF76AF82846FFF735F800281A
:10828400FAD19DF800308BF800309DF801308BF85E
:1082940001309DF802308BF802309DF803308BF8E2
:1082A40003309DF804209DF8053003EB02230C9A5B
:1082B40013809DF806209DF8073003EB0223274A1C
:1082C40022F81630274B80229A55A2E7234B33F825
:1082D40016305BB1214B33F816504D4500D94D464D
:1082E4002A4651463046FFF76CF99DE7022269465B
:1082F4003046FFF766F904F5807540212846FFF7FC
:1083040025F82846FEF7F0FF0028FAD19DF8002052
:108314009DF8013003EB02239BB2104A22F8163079
:1083240040F2EA52934203D80E4B80229A55D1E789
:108334003046FFF797FD6FF47A708FE7094B002200
:108344009A558AE74FF0FF3070476FF0040085E7D5
:108354006FF00D0082E76FF003007FE7F433002035
:10836400E6330020EC33002010B58CB006AC214677
:108374000120FFF745FC94E803000090ADF80410D9
:108384000DF1060000F0D4FD0DF10E0000F0DCFD4F
:108394000DF10A0000F0E4FD0DF1120000F0ECFD17
:1083A40002238DF8163069460020FFF729FC0CB033
:1083B40010BD704708B5042208494FF47060FFF7F8
:1083C40037F8042206494FF4A060FFF731F804227D
:1083D40004494FF48070FFF72BF808BD20340020C7
:1083E400243400201C34002008B580210020FEF72E
:1083F400ADFF0020FEF778FFFFF7DCFF06220349FC
:108404004FF41060FFF714F808BD00BF04340020D7
:1084140008B580210020FEF799FF0020FEF764FFD5
:10842400062203494FF41060FFF702F808BD00BFAD
:108434000434002010B40B4B0B4C1C600B4B0C4C45
:108444001C600C4B0C4C1C6010B1034605480360C7
:1084540009B1064B19600AB1064B1A605DF8044B6A
:10846400704700BF182E0020B9830200202E002080
:10847400ED8302001C2E00201584020010B582B08A
:10848400062269464FF41060FEF794FF324A1168E1
:1084940001230B7011684B70116806238B701068F0
:1084A4000021C17012682D480068040E1471C0F3D5
:1084B40007445471C0F307249471D0711181802052
:1084C4009072D172117351739173D1731174517489
:1084D4009174D174117551759175D1751176517668
:1084E4009176D1761E490878107748785077887845
:1084F4009077C878D077087982F82000497982F893
:1085040021100F2B05D8D118002008770133DBB2D6
:10851400F7E7002305E0D118002081F82C0001338F
:10852400DBB23F2BF7D9002313F0800F06D1D1180B
:10853400002081F86C000133DBB2F5E7632382F895
:10854400EC30822182F8ED10532182F8EE1082F88B
:10855400EF3002B010BD00BF3434002014340020CA
:1085640004340020F0B585B0FFF788FF534B196839
:10857400352381F8F030012381F8F13081F8F230AD
:108584003D2281F8F320072281F8F42081F8F530A8
:108594004B4B1A7881F8F6205A7881F8F7209A78AC
:1085A40081F8F820DF7881F8F9701E7981F8FA6093
:1085B4005D7981F8FB500C2381F8FC30002281F8AE
:1085C400FD20122314463F48805C48B1581C3D4CA2
:1085D400A45C0B4483F8EC40013292B283B2F1E71D
:1085E400581C01EB030C8CF8EC709F1C11FA80F002
:1085F40080F8EC60D81C80B211FA87F686F8EC504B
:108604000434041B03320C4484F8EC201C1D08447D
:10861400372280F8EC205A1D11FA84F0062480F8E1
:10862400EC40181911FA82F2012582F8EC50DA1D97
:1086340011FA80F0032580F8EC5003F1080011FAD8
:1086440082F282F8EC4003F1090211FA80F00F245F
:1086540080F8EC4003F10A0011FA82F23A2482F81D
:10866400EC4003F10B0211FA80F03B2480F8EC405B
:108674000C339BB211FA82F2FF2082F8EC0005E081
:10868400CA18002082F8EC0001339BB2B3F59C7F3A
:10869400F6D3FF238DF80C308DF80D308DF80E30A5
:1086A4008DF80F304323009303AB4FF4097206484F
:1086B4000078FFF7BDFC05B0F0BD00BF34340020E6
:1086C40004340020102E002010340020F0B585B0B2
:1086D400FFF7D4FE814B1B78033BDBB2012B3ED961
:1086E400FF238DF80C308DF80D308DF80E308DF899
:1086F4000F307B4B1968352381F8F030012381F862
:10870400F130032281F8F2203D2281F8F320072280
:1087140081F8F42081F8F530724B1A7881F8F6204C
:108724005A7881F8F7209A7881F8F820DF7881F870
:10873400F9701E7981F8FA605D7981F8FB509DF833
:108744000F30FF2B27D01023581CCA180C2482F892
:10875400EC4002330844002280F8EC2048E0604BEF
:108764001B6800229A72DA725F4A11781973517881
:10877400597391789973D278DA735C4B1A788DF8BF
:108784000C205A788DF80D209A788DF80E20DB781D
:108794008DF80F30ADE7322381F8FC30042281F8E4
:1087A400FD20514B187881F8FE00587881F8FF00BD
:1087B400987881F80001DB7881F80131362381F85B
:1087C400023181F80321494B1A7881F804215A783F
:1087D40081F805219A7881F80621DB7881F8073140
:1087E4001C23B1E75C1C0B4483F8EC000132A3B2F8
:1087F4003F48805C0028F5D1581CCC1884F8EC70F4
:108804009C1C11FA80F080F8EC60D81C80B211FA3C
:1088140084F484F8EC50141D041B03320C4484F8D3
:10882400EC201C1D0844372280F8EC205A1D11FA54
:1088340084F0082480F8EC40981D11FA82F2012497
:1088440082F8EC40DA1D11FA80F0032480F8EC4041
:1088540003F1080011FA82F2062482F8EC4003F1D5
:10886400090211FA80F00F2480F8EC4003F10A00A9
:1088740011FA82F23A2482F8EC4003F10B0211FA65
:1088840080F03B2480F8EC4003F10C0011FA82F2F2
:108894001F2482F8EC4003F10D0211FA80F0212428
:1088A40080F8EC400E3311FA82F2FF2082F8EC00DB
:1088B4009BB2B3F59C7F05DACA18002082F8EC005D
:1088C4000133F6E74323009303AB4FF409720948DD
:1088D4000078FFF7ADFB05B0F0BD00BF2D340020DC
:1088E4003434002004340020203400200C340020D0
:1088F400102E00201034002000B585B0FFF7BEFD17
:10890400374B196800238B72CB72352381F8F03012
:10891400012381F8F130042281F8F2203D2081F80E
:10892400F300072081F8F40081F8F5302D4B187816
:1089340081F8F600587881F8F700987881F8F80003
:10894400D87881F8F900187981F8FA005B7981F810
:10895400FB30322381F8FC3081F8FD20224B18785B
:1089640081F8FE00587881F8FF00987881F80001BA
:10897400DB7881F80131362381F8023181F8032153
:108984001A4B1A7881F804215A7881F805219A78CB
:1089940081F80621DB7881F80731FF2381F808315B
:1089A4001D23B3F59C7F05DACA18002082F8EC0079
:1089B4000133F6E7FF238DF80C308DF80D308DF878
:1089C4000E308DF80F304323009303AB4FF409723C
:1089D40007480078FFF72CFB05B05DF804FB00BFE7
:1089E4003434002004340020203400200C340020CF
:1089F4001034002030B587B0574B1878FEF783FD4C
:108A040010B9002007B030BD002402460DF10E035A
:108A1400009304AB514909684F480078FFF7ACFB59
:108A2400BDF80E30432B01D060B2EBE74B4B1B6813
:108A3400197F4B4A1278914240F08180597F484A0D
:108A4400527891427DD1997F454A927891427AD168
:108A5400D97F434AD278914277D193F82010404A83
:108A64001279914273D193F821103D4A527991427F
:108A74006FD1F03381B2F039194428E0012A41D092
:108A840050B2002839D0032A55D158789D78354AF8
:108A94001570DD7855701D7995709D1D5B79D370C7
:108AA400031F2B4413E0332A45D19A782E4D2A60B4
:108AB400D87800EB02201A7902EB00205A7902EBF5
:108AC40000222A60063302E0FF2A34D10B468B428F
:108AD400AAD21A78062A20D0D0D9352A0FD0E2D9C2
:108AE400362AF1D19878214A1070D87850701879C4
:108AF40090705879D0700633E9E70133E7E79C7842
:108B04000333E4E798781A4A1070D87850701879CB
:108B140090705879D0700633D9E758789D78154A03
:108B24001570DD7855701D7995709D1D5B79D37036
:108B3400031F2B44CBE79A1C5B781344C7E7002040
:108B440060E700205EE700205CE700205AE7002091
:108B540058E7002056E700BF1034002034340020CA
:108B6400043400201C340020242E00200C34002067
:108B7400243400201834002030B583B04FF4D8508A
:108B8400FEF7B2FB054603214FF4D850FEF7DEFB97
:108B940041F2883300930F4B11220F490F4800789C
:108BA400FFF746FA044629464FF4D850FEF7CEFBA9
:108BB40014F10D0F02D1012003B030BDFFF79CFE6C
:108BC400074B1A68064B1B689B1A012BFAD9002025
:108BD400F2E700BF20340020E853040010340020E2
:108BE400303400200023044A1360044A0A2111602F
:108BF400034A1370704700BF30340020282E002031
:108C04002C34002010B5224B93F90030042B24DCC3
:108C1400204B1A68204B1B689A4236D21F4B93F99B
:108C24000030022B13D0042B14D0012B0CD01A4B80
:108C340000221A601B680A33164A1360144A137818
:108C440001331370012414E0FFF78CFCEFE7FFF706
:108C54003DFDECE7FFF73AFDE9E7104B93F90030EF
:108C6400022B0CD0042B0AD0012B04D00124FFF7D3
:108C7400B9FF204610BD0024084B1C70F7E7FFF72E
:108C840071FC0124054B1C70F1E70124F1E700BFDE
:108C94002C340020282E0020303400202D340020D5
:108CA40010B5674B93F90030062B00F0C280654B7A
:108CB400187880000130C00000F54070FEF714FB06
:108CC40022280DD1FFF796FEC0B25D4B93F9003018
:108CD400042B00F2B180DFE803F00B172F54760069
:108CE40000234422022157480078FFF7F7F8E9E708
:108CF400554B00221A705A709A70DA70FFF732FCE2
:108D040001244F4B1C7095E0022803D0FFF77AFF33
:108D140004468FE04D4B1A68117C4B4B1970517C03
:108D24005970917C9970D27CDA70FFF7CFFC444B78
:108D340002221A7001247DE0052805D006281AD0E5
:108D4400FFF760FF044675E0FFF716FF48B1404B9C
:108D54001B689847FFF746FF394B03221A7001241A
:108D640068E0FFF73FFF3B4B1B689847344B0022FA
:108D74001A7001245EE0FFF735FF0124304B1C70AC
:108D840058E0354B1B68B3F1FF3F57D0334A1268A4
:108D9400B2EB530F01D804244CE02B4A1178304B2A
:108DA40019705178597091789970D278DA702D4A87
:108DB400136801331360FFF789FCFFF713FF0424E2
:108DC4001F4B1C7036E0052805D006282AD0FFF773
:108DD40019FF04462EE0244B00221A70204B1A7807
:108DE400194B1B789A4209D0204B1B6898470324DF
:108DF400FFF7F8FE124B03221A701BE0184B5A7847
:108E0400114B5B789A42EFD1154B9A780E4B9B78B5
:108E14009A42E9D1124BDA780B4BDB789A42E3D1D0
:108E24000424E5E7FFF7DEFE054B01221A70042453
:108E340000E00524204610BD0124FBE70424F9E7E3
:108E44002D3400201034002020340020343400203D
:108E5400182E00201C2E0020242E00203034002048
:108E640028340020143400202C340020202E00202C
:108E7400F0B583B006460D4600230193224C06222A
:108E840021464FF41060FEF795FA20786778A178B0
:108E9400E27823796479384301430A431343234333
:108EA40022D01A4B1E701A4B1D601A4B1A4A1A60B4
:108EB40004220DEB02014FF47060FEF7B9FA0422AC
:108EC4000DEB02014FF47060FEF7B2FA04220DEBD1
:108ED40002014FF48070FEF7ABFAFFF783FE0F4BED
:108EE40000221A7003B0F0BD074900230B7008225A
:108EF4004A70DC228A70CB700B714B7106224FF4DE
:108F04001060FEF795FACCE70434002010340020FA
:108F14003434002014340020785634122D340020C8
:108F2400024A136801331360704700BF30340020D5
:108F3400044B1A7802705A7842709A788270DB78FF
:108F4400C370704720340020044B1A7802705A789A
:108F540042709A788270DB78C37070471C340020AA
:108F6400044B1A7802705A7842709A788270DB78CF
:108F7400C370704724340020044B1A7802705A7866
:108F840042709A788270DB78C3707047183400207E
:108F94004FF08043D3F8003163B94FF0804300228F
:108FA400C3F8002101221A604FF08043D3F8003146
:108FB400002BF9D04FF08043D3F8043163B94FF05C
:108FC40080430022C3F8042101229A604FF08043B9
:108FD400D3F80431002BF9D070470000064B074A40
:108FE400C3F81025064AC3F81825064A4021116023
:108FF4000122C3F80423704700600040010F010000
:10900400030B130000E100E04FF0A0430322C3F878
:109014003C27024B024AC3F8142570470060004005
:10902400030F030008B5064BD3F8003103B908BD9C
:10903400034B0022C3F8002100F014F9F7E700BF46
:10904400006000404FF0A0430322C3F82C27C3F86C
:109054003027C3F834274FF48052C3F80C254FF45B
:109064000052C3F80C2570474FF0A0430022C3F808
:109074003C270322C3F838274FF48042C3F80C2559
:10908400704700000A4B0B4AC3F810250A49C3F87D
:109094001019C3F8202502F59F3202F5A272C3F815
:1090A4002425443AC3F818290522C3F80425704737
:1090B40000F001400061004008600040064B074A90
:1090C400C3F81825A2F5A832A2F59E72C3F81C2590
:1090D4000222C3F80425704700F0014040B101406A
:1090E4000000000038B5054610EE100A1AF028FFFB
:1090F4001BA3D3E900231AF03FFF0022154B1AF0FB
:10910400F1FF1AF007FF6FEA40406FEA504080B267
:10911400114C2080114BC3F860550121C3F8001590
:109124000022C3F804250420C3F80C054FF47A7018
:10913400C3F80805C3F81425C3F81025C3F820455F
:10914400C3F82415C3F82825C3F82C25996038BD25
:10915400AFF3008000408F403834002000100240FC
:10916400000000000088C3400D4B0022C3F8042512
:109174000322C3F808250422C3F81025094AC3F8BA
:1091840040250122C3F800224FF48031C3F80413B0
:1091940005494FF40070C1F8800108601A607047F7
:1091A4000090004040420F0000E100E0084B002224
:1091B400C3F804250322C3F808250422C3F81025A4
:1091C400044AC3F840250122C3F80022704700BFB7
:1091D40000A0014040420F00024B034AC3F840255F
:1091E400704700BF00A001403B420F00024B012228
:1091F4005A60DA60704700BF00A001400A4B0121A9
:1092040059600022C3F804250322C3F80825042268
:10921400C3F810254FF47A7202FB00F0C3F840053E
:10922400C3F80012704700BF00B0014008B5034BFB
:109234000022C3F84021FFF773FE08BD00900040F0
:10924400064B1B68181A064B984206DA0028B8BF6A
:109254004042C0F5742000F510707047403400207F
:10926400E05EF8FF70B50C4E34680C4DD5F844053B
:10927400FFF7E6FF201A0A4A10600A490B68013317
:109284000B6013683360084B01221A70D5F844252B
:10929400064B1A6070BD00BF4434002000A001409A
:1092A4003C340020483400204C340020403400205A
:1092B400254B1B7803B9704730B5BDB0234B1B68F1
:1092C400069343F69823079300230893ADF82430BC
:1092D40007A906A800F042F908A800F051F900F027
:1092E40025F920B1184B00221A703DB030BD012081
:1092F40000F022F99DF822309DF823209DF82410D7
:109304009DF82500124C2468124D2D68059504948F
:1093140003900291019200939DF821309DF8202042
:109324000D490AA81BF065F90AA81BF020FABDF83C
:109334001C30009306ABC2B20AA90320FEF778FEE4
:10934400002000F0F9F8CDE74C340020FC53040071
:109354003C34002048340020005404000023054A13
:109364001360054A1360054A1360054A1360054AF1
:109374001370704740340020443400203C340020F3
:10938400483400204C34002008B5012342F2107206
:1093940002210620FEF7A2FD08BD000008B5044B1B
:1093A40001221A709FED030A0D20FFF79BFE08BDF2
:1093B400503C0020CDCCCC3D08B5002344F289427A
:1093C40002210320FEF78AFDFFF7E8FF08BD000035
:1093D4002DE9F04387B000AF064688463C1D2D4D6D
:1093E4000FCD0FC42B6823802B4C1122314620460D
:1093F4001BF034F91122391D20461BF00FF940B23D
:1094040018B11C37BD46BDE8F0836D46234B0122DD
:109414001A70A8F10A0323F00703ADEB030D4FF014
:109424000009C7F800906C46A8F1110206F1110179
:1094340068461BF040F94B4648460BE000EB8000C1
:10944400410089B20A4492B2303A90B201E0013349
:10945400DBB20134042B15D82278A2F1300109299A
:10946400F5D8032BEAD807F1180101EB030C1CF81B
:10947400186C06EB86067100C9B2114430390CF839
:10948400181CE6E7064B3A681A60064B1860AD46AE
:10949400B7E700BF4C540400603C0020523C00205D
:1094A4002C2E0020302E0020174B1B7803B1704760
:1094B40010B5154B01221A70FFF756FE134902200E
:1094C400FFF7D6FC1248134A0146FEF7B3FF002407
:1094D40011E00D4B00221A7006220F494FF4106060
:1094E400FDF768FF0D48FFF723FD074B00221A70B4
:1094F40010BD0A2CF9D8FFF7D3FB0428E9D00028C3
:10950400F7D10134E4B2F4E7513C00205034002098
:109514006D830200B7830200583C0020543C0020B5
:10952400014B1878704700BF503C0020014B18785D
:10953400704700BF513C0020014B1870704700BFBA
:10954400513C0020014B1878704700BF523C00206A
:10955400014B1870704700BF523C0020034B1B683E
:109564000360034B1B680B60704700BF2C2E002068
:10957400302E0020014B1B6803607047543C0020D0
:109584000346034A1068186092889A80704700BFA7
:10959400583C0020014B01221A707047382E0020DD
:1095A400014B00221A707047382E002008B500F0D5
:1095B4006FFD024B01221A7008BD00BF713C0020F0
:1095C400014B00221A707047713C002008B5FFF768
:1095D40015FEFFF719FDFFF771FD0123024A136021
:1095E400024A137008BD00BF00B00140723C002065
:1095F400034B01225A60034B00221A70704700BFCC
:1096040000B00140723C002008B5642303FB00F065
:10961400024B18601868FFF7D9FF08BD3C2E0020E4
:1096240030B5C3B00620FDF76EFF002800F0FB84C0
:10963400994B5B68059342F21073ADF81230002326
:10964400069306A8FFF796FF0DF11203009305ABEE
:10965400C82210A90620FEF78FFD0028E2DD0BAC1E
:109664008E4D0FCD0FC42B682370102210A907A8AC
:109674001AF0F4FF10220BA907A81AF0CFFF40B28A
:109684000028CFD19DF850209DF85140531E472B00
:1096940000F2B084DFE813F048006000AE04AE04CA
:1096A400AE04AE04AE04AE04AE04780085008900B6
:1096B4009F00B800CF00AE04AE04AE04AE04AE0406
:1096C400AE04AE04AE04AE04AE04AE04AE04AE0406
:1096D400AE04AE04AE04AE04AE04AE04AE04AE04F6
:1096E400AE04AE04AE04E6001C0136015101830150
:1096F400AE04AE04AE04AE04AE04C1010E025902BF
:10970400C802AE04AE04AE04AE04AE04AE042C0330
:109714007903AE04AE04AE04AE04AE04AE04AE04EB
:10972400AE04C7033C0491045D4B1B6813F4804FE3
:1097340003D05C4B1B68032B03DC5B4B01221A70C8
:1097440070E75A4BD3F80435594A00929B22594981
:10975400042006F041F9F0E7514B1B6813F4804FE5
:1097640003D0504B1B68032B03DC4F4B00221A70B1
:1097740058E74E4BD3F804354F4A0092A0224D4986
:10978400042006F029F9F0E7FFF7DCFE18B1012008
:10979400FFF7DEFE46E721460DF15200FFF718FE03
:1097A400F5E70020FFF7D4FE3CE73D4B1B6813F4BC
:1097B400804F3FF437AF3B4B1B68032B7FF732AF2F
:1097C4003A4BD3F804353D4A0092B122394904207A
:1097D40006F002F926E7324B1B6813F4804F03D0DE
:1097E400304B1B68032B04DCDDF8520000F09AFCBC
:1097F40018E72E4BD3F80435314A0092B5222D498F
:10980400042006F0E9F8EFE7254B1B6813F4804FBA
:1098140003D0244B1B68032B02DCFFF7C7FE01E7D0
:10982400224BD3F80435274A0092BA222149042056
:1098340006F0D2F8F1E71A4B1B6813F4804F03D0FB
:10984400184B1B68032B02DCFFF7BAFEEAE6174B42
:10985400D3F804351C4A0092BF221649042006F0AE
:10986400BBF8F1E70E4B1B6813F4804F03D00D4B8C
:109874001B68032B05DCB7EE000A0D20FFF732FC52
:10988400D0E60A4BD3F80435104A0092C4220949A1
:10989400042006F0A1F8EEE760540400F058040038
:1098A400942E0020902E0020733C002000100140D4
:1098B400AC54040098540400C4540400DC54040060
:1098C400FC5404001C550400385504005055040091
:1098D400B14B1B6813F4804F03D0B04B1B68032BB0
:1098E40005DC9FEDAF0A0D20FFF7FCFB9AE6AD4BBC
:1098F400D3F80435AC4A0092C922AC49042006F0DE
:109904006BF8EEE7A44B1B6813F4804F03D0A34B12
:109914001B68032B06DCA64B93ED000A0D20FFF712
:10992400E1FB7FE69F4BD3F80435A24A0092CE2296
:109934009E49042006F050F8EDE7974B1B6813F49A
:10994400804F03D0954B1B68032B1ADC9DF85230D3
:1099540007EE903A9DF8533007EE103AB8EEC77A06
:10996400B2EE046AC7EE066AF8EEE77A77EEA67AF4
:109974008F4BC3ED007A93ED000A0D20FFF7B2FB85
:1099840050E6884BD3F804359DF8522001928A4A58
:109994000092D3228549042006F01EF8D6E77E4BB8
:1099A4001B6813F4804F03D07C4B1B68032B15DC1E
:1099B4009DF8523007EE903AF8EEE77A9DF853306E
:1099C40007EE103AB8EEC77AF2EE046A87EE260A7A
:1099D40037EE800A0D20FFF785FB23E6714BD3F8A1
:1099E40004459DF852509DF8533007EE903AF8EE36
:1099F400E77AB2EE047AC7EE877A17EE900A1AF085
:109A04009FFACDE9020101956C4B00932346D922BC
:109A14006649042005F0E0FFCAE75F4B1B6813F4B6
:109A2400804F03D05D4B1B68032B1BDC06A90DF193
:109A3400520000F026FB00BB574B1B6813F4804F09
:109A44003FF4F0AD554B1B68032B7FF7EBAD554B43
:109A5400D3F804355A4A0092EB225449042005F005
:109A6400BBFFDFE54F4BD3F80435564A0092DF22A3
:109A74004E49042005F0B0FFD8E7FFF7ADFBB7EE81
:109A8400000A0D20FFF72EFB434B1B6813F4804F95
:109A94003FF4C8AD414B1B68032B7FF7C3AD414B6B
:109AA400D3F80435484A0092E7224049042005F0DF
:109AB40093FFB7E5384B1B6813F4804F03D0374B43
:109AC4001B68032B1BDC06A90DF1520000F0D9FA28
:109AD40000BB314B1B6813F4804F3FF4A3AD2F4BF5
:109AE4001B68032B7FF79EAD2E4BD3F80435374A02
:109AF4000092F8222D49042005F06EFF92E5294BCF
:109B0400D3F80435324A0092F0222849042005F0A3
:109B140063FFD8E79FED220A0D20FFF7E3FA1E4BFF
:109B24001B6813F4804F3FF47DAD1C4B1B68032B63
:109B34007FF778AD1B4BD3F80435264A0092F42204
:109B44001A49042005F048FF6CE5134B1B6813F415
:109B5400804F03D0114B1B68032B3DDC06A90DF18C
:109B6400520000F08EFA002841D10B4B1B6813F40D
:109B7400804F3FF457AD094B1B68032B7FF752AD61
:109B8400084BD3F804350E4A009240F205120749F7
:109B9400042005F021FF45E5942E0020902E00209E
:109BA40000000000001001406855040098540400AF
:109BB400342E002080550400AC550400D855040010
:109BC4003C560400005604001C5604009856040039
:109BD4005856040074560400AF4BD3F80435AF4A0A
:109BE4000092FD22AE49042005F0F6FEB6E7AD4B27
:109BF40093ED000A0D20FFF775FAAB4B1B6813F4C5
:109C0400804F3FF40FADA94B1B68032B7FF70AADC0
:109C1400A14BD3F80435A64A009240F20112A049A0
:109C2400042005F0D9FEFDE49F4B1B6813F4804F1C
:109C340003D09E4B1B68032B1CDC06A90DF15200BC
:109C440000F01FFA10BB984B1B6813F4804F3FF4CD
:109C5400E9AC964B1B68032B7FF7E4AC8E4BD3F82F
:109C64000435944A009240F213128D49042005F001
:109C7400B3FED7E4884BD3F804358F4A00924FF4EF
:109C840085728749042005F0A7FED6E79DF8563073
:109C940007EE903AF8EEE77A9DF8573007EE103A5F
:109CA400B8EEC77AF2EE046A87EE260A37EE800A27
:109CB4000D20FFF717FA7C4B1B6813F4804F3FF419
:109CC400B1AC7A4B1B68032B7FF7ACAC724BD3F867
:109CD40004359DF856209DF8571002910192774A59
:109CE400009240F20F126E49042005F075FE99E4CB
:109CF4006D4B1B6813F4804F03D06C4B1B68032B14
:109D04001CDC06A90DF1520000F0BBF910BB664B38
:109D14001B6813F4804F3FF485AC644B1B68032B22
:109D24007FF780AC5C4BD3F80435624A009240F272
:109D340021125B49042005F04FFE73E4564BD3F81F
:109D440004355F4A00924FF48C725549042005F0A3
:109D540043FED6E7FFF724FCFFF728FC524B1B68B1
:109D640013F4804F3FF45EAC504B1B68032B7FF71A
:109D740059AC494BD3F80435524A009240F21D12B3
:109D84004749042005F028FE4CE4474B1B6813F4B4
:109D9400804F03D0454B1B68032B1CDC06A90DF137
:109DA400520000F06EF910BB3F4B1B6813F4804F58
:109DB4003FF438AC3D4B1B68032B7FF733AC364B79
:109DC400D3F804353B4A009240F22F123449042060
:109DD40005F002FE26E4304BD3F804353A4A0092EB
:109DE4004FF493722E49042005F0F6FDD6E7FFF7F1
:109DF400E7FBFFF7CFFB2C4B1B6813F4804F3FF4BA
:109E040011AC2A4B1B68032B7FF70CAC224BD3F805
:109E140004352E4A009240F22B122149042005F009
:109E2400DBFDFFF7FFBB204B1B6813F4804F03D00F
:109E34001E4B1B68032B22DC06A90DF1520000F017
:109E440020F900284AD0224B1868FFF7BFFB164BB5
:109E54001B6813F4804F3FF4E5AB144B1B68032BD2
:109E64007FF7E0AB0C4BD3F804351A4A00924FF459
:109E74009C720B49042005F0AFFDFFF7D3BB064BE2
:109E8400D3F80435144A00924FF49A72044904201A
:109E940005F0A2FDD0E700BF00100140B456040055
:109EA40098540400342E0020942E0020902E00207C
:109EB400D45604003C5604000457040028570400F8
:109EC4005C5704007C570400A0570400C0570400EA
:109ED4003C2E002000580400E8570400FFF788FBDC
:109EE400524B1B6813F4804F3FF49CAB504B1B68E0
:109EF400032B7FF797AB4F4BD3F804354E4A0092B0
:109F040040F23D124D49042005F066FDFFF78ABB7F
:109F1400464B1B6813F4804F03D0454B1B68032B3F
:109F24001DDC06A90DF1520000F0ABF818BB3F4B45
:109F34001B6813F4804F3FF475AB3D4B1B68032B38
:109F44007FF770AB3B4BD3F804353D4A00924FF496
:109F5400A5723A49042005F03FFDFFF763BB354B7A
:109F6400D3F80435374A00924FF4A17233490420E0
:109F740005F032FDD5E79DF85600FFF745FB2B4B66
:109F84001B6813F4804F3FF44DAB294B1B68032B24
:109F94007FF748AB274BD3F804359DF8561064225D
:109FA40002FB01F20192284A00924FF4A372234962
:109FB400042005F011FDFFF735BB1C4B1B6813F49F
:109FC400804F03D01A4B1B68032B07DCFFF710FBF1
:109FD400FFF70CF9FFF7C2F9FFF724BB154BD3F8D1
:109FE40004351A4A009240F24F121449042005F035
:109FF400F3FCEBE70D4B1B6813F4804F3FF412ABFB
:10A004000B4B1B68032B7FF70DAB0A4BD3F80435BE
:10A0140001920F4A009240F257120849042005F0B9
:10A02400DBFCFFF7FFBA43B030BD00BF942E002025
:10A03400902E0020001001402C5804009854040075
:10A044003C5604006858040084580400B4580400C2
:10A05400C85804009A420ED1002393420FD230B460
:10A06400C55CCC5CA54208D10133DBB29342F7D383
:10A07400012030BC7047002070470020F9E7012020
:10A08400704708B504231A46FFF7E4FF08BD000033
:10A0940008B5214B42221A7000225A709A704FF070
:10A0A4008053D3F8A430B3F1FF3F22D04FF0805255
:10A0B400D2F8A410184BD970D2F8A410090A197157
:10A0C400D2F8A410090C5971D2F8A410090E997190
:10A0D400D2F8A810D971D2F8A820120A1A720F4B1C
:10A0E4001B680D48C0F809300A23437000F020F8BB
:10A0F40008BD4FF08053D3F8A8309BB24FF6FF72DF
:10A104009342D3D1044B064A1068C3F803009288E3
:10A11400A3F80720E3E700BF743C002004590400BF
:10A1240008590400014B1860704700BF402E0020FE
:10A13400014BC3F8040570470010004010B40346F7
:10A14400044C006859689A68DB680FC45DF8044BD6
:10A15400704700BF843C00200B4B0C4A92E803007C
:10A1640083E8030003F10802094903C982E80300F4
:10A17400DA79042161F30712DA711A7A022161F3A0
:10A1840087121A72704700BF843C002060000010E0
:10A19400A400001000487047843C002000231F2BBB
:10A1A40009D8074901EBC30000224280426001F84C
:10A1B40033200133F3E7034B00221A60704700BFDA
:10A1C400943C0020943D002030B405460F4B1B689E
:10A1D40000240AE01F230E4A12F83300A0B102EB58
:10A1E400C3025288AA4207D001341F2C0BD85A1E2E
:10A1F400002BEFD01346EEE7054A02EBC302526888
:10A204008A42F1D100E0002030BC7047943D002028
:10A21400943C002030B40A4A13680A4C04EBC3058A
:10A2240068806960012104F833100B441360202B0B
:10A2340001D030BC7047134600221A60F9E700BF12
:10A24400943D0020943C0020C0F30C038B4204D2C4
:10A25400C91A0144A1F500507047C91A084470474F
:10A26400C37D002B42D083780A7802F0800203F089
:10A274007F0313430B7002780B7803F07F0343EAE8
:10A28400C2130B700378002B41D030B44378082BF1
:10A2940014BF002201224B7803F07F0343EAC21368
:10A2A4004B70858803F08003C5F3861423434B70F9
:10A2B4008A7802F0030242EA8502D2B28A70857972
:10A2C40002F0FC02C5F3C10422438A70CB7803F088
:10A2D4001F0343EA4513DBB2CB70C27903F0E003FA
:10A2E40002F01F021343CB7030BC704783780A78A6
:10A2F40002F0BF029B0103F0400313430B70C278CA
:10A3040003F0C00302F03F0213430B70B3E770473E
:10A314000023032B22D810B402E00133032B19D8F5
:10A32400C3EBC30214010E4A224492F84820012AC6
:10A33400F3D10B4A2244948AC2899442EDD1C3EBEF
:10A34400C3021401064A224492888A42E5D1044891
:10A35400204400E000205DF8044B70470020704763
:10A36400043E0020002300E00133032B14D8C3EB88
:10A37400C3021101094A0A4492F84820022AF3D17F
:10A38400064A0A44918A828A9142EDD1C3EBC303FF
:10A394001A0102481044704700207047043E002010
:10A3A40008B90420704708207047000038B50546F6
:10A3B4000C46CB695B78C370CB691B7883F00103CF
:10A3C4008370CB694362087B022814D0FFF7E8FF4F
:10A3D4006870E27A32B9A18AC0F10F03994201DCB4
:10A3E400082833D0A18A0346C0F10F00814207DC5C
:10A3F40052B3012205E0164B987DFFF7D1FFE7E742
:10A4040001222A7062B1A28A13440B33114A82FBDF
:10A414000312DB17C3EB6203013BEB710023AB7147
:10A424000023EB7505F10C0294E8030082E80300B5
:10A43400A2692A622289AA82A27AAA75226AAA62D7
:10A4440085F82C30184638BD0022DAE70720FAE7F1
:10A45400EC3D0020ABAAAA2A30B403460C46097886
:10A46400817000214162A1680B2903D8217B09B3C3
:10A47400012100E0012119700020587029B1A16860
:10A484000731C9080139D97198710121D97503F1CE
:10A494000C0504F1100103C985E80300E1899982E0
:10A4A400A1691962217F9975617F83F82C109A62E2
:10A4B40030BC70470021DEE70021174B1B688B423C
:10A4C40027D90023154A02EBC10252689A421ED9C9
:10A4D40010B40FE060685DF8044B704701310E4B17
:10A4E4001B688B4211D900230C4A02EBC10252684B
:10A4F4009A42F3D9094A52F8312002EBC30412F804
:10A5040033208242E6D00133EEE70020E3E7013155
:10A51400D3E70020704700BF983D00209C3D0020F9
:10A5240070B58CB006460D4614462C22002101A8B5
:10A534001AF0EAF80F238DF80430ADF808604FF0F4
:10A54400000365F300038DF80A308DF80B4001A871
:10A5540001F0E6F80CB070BD30B58DB005460C4680
:10A564002C22002101A81AF0CFF810238DF8043012
:10A5740002958DF80C4001A801F0D2F80DB030BD61
:10A5840000B58DB010B913F1020F06D1074B18684E
:10A5940004F050F90DB05DF804FB01228DF804209D
:10A5A400029301A801F0BCF8F0E700BFA43D00202D
:10A5B4002DE9F041054688460378BBB10D4B1C6874
:10A5C400621C1A6004F00704AB8A0B4F07EBC40645
:10A5D4007380A988A869FFF737FE7060EB6903F000
:10A5E4000103737007F83480BDE8F0817846FCF706
:10A5F40069FEE3E7E83D0020A83D002070B506466B
:10A6040003784BB1B58A347F04F00104B188B06992
:10A61400FFF71AFE002304E07846FCF753FEF1E747
:10A624000133072B15D80C4A02EBC302526882424D
:10A63400F6D1094A02EBC3025288AA42F0D1064A73
:10A6440002EBC3025278A242EAD1034800EBC300F2
:10A6540000E0002070BD00BFA83D0020F8B51546FD
:10A664001C460E684A68D1F808C0CF68E6602261CB
:10A67400C4F814C0A7610E694A69E66122620378CE
:10A68400DB092370E27D2AB3027802F07F02A27014
:10A69400002262709BB143789B0103F4FE538278DD
:10A6A40043EA9203A3808378DB0003F01803C278A3
:10A6B40043EA5213A371C37803F01F03E371002329
:10A6C40063622B78052B1AD82B780F4AD35C84F855
:10A6D4002C30F8BD0278C2F38012A270027802F026
:10A6E4003F02E27043B190F90120002A02DB042208
:10A6F4006270CFE70822FBE704226270CAE778465B
:10A70400FCF7E0FDE0E700BF1059040070B50C460B
:10A714001E460378B3B104252A44A26000F10C0359
:10A724002360836A636090F82C302373002363737F
:10A73400204604F0E3FB034610B922691544356052
:10A74400184670BD0125E7E72DE9F0418EB00D46AE
:10A7540016461C46804600282DD0002D2FD0002CF4
:10A7640031D0636A0233059304F10C00A378002B03
:10A774002DD00121627801AF3B46082A14BF002284
:10A78400012204F09CF90697CDF81C80B2B2ADF812
:10A7940020200B9515440C9563788DF83430237B79
:10A7A400022B16D00023ADF8283005A804F07FF959
:10A7B4000EB0BDE8F0817846FCF784FDCDE778461D
:10A7C400FCF780FDCBE77846FCF77CFDC9E7022166
:10A7D400D0E723692BB1236909931023ADF82830FE
:10A7E400E3E77846FCF76EFDF5E72DE9F04186B026
:10A7F40004460D46C37D002B3CD0082605FB06F815
:10A80400E379AB4238D0A5716B46324601A92046A4
:10A81400FFF77CFF074648BB4DB994F8533033B972
:10A82400A369C3F30C03A380012384F85330E37DAD
:10A834007BB994F8523063B91DBBB4F84A106278FE
:10A8440023468A1AE16E0846FFF77EFF012384F847
:10A85400523005992046FFF703FDE16E324641442C
:10A86400009819F028FF01A804F067FB384606B0E9
:10A87400BDE8F0810C26C1E7B4F84A60A6EB0806EF
:10A88400C1E77846FCF71EFDD7E770B505460E46CE
:10A8940009B100230B6095F85040002104E0631CCB
:10A8A40085F850300134E4B2EB79A34210D3EA6C5A
:10A8B4000123A3401A42F5D121462846FFF795FF0C
:10A8C400014628B9002EEAD0336801333360E6E745
:10A8D400084670BDF0B587B045781544C37D7BB19B
:10A8E4000B239D4224D816460F4604466B462A463F
:10A8F40001A9FFF70BFF054620B1284607B0F0BDBC
:10A904000F23EEE705992046FFF7AAFCE37D43B148
:10A9140032463946009819F0CEFE01A804F00DFB2A
:10A92400EBE72346324600993846FFF70DFFF4E77C
:10A934000925E2E710B5044690F84830012B0CD104
:10A9440003F082F8237B012B0BD0094BD968014417
:10A9540004F1300003F040F810BD7846FCF7B2FC77
:10A96400EEE7A37D024AD168126902FB0311EEE708
:10A97400EC3D002030B583B0002403E02846FFF707
:10A98400D9FF0134032C19D8C4EBC4031A010C4BAE
:10A99400134493F84830012BF3D100230193C4EB03
:10A9A400C4021301064D1D4401A92846FFF76DFF9B
:10A9B4000428E3D0019B002BE3D0DFE703B030BDD4
:10A9C400043E002038B5044690F84830022B09D1E3
:10A9D400064B1D6803F038F8411904F1300002F009
:10A9E400FBFF38BD7846FCF76DFCF1E7EC3D002039
:10A9F40038B5044690F84830022B10D10A4B5D7DDF
:10AA04005A689B6803FB052503F01EF8411904F1FD
:10AA1400500002F0E1FF012384F8683038BD784625
:10AA2400FCF750FCEAE700BFEC3D002038B50446D3
:10AA3400C06E08F0ECF804F13005284602F0E9FF96
:10AA440070B994F84830022B0ED0702200212046B1
:10AA540019F05AFE002084F8480002F02DF838BDA1
:10AA6400284602F0A1FFECE704F15005284602F065
:10AA7400D0FF0028E9D0284602F096FFE5E710B59C
:10AA840004460121FFF794FD2046FFF7CFFF10BDD8
:10AA940010B58CB0044690F84830012B0CD101233A
:10AAA4008DF80430636D029301A800F039FE20464E
:10AAB400FFF7BCFF0CB010BD7846FCF703FCEEE7D3
:10AAC40030B585B00D460446A8B100212046FFF7F5
:10AAD4006FFD2946606DFFF73FFD2046FFF7A6FF97
:10AAE4000F4B1B6813F0040F03D00E4B1B68032B92
:10AAF40005DC05B030BD7846FCF7E4FBE5E70A4B1E
:10AB0400D3F8043594F8482002950192074A00923C
:10AB140040F2EF120649042004F05EFFE9E700BFAB
:10AB2400942E0020902E002000100140685904004B
:10AB34005B59040008B508460021FFF7C1FF08BDB2
:10AB440008B5037B012B02D0FFF7A2FF08BD01214A
:10AB5400FFF7B6FFFAE7000008B590F8513053B19B
:10AB6400013B80F85130002380F85030034B1868C3
:10AB740003F060FE08BDFFF7E3FFFBE7A43D002000
:10AB840010B50C4691F84830012B03D12046FFF74D
:10AB9400E3FF10BD7846FCF795FBF7E7062951D192
:10ABA40070B582B003460178890101F4FE51407802
:10ABB4009D78DC78240444EA05641D7944EA05247C
:10ABC4005B791C4341EA90011046FFF7A1FB05465F
:10ABD400B8B1C66C2643C66444B3037853B3EB7967
:10ABE4005A1C01239340013B9E4227D0002185F843
:10ABF40050102846FFF749FE2846FFF79BFE02B097
:10AC040070BD114B1B6813F0040FF8D00F4B1B6879
:10AC1400012BF4DD0E4BD3F804350E4A009240F2BA
:10AC2400A7520D49022004F0D7FEE8E70321FFF7FD
:10AC340047FFE4E77846FCF745FBD0E72846FFF7F3
:10AC440027FFDCE7704700BF942E0020902E0020E1
:10AC5400001001408C5904005B5904002DE9F043B5
:10AC640089B080460F4614461E46957825B9FFF7ED
:10AC740095FF09B0BDE8F0832846FFF71DFC814627
:10AC84000028F6D08DF80050236A0693A38AADF805
:10AC94000E3004AB04F10C0292E8030083E80300D5
:10ACA400A37D8DF81C30CDF80480029723788DF8AD
:10ACB4000C3094F82C308DF81D3031466846C84766
:10ACC400D7E700002DE9F04706460F4690464B1E95
:10ACD400DBB2012B0FD8B8F5C07F10D80024032CA9
:10ACE4001AD8C4EBC4031A01314B134493F8483007
:10ACF4004BB10134F3E77846FCF7E4FAEBE7784626
:10AD0400FCF7E0FAEAE7DFF8A8A015465544404608
:10AD140007F079FFE86600E0002585B3EB6E002BB1
:10AD240044D033462A4606F1300ED3F800C05C689E
:10AD34009868D968C2F800C054609060D16010333C
:10AD440010327345F1D10023EB64A5F84A80B18831
:10AD5400B069FFF779FAA861012F13D06FF00103EE
:10AD6400AB62002385F86830124BAB652D66124B3D
:10AD7400AB632D64012001F09FFE85F848702846DE
:10AD8400BDE8F0870D4B1B7D85F85130002385F815
:10AD9400523085F8533085F85030B36A6B656FF0E4
:10ADA4000103AB62064BAB632D64E3E70025E6E7E2
:10ADB400043E002069B6020039AB0200EC3D0020DD
:10ADC40085AB0200F0B5C7B046781644C37D2BB1FD
:10ADD4004FF48073B3427ED3002303E04FF4C07377
:10ADE400F8E70133032B19D8C3EBC30425013C4C0A
:10ADF4002C4494F84840012CF3D1394C2C44A58AB6
:10AE0400848AA542EDD1C3EBC3042501344C2C4400
:10AE1400E589C489A542E4D1082455E014460F46C7
:10AE240032460121FFF74EFF0546002855D0224641
:10AE34003946C06E19F03FFC0023459345A92846C6
:10AE4400FFF723FD044608B1042840D1459B7BB994
:10AE5400244B1B6813F0040F35D0234B1B68032BC2
:10AE640031DDB5F84A70802F28BF8027002313E016
:10AE74002846FFF75FFDEBE7EA6ED25C1B490C68DE
:10AE840010095900265C04A800F8136002F00F02B0
:10AE94000131A25C42540133BB42EDD304AA002326
:10AEA40002F8173003F1804303F58833D3F80435EF
:10AEB40002920F4A01920F4A009240F2D1420E4987
:10AEC400042004F089FD0024204647B0F0BD284644
:10AED400FFF7ACFDF8E70924F6E70424F4E700BF24
:10AEE400043E0020942E0020902E0020982E002056
:10AEF400BC590400BC5104005B59040000B585B082
:10AF040000238DF80F3098B10346084602330B60D6
:10AF14000DF10F0103F0CFFD9DF80F3043B10D4B40
:10AF24001B6813F0040F03D00B4B1B68032B04DCCA
:10AF34009DF80F0005B05DF804FB084BD3F8043509
:10AF4400074A009240F2A6320649042004F044FD68
:10AF5400EEE700BF942E0020902E00200010014048
:10AF6400CC5904005B5904002DE9F0438FB004462A
:10AF74000E4615461F46D0F81890037823B18188F1
:10AF84004846FFF761F9A06104F10C00A378002B97
:10AF94003AD0012162780DF128084346082A14BFEB
:10AFA4000022012203F08BFDC4F81890CDF808802C
:10AFB40003966378EA1A92B2ADF8102032440892EC
:10AFC40007978DF824300023ADF81830237B022B2B
:10AFD4001CD0A3786BB3237B022B1BD02546002304
:10AFE40045F8243F2A46E178206A0EF09FFB606A08
:10AFF40098B101A9FFF782FF00283AD12A46E178E7
:10B00400206A0EF093FBF2E70221C3E71023ADF8A8
:10B014001830DEE723690593E0E7237B022B2CD16C
:10B0240004F10C01E0890EF02FFC0028D3D1052097
:10B0340020E000236362237B012B0DD021460023F3
:10B0440041F8243FA08A0EF08EFB01A9606AFFF745
:10B0540055FFA0B905200DE004F12401E0890EF0AC
:10B0640082FB01A9606AFFF749FF0028E6D00020AF
:10B0740000E000200FB0BDE8F0830520FAE70020CF
:10B08400F8E7000070B5F0B00D4614461E4610AB4C
:10B094000A4601462046FFF767FFA0B11F4B1B6815
:10B0A40013F0040F37D01E4B1B68052B33DD1D4BEB
:10B0B400D3F804351C4A009240F219621B49062059
:10B0C40004F08AFC27E003AB01228DF80C20A28A4D
:10B0D400ADF80E20002204928DF8142010AA0692D6
:10B0E4006278AD1AADF81C5008AA93E8030082E810
:10B0F40003000AAB04F10C0292E8030083E80300A6
:10B10400A37D8DF83830236A0C93636A0D930F96F0
:10B1140005A800F005FB70B070BD00BF942E0020A0
:10B12400902E002000100140045A04005B590400D2
:10B1340010B5D47D14B1FFF791FD10BDFFF7A2FF48
:10B14400FBE770B504460D461646808A01F0D4FF2D
:10B1540001281AD1237BD3B1022B0BD094F91630DA
:10B16400002B16DB237853B1324629462046FFF7DD
:10B1740029FE0BE02369002BF0D1102006E03246B3
:10B1840029462046FFF7A6FB00E0102070BD1020E2
:10B19400FCE70720FAE7000010B54FF4E072002145
:10B1A400134819F0B1FA05F077FE0024114B1C6026
:10B1B40040222146104819F0A7FA104B104A1A6091
:10B1C400104A5A604CF250329A600F49D9601A61A1
:10B1D40004221A759C7508225A750C4803F00AFB60
:10B1E4000B4B18600B4B1C600B4805F059FF10BD4E
:10B1F400043E0020E83D0020A83D0020EC3D002056
:10B2040080969800F049020020A10700BDB3020017
:10B21400A43D0020983D002085A5020008B505F056
:10B22400B3FD08BDC0B110B58CB004460369B3B119
:10B23400C369B3B18369B3B101466846FFF7B6F891
:10B24400034610B118460CB010BDA28A21696846A5
:10B25400FFF777FF0346F5E70E23184670470E23E2
:10B26400F0E70E23EEE70E23ECE7D0B110B58CB077
:10B2740004464268BAB18269BAB1027C022A16D085
:10B28400BAB190F90020002A15DB0A460146684647
:10B29400FFF7E2F8A26861686846FFF752FF0CB056
:10B2A40010BD0E2070470E20F9E70E20F7E710209E
:10B2B400F5E71020F3E70720F1E70000037B012BFB
:10B2C40001D00020704730B58DB001AC002302934B
:10B2D400CDF80B308288C2F386158DF804509200A5
:10B2E4008DF805200A0E8DF806200A0C8DF807202B
:10B2F4000A0A8DF808208DF8091006220692012208
:10B304008DF82020828AADF8222009938DF8103020
:10B314000594026A0A928DF81C30C389ADF81E3078
:10B3240090F82C308DF82D30837D43B98DF82C3076
:10B334006FF0010104A8FFF798FF0DB030BD024B78
:10B344005B7D8DF82C30F3E7EC3D002038B590F8A8
:10B354004830022B00D038BD90F86830022BFAD167
:10B364000446C16CFFF7AAFF0028F4D1002384F837
:10B374006830E56C237853B1E3795A1C0123934078
:10B38400013B9D42E7D12046FFF779FBE3E778468E
:10B39400FBF798FFF0E7000010B5002407E0C4EBCA
:10B3A400C402130103481844FFF7D0FF0134032CEF
:10B3B400F5D910BD043E002008B5FFF7DBFAFFF70E
:10B3C400EBFF012008BD00002DE9F04182B00746E3
:10B3D4000E46144698461046FEF7C4FF054620B1B3
:10B3E400A28883889A4210D312D82046FFF706F920
:10B3F400B8B103784BB123787BB1E1794B1C0121BF
:10B40400994001392046FFF759FF02B0BDE8F081A9
:10B414000521FFF755FB0025E7E77846FBF752FFC8
:10B42400EBE7002D56D05F4B1B6813F0040F04D0DC
:10B434005D4B1B68032B00F385802846FFF7C2FA97
:10B444002B7B012B00F08C80EA6CA17901238B40CB
:10B454001A42DAD11343EB64A279EB799A4200F0F1
:10B464008880E37D002B00F08F800823B34240F0F6
:10B474008D80EB6EA079E27D002A00F08C80082498
:10B484003246394604FB003019F015F9EC6C2B7880
:10B49400002B00F08280EB795A1C01239340013B7E
:10B4A4009C42B2D1022385F86830E96C2846FFF744
:10B4B40005FF044643462A46B5F84A10E86EFFF7EE
:10B4C40037FE002CA1D1002385F868302846FFF709
:10B4D400D6FA9AE7E279531CE17DE9B1082202FB2E
:10B4E40003F2D9B14FF4807393421AD22D4B1B68E7
:10B4F40013F0040F89D02C4B1B68002B85DD2B4BDC
:10B50400D3F8043501922A4A009240F2363229498E
:10B51400012004F061FA78E70C22E0E74FF4C073ED
:10B52400E2E702212046FFF7CDFB054600287FF421
:10B534007AAF00212046FFF7C1FE02210020FFF769
:10B544000BF862E7194BD3F80435A27901921A4A31
:10B55400009240F251321749042004F03DFA6CE79E
:10B5640095F86830002B7FF46FAF2846FFF740FA58
:10B574006AE79BB2E27D2AB1082203FB0263A5F8C5
:10B584004A3076E70C22F8E70C236FE704212846BB
:10B59400FFF796FA39E70C2472E77846FBF792FE38
:10B5A40079E700BF942E0020902E00200010014067
:10B5B400E05904005B590400F45904002DE9F041FA
:10B5C4008EB000284AD00546002A49D09846144631
:10B5D4000E4600220C920D920CA960880EF054F9CC
:10B5E40020B9002738460EB0BDE8F0812269E16831
:10B5F400208905F0FDFB08B10027F3E72269E16823
:10B60400208905F0C9FB0746C8B96B464246214666
:10B614002846FFF723F803AB0EAA12E9030083E8D8
:10B62400030003F06FF89DF8003083B143466A4687
:10B63400311F281DFFF7C8FE03F0A8F8D2E72169DF
:10B64400002201F001012089FEF76AFFCAE74346A0
:10B654006A46711E681CFFF76BFDEDE70E27C1E714
:10B664000E27BFE710B50C4691F84830022B0BD1DA
:10B67400022384F86830E16C2046FFF71FFE10B9FE
:10B68400002384F8683010BD7846FBF71BFEEFE713
:10B69400F8B500B30546164B1F68F7B90E463C468D
:10B6A400B4420ED205EBC4035B68CBB115F8340089
:10B6B40010F0800F16D1B8B1FEF7FEFEB0B9013418
:10B6C400EEE70C4B43F8375003EBC7035E607B1C7B
:10B6D400074A136002E00E2700E004273846F8BD4D
:10B6E4000E27FBE70B27F9E70F27F7E70F27F5E707
:10B6F400983D00209C3D0020084B196861B110B5AD
:10B7040004E0064804F0D1F8214624B10C680B7912
:10B71400002BF9D0F5E710BD704700BFC83F0020EB
:10B7240038B5054630B1104B1C68ACB10F4B012243
:10B734001A7004E07846FBF7C5FDF4E724683CB1D1
:10B744002379002BFAD154F8043C28469847F5E7AE
:10B75400064B1B78022B00D038BDFFF7CDFF034BFF
:10B7640000221A70F8E700BFC83F0020C43F002041
:10B7740010B5044630B100232372211D034804F0A0
:10B7840069F810BD7846FBF79DFDF4E7C83F00203B
:10B7940010B5044658B10A4B1B78013BDBB2012BB0
:10B7A40009D8074B02221A700123237210BD784670
:10B7B400FBF788FDEFE7211D024804F076F8F5E772
:10B7C400C43F0020C83F00200A8883689B5A07337F
:10B7D4009BB223F0030313449BB20288043A9342BE
:10B7E40000D900230B80704710B582B004468368EB
:10B7F400C91AADF806100DF10601FFF7E5FFBDF813
:10B804000630A068184402B010BD0088043880B225
:10B81400704743888268D018D152012383707047DF
:10B82400826800239370438083807047073189B214
:10B8340021F0030189B2428883889A4204D29B1A78
:10B8440099421EDC0020704710B59A420FD9048833
:10B85400A41AA14217D98B4217D3032C03D98368A6
:10B86400134404229A7000234380184604E082683B
:10B8740013449B780BB1042010BDFFF7D1FF0020C7
:10B88400FAE7042070470020F6E70420F4E738B50F
:10B8940004460D468368828813448B4202D078465E
:10B8A400FBF710FD0023AB70211D2046FFF78CFF32
:10B8B400A288A36813449B78042B00D038BD0023CE
:10B8C400A380FBE710B50C468368428813448B427F
:10B8D40002D07846FBF7F6FC0023A37010BD70B5C8
:10B8E400064615460C46002944D0002E46D0B4F135
:10B8F400005F08D94FF08053D3F80C3103F50023CF
:10B90400B4EB832F0ED3B4F5000F08D94FF0805356
:10B91400D3F80C3103F50053B4EB832F02D37846EC
:10B92400FBF7D0FC6B1E2344B3F1005F08D94FF042
:10B934008052D2F80C2102F50022B3EB822F0ED3F1
:10B94400B3F5000F08D94FF08052D2F80C2102F55C
:10B954000052B3EB822F02D37846FBF7B3FC042DDD
:10B9640010D9358000237380B380B460043D2580F2
:10B97400A37070BD7846FBF7A5FCB6E77846FBF7E5
:10B98400A1FCB4E77846FBF79DFCEAE738B504462A
:10B99400A0B16288A36813449B78012B12D0EFF303
:10B9A400108572B6A388A16819448B78032B0DD037
:10B9B4002046FFF735FF05B962B638BD7846FBF778
:10B9C40081FCE6E77846FBF77DFCE8E72046FFF7D5
:10B9D4000BFFA368C31A638000238370EBE72DE990
:10B9E400F0410E4615460446D0B1EEB16288A36814
:10B9F40013449B78012B1BD025B32046FFF705FF8A
:10BA0400A84221D3EFF3108872B629462046FFF7E7
:10BA14000DFF074680B1B8F1000F16D162B614E0ED
:10BA24007846FBF74FFCE0E77846FBF74BFCDDE795
:10BA34007846FBF747FCDFE729462046FFF7E9FE97
:10BA44003060E8E7092700E009273846BDE8F081BF
:10BA5400F8B50C4616460546E0B1FCB1A378012BB7
:10BA640020D12388B34221D326B3EFF3108772B6D3
:10BA740026800223A370E9182846FFF7A5FE6B88E9
:10BA8400AA88934203D0AA68134400229A7007B983
:10BA940062B6F8BD7846FBF715FCDEE77846FBF79F
:10BAA40011FCDBE77846FBF70DFCDAE77846FBF799
:10BAB40009FCD9E77846FBF705FCD6E770B50D46D7
:10BAC400044690B1ADB1EFF3108672B6A288A368B4
