:020000022000DC
:102000000000042059220200B1220200B322020083
:10201000B5220200B7220200B9220200000000002F
:10202000000000000000000000000000BB220200D1
:10203000BD22020000000000BF220200C1220200F7
:102040008D4F0200457A0200C9220200495B02005E
:10205000CD220200CF220200616C0200D3220200D6
:10206000D5220200856C0200D9220200DB22020088
:10207000DD220200C1510200E1220200E32202003F
:10208000E52202007D3D0200E9220200EB2202006F
:10209000BD3D0200E95B0200015C0200195C020028
:1020A000315C0200495C020051780200F5800200B8
:1020B000FD220200FF220200C3220200C32202000E
:1020C000012302000323020005230200072302006C
:1020D000092302000B2302000D2302000F2302003C
:1020E000112302001323020015230200172302000C
:0820F000C322020019230200C3
:1020F800364937480A1A02D0072291438D46354996
:1021080035480A1A06D00722914381F3098802222A
:1021180082F3148831483249324A00F045F832488F
:102128003249334A00F040F832483349334A00F024
:102138003BF833483349344A00F036F833483449D9
:10214800344A00F031F834483449354A00F02CF864
:1021580034483549354A00F027F8354835490022D2
:1021680000F02DF834483549002200F028F83448AA
:102178003449091A082903DB00220260043001608F
:10218800314A90471F482049884205D002680430E8
:1021980003B4904703BCF7E700208646EC460020CE
:1021A80000212A4A9047FEE7884207D0521A05D0F4
:1021B800037801300B700131013AF9D17047884238
:1021C80002D002700130FAE77047000000000420D6
:1021D80000F8032000000420000004203CDD020079
:1021E80068000020440100201C2302001C23020078
:1021F80044C402003CDD02006800002068000020A2
:10220800E4C40200E4C40200E4C40200E4C402001E
:10221800E4C40200E4C40200E4C40200E4C402000E
:102228003CDD020018DE02004401002044010020C9
:1022380044010020EC130020EC130020EC130020D4
:10224800EC130020EC1500207D2202009D6C02009A
:102258000F484FF00701884385460E4880470E48CF
:10226800016841F470010160BFF34F8FBFF36F8FB6
:10227800FFF73EBF09480A490A4A884207D0521A5E
:1022880005D0037801300B700131013AF9D170475C
:10229800000004201D6E020088ED00E084C40200E6
:1022A8000800002068000020FEE7FEE7FEE7FEE7E2
:1022B800FEE7FEE7FEE7FEE7FEE7FEE7FEE7FEE7EE
:1022C800FEE7FEE7FEE7FEE7FEE7FEE7FEE7FEE7DE
:1022D800FEE7FEE7FEE7FEE7FEE7FEE7FEE7FEE7CE
:1022E800FEE7FEE7FEE7FEE7FEE7FEE7FEE7FEE7BE
:1022F800FEE7FEE7FEE7FEE7FEE7FEE7FEE7FEE7AE
:10230800FEE7FEE7FEE7FEE7FEE7FEE7FEE7FEE79D
:04231800FEE700BF1D
:10231C007047704700B583B001900091019B1B681A
:10232C001B6800990198984700BF03B05DF804FB47
:10233C0000B583B00190019B1B685B6801989847BE
:10234C0000BF03B05DF804FB82B001900B468DF822
:10235C000330019B9DF803201A7200BF02B0704736
:10236C0082B00190019B1B7A184602B0704782B074
:10237C000190019B01225A7200BF02B0704782B0DB
:10238C000190019B5B7A184602B0704710B487B07D
:10239C0001900091019B009A53E8004F44EA02001F
:1023AC0043E8000191F0000FF6D1059404900391DD
:1023BC00049B184607B05DF8044B704710B487B007
:1023CC0001900091019B009A53E8004F04EA02002F
:1023DC0043E8000191F0000FF6D1059404900391AD
:1023EC00059B184607B05DF8044B704700B583B0E9
:1023FC00019001210198FFF7C9FF0346184603B06D
:10240C005DF804FB00B583B0019000210198FFF743
:10241C00D5FF0346184603B05DF804FB00B587B042
:10242C0001901F4BFF229A601D4B00221A601C4B1F
:10243C0000225A601A4B0022C3F81824184B0022B1
:10244C00C3F81424164B002283F81C24154802F000
:10245C0077FA0490049B002B01D0049B1CE0124AD9
:10246C00124BD31ADB080393002305930FE0059A54
:10247C0013465B0013449B001A460D4B1344029306
:10248C00059B9AB2029B1A80059B01330593059A12
:10249C00039B9A42EBD30023184607B05DF804FB6C
:1024AC0014020020E4C4020084C4020044C40200EC
:1024BC0008000020024A034BD31ADB081846704769
:1024CC0084C4020044C4020000B587B001900B46DE
:1024DC008DF803309DF80330002B23D0FFF7EAFF73
:1024EC0004900023059317E0059A13465B001344F0
:1024FC009B001A460E4B13440393039B5B881A46AE
:10250C00019B1B689A4204D1019B059A1A60002317
:10251C0009E0059B01330593059A049B9A42E3D38A
:10252C00052300E00023184607B05DF804FB00BF4C
:10253C000800002000B585B001900B468DF80330E3
:10254C009DF8032001AB11461846FFF7BDFF03466B
:10255C00002B07D1019BDB00054A13440393039B1B
:10256C001B6800E00023184605B05DF804FB00BFB3
:10257C0044C4020084B001900B468DF80330019BDB
:10258C00DB00174A134402939DF80330013B032BE5
:10259C001CD801A252F823F0B5250200BD2502007B
:1025AC00C5250200CF25020000238DF80F3011E065
:1025BC0000238DF80F300DE0029B1B798DF80F3046
:1025CC0008E0029B5B798DF80F3003E000238DF857
:1025DC000F3000BF9DF80F30184604B0704700BF95
:1025EC0044C4020000B589B04148FFF7FFFE4148E2
:1025FC00FFF7FCFE404B5B6807933F4B9B680493D3
:10260C00079A049B134002339B003B4A1344043348
:10261C0006931BE0079B01330793069B5B88C3F370
:10262C0089139BB21A46069B1B88C3F389139BB272
:10263C0013441A46079B13440793079A049B1340B1
:10264C0002339B002C4A134404330693069B1B78DD
:10265C0003F00303DBB2002BDCD00023059311E065
:10266C00059B9B006A461A44079B591C07910499C9
:10267C000B40214902339B000B445B681360059BA4
:10268C0001330593059B012BEAD99DF80030C3F368
:10269C000103DBB2012B0CD0022B14D1BDF802309C
:1026AC00C3F389139BB203339B08079A1344079314
:1026BC000FE0BDF80030C3F38313DBB21A46079B5F
:1026CC001344079305E00D4940F24D1001F0D5FB82
:1026DC0000BF0848FFF796FE0390039B002B02D027
:1026EC00054A079B536000BF09B05DF804FB00BFAF
:1026FC002C060020280600201402002008C5020029
:10270C0010B586B00390029101920093009B5A1C65
:10271C000092089A134002339B00294A1344043355
:10272C000593059A1378012161F301031370039B40
:10273C0003F01003002B14BF01230023D9B2059A18
:10274C00137861F382031370039BDBB203F007036E
:10275C00D9B2059A137861F3C5031370019BDBB2F0
:10276C0003F00F03D9B2059A138861F38913138010
:10277C00029BC3F31501059A136861F39F23136041
:10278C00039B1B0CADF81230BDF81240FFF792FE04
:10279C0003469C4204D30B4940F2691001F06DFBD7
:1027AC00009B5A1C0092089A1340BDF81220044951
:1027BC0002339B000B445A60009B184606B010BDB8
:1027CC001402002008C5020000B589B001900091E8
:1027DC00019B023306930223059301238DF81330DA
:1027EC00002001F003FB194B1A68009B1A60174B71
:1027FC009A68164B5968154B1B68CB1A1344013356
:10280C000793069A059B134403930BE0FFF7EAFE2C
:10281C000E4B9A680D4B59680C4B1B68CB1A134422
:10282C0001330793039A079B9A42EFD8074B1A6818
:10283C00069B1344054A1360002001F0EBFA9DF847
:10284C001330184609B05DF804FB00BF14020020D9
:10285C0000B58BB005900491039202931E4B9B68BC
:10286C00089307AB19460298FFF7AEFF0346002BFF
:10287C0023D0079A089B00931346029A0499059853
:10288C00FFF73EFF034607930023099311E0079BD4
:10289C005A1C0792089A1340099A920003990A4409
:1028AC0012680D4902339B000B445A60099B01339B
:1028BC000993099A029B9A42E9D3074B93F81C346B
:1028CC00002B05D000BF00F063F80346002BFAD1B3
:1028DC0000BF0BB05DF804FB1402002000B583B000
:1028EC00019000910023002200990198FFF7B0FF9E
:1028FC0000BF03B05DF804FB00B587B003900291F4
:10290C000192019B059305AA012302990398FFF7F5
:10291C009FFF00BF07B05DF804FB00B587B00390C4
:10292C00029101920093019B0493009B059304AACE
:10293C00022302990398FFF78BFF00BF07B05DF8E5
:10294C0004FB00B589B00390029101920093019BA6
:10295C000493009B05930A9B06930B9B079304AA75
:10296C00042302990398FFF773FF00BF09B05DF8C9
:10297C0004FB0000054B5A68044B1B689A420CBFC1
:10298C0001230023DBB21846704700BF140200205D
:10299C0000B597B0FFF7EEFF0346002B01D00023E4
:1029AC009FE19D4B0022C3F81824BFF34F8F9A4B25
:1029BC005B681593984B9B680E93159A0E9B13406E
:1029CC0002339B00944A134404331493002313934F
:1029DC000023129300230D931BE0159B01331593D9
:1029EC00149B5B88C3F389139BB21A46149B1B88F8
:1029FC00C3F389139BB213441A46159B13441593C6
:102A0C00159A0E9B134002339B00834A13440433E4
:102A1C001493149B1B7803F00303DBB2002BDCD064
:102A2C000023119311E0119B9B006A461A44159BDD
:102A3C00591C15910E990B40774902339B000B449E
:102A4C005B681360119B01331193119B012BEAD925
:102A5C009DF8003003F00303DBB2022B40F09C80A6
:102A6C00BDF80230C3F389139BB20C93BDF802304E
:102A7C00C3F389139BB2502BA8BF50230B930B9B12
:102A8C009BB2C3F309039AB2BDF8023062F38F1301
:102A9C00ADF802300B9B08330A939DF80030C3F35A
:102AAC00C203DBB20D930A995C4801F054FF1390FA
:102ABC00139B002B00F0D480139801F0DCFF6946C7
:102ACC00129B0822139802F07FF8129B0833129382
:102ADC00159BDA430E9B134001339B0009930B9A11
:102AEC00099B9A4242D9099B002B08D0159A0E9B40
:102AFC00134002339B00484A1344043300E0484B14
:102B0C000893099B002B02D0099BDBB201E00B9BC5
:102B1C00DBB28DF81F30099B002B01D0404B00E03D
:102B2C0000230693099B002B06D00B9BDAB2099B62
:102B3C00DBB2D31ADBB200E000238DF817309DF81E
:102B4C001F20129B0899139802F03EF89DF81F3035
:102B5C00129A13441293069B002B16D09DF8172043
:102B6C00129B0699139802F02FF80EE0159A0E9B03
:102B7C00134002339B00284A134404330493129BE2
:102B8C000B9A0499139802F01FF80C9B03339B08C3
:102B9C00159A1344159363E09DF8003003F003037A
:102BAC00DBB2012B5CD1BDF80030C3F38313DBB275
:102BBC00062B28BF0623DBB203F00F03DAB2BDF8F5
:102BCC00003062F38913ADF80030BDF80030C3F368
:102BDC008313DBB2023303939DF80030C3F3C203BB
:102BEC00DBB20D93039B9B0019460C4801F0B3FE1E
:102BFC001390139B002B33D0139801F03CFF6946C4
:102C0C00129B0822139801F0DFFF129B08331293DA
:102C1C00002311931BE000BF14020020E4C4020047
:102C2C0020020020159B5A1C15920E9A1340023359
:102C3C009B002E4A1344191D129B0422139801F079
:102C4C00C3FF129B04331293119B01331193BDF8F4
:102C5C000030C3F38313DBB21A46119B9A42E1D8BE
:102C6C00139B002B37D0214BD3F8103410931F4BF0
:102C7C00D3F81834002B1AD0139801F00BFF2AE06C
:102C8C0000238DF83F301098FFF779FB0346002B9B
:102C9C0002D001238DF83F309DF83F30002B03D03C
:102CAC0013991098FFF736FB109B5B681093109BE1
:102CBC00002BE5D1139801F0EDFE002001F096F801
:102CCC000A4BD3F81834002B02D1084A159B5360D9
:102CDC00002001F09FF8FFF74DFE034683F001033F
:102CEC00DBB2184617B05DF804FB00BF14020020DD
:102CFC0000B585B00023039322E0164BD3F81034B3
:102D0C00029301238DF807300EE00298FFF728FBA1
:102D1C0003461A46039B9A4203D100238DF80730D1
:102D2C0005E0029B5B680293029B002BEDD19DF8A2
:102D3C000730002B01D0039B07E0039B0133039367
:102D4C00039B092BD9DD4FF0FF33184605B05DF816
:102D5C0004FB00BF1402002000B585B001900B46A7
:102D6C008DF80330FFF7C4FF0390039BB3F1FF3FD3
:102D7C0001D1039B1EE0039BDBB219460198FFF7C0
:102D8C00E3FA0E4BD3F81034002B07D10B4A019BFE
:102D9C00C2F81034019B00225A600AE0074BD3F8AA
:102DAC0010345A68019B5A60044BD3F81034019AC2
:102DBC005A60039B184605B05DF804FB1402002012
:102DCC0000B583B00C4BD3F8103401930A4B01229D
:102DDC0083F81C2408E00198FFF7C9FA0198FFF763
:102DEC00A7FA019B5B680193019B002BF3D100BFF9
:102DFC0003B05DF804FB00BF1402002010B582B0D4
:102E0C0001900091019BDB7983F00103DBB2002B75
:102E1C0028D0019B1B7A002B12D0019B9B881A4651
:102E2C00019B9B7919461046FFF7A4FB03461A46F3
:102E3C000E4B53F822301A460D49009801F052F906
:102E4C00019B9B791A460B4B53F82240019B9B88A4
:102E5C0000211846FFF76EFB0346224606490098F0
:102E6C0001F040F900BF02B010BD00BF7C00002093
:102E7C00F0C5020068000020F4C5020000B585B062
:102E8C000390029113468DF80730039BDB7983F096
:102E9C000103DBB2002B0FD0039B1B7A002B06D057
:102EAC000D4B1B681A460D49029801F01BF90C4991
:102EBC00029801F017F907E09DF80730002B03D0BA
:102ECC000749029801F00EF9029801F0E9F800BFE9
:102EDC0005B05DF804FB00BF7C000020F0C50200CB
:102EEC0000C6020030B58BB0079006910592049392
:102EFC000E9B1B7B8DF827300E9B00221A730E99AC
:102F0C000498FFF77BFF059B062B7FD801A252F894
:102F1C0023F000BF3D2F0200472F0200572F020065
:102F2C006B2F0200892F0200B12F0200E12F02004B
:102F3C0007990E9801F0D6F869E0069B1B681A46B3
:102F4C0007990E9801F0CEF861E0069B1A68069B73
:102F5C0004331B6807990E9801F0C4F857E0069BE0
:102F6C001A68069B04331968069B08331B68009388
:102F7C000B4607990E9801F0B5F848E0069B1968C6
:102F8C00069B04331868069B08331B68069A0C32A0
:102F9C0012680192009303460A4607990E9801F0B5
:102FAC00A1F834E0069B1868069B04331C68069B4A
:102FBC0008331B68069A0C3212680699103109689E
:102FCC000291019200932346024607990E9801F054
:102FDC0089F81CE0069B1C68069B04331D68069B45
:102FEC0008331B68069A0C3212680699103109686E
:102FFC0006981430006803900291019200932B46BE
:10300C00224607990E9801F06DF800E000BF0022EF
:10301C000E990498FFF732FF0E9B9DF827201A7328
:10302C0000BF0BB030BD00BF00B587B0039002915C
:10303C0001920093029B082B5CD8009B1B7B8DF8A4
:10304C001330009B00221A7300990198FFF7D6FEEB
:10305C000023059314E0059A029B9A4209D2039A25
:10306C00059B13441B781A462449009801F03AF842
:10307C0003E02349009801F035F8059B01330593D3
:10308C00059B072BE7D91F49009801F02BF800236B
:10309C00059322E0059A029B9A4217D2039A059B4C
:1030AC0013441B788DF812309DF81230184608F036
:1030BC00C8FC0346002B02D09DF8123000E02E23F2
:1030CC001A461149009801F00DF803E00F490098D9
:1030DC0001F008F8059B01330593059B072BD9D903
:1030EC00012200990198FFF7C9FE009B9DF813205F
:1030FC001A7300E000BF07B05DF804FB04C60200C1
:10310C000CC6020010C6020014C6020018C602004B
:10311C0008B504F093F900BF08BD00B589B0039061
:10312C0002910192019B002B22D0002307930A23CA
:10313C000693029A079B1344019A1946002004F047
:10314C0011F90590079A059B13440793019A059B67
:10315C00D31A0193059B002B05D1069B013B0693CB
:10316C00069B002B03D0019B002BE2D100E000BF9B
:10317C0000BF09B05DF804FB00B585B00390029167
:10318C00054B00934023054A0299039800F012F86E
:10319C0000BF05B05DF804FB2731020034060020A7
:1031AC0082B0019000BF02B0704782B0019000BFA6
:1031BC0002B0704700B5A1B0059004910392029340
:1031CC00049801F058FC039B1593029B1693002363
:1031DC00179300238DF8603000231993229B1A93C8
:1031EC0000231F930FA91F9B0822049801F0FEFCDB
:1031FC0008231F93119B1293109B9BB2ADF84C307C
:10320C0000238DF850309DF83C3003F00303DBB203
:10321C00012B32D10F9BC3F395231D939DF83C30AA
:10322C00C3F3C203DBB28DF84E309DF83C30C3F3D0
:10323C008003DBB2002B14BF01230023DBB28DF81B
:10324C004F30BDF83C30C3F38313DBB21C931C9B93
:10325C009A0009A91F9B049801F0C8FC1C9B9B00B9
:10326C001F9A13441F9312AA09A915AB0093134676
:10327C001C9A1D98FFF736FE3BE09DF83C3003F09E
:10328C000303DBB2022B34D1BDF83E30C3F38913F8
:10329C009BB21E939DF83C30C3F3C203DBB28DF896
:1032AC004E309DF83C30C3F38003DBB2002B14BFCF
:1032BC0001230023DBB28DF84F301E9B082B28BF57
:1032CC0008231B9307A91F9B1B9A049801F08EFCE3
:1032DC001F9A1B9B13441F931E9A1B9BD31A1E935E
:1032EC0015AB12AA07A81B99FFF79EFE1E9B002B7D
:1032FC00E3D1049801F0CEFB00BF21B05DF804FBD4
:10330C0082B00190019B01225A7200BF02B070473B
:10331C0000B583B04FF0FF330193FFF7F9FE0421A2
:10332C000848FFF719FD0190019B002B03DA0649B1
:10333C00412000F0A2FD0348FFF7E2FF00BF03B0FD
:10334C005DF804FBA000002028C6020000B589B07F
:10335C00039002910192029B9BB2ADF81430019B39
:10336C000693039B079305AB1A46002144F2010018
:10337C0000F050F800BF09B05DF804FB86B0039074
:10338C000291019201238DF817309DF81730204AD5
:10339C00039B13601E4A029B53601D4A019B936062
:1033AC00039B44F20102934212D044F20202934274
:1033BC0022D1019B164AD360154BDB681B881A4639
:1033CC00134B9A61124BDB685B68114AD36113E0B3
:1033DC00019B0F4A13610E4B1B699B680C4A53618E
:1033EC000B4B1B691B881A46094B9A61084B1B69CE
:1033FC005B68074AD36100BF72B600BF9DF81730F7
:10340C00DBB2002BFAD162B600BF06B0704700BF2A
:10341C007406002030B589B0059004910392FFF733
:10342C00CFFC00BFFFF7B4FA0346002BFAD1059B83
:10343C0044F20102934213D044F2020293422DD182
:10344C00039B0793224B1B881B0443F00100079B33
:10345C005B681A46079B1B881E49FFF75EFA28E03B
:10346C00039B06931A4B1B881B0443F00104069B19
:10347C009D68069B9B68184601F0D4FC03461946D0
:10348C00069B5B681A46069B1B88019300920B46B1
:10349C002A4611492046FFF754FA0AE00C4B1B88C8
:1034AC001B0443F00103049A0C491846FFF724FA55
:1034BC0000BF0B4B1B6803F00103002B00D0FFDE99
:1034CC00039A04990598FFF759FF00BF09B030BD66
:1034DC0008000020B0C60200CCC60200E4C6020000
:1034EC00F0ED00E082B003468DF8073007499DF9F6
:1034FC0007305B099DF8072002F01F02012000FA3B
:10350C0002F241F8232000BF02B0704700E100E056
:10351C0082B003468DF8073008499DF907305B09E6
:10352C009DF8072002F01F02012000FA02F220335E
:10353C0041F8232000BF02B0704700BF00E100E05B
:10354C0082B003468DF8073008499DF907305B09B6
:10355C009DF8072002F01F02012000FA02F240330E
:10356C0041F8232000BF02B0704700BF00E100E02B
:10357C0082B003468DF8073008499DF907305B0986
:10358C009DF8072002F01F02012000FA02F26033BE
:10359C0041F8232000BF02B0704700BF00E100E0FB
:1035AC0084B00190244B0393019B002B40D0234B00
:1035BC001A680399019B00BF00BF00BF00BF00BF8A
:1035CC0000BF00BF00BF8A422FD000BF00BF00BFAA
:1035DC0000BF00BF00BF00BF00BF00BF00BF00BFE7
:1035EC0000BF00BF00BF00BF00BF00BF00BF00BFD7
:1035FC0000BF00BF00BF00BF00BF00BF00BF00BFC7
:10360C0000BF00BF00BF00BF00BF00BF00BF00BFB6
:10361C0000BF00BF00BF00BF00BF00BF00BF00BFA6
:10362C0000BF00BF00BF00BF00BF013BC3D101936F
:10363C0000BF04B0704700BF0024F400C400002099
:10364C0008B50D4B4FF48032C3F844230A4B4FF4AA
:10365C008032C3F804231120FFF78AFF1120FFF7F3
:10366C0041FF054B01221A602F20FFF799FF034BF6
:10367C0001221A7000BF08BD00100140B2070020E3
:10368C0008B51120FFF744FF0E4B4FF48032C3F8FE
:10369C0048230C4B4FF48032C3F80823094B01220A
:1036AC005A602F20FFF77CFF064B01229A60064BD5
:1036BC0000221A602F20FFF773FF044B00221A70B0
:1036CC0000BF08BD00100140A4070020B207002075
:1036DC00024BD3F804351846704700BF0010014068
:1036EC0082B001900091019A009BD31A23F07F4382
:1036FC00184602B07047000082B00190034A019B4B
:10370C00C2F8403500BF02B0704700BF0010014046
:10371C0086B00190284B1B68002B03D1264A019BD5
:10372C00136045E0019B1A68234B1B681B689A4287
:10373C0010D8214B1B68204A12681168019A126834
:10374C008A1A1A601C4B1A68019BDA611A4A019B8F
:10375C0013602DE0019B1B680393174B1B680593AB
:10376C00154B1B68049309E0049B1B68039AD31A3E
:10377C000393049B0593049BDB690493049B002B2C
:10378C0004D0049B1A68039B9A42EDD3049B002B34
:10379C0005D0049B1A68039BD21A049B1A60019BE8
:1037AC00039A1A60019B049ADA61059B019ADA610B
:1037BC0000BF06B0704700BFA007002000B587B05F
:1037CC0001902A4B1B680393284B1B680593059BA0
:1037DC00049308E0049A019B9A4208D0049B059339
:1037EC00049BDB690493049B002BF3D100E000BF26
:1037FC00049B002B01D1002333E0059A049B9A42D1
:10380C0014D11A4B1B68DB69184A1360174B1B68E1
:10381C00002B0BD1164B01229A60164B00221A601A
:10382C00154B01221A702F20FFF7BAFE049B1B6860
:10383C000293049BDA69059BDA61059BDB690493AF
:10384C00049B002B05D0049B1A68029B1A44049B12
:10385C001A60064B1B68039A9A4214BF012300237B
:10386C00DBB2184607B05DF804FB00BFA0070020D0
:10387C0000100140A4070020B307002008B5112058
:10388C00FFF75EFE00BF08BD08B51420FFF758FE19
:10389C0000BF08BD00B583B00190019B5B69019A24
:1038AC0092691046984700BF03B05DF804FB000016
:1038BC0000B585B02B4B1B68002B4ED00023019319
:1038CC00FFF706FF0246284B1B6819461046FFF708
:1038DC0007FF0290234B1B6803931DE0039B1A68A0
:1038EC00029B9A421CD8039B1B68029AD31A029320
:1038FC00039B1B68019A13440193039B0093039B46
:10390C00DB690393009B1B7C002B05D0009B0022E2
:10391C001A740098FFF7BEFF039B002BDED100E06A
:10392C0000BF124B1A78124B1B789A420CD1104BD9
:10393C001B780133DAB20E4B1A700D4B1B78022B2D
:10394C0002D10B4B00221A70094B1B781946094AFD
:10395C00019B42F82130FFF797FF00BF05B05DF8DF
:10396C0004FB00BFA0070020A4070020B007002024
:10397C00B1070020A807002082B00190184B1A78DC
:10398C00184B1B789A4223D0154B1B780133DAB2B3
:10399C00134B1A70124B1B78022B02D1104B0022C6
:1039AC001A700F4B1B781A460F4B53F82220019BB1
:1039BC001A60019B1A680D4B1B6813440B4A136069
:1039CC000A4B1B6823F07F43084A1360012303E072
:1039DC00019B00221A600023184602B0704700BFFA
:1039EC00B0070020B1070020A8070020A407002082
:1039FC0088B00390029101920023079338E0204B8A
:103A0C001B680693069B1A68039B9A4206D9069B71
:103A1C001A68039BD21A069B1A602DE0069B1B6842
:103A2C00039AD31A0393069B1B68079A13440793B4
:103A3C00069B00221A60124B1B680593069BDB69E0
:103A4C000F4A1360069BDB68002B11D0029A079B70
:103A5C00134423F07F42069B5A60069BDA68069B50
:103A6C009A60019B1A68069BDA61019B059A1A60A1
:103A7C00034B1B68002BC2D100BF08B0704700BFBE
:103A8C00A007002000B589B0019000238DF81F30ED
:103A9C00664B1B680593AAE0019B002B05D0019B8C
:103AAC000693069BDB69019361E0614B1B781A4618
:103ABC0013465B001344DB005D4A13440433049348
:103ACC005B4B1B780133DAB2594B1A70584B1A788E
:103ADC00574B9B789A4202D1554B00221A70049B8B
:103AEC005B680693049B1B78022B04D0032B1BD022
:103AFC00012B1FD01DE0049B5B681846FFF75EFE90
:103B0C000346002B02D001238DF81F30069B0022A8
:103B1C001A746CE0454B1B680393039B00221A74C8
:103B2C00039BDB69414A1360404B1B68002BF1D1AE
:103B3C005DE05CE000BF069B1B7C002B00D056E0D8
:103B4C00049B9A68069B5A60049BDA68069B9A60F1
:103B5C00049B1A69069BDA60049B5A69069B9A615E
:103B6C00344B1B78002B02D0069B00225A60069B1C
:103B7C005A68314B1B68D31A23F07F432F4A934268
:103B8C000ED8069B5A682C4B1B6819461046FFF73B
:103B9C00A7FD0246069B9B681A44069B1A6017E019
:103BAC00254B1A68069B5B6819461046FFF798FD73
:103BBC000290069B9A68029B9A4206D9069B9A68C9
:103BCC00029BD21A069B1A6002E0069B00221A6026
:103BDC00069B00225A60069B00229A60069B0122DB
:103BEC001A74069B0022DA610698FFF791FD019B7F
:103BFC00002B7FF451AF0E4B1A780D4B5B789A4229
:103C0C007FF44AAF9DF81F30002B04D1074B1A6884
:103C1C00059B9A4201D0012300E0002303F001032D
:103C2C00DBB2184609B05DF804FB00BFA00700200A
:103C3C0094060020B3070020A4070020FEFF7F009D
:103C4C0010B588B00190274B1B68002B44D0254B36
:103C5C001B681B680793FFF73BFD0690224B1B6804
:103C6C00059305990698FFF73BFD03460333049330
:103C7C001E4B1B7883F00103DBB2002B01D0FFF746
:103C8C00DFFC049A079B934238BF1346059A1344F2
:103C9C000593059B23F07F4305930598FFF72CFDB7
:103CAC00FFF716FD039006990398FFF719FD0346DD
:103CBC00DC1C06990598FFF713FD03469C420DD9B1
:103CCC00FFF706FD03461846FFF716FD2F20FFF7FA
:103CDC0067FCFFF7D3FD01E0FFF7D2FC00BF08B093
:103CEC0010BD00BFA0070020A4070020B2070020D1
:103CFC0000B587B00023019300238DF81730194BC2
:103D0C001B680493184B1B6803936B461846FFF70C
:103D1C0033FE03468DF80B309DF80B30002B08D08A
:103D2C00009B01AA04991846FFF762FE01238DF847
:103D3C001730019B1846FFF7A5FE0346002B02D057
:103D4C0001238DF817309DF81730002B02D0039803
:103D5C00FFF776FF054B00221A7000BF07B05DF825
:103D6C0004FB00BFA4070020A0070020B30700201D
:103D7C0008B50E4B0022C3F840210C4B0022C3F8AF
:103D8C0044210A4B0022C3F84821084B0022C3F8F7
:103D9C004C21064B0022C3F80021044B0022C3F82F
:103DAC000421FFF785FD00BF08BD00BF00100140D6
:103DBC0008B5FFF79DFF00BF08BD000072B6034BAE
:103DCC001B680133014A136000BF7047B407002021
:103DDC00054B1B68013B044A1360034B1B68002B0B
:103DEC0000D162B600BF7047B407002000B583B0A5
:103DFC00019000F025F80346012B03D00449432021
:103E0C0000F03BF8FFF7DAFF00BF03B05DF804FBEE
:103E1C00FCC6020000B583B003468DF8073000F0F5
:103E2C000FF80346012B03D00449512000F025F86C
:103E3C00FFF7CEFF00BF03B05DF804FBFCC6020029
:103E4C0084B0EFF305830193019BC3F30803039341
:103E5C00039B002B0DD1EFF314830093009B029373
:103E6C00029B03F00103002B0CBF01230023DBB2E8
:103E7C0000E00123184604B0704700B585B0034636
:103E8C000091ADF80630BDF80630ADF80830009B57
:103E9C00039302AB1A46002144F20200FFF7BAFA70
:103EAC0000BF05B05DF804FB00B583B001900B4674
:103EBC008DF80330019B002B03D10849AF20FFF78D
:103ECC00DCFF019BDA689DF803300199098A01FB3C
:103EDC0003F31344184603B05DF804FB80C70200DB
:103EEC0000B583B001900091019B002B03D10849D0
:103EFC00BC20FFF7C2FF009B019AD2689B1A019A63
:103F0C00128AB3FBF2F3DBB2184603B05DF804FB84
:103F1C0080C7020000B585B00190019B002B01D138
:103F2C000E2349E0019B1B68002B03D12449C620BA
:103F3C00FFF7A3FF019B5B68002B03D12049C7202F
:103F4C00FFF79BFF019B9B68002B03D11C49C820EA
:103F5C00FFF793FF019BDB68002B03D11849C920A5
:103F6C00FFF78BFF019B1B8A002B03D11449CA203E
:103F7C00FFF783FF019B9B681A46019B5B68D31A72
:103F8C008DF80F30019B1B68019A52681A6007E08C
:103F9C00019B1A681368591C11609DF80F201A7048
:103FAC009DF80F305A1E8DF80F20002BF0D1019B7D
:103FBC001B6800221A710023184605B05DF804FB3B
:103FCC0080C7020000B585B00190019B002B03D186
:103FDC001C49EC20FFF751FF002303930020FFF74F
:103FEC0005FF019B1B681A68019B5B689A4220D9EC
:103FFC00019B1B681A68013A1A601B681B781946EA
:10400C000198FFF751FF0390019B9B681A46019B97
:10401C001B681B68D31A8DF80B30019B1B681B792E
:10402C009DF80B209A4204D9019B1B689DF80B202C
:10403C001A710020FFF7EEFE039B184605B05DF8E1
:10404C0004FB00BF80C7020010B584B00190009142
:10405C00019B002B04D111494FF48870FFF70DFF21
:10406C00009B002B04D10D4940F21110FFF705FF06
:10407C00009B03930020FFF7B9FE019B1B681C6893
:10408C00621C1A6003990198FFF72AFF03462370FC
:10409C000020FFF7BFFE00BF04B010BD80C70200B8
:1040AC0000B583B00190019B002B03D10C4931204A
:1040BC00FFF7E3FE019B9B68002B0CD0019B5B6917
:1040CC00019A1069019A1168019A92689847019BAC
:1040DC0000229A6000E000BF03B05DF804FB00BF53
:1040EC00ECC702000EB400B584B00190019B002B0C
:1040FC0003D118494220FFF7C0FE019B5B69002BDE
:10410C0003D114494320FFF7B8FE019B1B68002B19
:10411C0003D110494420FFF7B0FE019B5B68002BD4
:10412C0003D10C494520FFF7A8FE059B002B0AD0B4
:10413C000023039306AB039303AB1A46059901982E
:10414C0000F0B0F900E000BF04B05DF804EB03B080
:10415C00704700BFECC7020000B583B001900B465E
:10416C008DF80330019B1A68019B9B68581C0199C0
:10417C00886013449DF803201A70019B9A68019B78
:10418C005B689A4202D30198FFF78AFF00BF03B025
:10419C005DF804FB00B587B0039002910192009387
:1041AC0000230593009B03F00103002B24D00BE0AC
:1041BC00029B01330293059B013305939DF8133049
:1041CC0019460398FFF7C8FF029B1B788DF8133034
:1041DC009DF81330002BEBD106E0019B013B0193C2
:1041EC0020210398FFF7B8FF019A059B9A422ED91C
:1041FC00019B002BF1D12AE0029B002B0BD00298E3
:10420C0007F05CFD059006E0019B013B019320212A
:10421C000398FFF7A1FF019A059B9A420FD9019BC6
:10422C00002BF1D10BE0029B01330293059B013370
:10423C0005939DF8133019460398FFF78DFF029BE9
:10424C001B788DF813309DF81330002BEBD100BF89
:10425C0007B05DF804FB000000B589B00390029133
:10426C0001920093029B07930123069307E0079AA0
:10427C00019BB2FBF3F30793069B01330693079A5A
:10428C00019B9A42F3D2009A069B9A4201D9009B59
:10429C0006930B9B03F00103002B22D10A9B002BEE
:1042AC001FD00B9B03F00203002B06D0009B002BAE
:1042BC0003D130238DF8173002E020238DF817300E
:1042CC0008E00A9B013B0A939DF8173019460398A6
:1042DC00FFF742FF0A9B002B03D0069A0A9B9A42D7
:1042EC00EFD301230793009B012B03D9009B013BC8
:1042FC00009309E0029A079BB2FBF3F30493049A30
:10430C00019B9A4200D205E0079B019A02FB03F342
:10431C000793E8E7029A079BB2FBF3F30493049B21
:10432C00079A02FB03F3029AD31A0293154A049BD1
:10433C0013441B7819460398FFF70EFF079A019B4D
:10434C00B2FBF3F30793079B002BE3D10B9B03F01A
:10435C000103002B11D00A9B002B0ED006E00A9B08
:10436C00013B0A9320210398FFF7F6FE0A9B002BD2
:10437C0003D0069A0A9B9A42F1D300BF09B05DF8AC
:10438C0004FB00BFB4C8020000B589B005900491CD
:10439C0003920293049B002BB8BF5B42069301234C
:1043AC00079307E0039B069A92FBF3F30693079B94
:1043BC0001330793039B069A9A42F3DA029A079BFE
:1043CC009A4201D9029B07930A9B002B0AD0049BAB
:1043DC00002B04DB0B9B03F00403002B02D00A9B85
:1043EC00013B0A930B9B03F00203002B02D0029BB0
:1043FC00002B16D00B9B03F00103002B11D10A9B51
:10440C00002B0ED006E00A9B013B0A932021059855
:10441C00FFF7A2FE0A9B002B03D0079A0A9B9A4235
:10442C00F1D3049B002B07DA049B5B4204932D21F0
:10443C000598FFF791FE08E00B9B03F00403002B9B
:10444C0003D02B210598FFF787FE0B9B03F002038B
:10445C00002B19D00B9B03F00103002B14D1029BF2
:10446C00002B11D10A9B002B0ED006E00A9B013BBE
:10447C000A9330210598FFF76FFE0A9B002B03D09F
:10448C00079A0A9B9A42F1D304990B9B01930A9BBE
:10449C000093029B039A0598FFF7DEFE00BF09B05C
:1044AC005DF804FB00B58FB0059004910392059B59
:1044BC00002B04D1C8494FF49F70FFF7DEFC059B1D
:1044CC005B69002B04D1C4494FF4A070FFF7D5FCF5
:1044DC00059B1B68002B04D1BF4940F24110FFF72C
:1044EC00CCFC059B5B68002B04D1BB494FF4A1703D
:1044FC00FFF7C3FC049B002B00F0ED81049B1B78A1
:10450C008DF83730049B013304939DF83730002B22
:10451C0000F0D8819DF83730252B40F0C78100235F
:10452C000A9301230C93049B1B788DF837309DF86C
:10453C0037302D2B04D0302B0AD02B2B10D017E07A
:10454C000A9B43F001030A93049B0133049312E08A
:10455C000A9B43F002030A93049B013304930AE081
:10456C000A9B43F004030A93049B0133049302E077
:10457C0000230C9300BF0C9B002BD4D10023099378
:10458C009DF837302A2B0CD1039B1B68191D039AFD
:10459C0011601B68099A13440993049B013304931B
:1045AC001AE0049B1B788DF837309DF837302F2B91
:1045BC0012D99DF83730392B0ED8049B0133049354
:1045CC00099A13469B0013445B001A469DF837303A
:1045DC001344303B0993D3E700230B93049B1B78C4
:1045EC008DF837309DF837302E2B1DD1049B0133BD
:1045FC000493049B1B788DF837309DF837302F2BA4
:10460C0012D99DF83730392B0ED8049B0133049303
:10461C000B9A13469B0013445B001A469DF83730E7
:10462C001344303B0B93E4E7049B1B788DF8373035
:10463C009DF837306C2B03D09DF83730682B07D1A1
:10464C00049B01330493049B1B788DF83730EFE700
:10465C009DF83730253B532B00F2238101A252F8F1
:10466C0023F000BFA5480200AF480200AF4802008B
:10467C00AF480200AF480200AF480200AF4802004A
:10468C00AF480200AF480200AF480200AF4802003A
:10469C00AF480200AF480200AF480200AF4802002A
:1046AC00AF480200AF480200AF480200AF4802001A
:1046BC00AF480200AF480200AF480200AF4802000A
:1046CC00AF480200AF480200AF480200AF480200FA
:1046DC00AF480200AF480200AF480200AF480200EA
:1046EC00AF480200AF480200AF480200AF480200DA
:1046FC00AF480200AF480200AF480200AF480200CA
:10470C00AF480200AF480200AF480200AF480200B9
:10471C00AF480200AF480200AF480200AF480200A9
:10472C00AF480200AF480200AF480200AF48020099
:10473C0031480200AF480200AF480200AF48020007
:10474C00AF480200AF480200AF480200AF48020079
:10475C00AF480200AF480200AF480200C147020058
:10476C00E9470200AF480200AF480200AF48020020
:10477C00AF480200E9470200AF480200AF48020010
:10478C00AF480200AF480200AF480200AF48020039
:10479C0071480200AF480200AF48020055480200C1
:1047AC00AF4802000D480200AF480200AF480200BB
:1047BC0031480200039B1B68191D039A11601B688A
:1047CC000C930C9B8DF823309DF8233019460598DB
:1047DC00FFF7C2FC66E000BF4CC80200039B1B68DD
:1047EC00191D039A11601B680C930A9B0193099B7A
:1047FC0000930B9B0A220C990598FFF7C5FD51E01D
:10480C00039B1B68191D039A11601B680C930C9970
:10481C000A9B0193099B00930B9B0A220598FFF7B7
:10482C001BFD3FE0039B1B68191D039A11601B685D
:10483C000C930C990A9B0193099B00930B9B1022E0
:10484C000598FFF709FD2DE0039B1B68191D039AC2
:10485C0011601B6807930A9B099A07990598FFF743
:10486C0099FC1FE0039B1B68191D039A11601B68C0
:10487C000C9330210598FFF76FFC78210598FFF712
:10488C006BFC0C990023019308230093082310223E
:10489C000598FFF7E1FC05E025210598FFF75CFC86
:1048AC0000E000BF049B0133049305E09DF8373012
:1048BC0019460598FFF750FC049B1B78002B7FF4DE
:1048CC001DAE00E000BF059B1B7B002B04D00598A0
:1048DC00FFF7E6FB00E000BF0FB05DF804FB00BF84
:1048EC0010B487B001900091019B009A53E8004FDF
:1048FC0004EB020043E8000191F0000FF6D105949F
:10490C0004900391049B184607B05DF8044B704764
:10491C0010B487B001900091019B009A53E8004FAE
:10492C00A4EB020043E8000191F0000FF6D10594CE
:10493C0004900391049B184607B05DF8044B704734
:10494C0000B583B001900198FFF7E4FA03461846CE
:10495C0003B05DF804FB00B58BB001900091019B96
:10496C001B8A043B0793009A079B1344DA1C079B92
:10497C00B2FBF3F38DF81B300198FFF723FB059086
:10498C00059B002B01D1002338E0059B00221A71F6
:10499C00059B01225A71079B9AB2059BDA80059BF5
:1049AC0009939DF81B30013B0493099B019A1A60F3
:1049BC00002308931DE00198FFF704FB0390039B71
:1049CC00002B0ED0059B5B790133DAB2059B5A7133
:1049DC00099B039A1A60039B019A1A60039B099323
:1049EC0004E0059800F00EF8002307E0089B013363
:1049FC000893089A049B9A42DDD3059B18460BB08A
:104A0C005DF804FB00B58BB00190019B0793079BED
:104A1C005B798DF81B30019B08939DF81B30013B93
:104A2C0005930023099305E0089B1B680893099BD9
:104A3C0001330993099A059B9A42F5D3089B1B688D
:104A4C000493019B0893002309930BE0089B1B68BC
:104A5C00039308990498FFF7F7FA039B0893099BB3
:104A6C00013309939DF81B20099B9A42EED800BF95
:104A7C000BB05DF804FB00B585B00190019B03936E
:104A8C00039B043301211846FFF72AFF00BF05B032
:104A9C005DF804FB00B587B00190019B0593059B65
:104AAC00043301211846FFF733FF0346039303AB8E
:104ABC000493049B1B78002B02D10198FFF7A2FFF3
:104ACC0000BF07B05DF804FB00B58DB003900291F8
:104ADC0001920093039B0693069BDB880593039B33
:104AEC000B93009B1A1D059BB2FBF3F30A93009BDF
:104AFC000433059AB3FBF2F2059901FB02F29B1AFF
:104B0C000993009A019B1A44059B1344DA1C059BDC
:104B1C00B2FBF3F38DF81330069B5B799DF81320F1
:104B2C009A420AD92749BA20FFF7A7F905E00B9B4F
:104B3C001B680B930A9B013B0A930A9B002BF6D133
:104B4C0000230893059A099BD31A0793079A019B94
:104B5C00934228BF134607932DE09DF83830002B65
:104B6C000BD0029A089BD0180B9A099B1344043360
:104B7C00079A194607F022F80AE00B9A099B13448E
:104B8C00181D029A089B1344079A194607F016F849
:104B9C00002309930B9B1B680B93019A079BD31A59
:104BAC000193089A079B13440893059A019B93421F
:104BBC0028BF13460793019B002BCED100BF0DB02D
:104BCC005DF804FBC4C8020000B587B005900491E1
:104BDC000392029300230093029B039A0499059875
:104BEC00FFF772FF00BF07B05DF804FB00B587B09C
:104BFC00059004910392029301230093029B039A64
:104C0C0004990598FFF760FF00BF07B05DF804FB3F
:104C1C0000B583B001900091019B002B03D1084992
:104C2C003620FFF72AF9019B9A68009B9A4202D919
:104C3C00009B013300E00023184603B05DF804FB31
:104C4C002CCA020084B00190019B1B681B68039363
:104C5C00019B1B685B680293029A039B9A4203D3E5
:104C6C00029A039BD31A06E0019B9A68039BD21A03
:104C7C00029B13440133184604B0704700B585B04D
:104C8C000190019B002B03D10D494920FFF7F5F84A
:104C9C00019B1B681B680393019B1B685B68029359
:104CAC0002990198FFF7B4FF0246039B9A420CBF8E
:104CBC0001230023DBB2184605B05DF804FB00BFEE
:104CCC002CCA020010B586B0019000910023059308
:104CDC00019B002B03D152495420FFF7CEF8009BC7
:104CEC00002B03D14E495520FFF7C7F80020FFF7E2
:104CFC007DF80198FFF7C2FF03468DF813309DF83D
:104D0C00133083F00103DBB2002B03D1019B1B7C1E
:104D1C00002B7AD1019B1B685B680393019B1C6879
:104D2C00019B1B685B6819460198FFF771FF0346EE
:104D3C0063609DF81330002B0AD0019B1C68019B0B
:104D4C001B681B6819460198FFF762FF0346236036
:104D5C00019BDB68013B072B37D801A252F823F0EB
:104D6C008D4D02009D4D0200D74D0200AF4D02004B
:104D7C00D74D0200D74D0200D74D0200C14D0200A5
:104D8C00019B5A68039B1344009A12781A702DE009
:104D9C00019B5A68039B5B001344009A12881A808B
:104DAC0024E0019B5A68039B9B001344009A1268F1
:104DBC001A601BE0019B5A68039BDB001A44009BA2
:104DCC00D3E90034C2E9003410E0019B5B6819465A
:104DDC00019BDB68039A02FB03F30B441846019B0F
:104DEC00DB681A46009906F0E9FE00BF0198FFF750
:104DFC0029FF0290019B1B689A68029B9A4207D27A
:104E0C00019B1B68029A9A6002E00423059300E060
:104E1C0000BF0020FEF7FEFF059B184606B010BD34
:104E2C002CCA020000B585B00190019800F00EF874
:104E3C000390039B002B01D0039B00E0024B184610
:104E4C0005B05DF804FB00BF94CA020086B0019067
:104E5C00164B0593164B04931FE0049A059BD31A2B
:104E6C00DB10DA0F13445B10DB00059A1344039339
:104E7C00039B1B680293029A019B9A4202D9039BE3
:104E8C0004930AE0029A019B9A4203D2039B0833D3
:104E9C00059302E0039B5B6804E0059A049B9A422D
:104EAC00DBD30023184606B0704700BFB0CD02001C
:104EBC00A0CE020082B001904FF08042019BC2F85C
:104ECC00083300BF02B0704784B00346ADF806301B
:104EDC00BDF8063003F1804300221A60BDF806309D
:104EEC0003F180431B680393039B00BF04B070471E
:104EFC0082B00346ADF80630BDF8063003F18043AE
:104F0C001B68002B14BF01230023DBB2184602B030
:104F1C00704784B00190019B1B680393039B002B8B
:104F2C0003D0039B1A68019B1A60039B184604B0BC
:104F3C007047000000B585B003468DF807309DF82A
:104F4C000730002B02D10C4B039301E00B4B039366
:104F5C000398FFF7DEFF0290029B002B06D0029B0A
:104F6C005B689DF8072010469847F1E700BF00BF2B
:104F7C0005B05DF804FB00BFC0070020C807002087
:104F8C0008B54FF48070FFF7B3FF0346002B0CD02D
:104F9C004FF48070FFF798FF0120FFF78BFF0E4B4B
:104FAC0001225A700020FFF7C5FF4FF48270FFF703
:104FBC009FFF0346002B0CD04FF48270FFF784FF49
:104FCC000220FFF777FF044B01229A700120FFF7B4
:104FDC00B1FF00BF08BD00BFB807002082B0034678
:104FEC008DF8073007499DF907305B099DF80720BC
:104FFC0002F01F02012000FA02F241F8232000BF48
:10500C0002B0704700E100E082B003468DF8073033
:10501C0008499DF907305B099DF8072002F01F0233
:10502C00012000FA02F2603341F8232000BF02B0E5
:10503C00704700BF00E100E082B0034600918DF89C
:10504C0007309DF90730002B0CDA0D499DF807301D
:10505C0003F00F03043B009AD2B25201D2B20B44BC
:10506C001A7609E007499DF90730009AD2B252012D
:10507C00D2B20B4483F8002300BF02B0704700BFCC
:10508C0000ED00E000E100E000B583B003460A4605
:10509C008DF8073013468DF806309DF80630072B37
:1050AC0004D90D494FF49270FEF7E7FE9DF80620E7
:1050BC009DF9073011461846FFF7BEFF9DF90730E2
:1050CC001846FFF7A1FF9DF907301846FFF786FF3A
:1050DC0000BF03B05DF804FB18CF020082B0019052
:1050EC00034A019BC2F8083300BF02B0704700BFEF
:1050FC0000D0004082B003468DF80730064BD3F841
:10510C0008239DF807301340002B14BF0123002304
:10511C00DBB2184602B0704700D0004082B00346A4
:10512C008DF807309DF8073003F1804303F55043A9
:10513C0001221A6000BF02B0704784B00346ADF87C
:10514C000630BDF8063003F1804303F550430022CE
:10515C001A60BDF8063003F1804303F550431B6819
:10516C000393039B00BF04B0704782B00346ADF8B5
:10517C000630BDF8063003F1804303F550431B683D
:10518C00002B14BF01230023DBB2184602B070477A
:10519C00024BD3F80835DBB21846704700D00040FC
:1051AC0008B50120FFF79AFF0420FFF7B7FF00BFF7
:1051BC0008BD000000B583B04FF48070FFF7D5FF39
:1051CC000346002B1CD00120FFF794FF0346002B55
:1051DC0016D04FF48070FFF7B0FFFFF7D9FF0346EE
:1051EC008DF807300DF1070319460748FFF76AFDE4
:1051FC000548FFF743FD0346002B01D0FFF7D0FF16
:10520C0000BF03B05DF804FBF8CF020082B0019040
:10521C000B468DF803309DF80330019A134401229C
:10522C001A6000BF02B0704784B001900B46ADF815
:10523C000230BDF80230019A134400221A60BDF806
:10524C000230019A13441B680393039B00BF04B004
:10525C00704782B001900B46ADF80230BDF80230B9
:10526C00019A13441B68002B14BF01230023DBB2EB
:10527C00184602B0704782B001900091019B009AD1
:10528C00C3F8042300BF02B0704782B001900091B4
:10529C00019B009AC3F8082300BF02B0704782B08C
:1052AC000190019B0722C3F8002500BF02B0704794
:1052BC0084B00390029101920093039B029AC3F86D
:1052CC000825039B019AC3F80C25039B009AC3F88D
:1052DC00102500BF04B0704782B001900091009A75
:1052EC00019BC3F8242500BF02B0704784B0039023
:1052FC00029113468DF80730029A039BC3F844259C
:10530C009DF80720039BC3F8482500BF04B07047E5
:10531C0084B00390029113468DF80730029A039BD8
:10532C00C3F834259DF80720039BC3F8382500BF2C
:10533C0004B0704784B001900B468DF803301346CF
:10534C008DF802309DF80230002B14BF012300238E
:10535C00DBB203939DF80330022B09D0032B0CD046
:10536C00012B00D00EE0039B43F00203039309E0F2
:10537C00039B43F00403039304E0039B43F00603F5
:10538C00039300BF019B039AC3F8542500BF04B0DC
:10539C00704782B001900B468DF803309DF80320C6
:1053AC00019BC3F8C02500BF02B0704782B00190CA
:1053BC00019B0122C3F8502500BF02B0704782B098
:1053CC000190019B0022C3F8502500BF02B070472A
:1053DC0082B00190019B0122C3F8402500BF02B0AE
:1053EC00704782B00190019B0022C3F8402500BF9A
:1053FC0002B0704782B00190019B03F06043B3F19F
:10540C00005F0CBF01230023DBB2184602B07047CB
:10541C0000B583B00190019B1B682F2B04D90B495D
:10542C004FF4E870FEF729FD019B1B681F2B02D877
:10543C004FF0A04306E0019B1B6803F01F02019B89
:10544C001A60034B184603B05DF804FB0CD0020045
:10545C000003005000B585B00190084611461A466D
:10546C0003468DF803300B468DF8023013468DF849
:10547C00013001AB1846FFF7CBFF0390019A9DF862
:10548C0003109DF802305B0019439DF801309B001E
:10549C0019439DF818301B0219439DF81C301B044E
:1054AC001943039B02F5E07243F8221000BF05B0CC
:1054BC005DF804FB00B585B0039000230193002335
:1054CC0000930023012201210398FFF7C3FF00BFC3
:1054DC0005B05DF804FB00B585B003900B468DF864
:1054EC000B309DF80B2000230193002300931346EF
:1054FC00002200210398FFF7ADFF00BF05B05DF857
:10550C0004FB00B585B0019001AB1846FFF780FF96
:10551C000390019B012202FA03F31946039800F051
:10552C0018F800BF05B05DF804FB00B585B001901C
:10553C0001AB1846FFF76CFF0390019B012202FAA6
:10554C0003F31946039800F00EF800BF05B05DF8A0
:10555C0004FB82B001900091019B009AC3F80825CE
:10556C0000BF02B0704782B001900091019B009A7D
:10557C00C3F80C2500BF02B07047000030B58DB0E9
:10558C000590049103920293049B002B03D16E4966
:10559C00A820FEF772FC059B5B791A461346DB00CC
:1055AC0013449B00694A13440993099B1B7F002BEE
:1055BC0012D008230893664B1B881B0443F002048B
:1055CC00644D0898FFF72EFC03462A466249204694
:1055DC00FDF7A3F9089BB4E0099B039A1A60099B99
:1055EC00029A5A60049B1B7B012B05D8049B1B78E9
:1055FC001846FFF79AFF04E0049B1B781846FFF748
:10560C0080FF049B1B781846002301930023009312
:10561C00002300220121FFF71DFF049B5B78FF2B69
:10562C0009D0049B5B780B930B98FFF77EFF0B98CC
:10563C00FFF740FF02E04FF0FF330B93049B9B7886
:10564C00FF2B07D0049B9B780A9300210A98FFF745
:10565C0042FF02E04FF0FF330A93049BDB78FF2BF1
:10566C0009D0049BDB781846FFF74BFF049BDB78D3
:10567C001846FFF71FFF059B5B791946049BD878EA
:10568C00324A0B46DB000B449B0013441E3302468C
:10569C001A70059B1B680793049B1B7819460A9B81
:1056AC000B9A0798FFF704FE049B9B681946079812
:1056BC00FFF712FE049B197B049B5B7B1A46079831
:1056CC00FFF738FE049B5B7919460798FFF761FEDC
:1056DC00099B1B68002B03D040210798FFF7CBFDDB
:1056EC000798FFF7DCFD099B1B68002B08D0059B76
:1056FC0093F90420049B1B7919461046FFF7C4FC50
:10570C00099B00225A77099B01221A77104B1B88A0
:10571C001B0443F0030311491846FDF7DFF800237F
:10572C0008930B4B1B881B0443F00304094D08988A
:10573C00FFF778FB03462A4607492046FDF7EDF8AC
:10574C00089B18460DB030BD3CD00200FC07002071
:10575C005000002014D10200ACD00200CCD00200CA
:10576C0000B589B003900291009313468DF8073071
:10577C00029B0493009B06939DF807308DF8143020
:10578C009DF828308DF81C300B4B1B881B0443F004
:10579C0003009DF807209DF828300849FDF7BDF857
:1057AC0004AB00221946039800F010F90346184682
:1057BC0009B05DF804FB00BF50000020D4D00200FB
:1057CC0000B583B00190019B9B7FFF2B04D0019B04
:1057DC009B7F1846FFF795FE019B00225A77019B91
:1057EC0000221A720B4B1B881B0443F00300019B15
:1057FC001B7E1A460849FDF77FF8019B1B68019A2E
:10580C0002F10800019A52681146984700BF03B094
:10581C005DF804FB50000020F4D0020000B583B00A
:10582C0001900B468DF803309DF8033083F0010393
:10583C00DBB2002B04D040210198FFF726FD03E0DA
:10584C0040210198FFF717FD00BF03B05DF804FB82
:10585C0000B583B001900091009B03F00103002B75
:10586C0003D00198FFF7A2FD02E00198FFF7A7FD16
:10587C00009B03F00203002B03D00198FFF7A8FD57
:10588C0002E00198FFF7ADFD00BF03B05DF804FB2B
:10589C0030B587B00390029101920093019B1B6875
:1058AC00002B0AD0019B1B681846FFF7A3FD03468B
:1058BC0083F00103DBB2002B0ED1019B9B68002B04
:1058CC0020D0019B9B681846FFF794FD034683F09C
:1058DC000103DBB2002B15D0029B00225A77102358
:1058EC000593374B1B881B0443F00204354D059878
:1058FC00FFF798FA03462A4633492046FDF70DF880
:10590C00059B59E0019B1968019B1B791A4603986A
:10591C00FFF7ECFC019B9968019B1B7B1A460398D3
:10592C00FFF7F6FC4FF48C710398FFF77DFC0099A0
:10593C000398FFF78DFF009B03F00803002B03D1A6
:10594C0010210398FFF762FC029B1B68002B15D1FA
:10595C0000BF4FF48C710398FFF77BFC034683F078
:10596C000103DBB2002BF4D1029B9B7FFF2B11D0E8
:10597C00029B9B7F1846FFF7C4FD0BE0009B03F0D6
:10598C000403002B0CBF01230023DBB21946039840
:10599C00FFF744FF00230593094B1B881B0443F0BE
:1059AC000304084D0598FFF73DFA03462A460649BD
:1059BC002046FCF7B2FF059B184607B030BD00BF70
:1059CC005000002028D10200ACD0020030B587B0C6
:1059DC00039002910192039B5B791A461346DB00FC
:1059EC0013449B003E4A13440593059B1B7F002BDD
:1059FC0004D13C4940F25720FEF73FFA029B1B684A
:105A0C00002B08D1029B1B79002B04D035494FF495
:105A1C001670FEF732FA029B9B68002B08D1029B92
:105A2C001B7B002B04D02F4940F25920FEF725FA9E
:105A3C0000230493059B5B7FDBB2002B12D0112358
:105A4C000493294B1B881B0443F00204274D049834
:105A5C00FFF7E8F903462A4625492046FCF75DFF87
:105A6C00049B39E0059B1B68002B07D0019B03F0BE
:105A7C001403002B02D1059B01225A77059B029A35
:105A8C0003F10C0413460FCB84E80F00059A92F82F
:105A9C0021306FF3000382F82130059A92F82130FF
:105AAC006FF3410382F82130059A92F821306FF39D
:105ABC00820382F82130059B9B7FFF2B04D0059B32
:105ACC009B7F1846FFF731FD039B1868019B029AD8
:105ADC000599FFF7DDFE0346184607B030BD00BF41
:105AEC00FC0700203CD002005000002034D1020002
:105AFC00ACD0020000B583B0019000914FF48C71D2
:105B0C000198FFF7A6FB0346002B10D04FF48C71C5
:105B1C000198FFF789FB009B1B68002B04D10649F9
:105B2C0040F2BE20FEF7A9F90098FFF749FE00BF2E
:105B3C0003B05DF804FB00BF3CD0020000B583B09D
:105B4C00044B019301990448FFF7D4FF00BF03B045
:105B5C005DF804FBFC0700200030004000B583B06A
:105B6C0003460A468DF807301346ADF804309DF80D
:105B7C000730013B164A52F82330002B03D115494C
:105B8C00F120FEF77AF99DF80730013B9DF80720CC
:105B9C00013A114931F8122011B2BDF90420D24357
:105BAC0012B20A4012B291B20B4A22F813109DF8AD
:105BBC000730013B064A52F82330BDF804109DF81B
:105BCC0007201046984700BF03B05DF804FB00BFE8
:105BDC00200800204CD102003408002008B5044BEA
:105BEC001B8819460120FFF7B9FF00BF08BD00BF95
:105BFC003408002008B5044B5B8819460220FFF7D7
:105C0C00ADFF00BF08BD00BF3408002008B5044B31
:105C1C009B8819460320FFF7A1FF00BF08BD00BFFA
:105C2C003408002008B5044BDB8819460420FFF724
:105C3C0095FF00BF08BD00BF3408002008B5044B19
:105C4C001B8919460520FFF789FF00BF08BD00BF5F
:105C5C003408002082B003468DF8073007499DF9BF
:105C6C0007305B099DF8072002F01F02012000FAA3
:105C7C0002F241F8232000BF02B0704700E100E0BF
:105C8C0082B003468DF8073008499DF907305B094F
:105C9C009DF8072002F01F02012000FA02F2603387
:105CAC0041F8232000BF02B0704700BF00E100E0C4
:105CBC0084B00190244B0393019B002B40D0234BC9
:105CCC001A680399019B00BF00BF00BF00BF00BF53
:105CDC0000BF00BF00BF8A422FD000BF00BF00BF73
:105CEC0000BF00BF00BF00BF00BF00BF00BF00BFB0
:105CFC0000BF00BF00BF00BF00BF00BF00BF00BFA0
:105D0C0000BF00BF00BF00BF00BF00BF00BF00BF8F
:105D1C0000BF00BF00BF00BF00BF00BF00BF00BF7F
:105D2C0000BF00BF00BF00BF00BF00BF00BF00BF6F
:105D3C0000BF00BF00BF00BF00BF013BC3D1019338
:105D4C0000BF04B0704700BF0024F400C400002062
:105D5C0000B583B00190019B4FF47A7202FB03F300
:105D6C001846FFF7A5FF00BF03B05DF804FB000069
:105D7C0000B583B00190019B1B682F2B04D90B49F4
:105D8C004FF4E870FEF779F8019B1B681F2B02D8C3
:105D9C004FF0A04306E0019B1B6803F01F02019B20
:105DAC001A60034B184603B05DF804FBF4D10200F3
:105DBC000003005000B585B00190084611461A4604
:105DCC0003468DF803300B468DF8023013468DF8E0
:105DDC00013001AB1846FFF7CBFF0390019A9DF8F9
:105DEC0003109DF802305B0019439DF801309B00B5
:105DFC0019439DF818301B0219439DF81C301B04E5
:105E0C001943039B02F5E07243F8221000BF05B062
:105E1C005DF804FB00B585B00390002301930023CB
:105E2C0000930023012201210398FFF7C3FF00BF59
:105E3C0005B05DF804FB00B585B003900B468DF8FA
:105E4C000B309DF80B200023019300230093134685
:105E5C00002200210398FFF7ADFF00BF05B05DF8ED
:105E6C0004FB00B585B0019001AB1846FFF780FF2D
:105E7C000390019B012202FA03F31946039800F0E8
:105E8C0004F800BF05B05DF804FB82B001900091EE
:105E9C00019B009AC3F80C2500BF02B0704708B5EF
:105EAC000B20FFF7B7FF0C20FFF7B4FF0D20FFF717
:105EBC00B1FF0C20FFF7D5FF0D20FFF7D2FF00BF7D
:105ECC0008BD4FF08043D3F80031002B0FD14FF0B9
:105EDC0080430022C3F800214FF0804301221A6056
:105EEC0000BF4FF08043D3F80031002BF9D04FF0B6
:105EFC008043D3F80431002B0FD14FF080430022A4
:105F0C00C3F804214FF0804301229A6000BF4FF088
:105F1C008043D3F80431002BF9D000BF7047000048
:105F2C00044B054AC3F81025024B044AC3F8182544
:105F3C0000BF704700600040010F0100030B13000D
:105F4C00084B094AC3F81025064B084AC3F8142518
:105F5C00044B074AC3F81029024B0122C3F804254D
:105F6C0000BF704700F00140006100400CA00040F1
:105F7C000860004010B582B003468DED000A8DF824
:105F8C000730009805F0EEFA2BA3D3E9002305F0B7
:105F9C0005FB03460C46184621464FF00002234BE6
:105FAC0005F0B2FB03460C461846214605F0C4FA30
:105FBC0003469BB26FEA43436FEA53439AB21C4BBE
:105FCC001A801C4A9DF80730C2F86035194B012223
:105FDC00C3F80025174B0022C3F80425154B0422E7
:105FEC00C3F80C25134B4FF47A72C3F80825114BE8
:105FFC000022C3F814250F4B0022C3F810250D4BBB
:10600C000B4AC3F820250B4B0122C3F82425094B5E
:10601C000022C3F82825074B0022C3F82C25054B7A
:10602C0001229A6000BF02B010BD00BF00408F403B
:10603C005810002000100240000000000088C340EF
:10604C0000B583B00020FCF7E9F90190019B0093A7
:10605C00009B002B04D0054AFA210098FDF776F935
:10606C00FDF756F900BF03B05DF804FB20D2020027
:10607C0008B5124B0022C3F80425104B0322C3F8B9
:10608C0008250E4B0422C3F810250C4B0C4AC3F800
:10609C0040250A4B0122C3F80022084B4FF48032F2
:1060AC00C3F804230920FFF7EBFD0920FFF7D2FD0D
:1060BC00024B01221A6000BF08BD00BF00900040D7
:1060CC0040420F0000B585B0294B1B78DBB283F042
:1060DC000103DBB2002B47D000238DF80F30244B8B
:1060EC0001221A70FFF7C4FF2249022003F048FB7B
:1060FC00214A2249214802F0F1F803F07DF90346C8
:10610C000293029B042B1ED1194B00221A700622FB
:10611C001B494FF4106003F0CBFC1A4803F0BEFB94
:10612C00184B1B781946174B5B781A46154B9B7806
:10613C001846144BDB7800930346134801F083F99F
:10614C0001F0D0FE0DE0029B002B04D19DF80F3026
:10615C0001338DF80F309DF80F300A2B00D8CCE7A7
:10616C0000BF034B00221A7000BF05B05DF804FBA2
:10617C00401000204008002075A002001BA0020067
:10618C0048100020501000206CD20200F0B5D3B0A3
:10619C001D9000238DF847313E4B1B78DBB283F00A
:1061AC000103DBB2002B71D03A4B01221A701D9BFC
:1061BC001B799E461D9B5B799C461D9B9B7913937B
:1061CC001D9BDB7914931D9B1B7A15931D9B5B7A8E
:1061DC0016931D9B1C681D9BDD681D9B9B7C179358
:1061EC001D9BDB7C18931D9B1B7D19931D9B5B7D5D
:1061FC001A931D9B9B7D1B931D9BDB7D1C931D9BF1
:10620C00B3F910301F461D9B9B7A1E461D9B1B7EAF
:10621C0019461D9B5B7E1A461F4B1B78DBB21FA8D1
:10622C0010930F920E910D960C971C9A0B921B9A31
:10623C000A921A9A0992199A0892189A0792179A1E
:10624C00069205950494169A0392159A0292149A42
:10625C000192139B009363467246104905F042FC71
:10626C001FAB184605F02AFD03468DF847319DF803
:10627C0047319AB20A4B1B689BB21FA90093094B7A
:10628C00032004F095F8034B00221A7000BF53B0A2
:10629C00F0BD00BF401000204410002090D202003E
:1062AC00B4000020B000002008B5002344F289425D
:1062BC000221032003F0DAFE00F0F2F800BF08BD63
:1062CC0000B583B001238DF807309DF8073042F2FA
:1062DC0010720221052003F0C9FE00BF03B05DF867
:1062EC0004FB00002DE9F04391B002AF78600B463F
:1062FC00FB70654B07F110069E46BEE80F000FC6FB
:10630C00DEF80030338011227968604805F01DFCFE
:10631C0007F11003112219465C4805F0F8FB0346FF
:10632C0087F82F3097F92F30002B40F0A7806B4661
:10633C001E46574B01221A70FB78A3F111014B1E1C
:10634C00BB620B461A464FF000034FEAC30949EAF9
:10635C0052794FEAC2080B461A464FF00003DD0093
:10636C0045EA5275D4000B460733DB08DB00ADEB76
:10637C00030D02AB00337B620023FB600023FB8622
:10638C00002387F835307B6A3B63786A7B6803F1BE
:10639C001101FB78113B1A4605F010FC4AE03B6BEF
:1063AC001B78184605F048FB0346002B3AD097F8AB
:1063BC003530032B27D897F8353097F8352007F16F
:1063CC0038010A4412F82C2C114689000A44520058
:1063DC00D2B207F138010B4403F82C2C97F8353066
:1063EC0097F8352007F138010A4412F82C1C3A6B47
:1063FC0012780A44D2B2303AD2B207F138010B44C7
:10640C0003F82C2C13E0FB8E1A46920013445B000D
:10641C00FB863B6B1B789AB2FB8E13449BB2303BD2
:10642C00FB8604E097F83530013387F835303B6B49
:10643C0001333B6397F83530042BB0D907F10C03CB
:10644C0004221946134805F0B9FBFB8E124A13605F
:10645C00104B1B7819460F4B5B7818460D4B9B78ED
:10646C001C460C4BDB781A460B4B1B6801930092B5
:10647C0023460246094800F0E6FFB54600BF3C370C
:10648C00BD46BDE8F08300BF8CD302005C10002039
:10649C0042100020B0000020B40000206CD3020099
:1064AC0008B5054B01221A709FED040A0D20FFF769
:1064BC0061FD00BF08BD00BF41100020CDCCCC3D1C
:1064CC0008B500210F20FFF7B6FC0E20FFF7A2FC49
:1064DC000E20FFF7C6FC00BF08BD0000024B0122D6
:1064EC001A7000BF704700BFAC000020024B0022A6
:1064FC001A7000BF704700BFAC00002008B501F057
:10650C00C5FA024B01221A7000BF08BD43100020CF
:10651C00024B00221A7000BF704700BF43100020CE
:10652C0000B583B001901C4B01225A601A4B00221B
:10653C00C3F80425184B0322C3F80825164B042274
:10654C00C3F81025144A019B4FF47A7101FB03F335
:10655C00C2F84035104B0122C3F800220F20FFF780
:10656C0059FC0E4B0E4AC3F814250E4B0E4AC3F8B9
:10657C0018250C4B0D4AC3F81C250A4B0222C3F8F4
:10658C000425054B01221A60094B01221A7000BF29
:10659C0003B05DF804FB00BF00B001400060004098
:1065AC00030F030000F0014040B1014004600040C3
:1065BC0044100020034B01225A60034B00221A7036
:1065CC0000BF704700B001404410002000B583B0FC
:1065DC0003468DF807309DF80730642202FB03F365
:1065EC001A46054B1A60044B1B681846FFF798FFB8
:1065FC0000BF03B05DF804FBBC000020F0B5A5B0F3
:10660C000AAB64220021184605F002FB64238DF8C6
:10661C008F301F4B1B789E461D4B5B789C461C4B4A
:10662C009B781A461A4BDB781946194B1B791C467A
:10663C00174B5B791D46174B1B781E46154B5B7829
:10664C001F46144B9B780993124BDB780AA80793CF
:10665C00099B069305970496039502940191009269
:10666C00634672460C4905F03DFA0AAB184605F034
:10667C0025FB03469AB2094B1B689BB20AA90093EF
:10668C00074B032003F094FE00BF25B0F0BD00BF04
:10669C004810002050100020A0D30200B4000020AD
:1066AC00B000002030B5C5B09EE2D04B1B683E93C5
:1066BC0042F21073ADF8F6303EAA02A90DF1F603C2
:1066CC0000931346C822052003F0B6FF4390439B6A
:1066DC00002B40F3898239AB00221A605A609A6011
:1066EC00DA60C34B34AC1D460FCD0FC42B6823703E
:1066FC0002A939AB1022184605F027FA34A939AB98
:10670C001022184605F003FA03468DF80B319DF95B
:10671C000B31002B40F0688202AB1B7C8DF80A31E8
:10672C0002AB5B7C8DF8093102AB123341939DF8BF
:10673C000A31013B462B00F2508201A252F823F0A1
:10674C006968020077680200E76B0200E76B0200E1
:10675C00E76B0200E76B0200E76B0200E76B0200DD
:10676C00E76B020085680200A9680200B1680200AC
:10677C00B9680200CB680200D7680200E76B020020
:10678C00E76B0200E76B0200E76B0200E76B0200AD
:10679C00E76B0200E76B0200E76B0200E76B02009D
:1067AC00E76B0200E76B0200E76B0200E76B02008D
:1067BC00E76B0200E76B0200E76B0200E76B02007D
:1067CC00E76B0200E76B0200E76B0200E76B02006D
:1067DC00E76B0200E76B0200E76B0200E368020064
:1067EC00F5680200076902001F690200696902006E
:1067FC00E76B0200E76B0200E76B0200E76B02003D
:10680C00E76B0200D3690200516A02007F6A020042
:10681C00B36A0200E76B0200E76B0200E76B020051
:10682C00E76B0200E76B0200E76B02001D6B0200D6
:10683C00496B0200E76B0200E76B0200E76B02009A
:10684C00E76B0200E76B0200E76B0200E76B0200EC
:10685C00E76B0200756B0200A76B0200654800F045
:10686C00F2FD654B01221A70BEE1644800F0EBFDAD
:10687C00614B00221A70B7E1614B1B78DBB283F0DD
:10688C000103DBB2002B05D09DF809311946419864
:10689C00FFF728FD5A4B01221A70A5E1584B002234
:1068AC001A70A1E1574800F0CEFD9DE1564800F06A
:1068BC00CAFD419B1B68184600F0CCFE94E153487E
:1068CC0000F0C1FDFFF71AFE8EE1514800F0BBFD50
:1068DC00FFF71EFE88E14F4800F0B5FDB7EE000A49
:1068EC000D20FFF747FB7FE14B4800F0ACFD9FED1F
:1068FC004B0A0D20FFF73EFB76E1494800F0A3FD63
:10690C00484BD3ED007AB0EE670A0D20FFF732FB4F
:10691C006AE1419B1B781946434800F094FD419B6A
:10692C001B7807EE903AB8EEE77A419B01331B785F
:10693C0007EE903AF8EEE76AB2EE046AC6EE867A93
:10694C0077EE277A374BC3ED007A364BD3ED007ACE
:10695C00B0EE670A0D20FFF70DFB45E1419B1B785C
:10696C001D46419B01331B7807EE903AF8EEE77A0F
:10697C00B2EE047AC7EE876A16EE900A04F0F2FDC6
:10698C0003460C461A4623462946284800F05BFD70
:10699C00419B1B7807EE903AB8EEE77A419B0133A6
:1069AC001B7807EE903AF8EEE76AB2EE046AC6EE90
:1069BC00867A77EE277ACDED407A9DED400A0D2050
:1069CC00FFF7D8FA10E11A4800F03DFD194941983B
:1069DC0004F088FD0346002B30D0B7EE000A0D20E2
:1069EC00FFF7C8FA144800F02EFDFDE068D3020052
:1069FC000CD80200E0D3020045100020F8D30200AE
:106A0C004210002010D4020030D4020050D40200F6
:106A1C006CD4020084D402009CD40200000000005C
:106A2C00B4D40200B8000020E0D402000CD502005F
:106A3C0034D50200501000204CD502006F4800F0F5
:106A4C0002FDD1E06E4800F0FEFC6E49419804F066
:106A5C0049FD0346002B08D09FED6B0A0D20FFF774
:106A6C0089FA6A4800F0EFFCBEE0694800F0EBFCE4
:106A7C00BAE0684800F0E7FC6249419804F032FD46
:106A8C000346002B0BD0644BD3ED007AB0EE670AB3
:106A9C000D20FFF76FFA614800F0D5FCA4E05748D1
:106AAC0000F0D1FCA0E05E4800F0CDFC55494198C7
:106ABC0004F018FD0346002B26D0419B04331B78B1
:106ACC0007EE903AB8EEE77A419B05331B7807EE58
:106ADC00903AF8EEE76AB2EE046AC6EE867A77EE82
:106AEC00277ACDED3F7A9DED3F0A0D20FFF742FA54
:106AFC00419B04331B781946419B05331B781A467E
:106B0C00484800F0A0FC6FE03C4800F09CFC6BE0B7
:106B1C00454800F098FC3B49419804F0E3FC0346DF
:106B2C00002B07D0FFF7E2FCFFF7E8FC3F4800F032
:106B3C008AFC59E0314800F086FC55E03C4800F0F6
:106B4C0082FC3049419804F0CDFC0346002B07D061
:106B5C00FFF7DEFCFFF7C2FC364800F074FC43E0A4
:106B6C00264800F070FC3FE0334800F06CFC2549EF
:106B7C00419804F0B7FC0346002B08D02F4B1B6840
:106B8C001846FFF7CDFC2E4800F05DFC2CE0FFF71B
:106B9C0011FD2C4800F057FC26E02B4800F053FC6C
:106BAC001849419804F09EFC0346002B11D0419BE0
:106BBC0004331B781846FFF709FD419B04331B78FF
:106BCC001A46642303FB02F31946204800F03BFCF1
:106BDC000AE00A4800F037FC06E09DF80A31194635
:106BEC001B4800F030FC00BF052003F08DF8034675
:106BFC00002B7FF45AAD00BF45B030BD6CD5020000
:106C0C0088D502005010002000000000A4D502001E
:106C1C00C8D50200E4D50200B800002004D602005A
:106C2C0034D6020058D602008CD60200ACD6020034
:106C3C00D0D60200F0D6020018D70200BC0000200B
:106C4C0030D702005CD7020098D70200B4D70200FC
:106C5C00E4D70200054B0022C3F80421044BD3F8FF
:106C6C004035044A136000BF704700BF006000400D
:106C7C0000A001405410002008B5044B0022C3F8BA
:106C8C00402102F001FE00BF08BD00BF0090004093
:106C9C0000B583B000238DF8073000238DF8063043
:106CAC0000238DF80530FFF70CF9FFF7F8F8FFF724
:106CBC0007FCFFF735F9FFF743F9FFF7C1F93C483B
:106CCC0000F0C1FB01F02CFA01F064F8FFF7FAF9BF
:106CDC00FFF7F6FA01E0FFF7E5FC364B1B78DBB269
:106CEC0083F00103DBB2002BF5D1FFF7DDFA00F0E6
:106CFC0061FD314B1B78DBB2002BFAD02D4B1B788E
:106D0C00DBB2002B50D02D4B1B78DBB2002B29D0E3
:106D1C0025212B4800F0C8FD03468DF807302621AD
:106D2C00284800F0C1FD03468DF80630272126487F
:106D3C0000F0BAFD03468DF805309DF80730002BA6
:106D4C0002D11F48FFF722FA9DF80630002B02D122
:106D5C001C48FFF71BFA9DF80530002B02D11A488E
:106D6C00FFF714FA194B1B78DBB2002B15D004215A
:106D7C00174800F0F1FE4FF49670FEF7E9FF25205E
:106D8C0000F006FF262000F003FF272000F000FF94
:106D9C000F4B1B6801330E4A13600E4B1B78DBB292
:106DAC00002B01D0FFF72AFCFFF77CFCA1E700BF0A
:106DBC0020D802004210002041100020AC0000201E
:106DCC00701000208C100020A81000204310002010
:106DDC00C000002045100020BFF34F8F0549054B24
:106DEC00DB6803F4E062044B1343CB60BFF34F8FBB
:106DFC0000BFFDE700ED00E00400FA05024B034A7A
:106E0C001A6000BF704700BFC40000200090D00380
:106E1C0008B500F025F90346002B0ED04FF0804347
:106E2C000022C3F80C214FF080430022C3F810213C
:106E3C004FF080430022C3F8382500F023F90346B5
:106E4C00002B76D07D4A4FF08053D3F80434C2F82F
:106E5C0020357A4A4FF08053D3F80834C2F82435E1
:106E6C00764A4FF08053D3F80C34C2F82835734A65
:106E7C004FF08053D3F81034C2F82C356F4A4FF0D2
:106E8C008053D3F81434C2F830356C4A4FF0805329
:106E9C00D3F81834C2F83435684A4FF08053D3F81D
:106EAC001C34C2F84035654A4FF08053D3F8203477
:106EBC00C2F84435614A4FF08053D3F82434C2F8F9
:106ECC0048355E4A4FF08053D3F82834C2F84C351D
:106EDC005A4A4FF08053D3F82C34C2F85035574AE5
:106EEC004FF08053D3F83034C2F85435534A4FF036
:106EFC008053D3F83434C2F86035504A4FF0805385
:106F0C00D3F83834C2F864354C4A4FF08053D3F878
:106F1C003C34C2F86835494A4FF08053D3F84034BA
:106F2C00C2F86C35454A4FF08053D3F84434C2F85C
:106F3C00703500F0B9F80346002B02D0404B414AA3
:106F4C001A6000F0C3F80346002B03D03E4BFB2223
:106F5C00C3F8182500F0CCF80346002B0AD03B49A7
:106F6C003A4B1B6823F00F02394B1B6803F00F03DD
:106F7C0013430B6000F0CEF80346002B03D0354BC7
:106F8C004FF400721A6000F0D7F80346002B0DD0B6
:106F9C004FF08043D3F8003403F00103002B05D0ED
:106FAC004FF080436FF00102C3F800242A4A2A4BA9
:106FBC00D3F8883043F47003C2F88830BFF34F8F96
:106FCC00BFF36F8F4FF01023D3F80032002B05DB8B
:106FDC004FF01023D3F80432002B2BDA1F4B012275
:106FEC00C3F8042500BF1D4BD3F80034002BFAD096
:106FFC004FF010231222C3F8002200BF174BD3F816
:10700C000034002BFAD04FF010231222C3F80422C4
:10701C0000BF124BD3F80034002BFAD00F4B0022D8
:10702C00C3F8042500BF0D4BD3F80034002BFAD065
:10703C00FFF7D2FEFFF7E2FE00BF08BD00C0004024
:10704C008C5600404881030000F00040E40E0040E4
:10705C00580200104096024000ED00E000E00140B4
:10706C00064B1B68082B05D1054B1B68002B01D167
:10707C00012300E000231846704700BF30010010C8
:10708C0034010010064B1B68082B05D1054B1B68FF
:10709C00002B01D1012300E000231846704700BFEC
:1070AC003001001034010010064B1B68082B05D171
:1070BC00054B1B68002B01D1012300E0002318466F
:1070CC00704700BF3001001034010010064B1B68E4
:1070DC00082B05D1054B1B68002B01D1012300E0C7
:1070EC0000231846704700BF300100103401001017
:1070FC00064B1B68082B05D1054B1B68002B01D1D7
:10710C00012300E000231846704700BF3001001037
:10711C0034010010064B1B68082B05D1054B1B686E
:10712C00002B01D1012300E000231846704700BF5B
:10713C003001001034010010064B1B68082B05D1E0
:10714C00054B1B68002B01D1012300E000231846DE
:10715C00704700BF300100103401001000B583B03F
:10716C001F4B0193019B02221A61019B02225A615F
:10717C00019B1C4A9A61019B1B4ADA61019B4FF4EB
:10718C0000721A62019B00229A62019B00225A62D1
:10719C00019B0022DA62019B124A9A64019B134AFA
:1071AC00DA64019B10221A65019B00229A65019BEF
:1071BC0000225A65019B0022DA65019B07330C49BA
:1071CC00184604F059FD019B0A49184604F054FD79
:1071DC00019B20229A7100BF03B05DF804FB00BF35
:1071EC00C41000203CD802003C1100203C130020AD
:1071FC0048D802004CD8020000B589B00390029127
:10720C00019200230693039BDB680593039B1B6988
:10721C000493049A059B9A4205D9049A059BD31AA8
:10722C00013B079307E0039B9A680499059BCB1AD3
:10723C001344013B0793039B9A68059BD31A079A47
:10724C00934228BF13460793079A019B934228BF8A
:10725C0013460793039B5A68059B1344079A02999C
:10726C00184604F0ABFC069A079B13440693029A4B
:10727C00079B13440293019A079BD31A0193059A17
:10728C00079B13440593039B9A68059B9A4201D173
:10729C0000230593039B059ADA60019B002BB5D163
:1072AC00069B184609B05DF804FB00B589B0039045
:1072BC0002910192039BDB680793039B9A68079BDF
:1072CC00D31A0693069A019B9A420ED9039B5A68CD
:1072DC00079B1344019A0299184604F06FFC079A15
:1072EC00019B1A44039BDA601AE0069B0593039BEF
:1072FC005A68079B1344059A0299184604F05EFCE1
:10730C00019A069BD31A0593039B5868029A069B15
:10731C001344059A194604F051FC039B059ADA6054
:10732C0000BF09B05DF804FB86B00190019B1B699E
:10733C000493019BDB680393049A039B9A4208D83D
:10734C00019B9A68039BD21A049B1344013B05933F
:10735C0004E0049A039BD31A013B0593059B184642
:10736C0006B0704700B589B0039002910192029B60
:10737C000693039B5A1C13465B001344DB001F4A05
:10738C0013440593059B5B69012B17D0012B02D38A
:10739C00022B23D029E00598FFF7C6FF0490049A2E
:1073AC00019B9A4202D20023079321E0019B079391
:1073BC00019A06990598FFF778FF19E00598FFF7F1
:1073CC00B3FF0490019A049B934228BF1346079382
:1073DC00079A06990598FFF768FF09E0019A069944
:1073EC000598FFF709FF079002E00023079300BF01
:1073FC00079B184609B05DF804FB00BFC4100020C1
:10740C0000B587B00390029101920B4B1B78002BB7
:10741C0001D1FFF7A3FE0020FCF7E8FC019A0299CA
:10742C000398FFF79FFF05900020FCF7F3FC059BEA
:10743C00184607B05DF804FBC410002008B5FFF730
:10744C008DFE00BF08BD0FB400B5A3B025AB0093F3
:10745C0001A8009B249A802104F0A2FB2190219B7F
:10746C00802B06DD01AB802219460020FFF7C8FFF8
:10747C0008E0219B002B05DD219A01AB1946002069
:10748C00FFF7BEFF219B184623B05DF804EB04B058
:10749C00704784B003468DF807309DF80730252BD4
:1074AC0003D102238DF80F301BE09DF80730262BFB
:1074BC0003D11A238DF80F3013E09DF80730272BDA
:1074CC0003D150238DF80F300BE09DF807300A2BB9
:1074DC0001D8042200E006229DF8073013448DF8F1
:1074EC000F309DF80F30184604B0704782B0034639
:1074FC008DF8073007499DF907305B099DF8072087
:10750C0002F01F02012000FA02F241F8232000BF12
:10751C0002B0704700E100E082B003468DF80730FE
:10752C0008499DF907305B099DF8072002F01F02FE
:10753C00012000FA02F2603341F8232000BF02B0B0
:10754C00704700BF00E100E010B582B003468DF833
:10755C000730304B0122C3F8FC2F2E4B0022C3F80E
:10756C000C252C4B0322C3F810252A4C9DF8073010
:10757C001846FFF78EFF0346C4F80835254A9DF8D8
:10758C000730C2F85435234B8E22C3F82425214AE8
:10759C00214B1B68C2F81C351E4B0022C3F82C254E
:1075AC001C4B0122C3F830251A4B1C4AC3F8142576
:1075BC00184B1B4AC3F81825164B40F20312C3F89C
:1075CC003425144B174AC3F83C25124B40F25B622E
:1075DC00C3F838250F4B0022C3F810210D4B0022A5
:1075EC00C3F80C210B4B0022C3F80021094B0022DD
:1075FC00C3F80421074B0022C3F828210120FFF710
:10760C008BFF0120FFF772FF074B00221A7000BF9F
:10761C0002B010BD00100040C8000020060102009E
:10762C0050000302555555004C130020074B002207
:10763C00C3F81021054B0022C3F80022034B012292
:10764C001A61034B00221A7000BF704700100040F3
:10765C004C13002082B00190024A019B136000BFC2
:10766C0002B07047C800002082B00190034A019B11
:10767C00C2F8043500BF02B0704700BF00100040D4
:10768C00064B0022C3F81C21044A044BD3F80032E9
:10769C0043F01003C2F8003200BF704700100040E6
:1076AC0082B00D4BD3F81C31002B08D00A4BD3F809
:1076BC004835DBB203F07F038DF8073002E0FF237F
:1076CC008DF80730044B0022C3F81C219DF80730BD
:1076DC00184602B0704700BF0010004082B003464D
:1076EC008DF807300E4B0022C3F810210C4B0122F1
:1076FC005A600B4B0322C3F800229DF80730002B75
:10770C0004D0074B0022C3F8442503E0044B952218
:10771C00C3F84425034B01221A7000BF02B0704716
:10772C00001000404C130020094B0022C3F810211C
:10773C00074B01221A60064B0322C3F80022044BAC
:10774C009522C3F84425034B02221A7000BF7047E0
:10775C00001000404C13002082B003468DF8073017
:10776C0007499DF907305B099DF8072002F01F02BD
:10777C00012000FA02F241F8232000BF02B070474A
:10778C0000E100E082B003468DF8073008499DF90E
:10779C0007305B099DF8072002F01F02012000FA58
:1077AC0002F2603341F8232000BF02B0704700BFE3
:1077BC0000E100E008B51F4B0022C3F804251D4B67
:1077CC000322C3F808251B4B0022C3F81025194BC4
:1077DC000022C3F84025174B01221A60164B0022D9
:1077EC00C3F80425144B0322C3F80825124B0422BA
:1077FC00C3F81025104B114AC3F840250E4B4FF41B
:10780C008032C3F804231A20FFF7BCFF1A20FFF7BD
:10781C00A3FF03F076FE0246094B1A6003F071FEDB
:10782C000246074B5A6003F06CFE0246044B9A600A
:10783C0000BF08BD00A0004000A0014020A107002F
:10784C0050130020044B0022C3F84021034B0122AB
:10785C001A7000BF704700BF00A001404E130020FB
:10786C0084B00190009100238DF80F3000238DF827
:10787C000F3011E09DF80F30009A13449DF80F2043
:10788C00C2F108021146019A0A4412781A709DF846
:10789C000F3001338DF80F309DF80F30052BE9D9DF
:1078AC0000BF04B07047000000B58FB001900B46CC
:1078BC008DF8033000230D939DF803301846FFF725
:1078CC0043FE25220021554804F0A2F95348FFF746
:1078DC00CBFE534B4FF4D872C3F86025504B4FF48A
:1078EC008062C3F804230120FFF7F8FEFFF7C8FEFF
:1078FC004C4B01221A604B4B0122DA6000BF484B03
:10790C00D3F81031002B07D1474B1B78DBB283F037
:10791C000103DBB2002BF2D1424B01225A60414BE6
:10792C000122DA60404B1B78DBB2002B06D03E4BB9
:10793C0000221A70FFF77AFE01236AE03B4B01220A
:10794C001A643A4BD3F840350C93FFF7A9FE034663
:10795C00ADF82E30FFF76AFE0AAB19462F48FFF739
:10796C007FFF334B1B680D930C9B0393B0238DF857
:10797C0010304FF08053D3F8A4301B0ADBB28DF8D3
:10798C0011304FF08053D3F8A4301B0CDBB28DF8C0
:10799C0012304FF08053D3F8A4301B0EDBB28DF8AD
:1079AC0013304FF08053D3F8A830DBB28DF814307D
:1079BC004FF08053D3F8A8301B0ADBB28DF815308A
:1079CC000D9B06939DF803308DF81630BDF82E30C4
:1079DC005B429BB21BB2ADF81C30114BD3F8003498
:1079EC00DBB28DF82430134B1B78DBB28DF82530CD
:1079FC000AA903AB12330622184604F0DFF803ABD6
:107A0C001C221946019804F0D9F80A4B00221A706E
:107A1C00002318460FB05DF804FB00BF5C13002078
:107A2C000010004000A001404E13002000A00040B8
:107A3C00651300204D130020124BD3F80431002B9A
:107A4C0003D0104B0022C3F804210E4BD3F8103195
:107A5C00002B03D00B4B0022C3F81021094BD3F899
:107A6C002831002B0CD0074B0022C3F82821054BE2
:107A7C0001221A62034B01221A61034B01221A7074
:107A8C0000BF7047001000404D13002008B52D4B6F
:107A9C0042221A702B4B00225A702A4B00229A70E9
:107AAC004FF08053D3F8A430B3F1FF3F08D14FF01F
:107ABC008053D3F8A8309BB24FF6FF7293422ED06E
:107ACC004FF08053D3F8A430DAB21E4BDA704FF07B
