:100000000000042059020000B1020000B302000009
:10001000B5020000B7020000B902000000000000B5
:10002000000000000000000000000000BB02000013
:10003000BD02000000000000BF020000C10200007D
:10004000C5020000C7020000ED270000CB0200003F
:10005000CD020000CF0200003D1E0000D3020000D0
:10006000D5020000D7020000D9020000DB02000028
:10007000DD020000DF020000E1020000E3020000F8
:10008000E50200006D150000E9020000EB0200002F
:10009000AD150000A5210000BD210000D521000004
:1000A000ED21000005220000F9020000FB02000023
:1000B000FD020000FF020000C3020000C3020000B6
:1000C0000103000003030000050300000703000014
:1000D000090300000B0300000D0300000F030000E4
:1000E00011030000130300001503000017030000B4
:0800F000C30200001903000027
:1000F800364937480A1A02D0072291438D463549B6
:1001080035480A1A06D00722914381F3098802224A
:1001180082F3148831483249324A00F045F83248AF
:100128003249334A00F040F832483349334A00F044
:100138003BF833483349344A00F036F833483449F9
:10014800344A00F031F834483449354A00F02CF884
:1001580034483549354A00F027F8354835490022F2
:1001680000F02DF834483549002200F028F83448CA
:100178003449091A082903DB0022026004300160AF
:10018800314A90471F482049884205D00268043008
:1001980003B4904703BCF7E700208646EC460020EE
:1001A80000212A4A9047FEE7884207D0521A05D014
:1001B800037801300B700131013AF9D17047884258
:1001C80002D002700130FAE77047000000000420F6
:1001D80000F803200000042000000420B8370000C5
:1001E8003C000020400000201C0300001C0300000D
:1001F800642E0000B83700003C0000203C000020BE
:10020800C82E0000C82E0000C82E0000C82E00000E
:10021800C82E0000C82E0000C82E0000C82E0000FE
:10022800B7370000BC370000400000204000002025
:10023800400000201C0700201C0700201C0700208D
:100248001C0700201C0900207D020000692A00000C
:100258000F484FF00701884385460E4880470E48EF
:10026800016841F470010160BFF34F8FBFF36F8FD6
:10027800FFF73EBF09480A490A4A884207D0521A7E
:1002880005D0037801300B700131013AF9D170477C
:1002980000000420C52A000088ED00E08C2E000034
:1002A800000000203C000020FEE7FEE7FEE7FEE736
:1002B800FEE7FEE7FEE7FEE7FEE7FEE7FEE7FEE70E
:1002C800FEE7FEE7FEE7FEE7FEE7FEE7FEE7FEE7FE
:1002D800FEE7FEE7FEE7FEE7FEE7FEE7FEE7FEE7EE
:1002E800FEE7FEE7FEE7FEE7FEE7FEE7FEE7FEE7DE
:1002F800FEE7FEE7FEE7FEE7FEE7FEE7FEE7FEE7CE
:10030800FEE7FEE7FEE7FEE7FEE7FEE7FEE7FEE7BD
:04031800FEE700BF3D
:10031C0000B583B001900091019B1B681B6800998C
:10032C000198984700BF03B05DF804FB00B583B09B
:10033C000190019B1B685B680198984700BF03B054
:10034C005DF804FB82B00190019B01225A7200BF40
:10035C0002B0704782B00190019B5B7A184602B0E4
:10036C00704710B487B001900091019B009A53E83C
:10037C00004F44EA020043E8000191F0000FF6D16F
:10038C00059404900391049B184607B05DF8044B48
:10039C00704710B487B001900091019B009A53E80C
:1003AC00004F04EA020043E8000191F0000FF6D17F
:1003BC00059404900391059B184607B05DF8044B17
:1003CC00704700B583B0019001210198FFF7C9FF78
:1003DC000346184603B05DF804FB00B583B00190EA
:1003EC0000210198FFF7D5FF0346184603B05DF8CE
:1003FC0004FB0000024A034BD31ADB081846704773
:10040C008C2E0000642E000000B589B04148FFF727
:10041C00D8FF4148FFF7D5FF404B5B6807933F4B34
:10042C009B680493079A049B134002339B003B4A3E
:10043C001344043306931BE0079B01330793069B7D
:10044C005B88C3F389139BB21A46069B1B88C3F3C4
:10045C0089139BB213441A46079B13440793079ABC
:10046C00049B134002339B002C4A13440433069321
:10047C00069B1B7803F00303DBB2002BDCD00023BC
:10048C00059311E0059B9B006A461A44079B591C77
:10049C00079104990B40214902339B000B445B6884
:1004AC001360059B01330593059B012BEAD99DF83D
:1004BC000030C3F30103DBB2012B0CD0022B14D19F
:1004CC00BDF80230C3F389139BB203339B08079A20
:1004DC00134407930FE0BDF80030C3F38313DBB272
:1004EC001A46079B1344079305E00D4940F24D1043
:1004FC0001F0BBF800BF0848FFF76FFF0390039BA8
:10050C00002B02D0054A079B536000BF09B05DF871
:10051C0004FB00BF2805002024050020100100204A
:10052C00EC2E000010B586B003900291019200935E
:10053C00039B1B0CADF81630BDF81640FFF75AFFA5
:10054C0003469C4204D325494FF4B27001F08DF858
:10055C00009B5A1C089B1340BDF8162020490233FF
:10056C009B000B445A60009A089B134002339B007B
:10057C001B4A134404330493039B03F01003002B16
:10058C0014BF01230023D9B2049A137861F38203B8
:10059C001370039BDBB203F00703D9B2049A1378F0
:1005AC0061F3C5031370019BDBB203F00F03D9B2E7
:1005BC00049A138861F389131380029BC3F315010A
:1005CC00049A136861F39F231360049A1378012132
:1005DC0061F30103137000BF06B010BDEC2E0000D8
:1005EC001001002000B589B001900091019B0233ED
:1005FC0006930223059301238DF81330002000F09D
:10060C00EDFF214B1A68009B1A601F4B9A681E4B1A
:10061C0059681D4B1B68CB1A134401330793069A78
:10062C00059B134403930BE0FFF7EEFE164B9A6801
:10063C00154B5968144B1B68CB1A134401330793A1
:10064C00039A079B9A42EFD80F4B1A680E4B9B6884
:10065C00134002339B000C4A134404330293029A56
:10066C00137843F003031370074B1A68069B13446B
:10067C00054A1360002000F0C5FF9DF813301846A2
:10068C0009B05DF804FB00BF1001002000B58BB071
:10069C0005900491039202931F4B9B68079306AB42
:1006AC0019460298FFF79EFF0346002B24D0069BA9
:1006BC00023309930023089311E0099B5A1C0992F9
:1006CC00079A1340089A920003990A441268124937
:1006DC0002339B000B445A60089B01330893089A21
:1006EC00029B9A42E9D3069A079B00931346029AFF
:1006FC0004990598FFF716FF074B93F81C34002B51
:10070C0005D000BF00F056F80346002BFAD100BF0D
:10071C000BB05DF804FB00BF1001002000B587B0E2
:10072C00039002910192019B059305AA0123029962
:10073C000398FFF7ABFF00BF07B05DF804FB00B5F3
:10074C0087B00390029101920093019B0493009B4C
:10075C00059304AA022302990398FFF797FF00BFA1
:10076C0007B05DF804FB00B589B0039002910192CB
:10077C000093019B0493009B05930A9B06930B9B90
:10078C00079304AA042302990398FFF77FFF00BF85
:10079C0009B05DF804FB0000054B5A68044B1B685C
:1007AC009A420CBF01230023DBB21846704700BFEE
:1007BC001001002000B597B0FFF7EEFF0346002BA9
:1007CC0001D00023ADE1AC4B0022C3F81824BFF3D9
:1007DC004F8FA94B5B681593A74B9B680E93159A8B
:1007EC000E9B134002339B00A34A1344043314930F
:1007FC00002313930023129300230D931BE0159BEE
:10080C0001331593149B5B88C3F389139BB21A466F
:10081C00149B1B88C3F389139BB213441A46159B74
:10082C0013441593159A0E9B134002339B00924A66
:10083C00134404331493149B1B7803F00303DBB2AF
:10084C00002BDCD00023119311E0119B9B006A4616
:10085C001A44159B591C15910E990B40864902336D
:10086C009B000B445B681360119B01331193119B2C
:10087C00012BEAD99DF8003003F00303DBB2022B05
:10088C0040F09C80BDF80230C3F389139BB20B93EC
:10089C00BDF80230C3F389139BB2502BA8BF502371
:1008AC000A930A9B9BB2C3F309039AB2BDF80230B8
:1008BC0062F38F13ADF802300A9B083309939DF84D
:1008CC000030C3F3C203DBB20D9309996B4800F0FF
:1008DC00B7FF1390139B002B00F0E280139801F0EC
:1008EC003FF86946129B0822139801F0E3F8129B1B
:1008FC0008331293159BDA430E9B134001339B0074
:10090C0008930A9A089B9A4242D9089B002B08D05C
:10091C00159A0E9B134002339B00574A1344043321
:10092C0000E0574B0793089B002B02D0089BDBB2CF
:10093C0001E00A9BDBB28DF81B30089B002B01D029
:10094C004F4B00E000230593089B002B06D00A9B1D
:10095C00DAB2089BDBB2D31ADBB200E000238DF8CD
:10096C0013309DF81B20129B0799139801F0A2F8E5
:10097C009DF81B30129A13441293059B002B16D032
:10098C009DF81320129B0599139801F093F80EE033
:10099C00159A0E9B134002339B00374A13440433C1
:1009AC000393129B0A9A0399139801F083F80B9BFB
:1009BC0003339B08159A1344159371E09DF800308E
:1009CC0003F00303DBB2012B5CD1BDF80030C3F3A1
:1009DC008313DBB2062B28BF0623DBB203F00F0315
:1009EC00DAB2BDF8003062F38913ADF80030BDF80F
:1009FC000030C3F38313DBB202330C939DF8003049
:100A0C00C3F3C203DBB20D930C9B9B0019461B482E
:100A1C0000F016FF1390139B002B41D0139800F09D
:100A2C009FFF6946129B0822139801F043F8129B12
:100A3C00083312930023119314E0159B5A1C159242
:100A4C000E9A134002339B000B4A1344191D129B40
:100A5C000422139801F02EF8129B04331293119B6D
:100A6C0001331193BDF80030C3F38313DBB21A4684
:100A7C00119B9A42E1D813E010010020C82E00000F
:100A8C001C0100209DF8003003F00303DBB2032BA4
:100A9C0006D1264BD3F81834002B01D1002340E0AB
:100AAC00139B002B37D0214BD3F8103410931F4BD2
:100ABC00D3F81834002B1AD0139800F060FF2AE0FA
:100ACC0000238DF83F301098FFF744FC0346002BB1
:100ADC0002D001238DF83F309DF83F30002B03D01E
:100AEC0013991098FFF714FC109B5B681093109BE4
:100AFC00002BE5D1139800F042FF002000F06EFDB2
:100B0C000A4BD3F81834002B02D1084A159B5360BA
:100B1C00002000F077FDFFF73FFE034683F0010352
:100B2C00DBB2184617B05DF804FB00BF10010020C3
:100B3C0000B583B00C4BD3F8103401930A4B01224F
:100B4C0083F81C2408E00198FFF7FCFB0198FFF7E1
:100B5C00EDFB019B5B680193019B002BF3D100BF64
:100B6C0003B05DF804FB00BF1001002086B00390B9
:100B7C000291019201238DF817309DF81730204A0D
:100B8C00039B13601E4A029B53601D4A019B93609A
:100B9C00039B44F20102934212D044F202029342AC
:100BAC0022D1019B164AD360154BDB681B881A4671
:100BBC00134B9A61124BDB685B68114AD36113E0EB
:100BCC00019B0F4A13610E4B1B699B680C4A5361C6
:100BDC000B4B1B691B881A46094B9A61084B1B6906
:100BEC005B68074AD36100BF72B600BF9DF817302F
:100BFC00DBB2002BFAD162B600BF06B0704700BF63
:100C0C003005002030B589B0059004910392FFF7B0
:100C1C008FFF00BFFFF7CEFD0346002BFAD1059BDB
:100C2C0044F20102934213D044F2020293422DD1BA
:100C3C00039B0793224B1B881B0443F00100079B6B
:100C4C005B681A46079B1B881E49FFF778FD28E056
:100C5C00039B06931A4B1B881B0443F00104069B51
:100C6C009D68069B9B68184600F036FF03461946A4
:100C7C00069B5B681A46069B1B88019300920B46E9
:100C8C002A4611492046FFF76EFD0AE00C4B1B88E3
:100C9C001B0443F00103049A0C491846FFF73EFD70
:100CAC0000BF0B4B1B6803F00103002B00D0FFDED1
:100CBC00039A04990598FFF759FF00BF09B030BD9E
:100CCC0000000020742F0000902F0000A82F0000BF
:100CDC00F0ED00E082B003468DF8073007499DF92E
:100CEC0007305B099DF8072002F01F02012000FA73
:100CFC0002F241F8232000BF02B0704700E100E08F
:100D0C0082B003468DF8073008499DF907305B091E
:100D1C009DF8072002F01F02012000FA02F2203396
:100D2C0041F8232000BF02B0704700BF00E100E093
:100D3C0082B003468DF8073008499DF907305B09EE
:100D4C009DF8072002F01F02012000FA02F2403346
:100D5C0041F8232000BF02B0704700BF00E100E063
:100D6C0082B003468DF8073008499DF907305B09BE
:100D7C009DF8072002F01F02012000FA02F26033F6
:100D8C0041F8232000BF02B0704700BF00E100E033
:100D9C0084B00190244B0393019B002B40D0234B38
:100DAC001A680399019B00BF00BF00BF00BF00BFC2
:100DBC0000BF00BF00BF8A422FD000BF00BF00BFE2
:100DCC0000BF00BF00BF00BF00BF00BF00BF00BF1F
:100DDC0000BF00BF00BF00BF00BF00BF00BF00BF0F
:100DEC0000BF00BF00BF00BF00BF00BF00BF00BFFF
:100DFC0000BF00BF00BF00BF00BF00BF00BF00BFEF
:100E0C0000BF00BF00BF00BF00BF00BF00BF00BFDE
:100E1C0000BF00BF00BF00BF00BF013BC3D10193A7
:100E2C0000BF04B0704700BF0024F4003C00002059
:100E3C0008B50D4B4FF48032C3F844230A4B4FF4E2
:100E4C008032C3F804231120FFF78AFF1120FFF72B
:100E5C0041FF054B01221A602F20FFF799FF034B2E
:100E6C0001221A7000BF08BD001001406E06002060
:100E7C0008B51120FFF744FF0E4B4FF48032C3F836
:100E8C0048230C4B4FF48032C3F80823094B012242
:100E9C005A602F20FFF77CFF064B01229A60064B0D
:100EAC0000221A602F20FFF773FF044B00221A70E8
:100EBC0000BF08BD00100140600600206E06002037
:100ECC00024BD3F804351846704700BF00100140A0
:100EDC0082B001900091019A009BD31A23F07F43BA
:100EEC00184602B07047000082B00190034A019B83
:100EFC00C2F8403500BF02B0704700BF001001407F
:100F0C0086B00190284B1B68002B03D1264A019B0D
:100F1C00136045E0019B1A68234B1B681B689A42BF
:100F2C0010D8214B1B68204A12681168019A12686C
:100F3C008A1A1A601C4B1A68019BDA611A4A019BC7
:100F4C0013602DE0019B1B680393174B1B680593E3
:100F5C00154B1B68049309E0049B1B68039AD31A76
:100F6C000393049B0593049BDB690493049B002B64
:100F7C0004D0049B1A68039B9A42EDD3049B002B6C
:100F8C0005D0049B1A68039BD21A049B1A60019B20
:100F9C00039A1A60019B049ADA61059B019ADA6143
:100FAC0000BF06B0704700BF5C06002000B587B0DC
:100FBC0001902A4B1B680393284B1B680593059BD8
:100FCC00049308E0049A019B9A4208D0049B059371
:100FDC00049BDB690493049B002BF3D100E000BF5E
:100FEC00049B002B01D1002333E0059A049B9A4209
:100FFC0014D11A4B1B68DB69184A1360174B1B681A
:10100C00002B0BD1164B01229A60164B00221A6052
:10101C00154B01221A702F20FFF7BAFE049B1B6898
:10102C000293049BDA69059BDA61059BDB690493E7
:10103C00049B002B05D0049B1A68029B1A44049B4A
:10104C001A60064B1B68039A9A4214BF01230023B3
:10105C00DBB2184607B05DF804FB00BF5C0600204D
:10106C0000100140600600206F06002008B511201A
:10107C00FFF75EFE00BF08BD08B51420FFF758FE51
:10108C0000BF08BD00B583B00190019B5B69019A5C
:10109C0092691046984700BF03B05DF804FB00004E
:1010AC0000B585B02B4B1B68002B4ED00023019351
:1010BC00FFF706FF0246284B1B6819461046FFF740
:1010CC0007FF0290234B1B6803931DE0039B1A68D8
:1010DC00029B9A421CD8039B1B68029AD31A029358
:1010EC00039B1B68019A13440193039B0093039B7E
:1010FC00DB690393009B1B7C002B05D0009B00221B
:10110C001A740098FFF7BEFF039B002BDED100E0A2
:10111C0000BF124B1A78124B1B789A420CD1104B11
:10112C001B780133DAB20E4B1A700D4B1B78022B65
:10113C0002D10B4B00221A70094B1B781946094A35
:10114C00019B42F82130FFF797FF00BF05B05DF817
:10115C0004FB00BF5C060020600600206C0600202B
:10116C006D0600206406002082B00190184B1A789E
:10117C00184B1B789A4223D0154B1B780133DAB2EB
:10118C00134B1A70124B1B78022B02D1104B0022FE
:10119C001A700F4B1B781A460F4B53F82220019BE9
:1011AC001A60019B1A680D4B1B6813440B4A1360A1
:1011BC000A4B1B6823F07F43084A1360012303E0AA
:1011CC00019B00221A600023184602B0704700BF32
:1011DC006C0600206D0600206406002060060020CE
:1011EC0088B00390029101920023079338E0204BC2
:1011FC001B680693069B1A68039B9A4206D9069BAA
:10120C001A68039BD21A069B1A602DE0069B1B687A
:10121C00039AD31A0393069B1B68079A13440793EC
:10122C00069B00221A60124B1B680593069BDB6918
:10123C000F4A1360069BDB68002B11D0029A079BA8
:10124C00134423F07F42069B5A60069BDA68069B88
:10125C009A60019B1A68069BDA61019B059A1A60D9
:10126C00034B1B68002BC2D100BF08B0704700BFF6
:10127C005C06002000B589B0019000238DF81F306A
:10128C00664B1B680593AAE0019B002B05D0019BC4
:10129C000693069BDB69019361E0614B1B781A4650
:1012AC0013465B001344DB005D4A13440433049380
:1012BC005B4B1B780133DAB2594B1A70584B1A78C6
:1012CC00574B9B789A4202D1554B00221A70049BC3
:1012DC005B680693049B1B78022B04D0032B1BD05A
:1012EC00012B1FD01DE0049B5B681846FFF75EFEC8
:1012FC000346002B02D001238DF81F30069B0022E1
:10130C001A746CE0454B1B680393039B00221A7400
:10131C00039BDB69414A1360404B1B68002BF1D1E6
:10132C005DE05CE000BF069B1B7C002B00D056E010
:10133C00049B9A68069B5A60049BDA68069B9A6029
:10134C00049B1A69069BDA60049B5A69069B9A6196
:10135C00344B1B78002B02D0069B00225A60069B54
:10136C005A68314B1B68D31A23F07F432F4A9342A0
:10137C000ED8069B5A682C4B1B6819461046FFF773
:10138C00A7FD0246069B9B681A44069B1A6017E051
:10139C00254B1A68069B5B6819461046FFF798FDAB
:1013AC000290069B9A68029B9A4206D9069B9A6801
:1013BC00029BD21A069B1A6002E0069B00221A605E
:1013CC00069B00225A60069B00229A60069B012213
:1013DC001A74069B0022DA610698FFF791FD019BB7
:1013EC00002B7FF451AF0E4B1A780D4B5B789A4261
:1013FC007FF44AAF9DF81F30002B04D1074B1A68BD
:10140C00059B9A4201D0012300E0002303F0010365
:10141C00DBB2184609B05DF804FB00BF5C06002087
:10142C00500500206F06002060060020FEFF7F00A4
:10143C0010B588B00190274B1B68002B44D0254B6E
:10144C001B681B680793FFF73BFD0690224B1B683C
:10145C00059305990698FFF73BFD03460333049368
:10146C001E4B1B7883F00103DBB2002B01D0FFF77E
:10147C00DFFC049A079B934238BF1346059A13442A
:10148C000593059B23F07F4305930598FFF72CFDEF
:10149C00FFF716FD039006990398FFF719FD034615
:1014AC00DC1C06990598FFF713FD03469C420DD9E9
:1014BC00FFF706FD03461846FFF716FD2F20FFF732
:1014CC0067FCFFF7D3FD01E0FFF7D2FC00BF08B0CB
:1014DC0010BD00BF5C060020600600206E060020D8
:1014EC0000B587B00023019300238DF81730194BFA
:1014FC001B680493184B1B6803936B461846FFF745
:10150C0033FE03468DF80B309DF80B30002B08D0C2
:10151C00009B01AA04991846FFF762FE01238DF87F
:10152C001730019B1846FFF7A5FE0346002B02D08F
:10153C0001238DF817309DF81730002B02D003983B
:10154C00FFF776FF054B00221A7000BF07B05DF85D
:10155C0004FB00BF600600205C0600206F06002024
:10156C0008B50E4B0022C3F840210C4B0022C3F8E7
:10157C0044210A4B0022C3F84821084B0022C3F82F
:10158C004C21064B0022C3F80021044B0022C3F867
:10159C000421FFF785FD00BF08BD00BF001001400E
:1015AC0008B5FFF79DFF00BF08BD000072B6034BE6
:1015BC001B680133014A136000BF7047700600209E
:1015CC00054B1B68013B044A1360034B1B68002B43
:1015DC0000D162B600BF70477006002000B583B022
:1015EC00019000F025F80346012B03D00449432059
:1015FC0000F03BF8FFF7DAFF00BF03B05DF804FB27
:10160C00C02F000000B583B003468DF8073000F002
:10161C000FF80346012B03D00449512000F025F8A4
:10162C00FFF7CEFF00BF03B05DF804FBC02F000036
:10163C0084B0EFF305830193019BC3F30803039379
:10164C00039B002B0DD1EFF314830093009B0293AB
:10165C00029B03F00103002B0CBF01230023DBB220
:10166C0000E00123184604B0704700B585B003466E
:10167C000091ADF80630BDF80630ADF80830009B8F
:10168C00039302AB1A46002144F20200FFF7BAFAA8
:10169C0000BF05B05DF804FB00B583B001900B46AC
:1016AC008DF80330019B002B03D10849AF20FFF7C5
:1016BC00DCFF019BDA689DF803300199098A01FB74
:1016CC0003F31344184603B05DF804FB40300000EC
:1016DC0000B583B001900091019B002B03D1084908
:1016EC00BC20FFF7C2FF009B019AD2689B1A019A9B
:1016FC00128AB3FBF2F3DBB2184603B05DF804FBBD
:10170C004030000000B585B00190019B002B03D147
:10171C001C49EC20FFF7A9FF002303930020FFF7DF
:10172C005DFF019B1B681A68019B5B689A4220D97C
:10173C00019B1B681A68013A1A601B681B781946D2
:10174C000198FFF7A9FF0390019B9B681A46019B28
:10175C001B681B68D31A8DF80B30019B1B681B7917
:10176C009DF80B209A4204D9019B1B689DF80B2015
:10177C001A710020FFF746FF039B184605B05DF871
:10178C0004FB00BF4030000010B584B00190009104
:10179C00019B002B04D111494FF48870FFF765FFB2
:1017AC00009B002B04D10D4940F21110FFF75DFF97
:1017BC00009B03930020FFF711FF019B1B681C6823
:1017CC00621C1A6003990198FFF782FF034623708D
:1017DC000020FFF717FF00BF04B010BD4030000021
:1017EC0010B487B001900091019B009A53E8004F10
:1017FC0004EB020043E8000191F0000FF6D10594D0
:10180C0004900391049B184607B05DF8044B704795
:10181C0010B487B001900091019B009A53E8004FDF
:10182C00A4EB020043E8000191F0000FF6D10594FF
:10183C0004900391049B184607B05DF8044B704765
:10184C0000B58BB001900091019B1B8A043B079360
:10185C00009A079B1344DA1C079BB2FBF3F38DF839
:10186C001B300198FFF74EFF0590059B002B01D113
:10187C00002338E0059B00221A71059B01225A7146
:10188C00079B9AB2059BDA80059B09939DF81B3048
:10189C00013B0493099B019A1A60002308931DE0F5
:1018AC000198FFF72FFF0390039B002B0ED0059B95
:1018BC005B790133DAB2059B5A71099B039A1A6062
:1018CC00039B019A1A60039B099304E0059800F0AE
:1018DC000EF8002307E0089B01330893089A049B39
:1018EC009A42DDD3059B18460BB05DF804FB00B59E
:1018FC008BB00190019B0793079B5B798DF81B3094
:10190C00019B08939DF81B30013B05930023099321
:10191C0005E0089B1B680893099B01330993099AFE
:10192C00059B9A42F5D3089B1B680493019B089373
:10193C00002309930BE0089B1B68039308990498F8
:10194C00FFF722FF039B0893099B013309939DF832
:10195C001B20099B9A42EED800BF0BB05DF804FB2C
:10196C0000B585B00190019B0393039B04330121C7
:10197C001846FFF735FF00BF05B05DF804FB00B556
:10198C0087B00190019B0593059B043301211846F8
:10199C00FFF73EFF0346039303AB0493049B1B78B2
:1019AC00002B02D10198FFF7A2FF00BF07B05DF832
:1019BC0004FB000000B58DB00390029101920093DE
:1019CC00039B0693069BDB880593039B0B93009B61
:1019DC001A1D059BB2FBF3F30A93009B0433059A83
:1019EC00B3FBF2F2059901FB02F29B1A0993009AE0
:1019FC00019B1A44059B1344DA1C059BB2FBF3F3C1
:101A0C008DF81330069B5B799DF813209A420AD906
:101A1C002749BA20FFF729FE05E00B9B1B680B93A7
:101A2C000A9B013B0A930A9B002BF6D100230893D7
:101A3C00059A099BD31A0793079A019B934228BFD7
:101A4C00134607932DE09DF83830002B0BD0029AEB
:101A5C00089BD0180B9A099B13440433079A194618
:101A6C0001F0D0F90AE00B9A099B1344181D029A55
:101A7C00089B1344079A194601F0C4F900230993F3
:101A8C000B9B1B680B93019A079BD31A0193089A23
:101A9C00079B13440893059A019B934228BF134656
:101AAC000793019B002BCED100BF0DB05DF804FB5A
:101ABC00B430000000B587B00590049103920293F6
:101ACC0000230093029B039A04990598FFF772FF79
:101ADC0000BF07B05DF804FB00B585B0019001981C
:101AEC0000F00EF80390039B002B01D0039B00E049
:101AFC00024B184605B05DF804FB00BF3431000002
:101B0C0086B00190164B0593164B04931FE0049A74
:101B1C00059BD31ADB10DA0F13445B10DB00059A1C
:101B2C0013440393039B1B680293029A019B9A42F2
:101B3C0002D9039B04930AE0029A019B9A4203D2B6
:101B4C00039B0833059302E0039B5B6804E0059A52
:101B5C00049B9A42DBD30023184606B0704700BFA3
:101B6C00503400004035000000B583B00346ADF89A
:101B7C000630BDF80630184600F026F803461B6800
:101B8C00012B0CBF01230023DBB2184603B05DF818
:101B9C0004FB00B585B00346ADF80630BDF8063041
:101BAC00184600F011F803461A4600231360BDF8DE
:101BBC000630184600F008F803461B680393039B95
:101BCC0000BF05B05DF804FB82B00346ADF80630EB
:101BDC00BDF8063003F1804303F5C043184602B04C
:101BEC007047000082B00190034BD3F80423019B93
:101BFC001340184602B070470060004082B001905C
:101C0C00054A019B03F5A27352F823301B0A03F01B
:101C1C003F03184602B070470060004082B001904C
:101C2C00064A019B03F5A27352F823301B0C03F0F8
:101C3C000303DBB2184602B0704700BF00600040DF
:101C4C0000B583B00190019B1B682F2B04D90B4965
:101C5C004FF4E870FFF709FD019B1B681F2B02D89E
:101C6C004FF0A04306E0019B1B6803F01F02019B91
:101C7C001A60034B184603B05DF804FB40350000B6
:101C8C000003005000B585B001900B468DF8033071
:101C9C0001AB1846FFF7D4FF0390019A0199039BFF
:101CAC0001F5E07153F8213023F44031039B02F528
:101CBC00E07243F82210019A0199039B01F5E0713F
:101CCC0053F821309DF8031009041943039B02F5C6
:101CDC00E07243F8221000BF05B05DF804FB00B5BC
:101CEC0085B0019001AB1846FFF7AAFF0390019A4B
:101CFC00039B02F5E07253F822301B0C03F0030334
:101D0C00DBB2184605B05DF804FB82B00190019B74
:101D1C00D3F81035184602B07047000000B589B0F2
:101D2C00039002910192174A05AB92E8030083E8F5
:101D3C000300039A029B1344022B04D912494FF45B
:101D4C003A70FFF792FC039B079311E0079B9B00F3
:101D5C0008AA134453F80C3C1846FFF7D6FF02466A
:101D6C00019B1A60019B04330193079B013307937A
:101D7C00039A029B1A44079B9A42E7D800BF09B00A
:101D8C005DF804FB803500004035000084B0019004
:101D9C000091009B0393019BDB080293019B03F0D2
:101DAC00070301930122019B02FA03F30399029AA0
:101DBC000A4412781340184604B0704784B001905E
:101DCC000091009B0393019BDB080293019B03F0A2
:101DDC0007030193039A029B13440399029A0A4442
:101DEC00127851B20120019A00FA02F252B20A435F
:101DFC0052B2D2B21A7000BF04B0704782B00190D8
:101E0C00044A019B1344303393F90030184602B056
:101E1C00704700BF7406002082B00190034A019BFA
:101E2C0052F82330184602B0704700BF74060020E9
:101E3C0000B599B00023179306AB00221A605A60C4
:101E4C004FF48073ADF8563001231493002316938E
:101E5C0021E0BDF856301846FFF786FE0346002BEE
:101E6C000ED01498FFF7BEFE0346002B08D0BDF829
:101E7C0056301846FFF78DFE179A149B1343179391
:101E8C00149B5B001493BDF856300433ADF85630F8
:101E9C00169B01331693169B072BDAD94FF4BE70A1
:101EAC00FFF762FE0346002B0DD04FF4BE70FFF718
:101EBC0070FE179B43F00043179306AB1A460221A2
:101ECC000020FFF72BFF179BDBB2002B29D001233F
:101EDC0014930023169321E0149A179B1340002BA4
:101EEC0016D01698FFF78AFE11901698FFF796FEFB
:101EFC0003468DF843301698FFF78EFF0F900F9B1B
:101F0C00002B05D09DF843200F9B11461198984744
:101F1C00149B5B001493169B01331693169B072B93
:101F2C00DAD9179B002B80F2F08000238DF84B3010
:101F3C0004AB00221A605A60002313930AE0139B2F
:101F4C009B0018AA13444FF0FF3243F8582C139BF4
:101F5C0001331393139B012BF1D900238DF84B30D4
:101F6C000023169378E06B4A169B1344603393F965
:101F7C0000308DF83B309DF83B3023F0C0030D93BF
:101F8C00644A169B1344603393F90030B3F1FF3F5E
:101F9C005FD002AB19460D98FFF7F8FE0346002BF5
:101FAC0057D09DF83B309B098DF833300D98FFF7D7
:101FBC0025FF03461846FFF72FFF0B900B9B002BBA
:101FCC0003D19DF83330032B43D19DF83330032BD1
:101FDC0004D104AB19460D98FFF7F0FE0D98FFF7EE
:101FEC007EFE03468DF82B3006AB19460D98FFF795
:101FFC00CDFE0990099B002B03D09DF82B30022BB2
:10200C0006D0099B002B24D19DF82B30032B20D11B
:10201C009DF83330032B13D19DF82B30022B01D1BB
:10202C00032300E002238DF823309DF8233019465A
:10203C000D98FFF727FE9DF84B3001338DF84B3090
:10204C000B9B002B05D09DF833200B9B11460D9854
:10205C009847169B01331693169B032B83D99DF837
:10206C004B30002B4CD001238DF84A306B461A466E
:10207C0002210020FFF752FE0023139314E0139B60
:10208C009B0018AA134453F8602C139B9B0018A9AF
:10209C000B4453F8483C9A4203D000238DF84A3045
:1020AC0005E0139B01331393139B012BE7D99DF888
:1020BC004A30002B03D000238DF84B3020E0002356
:1020CC0013931AE0139B9B0018AA134453F8602C2B
:1020DC00139B9B0018A90B4443F8482C139B9B00A3
:1020EC0018AA134453F8502C139B9B0018A90B44AB
:1020FC0043F8582C139B01331393139B012BE1D9F9
:10210C009DF84B30002B7FF428AF00BF19B05DF861
:10211C0004FB00BF7406002000B583B003460A46DA
:10212C008DF807301346ADF804309DF80730013BAD
:10213C00164A52F82330002B03D11549F120FFF732
:10214C0094FA9DF80730013B9DF80720013A11499C
:10215C0031F8122011B2BDF90420D24312B20A4058
:10216C0012B291B20B4A22F813109DF80730013BC2
:10217C00064A52F82330BDF804109DF8072010468B
:10218C00984700BF03B05DF804FB00BFDC060020DD
:10219C000C360000F006002008B5044B1B881946CD
:1021AC000120FFF7B9FF00BF08BD00BFF0060020FB
:1021BC0008B5044B5B8819460220FFF7ADFF00BF42
:1021CC0008BD00BFF006002008B5044B9B881946DB
:1021DC000320FFF7A1FF00BF08BD00BFF0060020E1
:1021EC0008B5044BDB8819460420FFF795FF00BFA8
:1021FC0008BD00BFF006002008B5044B1B8919462A
:10220C000520FFF789FF00BF08BD00BFF0060020C6
:10221C0084B001900B46ADF80230BDF80230019A43
:10222C00134400221A60BDF80230019A13441B6853
:10223C000393039B00BF04B0704782B001900B4620
:10224C00ADF80230BDF80230019A13441B68002B24
:10225C0014BF01230023DBB2184602B0704782B0D2
:10226C0001900091019BD3F80423009B1340002B99
:10227C0014BF01230023DBB2184602B0704782B0B2
:10228C0001900091019B009AC3F8082300BF02B093
:10229C00704784B00190019BD3F880340393019B69
:1022AC00039AC3F88024039B184604B0704782B08D
:1022BC000190019BD3F81835DBB2184602B0704779
:1022CC0082B001900B468DF803309DF80320019BE2
:1022DC00C3F81C2500BF02B0704782B001900B46BA
:1022EC008DF803309DF80330019A134401221A60D3
:1022FC0000BF02B0704784B001900B46ADF80230BD
:10230C00BDF80230019A134400221A60BDF8023065
:10231C00019A13441B680393039B00BF04B07047DE
:10232C0082B001900B46ADF80230BDF80230019A34
:10233C0013441B68002B14BF01230023DBB2184687
:10234C0002B0704782B001900091019BD3F800223B
:10235C00009BDB431A40019BC3F8002200BF02B074
:10236C00704784B00190019BD3F880340393019B98
:10237C00039AC3F88024039B184604B0704782B0BC
:10238C000190019BD3F84C35184602B0704782B0CF
:10239C000190019BD3F83C35184602B0704700B54C
:1023AC0085B0019000914FF48E710198FFF730FFCA
:1023BC00009B9B68009A928A92B213441B788DF80A
:1023CC000F30009B9B8A9BB201339AB2009B9A827E
:1023DC009DF80F3019460198FFF772FF00BF05B04A
:1023EC005DF804FB10B582B001900091009BDB7D81
:1023FC00002B08D14FF484710198FFF709FF019865
:10240C00FFF755FF16E04FF484710198FFF700FFBA
:10241C00009BDB68009A527ED2B29C180198FFF7A1
:10242C0046FF03462370009B5B7EDBB20133DAB2BE
:10243C00009B5A7602B010BD00B589B003900B46D4
:10244C0001928DF80B3001238DF810309DF80B3074
:10245C008DF81830019B0593039B5B68039A1168F8
:10246C0004AA1046984700BF09B05DF804FB00B5FC
:10247C0087B001900B468DF8033000238DF808309F
:10248C009DF803308DF81030019B9B680393019BE2
:10249C0000229A75019B5B68019A116802AA10468A
:1024AC00984700BF07B05DF804FB00B589B00190F8
:1024BC0000914FF400710198FFF7D1FE0346002BF9
:1024CC0039D04FF492710198FFF7B7FE0346002BF9
:1024DC0031D04FF492710198FFF79AFE4FF40171CD
:1024EC000198FFF7CCFE009B9B7E83F00103DBB2CF
:1024FC00002B03D004210198FFF7EFFE02238DF887
:10250C0008300198FFF7C5FE03460593009BDB7D61
:10251C008DF81030009BDB680393009B0022DA756A
:10252C00009B00221A76009B5B68009A116802AA35
:10253C001046984756E004210198FFF790FE034699
:10254C00002B4FD04FF484710198FFF776FE0346B1
:10255C00002B47D000990198FFF744FF009BDA7DD0
:10256C00009B5B7EDBB29A423CD1009B1B7E002B16
:10257C001CD0009BDB680793009B5B7E8DF81B30A7
:10258C00009B1A7E009BDA75009B1A69009BDA602F
:10259C00009B00221A76009B00225A769DF81B3075
:1025AC00079A19460098FFF747FF1BE0009B9B7E9C
:1025BC0083F00103DBB2002B03D004210198FFF759
:1025CC008CFE4FF401710198FFF759FE009B00221D
:1025DC00DA75009B5B7ED9B2009BDB681A460098CB
:1025EC00FFF72AFF4FF48E710198FFF726FE034682
:1025FC00002B1BD0009B9B8A9AB2009B9B7D9BB2AD
:10260C009A4204D200990198FFF7C9FE0EE04FF4EC
:10261C008E710198FFF7FCFD009B9B7D002B05D074
:10262C00009B9B7D19460098FFF721FF4FF4A27188
:10263C000198FFF702FE0346002B1CD04FF4A27149
:10264C000198FFF7E5FD009B9B7E002B03D000213A
:10265C000198FFF742FE009BDB7D002B0BD0009B0B
:10266C000022DA75009B5B7ED9B2009BDB681A46B0
:10267C000098FFF7E1FE00BF09B05DF804FB00B560
:10268C0089B0019000914FF492710198FFF748FEC8
:10269C000346002B24D04FF492710198FFF72BFEC8
:1026AC0002238DF808300198FFF75BFE0346059373
:1026BC000198FFF76CFE0346DBB28DF81030009BDF
:1026CC00DB680393009B0022DA75009B00221A76CC
:1026DC00009B5B68009A116802AA1046984741E07B
:1026EC004FF488710198FFF71BFE0346002B39D07D
:1026FC004FF488710198FFF7FEFD0198FFF747FE34
:10270C0003468DF81F30009BDB7D9DF81F209A42FD
:10271C0028D1009B1B7E002B19D0009BDB680693F5
:10272C0020210198FFF70EFE009B1A7E009BDA75A4
:10273C00009B1A69009BDA60009B00221A769DF8B8
:10274C001F30069A19460098FFF776FE0AE0009BA8
:10275C000022DA75009BDA689DF81F301946009844
:10276C00FFF76AFE4FF4A2710198FFF7D9FD0346FB
:10277C00002B16D04FF4A2710198FFF7BCFD009B03
:10278C00DB7D002B0DD0009B0022DA750198FFF742
:10279C00FEFD0346D9B2009BDB681A460098FFF792
:1027AC004BFE4FF490710198FFF7BAFD0346002BD6
:1027BC0011D04FF490710198FFF79DFD009B9B7D0C
:1027CC00002B08D00198FFF7DAFD0346DBB219465F
:1027DC000098FFF74CFE00BF09B05DF804FB000049
:1027EC0008B5074B1B7F002B04D005490548FFF7A4
:1027FC0046FF03E002490348FFF757FE00BF08BD40
:10280C00FC0600200020004000B583B00190019B25
:10281C001B682F2B04D90B494FF4E870FEF725FFEA
:10282C00019B1B681F2B02D84FF0A04306E0019BB5
:10283C001B6803F01F02019B1A60034B184603B080
:10284C005DF804FB783700000003005000B585B03C
:10285C000190084611461A4603468DF803300B4684
:10286C008DF8023013468DF8013001AB1846FFF796
:10287C00CBFF0390019A9DF803109DF802305B008A
:10288C0019439DF801309B0019439DF818301B0229
:10289C0019439DF81C301B041943039B02F5E0728D
:1028AC0043F8221000BF05B05DF804FB00B585B0FD
:1028BC0003900023019300230093002301220121A4
:1028CC000398FFF7C3FF00BF05B05DF804FB00B52C
:1028DC0085B0019001AB1846FFF796FF0390019B62
:1028EC00012202FA03F31946039800F004F800BF22
:1028FC0005B05DF804FB82B001900091019B009A39
:10290C00C3F80C2500BF02B070474FF08043002283
:10291C00C3F800214FF0804301221A6000BF4FF032
:10292C008043D3F80031002BF9D000BF7047000072
:10293C00084B094AC3F81425064B084AC3F8182556
:10294C00044B074AC3F81C25024B064AC3F8202542
:10295C0000BF704700600040030B0300030C030032
:10296C00030D030003141300104B114AC3F8102578
:10297C000E4B104AC3F814250C4B0F4AC3F8102900
:10298C000A4B0122C3F80425084B094AC3F8182541
:10299C00064B0A4AC3F81C25044B094AC3F81429F0
:1029AC00024B0222C3F8042500BF704700F001401F
:1029BC0040910040046000400860004010600040FE
:1029CC000C600040214B0022C3F804251F4B03224E
:1029DC00C3F808251D4B0422C3F810251B4B1C4AB9
:1029EC00C3F84025194B0122C3F80022174B4FF4B2
:1029FC008032C3F80423154B01221A60154B0022B8
:102A0C00C3F80425134B0322C3F80825114B0422E9
:102A1C00C3F810250F4B0022C3F840250D4B0122A3
:102A2C001A600D4B0022C3F804250B4B0322C3F88C
:102A3C000825094B0422C3F81025074B0022C3F8C4
:102A4C004025054B01221A6000BF704700900040E2
:102A5C0040420F0000A0004000A0014008B511202A
:102A6C00FFF724FF1120FFF732FFFFF74EFFFFF7B0
:102A7C00A9FFFFF75DFFFFF777FF20BFFDE7000021
:102A8C00BFF34F8F0549054BDB6803F4E062044B41
:102A9C001343CB60BFF34F8F00BFFDE700ED00E0A9
:102AAC000400FA05024B034A1A6000BF704700BFCE
:102ABC003C0000200090D00308B500F025F9034637
:102ACC00002B0ED04FF080430022C3F80C214FF0A6
:102ADC0080430022C3F810214FF080430022C3F83A
:102AEC00382500F023F90346002B76D07D4A4FF0B1
:102AFC008053D3F80434C2F820357A4A4FF080530F
:102B0C00D3F80834C2F82435764A4FF08053D3F802
:102B1C000C34C2F82835734A4FF08053D3F8103474
:102B2C00C2F82C356F4A4FF08053D3F81434C2F8E6
:102B3C0030356C4A4FF08053D3F81834C2F8343522
:102B4C00684A4FF08053D3F81C34C2F84035654ABC
:102B5C004FF08053D3F82034C2F84435614A4FF01B
:102B6C008053D3F82434C2F848355E4A4FF0805372
:102B7C00D3F82834C2F84C355A4A4FF08053D3F866
:102B8C002C34C2F85035574A4FF08053D3F83034B8
:102B9C00C2F85435534A4FF08053D3F83434C2F84A
:102BAC006035504A4FF08053D3F83834C2F864354E
:102BBC004C4A4FF08053D3F83C34C2F86835494A3C
:102BCC004FF08053D3F84034C2F86C35454A4FF07F
:102BDC008053D3F84434C2F8703500F0B9F803468A
:102BEC00002B02D0404B414A1A6000F0C3F8034658
:102BFC00002B03D03E4BFB22C3F8182500F0CCF879
:102C0C000346002B0AD03B493A4B1B6823F00F02BA
:102C1C00394B1B6803F00F0313430B6000F0CEF825
:102C2C000346002B03D0354B4FF400721A6000F0B2
:102C3C00D7F80346002B0DD04FF08043D3F8003467
:102C4C0003F00103002B05D04FF080436FF001021D
:102C5C00C3F800242A4A2A4BD3F8883043F4700373
:102C6C00C2F88830BFF34F8FBFF36F8F4FF0102334
:102C7C00D3F80032002B05DB4FF01023D3F80432CD
:102C8C00002B2BDA1F4B0122C3F8042500BF1D4B70
:102C9C00D3F80034002BFAD04FF010231222C3F8D3
:102CAC00002200BF174BD3F80034002BFAD04FF0A2
:102CBC0010231222C3F8042200BF124BD3F80034A5
:102CCC00002BFAD00F4B0022C3F8042500BF0D4B8C
:102CDC00D3F80034002BFAD0FFF7D2FEFFF7E2FE58
:102CEC0000BF08BD00C000408C5600404881030066
:102CFC0000F00040E40E00405802001040960240E4
:102D0C0000ED00E000E00140064B1B68082B05D1EC
:102D1C00054B1B68002B01D1012300E00023184652
:102D2C00704700BF3001001034010010064B1B68C7
:102D3C00082B05D1054B1B68002B01D1012300E0AA
:102D4C0000231846704700BF3001001034010010FA
:102D5C00064B1B68082B05D1054B1B68002B01D1BA
:102D6C00012300E000231846704700BF300100101B
:102D7C0034010010064B1B68082B05D1054B1B6852
:102D8C00002B01D1012300E000231846704700BF3F
:102D9C003001001034010010064B1B68082B05D1C4
:102DAC00054B1B68002B01D1012300E000231846C2
:102DBC00704700BF3001001034010010064B1B6837
:102DCC00082B05D1054B1B68002B01D1012300E01A
:102DDC0000231846704700BF30010010340100106A
:102DEC00064B1B68082B05D1054B1B68002B01D12A
:102DFC00012300E000231846704700BF300100108B
:102E0C0034010010844640EA010313F0030F18D17B
:102E1C008446202A0BD32DE9F007B1E8F807A0E887
:102E2C00F807A2F12002202AF7D2BDE8F007042A05
:102E3C0007D351F8043B40F8043BA2F10402042AE6
:102E4C00F7D2002A05D011F8013B00F8013B013AFA
:082E5C00F9D16046704700BF88
:102E6400E82E0000000003003830000000000000DD
:102E74008835000000000000083600000000030050
:082E8400FC3600000000000014
:102E8C000000000000000000000000000000000036
:102E9C000000000000000000000000000000000026
:102EAC000000000000000000000000000000000016
:0C2EBC000000000000000000000000000A
:102EC80008010020400000204800002048000020A1
:102ED800180000004F766572666C6F77000000007E
:102EE800617070002F55736572732F6A616E746F0D
:102EF8007265677567676564616C2F44726F70628D
:102F08006F782F6769746875622F706F7369746959
:102F18006F6E696E675F6669726D776172652F653E
:102F2800787465726E616C2F53444B2F636F6D70AC
:102F38006F6E656E74732F6C696272617269657306
:102F48002F6578706572696D656E74616C5F6C6F02
:102F5800672F7372632F6E72665F6C6F675F66723E
:102F68006F6E74656E642E63000000004153534514
:102F78005254494F4E204641494C454420617420E3
:102F880025733A25750000004552524F5220257589
:102F9800205B25735D2061742025733A2575000038
:102FA800554E4B4E4F574E204641554C5420617458
:102FB80020307825303858002F55736572732F6A82
:102FC800616E746F7265677567676564616C2F44BD
:102FD800726F70626F782F6769746875622F706F8F
:102FE800736974696F6E696E675F6669726D776120
:102FF80072652F65787465726E616C2F53444B2F20
:10300800636F6D706F6E656E74732F6C6962726139
:10301800726965732F7574696C2F6170705F757450
:10302800696C5F706C6174666F726D2E630000006E
:1030380062616C6C6F6300002F55736572732F6A41
:10304800616E746F7265677567676564616C2F443C
:10305800726F70626F782F6769746875622F706F0E
:10306800736974696F6E696E675F6669726D77619F
:1030780072652F65787465726E616C2F53444B2F9F
:10308800636F6D706F6E656E74732F6C69627261B9
:10309800726965732F62616C6C6F632F6E72665F05
:1030A80062616C6C6F632E63000000002F557365BE
:1030B80072732F6A616E746F72656775676765648E
:1030C800616C2F44726F70626F782F6769746875CE
:1030D800622F706F736974696F6E696E675F666976
:1030E800726D776172652F65787465726E616C2F89
:1030F80053444B2F636F6D706F6E656E74732F6CD6
:1031080069627261726965732F6578706572696D3D
:10311800656E74616C5F6D656D6F626A2F6E726645
:103128005F6D656D6F626A2E63000000556E6B6E91
:103138006F776E206572726F7220636F646500002E
:103148004E52465F53554343455353004E52465FD4
:103158004552524F525F5356435F48414E444C4587
:10316800525F4D495353494E470000004E52465F47
:103178004552524F525F534F465444455649434572
:103188005F4E4F545F454E41424C4544000000009D
:103198004E52465F4552524F525F494E5445524E29
:1031A800414C00004E52465F4552524F525F4E4FBF
:1031B8005F4D454D000000004E52465F4552524F4C
:1031C800525F4E4F545F464F554E44004E52465F35
:1031D8004552524F525F4E4F545F535550504F52C5
:1031E800544544004E52465F4552524F525F494E35
:1031F80056414C49445F504152414D004E52465F42
:103208004552524F525F494E56414C49445F5354C0
:10321800415445004E52465F4552524F525F494E07
:1032280056414C49445F4C454E4754480000000005
:103238004E52465F4552524F525F494E56414C4995
:10324800445F464C414753004E52465F4552524FE9
:10325800525F494E56414C49445F44415441000035
:103268004E52465F4552524F525F444154415F535C
:10327800495A45004E52465F4552524F525F544993
:103288004D454F55540000004E52465F4552524F2F
:10329800525F4E554C4C00004E52465F4552524FBD
:1032A800525F464F5242494444454E004E52465F93
:1032B8004552524F525F494E56414C49445F414432
:1032C800445200004E52465F4552524F525F42559B
:1032D800535900004E52465F4552524F525F4D4F70
:1032E80044554C455F4E4F545F494E495449414CF3
:1032F8005A4544004E52465F4552524F525F4D5513
:103308005445585F494E49545F4641494C4544002D
:103318004E52465F4552524F525F4D555445585F85
:103328004C4F434B5F4641494C4544004E52465F23
:103338004552524F525F4D555445585F554E4C4F6C
:10334800434B5F4641494C45440000004E52465F9E
:103358004552524F525F4D555445585F434F4E4466
:103368005F494E49545F4641494C454400000000BE
:103378004E52465F4552524F525F4D4F44554C4551
:103388005F414C52454144595F494E495449414C6B
:10339800495A4544000000004E52465F4552524F7C
:1033A800525F53544F524147455F46554C4C0000BD
:1033B8004E52465F4552524F525F4150495F4E4F01
:1033C800545F494D504C454D454E5445440000000E
:1033D8004E52465F4552524F525F464541545552F0
:1033E800455F4E4F545F454E41424C4544000000F6
:1033F8004E52465F4552524F525F4452565F5457A1
:10340800495F4552525F4F56455252554E00000093
:103418004E52465F4552524F525F4452565F545780
:10342800495F4552525F414E41434B004E52465F01
:103438004552524F525F4452565F5457495F455266
:10344800525F444E41434B000000000048310000E9
:103458000100000054310000020000007431000037
:10346800030000009831000004000000AC310000A7
:1034780005000000C031000006000000D431000043
:1034880007000000EC3100000800000004320000D2
:10349800090000001C3200000A0000003832000059
:1034A8000B000000503200000C00000068320000E1
:1034B8000D0000007C3200000E0000009032000079
:1034C8000F000000A032000010000000B43200001D
:1034D80011000000CC32000080000000DC32000047
:1034E80081000000FC320000820000001833000058
:1034F80083000000343300008400000054330000CF
:10350800850000007833000086000000A03300002A
:1035180090000000B833000091000000D83300008C
:1035280000820000F8330000018200001834000017
:1035380002820000343400002E2E2F2E2E2F2E2E25
:103548002F2E2E2F65787465726E616C2F53444B45
:103558002F636F6D706F6E656E74732F647269760A
:103568006572735F6E72662F68616C2F6E72665F2C
:103578006770696F2E68000000000050000300505B
:103588006770696F746500002F55736572732F6AD1
:10359800616E746F7265677567676564616C2F44E7
:1035A800726F70626F782F6769746875622F706FB9
:1035B800736974696F6E696E675F6669726D77614A
:1035C80072652F65787465726E616C2F53444B2F4A
:1035D800636F6D706F6E656E74732F647269766554
:1035E80072735F6E72662F6770696F74652F6E7283
:1035F800665F6472765F6770696F74652E6300003A
:10360800737769002F55736572732F6A616E746FD3
:103618007265677567676564616C2F44726F706265
:103628006F782F6769746875622F706F7369746932
:103638006F6E696E675F6669726D776172652F6517
:10364800787465726E616C2F53444B2F636F6D7085
:103658006F6E656E74732F647269766572735F6ED0
:1036680072662F7377692F6E72665F6472765F7306
:1036780077692E630000000046756E6374696F6E8B
:103688003A2025732C206572726F7220636F64650F
:103698003A2025732E000000535749206368616E55
:1036A8006E656C20616C6C6F63617465643A20258B
:1036B800642E00002E2E2F2E2E2F2E2E2F2E2E2F44
:1036C80065787465726E616C2F53444B2F636F6D10
:1036D800706F6E656E74732F647269766572735F4E
:1036E8006E72662F68616C2F6E72665F6770696FA5
:1036F8002E68000075617274000000002F55736514
:1037080072732F6A616E746F726567756767656437
:10371800616C2F44726F70626F782F676974687577
:10372800622F706F736974696F6E696E675F66691F
:10373800726D776172652F65787465726E616C2F32
:1037480053444B2F636F6D706F6E656E74732F6487
:103758007269766572735F6E72662F756172742F07
:103768006E72665F6472765F756172742E630000B4
:103778002E2E2F2E2E2F2E2E2F2E2E2F657874655F
:10378800726E616C2F53444B2F636F6D706F6E6553
:103798006E74732F647269766572735F6E72662FCA
:0F37A80068616C2F6E72665F6770696F2E6800C4
:0437B8000090D003AA
:04000003000002599E
:00000001FF
