:020000022000DC
:1060000000F000206D630200556302005763020038
:10601000596302005B6302005D6302000000000040
:106020000000000000000000000000005F630200AC
:106030006163020000000000636302006563020008
:10604000676302006763020055190300676302007B
:106050006763020067630200676302006763020010
:106060006763020067630200559A030067630200DA
:1060700067630200676302006763020067630200F0
:1060800067630200792A040035D9020067630200C1
:10609000DD2A040067630200E1C2030067630200B7
:1060A00067630200676302006763020067630200C0
:1060B0006763020067630200000000000000000048
:1060C00067630200676302006763020067630200A0
:1060D000676302006763020067630200000000005C
:1060E00000000000000000000000000000000000B0
:1060F00000000000000000000000000000000000A0
:10610000000000000000000000000000000000008F
:10611000000000000000000000000000000000007F
:10612000000000000000000000000000000000006F
:10613000000000000000000000000000000000005F
:10614000000000000000000000000000000000004F
:10615000000000000000000000000000000000003F
:10616000000000000000000000000000000000002F
:10617000000000000000000000000000000000001F
:10618000000000000000000000000000000000000F
:1061900000000000000000000000000000000000FF
:1061A00000000000000000000000000000000000EF
:1061B00000000000000000000000000000000000DF
:1061C00000000000000000000000000000000000CF
:1061D00000000000000000000000000000000000BF
:1061E00000000000000000000000000000000000AF
:1061F000000000000000000000000000000000009F
:10620000344935480A1A02D0072291438D46334952
:1062100033480A1A06D00722914381F309880222E3
:1062200082F314882F483049304A00F042F8304851
:106230003049314A00F03DF830483149314A00F0E8
:1062400038F831483149324A00F033F831483249A0
:10625000324A00F02EF832483249334A00F029F829
:1062600032483349334A00F024F833483349002296
:1062700000F02AF832483349002200F025F832486D
:106280003249091A082902DB0022026041601F48D6
:106290001F49884205D00268043003B4904703BC0C
:1062A000F7E700208646EC4600200021284A904768
:1062B000FEE7884207D0521A05D0037801300B70F0
:1062C0000131013AF9D17047884202D002700130A1
:1062D000FAE7704700F0002000E8002000F00020FE
:1062E00000F0002038570400A02D0020C42E00200C
:1062F000A4630200A4630200722F04003857040054
:10630000A02D0020A02D00204430040044300400C3
:10631000443004004430040044300400443004009D
:106320004430040044300400365704005C58040034
:10633000C42E0020C42E0020C42E00208868002017
:10634000886800208868002088680020886C002009
:1063500075750200FEE7FEE7FEE7FEE7FEE7FEE7F3
:10636000FEE7FEE7FEE7FEE7704700BF094880470B
:1063700009484FF007018843854608488047084888
:10638000016841F470010160BFF34F8FBFF36F8F5D
:10639000FFF736BF6963020000F00020C5C50300A7
:0463A00088ED00E0A4
:1063A40041DF704708B5804708BD000008B5034ABF
:1063B4008F21032016F02EFA08BD00BFA433040079
:1063C40030B5C7B0734B1B6813F4804F03D0724BC6
:1063D4001B68032B30DC6F4B1B6813F4804F03D016
:1063E4006D4B1B68032B33DC6A4B1B6813F4804F23
:1063F40003D0694B1B68032B3DDC664B1B6813F40D
:10640400804F03D0644B1B68032B60DC614B1B681B
:1064140013F4804F04D0604B1B68032B00F382807D
:106424005C4B1B6813F4804F04D05B4B1B68032B3D
:1064340000F3A38047B030BD584BD3F80435584A15
:10644400009240F29F225749042008F0DDF9C2E788
:10645400524BD3F80435544A11885088D288039299
:1064640002900191514A009240F2A1224D49042028
:1064740008F0CAF9B8E700230F2B12D84A4A1A4485
:1064840092F82C204A490C6810095900255C05A88B
:1064940000F8135002F00F020131A25C42540133A0
:1064A400EAE705AA00238DF8343003F1804303F5AD
:1064B4008833D3F8043502923E4A01923E4A009250
:1064C40040F2A2223749042008F09EF995E7002300
:1064D4000F2B11D8344A1A44127B35490C68100921
:1064E4005900255C05A800F8135002F00F02013191
:1064F400A25C42540133EBE705AA00238DF8343043
:1065040003F1804303F58833D3F8043502922B4A10
:106514000192294A009240F2A3222249042008F061
:1065240073F973E700230F2B11D81F4A1A44127F03
:106534001F490C6810095900255C05A800F8135080
:1065440002F00F020131A25C42540133EBE705AAC9
:1065540000238DF8343003F1804303F58833D3F8F6
:1065640004350292164A0192134A00924FF429729A
:106574000C49042008F048F952E7084BD3F80435D5
:10658400104A009240F2A5220649042008F03CF982
:1065940050E700BF382E0020342E002000100140A8
:1065A4006C320400F43304000C2F00208832040001
:1065B4003C2E0020CC320400D8320400E032040027
:1065C400EC320400F832040003780E2B00D070473C
:1065D40000B583B0104B1B6813F4804F03D00F4BEE
:1065E4001B68042B05DC0E4B1B7873B103B05DF8FC
:1065F40004FB0C4BD3F804350B4A009240F2AB1267
:106604000A49052008F000F9EDE7FFF7D9FE044B2D
:1066140001221A70EAE700BF382E0020342E002031
:106624005C2F002000100140E8310400F433040022
:106634000C4B1B6813F4804F03D00B4B1B68032BCC
:1066440000DC704700B583B0084BD3F80435084A22
:1066540000929B220749042008F0D6F803B05DF8A5
:1066640004FB00BF382E0020342E0020001001400F
:10667400FC330400F433040000B583B02A4B1B68D8
:1066840013F4804F03D0294B1B68032B21DC284BC8
:106694004FF6FF725A809A801A80264818F0A2FB9F
:1066A40018BB254A002125481BF088FC18BB244848
:1066B4001BF0DCFD28BB002122481BF0DBFE30BBB5
:1066C400214A002121481BF019FF30BB03B05DF8BB
:1066D40004FB1F4BD3F804351E4A009240F24B22B0
:1066E4001D49042008F090F8D1E71C4A40F25321D8
:1066F40016F090F8D5E7194A4FF4157116F08AF898
:10670400D5E7164A40F2552116F084F8D3E7134A28
:1067140040F2562116F07EF8D2E7104A40F2572193
:1067240016F078F8D2E700BF382E0020342E00206F
:10673400CC2E002031690200A5680200D42E00206E
:10674400542F0020502F002065670200482F00209E
:1067540000100140AC340400F4330400A4330400FA
:10676400F0B5C5B0064680242246002124A81CF0BA
:1067740099FB2246002104A81CF094FB3289C2F341
:106784008704651CAD00EDB201238DF8903071686B
:1067940004A81CF05EFB3B4B1B6813F4804F03D032
:1067A400394B1B68032B35DC364B1B6813F4804FC5
:1067B40003D0354B1B68032B38DCFF238DF8913055
:1067C400F3891A0A8DF892208DF8933000210B4634
:1067D400A1423AD204AA32F821601F1D4FEA162CB6
:1067E40044A8384400F880CC581D0DF5887C6044DA
:1067F40000F8806C981D02EB81029678604400F8E2
:10680400806C0733D278634403F8802CFBB20131E7
:10681400C9B2DDE71D4BD3F804351D4A009240F29E
:106824004F121C49042007F0EFFFBDE7174BD3F8C4
:106834000435F28902940192174A00924FF4A87227
:106844001449042007F0E0FFB7E7294624A80DF017
:1068540044F940B10B4B1B6813F4804F03D00A4B2F
:106864001B68032B01DC45B0F0BD084BD3F804359D
:1068740001900A4A009240F267120649042007F088
:10688400C3FFF0E7382E0020342E00200010014012
:1068940038330400F433040094310400B0310400AC
:1068A4004B685B691A7802B1704710B582B00C4628
:1068B40001AA03F10F0106481BF086FC63685B69BB
:1068C40093F90D10BDF804001BF090FD02B010BD4B
:1068D400542F002000B583B00E4B1B6813F4804F77
:1068E40003D00D4B1B68032B04DC02F097FC03B0B0
:1068F4005DF804FB094BD3F80435094A5288019228
:10690400084A00924FF492720749042007F07CFF72
:10691400EBE700BF382E0020342E00200010014089
:106924000C2F0020D0300400F433040070B586B07E
:1069340005460C4616463C4B1B6813F4804F03D0A7
:106944003A4B1B68032B0BDC228848F24A039A4219
:1069540012D032462146284601F07AFF06B070BDB7
:10696400334BD3F80435334A00924FF4C37232499F
:10697400042007F049FFE7E7304C03A9208812F010
:106984004DF8BDF80C0012F01DF818F08FFB002331
:106994000493059301238DF810302388ADF8123049
:1069A4000DF10E0104A811F039FCBDF80E0011F030
:1069B400B5FA0DF10E0104A811F030FC40B91A4BE0
:1069C4001B6813F4804F03D0184B1B68032B0FDC98
:1069D400154B1B6813F4804F03D0144B1B68032B17
:1069E40012DC164B188802F031FA02F017FCB5E7F6
:1069F4000F4BD3F80435124A00924FF4CB720E4970
:106A0400042007F001FFE3E7094BD3F804350B4AF0
:106A1400128801920B4A00924FF4CC72064904206A
:106A240007F0F2FEDDE700BF382E0020342E0020F0
:106A3400001001405C300400F4330400C42E002034
:106A440074300400A8300400F8B53C220121104839
:106A540008F033FDB8B107460E4C051D04F1300CA7
:106A640026460FCE28606960AA60EB603446103574
:106A74006645F5D107CC28606960AA60384608F0FD
:106A840055FD0020F8BD044808F07EFEF9E700BF7C
:106A9400E82E00200C2F0020B42D002000B583B078
:106AA400184B1B6813F4804F03D0174B1B68032B40
:106AB40013DC01220021154B188802F01BFA144A3A
:106AC4005388013353800DF013FFFFF7BDFF98B9CE
:106AD40002F0A4FB03B05DF804FB0E4BD3F80435BD
:106AE4000B4A528801920C4A009240F219120B4947
:106AF400042007F089FEDCE7094A4FF48F7115F092
:106B040089FEE5E7382E0020342E0020A02D002039
:106B14000C2F0020001001402C310400F433040039
:106B2400A433040008B5FFF78FFF00B908BD034A7A
:106B34004FF4807115F06EFEF8E700BFA433040033
:106B440000B583B00E4B1B6813F4804F03D00D4B7C
:106B54001B68032B08DC02F061FB00210B2001F011
:106B640097FF03B05DF804FB074BD3F80435074ADD
:106B7400009240F233120649042007F045FEEAE78A
:106B8400382E0020342E002000100140043204006E
:106B9400F433040000B583B002F00AF9114B1B680A
:106BA40013F4804F03D0104B1B68032B07DC02F057
:106BB40035FBFFF749FF70B903B05DF804FB0B4BDD
:106BC400D3F804350A4A009240F22B1209490420F2
:106BD40007F01AFEEBE7084A4FF4977115F01AFE16
:106BE400EAE700BF382E0020342E002000100140B8
:106BF40034320400F4330400A433040010B582B02A
:106C04000446104B1B6813F4804F03D00E4B1B68D3
:106C1400032B04DC23781C2B0FD002B010BD0B4BCC
:106C2400D3F8043502780192094A00924FF4BD72F8
:106C34000849042007F0E8FDECE7002005F0FCFC1F
:106C4400EBE700BF382E0020342E00200010014056
:106C540010310400F433040000B58BB008A909A86E
:106C64000CF0D2FFA8B9194B0593194B0693194B95
:106C7400079304230493099BA3F5805302930123F0
:106C8400039302A9144808F030FD38B90BB05DF83D
:106C940004FB124AA82115F0BDFDE4E7104808F0F2
:106CA40073FD104B1B6813F4804FEFD00E4B1B6821
:106CB400002BEBDD0D4BD3F804350D4A0092B522C1
:106CC4000C49012007F0A0FDE0E700BFFD6C0200C5
:106CD400B163020035660200E82E0020A4330400EC
:106CE400A42D0020382E0020342E00200010014056
:106CF40068310400F433040010B582B01446154B17
:106D04001B6813F4804F03D0134B1B68032B07DC61
:106D1400012C10D0022C12D0032C14D002B010BDC0
:106D24000E4BD3F804350E4A00927F220D490420FD
:106D340007F06AFDECE7784602F010F8EAE77846D7
:106D440002F00CF8E8E7084A8821042015F062FDF7
:106D5400E4E700BF382E0020342E0020001001404C
:106D640014340400F4330400A433040010B582B0D6
:106D74003C23019301AB094A0121094808F05EFB59
:106D8400044620B9B4FA84F0400902B010BD3C2294
:106D9400002102481CF086F8F4E700BF0C2F002005
:106DA400E82E002010B582B0FFF756FFFFF7DEFF94
:106DB400044658B1144B1B6813F4804F03D0134B93
:106DC4001B68032B13DC204602B010BD104B0022BD
:106DD4001A805A804FF48072DA80FFF735FE00285B
:106DE400F1D00C4A4FF4FA7115F014FDEBE70A4B9D
:106DF400D3F80435094A00924FF4FC720849042080
:106E040007F002FDDFE700BF382E0020342E0020FB
:106E14000C2F0020A433040000100140543104005E
:106E2400F433040000B583B06421264801F0FAFD70
:106E3400254B1B6813F4804F03D0244B1B68032B92
:106E44001CDC05F02BFB28BB1F4B1B6813F4804F85
:106E540003D01E4B1B68032B22DC0CF03AFE58BBFC
:106E640001214FF4C05001F022FE0222C8214FF448
:106E7400C05001F027FE03B05DF804FB144BD3F8B7
:106E84000435144A009240F2AB221349042007F05F
:106E9400BBFCD6E7114A40F2B12115F0BBFCD3E7A5
:106EA4000B4BD3F804350E4A009240F2B3220A4940
:106EB400042007F0A9FCD0E7084A4FF42D7115F01F
:106EC400A9FCCDE7D56F0200382E0020342E002017
:106ED40000100140CC340400F4330400A433040053
:106EE400D834040008B53C22002106481BF0DAFF20
:106EF400054808F0ADF900B908BD044808F044FCA1
:106F0400FAE700BF0C2F0020E82E0020D02D00202F
:106F140010B582B00446274B1B6813F4804F03D08E
:106F2400254B1B68032B03DC032C0FD002B010BDD0
:106F3400224BD3F80435421C0192214A009240F2BC
:106F4400FF122049042007F05FFCEDE7194B1B6892
:106F540013F4804F03D0184B1B68032B1EDCFFF780
:106F6400C1FF0CF003FE0422C8214FF4805001F04D
:106F7400A9FD104B1B6813F4804FD7D00E4B1B6830
:106F8400032BD3DD0D4BD3F804350F4A009240F2A6
:106F940012220C49042007F037FCC7E7074BD3F84B
:106FA40004350A4A00924FF403720649042007F09C
:106FB4002BFCD4E7382E0020342E00200010014092
:106FC4003C330400F43304006833040050330400F9
:106FD40010B582B00446303804280AD9702C4BD03E
:106FE4000ADC2D2C12D0632C4BD02B2C29D002B0D0
:106FF40010BDFFF78DFFF1E7722C48D04EDB772CE4
:10700400F5D1294B188801F021FFF0E7264B1A88A7
:10701400013A92B21A80254B1B6813F4804FE6D0D4
:10702400234B1B68032BE2DD224BD3F8043501927A
:10703400214A009240F227222049042007F0E4FB71
:10704400D5E7194B1A88013292B21A80174B1B6884
:1070540013F4804FCBD0164B1B68032BC7DD154BA5
:10706400D3F804350192144A009240F22D221349B8
:10707400042007F0C9FBBAE70B4B188801F078FF2E
:10708400B5E70F49084B188801F0E0FFAFE7064B5E
:1070940018880C4B188002F05FF8A8E7024B188898
:1070A40001F086FEA3E700BFA02D0020382E0020AB
:1070B400342E00200010014050320400F433040048
:1070C400282F0020C42E002010B50CF0BBFD044670
:1070D400B2494CF2050010F061FF002840F0C8806E
:1070E400AF494CF2050010F0C5FE002840F0C68000
:1070F400AC494CF2040010F051FF002840F0C48069
:10710400A9494CF2040010F0B5FE002840F0C280FA
:10711400A649012010F0AEFE002840F0C180A44B27
:10712400998820880EF05CFC002840F0BF80A04BBA
:10713400998820880EF018FD002840F0BD80984BF7
:10714400198820880EF0EAF9002840F0BB8001225B
:10715400114620880EF092FA002840F0B980944B32
:10716400998818890EF03CFC002840F0B780904BB9
:10717400998818890EF0F8FC002840F0B5808C4BF3
:1071840018890EF0F7FA002840F0B480834B198870
:10719400874B18890EF032FB002840F0B180844BF5
:1071A4009988844B18880EF01BFC002840F0AE80B0
:1071B4007F4B99887F4B18880EF0D6FC002840F04E
:1071C400AB807C4B18880EF0D5FA002840F0AA80DA
:1071D400744B1988774B18880EF010FB002840F088
:1071E400A780714B1988734B18880EF097F9002803
:1071F40040F0A4806E4B99886F4B18880EF0F0FB1A
:10720400002840F0A1806A4B99886B4B18880EF0D7
:10721400ABFC002840F09E80644B1988664B1888AC
:107224000EF07CF9002840F09B800A220121624B79
:1072340018880EF023FA002840F098805C4B998857
:107244005E4B18880EF0CCFB002840F09580584B1C
:1072540099885A4B18880EF087FC002840F09280D9
:10726400534B18881AF0F2FB002840F0918010BDAF
:10727400534A4FF4E27115F0CDFA31E7504A40F227
:10728400C51115F0C7FA33E74D4A4FF4E37115F011
:10729400C1FA35E74A4A40F2C71115F0BBFA37E79D
:1072A400474A4FF4E47115F0B5FA38E7444A4FF40D
:1072B400E57115F0AFFA3AE7414A40F2CB1115F007
:1072C400A9FA3CE73E4A4FF4E67115F0A3FA3EE70B
:1072D4003B4A40F2CD1115F09DFA40E7384A4FF48D
:1072E400E87115F097FA42E7354A40F2D11115F0EA
:1072F40091FA44E7324A4FF4E97115F08BFA45E705
:107304002F4A40F2D31115F085FA48E72C4A40F28F
:10731400D51115F07FFA4BE7294A4FF4EB7115F0BC
:1073240079FA4EE7264A40F2D71115F073FA4FE77F
:10733400234A4FF4EC7115F06DFA52E7204A40F2FB
:10734400D91115F067FA55E71D4A40F2DB1115F023
:1073540061FA58E71A4A4FF4EE7115F05BFA5BE7ED
:10736400174A40F2DD1115F055FA5EE7144A4FF45E
:10737400EF7115F04FFA61E7114A4FF4F07115F00F
:1073840049FA64E70E4A40F2E11115F043FA67E75F
:107394000B4A4FF4F27115F03DFA68E7C82E00204D
:1073A400C62E00205A2F0020582F0020562F0020D0
:1073B400CC2E0020542F0020502F0020482F0020D6
:1073C400A433040030B593B0202200210DEB020059
:1073D4001BF068FD01238DF8203007238DF823303E
:1073E40006238DF82830364B0C93364B10930DF151
:1073F400470108A80CF0D2FB002830D100200CF083
:107404004DFB002831D1304805F0B2F8FFF7CAFC33
:107414002E4B187602AC2E4D0FCD0FC495E8030009
:1074240084E8030002A800F0F9FC9DF8473073BB20
:10743400284B1B6813F4804F03D0274B1B68032B86
:1074440019DC00F013FDFFF73FFE0DF051FAFFF7D2
:1074540069FB2249224801F0B9FA13B030BD214A30
:107464004FF4197115F0D6F9C8E71E4A40F26521A8
:1074740015F0D0F9C7E71C4BD3F804351B4A00922A
:1074840040F27B221A49042007F0BEF9D9E7114BD8
:107494001B6813F4804F03D00F4B1B68032B02DCD3
:1074A40000F058FCD5E7104BD3F80435114A00928C
:1074B4004FF421720E49042007F0A6F9F0E700BF4B
:1074C400016C02007D660200C42D0020CC2E002039
:1074D40044300400382E0020342E0020D9680200E5
:1074E400A16A0200A43304000010014060340400C7
:1074F400F43304009834040000B583B0154A042121
:107504004FF4C04007F064F9134B1B6813F4804F29
:1075140003D0124B1B68032B09DC1BF0E1FA90B972
:1075240001F012FBFFF74EFF03B05DF804FB0C4BB8
:10753400D3F804350B4A009240F28E220A49042003
:1075440007F062F9E9E7094A4FF4247115F062F98A
:10755400E6E700BFA9E70200382E0020342E002001
:10756400001001402C340400F4330400A43304005C
:1075740008B54FF0A0430322C3F834274FF4005159
:10758400C3F80C15C3F82C274FF40062C3F8082580
:10759400FFF7B2FFFFF746FCFEF702FFFCE700002F
:1075A4001D4B1B781BB11C4B01221A70704700B590
:1075B40087B01A4A03AB07CA03C323F8022B120C81
:1075C4001A701749174815F0C7FCB0B9164B009349
:1075D40003AB134A1349154815F07AFC90B91448C3
:1075E40017F058F90146114815F09EFC78B90A4B7A
:1075F40001221A7007B05DF804FB0E4A792115F0D8
:1076040009F9E3E70B4A7A2115F004F9E7E7094A97
:107614007B2115F0FFF8EAE79C320020F8340400DF
:10762400642F0020A0320020DD7602004C310020BF
:10763400842F002064380400B0B130B585B005460D
:10764400A1B10C4608461BF060FC6A4681B2204694
:1076540006F07EFA0422694628461BF0BFFBB0FA06
:1076640080F0400905B030BD002070470020F9E7E4
:1076740070B58AB0064600230393049305930693DA
:10768400079308938DF824300F4D2B89ADF81C30E7
:107694000E4B1B88ADF8223003AC6B6853F80C0F0B
:1076A40059689A68DB680FC40123009303ABAA7A74
:1076B4003146074815F0FCFC08B90AB070BD054A0C
:1076C400702115F0A7F8F8E784320020E232002098
:1076D4004C3100206438040070B5C8B00446037807
:1076E4000A2B10D8DFE813F00B008302BE000F0052
:1076F4000F000F000F005B020F00FB0179019A4B92
:107704001B78012B01D048B070BD984B1B6813F453
:10771400804F03D0964B1B68032B4FDCE269137830
:1077240043B9924B1B6813F4804F03D0904B1B68F2
:10773400032B45DC637D002BE5D08C4B1B6813F4D5
:10774400804F03D08A4B1B68032B6EDC0025894BCA
:107754001B78AB42D7D9884B1B6853F8251004F12A
:107764001600FFF769FF002861D10135EFE7E21841
:10777400127982490D68100959002E5C07A800F897
:10778400136002F00F020131AA5C425401330F2B43
:10779400EDD907AA00238DF83C3003F1804303F5AB
:1077A4008833D3F804350292754A0192754A0092DF
:1077B4008C227549042007F027F8AFE70023E6E799
:1077C400724BD3F8043592F90D200192704A00925D
:1077D40090226D49042007F017F8ABE7E218927D78
:1077E40066490D68100959002E5C07A800F813605B
:1077F40002F00F020131AA5C42540133032BEDD98C
:1078040007AA00238DF8243003F1804303F588335D
:10781400D3F8043502925F4A01925A4A00929522A3
:107824005949042006F0F0FF90E70023E6E74F4BA8
:107834001B6813F4804F03D04D4B1B68032B06DCED
:10784400201DFFF715FF484B03221A705BE74F4BCF
:10785400D3F80435504A00929B224B49042006F089
:10786400D3FFEDE7414B1B6813F4804F03D0404B2B
:107874001B68032B25DC3C4B1B78032B32D0022BDB
:107884007FF441AF454C6368454D2A889A801A8835
:1078940001321A80DA88434909880A44DA80E368A5
:1078A4009847236928889847304B1B6813F4804F06
:1078B40003D02F4B1B68032B7EDC2B4B00221A704A
:1078C40021E7324BD3F80435374A12780292264A1C
:1078D40012780192354A0092A8222B49042006F01E
:1078E40093FFC8E7304B1B78DBB1204B1B6813F4C4
:1078F400804F03D01E4B1B68032B07DC1A4B01225D
:107904001A70294A1378013B1370FCE61F4BD3F815
:107914000435274A0092AD221B49042006F074FF67
:10792400ECE7124B1B6813F4804F03D0104B1B6819
:10793400002B08DC0C4B00221A70184B5B69184AA8
:1079440010889847DFE6114BD3F80435227A14499E
:10795400098802910192174A0092B4220A4901202F
:1079640006F052FFE6E700BF80320020382E0020E8
:10797400342E0020E6320020E83200203C2E002085
:1079840028350400D8320400B43804000010014043
:10799400303504003C3504004835040084320020AE
:1079A400E2320020E4320020E03200206C35040092
:1079B400B4350400D8350400984BD3F80435626814
:1079C40092889749098802910192964A0092C222AC
:1079D4009549042006F018FF6FE7944B1B6813F4D5
:1079E400804F03D0924B1B68032B4EDC914B022239
:1079F4001A708E4B1B6813F4804F03D08C4B1B689A
:107A0400032B4DDCE3688C49D88A10F033FA002844
:107A140051D1E068894B1968894BA2684988C08AAA
:107A240010F08CFF00284BD1854B188817F056FABC
:107A340000284AD1804B1988814B188817F000FA26
:107A4400002847D1794B1B6813F4804F3FF45BAE99
:107A5400774B1B68032B7FF756AE704BD3F8043576
:107A6400E268D28A75490968498875480088049093
:107A740003917149098802910192724A0092E122AC
:107A84006949042006F0C0FE3DE6644BD3F8043592
:107A94006D4A0092CB226449042006F0B5FEA5E7A6
:107AA4005E4BD3F80435694A0092D0225E49042023
:107AB40006F0AAFEA6E7664AD22114F0ABFEA8E7B8
:107AC400634AD62114F0A6FEAEE7614AD92114F028
:107AD400A1FEAFE75E4ADB2114F09CFEB2E7027A16
:107AE4004F4B1A80102300220121406815F00FFB30
:107AF40000283FF408AE4D4B1B6813F4804F03D0AD
:107B04004B4B1B68002B13DC524B1B783BB3474B8E
:107B14001B6813F4804F03D0454B1B68032B13DC05
:107B2400444B01221A704B4A1378013B1370EAE567
:107B34003A4BD3F804350190474A0092F1223A496E
:107B4400012006F061FEDFE7344BD3F80435434AE5
:107B54000092F4223449042006F056FEE0E7334B49
:107B64001B6813F4804F03D0314B1B68032B08DCD4
:107B7400304B00221A70314B5B69394A10889847A0
:107B8400C1E5264BD3F80435354A12880192354AAB
:107B94000092FB222449042006F036FEE8E707ADF4
:107BA400314B0FCB85E80F0010222946606815F091
:107BB400B7FAB0B91D4B1B6813F4804F3FF4A3AD63
:107BC4001B4B1B68032B7FF79EAD144BD3F8043576
:107BD400264A009240F209121349042006F014FECA
:107BE40091E51B4A4FF4847114F014FEE2E70F4B45
:107BF4001B6813F4804F3FF486AD0D4B1B68032BB9
:107C04007FF781AD054BD3F80435194A00924FF440
:107C140087720549042006F0F7FD74E50010014061
:107C2400E43200201C360400B4380400382E00204E
:107C3400342E0020803200205E2F00208432002069
:107C4400602F0020A0360400543604007836040067
:107C540064380400E0320020E436040014370400E1
:107C6400E232002024370400043504008C37040079
:107C7400B437040010B582B00AB11446A3B9124B4C
:107C84001B6813F4804F1CD0104B1B68002B18DDAD
:107C94000F4BD3F804350F4A00924FF48E720E49FD
:107CA400012006F0B1FD0CE00C4A10700C4A118062
:107CB4000C4A012111700C4A14600C4A1370FFF72E
:107CC4006FFC02B010BD00BF382E0020342E0020FF
:107CD4000010014014380400B4380400E0320020DD
:107CE400E232002080320020E8320020E632002018
:107CF40000B583B0104B1B6813F4804F03D00F4BB7
:107D04001B68032B06DC0E4815F08AFA70B903B021
:107D14005DF804FB0B4BD3F804350B4A009240F298
:107D24002B120A49042006F06FFDECE7084A4FF4D1
:107D3400967114F06FFDEAE7382E0020342E0020EF
:107D4400DD76020000100140CC380400B438040091
:107D54006438040000B587B001230493284B1868E5
:107D640004A9023010F0DCFD00BB049B012B23D1DD
:107D7400234B1B6804AA191D588810F0DDFFF8B9BD
:107D840005A810F069F81E4B1968BDF8140010F02E
:107D940045FED8B91B4B1B6813F4804F03D01A4B14
:107DA4001B68032B18DC07B05DF804FB174A40F28C
:107DB400351114F02FFDD8E7784600F0CFFFD7E750
:107DC400124A40F2371114F025FDD9E70F4A40F268
:107DD4003B1114F01FFDDDE70D4BD3F80435084AC1
:107DE4001268518890881288039202900191094A7E
:107DF40000924FF49F720849042006F005FDD2E773
:107E040084320020382E0020342E002064380400F0
:107E140000100140D4370400B438040038B50446D7
:107E2400C36883B1636993B12369A3B10C4D0FCCCB
:107E34000FC594E8030085E803000023094A137082
:107E4400094A137038BD784600F088FFEAE778469F
:107E540000F084FFE8E7784600F080FFE6E700BF23
:107E6400843200209C32002080320020F0B585B09E
:107E7400344BDB69039303A80FF0B4FF002838D117
:107E8400314D686810210C3004F08EFF6E682F4C61
:107E94000FCCF06131627262B362102106F12C00E2
:107EA40004F082FF69682A6802320C31002010F065
:107EB400DDFA20BB264B1B6813F4804F03D0254BFF
:107EC4001B68032B21DC204B19685A680B1D1C32DC
:107ED4004988002010F0BEFD38BB1B4B19685A6856
:107EE4000B462C324988012010F028FD18BB05B040
:107EF400F0BD194A40F2511114F08CFCC0E7164A47
:107F04004FF4AD7114F086FCD4E7144BD3F8043568
:107F14000D4A126852880192114A009240F25B1293
:107F24001049042006F070FCCDE70B4A4FF4AE7103
:107F340014F070FCD1E7084A40F25F1114F06AFCB7
:107F4400D5E700BFF834040084320020183504005B
:107F5400382E0020342E0020643804000010014024
:107F640050380400B438040070B5064614460D4673
:107F740001B122B1044B5E801D705C6070BD784617
:107F840000F0ECFEF6E700BFF032002010B584B03C
:107F94003E4B5A8882420ED148F2190398422BD0A4
:107FA40022D948F21F03984228D048F23E0398424F
:107FB40026D10C7840E0364B1B6813F4804F03D075
:107FC400344B1B68002B02DC022004B010BD324B82
:107FD400D3F8043502900192304A0092D5223049F8
:107FE400012006F011FCEFE7022824D048F2030335
:107FF400984205D10C781FE00C781DE00C781BE04A
:10800400234B1B6813F4804F03D0224B1B68002BB7
:1080140006DC244AF221052014F0FCFBFF240BE0CB
:108024001D4BD3F80435204A0092F1221C4901204B
:1080340006F0EAFBEDE7FF24144B1B7813B3144B53
:108044001B6813F4804F03D0124B1B68032B0BDC0B
:1080540000230E4A12789A4212D90C4A5268D25C12
:10806400A24211D00133F4E70B4BD3F80435019449
:108074000E4A0092FA220A49042006F0C5FBE7E7FB
:108084000120A2E70020A0E700209EE7F0320020B4
:10809400382E0020342E00200010014050390400F6
:1080A40040390400F03804007C3904009C39040091
:1080B40010B50A4B1B7863B1084C2378013B04F8D4
:1080C400043B04F035FD06490144204604F0F8FC65
:1080D40010BD784600F042FEEEE700BF04330020F6
:1080E400404B4C0008B5034804F0D2FC024B034A51
:1080F4001A6008BD08330020E02D0020B13B0400C5
:1081040008B5FFF7EFFF024B1B68984708BD00BF97
:10811400F832002010B58AB0AA4B1B681B78013BCB
:108124000B2B00F2A682DFE813F00C0036005A0095
:108134008500D70001017501A801D30106023002B0
:108144007A02A14B1B6813F4804F03D09F4B1B682A
:10815400032B14DC002016F0DBFE0446002211463B
:108164000220FFF701FF44B116F098FF984B1B78EB
:10817400002B00F08582FFF79BFF0AB010BD954BE2
:10818400D3F80435944A00924FF49472934904202E
:1081940006F03AFBDEE78C4B1B6813F4804F03D0E8
:1081A4008A4B1B68032B0EDC8D4B1A688D4B198888
:1081B400002016F0D1FE04468B4A022148F2030047
:1081C400FFF7D2FECFE7834BD3F80435874A0092FA
:1081D4004FF499728149042006F016FBE4E77A4BC8
:1081E4001B6813F4804F03D0784B1B68032B15DCFA
:1081F4004FF6FF73ADF810300223ADF81230049A35
:10820400784B19887A4B188816F02AFF0446794A65
:10821400012148F23E00FFF7A7FEA4E76D4BD3F817
:108224000435754A009240F23D126C49042006F070
:10823400EBFADDE70023CDF81230CDF81630CDF897
:108244001A30CDF81E30CDF82230ADF82630684A09
:108254001288ADF8102003228DF814204CF2050288
:10826400ADF816201E228DF81F209DF82020012134
:1082740061F3870261F301028DF820204FF0FF3291
:108284008DF823208DF8242002228DF825208DF8E6
:1082940026304D4B1B6813F4804F03D04B4B1B68A7
:1082A400032B0ADC04A816F099FE0446534A012164
:1082B40048F21900FFF758FE55E7464BD3F804354A
:1082C4004CF2050201924E4A00924FF4AD724349BA
:1082D400042006F099FAE5E73B4B1B6813F4804F42
:1082E40003D03A4B1B68032B14DC5923ADF8103030
:1082F4000723ADF81230049A3A4B19883C4B18887E
:1083040016F0AEFE04463F4A012148F23E00FFF754
:108314002BFE28E72F4BD3F804353B4A00924FF449
:10832400B2722E49042006F06FFADEE70023CDF87E
:108334001230CDF81630CDF81A30CDF81E30CDF805
:108344002230ADF826302A4A1288ADF810200322D4
:108354008DF814204CF20402ADF816209DF820206C
:10836400012161F301028DF8202059228DF8232088
:108374008DF8243007228DF825208DF82630124BF5
:108384001B6813F4804F03D0104B1B68032B0ADCCB
:1083940004A816F023FE04461C4A012148F21900E1
:1083A400FFF7E2FDDFE60B4BD3F804354CF2040291
:1083B4000192174A009240F27F120849042006F005
:1083C40023FAE5E7E02D0020382E0020342E00208B
:1083D4000433002000100140EC390400403904004B
:1083E40020330020EC320020883B0400083A0400CB
:1083F400EE3200208C3B0400183A0400903B040049
:10840400383A0400943B0400783A0400983B040092
:10841400943A04009C4B1B6813F4804F03D09B4B8D
:108424001B68032B1DDC0023059303238DF81030F8
:108434004CF20403ADF812305923ADF80C30072385
:10844400ADF80E30039B04AA06CA9148008816F0C2
:10845400DFFD04468F4A012148F21F00FFF784FD27
:1084640081E68D4BD3F804358C4A009240F2891290
:108474008B49042006F0C8F9D5E7834B1B6813F435
:10848400804F03D0814B1B68032B15DC4FF6FF7321
:10849400ADF810300323ADF81230049A814B1988DB
:1084A4007B4B188816F0DCFD04467F4A012148F214
:1084B4003E00FFF759FD56E6774BD3F804357B4A67
:1084C40000924FF4CD727649042006F09DF9DDE761
:1084D4006D4B1B6813F4804F03D06C4B1B68032B4C
:1084E4001DDC0023059303238DF810304CF20502A4
:1084F400ADF812204FF6FF72ADF80C20ADF80E3037
:10850400039B04AA06CA6248008816F081FD04464B
:10851400674A012148F21F00FFF726FD23E65E4B60
:10852400D3F804355D4A00924FF4D4725C490420B8
:1085340006F06AF9D5E7544B1B6813F4804F03D057
:10854400524B1B68032B14DC5923ADF81030052360
:10855400ADF81230049A534B19884D4B188816F015
:108564007FFD0446534A012148F23E00FFF7FCFC1C
:10857400F9E5494BD3F804354F4A009240F2B91259
:108584004749042006F040F9DEE70023CDF8123015
:10859400CDF81630CDF81A30CDF81E30CDF8223093
:1085A400ADF826303A4A1288ADF8102001218DF832
:1085B4001410ADF816109DF820200A2060F38702ED
:1085C40061F301028DF8202059228DF823208DF8C3
:1085D400243005228DF825208DF826302A4B1B687F
:1085E40013F4804F03D0294B1B68032B0ADC04A827
:1085F40016F0F4FC0446314A012148F21900FFF751
:10860400B3FCB0E5244BD3F8043501912C4A009215
:108614004FF4EA722249042006F0F6F8E7E71A4B11
:108624001B6813F4804F03D0184B1B68032B14DC16
:108634005923ADF810300623ADF81230049A194BC3
:108644001988134B188816F00BFD04461D4A0121A6
:1086540048F23E00FFF788FC85E50F4BD3F804355C
:10866400194A00924FF4EF720D49042006F0CCF839
:10867400DEE7164A40F2EB11052014F0CBF873E55F
:10868400FFF73EFD79E500BF382E0020342E002090
:10869400EE3200209C3B040000100140D83A040054
:1086A40040390400EC320020A03B0400083B0400E5
:1086B400A43B0400A83B0400183A0400AC3B0400AB
:1086C400283B0400B03B04006C3B0400F038040079
:1086D40008B5FFF71FFD08BD08B5FFF703FD024B02
:1086E4001B68984708BD00BFFC32002000B583B06A
:1086F4001C4B1B681A789AB10D2A11D04168008866
:10870400FFF744FC28BB174A1368591C1160164A2A
:10871400032111705B780D2B18D0FFF7FBFC1AE0D6
:10872400124B1B6813F4804F15D0114B1B68012B9F
:1087340011DD104BD3F8043501920F4A009240F238
:1087440019220E49022006F05FF804E0FFF7C4FF87
:1087540001E0012802D003B05DF804FBFFF7D0FC70
:10876400F9E700BFE02D002004330020382E00205C
:10877400342E002000100140B839040040390400B0
:1087840000B589B04FF6FF73ADF81E30ADF81C305C
:1087940001238DF81430ADF816000DF11E0105A863
:1087A4000FF03CFDE8B907A9BDF8160010F036F942
:1087B400E8B9BDF81C0016F091FBF0B9BDF81E1025
:1087C400BDF81C0016F03CFBE8B91B4B1B6813F406
:1087D400804F03D0194B1B68032B1ADC09B05DF8DA
:1087E40004FB174A40F20B2114F014F8DBE7144A97
:1087F4004FF4037114F00EF8DBE7114A40F20F2135
:1088040014F008F8DAE70E4A4FF4047114F002F891
:10881400DBE70C4BD3F80435BDF81E200292BDF8FB
:108824001C200192084A009240F2112207490420B8
:1088340005F0EAFFD2E700BF382E0020342E0020D6
:10884400F038040000100140483C040040390400A2
:1088540030B583B0002837D1224B1B6813F4804F06
:1088640003D0214B1B68032B13DC204B1B8843B321
:108874001C4B1B6813F4804F03D01B4B1B68032B4A
:1088840013DC1A4A1388013B1380FFF743FC03B03F
:1088940030BD174BD3F80435164A009240F24122FA
:1088A4001549042005F0B0FFDFE7114BD3F8043578
:1088B400124A009240F245220F49042005F0A4FF19
:1088C400DFE7FFF71DFCE2E70C4615460228DED180
:1088D40021B129462046FFF709FFD8E7784600F082
:1088E4003DFAF6E7382E0020342E00200033002015
:1088F40000100140B43B040040390400E03B040094
:1089040010B582B0234C2468247804BB224C208008
:10891400224C21802249234CCC6003240C70224930
:108924000A60224A13801B4B214A1A60214B1B68A0
:1089340013F4804F03D0204B1B68A3421CDC164B5E
:108944001888FFF71DFFFFF7E5FB02B010BD194BB8
:108954001B6813F4804FF8D0174B1B68002BF4DD11
:10896400164BD3F80435164A009240F25D2215499D
:10897400012005F049FFE8E7104BD3F804350190D6
:10898400114A009240F269220E49042005F03CFF8E
:10899400D5E700BFE02D0020EE3200200033002098
:1089A40004330020D586020020330020EC3200205E
:1089B4003C3C0400382E0020342E002000100140DE
:1089C400EC3B040040390400203C040038B50C465C
:1089D400054628B144B1064B1D60064B1C6038BDEA
:1089E400784600F0BBF9F5E7784600F0B7F9F2E70E
:1089F400FC320020F832002008B5FFF7C1FE16F063
:108A040039FB08BD08B5064B1B683BB112F056F99B
:108A1400002803DB024B1B689847F7E708BD00BF3B
:108A24002433002010B50C46144B1860144A01215D
:108A340014481AF08DF878B9610CE00341F26F72B2
:108A440000238B4208BF82420BD24FF47A72002378
:108A54001AF0B8F8014605E00B4A4A2113F0DAFE91
:108A6400EAE70521002209481AF088F800B910BD88
:108A7400054A4B2113F0CEFEF9E700BF2433002052
:108A8400098A0200803C0400843C0400283300204E
:108A940031B1012383404FF0A042C2F80C35704736
:108AA400012383404FF0A042C2F80835704721B13A
:108AB4004FF0A043C3F80C0570474FF0A043C3F830
:108AC4000805704772B338B51346132900D838BD6A
:108AD400154A10605B00013B144A13604FF0A04339
:108AE400D3F80425124B1A6000254C0CC8034FF42C
:108AF4007A72002310F5FA7044EB05011AF062F85B
:108B04002A4601460B481AF039F80028DFD14FF005
:108B1400A042D2F804350449096823EA0103C2F8E3
:108B24000435D4E7704700BF4C330020483300209D
:108B3400703300205033002060DF704769DF7047D6
:108B440008B503F019FD08BD10B588B013F06EFB2D
:108B540000282BD1224B0793079A069200230393F4
:108B64000493059303A90120FFF7E8FF08BB002342
:108B740004930593F8230393069A03A9A120FFF70E
:108B8400DDFFC8B906A8FFF7D7FF0446069A079B7E
:108B94009A4208D0134B1B6813F4804F03D0124B36
:108BA4001B68012B0BDCB4B908B010BD13F024FE14
:108BB400D0E713F021FEDAE713F01EFEE2E70B4BD9
:108BC400D3F8043501920A4A0092A22209490220EC
:108BD40005F01AFEE7E7204613F00EFEE4E700BFB7
:108BE400A02D0020382E0020342E0020001001403B
:108BF400403D0400253D04000620704700B587B0C1
:108C040041F2010398424CD020D944F20103984226
:108C14005DD044F20203984274D1464B1B6813F4AE
:108C2400804F1ED0444B1B68002B1ADD434BD3F8F6
:108C3400043510880390526802920191404A0092D0
:108C44006C224049012005F0DFFD0AE0012859D1DA
:108C5400384B1B6813F4804F03D0374B1B68002B31
:108C640012DC4FF0A0434FF4C052C3F81825C3F8E8
:108C74000C25EFF3108372B64DF6AD6C324B1B78B6
:108C8400002B54D030BFF9E72C4BD3F804350292B3
:108C940001912E4A009260222A49012005F0B4FD78
:108CA400DFE7244B1B6813F4804FDAD0224B1B6898
:108CB400002BD6DD214BD3F8043502920191244ACE
:108CC400009263221F49012005F09EFDC9E7194B5C
:108CD4001B6813F4804FC4D0174B1B68002BC0DDF6
:108CE400164BD3F804351068049050680390029131
:108CF40092680192174A009277221249012005F0E6
:108D040083FDAEE70B4B1B6813F4804FA9D00A4BCD
:108D14001B68002BA5DD094BD3F8043501910E4ADD
:108D240000927B220749012005F06EFD99E707B008
:108D34005DF804FB382E0020342E00200010014082
:108D4400183E0400C53D0400E42D0020D83D040075
:108D5400F43D0400383E04005C3E040000B583B0DA
:108D64000023ADF80030054B01936A46014644F2F6
:108D74000200FFF743FF03B05DF804FB0032040078
:108D84000023094A12789A420BD9084A32F8232060
:108D9400824202D00133DBB2F3E701B10B70012050
:108DA40070470020704700BF7837002078330020D8
:108DB40010B582B004460021FFF7E2FFB0B11B4BAF
:108DC4001B6813F4804F03D0194B1B68032B01DC81
:108DD40002B010BD174BD3F804350194164A009223
:108DE40037221649042005F00FFDF1E714490B78EA
:108DF400144A22F8234002EB8302002090700133CE
:108E04000B700A4B1B6813F4804FE1D0084B1B68AE
:108E1400032BDDDD074BD3F8043501940A4A009295
:108E240040220649042005F0EFFCD1E7382E00204B
:108E3400342E002000100140783E0400903F0400CE
:108E44007837002078330020A43E040010B584B0A5
:108E540004460DF10F01FFF793FFB0B91D4B1B68DA
:108E640013F4804F03D01C4B1B68032B01DC04B0AC
:108E740010BD1A4BD3F804350194194A00924922C3
:108E84001849042005F0C0FCF1E7174A1378013BA8
:108E9400DBB213709DF80F10144A52F8230042F805
:108EA4002100002142F823100A4B1B6813F4804F61
:108EB400DDD0094B1B68032BD9DD084BD3F80435EF
:108EC40001940B4A009252220649042005F09CFCAE
:108ED400CDE700BF382E0020342E002000100140C2
:108EE400D03E0400903F04007837002078330020FF
:108EF400103F040070B584B006460C4615460DF1CB
:108F04000F01FFF73DFFA0B9134B1B6813F4804F0B
:108F140012D0124B1B68032B0EDD114BD3F8043512
:108F24000196104A00925B220F49042005F06CFC64
:108F340002E01CB1012C08D004B070BD9DF80F20D4
:108F44000A4B03EB82039D70F6E79DF80F20074B55
:108F540003EB8203DD70EFE7382E0020342E00206F
:108F640000100140D03F0400903F040078330020FB
:108F740010B584B004460DF10F01FFF701FFB0B93D
:108F8400284B1B785BB3284B1B6813F4804F18D015
:108F9400264B1B68032B14DD254BD3F80435254AD7
:108FA400009276222449042005F02EFC09E01E4B91
:108FB4001B6813F4804F03D01C4B1B68032B02DC8B
:108FC400002004B010BD1A4BD3F8043501941B4A99
:108FD400009271221849042005F016FCF0E7184BA2
:108FE400184A1A60104B1B6813F4804F03D00F4BC0
:108FF4001B68032B0BDC0123114A21460220FEF7D8
:1090040039FEFEF775FE074B01221A70D9E7084BAB
:10901400D3F804350C4A00927D220749042005F058
:10902400F3FBE8E774330020382E0020342E0020B0
:1090340000100140BC400400903F04009040040034
:109044007C370020F44004001041040030B585B0A2
:1090540004460D460DF10F01FFF792FEB0B9344BF3
:109064001B6813F4804F03D0324B1B68032B01DCC5
:1090740005B030BD304BD3F8043501942F4A00922B
:109084008A222F49042005F0BFFBF1E79DF80F2049
:109094002C4B03EB82039B78A3B1254B1B6813F481
:1090A400804FE5D0234B1B68032BE1DD224BD3F823
:1090B40004350194244A00928E222149042005F0AB
:1090C400A3FBD5E7214B1B789BB1194B1B6813F409
:1090D400804FCDD0174B1B68032BC9DD164BD3F83B
:1090E40004351B4A009292221549042005F08CFB9A
:1090F400BEE70F4B1B6813F4804F03D00D4B1B6866
:10910400032B09DC00232A4602212046FFF7F8FB43
:109114000E4B01221A70ABE7074BD3F804350194C8
:109124000C4A009296220649042005F06DFBE9E7FB
:10913400382E0020342E0020001001400C40040082
:10914400903F04007833002038400400743300203A
:10915400BC4004006840040010B584B004460DF11E
:109164000F01FFF70DFEA0B9244B1B6813F4804FC9
:1091740035D0234B1B68032B31DD224BD3F8043548
:109184000194214A0092A1222049042005F03CFBCD
:1091940025E01F4B1B789BB1184B1B6813F4804FC1
:1091A4001DD0174B1B68032B19DD164BD3F8043560
:1091B400184A0092A5221549042005F025FB0EE06B
:1091C4000E4B1B6813F4804F03D00D4B1B68032B0D
:1091D40007DC2046FFF710FC0D4B01221A7004B087
:1091E40010BD084BD3F8043501940B4A0092A92210
:1091F4000649042005F008FBEBE700BF382E0020E9
:10920400342E0020001001400C400400903F040064
:1092140074330020BC40040040410400014B002290
:109224001A7070477433002010B40346044C00686D
:1092340059689A68DB680FC45DF8044B704700BF37
:10924400803700200B4B0C4A92E8030083E80300AC
:1092540003F10802094903C982E80300DA79042109
:1092640061F30712DA711A7A022161F387121A7212
:10927400704700BF8037002060000010A400001079
:10928400004870478037002000231F2B09D8074966
:1092940001EBC30000224280426001F83320013315
:1092A400F3E7034B00221A60704700BF9037002099
:1092B4009038002030B405460F4B1B6800240AE0A8
:1092C4001F230E4A12F83300A0B102EBC3025288E6
:1092D400AA4207D001341F2C0BD85A1E002BEFD002
:1092E4001346EEE7054A02EBC30252688A42F1D103
:1092F40000E0002030BC70479038002090370020F8
:1093040030B40A4A13680A4C04EBC30568806960E8
:10931400012104F833100B441360202B01D030BC1E
:109324007047134600221A60F9E700BF9038002006
:1093340090370020C0F30C038B4204D2C91A0144B5
:10934400A1F500507047C91A08447047C37D002B2B
:1093540042D083780A7802F0800203F07F0313433B
:109364000B7002780B7803F07F0343EAC2130B708F
:109374000378002B41D030B44378082B14BF00226B
:1093840001224B7803F07F0343EAC2134B708588B4
:1093940003F08003C5F3861423434B708A7802F0EC
:1093A400030242EA8502D2B28A70857902F0FC0295
:1093B400C5F3C10422438A70CB7803F01F0343EA48
:1093C4004513DBB2CB70C27903F0E00302F01F0255
:1093D4001343CB7030BC704783780A7802F0BF0225
:1093E4009B0103F0400313430B70C27803F0C003E6
:1093F40002F03F0213430B70B3E770470023032BC3
:1094040022D810B402E00133032B19D8C3EBC302F2
:1094140014010E4A224492F84820012AF3D10B4A3F
:109424002244948AC2899442EDD1C3EBC30214014D
:10943400064A224492888A42E5D10448204400E046
:1094440000205DF8044B704700207047003900206D
:10945400002300E00133032B14D8C3EBC302110132
:10946400094A0A4492F84820022AF3D1064A0A44D7
:10947400918A828A9142EDD1C3EBC3031A01024857
:1094840010447047002070470039002008B90420B8
:10949400704708207047000038B505460C46CB6974
:1094A4005B78C370CB691B7883F001038370CB694D
:1094B4004362087B022814D0FFF7E8FF6870E27A61
:1094C40032B9A18AC0F10F03994201DC082833D0D4
:1094D400A18A0346C0F10F00814207DC52B3012286
:1094E40005E0164B987DFFF7D1FFE7E701222A70CC
:1094F40062B1A28A13440B33114A82FB0312DB17B5
:10950400C3EB6203013BEB710023AB710023EB75EA
:1095140005F10C0294E8030082E80300A2692A62C0
:109524002289AA82A27AAA75226AAA6285F82C30B4
:10953400184638BD0022DAE70720FAE7E8380020A9
:10954400ABAAAA2A30B403460C46097881700021DC
:109554004162A1680B2903D8217B09B3012100E0F2
:10956400012119700020587029B1A1680731C90878
:109574000139D97198710121D97503F10C0504F1F0
:10958400100103C985E80300E1899982A169196280
:10959400217F9975617F83F82C109A6230BC7047E3
:1095A4000021DEE70021174B1B688B4227D90023DB
:1095B400154A02EBC10252689A421ED910B40FE058
:1095C40060685DF8044B704701310E4B1B688B4299
:1095D40011D900230C4A02EBC10252689A42F3D912
:1095E400094A52F8312002EBC30412F833208242B4
:1095F400E6D00133EEE70020E3E70131D3E70020B2
:10960400704700BF943800209838002070B58CB0A3
:1096140006460D4614462C22002101A819F042FCEE
:109624000F238DF80430ADF808604FF0000365F3A4
:1096340000038DF80A308DF80B4001A801F0E6F81C
:109644000CB070BD30B58DB005460C462C220021FF
:1096540001A819F027FC10238DF8043002958DF829
:109664000C4001A801F0D2F80DB030BD00B58DB0AA
:1096740010B913F1020F06D1074B186804F088F8EB
:109684000DB05DF804FB01228DF80420029301A8BB
:1096940001F0BCF8F0E700BFA03800202DE9F0414C
:1096A400054688460378BBB10D4B1C68621C1A60E2
:1096B40004F00704AB8A0B4F07EBC4067380A98838
:1096C400A869FFF737FE7060EB6903F0010373705C
:1096D40007F83480BDE8F0817846FFF73FFBE3E705
:1096E400E4380020A438002070B5064603784BB156
:1096F400B58A347F04F00104B188B069FFF71AFE1B
:10970400002304E07846FFF729FBF1E70133072B38
:1097140015D80C4A02EBC30252688242F6D1094AB8
:1097240002EBC3025288AA42F0D1064A02EBC302FA
:109734005278A242EAD1034800EBC30000E00020C3
:1097440070BD00BFA4380020F8B515461C460E684D
:109754004A68D1F808C0CF68E6602261C4F814C032
:10976400A7610E694A69E66122620378DB09237006
:10977400E27D2AB3027802F07F02A27000226270B6
:109784009BB143789B0103F4FE53827843EA92032E
:10979400A3808378DB0003F01803C27843EA5213F2
:1097A400A371C37803F01F03E371002363622B7872
:1097B400052B1AD82B780F4AD35C84F82C30F8BDCB
:1097C4000278C2F38012A270027802F03F02E270C3
:1097D40043B190F90120002A02DB04226270CFE732
:1097E4000822FBE704226270CAE77846FFF7B6FA5C
:1097F400E0E700BF6441040070B50C461E460378E0
:10980400B3B104252A44A26000F10C032360836AE7
:10981400636090F82C30237300236373204604F0B4
:109824001BFB034610B9226915443560184670BD08
:109834000125E7E72DE9F0418EB00D4616461C469A
:10984400804600282DD0002D2FD0002C31D0636A03
:109854000233059304F10C00A378002B2DD00121D1
:10986400627801AF3B46082A14BF0022012204F0AB
:10987400D4F80697CDF81C80B2B2ADF820200B9531
:1098840015440C9563788DF83430237B022B16D065
:109894000023ADF8283005A804F0B7F80EB0BDE8F1
:1098A400F0817846FFF75AFACDE77846FFF756FA83
:1098B400CBE77846FFF752FAC9E70221D0E72369DC
:1098C4002BB1236909931023ADF82830E3E77846D8
:1098D400FFF744FAF5E72DE9F04186B004460D465A
:1098E400C37D002B3CD0082605FB06F8E379AB4288
:1098F40038D0A5716B46324601A92046FFF77CFF9C
:10990400074648BB4DB994F8533033B9A369C3F340
:109914000C03A380012384F85330E37D7BB994F8CE
:10992400523063B91DBBB4F84A10627823468A1AD0
:10993400E16E0846FFF77EFF012384F85230059953
:109944002046FFF703FDE16E32464144009819F0CA
:1099540080FA01A804F09FFA384606B0BDE8F08109
:109964000C26C1E7B4F84A60A6EB0806C1E77846BE
:10997400FFF7F4F9D7E770B505460E4609B10023A1
:109984000B6095F85040002104E0631C85F85030CA
:109994000134E4B2EB79A34210D3EA6C0123A3406F
:1099A4001A42F5D121462846FFF795FF014628B90A
:1099B400002EEAD0336801333360E6E7084670BD11
:1099C400F0B587B045781544C37D7BB10B239D4228
:1099D40024D816460F4604466B462A4601A9FFF7CB
:1099E4000BFF054620B1284607B0F0BD0F23EEE774
:1099F40005992046FFF7AAFCE37D43B13246394678
:109A0400009819F026FA01A804F045FAEBE723467A
:109A1400324600993846FFF70DFFF4E70925E2E7DF
:109A240010B5044690F84830012B0CD103F080F8AF
:109A3400237B012B0BD0094BD968014404F130007E
:109A440003F03EF810BD7846FFF788F9EEE7A37DF2
:109A5400024AD168126902FB0311EEE7E8380020DC
:109A640030B583B0002403E02846FFF7D9FF013462
:109A7400032C19D8C4EBC4031A010C4B134493F8F8
:109A84004830012BF3D100230193C4EBC40213012A
:109A9400064D1D4401A92846FFF76DFF0428E3D0B5
:109AA400019B002BE3D0DFE703B030BD0039002079
:109AB40038B5044690F84830022B09D1064B1D688E
:109AC40003F036F8411904F1300002F0F9FF38BD13
:109AD4007846FFF743F9F1E7E838002038B5044643
:109AE40090F84830022B10D10A4B5D7D5A689B6870
:109AF40003FB052503F01CF8411904F1500002F0A2
:109B0400DFFF012384F8683038BD7846FFF726F973
:109B1400EAE700BFE838002038B50446C06E07F015
:109B240098FE04F13005284602F0E7FF70B994F876
:109B34004830022B0ED070220021204619F0B2F9D1
:109B4400002084F8480002F04FF838BD284602F09F
:109B54009FFFECE704F15005284602F0CEFF0028F1
:109B6400E9D0284602F094FFE5E710B50446012148
:109B7400FFF794FD2046FFF7CFFF10BD10B58CB062
:109B8400044690F84830012B0CD101238DF80430A1
:109B9400636D029301A800F039FE2046FFF7BCFF75
:109BA4000CB010BD7846FFF7D9F8EEE730B585B0B4
:109BB4000D460446A8B100212046FFF76FFD294653
:109BC400606DFFF73FFD2046FFF7A6FF0F4B1B68B4
:109BD40013F0040F03D00E4B1B68032B05DC05B0F8
:109BE40030BD7846FFF7BAF8E5E70A4BD3F80435F9
:109BF40094F8482002950192074A009240F2EF122D
:109C04000649042004F000FEE9E700BF382E0020D6
:109C1400342E002000100140BC410400AF41040078
:109C240008B508460021FFF7C1FF08BD08B5037B4E
:109C3400012B02D0FFF7A2FF08BD0121FFF7B6FFF9
:109C4400FAE7000008B590F8513053B1013B80F8B1
:109C54005130002380F85030034B186803F098FD0E
:109C640008BDFFF7E3FFFBE7A038002010B50C4662
:109C740091F84830012B03D12046FFF7E3FF10BDD4
:109C84007846FFF76BF8F7E7062951D170B582B033
:109C940003460178890101F4FE5140789D78DC780F
:109CA400240444EA05641D7944EA05245B791C43D1
:109CB40041EA90011046FFF7A1FB0546B8B1C66C16
:109CC4002643C66444B3037853B3EB795A1C012387
:109CD4009340013B9E4227D0002185F8501028462E
:109CE400FFF749FE2846FFF79BFE02B070BD114BFB
:109CF4001B6813F0040FF8D00F4B1B68012BF4DD25
:109D04000E4BD3F804350E4A009240F2A7520D4987
:109D1400022004F079FDE8E70321FFF747FFE4E7B9
:109D24007846FFF71BF8D0E72846FFF727FFDCE764
:109D3400704700BF382E0020342E00200010014050
:109D4400E0410400AF4104002DE9F04389B08046AE
:109D54000F4614461E46957825B9FFF795FF09B0BE
:109D6400BDE8F0832846FFF71DFC81460028F6D0A5
:109D74008DF80050236A0693A38AADF80E3004AB25
:109D840004F10C0292E8030083E80300A37D8DF83C
:109D94001C30CDF80480029723788DF80C3094F8A9
:109DA4002C308DF81D3031466846C847D7E700008F
:109DB4002DE9F04706460F4690464B1EDBB2012BB9
:109DC4000FD8B8F5C07F10D80024032C1AD8C4EBE0
:109DD400C4031A01314B134493F848304BB1013496
:109DE400F3E77846FEF7BAFFEBE77846FEF7B6FFEF
:109DF400EAE7DFF8A8A015465544404607F025FDDC
:109E0400E86600E0002585B3EB6E002B44D03346B2
:109E14002A4606F1300ED3F800C05C689868D96809
:109E2400C2F800C054609060D160103310327345A2
:109E3400F1D10023EB64A5F84A80B188B069FFF73B
:109E440079FAA861012F13D06FF00103AB620023EC
:109E540085F86830124BAB652D66124BAB632D64ED
:109E6400012001F0C1FE85F848702846BDE8F0875E
:109E74000D4B1B7D85F85130002385F8523085F851
:109E8400533085F85030B36A6B656FF00103AB62F1
:109E9400064BAB632D64E3E70025E6E700390020B9
:109EA40055A70200259C0200E8380020719C02009E
:109EB400F0B5C7B046781644C37D2BB14FF4807318
:109EC400B3427ED3002303E04FF4C073F8E70133B9
:109ED400032B19D8C3EBC30425013C4C2C4494F840
:109EE4004840012CF3D1394C2C44A58A848AA542DC
:109EF400EDD1C3EBC3042501344C2C44E589C4895A
:109F0400A542E4D1082455E014460F463246012107
:109F1400FFF74EFF0546002855D022463946C06E4D
:109F240018F097FF0023459345A92846FFF723FD22
:109F3400044608B1042840D1459B7BB9244B1B68D7
:109F440013F0040F35D0234B1B68032B31DDB5F818
:109F54004A70802F28BF8027002313E02846FFF78C
:109F64005FFDEBE7EA6ED25C1B490C6810095900EF
:109F7400265C04A800F8136002F00F020131A25C11
:109F840042540133BB42EDD304AA002302F8173034
:109F940003F1804303F58833D3F8043502920F4A62
:109FA40001920F4A009240F2D1420E49042004F07B
:109FB4002BFC0024204647B0F0BD2846FFF7ACFD3B
:109FC400F8E70924F6E70424F4E700BF0039002089
:109FD400382E0020342E00203C2E00201042040095
:109FE400D8320400AF41040000B585B000238DF8D9
:109FF4000F3098B10346084602330B600DF10F0190
:10A0040003F007FD9DF80F3043B10D4B1B6813F0AF
:10A01400040F03D00B4B1B68032B04DC9DF80F00CB
:10A0240005B05DF804FB084BD3F80435074A0092E9
:10A0340040F2A6320649042004F0E6FBEEE700BF36
:10A04400382E0020342E002000100140204204004D
:10A05400AF4104002DE9F0438FB004460E46154687
:10A064001F46D0F81890037823B181884846FFF73B
:10A0740061F9A06104F10C00A378002B3AD001210E
:10A0840062780DF128084346082A14BF00220122F1
:10A0940003F0C3FCC4F81890CDF8088003966378E5
:10A0A400EA1A92B2ADF810203244089207978DF85C
:10A0B40024300023ADF81830237B022B1CD0A37866
:10A0C4006BB3237B022B1BD02546002345F8243F8A
:10A0D4002A46E178206A0EF0E5FE606A98B101A98B
:10A0E400FFF782FF00283AD12A46E178206A0EF071
:10A0F400D9FEF2E70221C3E71023ADF81830DEE7FA
:10A1040023690593E0E7237B022B2CD104F10C0196
:10A11400E0890EF075FF0028D3D1052020E000234C
:10A124006362237B012B0DD02146002341F8243F99
:10A13400A08A0EF0D4FE01A9606AFFF755FFA0B90A
:10A1440005200DE004F12401E0890EF0C8FE01A908
:10A15400606AFFF749FF0028E6D0002000E00020F5
:10A164000FB0BDE8F0830520FAE70020F8E700000F
:10A1740070B5F0B00D4614461E4610AB0A460146B3
:10A184002046FFF767FFA0B11F4B1B6813F0040FB5
:10A1940037D01E4B1B68052B33DD1D4BD3F804351C
:10A1A4001C4A009240F219621B49062004F02CFB61
:10A1B40027E003AB01228DF80C20A28AADF80E2013
:10A1C400002204928DF8142010AA06926278AD1A27
:10A1D400ADF81C5008AA93E8030082E803000AAB18
:10A1E40004F10C0292E8030083E80300A37D8DF8D8
:10A1F4003830236A0C93636A0D930F9605A800F018
:10A2040005FB70B070BD00BF382E0020342E002036
:10A214000010014058420400AF41040010B5D47D41
:10A2240014B1FFF791FD10BDFFF7A2FFFBE770B576
:10A2340004460D461646808A01F0DAFF01281AD139
:10A24400237BD3B1022B0BD094F91630002B16DBF1
:10A25400237853B1324629462046FFF729FE0BE006
:10A264002369002BF0D1102006E03246294620460F
:10A27400FFF7A6FB00E0102070BD1020FCE70720CC
:10A28400FAE7000010B54FF4E0720021134818F00B
:10A2940009FE05F019FD0024114B1C6040222146E3
:10A2A400104818F0FFFD104B104A1A60104A5A600B
:10A2B4004CF250329A600F49D9601A6104221A751F
:10A2C4009C7508225A750C4803F042FA0B4B18602F
:10A2D4000B4B1C600B4805F0FBFD10BD0039002042
:10A2E400E4380020A4380020E83800208096980044
:10A2F400F049020020A10700A9A40200A038002010
:10A30400943800207196020008B505F055FC08BD8C
:10A31400C0B110B58CB004460369B3B1C369B3B11D
:10A324008369B3B101466846FFF7B6F8034610B136
:10A3340018460CB010BDA28A21696846FFF777FF62
:10A344000346F5E70E23184670470E23F0E70E2365
:10A35400EEE70E23ECE7D0B110B58CB004464268AA
:10A36400BAB18269BAB1027C022A16D0BAB190F9A4
:10A374000020002A15DB0A4601466846FFF7E2F88A
:10A38400A26861686846FFF752FF0CB010BD0E204A
:10A3940070470E20F9E70E20F7E71020F5E71020AC
:10A3A400F3E70720F1E70000037B012B01D0002035
:10A3B400704730B58DB001AC00230293CDF80B305B
:10A3C4008288C2F386158DF8045092008DF805201A
:10A3D4000A0E8DF806200A0C8DF807200A0A8DF85B
:10A3E40008208DF809100622069201228DF82020FB
:10A3F400828AADF8222009938DF810300594026A00
:10A404000A928DF81C30C389ADF81E3090F82C30B8
:10A414008DF82D30837D43B98DF82C306FF0010118
:10A4240004A8FFF798FF0DB030BD024B5B7D8DF89B
:10A434002C30F3E7E838002038B590F84830022B88
:10A4440000D038BD90F86830022BFAD10446C16CB4
:10A45400FFF7AAFF0028F4D1002384F86830E56CE4
:10A46400237853B1E3795A1C01239340013B9D4265
:10A47400E7D12046FFF779FBE3E77846FEF76EFC69
:10A48400F0E7000010B5002407E0C4EBC402130198
:10A4940003481844FFF7D0FF0134032CF5D910BD4D
:10A4A4000039002008B5FFF7DBFAFFF7EBFF0120C6
:10A4B40008BD00002DE9F04182B007460E4614465F
:10A4C40098461046FEF7C4FF054620B1A28883884B
:10A4D4009A4210D312D82046FFF706F9B8B1037890
:10A4E4004BB123787BB1E1794B1C012199400139AF
:10A4F4002046FFF759FF02B0BDE8F0810521FFF7C0
:10A5040055FB0025E7E77846FEF728FCEBE7002D2E
:10A5140056D05F4B1B6813F0040F04D05D4B1B68CF
:10A52400032B00F385802846FFF7C2FA2B7B012B0F
:10A5340000F08C80EA6CA17901238B401A42DAD1B5
:10A544001343EB64A279EB799A4200F08880E37DAF
:10A55400002B00F08F800823B34240F08D80EB6E17
:10A56400A079E27D002A00F08C8008243246394626
:10A5740004FB003018F06DFCEC6C2B78002B00F021
:10A584008280EB795A1C01239340013B9C42B2D157
:10A59400022385F86830E96C2846FFF705FF044676
:10A5A40043462A46B5F84A10E86EFFF737FE002CFA
:10A5B400A1D1002385F868302846FFF7D6FA9AE738
:10A5C400E279531CE17DE9B1082202FB03F2D9B11F
:10A5D4004FF4807393421AD22D4B1B6813F0040F6F
:10A5E40089D02C4B1B68002B85DD2B4BD3F804350D
:10A5F40001922A4A009240F236322949012004F09D
:10A6040003F978E70C22E0E74FF4C073E2E7022194
:10A614002046FFF7CDFB054600287FF47AAF0021E2
:10A624002046FFF7C1FE02210020FFF70BF862E786
:10A63400194BD3F80435A27901921A4A009240F2D8
:10A6440051321749042004F0DFF86CE795F86830BC
:10A65400002B7FF46FAF2846FFF740FA6AE79BB2FE
:10A66400E27D2AB1082203FB0263A5F84A3076E7AB
:10A674000C22F8E70C236FE704212846FFF796FA2B
:10A6840039E70C2472E77846FEF768FB79E700BFE8
:10A69400382E0020342E00200010014034420400E3
:10A6A400AF410400484204002DE9F0418EB0002877
:10A6B4004AD00546002A49D0984614460E46002240
:10A6C4000C920D920CA960880EF09AFC20B9002718
:10A6D40038460EB0BDE8F0812269E168208905F0B2
:10A6E4009FFA08B10027F3E72269E168208905F0A1
:10A6F4006BFA0746C8B96B46424621462846FFF71F
:10A7040023F803AB0EAA12E9030083E8030002F066
:10A71400A7FF9DF8003083B143466A46311F281DC8
:10A72400FFF7C8FE02F0E0FFD2E72169002201F042
:10A7340001012089FEF76AFFCAE743466A46711E93
:10A74400681CFFF76BFDEDE70E27C1E70E27BFE797
:10A7540010B50C4691F84830022B0BD1022384F833
:10A764006830E16C2046FFF71FFE10B9002384F81F
:10A77400683010BD7846FEF7F1FAEFE7F8B500B39C
:10A784000546164B1F68F7B90E463C46B4420ED236
:10A7940005EBC4035B68CBB115F8340010F0800FEF
:10A7A40016D1B8B1FEF7FEFEB0B90134EEE70C4B9A
:10A7B40043F8375003EBC7035E607B1C074A136002
:10A7C40002E00E2700E004273846F8BD0E27FBE719
:10A7D4000B27F9E70F27F7E70F27F5E79438002051
:10A7E40098380020084B196861B110B504E0064898
:10A7F40003F073FF214624B10C680B79002BF9D0C8
:10A80400F5E710BD704700BFC43A002038B50546CF
:10A8140030B1104B1C68ACB10F4B01221A7004E02C
:10A824007846FEF79BFAF4E724683CB12379002BC1
:10A83400FAD154F8043C28469847F5E7064B1B78B0
:10A84400022B00D038BDFFF7CDFF034B00221A7056
:10A85400F8E700BFC43A0020C03A002010B504460F
:10A8640030B100232372211D034803F00BFF10BDF8
:10A874007846FEF773FAF4E7C43A00200A8883683E
:10A884009B5A07339BB223F0030313449BB2028801
:10A89400043A934200D900230B80704710B582B06C
:10A8A40004468368C91AADF806100DF10601FFF7D6
:10A8B400E5FFBDF80630A068184402B010BD00885A
:10A8C400043880B2704743888268D018D15201237B
:10A8D400837070478268002393704380838070473D
:10A8E400073189B221F0030189B2428883889A42F0
:10A8F40004D29B1A99421EDC0020704710B59A427C
:10A904000FD90488A41AA14217D98B4217D3032C58
:10A9140003D98368134404229A70002343801846A1
:10A9240004E0826813449B780BB1042010BDFFF748
:10A93400D1FF0020FAE7042070470020F6E7042046
:10A94400F4E738B504460D468368828813448B4285
:10A9540002D07846FEF702FA0023AB70211D204690
:10A96400FFF78CFFA288A36813449B78042B00D0C4
:10A9740038BD0023A380FBE710B50C4683684288EA
:10A9840013448B4202D07846FEF7E8F90023A37003
:10A9940010BD10B5044630B12388042B07D92046D6
:10A9A400FFF78DFF10BD7846FEF7D8F9F4E7784637
:10A9B400FEF7D4F9F3E770B5064615460C460029B0
:10A9C40044D0002E46D0B4F1005F08D94FF0805334
:10A9D400D3F80C3103F50023B4EB832F0ED3B4F575
:10A9E400000F08D94FF08053D3F80C3103F500530E
:10A9F400B4EB832F02D37846FEF7B0F96B1E2344E1
:10AA0400B3F1005F08D94FF08052D2F80C2102F55F
:10AA14000022B3EB822F0ED3B3F5000F08D94FF009
:10AA24008052D2F80C2102F50052B3EB822F02D3EC
:10AA34007846FEF793F9042D10D9358000237380EE
:10AA4400B380B460043D2580A37070BD7846FEF7E2
:10AA540085F9B6E77846FEF781F9B4E77846FEF75C
:10AA64007DF9EAE738B50446A0B16288A3681344C7
:10AA74009B78012B12D0EFF3108572B6A388A168DE
:10AA840019448B78032B0DD02046FFF723FF05B91B
:10AA940062B638BD7846FEF761F9E6E77846FEF718
:10AAA4005DF9E8E72046FFF7F9FEA368C31A63805F
:10AAB40000238370EBE72DE9F0410E46154604466A
:10AAC400D0B1EEB16288A36813449B78012B1BD0EC
:10AAD40025B32046FFF7F3FEA84221D3EFF31088F5
:10AAE40072B629462046FFF7FBFE074680B1B8F14F
:10AAF400000F16D162B614E07846FEF72FF9E0E7AE
:10AB04007846FEF72BF9DDE77846FEF727F9DFE70D
:10AB140029462046FFF7D7FE3060E8E7092700E022
:10AB240009273846BDE8F081F8B50C4616460546B7
:10AB3400E0B1FCB1A378012B20D12388B34221D307
:10AB440026B3EFF3108772B626800223A370E918A8
:10AB54002846FFF793FE6B88AA88934203D0AA681D
:10AB6400134400229A7007B962B6F8BD7846FEF71E
:10AB7400F5F8DEE77846FEF7F1F8DBE77846FEF70E
:10AB8400EDF8DAE77846FEF7E9F8D9E77846FEF714
:10AB9400E5F8D6E770B50D46044690B1ADB1EFF3D4
:10ABA400108672B6A288A36813449A78042A10D037
:10ABB4009A78022A15D0032A18D0052006B962B65D
:10ABC40070BD7846FEF7CAF8E8E77846FEF7C6F89F
:10ABD400E5E7211D2046FFF751FEA288A368134430
:10ABE400E6E703229A702B600020E7E77846FEF739
:10ABF400B5F80020E2E738B5044680B1EFF31085DC
:10AC040072B6A088A16801448B78042B0BD0887895
:10AC1400022814BF0020012005B962B638BD784669
:10AC2400FEF79CF8EAE72046FFF738FE0146EEE718
:10AC340038B5044678B1EFF3108572B6A088A168E0
:10AC440001448878C31EDBB2012B08D82046FFF7E5
:10AC540025FE0146F5E77846FEF780F8EBE7022883
:10AC640014BF0020012005B962B638BD70B50C468A
:10AC7400064678B194B1EFF3108572B6A378012B30
:10AC840010D0032B13D121463046FFF75AFE05B9E5
:10AC940062B670BD7846FEF761F8EBE77846FEF7DA
:10ACA4005DF8E8E721463046FFF766FEEFE77846B1
:10ACB400FEF754F8EBE710B5EFF3108472B683880F
:10ACC400816819448B78042B06D08878B0FA80F018
:10ACD400400904B962B610BDFFF7E0FD0146F4E790
:10ACE40008B5064B986800221A605A609A60DA60C8
:10ACF4001A615A619A6104F06FFD08BDC83A0020D8
:10AD040000B585B00A4BDB6802228DF80020019360
:10AD14004FF480530293074A6946012001F07EF9FB
:10AD240018B9012005B05DF804FB0020FAE700BF64
:10AD3400C83A0020E43A002000B585B00A4B1B68ED
:10AD440002228DF8002001934FF480530293074AA6
:10AD54006946012001F062F918B9012005B05DF8D7
:10AD640004FB0020FAE700BFE83A0020E43A0020A0
:10AD7400164BDA68137951795B1A03F57F2303F6CE
:10AD8400FF7302EB03339A4205D002F580520F4B56
:10AD9400DA600320704700B585B00D4B1B680120B5
:10ADA4008DF8000001930B4B0393042302930A4A8A
:10ADB400694601F033F918B1002005B05DF804FBD1
:10ADC400024B01221A760220F7E700BFC83A00209E
:10ADD400E83A0020EC3A0020E43A002000B585B0BF
:10ADE4000C4BDA680C4B1B68043301208DF800000F
:10ADF4000192039340F6FC730293084A694601F0FA
:10AE04000DF918B90120034B187600E0002005B0B5
:10AE14005DF804FBC83A0020E83A0020E43A002038
:10AE240000B585B00A4B1B6801208DF80000019322
:10AE3400084B039304230293074A694601F0EEF892
:10AE440018B9012005B05DF804FB0020FAE700BF43
:10AE5400E83A0020D43A0020E43A002010B584B047
:10AE6400104BDA681478104B1B68043301208DF8FA
:10AE740000000193039202940C4A694601F0CEF853
:10AE840068B9094B1B6804F0FC041C440434054BEA
:10AE94005C61D9680A780A441A61012000E0002044
:10AEA40004B010BDC83A0020E83A0020E43A00207B
:10AEB40008B50023092B09D8064A52F823208242F8
:10AEC40001D00133F6E7044A536002E07846FDF707
:10AED40045FF08BD84420400C83A002010B5214B48
:10AEE400DB6853B11F4B1B7E5BB91E4B5B68092BA0
:10AEF40026D97846FDF732FF22E07846FDF72EFF8B
:10AF0400F0E77846FDF72AFFEFE7164A5368013366
:10AF14005360092B21D97846FDF720FF1DE0114B22
:10AF240000225A6019E00F4B1B7E1BB10D4B02220D
:10AF34001A7012E0FFF7D4FE0FE00A4B1B7E83B9B0
:10AF4400084B5A68084B53F82230984704460228A5
:10AF5400E9D00328E3D00128D7D0012CEDD0032C6D
:10AF6400EBD010BDC83A002084420400104B1B688B
:10AF74001B685A1E12F1030F18D8C3F30B020AB14F
:10AF84000020704710B50B4AD36000231376537624
:10AF94000124147093600848FFF78AFF074920468C
:10AFA40001F02AF8FFF79AFF204610BD00207047F1
:10AFB400E83A0020C83A002005AD0200C5AF0200FF
:10AFC40008B50B78032B06D00B4B1B78012B06D04E
:10AFD400022B0BD008BD084B00221A76F4E7064B6F
:10AFE4001B7E002BF6D1FFF779FFF3E70B78032BD9
:10AFF400F0D1FFF775FEEDE7C83A002000B585B043
:10B00400174BDB6818784FF6FF7203F5805118442C
:10B0140004F014FFF0B10246114BD9680B780B44CD
:10B02400984219D00E4B5B7E93B10E4B01208DF8E4
:10B03400000001920393042302930B4A694600F033
:10B04400EDFF58B90120064B187605B05DF804FBF6
:10B05400064BEBE70120F8E70120F6E70020F4E7D0
:10B06400C83A0020C8440400E43A0020C444040060
:10B0740008B5104BDB681878002203F5805118449A
:10B0840004F0DCFE08B1012008BD0A4BDA6813792C
:10B0940051795B1A03F57F2303F6FF7302EB033345
:10B0A4009A4205D002F58052024BDA600320EBE7A6
:10B0B4000220E9E7C83A0020F0B585B0514BDD68BD
:10B0C4006A792B79591E8A4214D005F580510C787F
:10B0D4000C444D490968081D0E7906449B1A05EB7A
:10B0E40003356388013B9BB247F6FE62934260D905
:10B0F40027461BE00120434B58767EE07846FDF757
:10B104002DFE16E027F47F6323F00F0303F580532D
:10B114001A7813449D4247D99C4247D25A88013A2F
:10B1240092B21F4647F6FE618A4210D93B88002B33
:10B13400E4D03B8807EB830323F47F6222F00F0201
:10B144009342DFD07A88B2F5FE4FE3D1DAE71C46AA
:10B154002FE07846FDF702FE16E027F47F6323F024
:10B164000F0303F580531A7813449D4220D99C425F
:10B174003BD25A88013A92B21F4647F6FE618A4290
:10B1840010D93B88002BE4D03B8807EB830323F4DE
:10B194007F6222F00F029342DFD07A88B2F5FE4F2D
:10B1A400E3D1DAE71C4604E0002402E0002400E0D6
:10B1B4000024E4B1144B1968628801F580513046CB
:10B1C40004F03CFE064690B101200E4B18768DF833
:10B1D400000001940D4B0393042302930C4A694627
:10B1E40000F01CFF58B92746CBE70024E1E7B4FA86
:10B1F40084F46409034B5C76012005B0F0BD0020A3
:10B20400FBE700BFC83A0020E83A0020C04404002D
:10B21400E43A00202DE9F04186B0644B1B6923B168
:10B22400624B5B692BB1002748E07846FDF796FD39
:10B23400F6E77846FDF792FDF5E77846FDF78EFDD3
:10B2440017E028F47F6323F00F0303F580531A7883
:10B2540013449E421FD99C4221D25A88013A92B289
:10B26400984647F6FE618A4213D9B8F80030002B9D
:10B27400E3D0B8F8003008EB830323F47F6222F0B4
:10B284000F029342DDD0B8F80220B2F5FE4FE0D1B0
:10B29400D7E71C4600E000241CB1009438E00024E9
:10B2A400FAE700230093019B002B5AD10127002CBD
:10B2B40076D0628847F6FF739A4271D0002F73D11B
:10B2C4003A4B5A6922F47F6525F00F05AD1A05F54E
:10B2D40080551C69DE68337972799B1A06EB033654
:10B2E400002301936388013B9BB247F6FE629342BD
:10B2F400D3D9A046B9E77846FDF730FD23E024F41E
:10B304007F6424F00F0404F58054237823441C46FE
:10B31400A642C8D92388019A02EB83029542C2D976
:10B32400009B634023F47F6323F00F03002BBAD107
:10B334006388013B9BB247F6FE618B42B3D801920E
:10B344002388002BD7D0238804EB830323F47F6264
:10B3540022F00F029342D2D06288B2F5FE4FD6D1CA
:10B36400CDE7124A526901208DF808000392009A31
:10B37400059204930E4A02A900F050FE70B90B49DD
:10B38400019B23F003024B6913444B6114B1074B37
:10B394001C618CE77846FDF7E1FCF8E7002000E04B
:10B3A400012006B0BDE8F0810120FAE7C83A002088
:10B3B400E43A002008B54FF010235B69B3F1FF3F76
:10B3C40009D04FF010235B692BB14FF010235B6958
:10B3D400A3F5805305E04FF080525169136903FBD4
:10B3E40001F3A3F58053024A1360FFF7BFFD08BDC4
:10B3F400E83A002010B50446B0B1104B1B78BBB13D
:10B404000E4BD968E3685879A3EB0032914211D30B
:10B414001A79121A02F57F2202F6FF7203EB023345
:10B42400994209D8012004E07846FDF797FCE4E747
:10B43400002010BD0020FCE70020FAE7C83A0020F5
:10B44400024B1878003018BF01207047C83A00201A
:10B4540010B504460E4B1B7893B92378032B13D1F4
:10B464000B4B9C60E268DA6000225A601A76012075
:10B4740018705A76074900F0BFFDFFF72FFD10BD85
:10B484007846FDF76BFCE8E77846FDF767FCE7E7ED
:10B49400C83A0020C5AF0200014B1868704700BFCE
:10B4A400E83A002010B5044680B163681BB12368F4
:10B4B4000BB1A36813B97846FDF750FCA3685A1E74
:10B4C400134207D10023E360236110BD7846FDF7E2
:10B4D40045FCEAE77846FDF741FCF3E770B508B3AD
:10B4E400034609B382680AB3EFF3108572B60269A2
:10B4F40080681418DA68944210D01C461E685B6891
:10B50400013810401A4600FB036017F0A2FCE36800
:10B514000133E36065B962B6284670BD05B962B609
:10B524000425F9E70E25F7E70E25F5E70925F3E7E6
:10B534000025F1E770B5F0B104468368EBB1EFF391
:10B54400108572B60369C068834210D0084621682A
:10B554006268A668013E334003FB021108B117F08C
:10B5640078FC2369013323614DB962B608E005B95B
:10B5740062B6052504E00E2502E0092500E0002559
:10B58400284670BDC0F30B033BBB41B301F6FF710A
:10B59400090B144B0222C3F80425124BD3F80034D0
:10B5A400002BFAD0002202E000F5805001328A42DA
:10B5B40008D20C4BC3F808050A4BD3F80034002B0F
:10B5C400FAD0F1E7074B0022C3F80425054BD3F862
:10B5D4000034002BFAD00020704710207047092057
:10B5E400704700BF00E0014010F0030F2FD111F0AD
:10B5F400030F2FD182B312F0030F2FD110B492088E
:10B60400174B0124C3F80445154BD3F80034002B21
:10B61400FAD002E0043004312246541E52B10B68C1
:10B62400B3F1FF3FF6D003600D4BD3F80034002B89
:10B63400FAD0EFE70A4B0021C3F80415084BD3F8FE
:10B644000034002BFAD010465DF8044B70471022EA
:10B65400104670471022FBE70922F9E70922F7E7B1
:10B6640000E001404388012B05D0022B01D10430B6
:10B6740008600120704704304860FAE708B50822E2
:10B684000221084803F019FF38B1074A9168416064
:10B69400127B027203F04AFF08BD044804F074F8F8
:10B6A400FAE700BFF83A0020443B0020F82D0020C0
:10B6B4000E4B1B78CBB910B50D4B5C6804F50054E8
:10B6C400B4F1807F00D910BD04220121094803F0A0
:10B6D400F4FE30B14460054A0121117003F026FFE5
:10B6E400F1E7054804F050F8EDE77047583B0020B7
:10B6F400443B0020F83A0020E82D002010B5044611
:10B7040008B1A04710BD7846FDF728FBF9E7000013
:10B7140008B501210C4803F031FF20B902210A4881
:10B7240003F02CFF28B1094804F02EF8FFF7C0FFFE
:10B7340008BD074A0023136053609360D36013610C
:10B74400044A1370F2E700BFF83A0020182E0020D4
:10B75400443B00201C3B002000B58DB00B4B1B7BF1
:10B76400012B0ED0094A926804928DF80830039098
:10B7740002238DF8043001A8FFF748F80DB05DF8F6
:10B7840004FB024A9268013A0492EEE7443B00202B
:10B7940010B58CB00C4682B94B88012B20D1134BC9
:10B7A4001B7833B16268124B5A60104B00221A7036
:10B7B40016E07846FDF7D2FAF4E7032A12D12C22D8
:10B7C400002101A817F06EFB11238DF804300394B7
:10B7D400084BDA6805921B69069301A8FFF716F86F
:10B7E4000CB010BD7846FDF7B9FAE8E7583B0020E5
:10B7F400443B0020F83A002000B583B001F030FF4C
:10B804000021009101916B46134A144803F04AFD4C
:10B81400009B63B1019A52B1186811498860187984
:10B82400087393420BD950B900220A600AE00C4B0A
:10B8340000221A609A601A73FFF720FF02E0126870
:10B84400074B1A60064B1A685A60FFF731FF01F084
:10B854004BFF03B05DF804FB69B60200F83A002020
:10B86400443B002008B503F0E3FFA0F5805008BD79
:10B8740000B587B0002300930193029303930493CC
:10B884000593FFF7EFFF009001230193064B039309
:10B894006946064803F029FF10B907B05DF804FBB8
:10B8A400034803F071FFF8E795B70200F83A002067
:10B8B400082E002010B50B4B00241C605C609C60BB
:10B8C400DC601C6101F034F9074B5860074A9A6048
:10B8D400074ADA601C615C61064B1C70FFF7C8FF05
:10B8E40010BD00BF443B0020203B002029BA0200C9
:10B8F40000879303593B002008B5084B1B7803B11C
:10B9040008BD0748074B036000F032FE064801F00B
:10B9140099F8024B01221A70F2E700BFF43A0020B2
:10B92400383B002051BB0200203B002010B501F041
:10B9340097FE164B1B7B0BBB144B9B7B1BBB134B08
:10B944001A8A41F282639A4204D8114B1B782BB1B4
:10B95400012300E001231BB9082410E00023FAE7C7
:10B964000A4B01221A7300241C829A6801329A60DD
:10B97400FFF784FE2046FFF7EFFE00E0082401F005
:10B98400B3FE204610BD0824F9E700BF443B002065
:10B99400593B002010B501F063FE204B5B7B9BB14B
:10B9A4001E4B9B7BF3B91D4B1A8A41F282639A4268
:10B9B40004D81B4B1B782BB1012300E001239BB15E
:10B9C400012302E00023FAE700231C460BB3134BC8
:10B9D40000225A731B7B4BB1012B0ED07846FDF726
:10B9E400BDF916E00023F0E70023EEE7FFF79EFF22
:10B9F40078B17846FDF7B2F90BE0084B00201860E7
:10BA0400586018731882FFF7A7FEFFF737FEFFF799
:10BA14004FFE01F069FE204610BD00BF443B0020EC
:10BA2400593B002008B5214B1B7B7BB1012B20D057
:10BA34007846FDF793F91D4A138A013313821B4B91
:10BA44005B8A13B1013B194A538208BD174B1A8A0A
:10BA540041F282639A4204D8154B1B783BB101230F
:10BA640000E00123002BE6D0FFF794FFE7E7002373
:10BA7400F8E70E4B1B8A41F28262934204D80C4AC7
:10BA8400127872B1012200E00122002AD3D042F2DE
:10BA9400B012934207D9054B01225A73FFF77AFF7C
:10BAA400CDE70022F1E7FFF775FFC4E7443B002030
:10BAB400593B002010B5244B1B7B002B35D1044689
:10BAC400214B5B8A2BBB1AB91F4B9B688B4205D356
